:100000000C9491030C94DE080C94B9030C94B9037E
:100010000C9494090C9435090C94B9030C94B9030D
:100020000C94B9030C94B9030C94B9030C94B90360
:100030000C94B9030C94B9030C94B9030C94B90350
:100040000C94C0170C94B9030C94680F0C94420FD5
:100050000C94B9030C94B9030C94B9030C94B90330
:100060000C94B9030C94B903930499049F04A50458
:10007000AB04B104B704BD04D704DF04E704EF0404
:10008000F704FF040705BE05C605CE05D605DE0547
:10009000E605EE05F60553065B0663066B0673067A
:1000A0007B0683066F1575157B1581153F16871521
:1000B0003F163F168D153F169815AD15C2153F1604
:1000C0003F163F16D7153F163F16EC153F1616166E
:1000D0003F163F163F163F163F163F1601162B16CA
:1000E00005A84CCDB2D44EB93836A9020C50B991FE
:1000F0008688083CA6AAAA2ABE000000803F4E4F70
:10010000542044455445435445442D50414C004EE1
:100110004F542044455445435445442D4E54534375
:10012000004155544F2D50414C004155544F2D4ED8
:100130005453430053493A0049443A0020202020B8
:100140002B50495443482046554C4C002020202039
:100150002B594157205249474854004D454E553A76
:1001600054485254204D4944444C4500004D572DAD
:100170004F5344202D2052312E372E31004C4F4FFB
:100180005054494D450050494420434F4E54524F1E
:100190004C4C45520050524F46494C45005445582E
:1001A0005420414C41524D5300414D5053004D415C
:1001B0004820583130300054494D45520053504585
:1001C000454400414C544954554445205831300071
:1001D00044495354414E434520583130300054482F
:1001E000524F54544C452050574D004F53442054C7
:1001F00058204348004D41472043414C004445426C
:10020000554700562052454600554E495453004D1F
:100210004150204D4F44450047494D42414C005309
:10022000454E534F52530047505320434F4F524473
:1002300053005448524F54544C45005343524F4C72
:100240004C494E47204241525300534944452042B5
:1002500041525300484F52495A4F4E0041444A556B
:100260005354205A45524F0041444A55535420415B
:100270004D505300555345205649525455414C203A
:1002800053454E534F5200444953504C4159204D11
:10029000414800444953504C415920414D5053006E
:1002A0005345542052535349204D494E0053455411
:1002B0002052535349204D41580055534520505723
:1002C0004D00534554205253534900444953504C18
:1002D000415920525353490055534520464300434A
:1002E000454C4C5300444953504C415920564944C5
:1002F00020564F4C5453004D41494E20564F4C54BC
:100300005320414C41524D0041444A5553542056CC
:100310004F4C545300444953504C4159204D41498E
:100320004E20564F4C5453005448524F54544C4551
:10033000204558504F005448524F54544C45204D7E
:1003400049440054504100594157205241544500FE
:100350005049544348205241544500524F4C4C2080
:1003600052415445005243204558504F00524320BB
:100370005241544500594157205243204558504F4F
:100380000054504120425245414B504F494E540079
:100390004D4147004C4556454C0047505300414C99
:1003A000540059415700504954434800524F4C4C57
:1003B000004D415820414D5053004D414820555368
:1003C0004544004D4158205350454544004D415847
:1003D00020414C544954554445004D41582044490E
:1003E0005354414E434500544F54204449535441C3
:1003F0004E434500464C592054494D450041445612
:10040000414E43452054554E494E4700414C4152C0
:100410004D5300414456414E4345440044495350D6
:100420004C41590043555252454E54005253534982
:1004300000564F4C544147450052432054554E49B5
:100440004E4720320052432054554E494E470050EB
:10045000494420434F4E4649470053544154495361
:1004600054494353004445425547004C4F5720568A
:100470004F4C5453004C4F57205341545300204E7F
:100480004F20475053004E4F2044415441002041DB
:10049000524D45440044495341524D454400204D7E
:1004A000495353494F4E004155544F20484F4C44F7
:1004B000004155544F2052544800002A0121010F99
:1004C00001FE006D016C015B014C013C016C0138C7
:1004D000013401950186017D01D001C301BD01B741
:1004E00001AE01A9019D01312E315600355600495A
:1004F0004D50004D45540009020302FD01F501EB8A
:1005000001DE0154024A023B02320227021F021896
:10051000020F0293028702740268025C02CB02C2DD
:1005200002D802BA02AD02A00215030803F702E5E1
:10053000020803DF02D8026D0365035B0350034723
:100540000343033603280381037503AC03A603A208
:10055000039E039A0394039003F403E703DA03CDA5
:1005600003C303BA03B1033C504147453E00534126
:1005700056452B455849540045584954005A044F94
:10058000044504390431042C0424041C0413040C11
:1005900004FD03BA0495048E0486047E0475046B7E
:1005A0000465041D1A1D1C1D191D1C1D1B1D1C1D71
:1005B000181D1C1D1A1D1C1D191D1C1D1B1DBA04F8
:1005C000B104A7049E044F4E004F46460020007B16
:1005D000C12A002100900054002400720027003539
:1005E00000CB0060017EC17EC137C110011D010238
:1005F000000F004C01F2006BC12FC175017F01C2D9
:1006000000BB00BB00030007007A00550106015C37
:10061000003400C50064005701BA001801DCC02096
:10062000C034C036C0B7C090C054C024C072C02807
:10063000C0CBC0CAC060C17EC17EC137C110011D20
:100640000102C00FC04DC1F3C06BC12FC171C17891
:10065000C1C2C0BBC0BBC0030007007AC055C10601
:10066000C15CC03400C30064C05301BA0018C1DCCF
:10067000C000000000960000000004F40158020DC4
:1006800000003C000000018A04C8000000000001D6
:1006900000C80032640101010000000100000001F7
:1006A0000100000100000100000000000101010143
:1006B000010001010004000000050001000000002D
:1006C0001E4D574F53440020202020C905C6050069
:1006D000000000240027002A000000000025002858
:1006E000002B0004040404040404040202020202B5
:1006F00002030303030303010204081020408001E6
:100700000204081020010204081020000000080064
:1007100002010000030407000000000000000000C8
:10072000522E11241FBECFEFD8E0DEBFCDBF27E091
:10073000ACE5B1E001C01D92AC31B207E1F711E0C8
:10074000A0E0B1E0E0ECF4E602C005900D92AC351B
:10075000B107D9F713E0C1E9D3E004C02197FE0146
:100760000E94C52EC039D107C9F70E940A180C94FF
:100770005E320C94000060919B058CE591E00C9436
:10078000CD0ECF93C82F682F8CE591E00E94CD0E3F
:1007900080919B05C827C0939B05CF910895CF9367
:1007A000DF931F92CDB7DEB799830E94C103998171
:1007B000892F0F90DF91CF910C94C103CF93DF93DA
:1007C000D82FC62F64E28CE591E00E94CD0E6DE437
:1007D0008CE591E00E94CD0E6CE38CE591E00E94E7
:1007E000CD0E10929B058C2F0E94C1038D2F0E946D
:1007F000C103C11104C0DF91CF910C94BB03DF9101
:10080000CF910895DF92EF92FF920F931F93CF93B2
:10081000DF93809109018A30C9F4909108019330E7
:10082000A9F490919C0592301CF091E090939C0566
:1008300090919C059F3F1CF49FEF90939C05209105
:100840000A0190919C05920F90930A0190910A01E0
:1008500097FF03C09AE090930A0190910A019B30A0
:1008600014F010920A0120910A01213019F5EFEFDE
:10087000E80FE73008F04FC2863010F0E1E0E80FF3
:1008800090910801923049F0933059F0913009F07D
:1008900042C2F0E0E45DFD4F07C0F0E0EE5DFD4FC9
:1008A00003C0F0E0E85EFD4F308190919C05930F0E
:1008B000908331C2233009F590910801933009F0FB
:1008C0002AC2813059F0823009F025C29091150278
:1008D00080919C05890F80931502B1C220919C05DF
:1008E0008091160290911702820F911D27FD9A9513
:1008F0009093170280931602A2C2223009F043C0DF
:1009000090910801933009F006C2482F50E0FA0197
:100910003197E830F10508F0FEC1EC5CFF4F909193
:100920009C050C94C52E30911402930F90931402E1
:10093000F2C130911302930F90931302ECC13091E6
:100940001202930F90931202E6C130911102930F9D
:1009500090931102E0C130911002930F9093100216
:10096000DAC130910F02930F90930F02D4C13091EE
:100970000E02930F90930E02CEC130910D02930F91
:1009800090930D02C8C1243009F049C0909108012C
:10099000933009F0C0C1482F50E0FA013197E73099
:1009A000F10508F0B8C1E45CFF4F0C94C52E91E04E
:1009B0003091F004311190E09093F004ACC130918B
:1009C0009C059091F304930F9093F304A4C130918C
:1009D0009C059091F104930F9093F1049CC191E0D8
:1009E0003091FA04311190E09093FA0494C130915F
:1009F0009C059091FB04930F9093FB048CC1309164
:100A00009C059091F204930F9093F20484C191E0BD
:100A10003091F404311190E09093F4047CC12530BE
:100A200009F04DC090910801933009F074C18330F2
:100A300039F148F48130E1F0823009F06CC18FE087
:100A400080933F05FCC1853059F110F1863009F0E3
:100A500062C120919C058091050290910602820F4F
:100A6000911D27FD9A959093060280930502E7C198
:100A700081E09091ED04911180E08093ED04DFC15D
:100A800081E09091EE04911180E08093EE04D7C153
:100A900091E03091EF04311190E09093EF043BC16D
:100AA00020919C058091070290910802820F911D70
:100AB00027FD9A959093080280930702C0C12630C3
:100AC00009F048C090910801933009F024C18330A7
:100AD00051F128F48130B9F08230E9F01CC1843042
:100AE00051F1853009F017C120919C0580910102D8
:100AF00090910202820F911D27FD9A959093020218
:100B0000809301029CC181E09091F504911180E0F5
:100B10008093F50494C181E09091F704911180E0F5
:100B20008093F7048CC181E09091F804911180E0EA
:100B30008093F80484C120919C05809103029091D8
:100B40000402820F911D27FD9A95909304028093D1
:100B5000030275C1273009F051C09091080193300C
:100B600009F0D9C0482F50E0FA013197E830F1057B
:100B700008F0D1C0ED5BFF4F0C94C52E91E0309191
:100B80000905311190E090930905C5C091E03091BD
:100B90000A05311190E090930A05BDC091E03091B3
:100BA0001605311190E090931605B5C091E0309193
:100BB0000805311190E090930805ADC091E03091A7
:100BC0000005311190E090930005A5C091E03091AF
:100BD0001D05311190E090931D059DC091E030916D
:100BE0001705311190E09093170595C030919C0541
:100BF00090910D05930F90930D058DC0283009F04D
:100C00003FC090910801933009F085C08330E1F036
:100C100028F4813049F0823079F07DC0853001F1CF
:100C2000D8F0863029F177C081E0909106059111C6
:100C300080E08093060503C181E090910E0591113B
:100C400080E080930E05FBC081E090911505911125
:100C500080E080931505F3C09AE0909340055BC057
:100C600090919C0580912305890F80932305E7C00F
:100C700081E09091FC04911180E08093FC04DFC03E
:100C8000293009F048C090910801933009F043C021
:100C9000482F50E0FA013197E730F105E0F5E55BC8
:100CA000FF4F0C94C52E90919C0580912705890FCC
:100CB00080932705C4C090919C0580912805890FD9
:100CC00080932805BCC090919C0580912905890FCF
:100CD00080932905B4C090919C0580912A05890FC5
:100CE00080932A05ACC090919C058091FD04890FEA
:100CF0008093FD04A4C090919C058091FE04890F0F
:100D00008093FE049CC081E09091F904911180E0F1
:100D10008093F90494C08A3009F091C02093300187
:100D200080910801813009F481C0823009F087C0C8
:100D30008091FE0180939D066EE18AEC0E94DE03A5
:100D400082E2E82E82E0F82E08E112E0CCE2D2E066
:100D5000DC2E8AE0D80E89910E94C103F7018191AF
:100D60007F010E94C103F80181918F010E94C1039C
:100D7000DC12F1CF0E94BB036BE08CEC0E94DE031F
:100D8000809114020E94C103809113020E94C1034A
:100D9000809112020E94C103809111020E94C1033E
:100DA000809110020E94C10380910F020E94C10332
:100DB00080910E020E94C10380910D020E94C10326
:100DC00080911602909117020E94CF038091150224
:100DD0000E94C1030E94BB0309EE14E0C0E0D0E012
:100DE000F80161918F01CE010E949A0F2196CC34B7
:100DF000D105B1F70FEF11E0F8016081CE010E943B
:100E00009A0FF80161810E5F1F4FCE0101960E947B
:100E10009A0F2296CA35D10579F76DE080E090E00F
:100E20000E949A0F60E08AEF0E94DE03DF91CF916B
:100E30001F910F91FF90EF90DF900C949E0FDF9128
:100E4000CF911F910F91FF90EF90DF900895E09167
:100E5000060681E08E0F80930606F0E0E95FF94F09
:100E600080810895CF93DF930E942707C82FD0E099
:100E70000E9427079E01382BC901DF91CF91089569
:100E8000CF92DF92EF92FF920E9432076C01E12C29
:100E9000F12C0E943207A0E0B0E0DC0199278827FE
:100EA000BC01CD016C297D298E299F29FF90EF90EF
:100EB000DF90CF900895CF92DF92EF92FF920F9341
:100EC0001F93CF93DF936B017C01042F122FC42F4C
:100ED000D0E080E1C81687E2D806E104F104D4F13D
:100EE00080910605882389F0C701B60120EA34E124
:100EF00040E050E00E9403326C0D7D1D8E1D9F1D51
:100F000020E132E040E050E006C0C701B60124E62F
:100F100030E040E050E00E940332DA01C901BE0136
:100F20006150794F4AE00E94B831E0E0AE2FB0E066
:100F3000ED01C150D94F8881EF5F8111F7CFA250E9
:100F4000B94F8C9188838EE28C93F0E0E150F94F99
:100F5000108207C0BE016150794F4AE0C6010E946D
:100F6000B831013051F4E0910605F0E0E45CFE4F49
:100F7000E10FF11D80818093FF06DF91CF911F91DA
:100F80000F91FF90EF90DF90CF900895E82FF0E061
:100F9000EE0FFF1FE35BFB4F208131812227307C66
:100FA00081E02115304C09F080E008953F924F9286
:100FB0005F926F927F928F929F92AF92BF92CF92E9
:100FC000DF92EF92FF920F931F93CF93DF938A01EB
:100FD000D22F222311F0C8E001C0C5E0F801EC0FC8
:100FE000F11D1082DC2ECD2E3AE0432E512C612CC7
:100FF000712C46E0842E912CA12CB12C5AE3352E75
:101000002FEF2D0D7801E20EF11C27FDFA94A301BC
:1010100092010E942D3280E3860FF70180838EEFCC
:101020008D0D7801E80EF11C87FDFA94CA01B90113
:10103000A50194010E942D32605DF7016083B90122
:10104000CA01FDEFDF0EF801ED0DF11DD7FCFA9599
:101050003082CA942FEFC212D3CF2D2F220FD20F7E
:10106000CD1BC3502AE0822E912CA12CB12CC15053
:101070007801EC0EF11CC7FDFA94A50194010E94C1
:101080002D32605DF7016083B901CA0161157105F8
:101090008105910511F0C111EACF80E2CC2341F026
:1010A000C150F801EC0FF11DC7FDFA958083F6CF12
:1010B000C801DF91CF911F910F91FF90EF90DF90CA
:1010C000CF90BF90AF909F908F907F906F905F90E8
:1010D0004F903F900895EF92FF920F931F93CF93FD
:1010E000DF93FB0197FF05C0919581959109C1E0C0
:1010F00001C0C0E0DF01A40FB11D1C92DEE20AE0D6
:1011000010E0421306C04150DF01A40FB11DDC9373
:1011100020E03FEF340F7F01E30EF11CB8010E9485
:10112000B12E805DD7018C93CB01332379F022233C
:1011300011F0432FE6CF0097E1F7CC2339F03EEFD3
:10114000340FDF01A30FB11D8DE28C9380E23323B6
:1011500031F03150DF01A30FB11D8C93F8CFCF01D7
:10116000DF91CF911F910F91FF90EF900895CF9253
:10117000DF92EF92FF920E94B4176B017C0128E28C
:10118000C20ED11CE11CF11C81E080939A05809174
:101190009A05882371F00E94B417C616D706E80690
:1011A000F90618F410929A05F2CF80E00E94EF0F32
:1011B000EECFFF90EF90DF90CF9008951F920F92A7
:1011C0000FB60F92112410929A050F900FBE0F9038
:1011D0001F901895DB01A55BBD4FFC012491019682
:1011E000222311F02D93F9CF08959C01E62FF0E012
:1011F000E751FB4FE081F0E0EE0FFF1FE553F94FA1
:1012000085919491B9010C94EA08DC01FB01E55B3E
:10121000FD4F9D91992311F09193FBCF0895ABE27F
:10122000B5E0EFEFF6E02AE02E0F3D9131932E135B
:10123000FCCF10920907BC018FEF96E00C940509D2
:101240008EBD0DB407FEFDCF8EB50895CF93DF930D
:101250001F92CDB7DEB769830E9420096981862F6E
:101260000F90DF91CF910C9420091F920F920FB62F
:101270000F9211242F933F934F935F936F937F931C
:101280008F939F93AF93BF93CF93EF93FF93C9B186
:1012900078940E9455172091980530919905AB01DB
:1012A000421B530B9A01293B3B4018F021E020934D
:1012B0002F017093990560939805C5FD1FC020917B
:1012C000960530919705621B730BCB018F5E9240A0
:1012D0008B3D954048F4E0912D01F0E0EE0FFF1FAB
:1012E000E55FFE4F7183608380912F018F5F809354
:1012F0002F01709395056093940504C07093970532
:1013000060939605FF91EF91CF91BF91AF919F911F
:101310008F917F916F915F914F913F912F910F909E
:101320000FBE0F901F9018951F920F920FB60F923D
:1013300011242F933F934F935F936F937F938F93DA
:101340009F93AF93BF93CF93EF93FF93C6B17894DE
:101350000E9455172091920530919305AB01421BD5
:10136000530B9A01293B3B4018F021E020932E01BA
:101370007093930560939205C3FD1AC02091900568
:1013800030919105621B730BCB018F5E92408B3DB8
:10139000954020F470938F0560938E0580912E0107
:1013A0008F5F80932E0170938D0560938C0504C030
:1013B0007093910560939005FF91EF91CF91BF914C
:1013C000AF919F918F917F916F915F914F913F91DD
:1013D0002F910F900FBE0F901F9018954F925F9214
:1013E0006F927F928F929F92AF92BF92FF920F93D4
:1013F0001F93CF93DF93C7E3D1E0A2EAB5E040E0CB
:1014000050E06AE089918E3008F08E50877020910C
:10141000000190E4299F90011124822B80937C008D
:1014200080917A00806480937A0080917A0086FDB2
:10143000FCCF809178002091790090E0922BF09081
:101440008B054115510541F42091F404222339F113
:101450008091A10590E023C0443009F52091EF046C
:101460002223A9F080918E0590918F0595958795FF
:10147000009769F4649FF001659FF00D1124EF0D52
:10148000F11DEE0FFF1FEE55FA4F808191812091E3
:10149000EE04222321F080919F059091A005649F86
:1014A000F001659FF00D1124EF0DF11DEE0FFF1FF0
:1014B000EE55FA4F50962D913C9151970081118134
:1014C000201B310B51963C932E93509720813181F4
:1014D000820F931F969587959183808350962D91C7
:1014E0003C915197820F931F51969C938E935097E6
:1014F0004F5F5F4F54964530510509F083CF80917F
:10150000F4046091B2057091B305D0910E0581117C
:1015100034C080E090E0C091F304D11115C00E9466
:10152000F62F4B015C016C2F70E080E090E00E9490
:10153000F82F9B01AC01C501B4010E94EC3027E1FA
:1015400037EB41ED58E314C00E94F62F4B015C01CC
:101550006C2F70E080E090E00E94F82F9B01AC01BE
:10156000C501B4010E94EC302FE632E143E05AE3BA
:101570000E94EC300E94C72F05C053E07595679517
:101580005A95E1F770934202609341028091EB0417
:1015900080933A026091C6057091C70580E090E0A3
:1015A000C091FB04D11115C00E94F62F4B015C01C4
:1015B0006C2F70E080E090E00E94F82F9B01AC015E
:1015C000C501B4010E94EC3027E137EB41ED58E34F
:1015D00014C00E94F62F4B015C016C2F70E080E07C
:1015E00090E00E94F82F9B01AC01C501B4010E945C
:1015F000EC302FE632E143E05AE30E94EC300E94E7
:10160000C72F70933C0260933B028091F6048111D6
:10161000C4C08091F804C0910102D09102020091EF
:10162000030210910402811144C04E01A12CB12C7F
:101630002091DA053091DB0543E0359527954A95F1
:10164000E1F7C901330FAA0BBB0B9C01AD012819AF
:1016500039094A095B09D8010E94223200E014E0EE
:1016600020E030E0A9019801281939094A095B09ED
:101670000E940332CA01B9010E94F82F4B015C019C
:1016800020E030E0A9010E94442F87FD09C080922C
:10169000B5049092B604A092B704B092B80498C072
:1016A0001092B5041092B6041092B7041092B804C8
:1016B0008FC0809113019091140160910401709189
:1016C00005018617970740F06091060170910701A8
:1016D0008617970708F4BC01CB01A0E0B0E0BC017D
:1016E000CD01685E734081099109623F23E0720772
:1016F0008105910548F42AE030E040E050E00E9486
:101700002D3249015A0105C094E6892E912CA12C55
:10171000B12CC501B4010E94F62F2B013C01A5019B
:101720009401C501B4010E947F2E0E94F62F2AE089
:1017300037ED43EA5CE30E94EC309B01AC01C3014E
:10174000B2010E94D82E4B015C01B80180E090E00C
:101750000E94F62F9B01AC01C501B4010E94EC3040
:101760002AE037ED43E25CE30E94EC304B015C0180
:101770008091A904BE01882359F080E090E00E9486
:10178000F62F9B01AC01C501B4010E94D82E18C0F0
:1017900080E090E00E94F62F13C080919D0590910B
:1017A0009E0597FF02C0059701C005966AE070E0AC
:1017B0000E94B12E072E000C880B990B0E94F82F67
:1017C0006093B5047093B6048093B7049093B80403
:1017D0008091ED04882309F44EC0209102063091D7
:1017E000030683E0359527958A95E1F78091A70454
:1017F000882389F080913F058F3029F430930802C7
:101800002093070208C0813031F430930602209300
:10181000050210923F058090050290900602A12CCF
:10182000B12CC901330FAA0BBB0B9C01AD012819C8
:1018300039094A095B09A4E6B0E00E9422322091EE
:10184000070230910802890120E030E0A9019801E7
:10185000281939094A095B090E94033225363105E6
:1018600014F024E630E037FF02C020E030E030938F
:10187000A00420939F0481E08F0D883018F480939A
:101880008B0502C010928B05DF91CF911F910F91B4
:10189000FF90BF90AF909F908F907F906F905F90E0
:1018A0004F900895CF92DF92EF92FF920F931F9384
:1018B000CF93DF9380E090E00E949C0F8D3009F47D
:1018C00057C0C0E0D0E0FE01E158F94F6491CE016D
:1018D0000E949A0F2196CC34D105A9F7FE01EB5D49
:1018E000F94F05911491602FCE010E949A0F612F3C
:1018F000CE0101960E949A0F2296CA35D10571F742
:101900008E010A551109C801815E994F7C01FC01C5
:10191000C590D4906C2DCE010E949A0F6D2DCE01F2
:1019200001960E949A0FF801E353FA4F0591149122
:10193000602FCE018E5A9F4F0E949A0F612FCE01C9
:101940008D5A9F4F0E949A0FF70105911491602FB5
:10195000CE018C559F4F0E949A0F612FCE018B555F
:101960009F4F0E949A0F2296CE3FD10509F0C8CF13
:10197000DF91CF911F910F91FF90EF90DF90CF906B
:101980000895BF92CF92DF92EF92FF920F931F9331
:10199000CF93DF93C090E80422E5C29EC0011124DA
:1019A000B09007050DE414E07C013CEAE30EF11C65
:1019B000FC01E65AFF4F6F01C6010E949C0FC82F21
:1019C000D0E0F801D183C083C60101960E949C0F2C
:1019D000282F30E0322F22272C0F3D1FF8013183B2
:1019E0002083BB2081F0C90191708739910558F09F
:1019F000813F910518F4225E3F4F03C0245C3F4FA6
:101A0000F80131832083F2E0CF0ED11C0E5F1F4F0F
:101A1000CE14DF0489F6DF91CF911F910F91FF90D3
:101A2000EF90DF90CF90BF9008955E9A2A9864E679
:101A300070E080E090E00E947A172A9A80E58CBDE1
:101A400081E08DBD8DB58EB56AE070E080E090E0FC
:101A50000E947A175E9864E670E080E090E00E9451
:101A60007A1780EA0E9420098FEF0E942009837074
:101A7000813029F480930705809338050CC08230AB
:101A800029F4109207051092380505C090910705BA
:101A90009E5F9093380580934704809107058823C3
:101AA00041F080EE91E09093FA018093F9016CE4AB
:101AB00007C086E891E09093FA018093F9016CE009
:101AC00080E00E9426095E9A9FB7F894E89A809178
:101AD00069008260809369009FBF0C94C10CEF92F3
:101AE000FF920F931F93CF93DF9309EE14E0C0E0B2
:101AF000D0E0CE010E949C0FF80181938F012196C6
:101B0000CC34D105B1F73FEFE32E31E0F32ECE0117
:101B10000E949C0F082F10E0F70111830083CE0173
:101B200001960E949C0F90E0982F8827080F191F9C
:101B3000F701019311937F012296CA35D10539F738
:101B4000DF91CF911F910F91FF90EF900C94C10CFA
:101B50008091B404882329F080E090E1A0E0B0E017
:101B60005AC08091A704882329F08FE996E0ACE061
:101B7000B0E051C08AE090E0A0E0B0E08093AC0417
:101B80009093AD04A093AE04B093AF042091A5044C
:101B900021FF0CC08AE190E0A0E0B0E08093AC04AB
:101BA0009093AD04A093AE04B093AF04809135053B
:101BB000813089F08091AC049091AD04A091AE0485
:101BC000B091AF0481608093AC049093AD04A09376
:101BD000AE04B093AF0423FF11C08091AC04909188
:101BE000AD04A091AE04B091AF04806A8093AC04C0
:101BF0009093AD04A093AE04B093AF048091B90468
:101C0000811111C08091AC049091AD04A091AE04FB
:101C1000B091AF0498608093AC049093AD04A0930E
:101C2000AE04B093AF048091F404811104C080919C
:101C3000EE04882389F08091AC049091AD04A091CA
:101C4000AE04B091AF0491608093AC049093AD0466
:101C5000A093AE04B093AF044091B0045091B1048E
:101C60006091B2047091B3048091AC049091AD0482
:101C7000A091AE04B091AF0484239523A623B7238B
:101C80008093B0049093B104A093B204B093B304D2
:101C90000895CF92DF92EF92FF920F931F93CF930D
:101CA000DF936C017A018B01C0E0D0E0CE15DF0537
:101CB00089F0D8016D918D01D601ED91FC910190D3
:101CC000F081E02DC6010995892B11F47E0102C037
:101CD0002196ECCFC701DF91CF911F910F91FF901B
:101CE000EF90DF90CF900895FC01918D828D981731
:101CF00061F0828DDF01A80FB11D5D968C91928DF0
:101D00009F5F9F73928F90E008958FEF9FEF0895EC
:101D1000FC01918D828D981731F0828DE80FF11DB5
:101D2000858D90E008958FEF9FEF0895FC01918DD0
:101D3000228D892F90E0805C9F4F821B91098F73C9
:101D4000992708958CE591E00E94960E21E0892B59
:101D500009F420E0822F0895FC01848DDF01A80F93
:101D6000B11DA35ABF4F2C91848D90E001968F73C3
:101D70009927848FA689B7892C93A089B1898C91E2
:101D800080648C93938D848D981306C00288F389A8
:101D9000E02D80818F7D80830895EF92FF920F93D5
:101DA0001F93CF93DF93EC0181E0888F9B8D8C8D07
:101DB000981305C0E889F989808185FD24C0F62E35
:101DC0000B8D10E00F5F1F4F0F731127E02E8C8DCE
:101DD000E8120CC00FB607FCFACFE889F9898081B8
:101DE00085FFF5CFCE010E94AC0EF1CF8B8DFE01A9
:101DF000E80FF11DE35AFF4FF0820B8FEA89FB8950
:101E00008081806207C0EE89FF896083E889F98953
:101E100080818064808381E090E0DF91CF911F9189
:101E20000F91FF90EF900895CF93DF93EC01888D91
:101E30008823C9F0EA89FB89808185FD05C0A889CE
:101E4000B9898C9186FD0FC00FB607FCF5CF808154
:101E500085FFF2CFA889B9898C9185FFEDCFCE019E
:101E60000E94AC0EE7CFDF91CF91089580E090E023
:101E7000892B29F00E94A20E81110C940000089574
:101E80000E94AA311F920F920FB60F9211242F9326
:101E90003F934F935F936F937F938F939F93AF93F2
:101EA000BF93EF93FF938CE591E00E94AC0EFF91FE
:101EB000EF91BF91AF919F918F917F916F915F91C2
:101EC0004F913F912F910F900FBE0F901F9018953B
:101ED0001F920F920FB60F9211242F938F939F93FF
:101EE000EF93FF93E0916C01F0916D018081E0919F
:101EF0007201F091730182FD12C090818091750191
:101F00008F5F8F7320917601821751F0E0917501F8
:101F1000F0E0E45AFE4F958F8093750101C08081F7
:101F2000FF91EF919F918F912F910F900FBE0F9086
:101F30001F9018950C94F5310C94ED3181E080934D
:101F40000A018AE08093090183E0809308011092DE
:101F5000A7041092A80480910C05882301F1109227
:101F60003602109237021092380210923902109203
:101F70002B0410922C0410922D0410922E04109217
:101F80004402109243021092300410922F041092D7
:101F90003E0210923D021092490410924804809132
:101FA0009D069091FE019817C1F08093FE0161E0BB
:101FB00082ED0E94DE038091FE010E94C1030E9417
:101FC000BB0360E08AEF0E94DE030E94A80D64E676
:101FD00070E080E090E00E947A170C94A80D2F9298
:101FE0003F924F925F926F927F928F929F92AF92A9
:101FF000BF92CF92DF92EF92FF920F931F93CF93F6
:10200000DF9300D01F92CDB7DEB789838CE591E0D6
:102010000E94960E21E0892B09F420E079EB272E0F
:1020200074E0372E8CE292E03AE0380F3A83ECE22B
:102030008E2E99249394A12CB12CF8EE4F2EF3E020
:102040005F2E612C712C89EB96E0E6E3E80FEB83C1
:10205000213009F039C68CE591E00E94740E209180
:102060005105309152052F5F3F4F30935205209319
:1020700051052091FD063091FE062115310559F4D8
:1020800021E030E0843211F020E030E03093FE06B1
:102090002093FD0603C62130310529F48D3441F427
:1020A00082E090E00AC02230310561F48E3319F0ED
:1020B00080E090E002C083E090E09093FE06809381
:1020C000FD06ECC52330310591F4873928F01092D4
:1020D000FE061092FD06E2C58093FC0624E030E087
:1020E0003093FE062093FD068093FB06D7C524306F
:1020F000310581F425E030E03093FE062093FD06A3
:102100008093FA069091FB0689278093FB06109234
:10211000F906C4C52530310509F0C0C59091FB060C
:1021200098279093FB061091F9062091FC06121354
:10213000ACC59111CCCF80914F059091500501967F
:102140009093500580934F051092060683E080938C
:1021500049058091FA068C3D09F06DC10E94270760
:10216000893009F04BC082E080934B050E9427071D
:10217000182F0E942707212F30E0280F311D3093A0
:10218000F8062093F7060E9427078093F60681E061
:102190008093F5060E94B417DC01CB018854944F5C
:1021A000AF4FBF4F8093F1069093F206A093F306D2
:1021B000B093F4066FE18CED0E94DE0389E00E948B
:1021C000C1031AE0E090F706F090F806C7010E94FC
:1021D0009C0F082F8093F606C7010E94CF03802F23
:1021E0000E94C1038091F7069091F80601969093A2
:1021F000F8068093F706115029F798C0883009F047
:1022000056C082E080934B050AE011E00E94270748
:10221000F82E0E94270790E0982F88276C01CF0C9A
:10222000D11CD092F806C092F7060E942707F82E1C
:102230008093F6061093F5060E94B417DC01CB01DB
:102240008854944FAF4FBF4F8093F1069093F2069E
:10225000A093F306B093F4066F2DC6010E949A0F67
:102260006DE080E090E00E949A0FE090F706F09019
:10227000F806F9E5EF16F10429F02FE4E21621E063
:10228000F20611F40E946F0D015009F0BFCF3FEF2D
:10229000E31AF30AF092F806E092F70663E08CED99
:1022A0000E94DE0389E00E94C103C7013DC0873060
:1022B00009F03FC010924C056BE08CED0E94DE03EC
:1022C00087E00E94C10302EA15E0F8018089918944
:1022D00053E0969587955A95E1F70E94CF030C5EDF
:1022E0001F4FF6E006301F0781F70E94BB036DE029
:1022F0008CED0E94DE038AE00E94C1038CE090E036
:102300000E94CF0383E090E00E94CF038EEA96E024
:102310000E94CF0382E090E00E94CF0380E090E033
:102320000E94CF0381E090E00E94CF030E94BB0394
:1023300082C0833009F069C01530D9F40E94320799
:1023400080329D4109F077C00E9427078093F006F4
:102350000E9427078093EF068091A90481116BC02A
:102360008091A704811167C08091B404811163C07A
:102370009FC4183309F05FC049EBE42E46E0F42E09
:1023800087010E942707F80181938F01FB81F013D9
:10239000F8CF0E942707182F5E98609107056111FA
:1023A00060E480E00E942609612F89E00E942609EE
:1023B00000E0602F8AE00E942609F70161917F0109
:1023C0008BE00E9426090F5F063399F760EA88E0E8
:1023D0000E94260980EA0E94200985FDFBCF80919A
:1023E0000705811102C06CE001C06CE480E00E942E
:1023F00026095E9A64E170E080E090E00E947A171E
:102400001F3FC9F40E94150D16C0863079F400E014
:1024100010E060E0C8010E949A0F0F5F1F4F011586
:10242000F2E01F07B1F70E94520C02C0853019F488
:1024300081E0809337058091FA06843641F481E08B
:10244000809335050E9427078093B8068BC1853697
:1024500009F043C00E9432079093B7068093B606F6
:102460000E9432079093B5068093B4060E9432070B
:102470009093A6048093A5040E9440076093E4040F
:102480007093E5048093E6049093E7042FE030E036
:102490003093A6042093A5042091B904022F10E0E4
:1024A00020E030E0DC01CB0180239123A223B32381
:1024B00021E0892B8A2B8B2B09F420E02093A9049F
:1024C0000E9427078093FE019091A70491114AC1B1
:1024D00080939D068093B30645C1893609F042C1B9
:1024E0000DE011E00E943207F801819391938F0172
:1024F000F1E00D311F07B1F780910F0190911001AC
:10250000855195408F389140E8F480910D0190916C
:102510000E01855195408F389140A0F480911101B2
:1025200090911201855195408F38914058F4109246
:10253000A7064092A3065092A4066092A506709248
:10254000A6062BC08091A706813039F50E94B417EA
:1025500000919F061091A0062091A1063091A2063D
:10256000DC01CB01801B910BA20BB30B0091A306E6
:102570001091A4062091A5063091A6060817190708
:102580002A073B0710F41092A7068092A3069092A8
:10259000A406A092A506B092A6068091A706811176
:1025A000E1C080910F01909110012091A7048B331D
:1025B000974040F180911101909112018B33974027
:1025C00008F180911301909114018F379440D0F05D
:1025D0002111BAC08091AA049091AB04069708F427
:1025E000B3C08091A9048111AFC082E08093A70697
:1025F00081E08093A7048091300180930A010E94BA
:10260000A80DA2C0222309F49FC010919C0510922E
:102610009C058091A804882361F08091130190911A
:1026200014018531954028F082E08093A7060E942E
:102630009E0F3091A704332309F451C080910D01FE
:1026400090910E018B3327E0920778F081E0809320
:10265000A706809108018F5F80930801843008F4F9
:1026600073C083E0809308016FC08E37944068F494
:1026700091E09093A7068091080181508093080112
:10268000811162C0909308015FC080910F01909109
:1026900010018B33F7E09F07A0F091E09093A7061D
:1026A00080910901815080930901811102C09093AA
:1026B000090180910A01811147C08AE080930901D4
:1026C00043C08E37944058F481E08093A7068091F0
:1026D00009018F5F809309018B3078F735C08091B5
:1026E000A804811131C0332379F1212F16300CF069
:1026F00025E02B3F0CF42BEF8091110190911201FA
:102700008E3734E0930738F481E08093A706215098
:1027100020939C0517C08B339740B0F081E08093E5
:10272000A7062F5F20939C0580910A01893051F400
:1027300080910801833031F480910901853011F4D2
:10274000109240050E9402048091A706813051F446
:102750000E94B41760939F067093A0068093A10611
:102760009093A2068091FA068A3609F056C085E059
:1027700080934A050E942707882319F081E08093FF
:1027800045040E94270780934C040E9440076093F1
:102790003B0470933C0480933D0490933E040E945C
:1027A0004007609337047093380480933904909302
:1027B0003A040E943207A0E0B0E02091A904211160
:1027C0000BC08093AF069093B006A093B106B09370
:1027D000B20621E02093AE064091AF065091B006BC
:1027E0006091B1067091B206841B950BA60BB70BD6
:1027F0008093330490933404A0933504B09336044B
:102800000E94320790933204809331040E94320771
:102810009093AD068093AC065ACC8B3699F40E9407
:102820003207A0E0B0E080933F0490934004A0936F
:102830004104B09342040E94320790934404809371
:10284000430445CC893759F40E9427070E94270783
:102850000E9427070E9427078093460438CC8C36B5
:10286000E9F40E9432079093A2048093A1040E948D
:1028700032079093A4048093A3040E9432078091AE
:10288000AC069091AD066AE070E00E94B12E643B08
:1028900071050CF414C26856714011C28D3609F0EE
:1028A00059C0209133043091340440913504509143
:1028B0003604A4E6B0E00E94223260934502709391
:1028C000460280934702909348020E94B4170091F9
:1028D00041051091420520914305309144050617AA
:1028E00017072807390708F0F2CBD901C80188512A
:1028F0009C4FAF4FBF4F8093410590934205A093EB
:102900004305B09344058091AA069091AB0690933D
:10291000A9068093A8064091330450913404609135
:102920003504709136045093AB064093AA06092EE5
:10293000000CAA0BBB0B481B590B6A0B7B0B24E149
:10294000249FC001259F900D112490934A028093EB
:102950004902BDCB8E36B9F40E9427078093A105AA
:102960000E9432079093400280933F020E943207F8
:102970009093A00580939F050E94320790939E0537
:1029800080939D05A4CB8F36A1F50E9427078093E5
:1029900014020E942707809313020E942707809346
:1029A00012020E942707809311020E94270780933A
:1029B00010020E94270780930F020E94270780932E
:1029C0000E020E94270780930D020E943207909307
:1029D0001702809316020E942707809315028091A8
:1029E000AC049091AD04A091AE04B091AF049D7F72
:1029F00037C0803731F522E2E22E22E0F22E08E1E4
:102A000012E03CE2C32E32E0D32E0E942707F601EB
:102A100081936F010E942707F70181937F010E9434
:102A20002707F80181938F01FA81FC11EECF809185
:102A3000AC049091AD04A091AE04B091AF049B7F23
:102A40000FC08B33B1F40E9427078093FD01809162
:102A5000AC049091AD04A091AE04B091AF04AB7FF3
:102A60008093AC049093AD04A093AE04B093AF04F4
:102A70002ECB893481F40E9432079093FC0180931D
:102A8000FB018091AC049091AD04A091AE04B09193
:102A9000AF04A77FE5CF873709F019CB81E080939A
:102AA00036051091FC068BE2F10111928A95E9F747
:102AB000C12CD12C7601C394112309F408CB0E94B8
:102AC0002707082E000C990BAA0BBB0B8E31910522
:102AD00008F0D5C0FC01EE5AFF4F0C94C52E809132
:102AE000B9048C298093B904CAC08091BA048C2996
:102AF0008093BA04C4C08091BB048C298093BB042A
:102B0000BEC08091BC048C298093BC04B8C0809165
:102B1000BD048C298093BD04B2C08091BE04909105
:102B2000BF048C299D299093BF048093BE04A7C045
:102B30008091C0049091C104A091C204B091C304DB
:102B40008C299D29AE29BF298093C0049093C1048C
:102B5000A093C204B093C30492C08091C404909126
:102B6000C504A091C604B091C7048C299D29AE2943
:102B7000BF298093C4049093C504A093C604B09366
:102B8000C7047DC08091C8049091C904A091CA0473
:102B9000B091CB048C299D29AE29BF298093C8040C
:102BA0009093C904A093CA04B093CB0468C08091E9
:102BB000D8049091D904A091DA04B091DB048C2957
:102BC0009D29AE29BF298093D8049093D904A0935E
:102BD000DA04B093DB0453C08091D4049091D504FF
:102BE000A091D604B091D7048C299D29AE29BF2984
:102BF0008093D4049093D504A093D604B093D704C3
:102C00003EC08091DC049091DD04A091DE04B0917F
:102C1000DF048C299D29AE29BF298093DC04909381
:102C2000DD04A093DE04B093DF0429C08091E004AA
:102C30009091E104A091E204B091E3048C299D29D4
:102C4000AE29BF298093E0049093E104A093E204AD
:102C5000B093E30414C08091CC049091CD04A09172
:102C6000CE04B091CF048C299D29AE29BF29809331
:102C7000CC049093CD04A093CE04B093CF04CC0C9D
:102C8000DD1CEE1CFF1C115017CF91E0910F9093AB
:102C9000F906E12FF0E0E95FF94F80838CE591E0E0
:102CA0000E94960E892B81F0F981F111D4C90CC0D4
:102CB00080E880939E0681E08093B404BCCB70933F
:102CC0004B0460934A0403CA0F900F900F90DF915A
:102CD000CF911F910F91FF90EF90DF90CF90BF9019
:102CE000AF909F908F907F906F905F904F903F90AC
:102CF0002F900895CF92DF92EF92FF920F931F9340
:102D0000CF93DF93C42F97FF08C09095809570955F
:102D100061957F4F8F4F9F4FC22F24E630E040E0F8
:102D200050E00E940332CA01B90110920A07C09311
:102D30000907C9E02AE0C22ED12CE12CF12CDEE2F9
:102D4000C43019F4D0930307C3E0C1500C2F10E036
:102D50000050194FA70196010E940332605DF801EF
:102D60006083B901CA01CC2339F0C33048F761153B
:102D700071058105910521F780E2CC2339F0C1501E
:102D8000EC2FF0E0E050F94F8083F7CF80E097E040
:102D9000DF91CF911F910F91FF90EF90DF90CF9037
:102DA0000895E2E1F7E02491EEEFF6E09491EAEE87
:102DB000F6E0E491EE2309F43BC0222339F12330FD
:102DC00091F038F42130A9F0223001F524B52F7D9F
:102DD00012C0273091F02830A1F02430B9F42091AE
:102DE00080002F7D03C0209180002F7720938000EA
:102DF0000DC024B52F7724BD09C02091B0002F77D6
:102E000003C02091B0002F7D2093B000F0E0EE0FC2
:102E1000FF1FE752F94FA591B4912FB7F894EC91A9
:102E2000811103C090959E2301C09E2B9C932FBFC0
:102E30000895CF93DF9390E0FC01E950F94F24917E
:102E4000FC01ED51F94F8491882361F190E0880FE6
:102E5000991FFC01E153F94FC591D491FC01E75250
:102E6000F94FA591B491611109C09FB7F894888179
:102E7000209582238883EC912E230BC0623061F46D
:102E80009FB7F8943881822F809583238883EC91B3
:102E90002E2B2C939FBF06C08FB7F894E8812E2B62
:102EA00028838FBFDF91CF9108953FB7F894809129
:102EB000180790911907A0911A07B0911B0726B522
:102EC000A89B05C02F3F19F00196A11DB11D3FBF62
:102ED000BA2FA92F982F8827820F911DA11DB11DF0
:102EE000BC01CD0142E0660F771F881F991F4A95EC
:102EF000D1F708958F929F92AF92BF92CF92DF92B7
:102F0000EF92FF926B017C010E9455174B015C010F
:102F1000C114D104E104F104F1F00E945517DC0161
:102F2000CB0188199909AA09BB09883E9340A105DC
:102F3000B10570F321E0C21AD108E108F10888EE6A
:102F4000880E83E0981EA11CB11CC114D104E104B9
:102F5000F10419F7DDCFFF90EF90DF90CF90BF9095
:102F6000AF909F908F9008952FB7F89460911407B9
:102F70007091150780911607909117072FBF08953C
:102F80001F920F920FB60F9211242F933F938F939E
:102F90009F93AF93BF938091140790911507A091D1
:102FA0001607B09117073091130723E0230F2D3731
:102FB00020F40196A11DB11D05C026E8230F02963D
:102FC000A11DB11D2093130780931407909315073B
:102FD000A0931607B09317078091180790911907CF
:102FE000A0911A07B0911B070196A11DB11D8093F6
:102FF000180790931907A0931A07B0931B07BF9166
:10300000AF919F918F913F912F910F900FBE0F9095
:103010001F901895CF93DF93CDB7DEB7E7970FB624
:10302000F894DEBF0FBECDBF789484B5826084BDB6
:1030300084B5816084BD85B5826085BD85B58160BC
:1030400085BD80916E00816080936E00109281003A
:1030500080918100826080938100809181008160F5
:1030600080938100809180008160809380008091B6
:10307000B10084608093B1008091B0008160809342
:10308000B00080917A00846080937A0080917A0009
:10309000826080937A0080917A00816080937A00C8
:1030A00080917A00806880937A001092C10084B782
:1030B00014BE80916000886180936000109260006F
:1030C000E0916C01F0916D0182E08083E0916801F4
:1030D000F09169011082E0916A01F0916B0190E139
:1030E000908310927401E0917001F091710186E07B
:1030F0008083E0916E01F0916F0180818061808317
:10310000E0916E01F0916F01808188608083E09191
:103110006E01F0916F01808180688083E0916E0183
:10312000F0916F0180818F7D80838091C0008260EB
:103130008093C0001092C5009093C4008CE591E08C
:103140000E94140F84B18C6284B92498569A5298C4
:1031500060E084E10E94191760E081E10E94191784
:1031600060E084E10E94191761E087E00E9419176E
:103170003B985598F89480916C0083FD0AC080912B
:10318000680082608093680080916C008860809302
:103190006C0080916D0085FD0AC08091680084609C
:1031A0008093680080916D00806280936D007894B8
:1031B0000E94520C0E946F0D64EF71E080E090E07D
:1031C0000E947A1780910E05882311F081E001C0DA
:1031D00083E0809300010E94150D8091A5049091D9
:1031E000A6048F609093A6048093A5040E94A80D66
:1031F000E8E62E2E332433941092870580914D05F6
:1032000090914E05019690934E0580934D058091C7
:103210003705882361F084B7877F84BF8091600081
:1032200088658093600081E480936000FFCFE09127
:103230002305E0932D011092E80480912205882354
:10324000A1F0F0E0EE0FFF1FE55FFE4F808191815E
:10325000813426E0920710F081E004C08937954060
:10326000E0F082E08093E80418C04091D4045091CB
:10327000D5046091D6047091D7048091E4049091B4
:10328000E504A091E604B091E70484239523A623E6
:10329000B723892B8A2B8B2BF9F61091E8048091A8
:1032A000860518130E94C10C1093860510913905EC
:1032B000163010F081E001C080E00E94D1160E941B
:1032C000B4176B017C018091820590918305A091D8
:1032D0008405B0918505B701A601481B590B6A0BFF
:1032E0007B0B443651056105710508F48FC08C597C
:1032F0009F4FAF4FBF4F8093820590938305A0935C
:103300008405B09385051F5F1093390580913A05B8
:103310008F5F80933A0581E090913C05911180E0A8
:1033200080933C05809145048823A1F18091A904F4
:10333000882381F160913104709132046115710527
:1033400049F12091060580E090E0222339F00E94A7
:10335000F62F21EB32E047E55BE306C00E94F62F33
:103360002FE632E143E85AE30E94EC309B01AC01C6
:1033700060915705709158058091590590915A05B3
:103380000E94D82E60935705709358058093590575
:1033900090935A0560915705709158058091590591
:1033A00090915A050E94C72F60933602709337029E
:1033B00080933802909339028091F7048823D1F0EA
:1033C0002091B5043091B6044091B7045091B804EF
:1033D00060917E0570917F058091800590918105B7
:1033E0000E94D82E60937E0570937F0580938005A0
:1033F000909381058091B404811108C080914B05A0
:10340000811104C060E08CE60E94DE0380917A05A1
:1034100090917B05A0917C05B0917D05C81AD90AD1
:10342000EA0AFB0A42E3C416D104E104F10410F4F1
:103430000C94742CC296A11DB11D80937A059093B3
:103440007B05A0937C05B0937D058091B00490919D
:10345000B104A091B204B091B304892B8A2B8B2BB9
:1034600081F48091AC049091AD04A091AE04B09130
:10347000AF048093B0049093B104A093B204B093CE
:10348000B3044091B0045091B1046091B2047091C2
:10349000B30488279927DC01841B950BA60BB70B77
:1034A00084239523A623B7238C019D0100951095B5
:1034B0002095309540235123622373234093B00419
:1034C0005093B1046093B2047093B304811551E03A
:1034D0009507A105B10509F458C028F58830910574
:1034E000A105B10509F44BC068F481309105A1052F
:1034F000B10509F442C00297A105B10509F051C018
:1035000085E650C080329105A105B105E1F1803812
:103510009105A105B105A9F14097A105B10509F0F3
:1035200040C08DE63FC0811570E19707A105B10548
:10353000B1F198F48115F4E09F07A105B10549F1B7
:10354000811528E09207A105B10539F18115924056
:10355000A105B10531F58FE625C0009744E0A40729
:10356000B105A9F0009758E0A507B105A1F00097B3
:10357000A140B105B1F482E715C084E613C089E625
:1035800011C08AE60FC08BE60DC08EE60BC08BE340
:1035900009C080E707C089E405C087E703C08CED58
:1035A00001C080E09091B40491113EC090914B0510
:1035B000911103C060E00E94DE035E9860E085E048
:1035C0000E94260960E086E00E94260961E084E00E
:1035D0000E9426090E94B7085BE4E52E52E0F52E12
:1035E00000E010E060E2D62E8091F9019091FA019E
:1035F0000817190780F4003F110511F40E94B7085D
:10360000D7016C9187E00E942609F701D1927F01D2
:103610000F5F1F4FE9CF6FEF87E00E94260960E040
:1036200084E00E9426095E9A0E94EE098091AA0415
:103630009091AB04059788F543ECE42E44E0F42E1A
:1036400000E410E0F70185919491B8010E94EA0826
:10365000F2E0EF0EF11C025E1F4F003321E0120773
:1036600089F788EF90E00E940F09E0913805F0E0BB
:10367000EE0FFF1FE554FB4F8591949166E171E0D9
:103680000E94EA088091780590917905CC979093F3
:103690003E0580933D050C94742C1091A9041123D0
:1036A00049F081E08093A8048091A704813011F44F
:1036B0000E949E0F0091A804002371F011110CC00C
:1036C00010920A018AE08093090181E08093080149
:1036D0008093A7040E94A80D8091A704882309F471
:1036E00034C510910A01E12FEE0FFF0BE358FA4F9A
:1036F0008591949163E270E00E94EA086BE671E0C4
:1037000088E795E00E94EA0801110CC061E771E0CA
:103710008EE695E00E94EA086BE771E087E695E0A7
:103720000E94EA0811118CC08091360290913702F4
:10373000A0913802B09139028D839E83AF83B88700
:1037400080912B0490912C04A0912D04B0912E0413
:1037500089879A87AB87BC87809143029091440206
:10376000092E000CAA0BBB0B8D879E87AF87B88BE9
:1037700080912F0490913004A0E0B0E0898B9A8B67
:10378000AB8BBC8B20E030E044EB53E460917E05D2
:1037900070917F0580918005909181050E944E2F48
:1037A0000E94C72F6D8B7E8B8F8B988F80913D02EF
:1037B00090913E026AE070E00E949D2ECB01A0E055
:1037C000B0E0898F9A8FAB8FBC8F29E5E22E25E080
:1037D000F22EAE014F5F5F4F6A010DE510E0F70179
:1037E00085919491B8010E94EA08D6016D917D916E
:1037F0008D919D916D0122E040E00E945B07B80130
:103800006F5E7F4F8FEF96E00E940509B2E0EB0EEE
:10381000F11C025E1F4F0F32E1E01E0701F76091BD
:1038200048047091490480E090E021E04FEF56E0B9
:103830000E94D6076DE670E08FEF96E00E940509C2
:1038400080910A01813009F06AC09BE4E92E95E07D
:10385000F92E0DE510E0F70185919491B8010E94D1
:10386000EA08F2E0EF0EF11C025E1F4F0F3221E07A
:10387000120789F700E0053019F0073028F001C081
:1038800007E0D02E025001C0D02E3EE1039F800100
:103890001124ED2CF12CF701E45DFD4F80814AE00D
:1038A0006FEF76E090E00E94B831B8016B597F4F1E
:1038B0000E940509F701EE5DFD4F80814AE06FEF40
:1038C00076E090E00E94B831B80165597F4F0E94C0
:1038D0000509F701E85EFD4F80814AE06FEF76E071
:1038E00090E00E94B831B8016F587F4F0E940509DF
:1038F00001E00D0D093008F4BECF67E470E084E507
:1039000091E00E9405096DE470E086E591E00E9477
:10391000050963E570E088E591E00E940509809162
:103920000A01833079F5E0901602F0901702FE8EBE
:10393000ED8E0091150210E018A30F8FE7E4F5E07B
:10394000859194916DE570E00E94EA084AE06FEF7E
:1039500076E0C7010E94B83161E770E00E94050976
:10396000E9E4F5E0859194916BE770E00E94EA0844
:103970004AE06FEF76E0C8010E94B8316FE870E06E
:103980000E94050980910A018230E9F180910A01C3
:10399000843009F0E2C00E94EE0987E98093FF06B7
:1039A00023E044E060E077E08091410290914202A0
:1039B0000E946B0819EA109304071092050764E34C
:1039C00070E08FEF96E00E9405098FEB8093FF0671
:1039D00023E044E060E077E080913B0290913C027C
:1039E0000E946B0810930407109205076CE270E0C8
:1039F0008FEF96E00E94050909E2E02E05E0F02E27
:103A00000DE510E050C08091140290E09E8F8D8FE4
:103A10008091130290E098A38F8F8091120290E022
:103A20009AA389A38091110290E09CA38BA380911B
:103A3000100290E09EA38DA380910F0290E098A7C2
:103A40008FA380910E0290E09AA789A780910D0222
:103A500090E09CA78BA787E3E82E85E0F82EAE01C7
:103A6000435E5F4F6A010DE510E0F7018591949187
:103A7000B8010E94EA084AE06FEF76E0D6018D9126
:103A80009D916D010E94B831B8016C5E7F4F0E941C
:103A90000509B2E0EB0EF11C025E1F4F0D34E1E0B0
:103AA0001E0719F773CFF70185919491B8010E9411
:103AB000EA08F2E0EF0EF11C025E1F4F0F3221E028
:103AC000120789F78091FA044AE06FEF76E090E000
:103AD0000E94B8316BEC70E00E94050967E081E755
:103AE00090E00E94F5088091F3044AE06FEF76E0E1
:103AF00090E00E94B8316FE870E00E940509809163
:103B0000F1044AE06FEF76E090E00E94B8316DEA90
:103B100070E00E94050961E18BEC90E00E94F508DD
:103B20008091FB044AE06FEF76E090E00E94B831AC
:103B300069EE70E00E9405098091F2044AE06FEF9F
:103B400076E090E00E94B83167E071E00E940509DC
:103B50006BE085E291E00E94F50880910A018530D2
:103B600009F06FC04AE06FEF76E080919F0490917A
:103B7000A0040E94B831E0E0AE2FB0E0A150B94FF0
:103B80008C91EF5F8111F8CF85E28C93F0E0E150EA
:103B9000F94F108265E370E08FEF96E00E9405090F
:103BA0001DE1E12E15E0F12E0DE510E0F701859104
:103BB0009491B8010E94EA0832E0E30EF11C025E23
:103BC0001F4F013141E0140789F764E081E790E07D
:103BD0000E94F50880913F05882349F04AE06FEF85
:103BE00076E090E00E94B8316FE870E004C06FE8C2
:103BF00070E08AE591E00E94050965E08DEA90E0B9
:103C00000E94F50866E08BEC90E00E94F5084AE01F
:103C10006FEF76E080910702909108020E94B83120
:103C200069EE70E00E9405094AE06FEF76E080914E
:103C30000502909106020E94B83167E071E00E948F
:103C4000050980910A01863009F05AC06091B504D7
:103C50007091B6048091B7049091B8040E94C02F6F
:103C6000DC01CB0123E044E06FEF76E00E946B08BB
:103C70008AE9809303071092040764E370E08FEFF2
:103C800096E00E940509B3E1EB2EB5E0FB2E0DE5B1
:103C900010E0F70185919491B8010E94EA0852E082
:103CA000E50EF11C025E1F4F033F110591F76CE01A
:103CB00081E790E00E94F5086EE08FE890E00E94B6
:103CC000F5086FE08DEA90E00E94F5084AE06FEF9A
:103CD00076E080910302909104020E94B8316BEC6F
:103CE00070E00E9405094AE06FEF76E080910102E2
:103CF000909102020E94B83169EE70E00E940509BD
:103D000080910A01873009F044C0A3E0EA2EA5E0C3
:103D1000FA2E0DE510E0F70185919491B8010E940B
:103D2000EA0862E0E60EF11C025E1F4F0D3471E0FE
:103D3000170789F760E281E790E00E94F50861E2E9
:103D40008FE890E00E94F5086DE28DEA90E00E9415
:103D5000F5086FE18BEC90E00E94F50867E189EED1
:103D600090E00E94F50864E387E091E00E94F50886
:103D70006EE285E291E00E94F50880910D054AE02F
:103D80006FEF76E090E00E94B83163E471E00E944A
:103D9000050980910A01883009F058C0F7EFEF2E2D
:103DA000F4E0FF2E0DE510E0F70185919491B80144
:103DB0000E94EA0882E0E80EF11C025E1F4F01310A
:103DC00091E0190789F78091060561E770E081119C
:103DD00003C083EF94E002C08FEE94E00E94EA08F3
:103DE00080910E056FE870E0882319F08CEE94E066
:103DF00002C087EE94E00E94EA086CE28DEA90E04F
:103E00000E94F50880914005882349F04AE06FEF51
:103E100076E090E00E94B8316BEC70E004C06BEC8F
:103E200070E08AE591E00E940509809123054AE04F
:103E30006FEF76E090E00E94B83169EE70E00E948A
:103E4000050963E187E091E00E94F50880910A018D
:103E5000893009F04EC08091270590E09E8F8D8FAC
:103E60008091280590E098A38F8F8091290590E09C
:103E70009AA389A380912A0590E09CA38BA38091AB
:103E8000FD0490E09EA38DA38091FE0490E098A78E
:103E90008FA30DE510E0E12CF12CD12CF701E752B6
:103EA000FB4F85919491B8010E94EA08A6E0DA16CA
:103EB00091F04AE06FEF76E0EDE1F0E0EC0FFD1FEE
:103EC000EE0DFF1D808191810E94B831B8016C5EBA
:103ED0007F4F0E940509D394B2E0EB0EF11C025E05
:103EE0001F4FE7E0DE12DACF60E185E291E00E9449
:103EF000F50880910A018A3039F080910A018B30EF
:103F0000D4F110920A0137C08091FE0190E09E8F9B
:103F10008D8F8091FD0190E098A38F8F8091FB01A0
:103F20009091FC019AA389A3E3EDEE2EE4E0FE2E2E
:103F30009E01235E3F4F69010DE510E0F701859179
:103F40009491B8010E94EA084AE06FEF76E0D6014A
:103F50008D919D916D010E94B831B8016C5E7F4FCB
:103F60000E940509B2E0EB0EF11C025E1F4F073BF9
:103F7000110521F7C2CF209109012A3079F48091EF
:103F80000801833011F40C944E2D813009F4CBC01C
:103F9000823009F0CBC080E791E0CAC02A3008F037
:103FA000C5C030910A01313031F5283019F48AE06A
:103FB0008093090180910901893019F487E0809389
:103FC00009012091090130E02E5F3F4F4EE1429FF1
:103FD000C001439F900D11240A964091080150E0C2
:103FE0004150510966E0649F9001659F300D112496
:103FF000820F931F9DC0333061F4233019F48AE09F
:104000008093090180910901893009F089C082E01B
:1040100036C03230C9F1343079F483E0809308013E
:10402000283019F48AE080930901809109018930D0
:1040300009F076C087E023C080E090E0353079F465
:1040400083E080930801273019F48AE08093090106
:1040500080910901893009F063C086E010C03630D4
:1040600089F483E080930801293019F485E0809376
:10407000090180910901863009F052C08AE08093DD
:1040800009014EC03730E9F4293049F480915B05CD
:10409000883011F48AE001C088E080930901209102
:1040A000090120935B0583E08093080130E02E5FD7
:1040B0003F4F4EE1429FC001439F900D1124469611
:1040C00037C0383069F483E080930801293019F44F
:1040D00086E08093090180910901873009F5CECFF0
:1040E000393069F483E080930801293019F487E0BE
:1040F0008093090180910901883091F4BFCF3A3053
:10410000B9F4293019F483E0809309018091090101
:10411000843019F48AE08093090183E080930801D8
:1041200020910901C3CF8AE691E002C080E090E0CF
:1041300020913C05222311F40C94742CFC01E55BC6
:10414000FD4F23E020830C94742C0E94A80D8091D5
:10415000A50480FF25C2C090A304D090A404E090E1
:10416000A104F090A20480E58093FF06C601EAE076
:10417000CE16D10434F06AE070E00E94B12ECB017B
:104180000CC066EF7FEF0E94B12ECB01D7FE05C0B9
:104190002DE22093000722E001C021E030E0B901C8
:1041A0006150794F4AE00E94B8318FE00E94C60703
:1041B000882349F060916B0470916C0471708FEFEB
:1041C00096E00E94050982E58093FF06C701FAE0A8
:1041D000EF16F10434F06AE070E00E94B12ECB01DA
:1041E0000CC066EF7FEF0E94B12ECB01F7FE05C039
:1041F0002DE22093000722E001C021E030E0B90168
:104200006150794F4AE00E94B83180E10E94C607B0
:10421000882349F060916D0470916E0471708FEF86
:1042200096E00E940509B0901605B1100AC0809171
:104230001E05811106C083E1809302018093010174
:10424000AAC08091A904811104C010923204109276
:104250003104009131041091320480916A059091EB
:104260006B059801215F3F4F28173907C0F40E9462
:10427000B417609366057093670580936805909303
:10428000690582E08093650510936B0500936A05CC
:104290008091020181508031E8F485E11BC00F96C6
:1042A00080179107C8F40E94B41760936605709355
:1042B0006705809368059093690581E080936505A3
:1042C00010936B0500936A05809102018F5F863120
:1042D00008F080E180930201409045025090460230
:1042E000609047027090480280916105909162054C
:1042F000A0916305B0916405B301A2014C5E5F4FCC
:104300006F4F7F4F481759076A077B07E4F40E94F5
:10431000B41760935D0570935E0580935F0590937D
:10432000600582E080935C054092610550926205D1
:104330006092630570926405809101018150803123
:1043400028F585E123C04496A11DB11D841595056E
:10435000A605B705ECF40E94B41760935D05709351
:104360005E0580935F059093600581E080935C0516
:1043700040926105509262056092630570926405F7
:10438000809101018F5F863108F080E18093010107
:10439000BB2009F450CF00917F041091800411706C
:1043A00029ECC216D10454F438E3C3163FEFD30608
:1043B00044F468E3C62EDD24DA9403C078ECC72EFB
:1043C000D12C41E9E41641E0F40654F450E7E51637
:1043D0005EEFF5064CF440E7E42E4EEFF42E04C0F9
:1043E00050E9E52EFF24F394B090090589E10E947D
:1043F000C6078B2109F48FC026016AE0460E511CC6
:1044000057FE04C0260171E1470E511C83E055940C
:1044100047948A95E1F751944194510890901B0577
:1044200040E094E0692E712C29E0C22ED12C3EE1AF
:10443000832EE42FF0E0C3018E1B9F0BE89E9001BA
:10444000E99E300DF89E300D112437FF02C0215C2B
:104450003F4FB6E035952795BA95E1F7240D351D08
:10446000275D3F4F22353105F0F5E00FF11FC901FF
:10447000B6010E94B12E869ED001879EB00D1124F8
:10448000EA0FFB1FBF016C577109603E91E079078D
:1044900028F4DB01A55BBD4F80588C93992019F15E
:1044A0008EEF840F8530F8F4CF01865D9109803E50
:1044B000A1E09A0758F4BC01655B7D4F5B01C9011F
:1044C000B6010E94B12E8058D5018C93B297E03E80
:1044D000B1E0FB0740F4E55BFD4FC901B6010E9466
:1044E000B12E805880834F5F493028F4443009F062
:1044F000A0CF45E09ECF82E20E94C60781110BC08B
:10450000F801E55BFD4FDF01119786E28C938CEBA0
:1045100081838EE7808380910A05882309F440C057
:104520008AE10E94C6078823D9F180918704982FD9
:104530009F70809185048F70B82E482F41956091AF
:10454000020150910101C92E990FDD0898012C1923
:104550003D097601E00EF11EEEE14E02C00111248C
:10456000855B9D4FFC01E20FF31F6083FC01EE0DA4
:10457000FF1D50834F5FB4167CF7F801EC19FD095D
:10458000E45BFD4F83E08083F801EC0DFD1DE65BED
:10459000FD4F82E0808380911E0581110C94522D85
:1045A0008091F004882309F45CC0B090F104B092CB
:1045B0006D05E091F204E0936C0580910B0500918C
:1045C0004102109142028823A9F162E2E69F600154
:1045D00011247AE2E79FF00111240C151D0510F457
:1045E0002C2D07C09F01225031090217130708F430
:1045F00098010D2C000CEE08FF08822F90E0A0E03F
:10460000B0E09C01AD012C193D094E095F09A7E0FE
:10461000B0E00E94223231972F01612C712CA3014E
:1046200092012C193D094E095F090E94033286E967
:10463000821B01C087E98093FF06EB2CF12C0E153D
:104640001F0520F480913B0581110BC085E10E947C
:10465000C60781110C94B62DE016F10610F00C94EB
:10466000B62D8091FA04882369F100913B021091E4
:104670003C0220913A0230E00217130720F48091A7
:104680003B0581111FC086E10E94C6078823D1F037
:104690008FEB8093FF0623E044E060E077E0C80101
:1046A0000E946B0889EA80930407109205076091C5
:1046B000790470917A047170615071098FEF96E0FE
:1046C0000E9405098091ED048823B1F100919F04B7
:1046D0001091A0042091EC0430E02017310724F061
:1046E00080913B05882341F183E10E94C60788231E
:1046F00019F18AEB8093FF064AE060E077E0C80199
:104700000E94B831E0E0AE2FB0E0A150B94F8C91DB
:10471000EF5F8111F8CF85E28C93F0E0E150F94F23
:10472000108260917304709174047170615071090A
:104730008FEF96E00E9405098091F504882309F423
:104740005CC0C090B504D090B604E090B704F0907F
:10475000B80420E030E040E251E4C701B6010E9415
:104760004E2F4B015C016091FE0470E080E090E010
:104770000E94F82F9B01AC01C501B4010E94442F97
:1047800087FD04C080913B058823B9F160913D020B
:1047900070913E0280E090E00E94F62F9B01AC01F8
:1047A000C701B6010E94E730181644F4C701B601EC
:1047B0000E94C72F70933E0260933D0287E10E94E2
:1047C000C6078823D1F0C701B6010E94C02FDC01C3
:1047D000CB0124E045E06FEF76E00E946B088AE9A8
:1047E000809304071092050760917B0470917C040C
:1047F00071708FEF96E00E9405098091F70488237D
:1048000009F44CC060913F0270914002611571053E
:1048100081F420E030E044EB53E460917E05709138
:104820007F0580918005909181050E944E2F0E9406
:10483000C02F8091FD04A4E68A9FC0011124861731
:10484000970724F480913B05882341F188E10E9479
:10485000C607882319F184EA8093FF0620E030E040
:1048600044EB53E460917E0570917F058091800553
:10487000909181050E944E2F0E94C02FDC01CB0138
:104880004AE060E077E00E94B83160917D04709169
:104890007E0471708FEF96E00E94050980911C05DF
:1048A000882309F44CC00091670410916804011535
:1048B000B2E01B0708F443C08091A9048823F1F0FB
:1048C00020916E0530916F05C9016CE370E00E9484
:1048D0009D2E80912A0590E06817790720F080913D
:1048E0003B0581112CC02031EEE03E0728F48CE915
:1048F0008093FF06B90116C081E709C06091780571
:10490000709179056031FEE07F0720F48BE9809398
:10491000FF0608C080E78093FF06CB016CE370E0E0
:104920000E949D2E80E090E020E040E057E00E9451
:10493000D607B80171708FEF96E00E94050985E2F5
:104940000E94C6078823A1F1009197041091980452
:104950001170609141027091420280E090E00E94EB
:10496000F62F2091B5043091B6044091B7045091D0
:10497000B8040E94EC3020E030E048EC52E40E94A1
:104980004E2F0E94C72FDC01CB0125E045E060E0FF
:1049900077E00E946B0880E28093FF0687E58093B2
:1049A000040710920507B8018FEF96E00E940509F1
:1049B0008EE00E94C607882309F4ADC08091F904F7
:1049C000882309F4A8C08091A904811107C08091AF
:1049D00087058260809387058EE10EC08091030178
:1049E000882369F090913C05911195C090918705BD
:1049F00094609093870581508093030105C0809156
:104A0000870581608093870580916D0590E02091F6
:104A10004102309142028217930728F08091870566
:104A20008064809387058091A50483FF1CC08091DA
:104A30004C04853028F48091870580628093870537
:104A400080914A05811105C080918705806180931E
:104A5000870580914905811106C0809187058F7C6B
:104A600088608093870580918805811104C08091BA
:104A700087058093880510918805212F2195022FA5
:104A800001230E94B417C0905305D0905405E090C4
:104A90005505F090560524EFC20E21E0D21EE11C10
:104AA000F11CC616D706E806F90688F4112329F08A
:104AB000802F80951823109388050E94B417609367
:104AC000530570935405809355059093560580E0E7
:104AD00090E0E0E0202F30E0A901082E02C05595BB
:104AE00047950A94E2F740FDE82F0196883091053A
:104AF00099F780918705823070F0F0E0EE0FFF1F8C
:104B0000ED56FA4F859194916091690470916A0411
:104B100071700E94EA0880910805882309F482C018
:104B20008BE00E94C607882309F47CC080E2809352
:104B3000000780911301909114012091060130919A
:104B400007012817390720F4909307018093060185
:104B500020910401309105018217930720F490936E
:104B60000501809304012091060130910701233053
:104B7000384030F022E038E03093070120930601FE
:104B80002091040130910501263B334030F426EB9F
:104B900033E030930501209304012091FC0422238B
:104BA00039F020E044E061E077E00E946B082CC01F
:104BB000C0900401D0900501E12CF12CA0E0B0E000
:104BC0009C01AD012C193D094E095F09A4E6B0E036
:104BD0000E9422322091060130910701890120E0D4
:104BE00030E0A90198012C193D094E095F090E9486
:104BF0000332DA01C90120E043E061E077E00E947E
:104C00006B0885E28093040788EC8093FF0610927E
:104C10000507609163047091640471708FEF96E0F2
:104C20000E940509209178053091790580913D0514
:104C300090913E05AC01445C5F4F42175307A0F4CE
:104C4000805C9F4F8217930720F430933E0520939A
:104C50003D0580911105882339F080919B04909146
:104C60009C0491700E940F098091A50482FF59C095
:104C700088E00E94C6078823F9F080911A058823EE
:104C8000D9F080914A0490914B04880F991F880FA6
:104C9000991F83509D4F6AE570E00E94B12E6C55BC
:104CA0007A4F80915D0490915E04917049E050E0EC
:104CB000855B9D4F0E94AF3187E00E94C607882325
:104CC00081F180910405882361F180914A049091DB
:104CD0004B0420910505222381F097FF02C08859DB
:104CE0009E4F20E043E06FEF76E00E946B088DEB73
:104CF00080930207109203070BC020E044E06FEF9F
:104D000076E00E946B088DEB8093030710920407F6
:104D100060915B0470915C0471708FEF96E00E946B
:104D200005098091A50481FFB3C080910605882301
:104D3000A1F06091450270914602809147029091E6
:104D400048020E94F82F2EEA31E646E05DE30E9419
:104D5000EC300E94C02F8B010FC060914502709112
:104D60004602809147029091480224E630E040E0FC
:104D700050E00E94033289018091A904882389F0C0
:104D80008091AA049091AB04069758F08091430259
:104D9000909144028017910724F4109344020093E9
:104DA000430289E00E94C607882339F180911905E2
:104DB000882319F140912805442371F0C8016AE065
:104DC00070E00E94B12E842F90E06817790724F0DC
:104DD00080913B05811111C0B801110F880B990B0F
:104DE00020E041E00E945B0760915F0470916004E5
:104DF00071708FEF96E00E9405098AE00E94C60755
:104E0000882309F445C080911805882309F440C01F
:104E100000916104109162041170055B1D4FF8014F
:104E20007E978FE78083D8018C935E968C93209138
:104E3000490230914A022937310534F42838BFEF4E
:104E40003B071CF428E801C028E7822F220F990BAA
:104E5000AA0BBB0B9C01AD0128573109410951092F
:104E6000A1E1B0E00E94223220E13FEF4FEF5FEF7F
:104E70000E940332822F66E00E948F2E8150F8013B
:104E80002EE18202E00DF11D11248FE8891B808341
:104E90008091A50483FF64C38091FF04882309F4F3
:104EA0005FC310914C04153020F480913B058111B3
:104EB0001BC080E00E94C6078823B1F08EE180937A
:104EC000FF068FE1809300074AE061E077E0812FE1
:104ED00090E00E94B83160914D0470914E04717061
:104EE0008FEF96E00E94050980914504882309F41C
:104EF0006AC081E00E94C6078823C9F180913F04FF
:104F000090914004A0914104B09142040397A105FF
:104F1000B10520F480913B05811129C020914F04F7
:104F200030915004317080914A0490914B04845E1A
:104F30009D4F4091430450914404841B950B880F6E
:104F4000991F880F991F8D966AE570E00E94B12E17
:104F5000CB0160E170E00E94B12E805A8093FF0681
:104F600010920007B9018FEF96E00E940509809129
:104F70000605882309F413C660913F04709140042C
:104F800080914104909142040E94F62F21EA38EF6B
:104F900041E550E40E94EC300E94C72F6B017C0178
:104FA00080912B0490912C04A0912D04B0912E049B
:104FB0008C159D05AE05BF0508F4FAC582E00E9478
:104FC000C607811109C680914504882309F452C09F
:104FD00084E00E94C6078823E1F0809103058823BE
:104FE000C1F020E043E06FEF76E0809143049091C0
:104FF00044040E946B088DEB809302071092030714
:10500000609155047091560471708FEF96E00E9484
:1050100005098091A904811104C0109232041092F4
:105020003104F0900605609131047091320480E003
:1050300090E0F110FAC50E94F62F2CEB34E743E123
:105040005DE30E94EC300E94C72F8B0180912F04FA
:10505000909130049C012C5E3F4F2017310708F0DF
:10506000EBC53093300420932F0483E00E94C607E1
:105070008111EBC580914504882309F4BAC0809161
:105080000205882309F44FC085E00E94C6078823E3
:1050900009F449C0809106058823A9F06091330482
:1050A0007091340480913504909136040E94F82F59
:1050B00021EA38EF41E550E40E94EC300E94C02F15
:1050C0006B017C0108C0C0903304D0903404E090A0
:1050D0003504F0903604109128051123A9F0C7017A
:1050E000B6012AE030E040E050E00E940332812F18
:1050F00090E0A0E0B0E0281739074A075B0724F0EA
:1051000080913B0581110FC020E041E0C701B6014D
:105110000E945B07609157047091580471708FEF83
:1051200096E00E94050981E10E94C607882309F4E0
:1051300060C08091E4049091E504A091E604B091F0
:10514000E7040091C0041091C1042091C204309181
:10515000C30441E050E060E070E00097A105B105B4
:1051600019F040E050E0BA01402351236223732339
:10517000452B462B472BE9F580239123A223B3230C
:1051800020910005822B892B8A2B8B2B91F100918A
:105190006F041091700411708AEC8093FF06609187
:1051A0003B0470913C0480913D0490913E0423E5C2
:1051B0004EE40E947A16B8018FEF96E00E9405092E
:1051C000009171041091720411708BEC8093FF06B2
:1051D00060913704709138048091390490913A04B9
:1051E00027E545E40E947A16B8018FEF96E00E9409
:1051F000050930910D0539AB323079F040F431308A
:1052000009F0AEC1A1E0B0E0BEABADAB10C049A9A2
:10521000433049F0443009F0A3C162E070E07EAB56
:105220006DAB11E005C082E090E09EAB8DAB10E06D
:1052300080914504882309F493C182E20E94C60745
:10524000882309F48DC11AAB10E000E02AA9822F4F
:1052500090E04DA95EA9841795070CF081C180915B
:10526000430490914404BAA9B13061F420917005CF
:1052700030917105821B930B845E9D4FB1010E949A
:105280009D2E0BC088599E4F20914A0430914B04AB
:10529000821B930BB1010E94B12E9C016AE570E064
:1052A0000E94B12E6130710589F024F4672BD1F48E
:1052B0001FEF12C06230710589F06330710591F4FF
:1052C000A101421B530B9A011FEF0BC0E4EBF0E06E
:1052D000E21BF30B9F0111E001E004C0245B3109E4
:1052E00011E00FEFB901330F880B990B0E94F82FD3
:1052F0002BED3FE049E450E40E94EC3020E030E048
:1053000044E353E40E944E2F4B015C0160913F0443
:105310007091400480914104909142040E94F62FC4
:105320002B013C01C501B4010E9459319B01AC0124
:10533000C301B2010E94EC300E94C72F6B017C01B7
:105340007CAB6BABC501B4010E94492F9B01AC0142
:10535000C301B2010E94EC300E94C72F2B013C0117
:10536000C414D50410F4A20101C0A60160E070E0ED
:10537000443651056105710590F0443F81E05807BE
:105380006105710508F484C4443C99E0590761053E
:10539000710508F482C4CA01A4E2ABAB09C0B1E252
:1053A000BBAB84E690E04431510561057105A0F185
:1053B0004C01990FAA08BB08C601A0E0B0E0BC01EF
:1053C000CD0154E0660F771F881F991F5A95D1F7BA
:1053D000A50194010E940332802F002E000C990B2E
:1053E000829F7001839FF00C929FF00C1124920118
:1053F000AFE0B0E00E944F32A50194010E94033259
:10540000812F012E000C990B829FF001839FF00DDC
:10541000929FF00D112404C0E0E0F0E0E12CF12CAB
:10542000C0909304D090940421E0D2229701A70168
:105430004F5F5F4F2A01F7FC9A01359527952C0D98
:105440003D1DCF0163E070E00E94B12E5EE1569FEA
:10545000C001579F900D11243901680E791E6AA969
:10546000613011F025E001C024E0C701F7FE04C05F
:10547000882799278E199F09482F417847FF03C035
:1054800041504E6F4F5F342FCF01F7FF04C0882784
:1054900099278E1B9F0B63E00E948F2E113019F409
:1054A00082E0891B982F0F3F11F431E0341B3296B4
:1054B000359710F491E0911B73E04716510428F4DE
:1054C00031E0EF20E09409F430E0AAA9AA2311F01A
:1054D00060ED01C066EDB9A9B43031F0F32EFF0CD8
:1054E0003F0D390FF32E15C080914A0490914B0463
:1054F0004091700550917105841B950B8A519D4F09
:10550000B1010E949D2E6DE270E00E949D2E92E7F7
:10551000F92EF60EEBA9E093FF06109200076091BA
:1055200091047091920471708FEF96E02FAB0E94FE
:105530000509F092FF0610920007B3018FEF96E085
:105540000E9405092FA92093FF0610920007B601BB
:105550008FEF96E00E940509FAA9FF5FFAAB76CEBD
:1055600080914905882309F4BFC1C090E404D0901C
:10557000E504E090E604F090E7048091BE04909189
:10558000BF04A0E0B0E08C219D21AE21BF21892B7A
:105590008A2B8B2BD1F0809117058823B1F01092C4
:1055A000010786E18093FF0687E1809300078EE183
:1055B0000E94C607882349F06091890470918A048B
:1055C00071708FEF96E00E94050980911D05882378
:1055D00009F45AC08091BA0490E0A0E0B0E08C21B8
:1055E0009D21AE21BF21892B8A2B8B2B69F48091C1
:1055F000BB0490E0A0E0B0E08C219D21AE21BF2152
:10560000892B8A2B8B2B29F080EA8093FF06E1E01F
:1056100001C0E0E08091BC0490E0A0E0B0E08C210B
:105620009D21AE21BF21892B8A2B8B2B39F0AE2FE8
:10563000B0E0A150B94F82EA8C93EF5F8091BD0436
:1056400090E0A0E0B0E08C219D21AE21BF21892B0C
:105650008A2B8B2B39F0AE2FB0E0A150B94F81EAE5
:105660008C93EF5FF0E0E150F94F108286E00E94EA
:10567000C607882349F06091590470915A047170EB
:105680008FEF96E00E9405098091C8049091C904AB
:10569000A091CA04B091CB048C219D21AE21BF21E1
:1056A000892B8A2B8B2B39F0109201078AEA809381
:1056B000FF068BEA88C08091C0049091C104A0913C
:1056C000C204B091C3048C219D21AE21BF21892B3E
:1056D0008A2B8B2B49F08DE98093FF068EE980930E
:1056E00000071092010771C08091C4049091C50415
:1056F000A091C604B091C7048C219D21AE21BF2189
:10570000892B8A2B8B2B39F0109201078DEC80931B
:10571000FF068EEC58C08091DC049091DD04A091CE
:10572000DE04B091DF048C219D21AE21BF21892BA5
:105730008A2B8B2B79F0809146044AE061E077E078
:1057400090E00E94B8311092030785EB8093FF062A
:1057500086EB39C08091BC0490E0A0E0B0E08C21E1
:105760009D21AE21BF21892B8A2B8B2B69F680913D
:10577000BA0490E0A0E0B0E08C219D21AE21BF21D1
:10578000892B8A2B8B2B39F0109201078CEA80939E
:10579000FF068DEA18C08091BB0490E0A0E0B0E065
:1057A000C822D922EA22FB2210920107CD28CE2856
:1057B000CF2829F084EC8093FF0685EC04C088E9AB
:1057C0008093FF068FEA809300078091100588235D
:1057D000B1F181E20E94C607882389F100918F040C
:1057E000109190041170B8018FEF96E00E940509A6
:1057F0004091CC045091CD046091CE047091CF04BF
:105800008091E4049091E504A091E604B091E7044E
:1058100084239523A623B723892B8A2B8B2B79F0FE
:105820008AEE8093FF068BEE8093000710920107AB
:10583000B8016E5F7F4F8FEF96E00E94050980915F
:105840003B05811151C084E20E94C607882309F4F8
:105850004BC04091E4045091E5046091E6047091DE
:10586000E7048091C0049091C104A091C204B0915A
:10587000C30484239523A623B723892B8A2B8B2B40
:1058800011F58091C4049091C504A091C604B09113
:10589000C70484239523A623B723892B8A2B8B2B1C
:1058A000A1F48091DC049091DD04A091DE04B0911C
:1058B000DF0484239523A623B723892B8A2B8B2BE4
:1058C00099F0E3E003C0E1E001C0E2E0F0E0EE0FB8
:1058D000FF1FE254FA4F8591949160919504709165
:1058E000960471700E94EA0880913A05853048F06C
:1058F00010923A0581E090913B05911180E08093F0
:105900003B050E94B4170091450510914605209172
:1059100047053091480508511C4F2F4F3F4F061740
:1059200017072807390708F0B2C000934505109300
:10593000460520934705309348051092390580911C
:105940004D0590914E0590937705809376051092C2
:105950004E0510924D0580914F0590915005909302
:105960007505809374051092500510924F05809133
:105970005105909152059093730580937205109292
:105980005205109251058091780590917905019604
:1059900090937905809378058091B404811117C0A4
:1059A0005E9880EA0E9420098FEF0E942009837090
:1059B00090914704981719F00E94150D08C080E8CF
:1059C0000E9420098FEF0E94200983FFF5CF80916C
:1059D0004A05811103C010924C0403C0815080938A
:1059E0004A0580914905882319F081508093490523
:1059F00080914B05882319F0815080934B0580914D
:105A0000A904811109C080914A0490914B0490939C
:105A100071058093700516C080916E0590916F0599
:105A2000019690936F0580936E0580914804909144
:105A30004904019690934904809348041092A70466
:105A40000E94A80D8091AA049091AB0401969093B6
:105A5000AB048093AA0480914005813051F4809179
:105A6000A704882331F060E08EEC0E94DE031092E0
:105A7000400580914005882319F0815080934005AE
:105A800080913F05882319F0815080933F0581E084
:105A90000E94EF0F0E94360F0C94FC188AE791E0E9
:105AA0000C9498208BE10E94C607882311F40C9473
:105AB000D0220E94B4174090660550906705609010
:105AC00068057090690558EE450E53E0551E611C3F
:105AD000711C6415750586059705D8F480916505D8
