:100000000C94C3030C9405050C94EB030C94EB03C4
:100010000C94AB050C944C050C94EB030C94EB0383
:100020000C94EB030C94EB030C94EB030C94EB0398
:100030000C94EB030C94EB030C94EB030C94EB0388
:100040000C940E1D0C94EB030C94F2100C94CC1039
:100050000C94EB030C94EB030C94EB030C94EB0368
:100060000C94EB030C94EB03F516FB160117071722
:10007000DA170D17DA17DA171317DA171E173317EF
:100080004817DA17DA17DA175D17DA17DA1772175F
:1000900087179C17DA17DA17DA17DA17DA17DA1769
:1000A000B117C617F018F618FC18021908190E191E
:1000B00014191A1934193C1944194C1954195C199A
:1000C00064191B1A231A2B1A331A3B1A431A4B1A98
:1000D000531AB01AB81AC01AC81AD01AD81AE01A85
:1000E00005A84CCDB2D44EB93836A9020C50B991FE
:1000F0008688083CA6AAAA2ABE000000803F4E4F70
:10010000542044455445435445442D50414C004EE1
:100110004F542044455445435445442D4E54534375
:10012000004155544F2D50414C004155544F2D4ED8
:100130005453430053493A0049443A0020202020B8
:100140002B50495443482046554C4C002020202039
:100150002B594157205249474854004D454E553A76
:1001600054485254204D4944444C4500004D572DAD
:100170004F5344202D2052312E372E31004445421A
:100180005547004C4F5720564F4C5453004C4F5737
:10019000205341545300204E4F20475053004E4FA0
:1001A0002044415441002041524D454400444953AC
:1001B00041524D454400204D495353494F4E004153
:1001C00055544F20484F4C44004155544F205254F1
:1001D0004800002A0121010F01FE006D016C015B46
:1001E000014C013C016C0138013401D201AD01A682
:1001F000019E0196018D0183017D011D1A1D1C1DAB
:10020000191D1C1D1B1D1C1D181D1C1D1A1D1C1D30
:10021000191D1C1D1B1DD201C901BF01B6014633AA
:1002200020434F4E54524F4C4C455253204F4E4C4E
:1002300059002000202020202B50495443482046BC
:10024000554C4C00202020202B594157204C45462E
:100250005400545820203A54485254204D494444A4
:100260004C45004C4F4F5054494D45005049442097
:10027000434F4E54524F4C4C45520050524F4649FA
:100280004C45005445585420414C41524D53004177
:100290004D5053004D414820583130300054494DA5
:1002A000455200535045454400414C54495455442F
:1002B00045205831300044495354414E434520585D
:1002C000313030005448524F54544C452050574D13
:1002D000004F5344205458204348004D4147204389
:1002E000414C004445425547005620524546005572
:1002F0004E495453004D4150204D4F44450047490D
:100300004D42414C0053454E534F525300475053BA
:1003100020434F4F524453005448524F54544C457D
:10032000005343524F4C4C494E47204241525300D8
:1003300053494445204241525300484F52495A4F75
:100340004E0041444A555354205A45524F004144AF
:100350004A55535420414D5053005553452056495A
:10036000525455414C2053454E534F52004449532B
:10037000504C4159204D414800444953504C41593B
:1003800020414D5053005345542052535349204D62
:10039000494E005345542052535349204D41580073
:1003A0005553452050574D005345542052535349FF
:1003B00000444953504C415920525353490055531E
:1003C000452046430043454C4C5300444953504C50
:1003D00041592056494420564F4C5453004D4149F1
:1003E0004E20564F4C545320414C41524D004144F5
:1003F0004A55535420564F4C545300444953504C83
:100400004159204D41494E20564F4C5453005448B9
:10041000524F54544C45204558504F005448524F69
:1004200054544C45204D49440054504100594157C3
:1004300020524154450050495443482052415445AC
:1004400000524F4C4C2052415445005243204558D5
:10045000504F0052432052415445005941572052B9
:1004600043204558504F0054504120425245414B83
:10047000504F494E54004D4147004C4556454C00A5
:1004800047505300414C5400594157005049544380
:100490004800524F4C4C004D415820414D505300A4
:1004A0004D41482055534544004D41582053504537
:1004B0004544004D415820414C5449545544450051
:1004C0004D41582044495354414E434500544F54E4
:1004D0002044495354414E434500464C5920544909
:1004E0004D4500414456414E43452054554E494EDA
:1004F0004700414C41524D5300414456414E434503
:100500004400444953504C41590043555252454EC2
:1005100054005253534900564F4C544147450041F3
:10052000434345535320414C4C2053455454494E6A
:1005300047530052432054554E494E4720320052F3
:10054000432054554E494E470050494420434F4E96
:10055000464947005354415449535449435300209A
:10056000007BC12A00210090005400240072002763
:10057000003500CB0060017EC17EC137C110011D76
:100580000102000F004C01F2006BC12FC175017F09
:1005900001C200BB00BB00030007007A0055010642
:1005A000015C003400C50064005701BA001801DC8A
:1005B000C020C034C036C0B7C090C054C024C07280
:1005C000C028C0CBC0CAC060C17EC17EC137C110C7
:1005D000011D0102C00FC04DC1F3C06BC12FC1711D
:1005E000C178C1C2C0BBC0BBC0030007007AC05500
:1005F000C106C15CC03400C30064C05301BA001816
:10060000C1DCC000000000960000000004F40158A6
:10061000020D00003C000000018A04C80000000038
:10062000000100C800326401010100000001000067
:1006300000010100000100000100000000000101B4
:10064000010101000101000400000005000100009B
:1006500000001E4D574F53440020202020520244DA
:1006600002340232021E027B026C026302B602A94D
:1006700002A3029D0294028F028302312E315600A2
:10068000355600494D50004D455400EF02E902E354
:1006900002DB02D102C4023A033003210318030D26
:1006A000030503FE02F50279036D035A034E03426C
:1006B00003B103A803BE03A00393038603FB03EE69
:1006C00003DD03CB03EE03C503BE0353044B044118
:1006D0000436042D0429041C040E0467045B0492F0
:1006E000048C048804840480047A047604DA04CD3B
:1006F00004C004B304A904A00497043C5041474536
:100700003E00534156452B455849540045584954DD
:1007100000540549053F0533051F05170512050A55
:10072000050205F904F204E3044F4E004F4646006B
:100730002C07290700000000240027002A000000E1
:100740000000250028002B00040404040404040411
:10075000020202020202030303030303010204086C
:10076000102040800102040810200102040810201B
:100770000000000800020100000304070000000060
:1007800000000000DD2E11241FBECFEFD8E0DEBF39
:10079000CDBF27E0A0E6B1E001C01D92AF31B207A6
:1007A000E1F711E0A0E0B1E0E6EDF5E602C005906A
:1007B0000D92A036B107D9F713E0C3ECD3E004C023
:1007C0002197FE010E94502FC23CD107C9F70E9419
:1007D000581D0C94E9320C940000E82FF0E0EE0F65
:1007E000FF1FEA5EFB4F208131812227307C81E0B0
:1007F0002115304C09F080E008953F924F925F92AE
:100800006F927F928F929F92AF92BF92CF92DF9220
:10081000EF92FF920F931F93CF93DF938A01D22F12
:10082000222311F0C8E001C0C5E0F801EC0FF11D72
:100830001082DC2ECD2E3AE0432E512C612C712CEF
:1008400046E0842E912CA12CB12C5AE3352E2FEFAB
:100850002D0D7801E20EF11C27FDFA94A3019201FF
:100860000E94B83280E3860FF70180838EEF8D0DF2
:100870007801E80EF11C87FDFA94CA01B901A501BF
:1008800094010E94B832605DF7016083B901CA012A
:10089000FDEFDF0EF801ED0DF11DD7FCFA9530826A
:1008A000CA942FEFC212D3CF2D2F220FD20FCD1B00
:1008B000C3502AE0822E912CA12CB12CC15078017A
:1008C000EC0EF11CC7FDFA94A50194010E94B83208
:1008D000605DF7016083B901CA0161157105810589
:1008E000910511F0C111EACF80E2CC2341F0C15053
:1008F000F801EC0FF11DC7FDFA958083F6CFC80112
:10090000DF91CF911F910F91FF90EF90DF90CF90EB
:10091000BF90AF909F908F907F906F905F904F901F
:100920003F900895EF92FF920F931F93CF93DF9321
:10093000FB0197FF05C0919581959109C1E001C028
:10094000C0E0DF01A40FB11D1C92DEE20AE010E05E
:10095000421306C04150DF01A40FB11DDC9320E01B
:100960003FEF340F7F01E30EF11CB8010E943C2FD2
:10097000805DD7018C93CB01332379F0222311F0D2
:10098000432FE6CF0097E1F7CC2339F03EEF340F49
:10099000DF01A30FB11D8DE28C9380E2332331F090
:1009A0003150DF01A30FB11D8C93F8CFCF01DF9140
:1009B000CF911F910F91FF90EF900895CF92DF920A
:1009C000EF92FF920E94021D6B017C0128E2C20E91
:1009D000D11CE11CF11C81E08093670580916705C3
:1009E000882371F00E94021DC616D706E806F90694
:1009F00018F410926705F2CF80E00E947A11EECFD2
:100A0000FF90EF90DF90CF9008951F920F920FB656
:100A10000F921124109267050F900FBE0F901F9038
:100A20001895DB01AC5EBD4FFC0124910196222399
:100A300011F02D93F9CF0895DC01FB01EC5EFD4F21
:100A40009D91992311F09193FBCF0895ADEFB4E000
:100A5000E2E0F7E02AE02E0F3D9131932E13FCCF18
:100A600010920C07BC0182E097E00C941C058EBD2F
:100A70000DB407FEFDCF8EB50895CF93DF931F927F
:100A8000CDB7DEB769830E9437056981862F0F9045
:100A9000DF91CF910C9437051F920F920FB60F92F2
:100AA00011242F933F934F935F936F937F938F9373
:100AB0009F93AF93BF93CF93EF93FF93C9B1789474
:100AC0000E94A31C2091650530916605AB01421B75
:100AD000530B9A01293B3B4018F021E02093300151
:100AE0007093660560936505C5FD1FC02091630581
:100AF00030916405621B730BCB018F5E92408B3D7E
:100B0000954048F4E0912E01F0E0EE0FFF1FE45F06
:100B1000FE4F71836083809130018F5F809330013D
:100B2000709362056093610504C0709364056093DF
:100B30006305FF91EF91CF91BF91AF919F918F91FD
:100B40007F916F915F914F913F912F910F900FBEC9
:100B50000F901F9018951F920F920FB60F921124AD
:100B60002F933F934F935F936F937F938F939F93B5
:100B7000AF93BF93CF93EF93FF93C6B178940E9446
:100B8000A31C20915F0530916005AB01421B530B04
:100B90009A01293B3B4018F021E020932F017093EC
:100BA000600560935F05C3FD1AC020915D0530911B
:100BB0005E05621B730BCB018F5E92408B3D9540AF
:100BC00020F470935C0560935B0580912F018F5F2B
:100BD00080932F0170935A056093590504C0709358
:100BE0005E0560935D05FF91EF91CF91BF91AF914D
:100BF0009F918F917F916F915F914F913F912F9135
:100C00000F900FBE0F901F9018954F925F926F92AA
:100C10007F928F929F92AF92BF92FF920F931F93FA
:100C2000CF93DF93C0E4D1E0A9E9B5E040E050E024
:100C30006AE089918E3008F08E5087702091000113
:100C400090E4299F90011124822B80937C00809155
:100C50007A00806480937A0080917A0086FDFCCFD0
:100C6000809178002091790090E0922BF0905805C7
:100C70004115510541F42091C604222339F1809198
:100C8000980590E023C0443009F52091C104222347
:100C9000A9F080915B0590915C05959587950097EB
:100CA00069F4649FF001659FF00D1124EF0DF11DB3
:100CB000EE0FFF1FE756FA4F808191812091C0040B
:100CC000222321F08091960590919705649FF00171
:100CD000659FF00D1124EF0DF11DEE0FFF1FE7567C
:100CE000FA4F50962D913C91519700811181201B14
:100CF000310B51963C932E93509720813181820F76
:100D0000931F969587959183808350962D913C9162
:100D10005197820F931F51969C938E9350974F5FDC
:100D20005F4F54964530510509F083CF8091C6043A
:100D30006091A9057091AA05D091E004811134C099
:100D400080E090E0C091C504D11115C00E948130AF
:100D50004B015C016C2F70E080E090E00E948330DA
:100D60009B01AC01C501B4010E94773127E137EB4B
:100D700041ED58E314C00E9481304B015C016C2F9F
:100D800070E080E090E00E9483309B01AC01C501DF
:100D9000B4010E9477312FE632E143E05AE30E942A
:100DA00077310E94523005C053E0759567955A958A
:100DB000E1F770930B0260930A028091BD04809367
:100DC00003026091BD057091BE0580E090E0C09186
:100DD000CD04D11115C00E9481304B015C016C2FF4
:100DE00070E080E090E00E9483309B01AC01C5017F
:100DF000B4010E94773127E137EB41ED58E314C08D
:100E00000E9481304B015C016C2F70E080E090E02B
:100E10000E9483309B01AC01C501B4010E9477316F
:100E20002FE632E143E05AE30E9477310E945230CC
:100E300070930502609304028091C8048111C4C0BC
:100E40008091CA04C091F506D091F6060091F7068C
:100E50001091F806811144C04E01A12CB12C2091B3
:100E6000D1053091D20543E0359527954A95E1F7B4
:100E7000C901330FAA0BBB0B9C01AD01281939091D
:100E80004A095B09D8010E94AD3200E014E020E07D
:100E900030E0A9019801281939094A095B090E9423
:100EA0008E32CA01B9010E9483304B015C0120E0FF
:100EB00030E0A9010E94CF2F87FD09C080928304F2
:100EC00090928404A0928504B092860498C01092F7
:100ED00083041092840410928504109286048FC0BB
:100EE00080911401909115016091040170910501A8
:100EF0008617970740F060910601709107018617E9
:100F0000970708F4BC01CB01A0E0B0E0BC01CD0123
:100F1000685E734081099109623F23E07207810591
:100F2000910548F42AE030E040E050E00E94B832F9
:100F300049015A0105C094E6892E912CA12CB12CAF
:100F4000C501B4010E9481302B013C01A50194012F
:100F5000C501B4010E940A2F0E9481302AE037EDBA
:100F600043EA5CE30E9477319B01AC01C301B2010B
:100F70000E94632F4B015C01B80180E090E00E9469
:100F800081309B01AC01C501B4010E9477312AE098
:100F900037ED43E25CE30E9477314B015C018091C5
:100FA0007604BE01882359F080E090E00E948130F1
:100FB0009B01AC01C501B4010E94632F18C080E001
:100FC00090E00E94813013C0809194059091950526
:100FD00097FF02C0059701C005966AE070E00E9485
:100FE0003C2F072E000C880B990B0E9483306093D6
:100FF0008304709384048093850490938604809185
:10100000BF04882309F44EC02091F9053091FA05F8
:1010100083E0359527958A95E1F7809174048823BC
:1010200089F0809111058F3029F43093FC062093CC
:10103000FB0608C0813031F43093FA062093F9069C
:10104000109211058090F9069090FA06A12CB12C0F
:10105000C901330FAA0BBB0B9C01AD01281939093B
:101060004A095B09A4E6B0E00E94AD322091FB067C
:101070003091FC06890120E030E0A901980128198F
:1010800039094A095B090E948E322536310514F070
:1010900024E630E037FF02C020E030E030936904FE
:1010A0002093680481E08F0D883018F480935805F0
:1010B00002C010925805DF91CF911F910F91FF90C0
:1010C000BF90AF909F908F907F906F905F904F9068
:1010D0000895CF92DF92EF92FF920F931F93CF93D9
:1010E000DF93CDB7DEB7E0970FB6F894DEBF0FBE43
:1010F000CDBFE0910B01EE0FFF0BEF5EF84F859136
:10110000949163E270E00E9411056BE671E08CE05F
:1011100097E00E9411058091750481110CC061E770
:1011200071E082E097E00E9411056BE771E08BEFC0
:1011300096E00E94110580910B0181118AC0809177
:10114000FD019091FE01A091FF01B09100028D83FD
:101150009E83AF83B8878091F4039091F503A091AB
:10116000F603B091F70389879A87AB87BC87809194
:101170000C0290910D02092E000CAA0BBB0B8D875F
:101180009E87AF87B88B8091F8039091F903A0E018
:10119000B0E0898B9A8BAB8BBC8B20E030E044EBCA
:1011A00053E4609187047091880480918904909140
:1011B0008A040E94D92F0E9452306D8B7E8B8F8BB8
:1011C000988F80910602909107026AE070E00E9479
:1011D000282FCB01A0E0B0E0898F9A8FAB8FBC8F16
:1011E000FDEEEF2EF6E0FF2ECE0101966C010DE52F
:1011F00010E0F70185919491B8010E941105F60164
:1012000081919191A191B1916F014AE062E077E003
:101210000E944332B8016F5E7F4F0E941C05F2E0CE
:10122000EF0EF11C025E1F4F0F3281E0180709F725
:10123000609111047091120480E090E021E042E09E
:1012400057E00E94FD036DE670E082E097E00E94A7
:101250001C0580910B01813009F06AC0EFEDEE2E84
:10126000E6E0FE2E0DE510E0F70185919491B801BE
:101270000E94110592E0E90EF11C025E1F4F0F3231
:10128000E1E01E0789F700E0053019F0073028F08B
:1012900001C007E0D02E025001C0D02EFEE10F9F0A
:1012A00080011124ED2CF12CF701E158FA4F8081D7
:1012B0004AE062E077E090E00E944332B8016B5967
:1012C0007F4F0E941C05F701EB58FA4F80814AE0DE
:1012D00062E077E090E00E944332B80165597F4FA9
:1012E0000E941C05F701E559FA4F80814AE062E04F
:1012F00077E090E00E944332B8016F587F4F0E9420
:101300001C0501E00D0D093008F4BECF67E470E064
:1013100087E591E00E941C056DE470E089E591E0AD
:101320000E941C0563E570E08BE591E00E941C05BE
:1013300080910B01833079F5E0908A05F0908B0560
:10134000FE8EED8E0091890510E018A30F8FEBED56
:10135000F6E0859194916DE570E00E9411054AE0F8
:1013600062E077E0C7010E94433261E770E00E94CB
:101370001C05EDEDF6E0859194916BE770E00E941D
:1013800011054AE062E077E0C8010E9443326FE84D
:1013900070E00E941C0580910B018230E9F1809180
:1013A0000B01853009F0E2C00E94050687E98093B1
:1013B000020723E044E063E077E080910A02909125
:1013C0000B020E94920419EA109307071092080773
:1013D00064E370E082E097E00E941C058FEB80934D
:1013E000020723E044E063E077E0809104029091FB
:1013F00005020E94920410930707109208076CE2FE
:1014000070E082E097E00E941C056DEBE62E66E03E
:10141000F62E0DE510E050C08091930590E09E8F70
:101420008D8F8091920590E098A38F8F8091910588
:1014300090E09AA389A38091900590E09CA38BA350
:1014400080918F0590E09EA38DA380918E0590E002
:1014500098A78FA380918D0590E09AA789A7809186
:101460008C0590E09CA78BA77BECE72E76E0F72E0F
:101470006E018DE1C80ED11C0DE510E0F7018591DC
:101480009491B8010E9411054AE062E077E0F6010C
:10149000819191916F010E944332B8016C5E7F4F40
:1014A0000E941C05F2E0EF0EF11C025E1F4F0D348E
:1014B00081E0180719F773CFF70185919491B8016E
:1014C0000E94110592E0E90EF11C025E1F4F0F32DF
:1014D000E1E01E0789F78091CC044AE062E077E002
:1014E00090E00E9443326BEC70E00E941C0567E0C4
:1014F00081E790E00E94B81B8091C5044AE062E059
:1015000077E090E00E9443326FE870E00E941C0593
:101510008091C3044AE062E077E090E00E944332A9
:101520006DEA70E00E941C0561E18BEC90E00E9486
:10153000B81B8091CD044AE062E077E090E00E9421
:10154000433269EE70E00E941C058091C4044AE0B9
:1015500062E077E090E00E94433267E071E00E9431
:101560001C056BE085E291E00E94B81B80910B01A5
:10157000863009F06FC04AE062E077E0809168044D
:10158000909169040E944332E0E0AE2FB0E0AE5F7C
:10159000B84F8C91EF5F8111F8CF85E28C93F0E02A
:1015A000EE5FF84F108265E370E082E097E00E9402
:1015B0001C0551EBE52E56E0F52E0DE510E0F70188
:1015C00085919491B8010E941105F2E0EF0EF11C93
:1015D000025E1F4F013181E0180789F764E081E75F
:1015E00090E00E94B81B80911105882349F04AE0E1
:1015F00062E077E090E00E9443326FE870E004C060
:101600006FE870E08DE591E00E941C0565E08DEAD1
:1016100090E00E94B81B66E08BEC90E00E94B81B43
:101620004AE062E077E08091FB069091FC060E9420
:10163000433269EE70E00E941C054AE062E077E008
:101640008091F9069091FA060E94433267E071E0BA
:101650000E941C0580910B01873009F05AC06091EF
:1016600083047091840480918504909186040E9483
:101670004B30DC01CB0123E044E062E077E00E94E4
:1016800092048AE9809306071092070764E370E0EA
:1016900082E097E00E941C0547EAE42E46E0F42E23
:1016A0000DE510E0F70185919491B8010E941105B4
:1016B00092E0E90EF11C025E1F4F033F110591F706
:1016C0006CE081E790E00E94B81B6EE08FE890E04C
:1016D0000E94B81B6FE08DEA90E00E94B81B4AE0C0
:1016E00062E077E08091F7069091F8060E9443321D
:1016F0006BEC70E00E941C054AE062E077E08091AC
:10170000F5069091F6060E94433269EE70E00E9461
:101710001C0580910B01883009F044C037E9E32EA5
:1017200036E0F32E0DE510E0F70185919491B801B4
:101730000E941105E2E0EE0EF11C025E1F4F0D3417
:10174000F1E01F0789F760E281E790E00E94B81B93
:1017500061E28FE890E00E94B81B6DE28DEA90E0B4
:101760000E94B81B6FE18BEC90E00E94B81B67E110
:1017700089EE90E00E94B81B64E387E091E00E944C
:10178000B81B6EE285E291E00E94B81B8091DF04F5
:101790004AE062E077E090E00E94433263E471E067
:1017A0000E941C0580910B01893009F058C02BE87C
:1017B000E22E26E0F22E0DE510E0F70185919491DE
:1017C000B8010E94110582E0E80EF11C025E1F4F75
:1017D000013191E0190789F78091D80461E770E041
:1017E000811103C087E896E002C083E896E00E947A
:1017F00011058091E0046FE870E0882319F080E81B
:1018000096E002C08BE796E00E9411056CE28DEA3B
:1018100090E00E94B81B80911205882349F04AE0AD
:1018200062E077E090E00E9443326BEC70E004C02D
:101830006BEC70E08DE591E00E941C058091F50451
:101840004AE062E077E090E00E94433269EE70E0A7
:101850000E941C0563E187E091E00E94B81B809123
:101860000B018A3009F04EC08091F90490E09E8F00
:101870008D8F8091FA0490E098A38F8F8091FB0464
:1018800090E09AA389A38091FC0490E09CA38BA391
:101890008091CF0490E09EA38DA38091D00490E02E
:1018A00098A78FA39DE5E92EF12CC12CD12C10E037
:1018B000F601E359F94F85919491B7010E94110502
:1018C000163091F04AE062E077E0EDE1F0E0EC0FF5
:1018D000FD1FEC0DFD1D808191810E944332B701F7
:1018E0006C5E7F4F0E941C051F5FE2E0CE0ED11C94
:1018F000FEE1EF0EF11C1730D9F660E185E291E0D0
:101900000E94B81B80910B018B3051F5E090950639
:10191000F12C00916A0510E0E7E6F6E085919491DC
:101920006DE570E00E9411054AE062E077E0C701D2
:101930000E94433261E770E00E941C05E9E6F6E090
:10194000859194916BE770E00E9411054AE062E096
:1019500077E0C8010E9443326FE870E00E941C05E6
:1019600080910B01843039F080910B018C30C4F0F0
:1019700010920B0115C08DE5E82E86E0F82E0DE5DE
:1019800010E0F70185919491B8010E94110582E061
:10199000E80EF11C025E1F4F033F110591F7E4CFE3
:1019A00020910A012A3071F480910901833009F4F1
:1019B000F1C0813009F4DFC0823009F0DFC080E778
:1019C00091E0DEC02A3008F0D9C030910B013130EF
:1019D00031F5283019F48AE080930A0180910A01D8
:1019E000893019F487E080930A0120910A0130E0E0
:1019F0002E5F3F4F4EE1429FC001439F900D112447
:101A00000A964091090150E04150510966E0649FF7
:101A10009001659F300D1124820F931FB1C03330A8
:101A200061F4233019F48AE080930A0180910A015D
:101A3000893009F09DC082E031C0323061F4293034
:101A400009F04BC080916805883009F442C088E0F5
:101A500080930A0142C0353079F483E08093090114
:101A6000283019F48AE080930A0180910A018930B4
:101A700009F07EC087E012C080E090E0363089F443
:101A800083E080930901273019F48AE080930A01EA
:101A900080910A01893009F06BC086E080930A01C9
:101AA00067C0373071F483E080930901293019F45D
:101AB00085E080930A0180910A01863009F058C0C0
:101AC0003BC03830E1F4293041F48091680588301A
:101AD00011F48AE0BDCF30930A0120910A012093CE
:101AE000680583E08093090130E02E5F3F4F4EE1AF
:101AF000429FC001439F900D1124469641C039304A
:101B000069F483E080930901293019F486E0809319
:101B10000A0180910A01873059F50EC03A3071F4FC
:101B200083E080930901293019F487E080930A014A
:101B300080910A018830E1F48AE0B0CF343039F482
:101B400023E0209309012AE020930A0119C03B30C9
:101B5000B9F4293019F482E080930A0180910A01D6
:101B6000833019F48AE080930A0183E080930901AD
:101B700020910A01B9CF8AE691E002C080E090E0AE
:101B800020910E05222349F0FC01EC5EFD4F23E07D
:101B9000208303C08AE791E0F3CFE0960FB6F89474
:101BA000DEBF0FBECDBFDF91CF911F910F91FF9090
:101BB000EF90DF90CF900895CF92DF92EF92FF9257
:101BC0000F931F93CF93DF9380E090E00E94261144
:101BD0008D3009F457C0C0E0D0E0FE01EF5EF94F50
:101BE0006491CE010E9424112196CC34D105A9F72D
:101BF000FE01E954FA4F05911491602FCE010E9425
:101C00002411612FCE0101960E9424112296CA351B
:101C1000D10571F78E010A551109C8018F549A4FE9
:101C20007C01FC01C590D4906C2DCE010E94241142
:101C30006D2DCE0101960E942411F801E15AFA4F50
:101C400005911491602FCE018E5A9F4F0E9424114E
:101C5000612FCE018D5A9F4F0E942411F7010591EB
:101C60001491602FCE018C559F4F0E942411612F3B
:101C7000CE018B559F4F0E9424112296CE3FD10555
:101C800009F0C8CFDF91CF911F910F91FF90EF9096
:101C9000DF90CF900895BF92CF92DF92EF92FF92A4
:101CA0000F931F93CF93DF93C090BA0422E5C29E97
:101CB000C0011124B090D90406E114E07C013CEA93
:101CC000E30EF11CFC01E65AFF4F6F01C6010E94B2
:101CD0002611C82FD0E0F801D183C083C601019638
:101CE0000E942611282F30E0322F22272C0F3D1F73
:101CF000F80131832083BB2081F0C90191708739BD
:101D0000910558F0813F910518F4225E3F4F03C0C2
:101D1000245C3F4FF80131832083F2E0CF0ED11CC9
:101D20000E5F1F4FCE14DF0489F6DF91CF911F9114
:101D30000F91FF90EF90DF90CF90BF9008955E9A43
:101D40002A9864E670E080E090E00E94C81C2A9A1D
:101D500080E58CBD81E08DBD8DB58EB56AE070E00B
:101D600080E090E00E94C81C5E9864E670E080E02D
:101D700090E00E94C81C80EA0E9437058FEF0E9405
:101D800037058370813029F48093D90480930A0544
:101D90000CC0823029F41092D90410920A0505C0B3
:101DA0009091D9049E5F90930A05809310048091CE
:101DB000D904882341F080EE91E090930202809351
:101DC00001026CE407C086E891E0909302028093E0
:101DD00001026CE080E00E943D055E9A9FB7F89496
:101DE000E89A809169008260809369009FBF0C949B
:101DF0004B0EEF92FF920F931F93CF93DF930BEB5A
:101E000014E0C0E0D0E0CE010E942611F8018193D9
:101E10008F012196CC34D105B1F733EFE32E36E0B4
:101E2000F32ECE010E942611082F10E0F701118336
:101E30000083CE0101960E94261190E0982F8827FA
:101E4000080F191FF701019311937F012296CA35DC
:101E5000D10539F7DF91CF911F910F91FF90EF904E
:101E60000C944B0E80918204882329F080E090E14D
:101E7000A0E0B0E05AC080917404882329F08FE973
:101E800096E0A4E0B0E051C08AE090E0A0E0B0E0CD
:101E90008093790490937A04A0937B04B0937C049C
:101EA00020916E0421FF0CC08AE190E0A0E0B0E038
:101EB0008093790490937A04A0937B04B0937C047C
:101EC00080910705813089F08091790490917A049E
:101ED000A0917B04B0917C048160809379049093FD
:101EE0007A04A0937B04B0937C0423FF11C08091FB
:101EF000790490917A04A0917B04B0917C04806A6B
:101F00008093790490937A04A0937B04B0937C042B
:101F100080918B04811111C08091790490917A0491
:101F2000A0917B04B0917C04986080937904909395
:101F30007A04A0937B04B0937C048091C604811141
:101F400004C08091C004882389F080917904909125
:101F50007A04A0917B04B0917C0491608093790411
:101F600090937A04A0937B04B0937C0440917D0409
:101F700050917E0460917F04709180048091790477
:101F800090917A04A0917B04B0917C0484239523E2
:101F9000A623B72380937D0490937E04A0937F04AF
:101FA000B09380040895CF92DF92EF92FF920F9347
:101FB0001F93CF93DF936C017A018B01C0E0D0E0D7
:101FC000CE15DF0589F0D8016D918D01D601ED9117
:101FD000FC910190F081E02DC6010995892B11F447
:101FE0007E0102C02196ECCFC701DF91CF911F91F6
:101FF0000F91FF90EF90DF90CF900895FC01918DAD
:10200000828D981761F0828DDF01A80FB11D5D965A
:102010008C91928D9F5F9F73928F90E008958FEFC8
:102020009FEF0895FC01918D828D981731F0828D7C
:10203000E80FF11D858D90E008958FEF9FEF0895D3
:10204000FC01918D228D892F90E0805C9F4F821B37
:1020500091098F739927089580E691E00E942010DE
:1020600021E0892B09F420E0822F0895FC01848D62
:10207000DF01A80FB11DA35ABF4F2C91848D90E0B2
:1020800001968F739927848FA689B7892C93A0898D
:10209000B1898C9180648C93938D848D981306C044
:1020A0000288F389E02D80818F7D80830895EF92EF
:1020B000FF920F931F93CF93DF93EC0181E0888F02
:1020C0009B8D8C8D981305C0E889F989808185FDE9
:1020D00024C0F62E0B8D10E00F5F1F4F0F731127DA
:1020E000E02E8C8DE8120CC00FB607FCFACFE88901
:1020F000F989808185FFF5CFCE010E943610F1CF9E
:102100008B8DFE01E80FF11DE35AFF4FF0820B8F1C
:10211000EA89FB898081806207C0EE89FF8960833C
:10212000E889F98980818064808381E090E0DF9193
:10213000CF911F910F91FF90EF900895CF93DF9370
:10214000EC01888D8823C9F0EA89FB89808185FDAF
:1021500005C0A889B9898C9186FD0FC00FB607FC10
:10216000F5CF808185FFF2CFA889B9898C9185FF51
:10217000EDCFCE010E943610E7CFDF91CF910895C9
:1021800080E090E0892B29F00E942C1081110C94A2
:10219000000008950E9435321F920F920FB60F92E1
:1021A00011242F933F934F935F936F937F938F935C
:1021B0009F93AF93BF93EF93FF9380E691E00E94CC
:1021C0003610FF91EF91BF91AF919F918F917F91C9
:1021D0006F915F914F913F912F910F900FBE0F9094
:1021E0001F9018951F920F920FB60F9211242F93E4
:1021F0008F939F93EF93FF93E0917001F0917101A2
:102200008081E0917601F091770182FD12C090818A
:10221000809179018F5F8F7320917A01821751F03D
:10222000E0917901F0E0E05AFE4F958F80937901BB
:1022300001C08081FF91EF919F918F912F910F901D
:102240000FBE0F901F9018950C9480320C9478322A
:10225000CF9381E080930B018AE080930A0183E0B1
:102260008093090110927404109275048091DE0429
:10227000882301F11092FD011092FE011092FF01DE
:10228000109200021092F4031092F5031092F603DC
:102290001092F70310920D0210920C021092F903A3
:1022A0001092F80310920702109206021092120484
:1022B00010921104C0919406809195068C17B9F084
:1022C000C093950661E082ED0E943B188C2F0E941E
:1022D0001E180E94181860E08AEF0E943B180E94A6
:1022E000320F64E670E080E090E00E94C81CCF915D
:1022F0000C94320F2F923F924F925F926F927F9287
:102300008F929F92AF92BF92CF92DF92EF92FF9205
:102310000F931F93CF93DF9300D01F92CDB7DEB7FB
:10232000382E80E691E00E94201021E0892B09F4EC
:1023300020E08FE795E03AE0380F3B83FCE28F2EF8
:1023400099249394A12CB12CA8EE4A2EA3E05A2EE6
:10235000612C712C8DEA96E0B6E32B2E280E2130ED
:1023600009F050C680E691E00E94FE0F20912305FF
:10237000309124052F5F3F4F309324052093230590
:102380002091F1063091F2062115310559F421E032
:1023900030E0843211F020E030E03093F2062093F8
:1023A000F10620C62130310529F48D3441F482E054
:1023B00090E00AC02230310561F48E3319F080E0DC
:1023C00090E002C083E090E09093F2068093F106E3
:1023D00009C62330310571F4873908F0F5C58093BB
:1023E000F00624E030E03093F2062093F10680936B
:1023F000EF06F8C52430310581F425E030E0309354
:10240000F2062093F1068093EE069091EF0689275D
:102410008093EF061092ED06E5C52530310509F0F1
:10242000E1C59091EF0698279093EF061091ED0685
:102430002091F0061213CDC59111C6C580912105DA
:102440009091220501969093220580932105109288
:10245000FD0583E080931B058091EE068C3D09F01D
:102460006DC10E94841B893009F04DC082E08093C9
:102470001D050E94841B182F0E94841B212F30E011
:10248000280F311D3093EC062093EB060E94841B2D
:102490008093EA0681E08093E9060E94021DDC0138
:1024A000CB018854944FAF4FBF4F8093E506909374
:1024B000E606A093E706B093E8066FE18CED0E9474
:1024C0003B1889E00E941E18EAE0FE2E0091EB0600
:1024D0001091EC06C8010E942611E82E8093EA06AE
:1024E000C8010E942C188E2D0E941E188091EB06A8
:1024F0009091EC0601969093EC068093EB06FA948B
:10250000F110E4CF97C0883009F055C082E0809385
:102510001D057AE0E72EFF24F3940E94841BD82E39
:102520000E94841B082F10E0102F00270D0D111D95
:102530001093EC060093EB060E94841BD82E809328
:10254000EA06F092E9060E94021DDC01CB018854E4
:10255000944FAF4FBF4F8093E5069093E606A0934C
:10256000E706B093E8066D2DC8010E9424116DE0C6
:1025700080E090E00E9424110091EB061091EC069F
:102580000935110521F00F3481E0180711F40E947C
:10259000F90EEA94E110C1CF0F5F1F4F1093EC06C4
:1025A0000093EB0663E08CED0E943B1889E00E94EB
:1025B0001E18C8013DC0873009F03FC010921E05AB
:1025C0006BE08CED0E943B1887E00E941E1809E921
:1025D00015E0F8018089918953E0969587955A9581
:1025E000E1F70E942C180C5E1F4FF5E00D3F1F070E
:1025F00081F70E9418186DE08CED0E943B188AE06C
:102600000E941E1887E090E00E942C1883E090E062
:102610000E942C188EEA96E00E942C1880E090E030
:102620000E942C1880E090E00E942C1881E090E03D
:102630000E942C180E94181881C0833009F068C0CD
:102640001530D9F40E948F1B80329D4109F076C06D
:102650000E94841B8093E4060E94841B8093E306FF
:102660008091760481116AC080917404811166C0E2
:1026700080918204811162C0BEC4183309F05EC02B
:102680004DEAE42E46E0F42E87010E94841BF801F7
:1026900081938F012E12F9CF0E94841B182F5E9810
:1026A0006091D904611160E480E00E943D05612FD2
:1026B00089E00E943D0500E0602F8AE00E943D0510
:1026C000F70161917F018BE00E943D050F5F0633AA
:1026D00099F760EA88E00E943D0580EA0E9437058C
:1026E00085FDFBCF8091D904811102C06CE001C04F
:1026F0006CE480E00E943D055E9A64E170E080E059
:1027000090E00E94C81C1F3FC9F40E949F0E16C093
:10271000863079F400E010E060E0C8010E942411E6
:102720000F5F1F4F0115F2E01F07B1F70E94DC0D8C
:1027300002C0853019F481E0809309058091EE068E
:10274000863B09F065C08091760481113DC480917B
:102750008204811139C40E94021D60937004709339
:1027600071048093720490937304809174048111B6
:102770000E9428110E94841B813019F1F0F08230F0
:10278000A1F0833009F020C40E94841BE82E0E942F
:10279000841BD82E0E94841B2EE1E29E700111241E
:1027A00005E010E03BEFD30E2AC08091010290912A
:1027B0000202E4E1F2E040E209C081E0809381049A
:1027C00003C41092810480930801FEC39F01245129
:1027D00032402817390708F0F7C34193F7CF0E941A
:1027E000841B8983882309F4EFC31A82B7016C0D17
:1027F000711DCE0101960E941C050F5F1F4FCD2C4D
:10280000C00E8091F00690E08017910744F7DCC37A
:10281000843641F481E0809307050E94841B8093F5
:10282000AC0688C18536E9F50E948F1B9093AB06F4
:102830008093AA060E948F1B9093A9068093A806F6
:102840000E948F1B90936F0480936E040E949D1BC7
:102850006093B6047093B7048093B8049093B9045E
:1028600020918B04022F10E020E030E0DC01CB014E
:1028700080239123A223B32321E0892B8A2B8B2B46
:1028800009F420E0209376040E94841B809395062F
:102890009091740491114EC1809394068093A70681
:1028A00049C1893609F046C10EE011E00E948F1B34
:1028B000F801819391938F01F1E00E311F07B1F779
:1028C0008091100190911101855195408F38914070
:1028D000E8F480910E0190910F01855195408F3859
:1028E0009140A0F48091120190911301855195407F
:1028F0008F38914058F410929F0640929B06509258
:102900009C0660929D0670929E062BC080919F0649
:10291000813039F50E94021D0091970610919806AA
:102920002091990630919A06DC01CB01801B910B16
:10293000A20BB30B00919B0610919C0620919D0663
:1029400030919E06081719072A073B0710F41092CA
:102950009F0680929B0690929C06A0929D06B09244
:102960009E0680919F068111E5C020911001309153
:102970001101809174042B33374060F120911201D2
:10298000309113012B33374028F1209114013091FD
:1029900015012F373440F0F08111BEC080917704CB
:1029A00090917804069708F4B7C08091760481115D
:1029B000B3C0809181048111AFC082E080939F06F3
:1029C00081E0809374048091310180930B010E9417
:1029D000320FA2C0882309F49FC01091690510929C
:1029E000690590917504992361F02091140130914B
:1029F00015012531354028F092E090939F060E9402
:102A0000281190917404992309F451C020910E016A
:102A100030910F012B3387E0380778F081E0809305
:102A20009F06809109018F5F80930901843008F42B
:102A300073C083E0809309016FC02E37344068F47F
:102A400091E090939F068091090181508093090144
:102A5000811162C0909309015FC0209110013091F3
:102A600011012B33F7E03F07A0F091E090939F0610
:102A700080910A01815080930A01811102C09093D4
:102A80000A0180910B01811147C08AE080930A01FD
:102A900043C02E37344058F481E080939F068091E4
:102AA0000A018F5F80930A018B3078F735C020913F
:102AB0007504211131C0992379F1812F16300CF062
:102AC00085E08B3F0CF48BEF2091120130911301C4
:102AD0002E3794E0390738F491E090939F068150A7
:102AE0008093690517C02B333740B0F091E0909385
:102AF0009F068F5F8093690580910B018A3051F4A6
:102B000080910901833031F480910A01853011F4FC
:102B1000109212050E945F1880919F06813051F437
:102B20000E94021D60939706709398068093990601
:102B300090939A068091EE068A3609F056C085E099
:102B400080931C050E94841B882319F081E08093E8
:102B50000E040E94841B809315040E949D1B6093A9
:102B600004047093050480930604909307040E9464
:102B70009D1B609300047093010480930204909362
:102B800003040E948F1BA0E0B0E020917604211185
:102B90000BC08093A3069093A406A093A506B093C0
:102BA000A60621E02093A2064091A3065091A40618
:102BB0006091A5067091A606841B950BA60BB70B1A
:102BC0008093FC039093FD03A093FE03B093FF0357
:102BD0000E948F1B9093FB038093FA030E948F1B2C
:102BE0009093A1068093A006EFC18B3699F40E94C2
:102BF0008F1BA0E0B0E08093080490930904A09399
:102C00000A04B0930B040E948F1B90930D048093D1
:102C10000C04DAC1893759F40E94841B0E94841B7A
:102C20000E94841B0E94841B80930F04CDC18C36AC
:102C3000A9F40E948F1B90936B0480936A040E94F6
:102C40008F1B90936D0480936C040E948F1B843BB8
:102C500091050CF4B5C188569140B2C18D3689F406
:102C60000E949D1B60930E0270930F0280931002CE
:102C7000909311020E948F1B909313028093120273
:102C8000A3C18E36B9F40E94841B809398050E94DC
:102C90008F1B90930902809308020E948F1B9093D0
:102CA0009705809396050E948F1B909395058093BE
:102CB00094058AC18F36A1F50E94841B80939305E9
:102CC0000E94841B809392050E94841B809391052F
:102CD0000E94841B809390050E94841B80938F0523
:102CE0000E94841B80938E050E94841B80938D0517
:102CF0000E94841B80938C050E948F1B90938B05F0
:102D000080938A050E94841B8093890580917904B1
:102D100090917A04A0917B04B0917C049D7F37C090
:102D2000803731F525E7C22E25E0D22E3BE6E32E93
:102D300035E0F32E0FE715E00E94841BF801819324
:102D40008F010E94841BF60181936F010E94841BF6
:102D5000F70181937F012B812013EECF80917904BD
:102D600090917A04A0917B04B0917C049B7F0FC06A
:102D70008B33B1F40E94841B80936A05809179049F
:102D800090917A04A0917B04B0917C04AB7F8093F6
:102D9000790490937A04A0937B04B0937C0414C1CB
:102DA000873709F011C181E0809308051091F00682
:102DB0008BE2EBE8F4E011928A95E9F7C12CD12C73
:102DC0007601C394112309F4FFC00E94841B082ECE
:102DD000000C990BAA0BBB0B8E31910508F0EAC0D1
:102DE000FC01EC5CFF4F0C94502F80918B048C29DC
:102DF00080938B04DFC080918C048C2980938C0499
:102E0000D9C080918D048C2980938D04D3C080918A
:102E10008E048C2980938E04CDC080918F048C29E0
:102E200080938F04C7C080919004909191048C2965
:102E30009D299093910480939004BCC0809192044A
:102E400090919304A0919404B09195048C299D29AC
:102E5000AE29BF298093920490939304A093940485
:102E6000B0939504A7C08091960490919704A09187
:102E70009804B09199048C299D29AE29BF2980938B
:102E8000960490939704A0939804B093990492C0E9
:102E900080919A0490919B04A0919C04B0919D0410
:102EA0008C299D29AE29BF2980939A0490939B0475
:102EB000A0939C04B0939D047DC08091AA0490913E
:102EC000AB04A091AC04B091AD048C299D29AE292E
:102ED000BF298093AA049093AB04A093AC04B09351
:102EE000AD0468C08091A6049091A704A091A804A5
:102EF000B091A9048C299D29AE29BF298093A604ED
:102F00009093A704A093A804B093A90453C0809100
:102F1000AE049091AF04A091B004B091B1048C299B
:102F20009D29AE29BF298093AE049093AF04A0934E
:102F3000B004B093B1043EC08091B2049091B30448
:102F4000A091B404B091B5048C299D29AE29BF2964
:102F50008093B2049093B304A093B404B093B504E7
:102F600029C080919E0490919F04A091A004B091EB
:102F7000A1048C299D29AE29BF2980939E0490939A
:102F80009F04A093A004B093A10414C08091A20454
:102F90009091A304A091A404B091A5048C299D292B
:102FA000AE29BF298093A2049093A304A093A40404
:102FB000B093A504CC0CDD1CEE1CFF1C115002CFFD
:102FC00090931404809313041092F2061092F10669
:102FD00009C091E0910F9093ED06E12FF0E0E250EF
:102FE000FA4F808380E691E00E942010892B51F0F7
:102FF0003110B8C907C080E88093960681E08093BD
:1030000082049CCB0F900F900F90DF91CF911F9176
:103010000F91FF90EF90DF90CF90BF90AF909F9077
:103020008F907F906F905F904F903F902F9008957A
:103030006091010780E691E00C945710CF93C82F60
:10304000682F80E691E00E94571080910107C82701
:10305000C0930107CF910895CF93DF931F92CDB70F
:10306000DEB799830E941E189981892F0F90DF91F6
:10307000CF910C941E18CF93DF93D82FC62F64E204
:1030800080E691E00E9457106DE480E691E00E9496
:1030900057106CE380E691E00E94571010920107F0
:1030A0008C2F0E941E188D2F0E941E18C11104C063
:1030B000DF91CF910C941818DF91CF910895DF9292
:1030C000EF92FF920F931F93CF93DF9380910A01AA
:1030D0008A30C9F4909109019330A9F4909169055F
:1030E00092301CF091E090936905909169059F3FA3
:1030F0001CF49FEF9093690520910B019091690555
:10310000920F90930B0190910B0197FF03C09BE0EE
:1031100090930B0190910B019C3014F010920B01D5
:1031200020910B01213019F5EFEFE80FE73008F09F
:103130004FC2863010F0E1E0E80F90910901923023
:1031400049F0933059F0913009F042C2F0E0E15873
:10315000FA4F07C0F0E0EB58FA4F03C0F0E0E55932
:10316000FA4F308190916905930F908331C22330DB
:1031700009F590910901933009F02AC2813059F084
:10318000823009F025C29091890580916905890FE7
:1031900080938905B1C22091690580918A0590913B
:1031A0008B05820F911D27FD9A9590938B05809337
:1031B0008A05A2C2223009F043C0909109019330E0
:1031C00009F006C2482F50E0FA013197E830F105C6
:1031D00008F0FEC1EE5AFF4F909169050C94502FF4
:1031E00030919305930F90939305F2C1309192051E
:1031F000930F90939205ECC130919105930F9093AA
:103200009105E6C130919005930F90939005E0C130
:1032100030918F05930F90938F05DAC130918E0511
:10322000930F90938E05D4C130918D05930F909399
:103230008D05CEC130918C05930F90938C05C8C13C
:10324000253009F049C090910901933009F0C0C1BF
:10325000482F50E0FA013197E730F10508F0B8C186
:10326000E65AFF4F0C94502F91E03091C204311177
:1032700090E09093C204ACC1309169059091C5046F
:10328000930F9093C504A4C1309169059091C30434
:10329000930F9093C3049CC191E03091CC04311101
:1032A00090E09093CC0494C1309169059091CD0445
:1032B000930F9093CD048CC1309169059091C40413
:1032C000930F9093C40484C191E03091C6043111EE
:1032D00090E09093C6047CC1263009F04DC09091D7
:1032E0000901933009F074C1833039F148F4813019
:1032F000E1F0823009F06CC18FE080931105FCC1D0
:10330000853059F110F1863009F062C120916905CC
:103310008091F9069091FA06820F911D27FD9A95EA
:103320009093FA068093F906E7C181E09091BF047B
:10333000911180E08093BF04DFC181E09091C004CF
:10334000911180E08093C004D7C191E03091C10415
:10335000311190E09093C1043BC1209169058091A7
:10336000FB069091FC06820F911D27FD9A95909384
:10337000FC068093FB06C0C1273009F048C090913D
:103380000901933009F024C1833051F128F48130D0
:10339000B9F08230E9F01CC1843051F1853009F078
:1033A00017C1209169058091F5069091F606820F6C
:1033B000911D27FD9A959093F6068093F5069CC182
:1033C00081E09091C704911180E08093C70494C17B
:1033D00081E09091C904911180E08093C9048CC16F
:1033E00081E09091CA04911180E08093CA0484C165
:1033F000209169058091F7069091F806820F911D42
:1034000027FD9A959093F8068093F70675C12830AA
:1034100009F051C090910901933009F0D9C0482FAB
:1034200050E0FA013197E830F10508F0D1C0EF59CA
:10343000FF4F0C94502F91E03091DB04311190E05C
:103440009093DB04C5C091E03091DC04311190E031
:103450009093DC04BDC091E03091E804311190E01C
:103460009093E804B5C091E03091DA04311190E016
:103470009093DA04ADC091E03091D204311190E024
:103480009093D204A5C091E03091EF04311190E007
:103490009093EF049DC091E03091E904311190E0E8
:1034A0009093E90495C0309169059091DF04930FE2
:1034B0009093DF048DC0293009F03FC0909109013D
:1034C000933009F085C08330E1F028F4813049F071
:1034D000823079F07DC0853001F1D8F0863029F155
:1034E00077C081E09091D804911180E08093D80456
:1034F00003C181E09091E004911180E08093E004A9
:10350000FBC081E09091E704911180E08093E70493
:10351000F3C09AE0909312055BC090916905809189
:10352000F504890F8093F504E7C081E09091CE0403
:10353000911180E08093CE04DFC02A3009F048C0AA
:1035400090910901933009F043C0482F50E0FA01EF
:103550003197E730F105E0F5E759FF4F0C94502F14
:10356000909169058091F904890F8093F904C4C092
:10357000909169058091FA04890F8093FA04BCC088
:10358000909169058091FB04890F8093FB04B4C07E
:10359000909169058091FC04890F8093FC04ACC074
:1035A000909169058091CF04890F8093CF04A4C0C6
:1035B000909169058091D004890F8093D0049CC0BC
:1035C00081E09091CB04911180E08093CB0494C072
:1035D0008A3009F091C02093310180910901813036
:1035E00009F481C0823009F087C0809195068093EC
:1035F00094066EE18AEC0E943B1885E7E82E85E090
:10360000F82E0BE615E0CFE7D5E0DC2E8AE0D80EE9
:1036100089910E941E18F70181917F010E941E1856
:10362000F80181918F010E941E18DC12F1CF0E94D7
:1036300018186BE08CEC0E943B18809193050E9457
:103640001E18809192050E941E18809191050E947B
:103650001E18809190050E941E1880918F050E946F
:103660001E1880918E050E941E1880918D050E9463
:103670001E1880918C050E941E1880918A059091D9
:103680008B050E942C18809189050E941E180E94AB
:1036900018180BEB14E0C0E0D0E0F80161918F0145
:1036A000CE010E9424112196CC34D105B1F703EF4D
:1036B00016E0F8016081CE010E942411F8016181B9
:1036C0000E5F1F4FCE0101960E9424112296CA352B
:1036D000D10579F76DE080E090E00E94241160E070
:1036E0008AEF0E943B18DF91CF911F910F91FF90BD
:1036F000EF90DF900C942811DF91CF911F910F91E3
:10370000FF90EF90DF900895E091FD0581E08E0F2E
:103710008093FD05F0E0E250FA4F80810895CF9349
:10372000DF930E94841BC82FD0E00E94841B9E015F
:10373000382BC901DF91CF910895CF92DF92EF929C
:10374000FF920E948F1B6C01E12CF12C0E948F1BB9
:10375000A0E0B0E0DC0199278827BC01CD016C29ED
:103760007D298E299F29FF90EF90DF90CF900895BB
:103770009C01E62FF0E0E554FB4FE081F0E0EE0F16
:10378000FF1FE05DF84F85919491B9010C941105EC
:10379000CF92DF92EF92FF920F931F93CF93DF931D
:1037A000C42F97FF08C090958095709561957F4FC5
:1037B0008F4F9F4FC22F24E630E040E050E00E9440
:1037C0008E32CA01B90110920D07C0930C07C9E0EF
:1037D0002AE0C22ED12CE12CF12CDEE2C43019F407
:1037E000D0930607C3E0C1500C2F10E00D5F184FB7
:1037F000A70196010E948E32605DF8016083B901D5
:10380000CA01CC2339F0C33048F761157105810531
:10381000910521F780E2CC2339F0C150EC2FF0E084
:10382000ED5FF84F8083F7CF83E097E0DF91CF9192
:103830001F910F91FF90EF90DF90CF900895E7E7F1
:10384000F7E02491E3E6F7E09491EFE4F7E0E49108
:10385000EE2309F43BC0222339F1233091F038F4F0
:103860002130A9F0223001F524B52F7D12C0273078
:1038700091F02830A1F02430B9F4209180002F7D00
:1038800003C0209180002F77209380000DC024B5C5
:103890002F7724BD09C02091B0002F7703C020915D
:1038A000B0002F7D2093B000F0E0EE0FFF1FE25C30
:1038B000F84FA591B4912FB7F894EC91811103C002
:1038C00090959E2301C09E2B9C932FBF0895CF936C
:1038D000DF9390E0FC01E45AF84F2491FC01E85B8F
:1038E000F84F8491882361F190E0880F991FFC01C3
:1038F000EC5CF84FC591D491FC01E25CF84FA591C6
:10390000B491611109C09FB7F894888120958223F2
:103910008883EC912E230BC0623061F49FB7F8943A
:103920003881822F809583238883EC912E2B2C93D2
:103930009FBF06C08FB7F894E8812E2B28838FBFD6
:10394000DF91CF9108953FB7F89480911B07909134
:103950001C07A0911D07B0911E0726B5A89B05C0A6
:103960002F3F19F00196A11DB11D3FBFBA2FA92FFE
:10397000982F8827820F911DA11DB11DBC01CD017B
:1039800042E0660F771F881F991F4A95D1F7089567
:103990008F929F92AF92BF92CF92DF92EF92FF925F
:1039A0006B017C010E94A31C4B015C01C114D1047A
:1039B000E104F104F1F00E94A31CDC01CB018819A1
:1039C0009909AA09BB09883E9340A105B10570F386
:1039D00021E0C21AD108E108F10888EE880E83E0E0
:1039E000981EA11CB11CC114D104E104F10419F703
:1039F000DDCFFF90EF90DF90CF90BF90AF909F9082
:103A00008F9008952FB7F894609117077091180759
:103A10008091190790911A072FBF08951F920F9256
:103A20000FB60F9211242F933F938F939F93AF93D1
:103A3000BF938091170790911807A0911907B09133
:103A40001A073091160723E0230F2D3720F4019633
:103A5000A11DB11D05C026E8230F0296A11DB11DB1
:103A6000209316078093170790931807A0931907C0
:103A7000B0931A0780911B0790911C07A0911D0716
:103A8000B0911E070196A11DB11D80931B07909355
:103A90001C07A0931D07B0931E07BF91AF919F9184
:103AA0008F913F912F910F900FBE0F901F901895FF
:103AB000CF93DF93CDB7DEB728970FB6F894DEBF6C
:103AC0000FBECDBF789484B5826084BD84B581601B
:103AD00084BD85B5826085BD85B5816085BD8091D9
:103AE0006E00816080936E00109281008091810051
:103AF0008260809381008091810081608093810049
:103B0000809180008160809380008091B10084600A
:103B10008093B1008091B00081608093B00080916B
:103B20007A00846080937A0080917A00826080932A
:103B30007A0080917A00816080937A0080917A0087
:103B4000806880937A001092C10084B714BE80917F
:103B5000600088618093600010926000E0917001C5
:103B6000F091710182E08083E0916C01F0916D0130
:103B70001082E0916E01F0916F0190E190831092BC
:103B80007801E0917401F091750186E08083E09105
:103B90007201F0917301808180618083E0917201F4
:103BA000F0917301808188608083E0917201F091CF
:103BB0007301808180688083E0917201F0917301CC
:103BC00080818F7D80838091C00082608093C0005F
:103BD0001092C5009093C40080E691E00E949E1070
:103BE00084B18C6284B92498569A529860E084E13A
:103BF0000E94671C60E081E10E94671C60E084E134
:103C00000E94671C61E087E00E94671C3B98559802
:103C1000F89480916C0083FD0AC0809168008260F6
:103C20008093680080916C00886080936C00809124
:103C30006D0085FD0AC080916800846080936800F3
:103C400080916D00806280936D0078940E94DC0DFD
:103C50000E94F90E64EF71E080E090E00E94C81CC1
:103C60008091E004882311F081E001C083E080931B
:103C700000010E949F0E0E94320F68E6262E332418
:103C800033941092540580911F0590912005019660
:103C90009093200580931F0580910905882361F08A
:103CA00084B7877F84BF80916000886580936000BF
:103CB00081E480936000FFCFE091F504E0932E0152
:103CC0001092BA048091F4048823A1F0F0E0EE0F82
:103CD000FF1FE45FFE4F80819181813426E09207CF
:103CE00010F081E004C089379540E0F082E08093D5
:103CF000BA0418C04091A6045091A7046091A8048A
:103D00007091A9048091B6049091B704A091B80471
:103D1000B091B90484239523A623B723892B8A2B3A
:103D20008B2BF9F61091BA048091530518130E9459
:103D30004B0E1093530510910B05163010F081E0D7
:103D400001C080E00E941F1C0E94021D6B017C01CB
:103D500080914F0590915005A0915105B091520569
:103D6000B701A601481B590B6A0B7B0B4436510562
:103D70006105710508F493C08C599F4FAF4FBF4F39
:103D800080934F0590935005A0935105B093520531
:103D90001F5F10930B0580910C058F5F80930C05BE
:103DA00081E090910E05911180E080930E05809145
:103DB0000E048823A1F180917604882381F160911B
:103DC000FA037091FB036115710549F12091D80444
:103DD00080E090E0222339F00E94813021EB32E034
:103DE00047E55BE306C00E9481302FE632E143E8FD
:103DF0005AE30E9477319B01AC01609129057091D3
:103E00002A0580912B0590912C050E94632F6093C9
:103E1000290570932A0580932B0590932C056091BA
:103E2000290570912A0580912B0590912C050E94FF
:103E300052306093FD017093FE018093FF019093D7
:103E400000028091C9048823D1F02091830430912D
:103E50008404409185045091860460918704709198
:103E600088048091890490918A040E94632F609352
:103E70008704709388048093890490938A048091C6
:103E8000820481110CC080918104811108C080914D
:103E90001D05811104C060E08CE60E943B188091F2
:103EA0004B0590914C05A0914D05B0914E05B70181
:103EB000A601481B590B6A0B7B0B42335105610568
:103EC000710510F40C94F72CC296A11DB11D8093BE
:103ED0004B0590934C05A0934D05B0934E058091F2
:103EE0007D0490917E04A0917F04B0918004892B81
:103EF0008A2B8B2B81F48091790490917A04A09184
:103F00007B04B0917C0480937D0490937E04A09305
:103F10007F04B093800440917D0450917E046091B1
:103F20007F047091800488279927DC01841B950BFE
:103F3000A60BB70B84239523A623B7238C019D01E1
:103F400000951095209530954023512362237323CB
:103F500040937D0450937E0460937F0470938004AB
:103F6000811541E09407A105B10509F451C018F588
:103F700088309105A105B10509F444C060F4813091
:103F80009105A105B105E1F10297A105B10509F07F
:103F900049C085E648C080329105A105B105B1F15F
:103FA00080389105A105B10579F14097A105B105CA
:103FB000C9F58DE638C0811568E09607A105B10501
:103FC00079F168F48115E2E09E07A105B10521F1C0
:103FD00081159440A105B10529F580E724C000971B
:103FE00021E0A207B105B1F0009734E0A307B105C5
:103FF000A9F081159041A105B105A1F48CED13C084
:1040000084E611C089E60FC08AE60DC08BE60BC0BE
:104010008EE609C082E707C08FE605C08BE303C0C8
:1040200087E701C080E090918204911147C0909190
:104030008104911107C090911D05911103C060E0AA
:104040000E943B185E9860E085E00E943D0560E0BC
:1040500086E00E943D0561E084E00E943D050E94EB
:10406000DE0404E112E0812C912C40E2B42E809118
:1040700001029091020288169906B8F450EF851655
:10408000910411F40E94DE04D8016C9187E00E9433
:104090003D0580918104811102C0F801B082FFEFDB
:1040A0008F1A9F0A0F5F1F4FE2CF6FEF87E00E94CA
:1040B0003D0560E084E00E943D055E9A0E94050691
:1040C0008091770490917804059788F50BED11E0C5
:1040D00030E4E32EF12CF80185919491B7010E9410
:1040E00011050E5F1F4F2EE1E20EF11C30E3E316C7
:1040F00031E0F30681F788EF90E00E942605E09119
:104100000A05F0E0EE0FFF1FED52FE4F85919491EE
:1041100066E171E00E9411058091490590914A0580
:10412000CC979093100580930F050C94F72C109169
:104130007604112349F081E0809375048091740422
:10414000813011F40E94281180917504882371F048
:1041500011110CC010920B018AE080930A0181E0DA
:1041600080930901809374040E94320F809174043B
:10417000882321F00E9469080C94F72C8091810417
:10418000882391F18091700490917104A091720440
:10419000B09173048053984FAF4FBF4F8C159D055E
:1041A000AE05BF0588F48091010290910202E4E11E
:1041B000F2E040E29F01245132402817390710F401
:1041C0004193F8CF1092810480910801882311F463
:1041D0000C94F72C61E070E085E591E00E941C05ED
:1041E000109208010C94F72C0E94320F80916E04FB
:1041F00080FF23C2E0906C04F0906D0400916A048B
:1042000010916B0480E580930207C7014AE0E41631
:10421000F10434F06AE070E00E943C2FCB010CC046
:1042200066EF7FEF0E943C2FCB01F7FE05C02DE229
:104230002093030722E001C021E030E0B9016E5F66
:10424000784F4AE00E9443328FE00E94ED038823BA
:1042500049F06091340470913504717082E097E008
:104260000E941C0582E580930207C8010A301105EF
:1042700034F06AE070E00E943C2FCB010CC066EF86
:104280007FEF0E943C2FCB0117FF05C02DE220934A
:10429000030722E001C021E030E0B9016E5F784FF2
:1042A0004AE00E94433280E10E94ED03882349F0F6
:1042B0006091360470913704717082E097E00E943B
:1042C0001C05D090E804D1100AC08091F00481113F
:1042D00006C083E18093020180930101AEC080910A
:1042E0007604811104C01092FB031092FA03A0908F
:1042F000FA03B090FB0380913B0590913C0595013A
:10430000215F3F4F28173907C0F40E94021D6093B8
:104310003705709338058093390590933A0582E00C
:1043200080933605B0923C05A0923B058091020136
:1043300081508031F8F485E11DC00F968A159B05E8
:10434000D8F40E94021D609337057093380580935E
:10435000390590933A0581E080933605B0923C058B
:10436000A0923B05809102018F5F8093020186310C
:1043700018F080E18093020180900E0290900F026D
:10438000A0901002B09011028091320590913305F7
:10439000A0913405B0913505B501A4014C5E5F4F85
:1043A0006F4F7F4F481759076A077B07E4F40E9455
:1043B000021D60932E0570932F0580933005909316
:1043C000310582E080932D0580923205909233056D
:1043D000A0923405B0923505809101018150803161
:1043E00038F585E125C04496A11DB11D88159905B4
:1043F000AA05BB05FCF40E94021D60932E05709374
:104400002F05809330059093310581E080932D0531
:104410008092320590923305A0923405B092350512
:10442000809101018F5F80930101863118F080E156
:1044300080930101DD2009F44CCF40904804509056
:10444000490451E0552269ECE616F10454F478E38E
:10445000E7167FEFF70644F488E3E82EFF24FA948A
:1044600003C098ECE92EF12C013981E018073CF4E7
:1044700000379EEF19072CF400E71EEF02C000E999
:1044800011E0D090DB0489E10E94ED038D2109F455
:104490008FC03701AAE06A0E711C77FE04C0370195
:1044A000B1E16B0E711CE3E075946794EA95E1F756
:1044B0007194619471089090ED0440E0F4E0CF2E87
:1044C000D12CA9E0EA2EF12CBEE18B2EE42FF0E0F6
:1044D000C6018E1B9F0B089F9001099F300D189FEE
:1044E000300D112437FF02C0215C3F4F76E0359537
:1044F00027957A95E1F7260D371D275D3F4F223529
:104500003105F0F5E40DF51DC901B7010E943C2FFE
:10451000869ED001879EB00D1124EA0FFB1FBF01BC
:104520006C577109603E51E0750728F4DB01AC5E01
:10453000BD4F80588C93992019F18EEF840F8530F0
:10454000F8F4CF01865D9109803E61E0960758F44A
:10455000DC01AC5EBD4F5D01C901B7010E943C2F7B
:104560008058D5018C93B297E03EB1E0FB0740F450
:10457000EC5EFD4FC901B7010E943C2F805880833B
:104580004F5F493028F4443009F0A0CF45E09ECF7A
:1045900082E20E94ED0381110BC0F201EC5EFD4F3F
:1045A000DF01119786E28C938CEB81838EE7808309
:1045B0008091DC04882309F440C08AE10E94ED0365
:1045C0008823D9F180915004982F9F7080914E04D8
:1045D0008F70D82E482F41956091020150910101B2
:1045E000E92E990FFF0892012E193F098701040D4A
:1045F000151DEEE14E02C00111248C5E9D4FFC01A1
:10460000E20FF31F6083FC01E00FF11F50834F5F47
:10461000D4167CF7F201EE19FF09EB5EFD4F83E043
:104620008083F201EE0DFF1DED5EFD4F82E0808381
:104630008091F00481110C94D12D8091C2048823C3
:1046400009F45EC01091C30410933E05E091C404C8
:10465000E0933D058091DD0460900A0270900B02AA
:104660008823B9F162E2E69F600111247AE2E79FB4
:10467000F00111246C147D0410F42C2D07C09F014F
:10468000225031096216730608F493010D2C000CB8
:10469000EE08FF08822F90E0A0E0B0E09C01AD01A1
:1046A0002C193D094E095F09A7E0B0E00E94AD3228
:1046B0009F01215031094901A12CB12CA501940180
:1046C0002C193D094E095F090E948E3286E9821B32
:1046D00001C087E980930207012F10E06016710680
:1046E00020F480910D0581110BC085E10E94ED033E
:1046F00081110C94392E0615170510F00C94392EE3
:104700008091CC04882369F1009104021091050284
:104710002091030230E00217130720F480910D0569
:1047200081111FC086E10E94ED038823D1F08FEB39
:104730008093020723E044E063E077E0C8010E9431
:10474000920489EA80930707109208076091420457
:104750007091430471706150710982E097E00E948A
:104760001C058091BF048823B1F100916804109169
:1047700069042091BE0430E02017310724F08091B5
:104780000D05882341F183E10E94ED03882319F18F
:104790008AEB809302074AE063E077E0C8010E9459
:1047A0004332E0E0AE2FB0E0AE5FB84F8C91EF5FE8
:1047B0008111F8CF85E28C93F0E0EE5FF84F108224
:1047C00060913C0470913D0471706150710982E008
:1047D00097E00E941C058091C704882309F45CC0FF
:1047E000C0908304D0908404E0908504F090860407
:1047F00020E030E040E251E4C701B6010E94D92F29
:104800004B015C016091D00470E080E090E00E9478
:1048100083309B01AC01C501B4010E94CF2F87FDFD
:1048200004C080910D058823B9F160910602709152
:10483000070280E090E00E9481309B01AC01C7013B
:10484000B6010E947231181644F4C701B6010E94E5
:104850005230709307026093060287E10E94ED03D5
:104860008823D1F0C701B6010E944B30DC01CB0197
:1048700024E045E062E077E00E9492048AE98093B8
:104880000707109208076091440470914504717005
:1048900082E097E00E941C058091C904882309F4F6
:1048A0004CC060910802709109026115710581F494
:1048B00020E030E044EB53E4609187047091880479
:1048C0008091890490918A040E94D92F0E944B30D4
:1048D0008091CF04A4E68A9FC00111248617970710
:1048E00024F480910D05882341F188E10E94ED03B5
:1048F000882319F184EA8093020720E030E044EB3A
:1049000053E46091870470918804809189049091A8
:104910008A040E94D92F0E944B30DC01CB014AE06F
:1049200063E077E00E94433260914604709147044F
:10493000717082E097E00E941C058091EE0488234C
:1049400009F44CC000913004109131040115B2E01B
:104950001B0708F443C0809176048823F1F020916E
:104960003F0530914005C9016CE370E00E94282F9B
:104970008091FC0490E06817790720F080910D0584
:1049800081112CC02031EEE03E0728F48CE98093A1
:104990000207B90116C081E709C06091490570910D
:1049A0004A056031FEE07F0720F48BE9809302071F
:1049B00008C080E780930207CB016CE370E00E949F
:1049C000282F80E090E020E043E057E00E94FD03C4
:1049D000B801717082E097E00E941C0585E20E9498
:1049E000ED038823A1F1009160041091610411701E
:1049F00060910A0270910B0280E090E00E94813089
:104A00002091830430918404409185045091860460
:104A10000E94773120E030E048EC52E40E94D92F28
:104A20000E945230DC01CB0125E045E063E077E0F5
:104A30000E94920480E28093020787E58093070733
:104A400010920807B80182E097E00E941C058EE0F2
:104A50000E94ED03882309F4ABC08091CB04882326
:104A600009F4A6C080917604811107C08091540595
:104A70008260809354058EE10EC0809103018823EB
:104A800069F090910E05911193C090915405946036
:104A90009093540581508093030105C08091540583
:104AA00081608093540580913E0590E020910A0238
:104AB00030910B028217930728F08091540580648F
:104AC0008093540580916E0483FF1CC0809115046F
:104AD000853028F48091540580628093540580913C
:104AE0001C05811105C08091540580618093540597
:104AF00080911B05811106C0809154058F7C8860D0
:104B00008093540580915505811104C0809154050E
:104B100080935505F09055052F2D2195E22EEF201D
:104B20000E94021D00912505109126052091270560
:104B3000309128050C501E4F2F4F3F4F0617170777
:104B40002807390788F4FF2029F08E2D80958F21C2
:104B5000809355050E94021D6093250570932605DC
:104B6000809327059093280580E090E0E0E02E2DCB
:104B700030E0A901082E02C0559547950A94E2F746
:104B800040FDE82F01968830910599F780915405F2
:104B9000823070F0F0E0EE0FFF1FE551FE4F85917F
:104BA0009491609132047091330471700E941105E8
:104BB0008091DA04882309F48FC08BE00E94ED0312
:104BC000882309F489C080E280930307809114014F
:104BD000909115012091060130910701281739079E
:104BE00020F49093070180930601209104013091F5
:104BF00005018217930720F4909305018093040127
:104C000020910601309107012330384030F022E036
:104C100038E0309307012093060120910401309180
:104C20000501263B334030F426EB33E03093050199
:104C30002093040120917604211109C080E2809321
:104C400004079DE2909305079093060735C02091D5
:104C5000CE04222339F020E044E064E077E00E94B3
:104C600092042CC0C0900401D0900501E12CF12CDD
:104C7000A0E0B0E09C01AD012C193D094E095F098F
:104C8000A4E6B0E00E94AD32209106013091070108
:104C9000890120E030E0A90198012C193D094E0955
:104CA0005F090E948E32DA01C90120E043E064E02E
:104CB00077E00E94920485E28093070788EC809356
:104CC00002071092080760912C0470912D047170F6
:104CD00082E097E00E941C052091490530914A0529
:104CE00080910F0590911005AC01445C5F4F421715
:104CF0005307A0F4805C9F4F8217930720F43093F2
:104D0000100520930F058091E304882339F08091EA
:104D100064049091650491700E94260580916E0450
:104D200082FF59C088E00E94ED038823F9F080914A
:104D3000EC048823D9F08091130490911404880F17
:104D4000991F880F991F83509D4F6AE570E00E945C
:104D50003C2F64507E4F80912604909127049170DF
:104D600049E050E08C5E9D4F0E943A3287E00E94FD
:104D7000ED03882381F18091D604882361F180912D
:104D80001304909114042091D704222381F097FFFB
:104D900002C088599E4F20E043E062E077E00E9425
:104DA00092048DEB80930507109206070BC020E05C
:104DB00044E062E077E00E9492048DEB8093060766
:104DC000109207076091240470912504717082E0AD
:104DD00097E00E941C0580916E0481FFBAC080910B
:104DE000D8048823A1F060910E0270910F02809187
:104DF0001002909111020E9483302EEA31E646E0C3
:104E00005DE30E9477310E944B308B010FC06091AF
:104E10000E0270910F02809110029091110224E60F
:104E200030E040E050E00E948E32890180917604AB
:104E3000882389F08091770490917804069758F040
:104E400080910C0290910D028017910724F4109329
:104E50000D0200930C0289E00E94ED03882369F1A2
:104E60008091EB04882349F14091FA04442371F0C6
:104E7000C8016AE070E00E943C2F842F90E0681720
:104E8000790724F080910D05811117C04AE063E095
:104E900077E0C8010E944332E091D804F0E0E85C7A
:104EA000FE4F80818093020760912804709129044D
:104EB000717082E097E00E941C058AE00E94ED0379
:104EC000882309F446C08091EA04882309F441C08C
:104ED00080912A0490912B0491708C010C5E1D4FDF
:104EE000F8017E978FE78083D8018C935E968C9330
:104EF00020911202309113022937310534F42838F9
:104F0000BFEF3B071CF428E801C028E7822F220FDF
:104F1000990BAA0BBB0B9C01AD0128573109410924
:104F20005109A1E1B0E00E94AD3220E13FEF4FEF27
:104F30005FEF0E948E32822F66E00E941A2F81500E
:104F4000F8012EE18202E00DF11D11248FE8891B8A
:104F5000808380916E0483FF73C38091D104882382
:104F600009F46EC310911504153020F480910D05DD
:104F700081111BC080E00E94ED038823B1F08EE117
:104F8000809302078FE1809303074AE064E077E0B3
:104F9000812F90E00E9443326091160470911704B3
:104FA000717082E097E00E941C0580910E048823B6
:104FB00009F46AC081E00E94ED038823C9F1809161
:104FC000080490910904A0910A04B0910B0403977E
:104FD000A105B10520F480910D05811129C0209112
:104FE00018043091190431708091130490911404C5
:104FF000845E9D4F40910C0450910D04841B950BD1
:10500000880F991F880F991F8D966AE570E00E949E
:105010003C2FCB0160E170E00E943C2F805A8093CE
:10502000020710920307B90182E097E00E941C0575
:105030008091D804882309F435C6609108047091E2
:10504000090480910A0490910B040E94813021EAA6
:1050500038EF41E550E40E9477310E9452306B01F5
:105060007C018091F4039091F503A091F603B09137
:10507000F7038C159D05AE05BF0508F41CC682E03C
:105080000E94ED0381112BC680910E04882309F440
:1050900052C084E00E94ED038823E1F08091D504A2
:1050A0008823C1F020E043E062E077E080910C04C7
:1050B00090910D040E9492048DEB8093050710924D
:1050C000060760911E0470911F04717082E097E0E2
:1050D0000E941C0580917604811104C01092FB038C
:1050E0001092FA031091D8046091FA037091FB03B7
:1050F00080E090E0111124C60E9481302CEB34E74F
:1051000043E15DE30E9477310E9452307B01809140
:10511000F8039091F9039C012C5E3F4F2E153F053B
:1051200008F015C63093F9032093F80383E00E943A
:10513000ED03811115C680910E04882309F4C2C0C5
:105140008091D404882309F457C085E00E94ED03C0
:10515000882309F451C08091D8048823A9F0609174
:10516000FC037091FD038091FE039091FF030E9468
:10517000833021EA38EF41E550E40E9477310E9404
:105180004B306B017C0108C0C090FC03D090FD0344
:10519000E090FE03F090FF031091FA041123A9F0B0
:1051A000C701B6012AE030E040E050E00E948E32B4
:1051B000812F90E0A0E0B0E0281739074A075B078D
:1051C00024F080910D05811117C04AE063E077E07B
:1051D000C6010E944332E091D804F0E0E85CFE4F43
:1051E0008081809302076091200470912104717086
:1051F00082E097E00E941C0581E10E94ED03882374
:1052000009F460C08091B6049091B704A091B804ED
:10521000B091B904009192041091930420919404E8
:105220003091950441E050E060E070E00097A10506
:10523000B10519F040E050E0BA0140235123622348
:105240007323452B462B472BE9F580239123A2237B
:10525000B3232091D204822B892B8A2B8B2B91F1A3
:10526000009138041091390411708AEC8093020780
:1052700060910404709105048091060490910704E4
:1052800023E54EE40E94C81BB80182E097E00E942B
:105290001C0500913A0410913B0411708BEC809333
:1052A00002076091000470910104809102049091C2
:1052B000030427E545E40E94C81BB80182E097E09B
:1052C0000E941C053091DF043983323079F040F4BC
:1052D000313009F0B5C1A1E0B0E0BD83AC8310C0AE
:1052E0004981433049F0443009F0AAC162E070E0DE
:1052F0007D836C8311E005C082E090E09D838C8308
:1053000010E080910E04882309F49AC182E20E9481
:10531000ED03882309F494C11F8318861A823F8104
:10532000832F90E04C815D81841795070CF088C134
:1053300080910C0490910D04BF81B13061F42091F3
:10534000410530914205821B930B845E9D4FB10154
:105350000E94282F0BC088599E4F20911304309132
:105360001404821B930BB1010E943C2F9C016AE53F
:1053700070E00E943C2F61307105B9F03CF4672B5E
:1053800021F5EFEFE887F1E0FA831FC06230710585
:10539000B1F063307105C9F4D101A21BB30B9D01BB
:1053A000BFEFB887EFEFEA8310C044EB50E0421B39
:1053B000530B9A0151E0588761E06A8306C0245B71
:1053C000310971E078878FEF8A83B901330F880B39
:1053D000990B0E9483302BED3FE049E450E40E949A
:1053E000773120E030E044E353E40E94D92F2B01D1
:1053F0003C01609108047091090480910A04909125
:105400000B040E9481304B015C01C301B2010E9478
:10541000E4319B01AC01C501B4010E9477310E94C7
:1054200052306B017C01C301B2010E94D42F9B0159
:10543000AC01C501B4010E9477310E9452304B018A
:105440005C01C616D70610F4CB0101C0C601A0E06E
:10545000B0E084369105A105B10590F0843FF1E0FC
:105460009F07A105B10508F49EC4843C29E092077A
:10547000A105B10508F49CC49C0144E24B8308C01B
:1054800051E25B8324E630E04497A105B105A0F129
:105490002901330F66087708C601A0E0B0E0BC011F
:1054A000CD0124E0660F771F881F991F2A95D1F739
:1054B000A30192010E948E326A81862F660F990B9A
:1054C000829F8001839F100D929F100D11249401E3
:1054D000AFE0B0E00E94DA32A30192010E948E3266
:1054E0007885872F770F990B829FF001839FF00DAE
:1054F000929FF00D112404C0E0E0F0E000E010E025
:10550000C0905C04D0905D0481E0D8227801D8017D
:1055100011965D0117FD7D01F594E794EC0CFD1CDF
:10552000CF0163E070E00E943C2FBEE1B69FC00156
:10553000B79F900D1124E80EF91E2F81213011F034
:1055400025E001C024E0C80117FF04C0882799277F
:10555000801B910B482F417847FF03C041504E6F8D
:105560004F5F342FCF01F7FF04C0882799278E1B88
:105570009F0B63E00E941A2F5885513019F482E086
:10558000891B982F6A816F3F11F431E0341B3296EA
:10559000359718F491E07885971B83E0A816B1043D
:1055A00028F431E00F3F1F4F09F430E0BF81BB23E7
:1055B00011F010ED01C016EDE981E43031F0632FF8
:1055C000660F360F390F130F15C080911304909199
:1055D00014044091410550914205841B950B8A515A
:1055E0009D4FB1010E94282F6DE270E00E94282F8C
:1055F00012E7160FFB81F0930207109203076091E8
:105600005A0470915B04717082E097E02E830E94CF
:105610001C051093020710920307B70182E097E080
:105620000E941C052E812093020710920307B601E9
:1056300082E097E00E941C052F812F5F2F836FCEA1
:1056400080911B05882309F4D2C1C090B604D09084
:10565000B704E090B804F090B90480919004909160
:105660009104A0E0B0E08C219D21AE21BF21892BC7
:105670008A2B8B2BD1F08091E9048823B1F0109212
:10568000040786E18093020787E1809303078EE198
:105690000E94ED03882349F06091520470915304F5
:1056A000717082E097E00E941C058091EF048823CE
:1056B00009F45AC080918C0490E0A0E0B0E08C2105
:1056C0009D21AE21BF21892B8A2B8B2B69F48091E0
:1056D0008D0490E0A0E0B0E08C219D21AE21BF219F
:1056E000892B8A2B8B2B29F080EA80930207E1E03B
:1056F00001C0E0E080918E0490E0A0E0B0E08C2159
:105700009D21AE21BF21892B8A2B8B2B39F0AE2F07
:10571000B0E0AE5FB84F82EA8C93EF5F80918F0468
:1057200090E0A0E0B0E08C219D21AE21BF21892B2B
:105730008A2B8B2B39F0AE2FB0E0AE5FB84F81EAE9
:105740008C93EF5FF0E0EE5FF84F108286E00E94EE
:10575000ED03882349F06091220470912304717055
:1057600082E097E00E941C0580919A0490919B042E
:10577000A0919C04B0919D048C219D21AE21BF215C
:10578000892B8A2B8B2B39F0109204078AEA80939D
:1057900002078BEA9BC08091920490919304A091A0
:1057A0009404B09195048C219D21AE21BF21892BB9
:1057B0008A2B8B2B49F08DE9809302078EE9809329
:1057C00003071092040784C0809196049091970477
:1057D000A0919804B09199048C219D21AE21BF2104
:1057E000892B8A2B8B2B39F0109204078DEC809338
:1057F00002078EEC6BC08091AE049091AF04A09133
:10580000B004B091B1048C219D21AE21BF21892B20
:105810008A2B8B2B79F080910F044AE064E077E0CB
:1058200090E00E9443321092060785EB80930207B6
:1058300086EB4CC080918E0490E0A0E0B0E08C211B
:105840009D21AE21BF21892B8A2B8B2B69F680915C
:105850008C0490E0A0E0B0E08C219D21AE21BF211E
:10586000892B8A2B8B2B39F0109204078CEA8093BA
:1058700002078DEA2BC080918D0490E0A0E0B0E09B
:105880008C219D21AE21BF2110920407892B8A2BE8
:105890008B2B29F084EC8093020785EC17C08EEAED
:1058A000809302078FEA809303078091A20490916E
:1058B000A304A091A404B091A504C822D922EA228D
:1058C000FB22CD28CE28CF2819F089E88093030742
:1058D0008091E2048823B1F181E20E94ED038823E4
:1058E00089F100915804109159041170B80182E0B7
:1058F00097E00E941C0540919E0450919F04609186
:10590000A0047091A1048091B6049091B704A09175
:10591000B804B091B90484239523A623B723892B17
:105920008A2B8B2B79F08AEE809302078BEE809383
:10593000030710920407B8016E5F7F4F82E097E083
:105940000E941C0580910D05811151C084E20E94C6
:10595000ED03882309F44BC04091B6045091B7047D
:105960006091B8047091B90480919204909193046D
:10597000A0919404B091950484239523A623B72382
:10598000892B8A2B8B2B11F580919604909197048B
:10599000A0919804B091990484239523A623B7235A
:1059A000892B8A2B8B2BA1F48091AE049091AF04AC
:1059B000A091B004B091B10484239523A623B7230A
:1059C000892B8A2B8B2B99F0E3E003C0E1E001C027
:1059D000E2E0F0E0EE0FFF1FEA5EFD4F859194914B
:1059E00060915E0470915F0471700E941105809156
:1059F0000C05853048F010920C0581E090910D0562
:105A0000911180E080930D050E94021D0091170501
:105A1000109118052091190530911A0508511C4F55
:105A20002F4F3F4F061717072807390708F0B2C056
:105A300000931705109318052093190530931A0544
:105A400010920B0580911F059091200590934805B9
:105A5000809347051092200510921F058091210523
:105A6000909122059093460580934505109222055A
:105A7000109221058091230590912405909344056F
:105A800080934305109224051092230580914905C7
:105A900090914A05019690934A058093490580911B
:105AA0008204811117C05E9880EA0E9437058FEF4B
:105AB0000E943705837090911004981719F00E9486
:105AC0009F0E08C080E80E9437058FEF0E943705BF
:105AD00083FFF5CF80911C05811103C0109215043E
