:100000000C94C3030C9405050C94EB030C94EB03C4
:100010000C944C050C94EB030C94EB030C94EB0345
:100020000C94EB030C94EB030C94EB030C94EB0398
:100030000C94EB030C94EB030C94EB030C94EB0388
:100040000C94D41C0C94EB030C94B8100C949210E8
:100050000C94EB030C94EB030C94EB030C94EB0368
:100060000C94EB030C94EB03BB16C116C716CD160C
:10007000A017D316A017A017D916A017E416F916C3
:100080000E17A017A017A0172317A017A01738172F
:100090004D176217A017A017A017A017A017A01739
:1000A00077178C17B618BC18C218C818CE18D418F1
:1000B000DA18E018FA1802190A1912191A1922196D
:1000C0002A19E119E919F119F919011A091A111A6C
:1000D000191A761A7E1A861A8E1A961A9E1AA61A55
:1000E00005A84CCDB2D44EB93836A9020C50B991FE
:1000F0008688083CA6AAAA2ABE000000803F4E4F70
:10010000542044455445435445442D50414C004EE1
:100110004F542044455445435445442D4E54534375
:10012000004155544F2D50414C004155544F2D4ED8
:100130005453430053493A0049443A0020202020B8
:100140002B50495443482046554C4C002020202039
:100150002B594157205249474854004D454E553A76
:1001600054485254204D4944444C4500004D572DAD
:100170004F5344202D2052312E372E31004445421A
:100180005547004C4F5720564F4C5453004C4F5737
:10019000205341545300204E4F20475053004E4FA0
:1001A0002044415441002041524D454400444953AC
:1001B00041524D454400204D495353494F4E004153
:1001C00055544F20484F4C44004155544F205254F1
:1001D0004800002A0121010F01FE006D016C015B46
:1001E000014C013C016C0138013401D201AD01A682
:1001F000019E0196018D0183017D011D1A1D1C1DAB
:10020000191D1C1D1B1D1C1D181D1C1D1A1D1C1D30
:10021000191D1C1D1B1DD201C901BF01B6014633AA
:1002200020434F4E54524F4C4C455253204F4E4C4E
:1002300059002000202020202B50495443482046BC
:10024000554C4C00202020202B594157204C45462E
:100250005400545820203A54485254204D494444A4
:100260004C45004C4F4F5054494D45005049442097
:10027000434F4E54524F4C4C45520050524F4649FA
:100280004C45005445585420414C41524D53004177
:100290004D5053004D414820583130300054494DA5
:1002A000455200535045454400414C54495455442F
:1002B00045205831300044495354414E434520585D
:1002C000313030005448524F54544C452050574D13
:1002D000004F5344205458204348004D4147204389
:1002E000414C004445425547005620524546005572
:1002F0004E495453004D4150204D4F44450047490D
:100300004D42414C0053454E534F525300475053BA
:1003100020434F4F524453005448524F54544C457D
:10032000005343524F4C4C494E47204241525300D8
:1003300053494445204241525300484F52495A4F75
:100340004E0041444A555354205A45524F004144AF
:100350004A55535420414D5053005553452056495A
:10036000525455414C2053454E534F52004449532B
:10037000504C4159204D414800444953504C41593B
:1003800020414D5053005345542052535349204D62
:10039000494E005345542052535349204D41580073
:1003A0005553452050574D005345542052535349FF
:1003B00000444953504C415920525353490055531E
:1003C000452046430043454C4C5300444953504C50
:1003D00041592056494420564F4C5453004D4149F1
:1003E0004E20564F4C545320414C41524D004144F5
:1003F0004A55535420564F4C545300444953504C83
:100400004159204D41494E20564F4C5453005448B9
:10041000524F54544C45204558504F005448524F69
:1004200054544C45204D49440054504100594157C3
:1004300020524154450050495443482052415445AC
:1004400000524F4C4C2052415445005243204558D5
:10045000504F0052432052415445005941572052B9
:1004600043204558504F0054504120425245414B83
:10047000504F494E54004D4147004C4556454C00A5
:1004800047505300414C5400594157005049544380
:100490004800524F4C4C004D415820414D505300A4
:1004A0004D41482055534544004D41582053504537
:1004B0004544004D415820414C5449545544450051
:1004C0004D41582044495354414E434500544F54E4
:1004D0002044495354414E434500464C5920544909
:1004E0004D4500414456414E43452054554E494EDA
:1004F0004700414C41524D5300414456414E434503
:100500004400444953504C41590043555252454EC2
:1005100054005253534900564F4C544147450041F3
:10052000434345535320414C4C2053455454494E6A
:1005300047530052432054554E494E4720320052F3
:10054000432054554E494E470050494420434F4E96
:10055000464947005354415449535449435300209A
:10056000007BC12A00210090005400240072002763
:10057000003500CB0060017EC17EC137C110011D76
:100580000102000F004C01F2006BC12FC175017F09
:1005900001C200BB00BB00030007007A0055010642
:1005A000015C003400C50064005701BA001801DC8A
:1005B000C020C034C036C0B7C090C054C024C07280
:1005C000C028C0CBC0CAC060C17EC17EC137C110C7
:1005D000011D0102C00FC04DC1F3C06BC12FC1711D
:1005E000C178C1C2C0BBC0BBC0030007007AC05500
:1005F000C106C15CC03400C30064C05301BA001816
:10060000C1DCC000000000960000000004F40158A6
:10061000020D00003C000000018A04C80000000038
:10062000000100C800326401010100000001000067
:1006300000010100000100000100000000000101B4
:10064000010101000101000400000005000100009B
:1006500000001E4D574F53440020202020520244DA
:1006600002340232021E027B026C026302B602A94D
:1006700002A3029D0294028F028302312E315600A2
:10068000355600494D50004D455400EF02E902E354
:1006900002DB02D102C4023A033003210318030D26
:1006A000030503FE02F50279036D035A034E03426C
:1006B00003B103A803BE03A00393038603FB03EE69
:1006C00003DD03CB03EE03C503BE0353044B044118
:1006D0000436042D0429041C040E0467045B0492F0
:1006E000048C048804840480047A047604DA04CD3B
:1006F00004C004B304A904A00497043C5041474536
:100700003E00534156452B455849540045584954DD
:1007100000540549053F0533051F05170512050A55
:10072000050205F904F204E3044F4E004F4646006B
:100730002C07290700000000240027002A000000E1
:100740000000250028002B00040404040404040411
:10075000020202020202030303030303010204086C
:10076000102040800102040810200102040810201B
:100770000000000800020100000304070000000060
:1007800000000000942E11241FBECFEFD8E0DEBF82
:10079000CDBF27E0AEE5B1E001C01D92A731B207A1
:1007A000E1F711E0A0E0B1E0E4E4F5E602C0059075
:1007B0000D92AE35B107D9F713E0C3ECD3E004C016
:1007C0002197FE010E94072FC23CD107C9F70E9462
:1007D0001E1D0C94A0320C940000E82FF0E0EE0FE8
:1007E000FF1FEC5EFB4F208131812227307C81E0AE
:1007F0002115304C09F080E008953F924F925F92AE
:100800006F927F928F929F92AF92BF92CF92DF9220
:10081000EF92FF920F931F93CF93DF938A01D22F12
:10082000222311F0C8E001C0C5E0F801EC0FF11D72
:100830001082DC2ECD2E3AE0432E512C612C712CEF
:1008400046E0842E912CA12CB12C5AE3352E2FEFAB
:100850002D0D7801E20EF11C27FDFA94A3019201FF
:100860000E946F3280E3860FF70180838EEF8D0D3B
:100870007801E80EF11C87FDFA94CA01B901A501BF
:1008800094010E946F32605DF7016083B901CA0173
:10089000FDEFDF0EF801ED0DF11DD7FCFA9530826A
:1008A000CA942FEFC212D3CF2D2F220FD20FCD1B00
:1008B000C3502AE0822E912CA12CB12CC15078017A
:1008C000EC0EF11CC7FDFA94A50194010E946F3251
:1008D000605DF7016083B901CA0161157105810589
:1008E000910511F0C111EACF80E2CC2341F0C15053
:1008F000F801EC0FF11DC7FDFA958083F6CFC80112
:10090000DF91CF911F910F91FF90EF90DF90CF90EB
:10091000BF90AF909F908F907F906F905F904F901F
:100920003F900895EF92FF920F931F93CF93DF9321
:10093000FB0197FF05C0919581959109C1E001C028
:10094000C0E0DF01A40FB11D1C92DEE20AE010E05E
:10095000421306C04150DF01A40FB11DDC9320E01B
:100960003FEF340F7F01E30EF11CB8010E94F32E1C
:10097000805DD7018C93CB01332379F0222311F0D2
:10098000432FE6CF0097E1F7CC2339F03EEF340F49
:10099000DF01A30FB11D8DE28C9380E2332331F090
:1009A0003150DF01A30FB11D8C93F8CFCF01DF9140
:1009B000CF911F910F91FF90EF900895CF92DF920A
:1009C000EF92FF920E94C81C6B017C0128E2C20ECC
:1009D000D11CE11CF11C81E080935F0580915F05D3
:1009E000882371F00E94C81CC616D706E806F906CF
:1009F00018F410925F05F2CF80E00E944011EECF14
:100A0000FF90EF90DF90CF9008951F920F920FB656
:100A10000F92112410925F050F900FBE0F901F9040
:100A20001895DB01AE5EBD4FFC0124910196222397
:100A300011F02D93F9CF0895DC01FB01EE5EFD4F1F
:100A40009D91992311F09193FBCF0895ABEFB4E002
:100A5000EAEFF6E02AE02E0F3D9131932E13FCCF02
:100A600010920407BC018AEF96E00C941C058EBD21
:100A70000DB407FEFDCF8EB50895CF93DF931F927F
:100A8000CDB7DEB769830E9437056981862F0F9045
:100A9000DF91CF910C9437051F920F920FB60F92F2
:100AA00011242F933F934F935F936F937F938F9373
:100AB0009F93AF93BF93CF93EF93FF93C6B1789477
:100AC0000E94691C20915D0530915E05AB01421BBF
:100AD000530B9A01293B3B4018F021E020932F0152
:100AE00070935E0560935D05C3FD1AC020915B05A0
:100AF00030915C05621B730BCB018F5E92408B3D86
:100B0000954020F470935A056093590580912F0108
:100B10008F5F80932F01709358056093570504C031
:100B200070935C0560935B05FF91EF91CF91BF914E
:100B3000AF919F918F917F916F915F914F913F9175
:100B40002F910F900FBE0F901F9018954F925F92AC
:100B50006F927F928F929F92AF92BF92FF920F936C
:100B60001F93CF93DF93CFE3D1E0A1E9B5E040E05D
:100B700050E06AE089918E3008F08E5087702091A5
:100B8000000190E4299F90011124822B80937C0026
:100B900080917A00806480937A0080917A0086FD4B
:100BA000FCCF809178002091790090E0922BF0901A
:100BB00056054115510541F42091C404222339F111
:100BC0008091900590E023C0443009F52091BF0446
:100BD0002223A9F08091590590915A059595879502
:100BE000009769F4649FF001659FF00D1124EF0DEB
:100BF000F11DEE0FFF1FEF56FA4F8081918120917A
:100C0000BE04222321F080918E0590918F05649F70
:100C1000F001659FF00D1124EF0DF11DEE0FFF1F88
:100C2000EF56FA4F50962D913C91519700811181CA
:100C3000201B310B51963C932E935097208131818C
:100C4000820F931F969587959183808350962D915F
:100C50003C915197820F931F51969C938E9350977E
:100C60004F5F5F4F54964530510509F083CF809117
:100C7000C4046091A1057091A205D091DE04811198
:100C800034C080E090E0C091C304D11115C00E942F
:100C900038304B015C016C2F70E080E090E00E94E6
:100CA0003A309B01AC01C501B4010E942E3127E10D
:100CB00037EB41ED58E314C00E9438304B015C0122
:100CC0006C2F70E080E090E00E943A309B01AC0114
:100CD000C501B4010E942E312FE632E143E05AE310
:100CE0000E942E310E94093005C053E0759567952A
:100CF0005A95E1F770930902609308028091BB0452
:100D0000809301026091B5057091B60580E090E096
:100D1000C091CB04D11115C00E9438304B015C0149
:100D20006C2F70E080E090E00E943A309B01AC01B3
:100D3000C501B4010E942E3127E137EB41ED58E3A4
:100D400014C00E9438304B015C016C2F70E080E0D1
:100D500090E00E943A309B01AC01C501B4010E94B1
:100D60002E312FE632E143E05AE30E942E310E94F9
:100D7000093070930302609302028091C6048111CE
:100D8000C4C08091C804C091ED06D091EE060091D8
:100D9000EF061091F006811144C04E01A12CB12C38
:100DA0002091C9053091CA0543E0359527954A95AC
:100DB000E1F7C901330FAA0BBB0B9C01AD01281948
:100DC00039094A095B09D8010E94643200E014E045
:100DD00020E030E0A9019801281939094A095B0986
:100DE0000E944532CA01B9010E943A304B015C01B0
:100DF00020E030E0A9010E94862F87FD09C0809283
:100E0000810490928204A0928304B092840498C0DA
:100E10001092810410928204109283041092840430
:100E20008FC080911401909115016091040170911F
:100E300005018617970740F0609106017091070140
:100E40008617970708F4BC01CB01A0E0B0E0BC0115
:100E5000CD01685E734081099109623F23E072070A
:100E60008105910548F42AE030E040E050E00E941E
:100E70006F3249015A0105C094E6892E912CA12CAC
:100E8000B12CC501B4010E9438302B013C01A501F1
:100E90009401C501B4010E94C12E0E9438302AE09D
:100EA00037ED43EA5CE30E942E319B01AC01C301A4
:100EB000B2010E941A2F4B015C01B80180E090E062
:100EC0000E9438309B01AC01C501B4010E942E3153
:100ED0002AE037ED43E25CE30E942E314B015C01D6
:100EE00080917404BE01882359F080E090E00E9454
:100EF00038309B01AC01C501B4010E941A2F18C003
:100F000080E090E00E94383013C080918C05909171
:100F10008D0597FF02C0059701C005966AE070E055
:100F20000E94F32E072E000C880B990B0E943A307A
:100F3000609381047093820480938304909384046B
:100F40008091BD04882309F44EC02091F1053091B1
:100F5000F20583E0359527958A95E1F78091720433
:100F6000882389F080910F058F3029F43093F4069F
:100F70002093F30608C0813031F43093F2062093B9
:100F8000F10610920F058090F1069090F206A12CC8
:100F9000B12CC901330FAA0BBB0B9C01AD01281961
:100FA00039094A095B09A4E6B0E00E946432209145
:100FB000F3063091F406890120E030E0A9019801A0
:100FC000281939094A095B090E944532253631053D
:100FD00014F024E630E037FF02C020E030E0309328
:100FE00067042093660481E08F0D883018F48093A5
:100FF000560502C010925605DF91CF911F910F91B7
:10100000FF90BF90AF909F908F907F906F905F9078
:101010004F900895CF92DF92EF92FF920F931F931C
:10102000CF93DF93CDB7DEB7E0970FB6F894DEBF6E
:101030000FBECDBFE0910B01EE0FFF0BEF5EF84F3F
:101040008591949163E270E00E9411056BE671E076
:101050008CE097E00E9411058091730481110CC00F
:1010600061E771E082E097E00E9411056BE771E0B3
:101070008BEF96E00E94110580910B0181118AC0CF
:101080008091FB019091FC01A091FD01B091FE01C6
:101090008D839E83AF83B8878091F2039091F30391
:1010A000A091F403B091F50389879A87AB87BC8739
:1010B00080910A0290910B02092E000CAA0BBB0B27
:1010C0008D879E87AF87B88B8091F6039091F70349
:1010D000A0E0B0E0898B9A8BAB8BBC8B20E030E03A
:1010E00044EB53E4609185047091860480918704F9
:1010F000909188040E94902F0E9409306D8B7E8B06
:101100008F8B988F80910402909105026AE070E0C5
:101110000E94DF2ECB01A0E0B0E0898F9A8FAB8FC9
:10112000BC8FFDEEEF2EF6E0FF2ECE0101966C0196
:101130000DE510E0F70185919491B8010E94110529
:10114000F60181919191A191B1916F014AE06AEF0D
:1011500076E00E94FA31B8016F5E7F4F0E941C0555
:10116000F2E0EF0EF11C025E1F4F0F3281E0180714
:1011700009F760910F047091100480E090E021E085
:101180004AEF56E00E94FD036DE670E08AEF96E0BC
:101190000E941C0580910B01813009F06AC0EFEDBF
:1011A000EE2EE6E0FE2E0DE510E0F701859194911C
:1011B000B8010E94110592E0E90EF11C025E1F4F7A
:1011C0000F32E1E01E0789F700E0053019F0073023
:1011D00028F001C007E0D02E025001C0D02EFEE161
:1011E0000F9F80011124ED2CF12CF701E958FA4FE3
:1011F00080814AE06AEF76E090E00E94FA31B8011F
:101200006B597F4F0E941C05F701E359FA4F80810B
:101210004AE06AEF76E090E00E94FA31B801655941
:101220007F4F0E941C05F701ED59FA4F80814AE07B
:101230006AEF76E090E00E94FA31B8016F587F4F74
:101240000E941C0501E00D0D093008F4BECF67E4D3
:1012500070E086E591E00E941C056DE470E088E591
:1012600091E00E941C0563E570E08AE591E00E9430
:101270001C0580910B01833079F5E0908205F09098
:101280008305FE8EED8E0091810510E018A30F8F6F
:10129000EBEDF6E0859194916DE570E00E9411050B
:1012A0004AE06AEF76E0C7010E94FA3161E770E038
:1012B0000E941C05EDEDF6E0859194916BE770E0DE
:1012C0000E9411054AE06AEF76E0C8010E94FA31F7
:1012D0006FE870E00E941C0580910B018230E9F1FB
:1012E00080910B01853009F0E2C00E94A60587E9D4
:1012F0008093FA0623E044E06BEF76E080910802E9
:10130000909109020E94920419EA1093FF0610922C
:10131000000764E370E08AEF96E00E941C058FEB03
:101320008093FA0623E044E06BEF76E080910202BE
:10133000909103020E9492041093FF0610920007FE
:101340006CE270E08AEF96E00E941C056DEBE62EE1
:1013500066E0F62E0DE510E050C080918B0590E020
:101360009E8F8D8F80918A0590E098A38F8F8091BA
:10137000890590E09AA389A38091880590E09CA3B9
:101380008BA38091870590E09EA38DA38091860515
:1013900090E098A78FA38091850590E09AA789A7F0
:1013A0008091840590E09CA78BA77BECE72E76E0EC
:1013B000F72E6E018DE1C80ED11C0DE510E0F7018E
:1013C00085919491B8010E9411054AE06AEF76E098
:1013D000F601819191916F010E94FA31B8016C5E22
:1013E0007F4F0E941C05F2E0EF0EF11C025E1F4FC2
:1013F0000D3481E0180719F773CFF70185919491A7
:10140000B8010E94110592E0E90EF11C025E1F4F27
:101410000F32E1E01E0789F78091CA044AE06AEFC3
:1014200076E090E00E94FA316BEC70E00E941C05BF
:1014300067E081E790E00E947E1B8091C3044AE050
:101440006AEF76E090E00E94FA316FE870E00E9467
:101450001C058091C1044AE06AEF76E090E00E94AA
:10146000FA316DEA70E00E941C0561E18BEC90E0BE
:101470000E947E1B8091CB044AE06AEF76E090E008
:101480000E94FA3169EE70E00E941C058091C2044E
:101490004AE06AEF76E090E00E94FA3167E071E09E
:1014A0000E941C056BE085E291E00E947E1B80910A
:1014B0000B01863009F06FC04AE06AEF76E0809158
:1014C0006604909167040E94FA31E0E0AE2FB0E02C
:1014D000A650B94F8C91EF5F8111F8CF85E28C93C4
:1014E000F0E0E650F94F108265E370E08AEF96E095
:1014F0000E941C0551EBE52E56E0F52E0DE510E09F
:10150000F70185919491B8010E941105F2E0EF0E68
:10151000F11C025E1F4F013181E0180789F764E07A
:1015200081E790E00E947E1B80910F05882349F09F
:101530004AE06AEF76E090E00E94FA316FE870E0EE
:1015400004C06FE870E08CE591E00E941C0565E046
:101550008DEA90E00E947E1B66E08BEC90E00E949A
:101560007E1B4AE06AEF76E08091F3069091F406E4
:101570000E94FA3169EE70E00E941C054AE06AEFB1
:1015800076E08091F1069091F2060E94FA3167E0D0
:1015900071E00E941C0580910B01873009F05AC050
:1015A00060918104709182048091830490918404FD
:1015B0000E940230DC01CB0123E044E06AEF76E0D8
:1015C0000E9492048AE98093FE061092FF0664E36B
:1015D00070E08AEF96E00E941C0547EAE42E46E0A0
:1015E000F42E0DE510E0F70185919491B8010E9469
:1015F000110592E0E90EF11C025E1F4F033F110539
:1016000091F76CE081E790E00E947E1B6EE08FE82E
:1016100090E00E947E1B6FE08DEA90E00E947E1BAE
:101620004AE06AEF76E08091EF069091F0060E9422
:10163000FA316BEC70E00E941C054AE06AEF76E03C
:101640008091ED069091EE060E94FA3169EE70E00D
:101650000E941C0580910B01883009F044C037E9D5
:10166000E32E36E0F32E0DE510E0F701859194911D
:10167000B8010E941105E2E0EE0EF11C025E1F4F60
:101680000D34F1E01F0789F760E281E790E00E94E6
:101690007E1B61E28FE890E00E947E1B6DE28DEA86
:1016A00090E00E947E1B6FE18BEC90E00E947E1B1D
:1016B00067E189EE90E00E947E1B64E387E091E0A1
:1016C0000E947E1B6EE285E291E00E947E1B80916B
:1016D000DD044AE06AEF76E090E00E94FA3163E4CC
:1016E00071E00E941C0580910B01893009F058C0FF
:1016F0002BE8E22E26E0F22E0DE510E0F7018591B1
:101700009491B8010E94110582E0E80EF11C025E7E
:101710001F4F013191E0190789F78091D60461E7E5
:1017200070E0811103C087E896E002C083E896E08C
:101730000E9411058091DE046FE870E0882319F0A3
:1017400080E896E002C08BE796E00E9411056CE20B
:101750008DEA90E00E947E1B80911005882349F05D
:101760004AE06AEF76E090E00E94FA316BEC70E0BC
:1017700004C06BEC70E08CE591E00E941C05809148
:10178000F3044AE06AEF76E090E00E94FA3169EEF5
:1017900070E00E941C0563E187E091E00E947E1BDF
:1017A00080910B018A3009F04EC08091F70490E0DF
:1017B0009E8F8D8F8091F80490E098A38F8F8091F9
:1017C000F90490E09AA389A38091FA0490E09CA385
:1017D0008BA38091CD0490E09EA38DA38091CE0435
:1017E00090E098A78FA39DE5E92EF12CC12CD12C78
:1017F00010E0F601E359F94F85919491B7010E94E9
:101800001105163091F04AE06AEF76E0EDE1F0E084
:10181000EC0FFD1FEC0DFD1D808191810E94FA31BE
:10182000B7016C5E7F4F0E941C051F5FE2E0CE0E89
:10183000D11CFEE1EF0EF11C1730D9F660E185E214
:1018400091E00E947E1B80910B018B3051F5E0905E
:101850008D06F12C0091620510E0E7E6F6E0859137
:1018600094916DE570E00E9411054AE06AEF76E020
:10187000C7010E94FA3161E770E00E941C05E9E6A9
:10188000F6E0859194916BE770E00E9411054AE0C3
:101890006AEF76E0C8010E94FA316FE870E00E94BA
:1018A0001C0580910B01843039F080910B018C3044
:1018B000C4F010920B0115C08DE5E82E86E0F82EDD
:1018C0000DE510E0F70185919491B8010E94110592
:1018D00082E0E80EF11C025E1F4F033F110591F7F5
:1018E000E4CF20910A012A3071F4809109018330FC
:1018F00009F4F1C0813009F4DFC0823009F0DFC0A3
:1019000080E791E0DEC02A3008F0D9C030910B01A9
:10191000313031F5283019F48AE080930A01809142
:101920000A01893019F487E080930A0120910A01A5
:1019300030E02E5F3F4F4EE1429FC001439F900D2C
:1019400011240A964091090150E04150510966E086
:10195000649F9001659F300D1124820F931FB1C0C9
:10196000333061F4233019F48AE080930A018091C6
:101970000A01893009F09DC082E031C0323061F443
:10198000293009F04BC080916005883009F442C0CD
:1019900088E080930A0142C0353079F483E0809377
:1019A0000901283019F48AE080930A0180910A0124
:1019B000893009F07EC087E012C080E090E03630C8
:1019C00089F483E080930901273019F48AE0809339
:1019D0000A0180910A01893009F06BC086E080938A
:1019E0000A0167C0373071F483E080930901293020
:1019F00019F485E080930A0180910A01863009F08C
:101A000058C03BC03830E1F4293041F48091600582
:101A1000883011F48AE0BDCF30930A0120910A0189
:101A20002093600583E08093090130E02E5F3F4FF3
:101A30004EE1429FC001439F900D1124469641C044
:101A4000393069F483E080930901293019F486E084
:101A500080930A0180910A01873059F50EC03A300F
:101A600071F483E080930901293019F487E08093B1
:101A70000A0180910A018830E1F48AE0B0CF343065
:101A800039F423E0209309012AE020930A0119C0C8
:101A90003B30B9F4293019F482E080930A01809137
:101AA0000A01833019F48AE080930A0183E080936D
:101AB000090120910A01B9CF8AE691E002C080E0D5
:101AC00090E020910C05222349F0FC01EE5EFD4FD1
:101AD00023E0208303C08AE791E0F3CFE0960FB6BE
:101AE000F894DEBF0FBECDBFDF91CF911F910F9154
:101AF000FF90EF90DF90CF900895CF92DF92EF921A
:101B0000FF920F931F93CF93DF9380E090E00E94AA
:101B1000EC108D3009F457C0C0E0D0E0FE01EF5E5C
:101B2000F94F6491CE010E94EA102196CC34D10580
:101B3000A9F7FE01E954FA4F05911491602FCE01E7
:101B40000E94EA10612FCE0101960E94EA102296AF
:101B5000CA35D10571F78E010A551109C8018F5494
:101B60009A4F7C01FC01C590D4906C2DCE010E944F
:101B7000EA106D2DCE0101960E94EA10F801E15A9B
:101B8000FA4F05911491602FCE018E5A9F4F0E94FB
:101B9000EA10612FCE018D5A9F4F0E94EA10F70183
:101BA00005911491602FCE018C559F4F0E94EA1031
:101BB000612FCE018B559F4F0E94EA102296CE3F97
:101BC000D10509F0C8CFDF91CF911F910F91FF9000
:101BD000EF90DF90CF900895BF92CF92DF92EF9277
:101BE000FF920F931F93CF93DF93C090B80422E529
:101BF000C29EC0011124B090D70404E114E07C011E
:101C00003CEAE30EF11CFC01E65AFF4F6F01C601EE
:101C10000E94EC10C82FD0E0F801D183C083C60128
:101C200001960E94EC10282F30E0322F22272C0F33
:101C30003D1FF80131832083BB2081F0C9019170E1
:101C40008739910558F0813F910518F4225E3F4F86
:101C500003C0245C3F4FF80131832083F2E0CF0EB4
:101C6000D11C0E5F1F4FCE14DF0489F6DF91CF9198
:101C70001F910F91FF90EF90DF90CF90BF9008954C
:101C80005E9A2A9864E670E080E090E00E948E1CE4
:101C90002A9A80E58CBD81E08DBD8DB58EB56AE058
:101CA00070E080E090E00E948E1C5E9880EA0E94C6
:101CB00037058FEF0E9437058770E1F48FEF0E94A0
:101CC00037058FEF0E9437058FEF0E94370580EAB6
:101CD0000E9437058FEF0E943705877031F468EE58
:101CE00073E080E090E00E948E1C62E080E00E9441
:101CF0003D055E9A5E9864E670E080E090E00E94A8
:101D00008E1C80EA0E9437058FEF0E943705837092
:101D1000813029F48093D704809308050CC0823069
:101D200029F41092D7041092080505C09091D704A9
:101D30009E5F9093080580930E048091D7048823BA
:101D400041F080EE91E0909300028093FF016CE4FB
:101D500007C086E891E0909300028093FF016CE059
:101D600080E00E943D055E9A9FB7F894E89A8091C2
:101D700069008260809369009FBF0C94EC0DEF9224
:101D8000FF920F931F93CF93DF9309EB14E0C0E012
:101D9000D0E0CE010E94EC10F80181938F012196D2
:101DA000CC34D105B1F73BEEE32E36E0F32ECE0175
:101DB0000E94EC10082F10E0F70111830083CE0180
:101DC00001960E94EC1090E0982F8827080F191FA9
:101DD000F701019311937F012296CA35D10539F796
:101DE000DF91CF911F910F91FF90EF900C94EC0D2C
:101DF00080918004882329F080E090E1A0E0B0E0A9
:101E00005AC080917204882329F08FE996E0A4E0FB
:101E1000B0E051C08AE090E0A0E0B0E080937704A9
:101E200090937804A0937904B0937A0420916C0481
:101E300021FF0CC08AE190E0A0E0B0E0809377043D
:101E400090937804A0937904B0937A048091050567
:101E5000813089F08091770490917804A091790481
:101E6000B0917A0481608093770490937804A09372
:101E70007904B0937A0423FF11C080917704909184
:101E80007804A0917904B0917A04806A80937704F1
:101E900090937804A0937904B0937A048091890494
:101EA000811111C08091770490917804A0917904F8
:101EB000B0917A0498608093770490937804A0930B
:101EC0007904B0937A048091C404811104C0809194
:101ED000BE04882389F08091770490917804A091C2
:101EE0007904B0917A049160809377049093780498
:101EF000A0937904B0937A0440917B0450917C04C0
:101F000060917D0470917E048091770490917804B3
:101F1000A0917904B0917A0484239523A623B72352
:101F200080937B0490937C04A0937D04B0937E0403
:101F30000895CF92DF92EF92FF920F931F93CF936A
:101F4000DF936C017A018B01C0E0D0E0CE15DF0594
:101F500089F0D8016D918D01D601ED91FC91019030
:101F6000F081E02DC6010995892B11F47E0102C094
:101F70002196ECCFC701DF91CF911F910F91FF9078
:101F8000EF90DF90CF900895FC01918D828D98178E
:101F900061F0828DDF01A80FB11D5D968C91928D4D
:101FA0009F5F9F73928F90E008958FEF9FEF08954A
:101FB000FC01918D828D981731F0828DE80FF11D13
:101FC000858D90E008958FEF9FEF0895FC01918D2E
:101FD000228D892F90E0805C9F4F821B91098F7327
:101FE000992708958EE591E00E94E60F21E0892B64
:101FF00009F420E0822F0895FC01848DDF01A80FF1
:10200000B11DA35ABF4F2C91848D90E001968F7320
:102010009927848FA689B7892C93A089B1898C913F
:1020200080648C93938D848D981306C00288F38905
:10203000E02D80818F7D80830895EF92FF920F9332
:102040001F93CF93DF93EC0181E0888F9B8D8C8D64
:10205000981305C0E889F989808185FD24C0F62E92
:102060000B8D10E00F5F1F4F0F731127E02E8C8D2B
:10207000E8120CC00FB607FCFACFE889F989808115
:1020800085FFF5CFCE010E94FC0FF1CF8B8DFE01B5
:10209000E80FF11DE35AFF4FF0820B8FEA89FB89AD
:1020A0008081806207C0EE89FF896083E889F989B1
:1020B00080818064808381E090E0DF91CF911F91E7
:1020C0000F91FF90EF900895CF93DF93EC01888DEF
:1020D0008823C9F0EA89FB89808185FD05C0A8892C
:1020E000B9898C9186FD0FC00FB607FCF5CF8081B2
:1020F00085FFF2CFA889B9898C9185FFEDCFCE01FC
:102100000E94FC0FE7CFDF91CF91089580E090E02F
:10211000892B29F00E94F20F81110C940000089580
:102120000E94EC311F920F920FB60F9211242F9341
:102130003F934F935F936F937F938F939F93AF934F
:10214000BF93EF93FF938EE591E00E94FC0FFF9108
:10215000EF91BF91AF919F918F917F916F915F911F
:102160004F913F912F910F900FBE0F901F90189598
:102170001F920F920FB60F9211242F938F939F935C
:10218000EF93FF93E0916E01F0916F018081E091F8
:102190007401F091750182FD12C0908180917701E8
:1021A0008F5F8F7320917801821751F0E091770152
:1021B000F0E0E25AFE4F958F8093770101C0808155
:1021C000FF91EF919F918F912F910F900FBE0F90E4
:1021D0001F9018950C9437320C942F32CF9381E0D6
:1021E00080930B018AE080930A0183E080930901C8
:1021F00010927204109273048091DC04882301F120
:102200001092FB011092FC011092FD011092FE0150
:102210001092F2031092F3031092F4031092F5035C
:1022200010920B0210920A021092F7031092F6031A
:1022300010920502109204021092100410920F04E2
:10224000C0918C0680918D068C17B9F0C0938D06D5
:1022500061E082ED0E9401188C2F0E94E4170E9419
:10226000DE1760E08AEF0E9401180E94F80E64E613
:1022700070E080E090E00E948E1CCF910C94F80EEC
:102280002F923F924F925F926F927F928F929F9286
:10229000AF92BF92CF92DF92EF92FF920F931F9374
:1022A000CF93DF9300D01F92CDB7DEB7382E8EE5E7
:1022B00091E00E94E60F21E0892B09F420E087E7F6
:1022C00095E03AE0380F3B83FCE28F2E99249394FB
:1022D000A12CB12CA8EE4A2EA3E05A2E612C712C11
:1022E00085EA96E0B6E32B2E280E213009F050C681
:1022F0008EE591E00E94C40F2091210530912205C6
:102300002F5F3F4F30932205209321052091E9064E
:102310003091EA062115310559F421E030E084328C
:1023200011F020E030E03093EA062093E90620C661
:102330002130310529F48D3441F482E090E00AC067
:102340002230310561F48E3319F080E090E002C054
:1023500083E090E09093EA068093E90609C6233073
:10236000310571F4873908F0F5C58093E80624E05B
:1023700030E03093EA062093E9068093E706F8C53B
:102380002430310581F425E030E03093EA062093D3
:10239000E9068093E6069091E70689278093E70691
:1023A0001092E506E5C52530310509F0E1C59091AB
:1023B000E70698279093E7061091E5062091E80636
:1023C0001213CDC59111C6C580911F0590912005AE
:1023D00001969093200580931F051092F50583E0E8
:1023E000809319058091E6068C3D09F06DC10E942D
:1023F0004A1B893009F04DC082E080931B050E9482
:102400004A1B182F0E944A1B212F30E0280F311D34
:102410003093E4062093E3060E944A1B8093E20671
:1024200081E08093E1060E94C81CDC01CB01885446
:10243000944FAF4FBF4F8093DD069093DE06A0937D
:10244000DF06B093E0066FE18CED0E94011889E091
:102450000E94E417EAE0FE2E0091E3061091E406E4
:10246000C8010E94EC10E82E8093E206C8010E9489
:10247000F2178E2D0E94E4178091E3069091E406F6
:1024800001969093E4068093E306FA94F110E4CF6A
:1024900097C0883009F055C082E080931B057AE030
:1024A000E72EFF24F3940E944A1BD82E0E944A1B59
:1024B000082F10E0102F00270D0D111D1093E406BA
:1024C0000093E3060E944A1BD82E8093E206F09206
:1024D000E1060E94C81CDC01CB018854944FAF4F29
:1024E000BF4F8093DD069093DE06A093DF06B09386
:1024F000E0066D2DC8010E94EA106DE080E090E0DA
:102500000E94EA100091E3061091E40609351105D6
:1025100021F00F3481E0180711F40E94BF0EEA94F5
:10252000E110C1CF0F5F1F4F1093E4060093E30645
:1025300063E08CED0E94011889E00E94E417C80155
:102540003DC0873009F03FC010921C056BE08CED58
:102550000E94011887E00E94E41701E915E0F801E4
:102560008089918953E0969587955A95E1F70E9465
:10257000F2170C5E1F4FF5E0053F1F0781F70E9421
:10258000DE176DE08CED0E9401188AE00E94E417CE
:1025900087E090E00E94F21789E090E00E94F21735
:1025A0008EEA96E00E94F21780E090E00E94F21717
:1025B00080E090E00E94F21781E090E00E94F21724
:1025C0000E94DE1781C0833009F068C01530D9F44D
:1025D0000E94551B80329D4109F076C00E944A1B23
:1025E0008093DC060E944A1B8093DB068091740472
:1025F00081116AC080917204811166C0809180044B
:10260000811162C0BEC4183309F05EC045EAE42EF1
:1026100046E0F42E87010E944A1BF80181938F0146
:102620002E12F9CF0E944A1B182F5E986091D70492
:10263000611160E480E00E943D05612F89E00E9405
:102640003D0500E0602F8AE00E943D05F7016191A1
:102650007F018BE00E943D050F5F063399F760EA2A
:1026600088E00E943D0580EA0E94370585FDFBCF8A
:102670008091D704811102C06CE001C06CE480E05D
:102680000E943D055E9A64E170E080E090E00E9467
:102690008E1C1F3FC9F40E94400E16C0863079F48C
:1026A00000E010E060E0C8010E94EA100F5F1F4FD9
:1026B0000115F2E01F07B1F70E947D0D02C08530C1
:1026C00019F481E0809307058091E606863B09F0C6
:1026D00065C08091740481113DC480918004811192
:1026E00039C40E94C81C60936E0470936F04809379
:1026F0007004909371048091720481110E94EE1015
:102700000E944A1B813019F1F0F08230A1F0833031
:1027100009F020C40E944A1BE82E0E944A1BD82EB2
:102720000E944A1B2EE1E29E7001112405E010E098
:102730003BEFD30E2AC08091FF0190910002E2E1AD
:10274000F2E040E209C081E080937F0403C410926C
:102750007F0480930801FEC39F0122513240281755
:10276000390708F0F7C34193F7CF0E944A1B8983CA
:10277000882309F4EFC31A82B7016C0D711DCE01D5
:1027800001960E941C050F5F1F4FCD2CC00E80913B
:10279000E80690E08017910744F7DCC3843641F4E3
:1027A00081E0809305050E944A1B8093A40688C19E
:1027B0008536E9F50E94551B9093A3068093A206E7
:1027C0000E94551B9093A1068093A0060E94551B62
:1027D00090936D0480936C040E94631B6093B40417
:1027E0007093B5048093B6049093B7042091890444
:1027F000022F10E020E030E0DC01CB0180239123A8
:10280000A223B32321E0892B8A2B8B2B09F420E010
:10281000209374040E944A1B80938D069091720449
:1028200091114EC180938C0680939F0649C18936D1
:1028300009F046C10EE011E00E94551BF80181939A
:1028400091938F01F1E00E311F07B1F780911001D4
:1028500090911101855195408F389140E8F4809115
:102860000E0190910F01855195408F389140A0F451
:102870008091120190911301855195408F389140BC
:1028800058F41092970640929306509294066092E4
:102890009506709296062BC080919706813039F587
:1028A0000E94C81C00918F061091900620919106FD
:1028B00030919206DC01CB01801B910BA20BB30B74
:1028C00000919306109194062091950630919606FA
:1028D000081719072A073B0710F4109297068092F1
:1028E000930690929406A0929506B09296068091D7
:1028F00097068111E5C0209110013091110180915E
:1029000072042B33374060F1209112013091130192
:102910002B33374028F120911401309115012F37C6
:102920003440F0F08111BEC080917504909176041E
:10293000069708F4B7C0809174048111B3C08091E8
:102940007F048111AFC082E08093970681E080937D
:1029500072048091300180930B010E94F80EA2C096
:10296000882309F49FC01091610510926105909130
:102970007304992361F020911401309115012531E0
:10298000354028F092E0909397060E94EE109091C7
:102990007204992309F451C020910E0130910F0166
:1029A0002B3387E0380778F081E080939706809199
:1029B00009018F5F80930901843008F473C083E0BC
:1029C000809309016FC02E37344068F491E09093F2
:1029D000970680910901815080930901811162C09D
:1029E000909309015FC020911001309111012B33A8
:1029F000F7E03F07A0F091E09093970680910A01DD
:102A0000815080930A01811102C090930A01809144
:102A10000B01811147C08AE080930A0143C02E3721
:102A2000344058F481E08093970680910A018F5FCB
:102A300080930A018B3078F735C0209173042111FF
:102A400031C0992379F1812F16300CF085E08B3F4E
:102A50000CF48BEF20911201309113012E3794E08A
:102A6000390738F491E0909397068150809361057F
:102A700017C02B333740B0F091E0909397068F5FEB
:102A80008093610580910B018A3051F48091090196
:102A9000833031F480910A01853011F410921005D1
:102AA0000E94251880919706813051F40E94C81C1D
:102AB00060938F0670939006809391069093920690
:102AC0008091E6068A3609F056C085E080931A05A3
:102AD0000E944A1B882319F081E080930C040E9415
:102AE0004A1B809313040E94631B6093020470933B
:102AF000030480930404909305040E94631B609375
:102B0000FE037093FF0380930004909301040E94DE
:102B1000551BA0E0B0E02091740421110BC08093FC
:102B20009B0690939C06A0939D06B0939E0621E081
:102B300020939A0640919B0650919C0660919D06B9
:102B400070919E06841B950BA60BB70B8093FA031E
:102B50009093FB03A093FC03B093FD030E94551BCD
:102B60009093F9038093F8030E94551B9093990664
:102B700080939806EFC18B3699F40E94551BA0E014
:102B8000B0E08093060490930704A0930804B093E8
:102B900009040E94551B90930B0480930A04DAC128
:102BA000893759F40E944A1B0E944A1B0E944A1B03
:102BB0000E944A1B80930D04CDC18C36A9F40E945B
:102BC000551B90936904809368040E94551B909351
:102BD0006B0480936A040E94551B843B91050CF49E
:102BE000B5C188569140B2C18D3689F40E94631BED
:102BF00060930C0270930D0280930E0290930F026B
:102C00000E94551B9093110280931002A3C18E362F
:102C1000B9F40E944A1B809390050E94551B909323
:102C20000702809306020E94551B90938F058093A4
:102C30008E050E94551B90938D0580938C058AC14B
:102C40008F36A1F50E944A1B80938B050E944A1B78
:102C500080938A050E944A1B809389050E944A1B23
:102C6000809388050E944A1B809387050E944A1B17
:102C7000809386050E944A1B809385050E944A1B0B
:102C8000809384050E94551B909383058093820551
:102C90000E944A1B8093810580917704909178046B
:102CA000A0917904B0917A049D7F37C0803731F5C7
:102CB0002DE6C22E25E0D22E33E6E32E35E0F32EAC
:102CC00007E715E00E944A1BF80181938F010E94DB
:102CD0004A1BF60181936F010E944A1BF701819301
:102CE0007F012B812013EECF80917704909178049F
:102CF000A0917904B0917A049B7F0FC08B33B1F41B
:102D00000E944A1B80936205809177049091780419
:102D1000A0917904B0917A04AB7F8093770490936B
:102D20007804A0937904B0937A0414C1873709F02A
:102D300011C181E0809306051091E8068BE2E9E875
:102D4000F4E011928A95E9F7C12CD12C7601C39455
:102D5000112309F4FFC00E944A1B082E000C990B96
:102D6000AA0BBB0B8E31910508F0EAC0FC01EC5CAC
:102D7000FF4F0C94072F809189048C29809389043C
:102D8000DFC080918A048C2980938A04D9C0809105
:102D90008B048C2980938B04D3C080918C048C2964
:102DA00080938C04CDC080918D048C2980938D04F8
:102DB000C7C080918E0490918F048C299D29909397
:102DC0008F0480938E04BCC08091900490919104F4
:102DD000A0919204B09193048C299D29AE29BF291A
:102DE0008093900490939104A0939204B0939304E1
:102DF000A7C08091940490919504A0919604B091FD
:102E000097048C299D29AE29BF298093940490931F
:102E10009504A0939604B093970492C0809198046F
:102E200090919904A0919A04B0919B048C299D29BA
:102E3000AE29BF298093980490939904A0939A0493
:102E4000B0939B047DC08091A8049091A904A091A7
:102E5000AA04B091AB048C299D29AE29BF29809387
:102E6000A8049093A904A093AA04B093AB0468C0EB
:102E70008091A4049091A504A091A604B091A70408
:102E80008C299D29AE29BF298093A4049093A50481
:102E9000A093A604B093A70453C08091AC04909172
:102EA000AD04A091AE04B091AF048C299D29AE2948
:102EB000BF298093AC049093AD04A093AE04B0936B
:102EC000AF043EC08091B0049091B104A091B204CF
:102ED000B091B3048C299D29AE29BF298093B004F9
:102EE0009093B104A093B204B093B30429C080912D
:102EF0009C0490919D04A0919E04B0919F048C2904
:102F00009D29AE29BF2980939C0490939D04A09392
:102F10009E04B0939F0414C08091A0049091A104DA
:102F2000A091A204B091A3048C299D29AE29BF29A8
:102F30008093A0049093A104A093A204B093A3044F
:102F4000CC0CDD1CEE1CFF1C115002CF9093120420
:102F5000809311041092EA061092E90609C091E0EC
:102F6000910F9093E506E12FF0E0EA50FA4F80834D
:102F70008EE591E00E94E60F892B51F03110B8C91F
:102F800007C080E880938E0681E0809380049CCB0C
:102F90000F900F900F90DF91CF911F910F91FF90A5
:102FA000EF90DF90CF90BF90AF909F908F907F90E9
:102FB0006F905F904F903F902F9008956091F90629
:102FC0008EE591E00C941D10CF93C82F682F8EE5ED
:102FD00091E00E941D108091F906C827C093F90660
:102FE000CF910895CF93DF931F92CDB7DEB799832A
:102FF0000E94E4179981892F0F90DF91CF910C9453
:10300000E417CF93DF93D82FC62F64E28EE591E0CB
:103010000E941D106DE48EE591E00E941D106CE38E
:103020008EE591E00E941D101092F9068C2F0E94EF
:10303000E4178D2F0E94E417C11104C0DF91CF91D6
:103040000C94DE17DF91CF910895DF92EF92FF92FB
:103050000F931F93CF93DF9380910A018A30C9F4B5
:10306000909109019330A9F49091610592301CF080
:1030700091E090936105909161059F3F1CF49FEF53
:103080009093610520910B0190916105920F9093AF
:103090000B0190910B0197FF03C09BE090930B01F4
:1030A00090910B019C3014F010920B0120910B01B8
:1030B000213019F5EFEFE80FE73008F04FC2863006
:1030C00010F0E1E0E80F90910901923049F093305F
:1030D00059F0913009F042C2F0E0E958FA4F07C0C8
:1030E000F0E0E359FA4F03C0F0E0ED59FA4F3081B8
:1030F00090916105930F908331C2233009F590912F
:103100000901933009F02AC2813059F0823009F068
:1031100025C29091810580916105890F8093810579
:10312000B1C2209161058091820590918305820F43
:10313000911D27FD9A959093830580938205A2C2E5
:10314000223009F043C090910901933009F006C282
:10315000482F50E0FA013197E830F10508F0FEC140
:10316000EE5AFF4F909161050C94072F30918B051B
:10317000930F90938B05F2C130918A05930F909332
:103180008A05ECC130918905930F90938905E6C1BA
:1031900030918805930F90938805E0C130918705A1
:1031A000930F90938705DAC130918605930F909322
:1031B0008605D4C130918505930F90938505CEC1C6
:1031C00030918405930F90938405C8C1253009F090
:1031D00049C090910901933009F0C0C1482F50E0D7
:1031E000FA013197E730F10508F0B8C1E65AFF4F10
:1031F0000C94072F91E03091C004311190E090932E
:10320000C004ACC1309161059091C304930F9093B9
:10321000C304A4C1309161059091C104930F9093B0
:10322000C1049CC191E03091CA04311190E09093A7
:10323000CA0494C1309161059091CB04930F90938F
:10324000CB048CC1309161059091C204930F90938F
:10325000C20484C191E03091C404311190E0909394
:10326000C4047CC1263009F04DC09091090193300F
:1032700009F074C1833039F148F48130E1F08230D3
:1032800009F06CC18FE080930F05FCC1853059F1C6
:1032900010F1863009F062C1209161058091F1063C
:1032A0009091F206820F911D27FD9A959093F20658
:1032B0008093F106E7C181E09091BD04911180E017
:1032C0008093BD04DFC181E09091BE04911180E044
:1032D0008093BE04D7C191E03091BF04311190E0DA
:1032E0009093BF043BC1209161058091F3069091BA
:1032F000F406820F911D27FD9A959093F406809312
:10330000F306C0C1273009F048C0909109019330FD
:1033100009F024C1833051F128F48130B9F08230B2
:10332000E9F01CC1843051F1853009F017C12091BA
:1033300061058091ED069091EE06820F911D27FDAB
:103340009A959093EE068093ED069CC181E0909152
:10335000C504911180E08093C50494C181E09091EF
:10336000C704911180E08093C7048CC181E09091E3
:10337000C804911180E08093C80484C12091610544
:103380008091EF069091F006820F911D27FD9A958E
:103390009093F0068093EF0675C1283009F051C074
:1033A00090910901933009F0D9C0482F50E0FA01FB
:1033B0003197E830F10508F0D1C0EF59FF4F0C9478
:1033C000072F91E03091D904311190E09093D90406
:1033D000C5C091E03091DA04311190E09093DA04A5
:1033E000BDC091E03091E604311190E09093E60485
:1033F000B5C091E03091D804311190E09093D80499
:10340000ADC091E03091D004311190E09093D004A0
:10341000A5C091E03091ED04311190E09093ED045E
:103420009DC091E03091E704311190E09093E70462
:1034300095C0309161059091DD04930F9093DD0468
:103440008DC0293009F03FC090910901933009F0F7
:1034500085C08330E1F028F4813049F0823079F082
:103460007DC0853001F1D8F0863029F177C081E048
:103470009091D604911180E08093D60403C181E03D
:103480009091DE04911180E08093DE04FBC081E026
:103490009091E504911180E08093E504F3C09AE0F7
:1034A000909310055BC0909161058091F304890FA2
:1034B0008093F304E7C081E09091CC04911180E007
:1034C0008093CC04DFC02A3009F048C090910901F4
:1034D000933009F043C0482F50E0FA013197E730AC
:1034E000F105E0F5E759FF4F0C94072F9091610526
:1034F0008091F704890F8093F704C4C0909161050F
:103500008091F804890F8093F804BCC09091610504
:103510008091F904890F8093F904B4C090916105FA
:103520008091FA04890F8093FA04ACC090916105F0
:103530008091CD04890F8093CD04A4C09091610542
:103540008091CE04890F8093CE049CC081E090913D
:10355000C904911180E08093C90494C08A3009F0B5
:1035600091C02093300180910901813009F481C01C
:10357000823009F087C080918D0680938C066EE1C1
:103580008AEC0E9401188DE6E82E85E0F82E03E60D
:1035900015E0C7E7D5E0DC2E8AE0D80E89910E94BD
:1035A000E417F70181917F010E94E417F8018191EE
:1035B0008F010E94E417DC12F1CF0E94DE176BE04E
:1035C0008CEC0E94011880918B050E94E417809179
:1035D0008A050E94E417809189050E94E417809172
:1035E00088050E94E417809187050E94E417809166
:1035F00086050E94E417809185050E94E41780915A
:1036000084050E94E41780918205909183050E94B1
:10361000F217809181050E94E4170E94DE1709EBE2
:1036200014E0C0E0D0E0F80161918F01CE010E946A
:10363000EA102196CC34D105B1F70BEE16E0F80173
:103640006081CE010E94EA10F80161810E5F1F4F78
:10365000CE0101960E94EA102296CA35D10579F76B
:103660006DE080E090E00E94EA1060E08AEF0E9446
:103670000118DF91CF911F910F91FF90EF90DF9094
:103680000C94EE10DF91CF911F910F91FF90EF906E
:10369000DF900895E091F50581E08E0F8093F505A8
:1036A000F0E0EA50FA4F80810895CF93DF930E94B3
:1036B0004A1BC82FD0E00E944A1B9E01382BC9012B
:1036C000DF91CF910895CF92DF92EF92FF920E9407
:1036D000551B6C01E12CF12C0E94551BA0E0B0E0C1
:1036E000DC0199278827BC01CD016C297D298E2911
:1036F0009F29FF90EF90DF90CF9008959C01E62FD7
:10370000F0E0E754FB4FE081F0E0EE0FFF1FE05DDB
:10371000F84F85919491B9010C941105CF92DF92E5
:10372000EF92FF920F931F93CF93DF93C42F97FFD6
:1037300008C090958095709561957F4F8F4F9F4FF2
:10374000C22F24E630E040E050E00E944532CA013A
:10375000B90110920507C0930407C9E02AE0C22E00
:10376000D12CE12CF12CDEE2C43019F4D093FE060A
:10377000C3E0C1500C2F10E00550194FA70196016E
:103780000E944532605DF8016083B901CA01CC2313
:1037900039F0C33048F7611571058105910521F7AE
:1037A00080E2CC2339F0C150EC2FF0E0E550F94F26
:1037B0008083F7CF8BEF96E0DF91CF911F910F9130
:1037C000FF90EF90DF90CF900895E7E7F7E0249126
:1037D000E3E6F7E09491EFE4F7E0E491EE2309F4F7
:1037E0003BC0222339F1233091F038F42130A9F085
:1037F000223001F524B52F7D12C0273091F02830FA
:10380000A1F02430B9F4209180002F7D03C02091D5
:1038100080002F77209380000DC024B52F7724BD22
:1038200009C02091B0002F7703C02091B0002F7DF8
:103830002093B000F0E0EE0FFF1FE25CF84FA5917F
:10384000B4912FB7F894EC91811103C090959E2309
:1038500001C09E2B9C932FBF0895CF93DF9390E0E0
:10386000FC01E45AF84F2491FC01E85BF84F849185
:10387000882361F190E0880F991FFC01EC5CF84F00
:10388000C591D491FC01E25CF84FA591B49161110E
:1038900009C09FB7F8948881209582238883EC9192
:1038A0002E230BC0623061F49FB7F8943881822FC9
:1038B000809583238883EC912E2B2C939FBF06C089
:1038C0008FB7F894E8812E2B28838FBFDF91CF919B
:1038D00008953FB7F8948091130790911407A09131
:1038E0001507B091160726B5A89B05C02F3F19F004
:1038F0000196A11DB11D3FBFBA2FA92F982F882770
:10390000820F911DA11DB11DBC01CD0142E0660FCA
:10391000771F881F991F4A95D1F708958F929F921C
:10392000AF92BF92CF92DF92EF92FF926B017C0138
:103930000E94691C4B015C01C114D104E104F10433
:10394000F1F00E94691CDC01CB0188199909AA09D0
:10395000BB09883E9340A105B10570F321E0C21A6E
:10396000D108E108F10888EE880E83E0981EA11CBA
:10397000B11CC114D104E104F10419F7DDCFFF90AB
:10398000EF90DF90CF90BF90AF909F908F90089571
:103990002FB7F89460910F0770911007809111076D
:1039A000909112072FBF08951F920F920FB60F929A
:1039B00011242F933F938F939F93AF93BF93809145
:1039C0000F0790911007A0911107B0911207309145
:1039D0000E0723E0230F2D3720F40196A11DB11D02
:1039E00005C026E8230F0296A11DB11D20930E07E6
:1039F00080930F0790931007A0931107B0931207BD
:103A00008091130790911407A0911507B0911607A4
:103A10000196A11DB11D8093130790931407A093E5
:103A20001507B0931607BF91AF919F918F913F916A
:103A30002F910F900FBE0F901F901895CF93DF938B
:103A4000CDB7DEB728970FB6F894DEBF0FBECDBF57
:103A5000789484B5826084BD84B5816084BD85B569
:103A6000826085BD85B5816085BD80916E00816075
:103A700080936E001092810080918100826080931B
:103A8000810080918100816080938100809180001D
:103A90008160809380008091B10084608093B10048
:103AA0008091B00081608093B00080917A00846042
:103AB00080937A0080917A00826080937A0080916E
:103AC0007A00816080937A0080917A008068809388
:103AD0007A001092C10084B714BE809160008861A2
:103AE0008093600010926000E0916E01F0916F0190
:103AF00082E08083E0916A01F0916B011082E09195
:103B00006C01F0916D0190E1908310927601E0914B
:103B10007201F091730186E08083E0917001F09171
:103B20007101808180618083E0917001F091710169
:103B3000808188608083E0917001F09171018081C3
:103B400080688083E0917001F091710180818F7DA8
:103B500080838091C00082608093C0001092C50075
:103B60009093C4008EE591E00E94641084B18C6251
:103B700084B92498569A529860E084E10E942D1CE2
:103B800060E081E10E942D1C60E081E10E942D1C1B
:103B900061E087E00E942D1C3B98F89480916C00B6
:103BA00083FD0AC0809168008260809368008091E4
:103BB0006C00886080936C0078940E947D0D0E9458
:103BC000BF0E64EF71E080E090E00E948E1C809157
:103BD000DE04882311F081E001C083E080930001BE
:103BE0000E94400E0E94F80E68E6262E332433947D
:103BF0001092520580911D0590911E05019690939B
:103C00001E0580931D0580910705882361F084B708
:103C1000877F84BF8091600088658093600081E425
:103C200080936000FFCFE091F304E0932E011092A7
:103C3000B8048091F2048823A1F0F0E0EE0FFF1F9A
:103C4000E45FFE4F80819181813426E0920710F07D
:103C500081E004C089379540E0F082E08093B804A9
:103C600018C04091A4045091A5046091A6047091DD
:103C7000A7048091B4049091B504A091B604B091CA
:103C8000B70484239523A623B723892B8A2B8B2B58
:103C9000F9F61091B8048091510518130E94EC0DAB
:103CA0001093510510910905163010F081E001C004
:103CB00080E00E94E51B0E94C81C6B017C01809182
:103CC0004D0590914E05A0914F05B0915005B7015B
:103CD000A601481B590B6A0B7B0B44365105610545
:103CE000710508F493C08C599F4FAF4FBF4F80931D
:103CF0004D0590934E05A0934F05B09350051F5F5F
:103D00001093090580910A058F5F80930A0581E071
:103D100090910C05911180E080930C0580910C042A
:103D20008823A1F180917404882381F16091F803C4
:103D30007091F9036115710549F12091D60480E075
:103D400090E0222339F00E94383021EB32E047E541
:103D50005BE306C00E9438302FE632E143E85AE3C5
:103D60000E942E319B01AC016091270570912805BE
:103D70008091290590912A050E941A2F60932705AA
:103D8000709328058093290590932A056091270553
:103D9000709128058091290590912A050E9409308B
:103DA0006093FB017093FC018093FD019093FE01F1
:103DB0008091C7048823D1F020918104309182043E
:103DC000409183045091840460918504709186042D
:103DD00080918704909188040E941A2F6093850433
:103DE0007093860480938704909388048091800464
:103DF00081110CC080917F04811108C080911B0546
:103E0000811104C060E08CE60E9401188091490590
:103E100090914A05A0914B05B0914C05B701A601C0
:103E2000481B590B6A0B7B0B423351056105710529
:103E300010F40C94AE2CC296A11DB11D80934905BF
:103E400090934A05A0934B05B0934C0580917B0459
:103E500090917C04A0917D04B0917E04892B8A2BE3
:103E60008B2B81F48091770490917804A091790450
:103E7000B0917A0480937B0490937C04A0937D049A
:103E8000B0937E0440917B0450917C0460917D044A
:103E900070917E0488279927DC01841B950BA60B63
:103EA000B70B84239523A623B7238C019D0100958E
:103EB000109520953095402351236223732340931E
:103EC0007B0450937C0460937D0470937E04811581
:103ED00041E09407A105B10509F451C018F58830F7
:103EE0009105A105B10509F444C060F48130910544
:103EF000A105B105E1F10297A105B10509F049C09D
:103F000085E648C080329105A105B105B1F1803840
:103F10009105A105B10579F14097A105B105C9F554
:103F20008DE638C0811568E09607A105B10579F1E5
:103F300068F48115E2E09E07A105B10521F1811524
:103F40009440A105B10529F580E724C0009721E040
:103F5000A207B105B1F0009734E0A307B105A9F0BD
:103F600081159041A105B105A1F48CED13C084E643
:103F700011C089E60FC08AE60DC08BE60BC08EE645
:103F800009C082E707C08FE605C08BE303C087E75F
:103F900001C080E090918004911147C090917F040E
:103FA000911107C090911B05911103C060E00E9420
:103FB00001185E9860E085E00E943D0560E086E0C3
:103FC0000E943D0561E084E00E943D050E94DE0400
:103FD00002E112E0812C912C40E2B42E8091FF018D
:103FE0009091000288169906B8F450EF8516910456
:103FF00011F40E94DE04D8016C9187E00E943D0517
:1040000080917F04811102C0F801B082FFEF8F1A06
:104010009F0A0F5F1F4FE2CF6FEF87E00E943D05C1
:1040200060E084E00E943D055E9A0E94A6058091B2
:10403000750490917604059788F50BED11E030E456
:10404000E32EF12CF80185919491B7010E9411059E
:104050000E5F1F4F2EE1E20EF11C30E3E31631E05C
:10406000F30681F788EF90E00E942605E0910805AD
:10407000F0E0EE0FFF1FED52FE4F8591949166E147
:1040800071E00E9411058091470590914805CC97F9
:1040900090930E0580930D050C94AE2C1091740432
:1040A000112349F081E08093730480917204813080
:1040B00011F40E94EE1080917304882371F01111A5
:1040C0000CC010920B018AE080930A0181E080937A
:1040D0000901809372040E94F80E80917204882373
:1040E00021F00E940A080C94AE2C80917F04882352
:1040F00091F180916E0490916F04A0917004B09141
:1041000071048053984FAF4FBF4F8C159D05AE057E
:10411000BF0588F48091FF0190910002E2E1F2E096
:1041200040E29F01225132402817390710F4419391
:10413000F8CF10927F0480910801882311F40C9429
:10414000AE2C61E070E084E591E00E941C051092C5
:1041500008010C94AE2C0E94F80E80916C0480FF34
:1041600023C2E0906A04F0906B04009168041091FF
:10417000690480E58093FA06C7014AE0E416F10479
:1041800034F06AE070E00E94F32ECB010CC066EFC1
:104190007FEF0E94F32ECB01F7FE05C02DE22093A6
:1041A000FB0622E001C021E030E0B9016650794F02
:1041B0004AE00E94FA318FE00E94ED03882349F023
:1041C000609132047091330471708AEF96E00E941E
:1041D0001C0582E58093FA06C8010A30110534F007
:1041E0006AE070E00E94F32ECB010CC066EF7FEF17
:1041F0000E94F32ECB0117FF05C02DE22093FB0692
:1042000022E001C021E030E0B9016650794F4AE078
:104210000E94FA3180E10E94ED03882349F0609109
:1042200034047091350471708AEF96E00E941C0589
:10423000D090E604D1100AC08091EE04811106C02E
:1042400083E18093020180930101AEC080917404E8
:10425000811104C01092F9031092F803A090F803A2
:10426000B090F9038091390590913A059501215F4D
:104270003F4F28173907C0F40E94C81C60933505CA
:1042800070933605809337059093380582E08093CC
:104290003405B0923A05A09239058091020181500F
:1042A0008031F8F485E11DC00F968A159B05D8F47E
:1042B0000E94C81C609335057093360580933705BE
:1042C0009093380581E080933405B0923A05A0922E
:1042D0003905809102018F5F80930201863118F0C9
:1042E00080E18093020180900C0290900D02A090DA
:1042F0000E02B0900F028091300590913105A0918F
:104300003205B0913305B501A4014C5E5F4F6F4F8C
:104310007F4F481759076A077B07E4F40E94C81CBF
:1043200060932C0570932D0580932E0590932F0597
:1043300082E080932B058092300590923105A09207
:104340003205B0923305809101018150803138F5FA
:1043500085E125C04496A11DB11D88159905AA05C2
:10436000BB05FCF40E94C81C60932C0570932D05BE
:1043700080932E0590932F0581E080932B058092EA
:10438000300590923105A0923205B09233058091AC
:1043900001018F5F80930101863118F080E18093E5
:1043A0000101DD2009F44CCF4090460450904704B1
:1043B00051E0552269ECE616F10454F478E3E7166F
:1043C0007FEFF70644F488E3E82EFF24FA9403C055
:1043D00098ECE92EF12C013981E018073CF4003704
:1043E0009EEF19072CF400E71EEF02C000E911E070
:1043F000D090D90489E10E94ED038D2109F48FC08A
:104400003701AAE06A0E711C77FE04C03701B1E1E2
:104410006B0E711CE3E075946794EA95E1F7719473
:10442000619471089090EB0440E0F4E0CF2ED12C21
:10443000A9E0EA2EF12CBEE18B2EE42FF0E0C601BC
:104440008E1B9F0B089F9001099F300D189F300D08
:10445000112437FF02C0215C3F4F76E03595279548
:104460007A95E1F7260D371D275D3F4F223531053F
:10447000F0F5E40DF51DC901B7010E94F32E869EEB
:10448000D001879EB00D1124EA0FFB1FBF016C57AE
:104490007109603E51E0750728F4DB01AE5EBD4F47
:1044A00080588C93992019F18EEF840F8530F8F4A1
:1044B000CF01865D9109803E61E0960758F4DC01EA
:1044C000AE5EBD4F5D01C901B7010E94F32E805859
:1044D000D5018C93B297E03EB1E0FB0740F4EE5E6D
:1044E000FD4FC901B7010E94F32E805880834F5FB2
:1044F000493028F4443009F0A0CF45E09ECF82E255
:104500000E94ED0381110BC0F201EE5EFD4FDF0151
:10451000119786E28C938CEB81838EE78083809168
:10452000DA04882309F440C08AE10E94ED0388235D
:10453000D9F180914E04982F9F7080914C048F7018
:10454000D82E482F41956091020150910101E92E2A
:10455000990FFF0892012E193F098701040D151DBF
:10456000EEE14E02C00111248E5E9D4FFC01E20F70
:10457000F31F6083FC01E00FF11F50834F5FD416DF
:104580007CF7F201EE19FF09ED5EFD4F83E08083B9
:10459000F201EE0DFF1DEF5EFD4F82E08083809102
:1045A000EE0481110C94882D8091C004882309F4B5
:1045B0005EC01091C10410933C05E091C204E093E9
:1045C0003B058091DB04609008027090090288230B
:1045D000B9F162E2E69F600111247AE2E79FF001FF
:1045E00011246C147D0410F42C2D07C09F0122505F
:1045F00031096216730608F493010D2C000CEE08C5
:10460000FF08822F90E0A0E0B0E09C01AD012C19E2
:104610003D094E095F09A7E0B0E00E9464329F01A6
:10462000215031094901A12CB12CA50194012C196B
:104630003D094E095F090E94453286E9821B01C08F
:1046400087E98093FA06012F10E06016710620F4C6
:1046500080910B0581110BC085E10E94ED03811152
:104660000C94F02D0615170510F00C94F02D809188
:10467000CA04882369F1009102021091030220917B
:10468000010230E00217130720F480910B0581111D
:104690001FC086E10E94ED038823D1F08FEB809349
:1046A000FA0623E044E06BEF76E0C8010E94920432
:1046B00089EA8093FF061092000760914004709190
:1046C00041047170615071098AEF96E00E941C05E7
:1046D0008091BD048823B1F10091660410916704B4
:1046E0002091BC0430E02017310724F080910B05A5
:1046F000882341F183E10E94ED03882319F18AEBBD
:104700008093FA064AE06BEF76E0C8010E94FA3126
:10471000E0E0AE2FB0E0A650B94F8C91EF5F811171
:10472000F8CF85E28C93F0E0E650F94F108260916B
:104730003A0470913B047170615071098AEF96E000
:104740000E941C058091C504882309F45CC0C090B8
:104750008104D0908204E0908304F090840420E0EF
:1047600030E040E251E4C701B6010E94902F4B01B6
:104770005C016091CE0470E080E090E00E943A30ED
:104780009B01AC01C501B4010E94862F87FD04C0C6
:1047900080910B058823B9F16091040270910502A4
:1047A00080E090E00E9438309B01AC01C701B60167
:1047B0000E942931181644F4C701B6010E9409303D
:1047C000709305026093040287E10E94ED03882341
:1047D000D1F0C701B6010E940230DC01CB0124E018
:1047E00045E06AEF76E00E9492048AE98093FF0632
:1047F00010920007609142047091430471708AEF37
:1048000096E00E941C058091C704882309F44CC0DF
:1048100060910602709107026115710581F420E034
:1048200030E044EB53E460918504709186048091FC
:104830008704909188040E94902F0E9402308091FA
:10484000CD04A4E68A9FC00111248617970724F49B
:1048500080910B05882341F188E10E94ED038823B4
:1048600019F184EA8093FA0620E030E044EB53E447
:1048700060918504709186048091870490918804EA
:104880000E94902F0E940230DC01CB014AE06BEFC6
:1048900076E00E94FA316091440470914504717091
:1048A0008AEF96E00E941C058091EC04882309F4AD
:1048B0004CC000912E0410912F040115B2E01B078B
:1048C00008F443C0809174048823F1F020913D05E1
:1048D00030913E05C9016CE370E00E94DF2E8091AB
:1048E000FA0490E06817790720F080910B05811198
:1048F0002CC02031EEE03E0728F48CE98093FA06C4
:10490000B90116C081E709C060914705709148055B
:104910006031FEE07F0720F48BE98093FA0608C03F
:1049200080E78093FA06CB016CE370E00E94DF2EF3
:1049300080E090E020E04BEF56E00E94FD03B801DC
:1049400071708AEF96E00E941C0585E20E94ED03DB
:104950008823A1F100915E0410915F0411706091B1
:1049600008027091090280E090E00E9438302091A6
:1049700081043091820440918304509184040E9408
:104980002E3120E030E048EC52E40E94902F0E944B
:104990000930DC01CB0125E045E06BEF76E00E94B9
:1049A000920480E28093FA0687E58093FF061092D6
:1049B0000007B8018AEF96E00E941C058EE00E9475
:1049C000ED03882309F4ABC08091C904882309F45E
:1049D000A6C080917404811107C080915205826045
:1049E000809352058EE10EC080910301882369F007
:1049F00090910C05911193C0909152059460909301
:104A0000520581508093030105C080915205816059
:104A10008093520580913C0590E0209108023091EE
:104A200009028217930728F08091520580648093D1
:104A3000520580916C0483FF1CC080911304853063
:104A400028F48091520580628093520580911A0566
:104A5000811105C08091520580618093520580913B
:104A60001905811106C0809152058F7C8860809362
:104A7000520580915305811104C0809152058093A5
:104A80005305F09053052F2D2195E22EEF200E9423
:104A9000C81C009123051091240520912505309113
:104AA00026050C501E4F2F4F3F4F0617170728079C
:104AB000390788F4FF2029F08E2D80958F2180936F
:104AC00053050E94C81C60932305709324058093AE
:104AD00025059093260580E090E0E0E02E2D30E063
:104AE000A901082E02C0559547950A94E2F740FDAA
:104AF000E82F01968830910599F780915205823010
:104B000070F0F0E0EE0FFF1FE551FE4F859194919C
:104B1000609130047091310471700E941105809190
:104B2000D804882309F48FC08BE00E94ED0388230A
:104B300009F489C080E28093FB0680911401909172
:104B4000150120910601309107012817390720F43B
:104B50009093070180930601209104013091050193
:104B60008217930720F4909305018093040120910C
:104B70000601309107012330384030F022E038E060
:104B80003093070120930601209104013091050123
:104B9000263B334030F426EB33E03093050120937D
:104BA000040120917404211109C080E28093FC0665
:104BB0009DE29093FD069093FE0635C02091CC04B3
:104BC000222339F020E044E06CEF76E00E9492046A
:104BD0002CC0C0900401D0900501E12CF12CA0E084
:104BE000B0E09C01AD012C193D094E095F09A4E616
:104BF000B0E00E94643220910601309107018901E2
:104C000020E030E0A90198012C193D094E095F0907
:104C10000E944532DA01C90120E043E06CEF76E002
:104C20000E94920485E28093FF0688EC8093FA0646
:104C30001092000760912A0470912B0471708AEF22
:104C400096E00E941C05209147053091480580910F
:104C50000D0590910E05AC01445C5F4F4217530760
:104C6000A0F4805C9F4F8217930720F430930E05C9
:104C700020930D058091E104882339F0809162042E
:104C80009091630491700E94260580916C0482FFCC
:104C900059C088E00E94ED038823F9F08091EA046E
:104CA0008823D9F08091110490911204880F991FE4
:104CB000880F991F83509D4F6AE570E00E94F32E84
:104CC00064507E4F8091240490912504917049E0B6
:104CD00050E08E5E9D4F0E94F13187E00E94ED030F
:104CE000882381F18091D404882361F1809111049B
:104CF000909112042091D504222381F097FF02C0E5
:104D000088599E4F20E043E06AEF76E00E949204CB
:104D10008DEB8093FD061092FE060BC020E044E070
:104D20006AEF76E00E9492048DEB8093FE0610926B
:104D3000FF06609122047091230471708AEF96E05F
:104D40000E941C0580916C0481FFBAC08091D6043A
:104D50008823A1F060910C0270910D0280910E02E7
:104D600090910F020E943A302EEA31E646E05DE370
:104D70000E942E310E9402308B010FC060910C0204
:104D800070910D0280910E0290910F0224E630E0A6
:104D900040E050E00E9445328901809174048823EC
:104DA00089F08091750490917604069758F080916F
:104DB0000A0290910B028017910724F410930B02C2
:104DC00000930A0289E00E94ED03882369F1809133
:104DD000E904882349F14091F804442371F0C801A3
:104DE0006AE070E00E94F32E842F90E06817790744
:104DF00024F080910B05811117C04AE06BEF76E03B
:104E0000C8010E94FA31E091D604F0E0E95CFE4F5F
:104E100080818093FA066091260470912704717056
:104E20008AEF96E00E941C058AE00E94ED03882329
:104E300009F446C08091E804882309F441C08091B8
:104E400028049091290491708C010E5E1D4FF80189
:104E50007E978FE78083D8018C935E968C93209108
:104E60001002309111022937310534F42838BFEF90
:104E70003B071CF428E801C028E7822F220F990B7A
:104E8000AA0BBB0B9C01AD012857310941095109FF
:104E9000A1E1B0E00E94643220E13FEF4FEF5FEF0D
:104EA0000E944532822F66E00E94D12E8150F80187
:104EB0002EE18202E00DF11D11248FE8891B808311
:104EC00080916C0483FF73C38091CF04882309F41D
:104ED0006EC310911304153020F480910B058111DD
:104EE0001BC080E00E94ED038823B1F08EE1809327
:104EF000FA068FE18093FB064AE06CEF76E0812FA3
:104F000090E00E94FA316091140470911504717060
:104F10008AEF96E00E941C0580910C04882309F416
:104F20006AC081E00E94ED038823C9F180910604E4
:104F300090910704A0910804B09109040397A1057A
:104F4000B10520F480910B05811129C02091160430
:104F50003091170431708091110490911204845E95
:104F60009D4F40910A0450910B04841B950B880FB0
:104F7000991F880F991F8D966AE570E00E94F32EA5
:104F8000CB0160E170E00E94F32E805A8093FA0614
:104F90001092FB06B9018AEF96E00E941C058091F1
:104FA000D604882309F435C660910604709107047D
:104FB00080910804909109040E94383021EA38EF6A
:104FC00041E550E40E942E310E9409306B017C01C2
:104FD0008091F2039091F303A091F403B091F50353
:104FE0008C159D05AE05BF0508F41CC682E00E9425
:104FF000ED0381112BC680910C04882309F452C063
:1050000084E00E94ED038823E1F08091D30488239B
:10501000C1F020E043E06AEF76E080910A049091CD
:105020000B040E9492048DEB8093FD061092FE0605
:1050300060911C0470911D0471708AEF96E00E94CB
:105040001C0580917404811104C01092F903109220
:10505000F8031091D6046091F8037091F90380E091
:1050600090E0111124C60E9438302CEB34E743E164
:105070005DE30E942E310E9409307B018091F6038E
:105080009091F7039C012C5E3F4F2E153F0508F0D1
:1050900015C63093F7032093F60383E00E94ED03D7
:1050A000811115C680910C04882309F4C2C0809137
:1050B000D204882309F457C085E00E94ED038823B9
:1050C00009F451C08091D6048823A9F06091FA03B5
:1050D0007091FB038091FC039091FD030E943A3094
:1050E00021EA38EF41E550E40E942E310E9402305F
:1050F0006B017C0108C0C090FA03D090FB03E090E4
:10510000FC03F090FD031091F8041123A9F0C701EE
:10511000B6012AE030E040E050E00E944532812FA5
:1051200090E0A0E0B0E0281739074A075B0724F0B9
:1051300080910B05811117C04AE06BEF76E0C60144
:105140000E94FA31E091D604F0E0E95CFE4F8081E4
:105150008093FA0660911E0470911F0471708AEFAB
:1051600096E00E941C0581E10E94ED03882309F46A
:1051700060C08091B4049091B504A091B604B09140
:10518000B704009190041091910420919204309101
:10519000930441E050E060E070E00097A105B105A4
:1051A00019F040E050E0BA014023512362237323F9
:1051B000452B462B472BE9F580239123A223B323CC
:1051C0002091D004822B892B8A2B8B2B91F100917B
:1051D00036041091370411708AEC8093FA066091BE
:1051E000020470910304809104049091050423E566
:1051F0004EE40E948E1BB8018AEF96E00E941C05C7
:10520000009138041091390411708BEC8093FA06E8
:105210006091FE037091FF0380910004909101045E
:1052200027E545E40E948E1BB8018AEF96E00E94B4
:105230001C053091DD043983323079F040F431308F
:1052400009F0B5C1A1E0B0E0BD83AC8310C04981D5
:10525000433049F0443009F0AAC162E070E07D8338
:105260006C8311E005C082E090E09D838C8310E0A8
:1052700080910C04882309F49AC182E20E94ED0314
:10528000882309F494C11F8318861A823F81832FD3
:1052900090E04C815D81841795070CF088C1809166
:1052A0000A0490910B04BF81B13061F420913F0555
:1052B00030914005821B930B845E9D4FB1010E948B
:1052C000DF2E0BC088599E4F20911104309112049B
:1052D000821B930BB1010E94F32E9C016AE570E0E2
:1052E0000E94F32E61307105B9F03CF4672B21F573
:1052F000EFEFE887F1E0FA831FC062307105B1F08B
:1053000063307105C9F4D101A21BB30B9D01BFEF3E
:10531000B887EFEFEA8310C044EB50E0421B530B19
:105320009A0151E0588761E06A8306C0245B310925
:1053300071E078878FEF8A83B901330F880B990B5F
:105340000E943A302BED3FE049E450E40E942E31B8
:1053500020E030E044E353E40E94902F2B013C0115
:1053600060910604709107048091080490910904EB
:105370000E9438304B015C01C301B2010E949B3195
:105380009B01AC01C501B4010E942E310E9409307D
:105390006B017C01C301B2010E948B2F9B01AC0108
:1053A000C501B4010E942E310E9409304B015C01FD
:1053B000C616D70610F4CB0101C0C601A0E0B0E0CC
:1053C00084369105A105B10590F0843FF1E09F0777
:1053D000A105B10508F49EC4843C29E09207A1050B
:1053E000B10508F49CC49C0144E24B8308C051E21F
:1053F0005B8324E630E04497A105B105A0F12901C3
:10540000330F66087708C601A0E0B0E0BC01CD010B
:1054100024E0660F771F881F991F2A95D1F7A301F3
:1054200092010E9445326A81862F660F990B829FF6
:105430008001839F100D929F100D11249401AFE005
:10544000B0E00E949132A30192010E94453278851A
:10545000872F770F990B829FF001839FF00D929F0A
:10546000F00D112404C0E0E0F0E000E010E0C09096
:105470005A04D0905B0481E0D8227801D8011196BB
:105480005D0117FD7D01F594E794EC0CFD1CCF0147
:1054900063E070E00E94F32EBEE1B69FC001B79FAB
:1054A000900D1124E80EF91E2F81213011F025E016
:1054B00001C024E0C80117FF04C088279927801B7A
:1054C000910B482F417847FF03C041504E6F4F5F0B
:1054D000342FCF01F7FF04C0882799278E1B9F0B1D
:1054E00063E00E94D12E5885513019F482E0891B67
:1054F000982F6A816F3F11F431E0341B3296359753
:1055000018F491E07885971B83E0A816B10428F47D
:1055100031E00F3F1F4F09F430E0BF81BB2311F092
:1055200010ED01C016EDE981E43031F0632F660F14
:10553000360F390F130F15C080911104909112048A
:1055400040913F0550914005841B950B8A519D4F1A
:10555000B1010E94DF2E6DE270E00E94DF2E12E7A3
:10556000160FFB81F093FA061092FB066091580427
:105570007091590471708AEF96E02E830E941C0589
:105580001093FA061092FB06B7018AEF96E00E948C
:105590001C052E812093FA061092FB06B6018AEFB5
:1055A00096E00E941C052F812F5F2F836FCE809184
:1055B0001905882309F4D2C1C090B404D090B50471
:1055C000E090B604F090B70480918E0490918F041F
:1055D000A0E0B0E08C219D21AE21BF21892B8A2B38
:1055E0008B2BD1F08091E7048823B1F01092FC0658
:1055F00086E18093FA0687E18093FB068EE10E94A4
:10560000ED03882349F0609150047091510471704A
:105610008AEF96E00E941C058091ED04882309F42E
:105620005AC080918A0490E0A0E0B0E08C219D21D6
:10563000AE21BF21892B8A2B8B2B69F480918B049F
:1056400090E0A0E0B0E08C219D21AE21BF21892B0C
:105650008A2B8B2B29F080EA8093FA06E1E001C0C7
:10566000E0E080918C0490E0A0E0B0E08C219D21EE
:10567000AE21BF21892B8A2B8B2B39F0AE2FB0E0C6
:10568000A650B94F82EA8C93EF5F80918D0490E031
:10569000A0E0B0E08C219D21AE21BF21892B8A2B77
:1056A0008B2B39F0AE2FB0E0A650B94F81EA8C9326
:1056B000EF5FF0E0E650F94F108286E00E94ED03C4
:1056C000882349F0609120047091210471708AEF61
:1056D00096E00E941C058091980490919904A091F5
:1056E0009A04B0919B048C219D21AE21BF21892B6E
:1056F0008A2B8B2B39F01092FC068AEA8093FA06EB
:105700008BEA9BC08091900490919104A0919204A7
:10571000B09193048C219D21AE21BF21892B8A2B2E
:105720008B2B49F08DE98093FA068EE98093FB0676
:105730001092FC0684C08091940490919504A091ED
:105740009604B09197048C219D21AE21BF21892B15
:105750008A2B8B2B39F01092FC068DEC8093FA0685
:105760008EEC6BC08091AC049091AD04A091AE041E
:10577000B091AF048C219D21AE21BF21892B8A2BB2
:105780008B2B79F080910D044AE06CEF76E090E08D
:105790000E94FA311092FE0685EB8093FA0686EBA2
:1057A0004CC080918C0490E0A0E0B0E08C219D2161
:1057B000AE21BF21892B8A2B8B2B69F680918A041D
:1057C00090E0A0E0B0E08C219D21AE21BF21892B8B
:1057D0008A2B8B2B39F01092FC068CEA8093FA0608
:1057E0008DEA2BC080918B0490E0A0E0B0E08C218A
:1057F0009D21AE21BF211092FC06892B8A2B8B2B79
:1058000029F084EC8093FA0685EC17C08EEA809329
:10581000FA068FEA8093FB068091A0049091A10480
:10582000A091A204B091A304C822D922EA22FB22AB
:10583000CD28CE28CF2819F089E88093FB068091E7
:10584000E0048823B1F181E20E94ED03882389F10D
:1058500000915604109157041170B8018AEF96E038
:105860000E941C0540919C0450919D0460919E04EF
:1058700070919F048091B4049091B504A091B604F6
:10588000B091B70484239523A623B723892B8A2BB1
:105890008B2B79F08AEE8093FA068BEE8093FB06D1
:1058A0001092FC06B8016E5F7F4F8AEF96E00E946F
:1058B0001C0580910B05811151C084E20E94ED030B
:1058C000882309F44BC04091B4045091B504609111
:1058D000B6047091B7048091900490919104A091C6
:1058E0009204B091930484239523A623B723892B94
:1058F0008A2B8B2B11F58091940490919504A091A3
:105900009604B091970484239523A623B723892B6B
:105910008A2B8B2BA1F48091AC049091AD04A091C3
:10592000AE04B091AF0484239523A623B723892B1B
:105930008A2B8B2B99F0E3E003C0E1E001C0E2E0A9
:10594000F0E0EE0FFF1FEA5EFD4F859194916091AC
:105950005C0470915D0471700E94110580910A05CC
:10596000853048F010920A0581E090910B05911165
:1059700080E080930B050E94C81C009115051091D2
:105980001605209117053091180508511C4F2F4F0F
:105990003F4F061717072807390708F0B2C00093D2
:1059A00015051093160520931705309318051092CE
:1059B000090580911D0590911E05909346058093E1
:1059C000450510921E0510921D0580911F059091AE
:1059D0002005909344058093430510922005109272
:1059E0001F05809121059091220590934205809397
:1059F0004105109222051092210580914705909152
:105A0000480501969093480580934705809180044E
:105A1000811117C05E9880EA0E9437058FEF0E94BF
:105A20003705837090910E04981719F00E94400E6C
:105A300008C080E80E9437058FEF0E94370583FF7A
:105A4000F5CF80911A05811103C01092130403C091
:105A5000815080931A0580911905882319F081508F
:105A60008093190580911B05882319F0815080933C
:105A70001B0580917404811109C0809111049091DB
:105A800012049093400580933F0516C080913D0518
:105A900090913E05019690933E0580933D0580913F
:105AA0000F049091100401969093100480930F04BA
:105AB000109272040E94F80E809175049091760401
:105AC000019690937604809375048091100581303F
:105AD00051F480917204882331F060E08EEC0E94D2
