:100000000C9470030C942B090C94A2030C94A2037F
:100010000C9494080C94A2030C94A2030C94A203D5
:100020000C94A2030C94A2030C94A2030C94A203BC
:100030000C94A2030C94A2030C94A2030C94A203AC
:100040000C940D2D0C94A2030C94E62F0C941830F4
:100050000C94A2030C94A2030C94A2030C94A2038C
:100060000C94A2030C94A2037A21802186218C2176
:10007000922198219E21B821C021C821D021D821C8
:10008000E021E8219F22A722AF22B722BF22C72268
:10009000CF22D7226D2375237D2385238D2395239E
:1000A0009D23D127D727DD27E327A128E927A128EA
:1000B000A128EF27A128FA270F282428A128A12862
:1000C000A1283928A128A1284E2863287828A1280A
:1000D000A128A128A128A128A1288D2805A84CCDB8
:1000E000B2D44EB93836A9020C50B9918688083C72
:1000F000A6AAAA2ABE000000803F69046D0441043C
:10010000EA03BF036F032103E10295023F02F501F9
:10011000D101C301B601B001AA01A1019C01900166
:10012000ED01E201D80139022B021D0215020B027A
:10013000FE018D02830274026B02600258025102BA
:100140004802D402C802B502A9029D0214030B039F
:100150004C04E902FE02F1025C034F033E032C0350
:100160004F0326034C04B703AF039F039603920388
:1001700085037703E503DF03DB03D703D303CD0355
:10018000C90338042B041E0411040704FE03F503FD
:100190005445585420414C41524D5300414D505309
:1001A000004D414820583130300054494D455200EF
:1001B000535045454400414C5449545544452058FA
:1001C00031300044495354414E434520583130307A
:1001D00000414C41524D5300545A2041444A55531A
:1001E0005400545A20464F525741524400444953F8
:1001F000504C4159004750532054494D45005448F4
:10020000524F54544C452050574D004F53442054A6
:1002100058204348004D41472043414C004445424B
:10022000554700312E31560035560056205245466E
:1002300000494D50004D455400554E49545300411E
:100240004456414E434544004D4150204D4F444596
:100250000047494D42414C0053454E534F525300C5
:1002600047505320434F4F524453005448524F5429
:10027000544C45005343524F4C4C494E4720424149
:1002800052530053494445204241525300484F5273
:10029000495A4F4E00444953504C41590041444A39
:1002A000555354205A45524F0041444A5553542007
:1002B000414D505300555345205649525455414CD9
:1002C0002053454E534F5200444953504C415920FE
:1002D0004D414800444953504C415920414D5053E1
:1002E0000043555252454E54005553452050574DEA
:1002F000005345542052535349204D494E00534515
:10030000542052535349204D4158005345542052D4
:1003100053534900444953504C4159205253534977
:1003200000525353490043454C4C530044495350E9
:100330004C41592056494420564F4C5453004D418E
:10034000494E20564F4C545320414C41524D004190
:10035000444A55535420564F4C545300444953502B
:100360004C4159204D41494E20564F4C5453005654
:100370004F4C54414745005448524F54544C45202B
:100380004558504F005448524F54544C45204D4905
:1003900044005450410059415720524154450052A5
:1003A0004F4C4C2050495443482052415445005230
:1003B00043204558504F005243205241544500526B
:1003C000432054554E494E47004D4147004C455639
:1003D000454C0047505300414C5400594157005080
:1003E0004954434800524F4C4C0050494420434F1D
:1003F0004E464947004D415820414D5053004D4114
:10040000482055534544004D4158205350454544DC
:10041000004D415820414C544954554445004D41EC
:10042000582044495354414E434500544F542044AE
:10043000495354414E434500464C592054494D457B
:100440000053544154495354494353005553452094
:100450004643003C504147453E00534156452B45DD
:100460005849540045584954004F4646004F4E00E5
:10047000A4049B04890478044E4F542044455445F9
:10048000435445442D50414C004E4F542044455454
:1004900045435445442D4E545343004155544F2D2C
:1004A00050414C004155544F2D4E54534300F704D6
:1004B000BE04E604D704C704BE04C304BF0400534B
:1004C000493A0049443A00202020202B5049544307
:1004D000482046554C4C00202020202B59415720C5
:1004E0005249474854004D454E553A5448525420BD
:1004F0004D4944444C45004D572D4F5344202D2029
:1005000052312E372E3100740552054B056C0564AF
:10051000055B0525051F057405420538052F0544B3
:1005200045425547004C4F5720564F4C54530020DE
:100530004D495353494F4E004155544F20484F4C5D
:1005400044004155544F20525448002041524D45DB
:10055000440044495341524D4544004C4F572053A9
:1005600041545300204E4F20475053004E4F2044DB
:1005700041544100001D1A1D1C1D191D1C1D1B1D71
:100580001C1D181D1C1D1A1D1C1D191D1C1D1B1DAD
:1005900020007BC12A00210090005400240072003A
:1005A00027003500CB0060017EC17EC137C110013C
:1005B0001D0102000F004C01F2006BC12FC175013B
:1005C0007F01C200BB00BB00030007007A00550199
:1005D00006015C003400C50064005701BA00180130
:1005E000DCC020C034C036C0B7C090C054C024C0E6
:1005F00072C028C0CBC0CAC060C17EC17EC137C135
:1006000010011D0102C00FC04DC1F3C06BC12FC14D
:1006100071C178C1C2C0BBC0BBC0030007007AC0B3
:1006200055C106C15CC03400C30064C05301BA00A8
:1006300018C1DCC000000000960000000004F401B6
:1006400058020D00003C000000018A04C8000000B0
:1006500000000100C8003264010101000000010037
:100660000000010100000100000100000000000185
:10067000010101010001010004000000050001006A
:100680000000001E4D574F53440020202020000042
:100690000008000201000003040700000000000041
:1006A000000001020408102040800102040810200C
:1006B00001020408102004040404040404040202D7
:1006C00002020202030303030303000000002500EB
:1006D00028002B0000000000240027002A004830DA
:1006E000EAE3F7E085EA98E001C08193EF3FF9077C
:1006F000E0F3D9F311241FBECFEFD8E0DEBFCDBFAA
:1007000011E0A0E0B1E0E0E8F9E602C005900D924A
:10071000A038B107D9F727E0A0E8B1E001C01D92E9
:10072000AA33B207E1F716E0C0EED6E004C0229784
:10073000FE010E943534CE3DD107C9F70E948C30AE
:100740000C94BE340C9400000C94A0340C94983497
:10075000DC01ED91FC910190F081E02D0994EAE338
:10076000F7E0CF018A5397402081253A39F428E0F9
:10077000EF3FF20709F010F43196F3CF089560913E
:100780007204709173046115710581F420E030E00A
:1007900044EB53E4609158047091590480915A04D9
:1007A00090915B040E9477310E94DF312091AD056A
:1007B00084E6289F9001112481E0261737070CF06A
:1007C00080E008958091960481110EC080915806B2
:1007D00081110AC080915706811106C080E880937C
:1007E0001E0681E080935706089584B7877F84BFF3
:1007F0008091600088658093600081E48093600050
:10080000FFCF80915706882329F080E090E1A0E097
:10081000B0E083C080915806882329F08FE996E0E4
:10082000A4E0B0E07AC08AE090E0A0E0B0E080937D
:10083000400290934102A0934202B0934302209160
:100840009F0421FF0CC08AE190E0A0E0B0E080931B
:10085000400290934102A0934202B09343028091E0
:100860007206813089F08091400290914102A091FE
:100870004202B09143028160809340029093410212
:10088000A0934202B093430223FF11C08091400223
:1008900090914102A0914202B0914302806A8093FC
:1008A000400290934102A0934202B0934302809190
:1008B000E505811111C08091400290914102A09103
:1008C0004202B091430298608093400290934102AB
:1008D000A0934202B09343028091080690910906CA
:1008E000A0910A06B0910B0640919B0450919C0484
:1008F00060919D0470919E0484239523A623B723C1
:10090000892B8A2B8B2B89F0809140029091410298
:10091000A0914202B091430290688093400290936C
:100920004102A0934202B09343028091A405811139
:1009300004C080919E05882389F0809140029091A7
:100940004102A0914202B091430291608093400223
:1009500090934102A0934202B093430280913C02E3
:1009600090913D02A0913E02B0913F024091400221
:100970005091410260914202709143028423952379
:10098000A623B72380933C0290933D02A0933E029E
:10099000B0933F02089580918E048823A1F1809145
:1009A0009604882381F160917C0470917D04611527
:1009B000710549F12091B60580E090E0222339F0DD
:1009C0000E94103221EB32E047E55BE306C00E9453
:1009D00010322FE632E143E85AE30E94FF329B01D6
:1009E000AC01609190017091910180919201909180
:1009F00093010E940C316093900170939101809358
:100A00009201909393016091900170919101809176
:100A10009201909193010E94E43160933E0470939F
:100A20003F0480934004909341040895EF92FF9215
:100A30000F931F93CF93DF9309E915E0C0E0D0E057
:100A4000F80161918F01CE010E94A4032196CC345C
:100A5000D105B1F70BE815E0CCE4D0E0F8016081F6
:100A6000CE010E94A403F80161810E5F1F4FCE01E9
:100A700001960E94A4032296CA35D10579F76DE04C
:100A800080E090E0DF91CF911F910F91FF90EF9068
:100A90000C94A403DF92EF92FF920F931F93CF93D6
:100AA000DF9300915A0682E5089F80011124D090BF
:100AB000B705C9E3D5E0065A1F4FC8010E94A60337
:100AC000E82EF12CF982E882C80101960E94A60363
:100AD000282F30E0322F22272E0D3F1D3983288307
:100AE000DD2089F0C90191708739910560F0A90175
:100AF000425E5F4F59834883813F910520F0245C1B
:100B00003F4F398328830E5F1F4F229685E0CB38F5
:100B1000D80799F6DF91CF911F910F91FF90EF9039
:100B2000DF900895EF92FF920F931F93CF93DF937F
:100B300009E915E0C0E0D0E0CE010E94A603F8016B
:100B400081938F012196CC34D105B1F70BE815E0E4
:100B5000CCE4D0E0CE010E949834E82EF12CF801CC
:100B6000F182E082CE0101960E949834282F30E075
:100B7000322F22272E0D3F1DF801219331938F0133
:100B80002296CA35D10531F7DF91CF911F910F9190
:100B9000FF90EF900C944A05EF92FF920F931F93F2
:100BA000CF93DF9380E090E00E94A6038D3009F49C
:100BB00058C0C0E0D0E0FE01EE5BF94F6491CE0179
:100BC0000E94A4032196CC34D105A9F7CCE4D0E04F
:100BD000FE01E851FA4F05911491602FCE010E9459
:100BE000A403612FCE0101960E94A4032296CA3568
:100BF000D10571F7CAE5D0E0CE0188579A4F7C0144
:100C0000FC0105911491602FCE010E94A403612F75
:100C1000CE0101960E94A403FE01EA5CFA4F059101
:100C20001491602FCE018E5A9F4F0E94A403612F12
:100C3000CE018D5A9F4F0E94A403F7010591149194
:100C4000602FCE018C559F4F0E94A403612FCE01CF
:100C50008B559F4F0E94A4032296CE3FD10509F0E9
:100C6000CBCFDF91CF911F910F91FF90EF9008951F
:100C70004F925F926F927F92AF92BF92CF92DF922C
:100C8000EF92FF920F931F93CF93DF9345E0E42EF3
:100C900041E0F42E01EB14E0C0E0D0E05AE0D52EA4
:100CA000D7018D917D010E94EC2D20918F01C11102
:100CB00008C03091A405332339F18091990490E064
:100CC00023C0C43009F530919F053323A9F08091EA
:100CD00052049091530495958795009769F4DC9E92
:100CE000F001DD9EF00D1124E20FF11DEE0FFF1F4C
:100CF000EF55FB4F8081918130919E05332321F088
:100D00008091700490917104DC9EF001DD9EF00DE5
:100D10001124E20FF11DEE0FFF1FEF55FB4FD8011D
:100D20002D913C91119740815181241B350B1196D7
:100D30003C932E9320813181280F391F36952795BA
:100D4000318320838D919C911197820F931F8D93F6
:100D50009C9321960C5E1F4FC530D10509F0A0CFA2
:100D60008091A4056091B1047091B204C091BE0558
:100D7000811134C080E090E0D091A305C11115C06D
:100D80000E9410326B017C016D2F70E080E090E0DA
:100D90000E9412329B01AC01C701B6010E94FF32D2
:100DA00027E137EB41ED58E314C00E9410326B018C
:100DB0007C016D2F70E080E090E00E9412329B0178
:100DC000AC01C701B6010E94FF322FE632E143E0D9
:100DD0005AE30E94FF320E94E43105C0E3E07595BA
:100DE0006795EA95E1F77093510460935004809100
:100DF0009B0580934C046091C5047091C60480E00B
:100E000090E0D091AB05C11115C00E9410326B016A
:100E10007C016D2F70E080E090E00E9412329B0117
:100E2000AC01C701B6010E94FF3227E137EB41ED6B
:100E300058E314C00E9410326B017C016D2F70E0EA
:100E400080E090E00E9412329B01AC01C701B60124
:100E50000E94FF322FE632E143E05AE30E94FF3264
:100E60000E94E43170934F0460934E048091A60574
:100E70008111CBC08091A805C0918D05D0918E05C0
:100E800000918F051091900581114EC04090D904BA
:100E90005090DA0443E0559447944A95E1F766246C
:100EA00057FC6094762CC301B2010E941232609309
:100EB0005C0470935D0480935E0490935F049E01D4
:100EC00040E050E0C8011F921F929F930F93A12C06
:100ED000B12C6501E12C14E0F12E00E010E0C3011B
:100EE000B2010E94C3300E9412326B017C010F904C
:100EF0000F900F900F9020E030E0A9010E94703118
:100F000087FD09C0C0925C04D0925D04E0925E044B
:100F1000F0925F048CC010925C0410925D041092F9
:100F20005E0410925F0483C080911A0190911B01AE
:100F300060910C0170910D018617970740F0609148
:100F40000A0170910B018617970708F4BC0180E035
:100F500090E0685E734081099109623FB3E07B07CE
:100F60008105910548F42AE030E040E050E00E941D
:100F7000F23369017A0105C034E6C32ED12CE12C8D
:100F8000F12CC701B6010E9410322B013C01A701D0
:100F90009601C701B6010E94AC330E9410322AE0CC
:100FA00037ED43EA5CE30E94FF329B01AC01C301D1
:100FB000B2010E940C316B017C01B80180E090E02D
:100FC0000E9410329B01AC01C701B6010E94FF32A2
:100FD0002AE037ED43E25CE30E94FF326B017C01C3
:100FE00080919604BE01882359F080E090E00E9431
:100FF00010329B01AC01C701B6010E940C310FC039
:1010000080E090E00E9410320AC060915604709116
:101010005704882777FD8095982F0E94123260939D
:101020005C0470935D0480935E0490935F048091F0
:101030009D05882309F44DC060910105709102055A
:1010400023E0759567952A95E1F7709355046093B1
:10105000540480915806882389F080917C068F3053
:1010600029F4709394056093930508C0813031F49E
:10107000709392056093910510927C06E090930521
:10108000F090940500E010E02091910530919205D8
:1010900040E050E0882777FD8095982F1F921F929F
:1010A0001F92E4E6EF93A12CB12C65010E94C3309E
:1010B0000F900F900F900F906536710514F064E655
:1010C00070E077FF02C060E070E0709355046093B9
:1010D000540480918F018F5F883018F480938F01C2
:1010E00002C010928F01DF91CF911F910F91FF905D
:1010F000EF90DF90CF90BF90AF907F906F905F9018
:101100004F9008953B98F89480916C0083FD0AC03D
:101110008091680082608093680080916C00886094
:1011200080936C00789408951F920F920FB60F92DF
:1011300011242F933F934F935F936F937F938F93DC
:101140009F93AF93BF93CF93EF93FF93C6B17894E0
:101150000E94632D20918D0130918E01AB01421BC5
:10116000530B9A01293B3B4018F021E020930401E6
:1011700070938E0160938D01C3FD29C020918B0176
:1011800030918C01621B730BCB018F5E92402091DA
:1011900004018B3D954098F480916006882359F0B6
:1011A000293068F4E22FF0E0EE0FFF1FEE5EFE4FF5
:1011B0007183608304C070935304609352042F5F63
:1011C0002093040170935F0660935E0604C07093E1
:1011D0008C0160938B01FF91EF91CF91BF91AF9103
:1011E0009F918F917F916F915F914F913F912F913F
:1011F0000F900FBE0F901F901895CF93DF93C0E014
:10120000D0E060E0CE010E94A4032196C11582E0E7
:10121000D807B9F7DF91CF9108958EBD0DB407FEC1
:10122000FDCF8EB50895685A7D4FFC012191CF0105
:10123000222321F0FB012193BF01F7CF0895685AC3
:101240007D4FFC0124910196222321F0FB01219383
:10125000BF01F7CF08951F920F920FB60F9211247E
:10126000109230020F900FBE0F901F901895CF93E1
:10127000DF931F92CDB7DEB769830E940D096981A4
:10128000862F0F90DF91CF910C940D095E9A2A98CA
:1012900064E670E080E090E00E94862D2A9A80E566
:1012A0008CBD81E08DBD8DB58EB56AE070E080E0CB
:1012B00090E00E94862D5E9864E670E080E090E009
:1012C0000E94862D80EA0E940D098FEF0E940D0971
:1012D0008370813029F48093B705809375060CC024
:1012E000823029F41092B7051092750605C09091CE
:1012F000B7059E5F90937506809331028091B70584
:10130000882341F080EE91E0909333028093320283
:101310006CE407C086E891E0909333028093320238
:101320006CE080E00E9437095E9A9FB7F894E89AD3
:10133000809169008260809369009FBF0C944A0588
:101340001F93CF93DF93C82F5E988091B7058823B2
:1013500011F060E401C060E080E00E9437096C2F6A
:1013600089E00E943709C1E2D6E010E0612F8AE0EF
:101370000E94370969918BE00E9437091F5F16337D
:10138000A9F760EA88E00E94370980EA0E940D0907
:1013900085FDFBCF8091B705882311F06CE401C077
:1013A0006CE080E00E9437095E9A64E170E080E0C2
:1013B00090E0DF91CF911F910C94862D5E9880EA8A
:1013C0000E940D098FEF0E940D09837090913102E8
:1013D00098130C94460980E80E940D098FEF0E9433
:1013E0000D0983FFF6CF0895EF92FF920F931F939D
:1013F000CF93DF93FB0197FF06C0919581959109EB
:10140000FF24F39401C0F12CDF01A40FB11D1C9245
:10141000BEE2EB2ECAE0D0E0421306C04150DF012D
:10142000A40FB11DEC9220E03FEF340F8F01030FAA
:10143000111DBE010E94DE33805DD8018C93CB016B
:10144000332379F0222311F0432FE6CF0097E1F701
:10145000FF2039F03EEF340FDF01A30FB11D8DE205
:101460008C9380E2332331F03150DF01A30FB11DA3
:101470008C93F8CFCF01DF91CF911F910F91FF9007
:10148000EF9008958F929F92AF92BF92DF92EF926A
:10149000FF920F931F93CF93DF93EA01F22E97FFF2
:1014A00008C090958095709561957F4F8F4F9F4FA5
:1014B0000E2D24E630E040E050E00E941434CA01D2
:1014C000B90126E02F0DFE01E20FF11D108215E09B
:1014D000E12EEF0CFE01EE0DF11D00830AE0802EDF
:1014E000912CA12CB12C2EE2D22E2FEF2E0DEF102D
:1014F00006C0E22EFE01E20FF11DD082F6CFE22EF1
:101500008E01020F111DA50194010E941434605D2B
:10151000F8016083B901CA01E11002C080E209C08C
:10152000F2E0FE1510F36115710581059105E9F6EC
:10153000F5CFEE2031F0EA94FE01EE0DF11D80832F
:10154000F8CFCE01DF91CF911F910F91FF90EF90D7
:10155000DF90BF90AF909F908F9008953F924F92F1
:101560005F926F927F928F929F92AF92BF92CF9233
:10157000DF92EF92FF920F931F93CF93DF93EA01D5
:10158000522E211103C0A5E06A2E02C0F8E06F2E92
:10159000FE01E60DF11D1082762C452C4AE0842ECA
:1015A000912CA12CB12C56E0C52ED12CE12CF12C84
:1015B000EAE33E2E2FEF270D8E01020F111D27FDAE
:1015C0001A95A50194010E94F233605DF8016083D1
:1015D0008EEF870D8E01080F111D87FD1A95CA0128
:1015E000B901A70196010E94F233605DF8016083A2
:1015F000B901CA01FDEF7F0EFE01E70DF11D77FC79
:10160000FA9530824A942FEF4212D4CF252D220F23
:10161000250D621AEDEF6E0E3AE0C32ED12CE12CAF
:10162000F12C6A948E01060D111D67FC1A95A70115
:1016300096010E94F233605DF8016083B901CA012E
:10164000611571058105910511F480E203C06110F7
:10165000E8CFFBCF662041F06A94FE01E60DF11D54
:1016600067FCFA958083F6CFCE01DF91CF911F9171
:101670000F91FF90EF90DF90CF90BF90AF909F9031
:101680008F907F906F905F904F903F90089580E093
:10169000E82FF0E0EC5BFD4F9081992311F08F5F14
:1016A000F7CF0895E82FF0E0EE0FFF1FE75CFA4F49
:1016B000208131812227307C81E02115304C09F0D6
:1016C00080E00895CF93DF9380918606882309F404
:1016D000EDC18091EA059091EB05A0E0B0E040916A
:1016E0009B0450919C0460919D0470919E048423FE
:1016F0009523A623B723892B8A2B8B2BD1F080919E
:10170000C7058823B1F01092460286E18093440217
:1017100087E1809345028EE10E94520B882349F0B5
:101720006091750570917605717084E492E00E9475
:1017300013098091CD05882309F462C080919B0430
:1017400090919C04A0919D04B0919E044091E60567
:1017500050E060E070E0482359236A237B23452B47
:10176000462B472B69F44091E70550E060E070E0BC
:10177000482359236A237B23452B462B472B29F0EB
:1017800020EA20934402E1E001C0E0E04091E80556
:1017900050E060E070E0482359236A237B23452B07
:1017A000462B472B39F0CE2FD0E0CC5BDD4F22EA21
:1017B0002883EF5F4091E90550E060E070E0482346
:1017C00059236A237B23452B462B472B39F0AE2F19
:1017D000B0E0AC5BBD4F81EA8C93EF5FF0E0EC5B77
:1017E000FD4F108286E00E94520B882349F06091E1
:1017F000450570914605717084E492E00E941309DA
:1018000080919B0490919C04A0919D04B0919E04B2
:101810004091F4055091F5056091F6057091F7053A
:10182000482359236A237B23452B462B472B39F02A
:10183000109246028AEA809344028BEAA1C040914A
:10184000EC055091ED056091EE057091EF05482390
:1018500059236A237B23452B462B472B49F08DE9DF
:10186000809344028EE980934502109246028AC01A
:101870004091F0055091F1056091F2057091F305EA
:10188000482359236A237B23452B462B472B39F0CA
:10189000109246028DEC809344028EEC71C0409110
:1018A00008065091090660910A0670910B064823BC
:1018B00059236A237B23452B462B472B81F08091AC
:1018C00074044AE050E066E472E090E00E946834FC
:1018D0001092480285EB8093440286EB51C0409100
:1018E0000C0650910D0660910E0670910F0648236C
:1018F00059236A237B23452B462B472B39F0109223
:10190000460287EB8093440288EB3AC04091E80599
:1019100050E060E070E0482359236A237B23452B85
:10192000462B472B09F0B4CF4091E60550E060E02C
:1019300070E0482359236A237B23452B462B472BF2
:1019400039F0109246028CEA809344028DEA18C066
:101950004091E70550E060E070E0482359236A2396
:101960007B2310924602452B462B472B29F084EC13
:101970008093440285EC04C08EEA809344028FEA8F
:10198000809345028091C0058823C9F181E20E94BD
:10199000520B8823A1F160917B0570917C057170D9
:1019A00084E492E00E9413098091F8059091F90572
:1019B000A091FA05B091FB0540919B0450919C04C5
:1019C00060919D0470919E0484239523A623B723E0
:1019D000892B8A2B8B2B99F08AEE809344028BEE15
:1019E000809345021092460260917B0570917C05C0
:1019F00071706E5F7F4F84E492E00E9413098091C2
:101A00007806811153C084E20E94520B882309F4A6
:101A10004DC040919B0450919C0460919D04709135
:101A20009E048091EC059091ED05A091EE05B0919A
:101A3000EF0584239523A623B723892B8A2B8B2B91
:101A400011F58091F0059091F105A091F205B0910A
:101A5000F30584239523A623B723892B8A2B8B2B6D
:101A6000A1F48091080690910906A0910A06B09110
:101A70000B0684239523A623B723892B8A2B8B2B34
:101A8000A9F0E3E003C0E1E001C0E2E0F0E0EE0F26
:101A9000FF1FE95EFA4F85919491609181057091E5
:101AA00082057170DF91CF910C941F09DF91CF9166
:101AB0000895EBEDF5E0A4E4B2E021912D9325E04B
:101AC000E53EF207D1F710924E02BC0184E492E0A9
:101AD0000C9413096F927F928F929F92AF92BF9254
:101AE000CF92DF92EF92FF920F931F93CF93DF93EA
:101AF0008C017B0180E580934402CB016A30710543
:101B000034F06AE070E00E94DE33CB010CC066EF77
:101B10007FEF0E94DE33CB01F7FE05C02DE220935C
:101B2000450222E001C021E0622F70E06C5B7D4F36
:101B30004AE050E00E9468348FE00E94520B8823F4
:101B400049F06091570570915805717084E492E0F6
:101B50000E94130982E580934402C8010A301105EE
:101B600034F06AE070E00E94DE33CB010CC066EF17
:101B70007FEF0E94DE33CB0117FF05C02DE22093DB
:101B8000450222E001C021E0622F70E06C5B7D4FD6
:101B90004AE050E00E94683480E10E94520B8823A2
:101BA00049F06091590570915A05717084E492E092
:101BB0000E9413098091C605811105C08091CE0550
:101BC000882309F4C9C080919604811104C0109241
:101BD0007D0410927C0480917C0490917D0420917E
:101BE000780430917904AC01415F5F4F421753078D
:101BF000F0F40E94572D60936A0470936B048093F5
:101C00006C0490936D0482E080936F0480917C0457
:101C100090917D04909379048093780480910F01D2
:101C2000815080930F01803130F585E122C0215F22
:101C30003F4F28173907F8F40E94572D60936A0424
:101C400070936B0480936C0490936D0481E0809397
:101C50006F0480917C0490917D049093790480932B
:101C6000780480910F018F5F80930F01863118F007
:101C700080E180930F0140910D0550910E05609118
:101C80000F05709110058091090590910A05A091AA
:101C90000B05B0910C054A015B0124E1820E911CF9
:101CA000A11CB11C88169906AA06BB0634F50E9431
:101CB000572D609366047093670480936804909333
:101CC000690482E080936E0480910D0590910E0569
:101CD000A0910F05B09110058093090590930A0516
:101CE000A0930B05B0930C0580910E018150809359
:101CF0000E01803188F585E12DC04496A11DB11DEE
:101D000084179507A607B7073CF50E94572D6093E7
:101D1000660470936704809368049093690481E07B
:101D200080936E0480910D0590910E05A0910F0592
:101D3000B09110058093090590930A05A0930B05B7
:101D4000B0930C0580910E018F5F80930E01863158
:101D500018F080E180930E018091C605811105C0C5
:101D600083E180930F0180930E01C0916B05D091A8
:101D70006C05D17059ECE516F10454F468E3E616ED
:101D80006FEFF60644F4A8E3EA2EFF24FA9403C0AA
:101D9000B8ECEB2EF12C013971E017073CF4003759
:101DA0008EEF18072CF400E71EEF02C000E911E0E7
:101DB000D090B90589E10E94520B8D2109F48EC0A3
:101DC00067019AE0C90ED11CD7FE04C06701A1E1EA
:101DD000CA0ED11C63E0D594C7946A95E1F7D194FB
:101DE000C194D1086090CB0540E074E0A72EB12CDF
:101DF000E9E0EE2EF12CFEE17F2E443009F445E0BF
:101E0000E42FF0E0C5018E1B9F0B089F9001099FF6
:101E1000300D189F300D112437FF02C0215C3F4F59
:101E200056E0359527955A95E1F72C0D3D1D275D18
:101E30003F4F22353105F0F5EC0FFD1FC901B70109
:101E40000E94DE33769ED001779EB00D1124EA0FFA
:101E5000FB1FBF016C577109603EB1E07B0728F49E
:101E6000DB01A85ABD4F80588C93662019F18EEF84
:101E7000840F8530F8F4CF01865D9109803E51E0F2
:101E8000950758F4BC01685A7D4F4B01C901B70151
:101E90000E94DE338058D4018C93B297E03EB1E0CB
:101EA000FB0740F4E85AFD4FC901B7010E94DE3339
:101EB000805880834F5F493008F49FCF82E20E94B0
:101EC000520B81110BC0FE01E85AFD4FDF01119743
:101ED00086E28C938CEB81838EE780838091BA05B8
:101EE000882309F4A0C08AE10E94520B882309F4D8
:101EF0009AC0809173058F70909171059F70D92E53
:101F0000492F419560910F0150910E01E82EFF2459
:101F1000E7FCF0949E012E193F0987010C0F1D1F4D
:101F20007EE14702C0011124885A9D4FFC01E20F57
:101F3000F31F6083FC01E00FF11F50834F5FD41645
:101F40007CF7FE01EE19FF09E75AFD4F83E080831D
:101F5000FE01EE0DFF1DE95AFD4F82E08083809166
:101F6000CE05882309F45FC08BE10E94520B8823C1
:101F700009F459C00E94572D80906A0490906B0418
:101F8000A0906C04B0906D0458EE850E53E0951E41
:101F9000A11CB11C681579058A059B05D0F48091B8
:101FA0006F04823059F48EE1D89EC019D1091124F2
:101FB000CE19DF09C85ADD4F89EC0AC09EE1D99ECF
:101FC000C00DD11D1124CE19DF09C85ADD4F8FEC89
:101FD00088830E94572D8090660490906704A0909B
:101FE0006804B0906904A8EE8A0EA3E09A1EA11CB2
:101FF000B11C681579058A059B05A8F480916E04CB
:10200000085A1D4FF801823039F4BEE1DB9EE01919
:10201000F109112489EC06C02EE1D29EE00DF11DDC
:1020200011248FEC8083DF91CF911F910F91FF904E
:10203000EF90DF90CF90BF90AF909F908F907F9068
:102040006F900895AF92BF92CF92DF92EF92FF927E
:102050000F931F938091A10580934D048091A20559
:10206000809361069091BB059923E1F120911101C4
:10207000829F9001112440911001849FA00111249E
:1020800080915004909151048217930710F4622FAD
:1020900009C07A0162E0E61AF1088E159F0508F47E
:1020A0007C016E2D7A0181E0E81AF10800E010E071
:1020B000442737FD4095542F70E080E090E01F9258
:1020C0001F921F92E7E0EF93A12CB12C65010E94B3
:1020D000C33086E9861B809344020F900F900F90C7
:1020E0000F9003C087E9809344020091500410913F
:1020F0005104E0904D04F12C0E151F0520F4809141
:102100007806811127C085E10E94520B811103C01E
:10211000E016F106F8F023E044E065E472E0C8015F
:102120000E94F40989EA8093490210924A02609160
:1021300063057091640571706150710984E492E0E7
:102140001F910F91FF90EF90DF90CF90BF90AF90D5
:102150000C9413091F910F91FF90EF90DF90CF9097
:10216000BF90AF900895CF93DF93C0914E04D0916C
:102170004F0480914C0490E0C817D90720F4809157
:102180007806811121C086E10E94520B8823E1F07C
:102190008FEB8093440223E044E065E472E0CE01DB
:1021A0000E94F40989EA8093490210924A026091E0
:1021B00065057091660571706150710984E492E063
:1021C000DF91CF910C941309DF91CF910895AF92D5
:1021D000BF92CF92DF92EF92FF920F931F938BE00B
:1021E0000E94520B882309F48FC080E2809345023D
:1021F00080911A0190911B0120910A0130910B01ED
:102200002817390720F490930B0180930A0120913D
:102210000C0130910D018217930720F490930D016A
:1022200080930C0120910A0130910B01233038403A
:1022300030F022E038E030930B0120930A01209126
:102240000C0130910D01263B334030F426EB33E096
:1022500030930D0120930C012091960421110BC0A5
:1022600080E2809346029DE2909347029093480259
:102270008093490233C02091AC05222339F020E03D
:1022800044E066E472E00E94F40928C0E0900A018C
:10229000F0900B0100E010E020910C0130910D0155
:1022A00040E050E0BC0180E090E01F921F921F923E
:1022B000E4E6EF93A12CB12C65010E94C330DC0150
:1022C000CB0120E043E066E472E00E94F40985E27D
:1022D000809349020F900F900F900F9088EC80939D
:1022E000440210924A0260914F057091500571703E
:1022F00084E492E01F910F91FF90EF90DF90CF90D8
:10230000BF90AF900C9413091F910F91FF90EF9025
:10231000DF90CF90BF90AF9008958091CC05882337
:1023200009F44EC080915305909154058115924057
:1023300008F446C0809196048823F1F0209162044D
:1023400030916304C9016CE370E00E94CA3380914C
:10235000DA0590E06817790720F0809178068111FE
:102360002FC020318EE0380728F48CE98093440296
:10237000B90116C081E709C06091640470916504D9
:1023800060312EE0720720F48BE98093440208C08C
:1023900080E780934402CB016CE370E00E94CA3373
:1023A00080E090E020E045E452E00E94AE0A6091B7
:1023B000530570915405717084E492E00C941309F4
:1023C0000895CF92DF92EF92FF92C0905C04D0907C
:1023D0005D04E0905E04F0905F04609142047091AF
:1023E000430480E090E00E9410329B01AC01C701E1
:1023F000B6010E94FB32181644F4C701B6010E94D0
:10240000E431709343046093420487E10E94520BCD
:102410008823F1F0C701B6010E94DF31DC01CB0156
:1024200024E045E064E472E00E94F4098AE98093C4
:10243000490210924A0260916705709168057170B7
:1024400084E492E0FF90EF90DF90CF900C9413091A
:10245000FF90EF90DF90CF900895CF93DF9385E2C8
:102460000E94520B8823B1F1C0918305D09184055D
:10247000D170609150047091510480E090E00E940E
:10248000103220915C0430915D0440915E045091C3
:102490005F040E94FF3220E030E048EC52E40E94EA
:1024A00077310E94E431DC01CB0125E045E065E4B1
:1024B00072E00E94F40980E28093440287E58093F1
:1024C000490210924A02BE0184E492E0DF91CF916A
:1024D0000C941309DF91CF91089588E10E94520B6B
:1024E000882321F184EA8093440220E030E044EB29
:1024F00053E4609158047091590480915A0490916A
:102500005B040E9477310E94DF31DC01CB014AE09D
:1025100050E065E472E00E94683460916905709152
:102520006A05717084E492E00C941309089583E1C4
:102530000E94520B882331F18AEB809344024AE0D7
:1025400050E065E472E080915404909155040E943B
:1025500068340E94470BA82FB0E0AC5BBD4F95E2FA
:102560009C938F5FE82FF0E0EC5BFD4F1082609151
:102570005F057091600571706150710984E492E0AB
:102580000C941309089587E00E94520B882381F16F
:102590008091B405882361F1809160049091610479
:1025A0002091B505222381F097FF02C088599E4FE4
:1025B00020E043E064E472E00E94F4098DEB809334
:1025C0004702109248020BC020E044E064E472E04D
:1025D0000E94F4098DEB80934802109249026091A9
:1025E000470570914805717084E492E00C941309DA
:1025F000089588E00E94520B8823F9F08091CA0563
:102600008823D9F08091600490916104880F991F0C
:10261000880F991F83509D4F6AE570E00E94DE335A
:102620006A587A4F8091490590914A05917049E026
:1026300050E0885A9D4F0C945F340895CF93C09119
:102640007504C53020F48091780681111DC080E0AA
:102650000E94520B8823C1F08EE1809344028FE1E7
:10266000809345024AE050E066E472E08C2F90E0EF
:102670000E9468346091390570913A05717084E464
:1026800092E0CF910C941309CF9108950F931F936B
:10269000CF93DF9380918E04882309F465C08091E5
:1026A0009604811104C010927D0410927C04C091A4
:1026B000B60560917C0470917D0480E090E0C111CA
:1026C00007C00E9410322CEB34E743E15DE306C003
:1026D0000E9410322DED3FE347EB5CE30E94FF3296
:1026E0000E94E4318B0180914A0490914B049C013B
:1026F0002C5E3F4F2017310728F430934B04209372
:102700004A0407C08017910720F410934B040093EC
:102710004A0483E00E94520B882331F18091D9054D
:10272000882341F090E08017910720F4809178068B
:1027300081111AC0D0E0C359DE4F888180934402D2
:102740004AE050E065E472E0C8010E94683460919C
:102750003F0570914005717084E492E0DF91CF9164
:102760001F910F910C941309DF91CF911F910F913D
:102770000895AF92BF92CF92DF92EF92FF920F93A4
:102780001F93CF93DF938AE00E94520B882309F4B2
:102790004CC08091C805882309F447C0C0914D05FD
:1027A000D0914E05D170C85ADD4FFE017E978FE75C
:1027B000808388838E8F80919704909198048937C5
:1027C000910534F488382FEF920724F0682F03C066
:1027D00068E701C068E8772767FD7095872F972F16
:1027E0001F921F921F9221E12F93A12CB12C650102
:1027F00018E8E12EFF24FA940FEF1FEF28E730E0EE
:1028000040E050E00E94C330862F66E00E94BC3357
:1028100081502EE18202C00DD11D11248FE8891B49
:1028200088830F900F900F900F90DF91CF911F91A1
:102830000F91FF90EF90DF90CF90BF90AF900895F1
:1028400080918E04882309F184E00E94520B882332
:10285000E1F08091B3058823C1F020E043E064E417
:1028600072E080917604909177040E94F4098DEBD8
:102870008093470210924802609141057091420591
:10288000717084E492E00C941309089580918E0491
:102890008823F1F181E00E94520B8823C9F18091D5
:1028A0008F0490919004A0919104B09192040397A9
:1028B000A105B10520F480917806811129C02091ED
:1028C0003B0530913C05317080916004909161042A
:1028D000845E9D4F4091760450917704841B950B44
:1028E000880F991F880F991F8D966AE570E00E94E6
:1028F000DE33CB0160E170E00E94DE33805A8093CA
:10290000440210924502B90184E492E00C94130948
:102910000895209137012A3061F480913601833087
:1029200009F4C7C0813009F4C7C0823009F4C7C0B8
:10293000B4C02A3008F0B1C030913501313031F5E2
:10294000283019F48AE0809337018091370189306B
:1029500019F487E0809337012091370130E02E5F32
:102960003F4F4EE1429FC001439F900D11240A96B4
:102970002091360130E02150310966E0629FA001CC
:10298000639F500D1124840F951F89C0323021F4AC
:1029900083E08093360104C0333071F43093360104
:1029A000283019F48AE0809337018091370189300B
:1029B00009F057C087E053C0343079F483E0809346
:1029C0003601273019F48AE080933701809137016E
:1029D000893009F046C086E042C0353061F483E0BA
:1029E00080933601293011F43093370180913701FB
:1029F0008630B9F533C080E090E0363099F4293064
:102A000049F480916206883011F48AE001C088E0C0
:102A100080933701209137012093620683E08093F1
:102A2000360121C0373069F483E0809336012930C4
:102A300019F486E08093370180913701873089F45B
:102A40000DC03830D9F483E080933601293011F479
:102A50008093370180913701843019F48AE08093A4
:102A600037012091370130E02E5F3F4F4EE1429F0A
:102A7000C001439F900D1124469611C0393079F45E
:102A800083E080933601293019F487E08093370181
:102A900080913701883029F7E1CF80E090E02091E4
:102AA0007906222379F0FC01E85AFD4F23E02083C8
:102AB00008958AE791E0F3CF8AE691E0F0CF80E7CE
:102AC00091E0EDCF0895DF92EF92FF920F931F9365
:102AD000CF93DF93E8E5F2E08091320290913302E8
:102AE000885A9D4F20E2E817F90711F02193FBCF98
:102AF00061E270E08BE391E00E94130904E111E0D0
:102B0000CFE3D0E04AE050E064E472E0F801819164
:102B100091918F010E946834BE0184E492E00E948A
:102B200013096E96CF32F1E0DF0761F766E370E0DC
:102B30008EE391E00E94130901EB14E0C4E5D0E0BC
:102B40004AE050E064E472E0F801808191810E94E3
:102B50006834BE0184E492E00E9413090C5E1F4FAA
:102B60006E96CA3ED10561F70AE616E0C8E2D0E0EB
:102B700060E3F62E74E4D72EEAE3EE2E20E047E081
:102B800066E472E0F801819191918F010E94F4094D
:102B9000D0924402F0924502E0924602BE0184E4E3
:102BA00092E00E941309F3946E96F4E3FF12E6CFCD
:102BB00068E071E083E491E00E9413094AE050E08C
:102BC00064E472E080915E0690915F060E94683432
:102BD00066E271E084E492E00E9413094AE050E06A
:102BE00064E472E080915C0690915D060E94683416
:102BF00064E471E084E492E00E9413096EEB70E0FB
:102C000087E491E00E9413094AE050E064E472E036
:102C100080911406909115060E94683463EC70E070
:102C200084E492E00E9413096AEF70E08CE491E082
:102C30000E941309809175044AE050E064E472E058
:102C400090E00E9468346FEF70E084E492E00E94AC
:102C5000130968E171E080E591E00E941309809119
:102C600096044AE050E064E472E090E00E94683428
:102C70006DE171E084E492E00E94130966E371E083
:102C800084E591E00E9413094AE050E064E472E0B8
:102C900080911206909113060E9468346BE371E0F4
:102CA00084E492E00E9413096CED70E088E591E005
:102CB0000E9413094AE050E064E472E0809110063B
:102CC000909111060E94683461EE70E084E492E015
:102CD0000E94130964E571E08BE591E00E941309FD
:102CE0000E94AF034AE050E064E472E00E9468345E
:102CF00069E571E084E492E00E9413090E942210C9
:102D0000DF91CF911F910F91FF90EF90DF900C9486
:102D100046142F923F924F925F926F927F928F92C2
:102D20009F92AF92BF92CF92DF92EF92FF920F935A
:102D30001F93CF93DF93CDB7DEB762970FB6F894AA
:102D4000DEBF0FBECDBF8091BD058230A1F040F443
:102D5000813009F0EEC101E010E01C830B8309C053
:102D6000833019F0843039F0E4C122E030E03C8354
:102D70002B831F8206C082E090E09C838B8391E0CE
:102D80009F8380918E04882309F4D3C182E20E943C
:102D9000520B882309F4CDC11E821D82198A1A8A1A
:102DA0009F81AD819A0F9A83892F90E0EB81FC81FE
:102DB0008E179F070CF0BDC1809176049091770427
:102DC000AA81A13069F42091930430919404821B6C
:102DD000930B845E9D4F68E671E00E94CA330CC07D
:102DE00088599E4F2091600430916104821B930B9F
:102DF00068E671E00E94DE339C016AE570E00E94A3
:102E0000DE3361307105C1F03CF4672B29F5BFEF6B
:102E1000B98BE1E0EA8B20C062307105B9F0633014
:102E20007105D1F488E691E0821B930B9C019FEF22
:102E3000998BAFEFAA8B10C0E4EBF0E0E21BF30B31
:102E40009F01F1E0F98B01E00A8B06C0245B310998
:102E500011E0198B4FEF4A8BB901882777FD8095D8
:102E6000982F0E9412322BED3FE049E450E40E947B
:102E7000FF3220E030E044E353E40E9477311B014D
:102E80002C0160918F047091900480919104909135
:102E900092040E9410324B015C01C201B1010E94F8
:102EA00062339B01AC01C501B4010E94FF320E9454
:102EB000E4316B017C01C201B1010E9474319B01BC
:102EC000AC01C501B4010E94FF320E94E4318B01C4
:102ED0009C011B01412C512CB60180E090E0C016F2
:102EE000D10618F44201310102C03B014C01F4E665
:102EF0006F1671048104910490F004EF601601E0F4
:102F000070068104910480F014EC611619E07106DA
:102F10008104910470F0930144E249830EC0A1E260
:102F2000A98324E630E009C0B2E2B98324EF31E09E
:102F300004C0E3E2E98324EC39E079010027F7FCDF
:102F40000095102FE886F9860A871B871F921F922B
:102F50001F9220E1F22EFF92A12CB12C6501E88492
:102F6000F9840A851B8520E030E0A9010E94C33066
:102F70006C877D878E879F871F921F921F920FE01D
:102F80000F93E884F9840A851B8520E030E0A901CD
:102F9000C201B1010E94C3300FB6F894DEBF0FBE6C
:102FA000CDBF34E16316710481049104D8F0AA897D
:102FB0004A2F552747FD5095EC85FD854E9F900182
:102FC0004F9F300D5E9F300D1124F9894F2F5527EB
:102FD00047FD5095469FF001479FF00D569FF00D1D
:102FE000112404C0E0E0F0E020E030E0C0907F0574
:102FF000D090800501E0D022790189010F5F1F4F39
:1030000037FD7801F594E794EC0CFD1CCF0163E0EB
:1030100070E00E94DE334EE1469FC001479F900D55
:103020001124E80EF91E4A81413011F045E001C03B
:1030300044E0C90137FF04C088279927821B930BFE
:10304000A82FA178A7FF03C0A150AE6FAF5F5A2F82
:10305000CF01F7FF04C0882799278E1B9F0B63E0E1
:103060000E94BC338989813019F482E0891B982F32
:10307000BA89BF3F11F451E05A1B3296359718F4C4
:1030800091E0E9899E1B0330110528F451E02F3FA0
:103090003F4F09F450E00A81002311F080ED01C098
:1030A00086ED2091BD05243031F0152F110F150F3D
:1030B000190F180F16C0809160049091610420913F
:1030C000930430919404821B930B8A519D4F68E6C0
:1030D00071E00E94CA336DE270E00E94CA3312E7C9
:1030E000160F2981209344021092450260917D05BC
:1030F00070917E05717084E492E0488B0E94130900
:103100001093440210924502B70184E492E00E94B9
:10311000130948894093440210924502B60184E4A1
:1031200092E00E9413098D819E8101969E838D837A
:1031300037CE62960FB6F894DEBF0FBECDBFDF91DB
:10314000CF911F910F91FF90EF90DF90CF90BF90A4
:10315000AF909F908F907F906F905F904F903F9037
:103160002F9008959C01E62FF0E0E756FA4FE0819A
:10317000F0E0EE0FFF1FE650FF4F85919491B901EB
:103180000C941F09CF92DF92EF92FF920F931F933F
:10319000CF93DF93CDB7DEB7E0970FB6F894DEBFDD
:1031A0000FBECDBFE0913501EE0FFF0BE250FF4F98
:1031B0008591949163E270E00E941F096BE671E0D3
:1031C00084E694E00E941F098091950481110CC04F
:1031D00061E771E08AE594E00E941F096BE771E006
:1031E00083E594E00E941F098091350181118BC015
:1031F00080913E0490913F04A0914004B09141041D
:103200008D839E83AF83B887809144049091450459
:10321000A0914604B091470489879A87AB87BC8701
:103220008091480490914904AA2797FDA095BA2F50
:103230008D879E87AF87B88B80914A0490914B040D
:10324000A0E0B0E0898B9A8BAB8BBC8B20E030E0A8
:1032500044EB53E4609158047091590480915A04EE
:1032600090915B040E9477310E94E4316D8B7E8BDC
:103270008F8B988F80914204909143046AE070E0B4
:103280000E94CA33CB01A0E0B0E0898F9A8FAB8F48
:10329000BC8F02E8E02E01E0F02ECE0101966C0119
:1032A0000DE510E0F70185919491B8010E941F0986
:1032B000F60181919191A191B1916F014AE050E0A5
:1032C00064E472E00E946834B8016F5E7F4F0E9430
:1032D0001309F2E0EF0EF11C025E1F4F0F3281E086
:1032E000180701F760913C0470913D0480E090E084
:1032F00021E044E452E00E94AE0A6DE670E084E40E
:1033000092E00E94130980913501813009F06DC06F
:1033100014E7E12E11E0F12E0DE510E0F7018591A3
:103320009491B8010E941F0992E0E90EF11C025E1F
:103330001F4F0F32E1E01E0789F700E0053019F05A
:10334000073028F001C007E0D02E025001C0D02E77
:10335000FEE10F9F80011124ED2CF12CF701E15DBE
:10336000FA4F80814AE050E064E472E090E00E940D
:103370006834B8016B597F4F0E941309F701EB5D68
:10338000FA4F80814AE050E064E472E090E00E94ED
:103390006834B80165597F4F0E941309F701E55E53
:1033A000FA4F80814AE050E064E472E090E00E94CD
:1033B0006834B8016F587F4F0E94130901E00D0D6A
:1033C000093008F4BBCF67E470E08AE491E00E9422
:1033D00013096DE470E08FE591E00E94130963E545
:1033E00070E081E691E00E941309809135018230FE
:1033F000E9F180913501833009F0E3C00E9438067D
:1034000087E98093440223E044E065E472E0809120
:103410005004909151040E94F40919EA1093490252
:1034200010924A0264E370E084E492E00E9413097F
:103430008FEB8093440223E044E065E472E08091E6
:103440004E0490914F040E94F40910934902109287
:103450004A026CE270E084E492E00E941309A8E55D
:10346000EA2EA1E0FA2E0DE510E04CC080911A057D
:1034700090E09E8F8D8F8091190590E098A38F8F9B
:103480008091180590E09AA389A38091170590E098
:103490009CA38BA38091160590E09EA38DA38091A1
:1034A000150590E098A78FA38091140590E09AA746
:1034B00089A7B6E6EB2EB1E0FB2E6E018DE1C80EBA
:1034C000D11C0DE510E0F70185919491B8010E949F
:1034D0001F094AE050E064E472E0F60181919191A5
:1034E0006F010E946834B8016C5E7F4F0E9413091F
:1034F000F2E0EF0EF11C025E1F4F0F3281E0180761
:1035000011F777CFF70185919491B8010E941F09B7
:1035100092E0E90EF11C025E1F4F0F32E1E01E0740
:1035200089F78091AA054AE050E064E472E090E0F7
:103530000E9468346BEC70E00E94130967E081E739
:1035400090E00E94B2188091A3054AE050E064E444
:1035500072E090E00E9468346FE870E00E94130906
:103560008091A1054AE050E064E472E090E00E949E
:1035700068346DEA70E00E94130961E18BEC90E021
:103580000E94B2188091AB054AE050E064E472E01A
:1035900090E00E94683469EE70E00E941309809107
:1035A000A2054AE050E064E472E090E00E946834D2
:1035B00067E071E00E9413096BE085E291E00E94F0
:1035C000B21880913501843009F072C04AE050E0B1
:1035D00064E472E080915404909155040E94683430
:1035E0000E94470BA82FB0E0AC5BBD4F95E29C93C7
:1035F0008F5FE82FF0E0EC5BFD4F108265E370E039
:1036000084E492E00E941309FCE4EF2EF1E0FF2E27
:103610000DE510E0F70185919491B8010E941F0912
:10362000F2E0EF0EF11C025E1F4F013181E018073E
:1036300089F764E081E790E00E94B21880917C06EF
:10364000882351F04AE050E064E472E090E00E9488
:1036500068346FE870E004C06FE870E083E691E0E2
:103660000E94130965E08DEA90E00E94B21866E0BE
:103670008BEC90E00E94B2184AE050E064E472E003
:1036800080919305909194050E94683469EE70E0F2
:103690000E9413094AE050E064E472E080919105D1
:1036A000909192050E94683467E071E00E941309CE
:1036B00080913501853009F05CC060915C047091A7
:1036C0005D0480915E0490915F040E94DF31DC0113
:1036D000CB0123E044E064E472E00E94F4098AE94B
:1036E000809348021092490264E370E084E492E01F
:1036F0000E941309E2E4EE2EE1E0FE2E0DE510E05B
:10370000F70185919491B8010E941F0992E0E90E9A
:10371000F11C025E1F4F033F110591F76CE081E73A
:1037200090E00E94B2186EE08FE890E00E94B2181C
:103730006FE08DEA90E00E94B2184AE050E064E445
:1037400072E080918F05909190050E9468346BEC37
:1037500070E00E9413094AE050E064E472E0809156
:103760008D0590918E050E94683469EE70E00E948C
:10377000130980913501863009F045C072E3E72EC8
:1037800071E0F72E0DE510E0F70185919491B801F5
:103790000E941F09E2E0EE0EF11C025E1F4F0D3485
:1037A000F1E01F0789F760E281E790E00E94B2181C
:1037B00061E28FE890E00E94B2186DE28DEA90E03D
:1037C0000E94B2186FE18BEC90E00E94B21867E1A2
:1037D00089EE90E00E94B21864E387E091E00E94D5
:1037E000B2186EE285E291E00E94B2188091BD05A8
:1037F0004AE050E064E472E090E00E94683463E4E0
:1038000071E00E94130980913501873009F05AC098
:1038100066E2E62E61E0F62E0DE510E0F7018591F7
:103820009491B8010E941F0982E0E80EF11C025E2B
:103830001F4F013191E0190789F78091B60561E7C3
:1038400070E0811103C085E392E002C081E392E061
:103850000E941F098091BE056FE870E0882319F06F
:1038600088E292E002C083E292E00E941F096CE2CB
:103870008DEA90E00E94B21880917D06882351F075
:103880004AE050E064E472E090E00E9468346BEC3F
:1038900070E004C06BEC70E083E691E00E941309D5
:1038A0008091D3054AE050E064E472E090E00E9429
:1038B000683469EE70E00E94130963E187E091E0EB
:1038C0000E94B21880913501883059F550E2E52EFA
:1038D00051E0F52E0DE510E0F70185919491B801C6
:1038E0000E941F09E2E0EE0EF11C025E1F4F073B33
:1038F000110591F769E281E790E00E94B2186AE24F
:103900008FE890E00E94B2188091C4054AE050E030
:1039100064E472E090E00E9468346DEA70E00E9416
:10392000130980913501893009F04FC08091D70586
:1039300090E09E8F8D8F8091D80590E098A38F8F17
:103940008091D90590E09AA389A38091DA0590E04F
:103950009CA38BA38091AD0590E09EA38DA3809145
:10396000AE0590E098A78FA30DE510E0E12CF12CB7
:10397000D12CF701EE5EFE4F85919491B8010E9423
:103980001F09F6E0DF1699F04AE050E064E472E0C7
:10399000EDE1F0E0EC0FFD1FEE0DFF1D8081918148
:1039A0000E946834B8016C5E7F4F0E941309D39463
:1039B00082E0E80EF11C025E1F4F97E0D912D9CFCA
:1039C00060E185E291E00E94B218809135018A3071
:1039D00014F010923501E0960FB6F894DEBF0FBEDA
:1039E000CDBFDF91CF911F910F91FF90EF90DF90AE
:1039F000CF900C9489140F931F93CF938EE00E9465
:103A0000520B882309F4B4C08091A905882309F4D6
:103A1000AFC080919604811109C080913804826002
:103A2000809338048EE18093390116C0909139015A
:103A3000992369F08091790681119AC080913804A8
:103A400084608093380491509093390105C080912F
:103A5000380481608093380480914D0490E0209177
:103A60005004309151048217930728F08091380454
:103A700080648093380480919F0483FF1CC08091F0
:103A80007504853028F4809138048062809338046E
:103A900080918706811105C08091380480618093F0
:103AA000380480918606811106C0809138048F7C8D
:103AB00088608093380480913904811104C080911A
:103AC00038048093390480913904C82FC195C823E4
:103AD0000E94572D00919006109191062091920618
:103AE000309193060C501E4F2F4F3F4F061717076C
:103AF0002807390798F490913904992329F08C2FDD
:103B000080958923809339040E94572D60939006F5
:103B100070939106809392069093930680E090E0D4
:103B200060E02C2F30E0E82FA901082E02C0559547
:103B300047950A94E2F740FFE62F019688309105F9
:103B400011F06E2FF0CF80913804823088F0F0E0D1
:103B5000EE0FFF1FE95FFA4F859194916091550533
:103B6000709156057170CF911F910F910C941F09A0
:103B7000CF911F910F9108951F93CF93DF931F92C1
:103B8000CDB7DEB7DC01CB01142F642F70E06C5B86
:103B90007D4F4AE050E029830E946834298111302A
:103BA00051F4E091B605F0E0EB59FE4FE20FF11D44
:103BB0008081809344020F90DF91CF911F910895EF
:103BC000CF92DF92EF92FF92CF938091B20588233C
:103BD00009F454C085E00E94520B882309F44EC0BA
:103BE0008091B6058823A9F06091820470918304C6
:103BF00080918404909185040E94123221EA38EF6A
:103C000041E550E40E94FF320E94DF316B017C01EC
:103C100008C0C0908204D0908304E0908404F090A7
:103C20008504C091D805CC23A9F0C701B6012AE0CC
:103C300030E040E050E00E9414348C2F90E0A0E08F
:103C4000B0E0281739074A075B0724F0809178060F
:103C5000811114C020E041E0C701B6010E94BC1DE3
:103C60006091430570914405717084E492E0CF91B6
:103C7000FF90EF90DF90CF900C941309CF91FF90BD
:103C8000EF90DF90CF900895EF920F931F93CF9313
:103C9000DF9380918E04882309F477C00E94E01D91
:103CA00081E10E94520B882309F46FC080919B042C
:103CB00090919C04A0919D04B0919E044091EC05CC
:103CC0005091ED056091EE057091EF0501E010E077
:103CD00020E030E00097A105B10519F000E010E008
:103CE00098010423152326233723012B022B032BB2
:103CF00009F04BC084239523A623B7232091B00558
:103D0000822B892B8A2B8B2B09F43FC0C0915B053A
:103D1000D0915C05D1708AEC8093440260918A0452
:103D200070918B0480918C0490918D0423E5E22E98
:103D30000EE424E045E452E00E94420ABE0184E41D
:103D400092E00E941309C0915D05D0915E05D1708B
:103D50008BEC80934402609186047091870480917B
:103D600088049091890437E5E32E05E424E045E4D6
:103D700052E00E94420ABE0184E492E0DF91CF91BA
:103D80001F910F91EF900C941309DF91CF911F9128
:103D90000F91EF900895CF93DF938091B60588231C
:103DA000A1F060910D0570910E0580910F05909125
:103DB00010050E9412322EEA31E646E05DE30E94D1
:103DC000FF320E94DF31EB010FC060910D05709151
:103DD0000E0580910F059091100524E630E040E03B
:103DE00050E00E941434E90180919604882389F000
:103DF0008091670690916806069758F08091480474
:103E0000909149048C179D0724F4D0934904C093E2
:103E1000480489E00E94520B882351F18091C90522
:103E2000882331F14091D805442371F0CE016AE036
:103E300070E00E94DE33842F90E06817790724F049
:103E400080917806811114C0BE01882777FD809586
:103E5000982F20E041E00E94BC1D60914B057091BD
:103E60004C05717084E492E0DF91CF910C941309BA
:103E7000DF91CF910895CF92DF92EF92FF92CF938F
:103E800080918E04882309F473C08091B60588233D
:103E9000A9F060918F0470919004809191049091A9
:103EA00092040E94103221EA38EF41E550E40E946A
:103EB000FF320E94E4316B017C0108C0C0908F0486
:103EC000D0909004E0909104F0909204809144048A
:103ED00090914504A0914604B09147048C159D052E
:103EE000AE05BF0598F48C599F4FAF4FBF4F8C154F
:103EF0009D05AE05BF0510F46C017D01C092440420
:103F0000D0924504E0924604F092470482E00E9479
:103F1000520B882369F1C091D705CC23A9F0C701C2
:103F2000B60124E630E040E050E00E94F2338C2FEE
:103F300090E0A0E0B0E0281739074A075B0720F0BF
:103F400080917806811114C022E041E0C701B601DA
:103F50000E94BC1D60913D0570913E05717084E426
:103F600092E0CF91FF90EF90DF90CF900C941309E7
:103F7000CF91FF90EF90DF90CF900895E091950161
:103F800081E08E0F80939501F0E0E656FE4F808130
:103F90000895CF93DF930E94BE1FC82FD0E00E94E8
:103FA000BE1F9E01382BC901DF91CF910895CF929A
:103FB000DF92EF92FF920E94C91F6C01E12CF12C5D
:103FC0000E94C91FA0E0B0E0772766276C297D29F1
:103FD0008E299F29FF90EF90DF90CF90089581E088
:103FE000809335018AE08093370183E08093360126
:103FF00010925806109295048091BC05882301F117
:1040000010923E0410923F0410924004109241041A
:1040100010924404109245041092460410924704F2
:10402000109249041092480410924B0410924A04D2
:10403000109243041092420410923D0410923C04EA
:104040000C94010484B714BE809160008861809351
:1040500060001092600026E040E052EC61E070E009
:104060008DE996E00E94842F8091C0008260809349
:10407000C0001092C50080E18093C4008DE996E0F5
:104080000E94FD2E84B18C6284B92498569A52986D
:1040900060E084E10E94322E60E081E10E94322ED5
:1040A00060E081E10E94322E61E087E00E94322EC2
:1040B0000E9482080E94CC050E94920564EF71E084
:1040C00080E090E00E94862D8091BE05882311F04B
:1040D00081E001C083E00E94E92D0E9446090C9412
:1040E0000104CF93C82F682F8DE996E00E941F2FFF
:1040F000909194019C2790939401CF910895CF9330
:10410000DF931F92CDB7DEB799830E94712099810A
:10411000892F0F90DF91CF910C94712060919401C1
:104120008DE996E00C941F2FCF93DF93D82FC62FE5
:1041300064E270E08DE996E00E94A8036DE470E00F
:104140008DE996E00E94A8036CE370E08DE996E0AB
:104150000E94A803109294018C2F0E9471208D2F31
:104160000E947120C11104C0DF91CF910C948E2068
:10417000DF91CF910895EF92FF920F931F93CF930A
:10418000DF9380911305809311056EE18AEC0E9404
:104190009420CFE2D5E055E2E52E55E0F52E0BE177
:1041A00015E089910E947120F70181917F010E94A1
:1041B0007120F80181918F010E947120F5E0C933CF
:1041C000DF0779F70E948E2067E08CEC0E94942034
:1041D00080911A050E947120809119050E9471201A
:1041E000809118050E947120809117050E9471200E
:1041F000809116050E947120809115050E94712002
:10420000809114050E9471200E948E200E94160544
:1042100060E08AEF0E949420DF91CF911F910F916F
:10422000FF90EF900C94EF1F209137012A30C9F4D2
:10423000809136018330A9F48091690682301CF0A8
:1042400081E080936906809169068F3F1CF48FEFAF
:10425000809369068091350190916906890F80935A
:1042600035018091350187FF03C089E080933501D6
:10427000809135018A3014F010923501309135016A
:10428000313019F5EFEFE20FE73008F05EC226306B
:1042900010F0E1E0E20F80913601823049F0833086
:1042A00081F0813009F051C2F0E0E15DFA4F03C0C6
:1042B000F0E0EB5DFA4F808190916906890F808371
:1042C00044C2F0E0E55EFA4FF6CF3230E9F5809176
:1042D0003601833009F039C2822F90E0FC0131971A
:1042E000E730F10508F031C2EC5CFF4F4091690600
:1042F0000C94333480911A05840F80931A0525C2DB
:1043000080911905840F809319051FC280911805AB
:10431000840F8093180519C280911705840F80932C
:10432000170513C280911605840F809316050DC2E0
:1043300080911505840F8093150507C2809114059F
:10434000840F8093140501C2333009F049C0809175
:104350003601833009F0F9C1822F90E0FC013197DA
:10436000E730F10508F0F1C1E55CFF4F0C94333400
:1043700081E09091A005911180E08093A005E5C1B6
:10438000809169069091A305890F8093A305DDC1F3
:10439000809169069091A105890F8093A105D5C1EF
:1043A00081E09091AA05911180E08093AA05CDC18A
:1043B000809169069091AB05890F8093AB05C5C1CB
:1043C000809169069091A205890F8093A205BDC1D5
:1043D00081E09091A405911180E08093A405B5C17E
:1043E000343009F04DC080913601833009F0ADC101
:1043F000233039F148F42130E1F0223009F0A5C131
:104400008FE080937C060895253059F110F1263015
:1044100009F09BC1209169068091910590919205C8
:10442000820F911D27FD9A95909392058093910597
:10443000089581E090919D05911180E080939D0504
:10444000089581E090919E05911180E080939E05F2
:10445000089581E090919F05911180E080939F05E0
:1044600074C1209169068091930590919405820F03
:10447000911D27FD9A959093940580939305089537
:10448000353009F048C080913601833009F05DC1B4
:10449000233051F128F42130B9F02230E9F055C130
:1044A000243051F1253009F050C1209169068091E6
:1044B0008D0590918E05820F911D27FD9A95909301
:1044C0008E0580938D05089581E09091A505911149
:1044D00080E08093A505089581E09091A705911152
:1044E00080E08093A705089581E09091A80591113F
:1044F00080E08093A80508952091690680918F053A
:1045000090919005820F911D27FD9A9590939005AB
:1045100080938F050895363009F051C0809136019F
:10452000833009F012C1822F90E0FC013197E8300E
:10453000F10508F00AC1EE5BFF4F0C94333481E0C3
:104540009091B905911180E08093B905FEC081E09A
:104550009091BA05911180E08093BA05F6C081E090
:104560009091C605911180E08093C605EEC081E070
:104570009091B805911180E08093B805E6C081E084
:104580009091B005911180E08093B005DEC081E08C
:104590009091CD05911180E08093CD05D6C081E04A
:1045A0009091C705911180E08093C705CEC080919E
:1045B00069069091BD05890F8093BD05C6C037304F
:1045C00009F03FC080913601833009F0BEC023302E
:1045D000E1F028F4213049F0223079F0B6C02530DE
:1045E00001F1D8F0263029F1B0C081E09091B605F4
:1045F000911180E08093B605089581E09091BE0509
:10460000911180E08093BE05089581E09091C505E9
:10461000911180E08093C50508958AE080937D061E
:1046200094C0809169069091D305890F8093D3053A
:10463000089581E09091AC05911180E08093AC05E4
:1046400008953830B9F580913601833009F07DC086
:10465000223069F0233099F0213009F076C081E0F2
:104660009091C205911180E08093C205089581E088
:104670009091C305911180E08093C30508959091B6
:104680006906913029F48091C405823848F0089574
:104690009F3F09F069C08091C405882309F464C074
:1046A000892F880F880F890F9091C405890F8093F7
:1046B000C4050895393009F048C08091360183302F
:1046C00009F043C0822F90E0FC013197E730F105FB
:1046D000E0F5E65BFF4F0C943334809169069091CE
:1046E000D705890F8093D705089580916906909129
:1046F000D805890F8093D805089580916906909117
:10470000D905890F8093D905089580916906909104
:10471000DA05890F8093DA050895809169069091F2
:10472000AD05890F8093AD0508958091690690913C
:10473000AE05890F8093AE05089581E09091A9059B
:10474000911180E08093A90508952A3069F430938F
:10475000340180913601813019F0823019F00895CA
:104760000C94EF1F0C94BB2008950F931F93CF93CD
:104770008091160190911701855195408F38914095
:10478000C8F48091140190911501855195408F389E
:10479000914080F4809118019091190185519540C4
:1047A0008F38914038F410928A0188EE93E0A0E0AF
:1047B000B0E025C080918A01813049F50E94572DD3
:1047C0000091820110918301209184013091850133
:1047D000601B710B820B930B009186011091870176
:1047E000209188013091890106171707280739079A
:1047F00010F410928A018CE291E0A0E0B0E0809386
:10480000860190938701A0938801B09389018091DC
:104810008A018111DEC000911601109117012091CB
:1048200058060B3337E0130740F18091180190913F
:1048300019018B33974008F180911A0190911B0167
:104840008F379440D0F02111B6C0809167069091C7
:104850006806069708F4AFC0809196048111ABC03A
:1048600082E080938A0181E0809358068091340130
:10487000809335010E9401049EC0222309F49BC04D
:10488000C09169061092690680919504882361F0B1
:1048900080911A0190911B018531954028F082E0AA
:1048A00080938A010E94EF1F30915806332309F448
:1048B0004DC080911401909115018B3327E0920730
:1048C00078F081E080938A01809136018F5F809338
:1048D0003601843008F46FC083E0809336016BC0EA
:1048E0008E37944068F491E090938A01809136016C
:1048F00081508093360181115EC0909336015BC078
:104900000B3387E0180788F091E090938A0180913B
:104910003701815019F08093370102C0909337011D
:1049200080913501811147C00DC00E37144070F4DD
:1049300081E080938A01809137018F5F80933701F6
:104940008B30C8F18AE08093370135C0809195049F
:10495000811131C0332379F12C2FC6300CF025E0C2
:104960002B3F0CF42BEF80911801909119018E3799
:1049700034E0930738F481E080938A01215020933A
:10498000690617C08B339740B0F081E080938A01AD
:104990002F5F2093690680913501893051F4809111
:1049A0003601833031F480913701853011F4109253
:1049B0007D060E94142180918A01813051F40E9469
:1049C000572D6093820170938301809384019093AB
:1049D0008501CF911F910F9108951F93CF93DF937E
:1049E0006FE18CED0E94942089E00E9471201AE012
:1049F000C0911C06D0911D06CE010E94A603809393
:104A00001B06CE010E947F2080911B060E94712010
:104A100080911C0690911D06019690931D0680932F
:104A20001C06115029F7DF91CF911F910C948E2015
:104A300063E08CED0E94942089E00E9471208091B7
:104A40001C0690911D060E947F200C948E20CF9210
:104A5000DF92EF92FF920F931F93CF93DF9380919A
:104A60008C0690918D06019690938D0680938C060E
:104A70001092950183E080938606809197018C3D8A
:104A800009F0FDC00E94BE1F893059F582E0809375
:104A900088060E94BE1FC82FD0E0D0931D06C09389
:104AA0001C060E94BE1FC80FD11DD0931D06C093C7
:104AB0001C060E94BE1F80931B0681E080931A068D
:104AC0000E94572D6854744F8F4F9F4F6093160666
:104AD0007093170680931806909319060E94ED2490
:104AE000CEC0883009F055C082E0809388061AE075
:104AF00001E00E94BE1FC82FD0E0D0931D06C093D6
:104B00001C060E94BE1F282F30E0322F22272C0FB8
:104B10003D1F30931D0620931C060E94BE1F8093EC
:104B20001B0600931A060E94572D6854744F8F4F2E
:104B30009F4F609316067093170680931806909304
:104B4000190660911B0680911C0690911D060E941B
:104B5000A4036DE080E090E00E94A40380911C0615
:104B600090911D068935910519F08F34914011F40B
:104B70000E949205115009F0BCCF80911C069091C3
:104B80001D06019690931D0680931C060E94182511
:104B900076C08730E9F5109289066BE08CED0E94B3
:104BA000942087E00E947120C1EBD4E08881998134
:104BB000F3E096958795FA95E1F70E947F20649639
:104BC00085E0C531D80791F70E948E206DE08CED0D
:104BD0000E9494208AE00E94712081E090E00E946F
:104BE0007F2081E090E00E947F208EEA96E00E9484
:104BF0007F2081E090E00E947F2080E090E00E9492
:104C00007F2081E090E00E947F200E948E2037C0AC
:104C1000833049F580919801853081F40E94C91F45
:104C200080329D4161F50E94BE1F809320060E9444
:104C3000BE1F80931F060E94E20321C08833F9F44F
:104C4000C1E2D6E00E94BE1F8993B6E0C735DB07FC
:104C5000C9F70E94BE1FC82F0E94A009CF3F79F458
:104C60000E9446090CC0863029F40E94FD080E946B
:104C7000CC0502C0853019F481E0809374068091E0
:104C80009701843641F481E0809372060E94BE1F32
:104C900080939A044BC08536D9F50E94C91F909322
:104CA0006606809365060E94C91F909364068093F0
:104CB00063060E94C91F9093A00480939F040E94E2
:104CC000D71F60939B0470939C0480939D049093E2
:104CD0009E042091E505C22ED12CE12CF12CC62298
:104CE000D722E822F92221E0CD28CE28CF2809F4C6
:104CF00020E0209396040E94BE1F8093130590919C
:104D00005806911113C080931105809312050EC0AF
:104D1000893661F4C4E1D1E00E94C91F8993999357
:104D2000E1E0C432DE07C1F70E94B523809197010C
:104D30008A3609F056C085E0809387060E94BE1F20
:104D4000882319F081E080938E040E94BE1F809317
:104D500075040E94D71F60938A0470938B0480931C
:104D60008C0490938D040E94D71F609386047093E7
:104D7000870480938804909389040E94C91FA0E04F
:104D8000B0E02091960421110BC080937E04909393
:104D90007F04A0938004B093810421E020935B06FC
:104DA00040917E0450917F04609180047091810451
:104DB000841B950BA60BB70B8093820490938304FE
:104DC000A0938404B09385040E94C91F90937D042E
:104DD00080937C040E94C91F90937B0480937A0483
:104DE000BAC18B3699F40E94C91FA0E0B0E080934D
:104DF0008F0490939004A0939104B09392040E9426
:104E0000C91F9093770480937604A5C1893759F41C
:104E10000E94BE1F0E94BE1F0E94BE1F0E94BE1F96
:104E20008093740498C18C36A9F40E94C91F909392
:104E30000605809305050E94C91F9093080580937D
:104E400007050E94C91F843B91050CF480C1885658
:104E500091407DC18D3689F40E94D71F60930D0566
:104E600070930E0580930F05909310050E94C91F43
:104E700090939804809397046EC18E36B9F40E9483
:104E8000BE1F809399040E94C91F9093730480935E
:104E900072040E94C91F90937104809370040E9451
:104EA000C91F909357048093560455C18F3631F52E
:104EB0000E94BE1F80931A050E94BE1F8093190591
:104EC0000E94BE1F809318050E94BE1F8093170585
:104ED0000E94BE1F809316050E94BE1F8093150579
:104EE0000E94BE1F80931405809140029091410260
:104EF000A0914202B09143029D7F24C0803759F5B2
:104F0000CFE2D5E005E215E0EBE1EE2EE5E0FE2E86
:104F10000E94BE1F89930E94BE1FD8018D938D01F0
:104F20000E94BE1FF70181937F01F5E0C933DF07BF
:104F300079F78091400290914102A0914202B09194
:104F400043029B7F8093400290934102A0934202D0
:104F5000B093430200C1873709F0FDC081E0809320
:104F60007306C09198018BE2E5EEF5E0DF011D923A
:104F70008A95E9F7C12CD12C7601C394CC2309F48E
:104F8000EAC00E94BE1F992787FD9095A92FB92FCF
:104F90008D31910508F0D5C0FC01EF5AFF4F0C94FC
:104FA00033348091E5058C298093E505CAC0809152
:104FB000E6058C298093E605C4C08091E7058C291D
:104FC0008093E705BEC08091E8058C298093E805B1
:104FD000B8C08091E9058C298093E905B2C0809121
:104FE000EA059091EB058C299D299093EB05809320
:104FF000EA05A7C08091EC059091ED05A091EE0522
:10500000B091EF058C299D29AE29BF298093EC052D
:105010009093ED05A093EE05B093EF0592C08091BB
:10502000F0059091F105A091F205B091F3058C295E
:105030009D29AE29BF298093F0059093F105A09397
:10504000F205B093F3057DC08091F4059091F505CC
:10505000A091F605B091F7058C299D29AE29BF29AD
:105060008093F4059093F505A093F605B093F705AA
:1050700068C08091040690910506A0910606B09143
:1050800007068C299D29AE29BF2980930406909399
:105090000506A0930606B093070653C0809100064C
:1050A00090910106A0910206B09103068C299D29DA
:1050B000AE29BF298093000690930106A0930206B3
:1050C000B09303063EC08091080690910906A09116
:1050D0000A06B0910B068C299D29AE29BF29809321
:1050E000080690930906A0930A06B0930B0629C000
:1050F00080910C0690910D06A0910E06B0910F06BE
:105100008C299D29AE29BF2980930C0690930D060A
:10511000A0930E06B0930F0614C08091F8059091ED
:10512000F905A091FA05B091FB058C299D29AE29BE
:10513000BF298093F8059093F905A093FA05B093E1
:10514000FB05CC0CDD1CEE1CFF1CC15017CF90934F
:10515000610480936004DF91CF911F910F91FF90C4
:10516000EF90DF90CF900895FF920F931F93CF930E
:10517000DF93F82E8DE996E00E94A12E21E0892B85
:1051800009F420E0C5E0D0E004E010E0213009F0AF
:1051900077C08DE996E00E94BA2E20918E0630915C
:1051A0008F062F5F3F4F30938F0620938E062091FE
:1051B0008001309181012115310529F421E030E091
:1051C000843289F412C02130310529F48D3459F428
:1051D00022E030E00AC02230310561F48E3319F448
:1051E00023E030E002C020E030E0309381012093E2
:1051F00080013EC02330310559F4873960F5809332
:10520000980110938101009380018093960130C032
:105210002430310571F4D0938101C09380018093D3
:105220009701909196019827909396011092990179
:105230001FC025303105E1F4909196019827909395
:105240009601E091990120919801E21309C0911112
:1052500002C00E942725109281011092800108C08F
:1052600091E09E0F90939901F0E0E656FE4F808307
:105270008DE996E00E94A12E892B11F0F11089CFC3
:10528000DF91CF911F910F91FF900895CF92DF9200
:10529000EF92FF920E94572D6B017C0188E2C80EAD
:1052A000D11CE11CF11C81E080933002809130021E
:1052B000882371F00E94572DC616D706E806F90616
:1052C00018F410923002F2CF80E00E94B428EECFA2
:1052D000FF90EF90DF90CF900895FF920F931F9370
:1052E000CF93DF935E9860E085E00E94370960E02D
:1052F00086E00E94370961E084E00E9437090E943D
:10530000462908E512E0C0E0D0E0B0E2FB2E809133
:10531000320290913302C817D90778F4C03FD10503
:1053200011F40E944629F801608187E00E94370944
:10533000F801F1928F012196EACF6FEF87E00E948A
:10534000370960E084E00E9437095E9ADF91CF91CF
:105350001F910F91FF900895CF92DF92EF92FF92ED
:105360000F931F931092380480918A0690918B06B8
:10537000019690938B0680938A0680917406811122
:105380000E94F503E091D305E093380110925A068C
:105390008091D2058823A1F0F0E0EE0FFF1FEE5EB2
:1053A000FE4F80819181813426E0920710F081E0E8
:1053B00004C089379540E0F082E080935A0618C017
:1053C0008091000690910106A0910206B09103061B
:1053D00040919B0450919C0460919D0470919E04A7
:1053E00084239523A623B723892B8A2B8B2BF9F6AD
:1053F00090915A068091590698130E944A0580910F
:105400005A068093590680917606863010F061E046
:1054100001C060E087E00E946B2E0E94572D6B0157
:105420007C018091380290913902A0913A02B091AA
:105430003B02B701A601481B590B6A0B7B0B443694
:1054400051056105710508F449C08C599F4FAF4F54
:10545000BF4F8093380290933902A0933A02B093E1
:105460003B02809176068F5F809376068091770667
:105470008F5F8093770681E090917906911180E0AB
:10548000809379060E94CB048091A7058823D1F0F0
:1054900020915C0430915D0440915E0450915F0462
:1054A000609158047091590480915A0490915B0462
:1054B0000E940C31609358047093590480935A04ED
:1054C00090935B0480915706811108C080918806F3
:1054D000811104C060E08CE60E9494208091340227
:1054E00090913502A0913602B0913702C81AD90ABC
:1054F000EA0AFB0A22E3C216D104E104F10408F42B
:10550000C2C1C296A11DB11D809334029093350291
:10551000A0933602B093370280913C0290913D02F5
:10552000A0913E02B0913F02892B8A2B8B2B81F4F4
:105530008091400290914102A0914202B0914302B9
:1055400080933C0290933D02A0933E02B0933F02B1
:1055500000913C0210913D0220913E0230913F02A9
:1055600088279927DC01801B910BA20BB30B8023AA
:105570009123A223B323AC01BD01409550956095C2
:105580007095402351236223732340933C02509330
:105590003D0260933E0270933F02811521E0920725
:1055A000A105B10509F458C028F588309105A10579
:1055B000B10509F44BC068F481309105A105B1052E
:1055C00009F442C00297A105B10509F069C085E65A
:1055D0006AC080329105A105B105E1F180389105DD
:1055E000A105B105A9F14097A105B10509F058C081
:1055F0008DE659C0811520E19207A105B105B1F1F1
:1056000098F4811524E09207A105B10559F181159F
:1056100028E09207A105B10539F181159240A10555
:10562000B105F1F58FE63FC0009721E0A207B10573
:10563000A9F0009724E0A207B10591F081159048E8
:10564000A105B10569F514C084E62DC089E62BC01B
:105650008AE629C08BE627C08EE625C082E723C0F4
:105660008BE321C080E71FC087E71DC08CED1BC006
:105670008091080690910906A0910A06B0910B0648
:1056800040919B0450919C0460919D0470919E04F4
:1056900084239523A623B723892B8A2B8B2B11F4E4
:1056A00080E001C089E790915706911109C090915F
:1056B0008806911103C060E00E9494200E946D2929
:1056C0000E94380680919604882349F081E08093F7
:1056D000950480915806813011F40E94EF1F80914B
:1056E0009504882381F08091960481110CC010925A
:1056F00035018AE08093370181E080933601809301
:1057000058060E94010480915806882319F00E94CF
:10571000C218B9C00E94010480919F0480FF0AC092
:105720006091070570910805809105059091060527
:105730000E946A0D8091A00581110E942210809123
:10574000AA0581110E94B31080919D05882379F0EC
:1057500080919C0590E0209154043091550482176B
:1057600093071CF08091780681110E949712809116
:10577000A505882321F120E030E040E251E460916A
:105780005C0470915D0480915E0490915F040E94BE
:1057900077316B017C016091AE0570E080E090E0B4
:1057A0000E9412329B01AC01C701B6010E94703108
:1057B00087FD03C08091780681110E94E1118091DC
:1057C000A705882349F00E94BF03882309F422C15A
:1057D0008091780681111EC10E948D110E942D12A8
:1057E0000E94FB1C8091B80581110E94E7108091F6
:1057F00064049091650420917A0630917B06A9019A
:10580000445C5F4F48175907A0F4205C3F4F2817AE
:10581000390720F490937B0680937A068091C10526
:10582000882339F0809187059091880591700E94B6
:10583000590D80919F0482FF04C00E94F9120E94BA
:10584000C31280919F0481FF04C00E94CB1E0E945E
:10585000B91380919F0483FF12C08091AF05882304
:1058600071F00E941E130E9446140E943B1F0E946A
:1058700020140E9446130E94441E0E9489160E9412
:10588000620B0E94631580917706853048F0109274
:10589000770681E090917806911180E080937806F8
:1058A0000E94572D00918206109183062091840654
:1058B0003091850608511C4F2F4F3F4F0617170791
:1058C0002807390708F09DC00093820610938306CD
:1058D00020938406309385061092760680918A067E
:1058E00090918B06909315068093140610928B0668
:1058F00010928A0680918C0690918D0690931306E3
:105900008093120610928D0610928C0680918E065E
:1059100090918F06909311068093100610928F0637
:1059200010928E0680916404909165040196909384
:1059300065048093640480915706811102C00E941F
:10594000DE0980918706811103C01092750403C09F
:1059500081508093870680918606882319F08150B4
:105960008093860680918806882319F08150809361
:10597000880680919604811109C0809160049091FD
:105980006104909394048093930416C08091620400
:1059900090916304019690936304809362048091D4
:1059A0003C0490913D04019690933D0480933C0407
:1059B000109258060E940104809167069091680633
:1059C0000196909368068093670680917D068130EA
:1059D00051F480915806882331F060E08EEC0E94EB
:1059E000942010927D0680917D06882319F08150C5
:1059F00080937D0680917C06882319F081508093E6
:105A00007C0681E01F910F91FF90EF90DF90CF9087
:105A10000C94B4280E946D12DFCE1F920F920FB625
:105A20000F9211242F933F938F939F93AF93BF9324
:105A30008091950690919606A0919706B091980650
:105A40003091940623E0230F2D3720F40196A11DF9
:105A5000B11D05C026E8230F0296A11DB11D20939C
:105A600094068093950690939606A0939706B0931C
:105A700098068091990690919A06A0919B06B09104
:105A80009C060196A11DB11D8093990690939A06DC
:105A9000A0939B06B0939C06BF91AF919F918F916D
:105AA0003F912F910F900FBE0F901F9018952FB719
:105AB000F894609195067091960680919706909162
:105AC00098062FBF08953FB7F8948091990690915A
:105AD0009A06A0919B06B0919C0626B5A89B05C08E
