:100000000C9430030C946D0C0C9462030C946203FA
:100010000C94F0070C9462030C9462030C9462033A
:100020000C9462030C9462030C9462030C946203BC
:100030000C9462030C9462030C9462030C946203AC
:100040000C9457260C9462030C9430290C9462296A
:100050000C9462030C9462030C9462030C9462038C
:100060000C9462030C946203AC0BA60BB50BBF0B94
:10007000D10BE60B120C380C420C084AD73B3BCE96
:10008000016E84BCBFFDC12F3D6C74319ABD568397
:100090003DDA3D00C77F11BED9E4BB4C3E916BAA4F
:1000A000AABE000000803F05A84CCDB2D44EB9389E
:1000B00036A9020C50B9918688083CA6AAAA2ABE85
:1000C000000000803F0024505542582C34312C3120
:1000D0002C303030332C303030312C31313532301F
:1000E000302C302A31450D0A00B56206010300F0BC
:1000F0000500FF19B56206010300F00300FD15B508
:100100006206010300F00100FB11B5620601030065
:10011000F00000FA0FB56206010300F00200FC13C4
:10012000B56206010300F00400FE17B56206010384
:10013000000102010E47B562060103000103010F31
:1001400049B56206010300010601124FB5620601BE
:1001500003000112011E67B56206160800030703BB
:1001600000510800008A41B56206080600C8000177
:10017000000100DE6A18041C04F0039C034E030E09
:1001800003C2026C022402160209020302FD01F4FA
:1001900001EF01E301660258024A02420238022BD3
:1001A00002BA02B002A10298028D0285027E027597
:1001B000020103F502E202D602CA0241033803FB40
:1001C0000316032B031E0389037C036B0359037C73
:1001D000035303FB03E703DA03CD03C003B603AD08
:1001E00003A4035445585420414C41524D530041FF
:1001F0004D5053004D414820583130300054494D46
:10020000455200535045454400414C5449545544CF
:1002100045205831300044495354414E43452058FD
:1002200031303000414C41524D53005448524F54EC
:10023000544C452050574D004F53442054582043B0
:1002400048004D41472043414C004445425547003A
:10025000312E315600355600562052454600494D44
:1002600050004D455400554E4954530041445641A9
:100270004E434544004D4150204D4F4445004749B1
:100280004D42414C0053454E534F5253004750533B
:1002900020434F4F524453005448524F54544C45FE
:1002A000005343524F4C4C494E4720424152530059
:1002B00053494445204241525300484F52495A4FF6
:1002C0004E00444953504C41590041444A555354FF
:1002D000205A45524F0041444A55535420414D50F5
:1002E0005300555345205649525455414C205345CF
:1002F0004E534F5200444953504C4159204D4148B0
:1003000000444953504C415920414D5053004355EE
:100310005252454E54005553452050574D005345B9
:10032000542052535349204D494E005345542052B6
:10033000535349204D41580053455420525353497B
:1003400000444953504C4159205253534900525391
:1003500053490043454C4C5300444953504C415978
:100360002056494420564F4C5453004D41494E208D
:10037000564F4C545320414C41524D0041444A5534
:10038000535420564F4C545300444953504C4159F8
:10039000204D41494E20564F4C545300564F4C541B
:1003A000414745004D415820414D5053004D414873
:1003B0002055534544004D41582053504545440075
:1003C0004D415820414C544954554445004D4158E5
:1003D0002044495354414E434500544F542044490E
:1003E0005354414E434500464C592054494D450015
:1003F000535441544953544943530055534520469F
:1004000043003C504147453E00534156452B45581B
:1004100049540045584954004F4646004F4E00533A
:10042000044A04380427044E4F542044455445439D
:100430005445442D50414C004E4F542044455445A2
:10044000435445442D4E545343004155544F2D5071
:10045000414C004155544F2D4E5453430076046D8A
:10046000046D046D046D046D0472046E0400534940
:100470003A0049443A004D572D4F5344202D205205
:10048000312E372E3100F304D104CA04EB04E30407
:10049000DA04A4049E04F304C104B704AE04444582
:1004A000425547004C4F5720564F4C545300204D57
:1004B000495353494F4E004155544F20484F4C44E7
:1004C000004155544F20525448002041524D45445C
:1004D0000044495341524D4544004C4F572053412D
:1004E000545300204E4F20475053004E4F2044415C
:1004F000544100001D1A1D1C1D191D1C1D1B1D1C17
:100500001D181D1C1D1A1D1C1D191D1C1D1B1D2029
:10051000007BC12A002100900054002400720027B3
:10052000003500CB0060017EC17EC137C110011DC6
:100530000102000F004C01F2006BC12FC175017F59
:1005400001C200BB00BB00030007007A0055010692
:10055000015C003400C50064005701BA001801DCDA
:10056000C020C034C036C0B7C090C054C024C072D0
:10057000C028C0CBC0CAC060C17EC17EC137C11017
:10058000011D0102C00FC04DC1F3C06BC12FC1716D
:10059000C178C1C2C0BBC0BBC0030007007AC05550
:1005A000C106C15CC03400C30064C05301BA001866
:1005B000C1DCC000000000960000000004F40158F7
:1005C000020D00003C000000018A04C80000000089
:1005D000000100C8003264010101000000010000B8
:1005E0000001010000010000010000000000010105
:1005F00001010100010100040000000500010000EC
:1006000000001E4D574F53440020202020000000C2
:1006100008000201000003040700000000000000C1
:10062000000102040810204080010204081020018B
:100630000204081020040404040404040402020256
:100640000202020303030303030000000025002845
:10065000002B0000000000240027002A000092293F
:10066000E1EAF7E085EA98E001C08193EF3FF907FE
:10067000E0F3D9F311241FBECFEFD8E0DEBFCDBF2A
:1006800011E0A0E0B1E0EEE7FDE502C005900D92BB
:10069000AA36B107D9F727E0AAE6B1E001C01D925A
:1006A000A13AB207E1F716E0C0E6D6E004C022970F
:1006B000FE010E94342ECE35D107C9F70E94D629FB
:1006C0000C94BD2E0C9400000C949F2E0C94972E2D
:1006D000DC01ED91FC910190F081E02D0994609195
:1006E0001205709113056115710581F420E030E069
:1006F00044EB53E46091F8047091F9048091FA049A
:100700009091FB040E94232B0E948B2B20912406A6
:1007100084E6289F9001112481E0261737070CF00A
:1007200080E008958091360581110EC08091CF063A
:1007300081110AC08091CE06811106C080E88093A5
:10074000950681E08093CE06089584B7877F84BFA5
:100750008091600088658093600081E480936000F0
:10076000FFCF8091CE06882329F080E090E1A0E0C1
:10077000B0E05AC08091CF06882329F08FE996E037
:10078000A4E0B0E051C08AE090E0A0E0B0E0809347
:10079000C7029093C802A093C902B093CA022091E5
:1007A0003E0521FF0CC08AE190E0A0E0B0E080931C
:1007B000C7029093C802A093C902B093CA02809165
:1007C000D906813089F08091C7029091C802A0912A
:1007D000C902B091CA0281608093C7029093C80297
:1007E000A093C902B093CA0223FF11C08091C7022F
:1007F0009091C802A091C902B091CA02806A809308
:10080000C7029093C802A093C902B093CA02809114
:100810005C06811111C08091C7029091C802A0911D
:10082000C902B091CA0298608093C7029093C8022F
:10083000A093C902B093CA0280911B06811104C023
:1008400080911506882389F08091C7029091C80293
:10085000A091C902B091CA0291608093C70290939F
:10086000C802A093C902B093CA028091C3029091BA
:10087000C402A091C502B091C6024091C702509136
:10088000C8026091C9027091CA0284239523A623ED
:10089000B7238093C3029093C402A093C502B09380
:1008A000C602089580912E058823A1F18091360516
:1008B000882381F160911C0570911D0561157105FA
:1008C00049F120912D0680E090E0222339F00E942A
:1008D000BC2B21EB32E047E55BE306C00E94BC2B5A
:1008E0002FE632E143E85AE30E94D72C9B01AC018A
:1008F0006091710170917201809173019091740106
:100900000E94562A60937101709372018093730163
:1009100090937401609171017091720180917301E3
:10092000909174010E94902B6093DE047093DF0419
:100930008093E0049093E1040895DF92EF92FF9298
:100940000F931F93CF93DF930091D10682E5089F09
:1009500080011124D0902E06C0EBD5E0065A1F4F1F
:10096000C8010E946603E82EF12CF982E882C801D2
:1009700001960E946603282F30E0322F22272E0D89
:100980003F1D39832883DD2089F0C90191708739A3
:10099000910560F0A901425E5F4F59834883813F12
:1009A000910520F0245C3F4F398328830E5F1F4F51
:1009B000229686E0C230D80799F6DF91CF911F9139
:1009C0000F91FF90EF90DF900895EF92FF920F93B9
:1009D0001F93CF93DF9300E116E0C0E0D0E0CE019B
:1009E0000E946603F80181938F012196CC34D105D2
:1009F000B1F702E016E0CCE4D0E0CE010E94972EE1
:100A0000E82EF12CF801F182E082CE0101960E94DD
:100A1000972E282F30E0322F22272E0D3F1DF80170
:100A2000219331938F012296CA35D10531F7DF9199
:100A3000CF911F910F91FF90EF900C949D04EF9236
:100A4000FF920F931F93CF93DF9380E090E00E947B
:100A500066038D3009F458C0C0E0D0E0FE01EF53CA
:100A6000FA4F6491CE010E9464032196CC34D105E3
:100A7000A9F7CCE4D0E0FE01E959FA4F05911491B1
:100A8000602FCE010E946403612FCE0101960E9467
:100A900064032296CA35D10571F7CAE5D0E0CE01CC
:100AA000895F9A4F7C01FC0105911491602FCE0162
:100AB0000E946403612FCE0101960E946403FE012F
:100AC000EB54FB4F05911491602FCE018E5A9F4F2E
:100AD0000E946403612FCE018D5A9F4F0E946403D0
:100AE000F70105911491602FCE018C559F4F0E9404
:100AF0006403612FCE018B559F4F0E9464032296A1
:100B0000CE3FD10509F0CBCFDF91CF911F910F914F
:100B1000FF90EF9008954F925F926F927F92AF9205
:100B2000BF92CF92DF92EF92FF920F931F93CF93DA
:100B3000DF934AE1E42E41E0F42E00E515E0C0E049
:100B4000D0E05AE0D52ED7018D917D010E94362745
:100B500020917001C11108C030911B06332339F177
:100B60008091390590E023C0C43009F53091160614
:100B70003323A9F08091F2049091F3049595879521
:100B8000009769F4DC9EF001DD9EF00D1124E20F68
:100B9000F11DEE0FFF1FE05CFA4F808191813091D3
:100BA0001506332321F08091100590911105DC9EEC
:100BB000F001DD9EF00D1124E20FF11DEE0FFF1F7D
:100BC000E05CFA4FD8012D913C9111974081518101
:100BD000241B350B11963C932E9320813181280FD5
:100BE000391F36952795318320838D919C911197DC
:100BF000820F931F8D939C9321960C5E1F4FC530DF
:100C0000D10509F0A0CF80911B066091500570912D
:100C10005105C0913506811134C080E090E0D0913B
:100C20001A06C11115C00E94BC2B6B017C016D2FEF
:100C300070E080E090E00E94BE2B9B01AC01C701F8
:100C4000B6010E94D72C27E137EB41ED58E314C0E1
:100C50000E94BC2B6B017C016D2F70E080E090E066
:100C60000E94BE2B9B01AC01C701B6010E94D72C8C
:100C70002FE632E143E05AE30E94D72C0E94902BEA
:100C800005C0E3E075956795EA95E1F77093F10487
:100C90006093F004809112068093EC0460916405E7
:100CA0007091650580E090E0D0912206C11115C0D9
:100CB0000E94BC2B6B017C016D2F70E080E090E006
:100CC0000E94BE2B9B01AC01C701B6010E94D72C2C
:100CD00027E137EB41ED58E314C00E94BC2B6B01B8
:100CE0007C016D2F70E080E090E00E94BE2B9B01A4
:100CF000AC01C701B6010E94D72C2FE632E143E0D8
:100D00005AE30E94D72C0E94902B7093EF046093BB
:100D1000EE0480911D068111CBC080911F06C09109
:100D20000406D09105060091060610910706811170
:100D30004EC0409078055090790543E05594479413
:100D40004A95E1F7662457FC6094762CC301B20102
:100D50000E94BE2B6093FC047093FD048093FE04FC
:100D60009093FF049E0140E050E0C8011F921F9243
:100D70009F930F93A12CB12C6501E12C14E0F12E6F
:100D800000E010E0C301B2010E940D2A0E94BE2BB8
:100D90006B017C010F900F900F900F9020E030E0DE
:100DA000A9010E941C2B87FD09C0C092FC04D092AF
:100DB000FD04E092FE04F092FF0495C01092FC0442
:100DC0001092FD041092FE041092FF048CC08091DA
:100DD0002F019091300160912101709122018617BD
:100DE000970740F060911F017091200186179707C7
:100DF00008F4BC0180E090E0685E734081099109CD
:100E0000623FB3E07B078105910548F42AE030E0BA
:100E100040E050E00E94F12D69017A0105C034E6FE
:100E2000C32ED12CE12CF12CC701B6010E94BC2BA2
:100E30002B013C01A7019601C701B6010E94AB2D11
:100E40000E94BC2B2AE037ED43EA5CE30E94D72CDA
:100E50009B01AC01C301B2010E94562A6B017C01C7
:100E6000B80180E090E00E94BC2B9B01AC01C7015F
:100E7000B6010E94D72C2AE037ED43E25CE30E94E2
:100E8000D72C6B017C0180913605BE01882359F077
:100E900080E090E00E94BC2B9B01AC01C701B60131
:100EA0000E94562A18C080E090E00E94BC2B13C01C
:100EB0008091F6049091F70497FF02C0C29701C099
:100EC000C29664E670E00E94DD2D882777FD80954C
:100ED000982F0E94BE2B6093FC047093FD048093B6
:100EE000FE049093FF0480911406882309F44DC0FA
:100EF0006091A0057091A10523E0759567952A95ED
:100F0000E1F77093F5046093F4048091CF06882391
:100F100089F08091E3068F3029F470930B0660937B
:100F20000A0608C0813031F4709309066093080600
:100F30001092E306E0900A06F0900B0600E010E045
:100F4000209108063091090640E050E0882777FD9F
:100F50008095982F1F921F921F92E4E6EF93A12C89
:100F6000B12C65010E940D2A0F900F900F900F90E9
:100F70006536710514F064E670E077FF02C060E04A
:100F800070E07093F5046093F404809170018F5FBA
:100F9000883018F48093700102C010927001DF91C4
:100FA000CF911F910F91FF90EF90DF90CF90BF9066
:100FB000AF907F906F905F904F9008953B98F8941A
:100FC00080916C0083FD0AC08091680082608093EC
:100FD000680080916C00886080936C00789408951C
:100FE0001F920F920FB60F9211242F933F934F939E
:100FF0005F936F937F938F939F93AF93BF93CF93A1
:10100000EF93FF93C6B178940E94AD2620916E01B4
:1010100030916F01AB01421B530B9A01293B3B40BE
:1010200018F021E02093050170936F0160936E0129
:10103000C3FD29C020916C0130916D01621B730BBF
:10104000CB018F5E9240209105018B3D954098F435
:101050008091D406882359F0293068F4E22FF0E01B
:10106000EE0FFF1FE95DFE4F7183608304C0709334
:10107000F3046093F2042F5F209305017093D3066D
:101080006093D20604C070936D0160936C01FF9170
:10109000EF91CF91BF91AF919F918F917F916F9180
:1010A0005F914F913F912F910F900FBE0F901F9026
:1010B0001895CF93DF93C0E0D0E060E0CE010E94AE
:1010C00064032196C11582E0D807B9F7DF91CF916B
:1010D0000895CF93DF93EC01209799F0FE0164917E
:1010E000662379F02196772767FD709584E097E075
:1010F0000E94680365E070E080E090E00E94D026E6
:10110000EBCFDF91CF910895CF92DF92EF92FF92D4
:101110000E94BE2B6B017C0120E030E0A9010E94FF
:10112000CC2C18163CF420E836E948E15BE4C70112
:10113000B60107C0C701B601905820E836E948E17A
:101140005BE40E94232B25E33AEF4EE85CE30E9428
:10115000D72C0E94202B6093B7027093B802809323
:10116000B9029093BA02FF90EF90DF90CF9008956C
:101170000F931F9380912E05882389F18091150587
:10118000853068F16091D0047091D1048091D204CF
:101190009091D3046093C8047093C9048093CA04E7
:1011A0009093CB040091D4041091D5042091D604DF
:1011B0003091D7040093CC041093CD042093CE0437
:1011C0003093CF0420912205309123053093C7043A
:1011D0002093C6040E94840881E08093C3041F9179
:1011E0000F9108954F925F926F927F928F929F928C
:1011F000AF92BF92CF92DF92EF92FF920F931F9325
:10120000CF93DF93FC016B013901E701DA016D91A6
:101210007D918D919C9180809180A280B38068198E
:1012200079098A099B090E94BE2B4B015C01F301DD
:101230006081718182819381D601CD90DD90ED90A6
:10124000FC906C197D098E099F090E94BE2B20918C
:10125000B7023091B8024091B9025091BA020E948F
:10126000D72C6B017C01A5019401C501B4010E943A
:10127000D72C2B013C01A7019601C701B6010E94A2
:10128000D72C9B01AC01C301B2010E94562A0E94D7
:10129000442D2CE23DE74EE85FE30E94D72C0E94EC
:1012A000902BF8016083718382839383C501B4011D
:1012B0009058A70196010E94C92A20EA3CE043EB1E
:1012C00055E40E94D72C20E030EA4CE056E40E941E
:1012D000562A0E948B2B97FD05C0688379838A83E9
:1012E0009B830AC0DC01CB0180569347AF4FBF4FB1
:1012F00088839983AA83BB83DF91CF911F910F913C
:10130000FF90EF90DF90CF90BF90AF909F908F9025
:101310007F906F905F904F9008958F929F92AF92C1
:10132000BF92CF92DF92EF92FF920F931F93CF93D2
:10133000DF93CDB7DEB728970FB6F894DEBF0FBEA8
:10134000CDBF80912E05882309F40EC1909115051B
:10135000953008F409C180910401882349F0953043
:1013600019F081508093040181E080931505FFC03E
:101370008091C304811106C00E94B80881E0809367
:10138000C304F5C0CE0101967C018E010B5F1F4F97
:101390002CEC34E048EC54E064ED74E080ED94E033
:1013A0000E94F2086D817E818F819885B4E68B2E34
:1013B000912CA12CB12CA50194010E94F12D690161
:1013C0007A0120932F0530933005409331055093D7
:1013D000320569817A818B819C81A50194010E94EB
:1013E000132E30931705209316058091C604909113
:1013F000C704AA2797FDA095BA2F20912205309106
:1014000023054091240550912505281B390B4A0BD3
:101410005B0B2093220530932305409324055093C2
:101420002505A4E6B0E00E94472E6093AC057093BA
:10143000AD058093AE059093AF058091D004909157
:10144000D104A091D204B091D30480932A05909343
:101450002B05A0932C05B0932D058091D404909179
:10146000D504A091D604B091D7048093260590931B
:101470002705A0932805B093290580911A0590911E
:101480001B056AE070E00E94DD2D653B710514F0DC
:101490006856714070930105609300058091C40403
:1014A000811104C0709334056093330595E1C9162A
:1014B000D104E104F10428F081E08093C404809316
:1014C00036058091C404813009F051C088E2C81605
:1014D000D104E104F104E8F580911C0590911D050B
:1014E0008B349105B0F5C090D804D090D904E09029
:1014F000DA04F090DB0498E5C90E9BE1D91EE11CEB
:10150000F11C0E94A1266C157D058E059F0578F1C2
:10151000C090D804D090D904E090DA04F090DB04B5
:1015200080EFC80E85E5D81EE11CF11C0E94A126A3
:101530006C157D058E059F0528F4109249011092C7
:10154000360515C01092CF061092C40410923505CE
:101550000EC00E94A1266093D8047093D904809392
:10156000DA049093DB0403C082E38093040128969D
:101570000FB6F894DEBF0FBECDBFDF91CF911F91A4
:101580000F91FF90EF90DF90CF90BF90AF909F9022
:101590008F9008950F931F930E94A1260091E50656
:1015A0001091E6062091E7063091E8060617170726
:1015B00028073907A0F5D901C80188519C4FAF4FC2
:1015C000BF4F8093E5069093E606A093E706B0939D
:1015D000E80640911E0550911F0550932105409348
:1015E00020058091220590912305A0912405B091BA
:1015F000250590931F0580931E05662757FD60956E
:10160000762F841B950BA60BB70B44E1489F9001E6
:10161000499F300D112430933805209337051F91D1
:101620000F9108958091F3069091F406019690939E
:10163000F4068093F3068091B302863009F44BC020
:10164000823109F45BC0823009F072C08091AD0232
:101650008823C1F180917D0290917E02A0917F024A
:10166000B09180028093D4049093D504A093D604C3
:10167000B093D7048091810290918202A09183025D
:10168000B09184028093D0049093D104A093D204AB
:10169000B093D3046091890270918A0280918B0289
:1016A00090918C0228EE33E040E050E00E94132E2F
:1016B000209322053093230540932405509325055C
:1016C0000E94CA0A8091AD0280932E0585E0809326
:1016D000EE0681E008951092AD028091840280FFB1
:1016E00008C0809183028250823018F481E0809398
:1016F000AD028091A802809315051AC080918D02D9
:1017000090918E0290931D0580931C05609191022B
:1017100070919202809193029091940220E137E2BD
:1017200040E050E00E94132E30931B0520931A05D1
:1017300080E008954091B40250E04930510508F02E
:10174000ACC0FA01EC5CFF4F0C94322E823611F4DF
:1017500082E008C01092B402853B09F09EC08091DF
:10176000B4028F5F8093B40298C093E09093B40268
:101770008093AE028093B6028093B5028EC094E04F
:101780009093B4022091B602280F2093B602909154
:10179000B50230E0290F311D2093B5028093B302CA
:1017A0007CC095E09093B4022091B602280F20935C
:1017B000B6029091B50230E0290F311D2093B50299
:1017C00090E09093B2028093B10267C096E090934C
:1017D000B4022091B602280F2093B6029091B50270
:1017E00030E0290F311D2093B50290E0982F882713
:1017F0002091B1023091B202820F931F813022E01A
:10180000920728F49093B2028093B10206C010921E
:10181000B2021092B1021092B4021092B002109271
:10182000AF023BC02091B602280F2093B6029091E0
:10183000B50230E0290F311D2093B5022091AF028F
:101840003091B0022433310520F4F901E758FD4FFF
:1018500080832F5F3F4F3093B0022093AF0280917F
:10186000B1029091B20228173907B9F487E07ACF14
:1018700098E09093B4029091B602981771F010928C
:10188000B4020BC01092B4029091B502981305C037
:1018900081E08093C5040C94120B80E008958EBD06
:1018A0000DB407FEFDCF8EB5089561527D4FFC014A
:1018B0002191CF01222321F0FB012193BF01F7CF1A
:1018C000089561527D4FFC0124910196222321F05D
:1018D000FB012193BF01F7CF08951F920F920FB61E
:1018E0000F921124109275020F900FBE0F901F904F
:1018F0001895CF93DF931F92CDB7DEB769830E940F
:101900004F0C6981862F0F90DF91CF910C944F0C73
:101910005E9A2A9864E670E080E090E00E94D0260B
:101920002A9A80E58CBD81E08DBD8DB58EB56AE0CB
:1019300070E080E090E00E94D0265E9864E670E05F
:1019400080E090E00E94D02680EA0E944F0C8FEF4A
:101950000E944F0C8370813029F480932E0680936F
:10196000DC060CC0823029F410922E061092DC06A0
:1019700005C090912E069E5F9093DC0680937602C0
:1019800080912E06882341F080EE91E090937802BA
:10199000809377026CE407C086E891E09093780228
:1019A000809377026CE080E00E94790C5E9A9FB78A
:1019B000F894E89A809169008260809369009FBFE3
:1019C0000C949D041F93CF93DF93C82F5E98809152
:1019D0002E06882311F060E401C060E080E00E94E0
:1019E000790C6C2F89E00E94790CC8E9D6E010E0F0
:1019F000612F8AE00E94790C69918BE00E94790C3A
:101A00001F5F1633A9F760EA88E00E94790C80EA2C
:101A10000E944F0C85FDFBCF80912E06882311F08C
:101A20006CE401C06CE080E00E94790C5E9A64E195
:101A300070E080E090E0DF91CF911F910C94D02670
:101A40005E9880EA0E944F0C8FEF0E944F0C8370CB
:101A50009091760298130C94880C80E80E944F0CA9
:101A60008FEF0E944F0C83FFF6CF0895EF92FF9205
:101A70000F931F93CF93DF93FB0197FF06C09195C0
:101A800081959109FF24F39401C0F12CDF01A40F8B
:101A9000B11D1C923EE2E32ECAE0D0E0421306C024
:101AA0004150DF01A40FB11DEC9220E03FEF340F55
:101AB0008F01030F111DBE010E94DD2D805DD80135
:101AC0008C93CB01332379F0222311F0432FE6CFFF
:101AD0000097E1F7FF2039F03EEF340FDF01A30F4D
:101AE000B11D8DE28C9380E2332331F03150DF0160
:101AF000A30FB11D8C93F8CFCF01DF91CF911F9130
:101B00000F91FF90EF9008958F929F92AF92BF92A6
:101B1000DF92EF92FF920F931F93CF93DF93EA012F
:101B2000F22E97FF08C090958095709561957F4F34
:101B30008F4F9F4F0E2D24E630E040E050E00E9492
:101B4000132ECA01B90126E02F0DFE01E20FF11D8F
:101B50001082E5E0EE2EEF0CFE01EE0DF11D00838C
:101B6000FAE08F2E912CA12CB12CAEE2DA2E2FEFC1
:101B70002E0DEF1006C0E22EFE01E20FF11DD08205
:101B8000F6CFE22E8E01020F111DA50194010E94D5
:101B9000132E605DF8016083B901CA01E11002C033
:101BA00080E209C0F2E0FE1510F3611571058105B0
:101BB0009105E9F6F5CFEE2031F0EA94FE01EE0D45
:101BC000F11D8083F8CFCE01DF91CF911F910F914E
:101BD000FF90EF90DF90BF90AF909F908F9008950F
:101BE0003F924F925F926F927F928F929F92AF92AD
:101BF000BF92CF92DF92EF92FF920F931F93CF93FA
:101C0000DF93EA01522E211103C045E0642E02C089
:101C100038E0632EFE01E60DF11D1082762C452C76
:101C20001AE0812E912CA12CB12C06E0C02ED12CD3
:101C3000E12CF12C2AE3322E2FEF270D8E01020F1B
:101C4000111D27FD1A95A50194010E94F12D605DDB
:101C5000F80160838EEF870D8E01080F111D87FD3F
:101C60001A95CA01B901A70196010E94F12D605D84
:101C7000F8016083B901CA01FDEF7F0EFE01E70D97
:101C8000F11D77FCFA9530824A942FEF4212D4CF9F
:101C9000252D220F250D621AEDEF6E0EBAE0CB2E28
:101CA000D12CE12CF12C6A948E01060D111D67FCDC
:101CB0001A95A70196010E94F12D605DF8016083DD
:101CC000B901CA01611571058105910511F480E220
:101CD00003C06110E8CFFBCF662041F06A94FE019B
:101CE000E60DF11D67FCFA958083F6CFCE01DF91FA
:101CF000CF911F910F91FF90EF90DF90CF90BF9009
:101D0000AF909F908F907F906F905F904F903F909B
:101D1000089580E0E82FF0E0E553FD4F908199238E
:101D200011F08F5FF7CF0895E82FF0E0EE0FFF1F5F
:101D3000E055FA4F208131812227307C81E0211546
:101D4000304C09F080E00895CF93DF938091ED0649
:101D5000882309F4D5C18091610690916206A0E0C4
:101D6000B0E040913A0550913B0560913C0570917F
:101D70003D0584239523A623B723892B8A2B8B2B00
:101D8000D1F080913E068823B1F01092CD0286E119
:101D90008093CB0287E18093CC028EE10E94940E67
:101DA000882349F06091EC057091ED0571708BEC22
:101DB00092E00E94550C80914406882309F462C089
:101DC00080913A0590913B05A0913C05B0913D056D
:101DD00040915D0650E060E070E0482359236A239B
:101DE0007B23452B462B472B69F440915E0650E040
:101DF00060E070E0482359236A237B23452B462B60
:101E0000472B29F020EA2093CB02E1E001C0E0E07B
:101E100040915F0650E060E070E0482359236A2358
:101E20007B23452B462B472B39F0CE2FD0E0C553D3
:101E3000DD4F22EA2883EF5F4091600650E060E0CA
:101E400070E0482359236A237B23452B462B472BDD
:101E500039F0AE2FB0E0A553BD4F81EA8C93EF5F10
:101E6000F0E0E553FD4F108286E00E94940E882337
:101E700049F06091BC057091BD0571708BEC92E0EA
:101E80000E94550C80913A0590913B05A0913C052C
:101E9000B0913D0540916B0650916C0660916D06C6
:101EA00070916E06482359236A237B23452B462BCA
:101EB000472B39F01092CD028AEA8093CB028BEA4D
:101EC00089C04091630650916406609165067091E7
:101ED0006606482359236A237B23452B462B472B31
:101EE00049F08DE98093CB028EE98093CC02109269
:101EF000CD0272C0409167065091680660916906F4
:101F000070916A06482359236A237B23452B462B6D
:101F1000472B39F01092CD028DEC8093CB028EECE2
:101F200059C040917F065091800660918106709162
:101F30008206482359236A237B23452B462B472BB4
:101F400081F0809114054AE050E06DEC72E090E081
:101F50000E94672E1092CF0285EB8093CB0286EB16
:101F600039C040915F0650E060E070E0482359239B
:101F70006A237B23452B462B472B61F640915D0658
:101F800050E060E070E0482359236A237B23452B0F
:101F9000462B472B39F01092CD028CEA8093CB026E
:101FA0008DEA18C040915E0650E060E070E0482382
:101FB00059236A237B231092CD02452B462B472BB6
:101FC00029F084EC8093CB0285EC04C088E98093EF
:101FD000CB028FEA8093CC02809137068823C9F127
:101FE00081E20E94940E8823A1F16091F205709124
:101FF000F30571708BEC92E00E94550C80916F0696
:1020000090917006A0917106B091720640913A05C8
:1020100050913B0560913C0570913D0584239523CB
:10202000A623B723892B8A2B8B2B99F08AEE8093DA
:10203000CB028BEE8093CC021092CD026091F20520
:102040007091F30571706E5F7F4F8BEC92E00E9490
:10205000550C8091DF06811153C084E20E94940EDA
:10206000882309F44DC040913A0550913B05609199
:102070003C0570913D058091630690916406A091A6
:102080006506B091660684239523A623B723892B82
:102090008A2B8B2B11F58091670690916806A09191
:1020A0006906B0916A0684239523A623B723892B5A
:1020B0008A2B8B2BA1F480917F0690918006A091B2
:1020C0008106B091820684239523A623B723892B0A
:1020D0008A2B8B2BA9F0E3E003C0E1E001C0E2E032
:1020E000F0E0EE0FFF1FEA56FB4F8591949160914F
:1020F000F8057091F9057170DF91CF910C94610C26
:10210000DF91CF910895E2E5F6E0ABECB2E02191EA
:102110002D9326E0EC35F207D1F71092D502BC01E1
:102120008BEC92E00C94550C8F929F92AF92BF92E1
:10213000DF92EF92FF920F931F93CF93DF938091E3
:102140003D06811105C080914506882309F4C9C068
:1021500080913605811104C010921D0510921C0556
:1021600080911C0590911D0520911805309119054D
:10217000AC01415F5F4F42175307F0F40E94A12664
:1021800060930A0570930B0580930C0590930D05E1
:1021900082E080930F0580911C0590911D0590931E
:1021A00019058093180580912401815080932401A2
:1021B000803130F585E122C0215F3F4F2817390774
:1021C000F8F40E94A12660930A0570930B05809392
:1021D0000C0590930D0581E080930F0580911C05FF
:1021E00090911D0590931905809318058091240105
:1021F0008F5F80932401863118F080E18093240161
:102200008091AC059091AD05A091AE05B091AF0560
:102210004091A8055091A9056091AA057091AB0560
:102220008C019D010C5E1F4F2F4F3F4F0417150768
:102230002607370734F50E94A126609306057093A0
:102240000705809308059093090582E080930E05A9
:102250008091AC059091AD05A091AE05B091AF0510
:102260008093A8059093A905A093AA05B093AB0508
:1022700080912301815080932301803190F585E185
:102280002EC04C5E5F4F6F4F7F4F481759076A074C
:102290007B073CF50E94A126609306057093070515
:1022A000809308059093090581E080930E05809145
:1022B000AC059091AD05A091AE05B091AF058093AE
:1022C000A8059093A905A093AA05B093AB058091AA
:1022D00023018F5F80932301863118F080E1809382
:1022E000230180913D06811105C083E18093240183
:1022F000809323010091E2051091E3051170C091D4
:10230000300689E10E94940E8C2381F082E20E94C3
:10231000940E81110BC0F801E152FD4FDF011197BE
:1023200086E28C938CEB81838EE7808380913106EB
:10233000882309F49EC08AE10E94940E882309F440
:1023400098C08091EA058F709091E8059F70D92E12
:10235000492F41956091240150912301E82EFF24DB
:10236000E7FCF09498012E193F09E701C00FD11F37
:102370007EE14702C001112481529D4FFC01E20F12
:10238000F31F6083FC01EC0FFD1F50834F5FD416D9
:102390007CF7F801EE19FF09E052FD4F83E08083DE
:1023A000F801EE0DFF1DE252FD4F82E08083809127
:1023B0004506882309F45DC08BE10E94940E8823B2
:1023C00009F457C00E94A12680900A0590900B0541
:1023D000A0900C05B0900D0528EE820E23E0921E11
:1023E000A11CB11C681579058A059B05D8F480915C
:1023F0000F05F801823059F48EE1D89EE019F109F9
:102400001124EE19FF09E152FD4F89EC0AC02EE1BB
:10241000D29EE00DF11D1124EE19FF09E152FD4F8E
:102420008FEC80830E94A12600910605109107057C
:10243000209108053091090508511C4F2F4F3F4F3F
:102440006017710782079307A0F480910E05C152AF
:10245000DD4F823039F47EE1D79EC019D1091124B5
:1024600089EC06C08EE1D89EC00DD11D11248FECE1
:102470008883DF91CF911F910F91FF90EF90DF90B4
:10248000BF90AF909F908F900895AF92BF92CF92E0
:10249000DF92EF92FF920F931F9380911806809323
:1024A000ED04809119068093D50690913206992308
:1024B000E1F120912601829F900111244091250194
:1024C000849FA00111248091F0049091F10482175F
:1024D000930710F4622F09C07A0162E0E61AF1084E
:1024E0008E159F0508F47C016E2D7A0181E0E81AB3
:1024F000F10800E010E0442737FD4095542F70E0CC
:1025000080E090E01F921F921F92E7E0EF93A12CD2
:10251000B12C65010E940D2A86E9861B8093CB02AF
:102520000F900F900F900F9003C087E98093CB021C
:102530000091F0041091F104E090ED04F12C0E15DF
:102540001F0520F48091DF06811127C085E10E94DC
:10255000940E811103C0E016F106F8F023E044E088
:102560006CEC72E0C8010E94360D89EA8093D002BB
:102570001092D1026091DA057091DB0571706150A3
:1025800071098BEC92E01F910F91FF90EF90DF901B
:10259000CF90BF90AF900C94550C1F910F91FF906E
:1025A000EF90DF90CF90BF90AF900895CF93DF93DF
:1025B000C091EE04D091EF048091EC0490E0C81734
:1025C000D90720F48091DF06811121C086E10E94A5
:1025D000940E8823E1F08FEB8093CB0223E044E05C
:1025E0006CEC72E0CE010E94360D89EA8093D00235
:1025F0001092D1026091DC057091DD05717061501F
:1026000071098BEC92E0DF91CF910C94550CDF9126
:10261000CF910895AF92BF92CF92DF92EF92FF9247
:102620000F931F938BE00E94940E882309F480C0BF
:1026300080E28093CC0280912F0190913001209113
:102640001F01309120012817390720F490932001B1
:1026500080931F012091210130912201821793075D
:1026600020F4909322018093210120911F01309149
:1026700020012330384030F022E038E03093200150
:1026800020931F012091210130912201263B3340EC
:1026900030F426EB33E03093220120932101209186
:1026A0002306222339F020E044E06DEC72E00E9422
:1026B000360D28C0E0901F01F090200100E010E0EE
:1026C000209121013091220140E050E0BC0180E0E6
:1026D00090E01F921F921F92E4E6EF93A12CB12C81
:1026E00065010E940D2ADC01CB0120E043E06DEC86
:1026F00072E00E94360D85E28093D0020F900F9019
:102700000F900F9088EC8093CB021092D1026091D1
:10271000C6057091C70571708BEC92E01F910F9107
:10272000FF90EF90DF90CF90BF90AF900C94550C3E
:102730001F910F91FF90EF90DF90CF90BF90AF90DF
:10274000089580914306882309F44EC08091CA05FC
:102750009091CB058115924008F446C080913605D2
:102760008823F1F02091020530910305C9016CE343
:1027700070E00E94C92D8091510690E0681779079A
:1027800020F08091DF0681112FC020318EE03807C4
:1027900028F48CE98093CB02B90116C081E709C007
:1027A000609104057091050560312EE0720720F4F8
:1027B0008BE98093CB0208C080E78093CB02CB01EA
:1027C0006CE370E00E94C92D80E090E020E04CECCA
:1027D00052E00E94F00D6091CA057091CB057170B6
:1027E0008BEC92E00C94550C0895CF92DF92EF920F
:1027F000FF92C090FC04D090FD04E090FE04F090A5
:10280000FF046091E2047091E30480E090E00E9494
:10281000BC2B9B01AC01C701B6010E94CC2C181641
:1028200044F4C701B6010E94902B7093E3046093B7
:10283000E20487E10E94940E8823F1F0C701B601FB
:102840000E948B2BDC01CB0124E045E06BEC72E0B5
:102850000E94360D8AE98093D0021092D1026091D5
:10286000DE057091DF0571708BEC92E0FF90EF90C8
:10287000DF90CF900C94550CFF90EF90DF90CF90AD
:102880000895CF93DF9385E20E94940E8823B1F1DF
:10289000C091FA05D091FB05D1706091F004709160
:1028A000F10480E090E00E94BC2B2091FC04309168
:1028B000FD044091FE045091FF040E94D72C20E0BB
:1028C00030E048EC52E40E94232B0E94902BDC0164
:1028D000CB0125E045E06CEC72E00E94360D80E211
:1028E0008093CB0287E58093D0021092D102BE0183
:1028F0008BEC92E0DF91CF910C94550CDF91CF914E
:10290000089588E10E94940E882321F184EA80933F
:10291000CB0220E030E044EB53E46091F804709186
:10292000F9048091FA049091FB040E94232B0E94E9
:102930008B2BDC01CB014AE050E06CEC72E00E9492
:10294000672E6091E0057091E10571708BEC92E06B
:102950000C94550C089583E10E94940E882331F164
:102960008AEB8093CB024AE050E06CEC72E08091FD
:10297000F4049091F5040E94672E0E94890EA82FFE
:10298000B0E0A553BD4F95E29C938F5FE82FF0E038
:10299000E553FD4F10826091D6057091D705717097
:1029A000615071098BEC92E00C94550C089587E00E
:1029B0000E94940E882381F180912B06882361F177
:1029C000809100059091010520912C06222381F031
:1029D00097FF02C088599E4F20E043E06BEC72E005
:1029E0000E94360D8DEB8093CE021092CF020BC069
:1029F00020E044E06BEC72E00E94360D8DEB80939A
:102A0000CF021092D0026091BE057091BF05717027
:102A10008BEC92E00C94550C089588E00E94940E83
:102A20008823F9F0809141068823D9F08091000530
:102A300090910105880F991F880F991F83509D4F12
:102A40006AE570E00E94DD2D6B507B4F8091C005E0
:102A50009091C105917049E050E081529D4F0C94D6
:102A60005E2E08950F931F93CF93DF930DE514E02F
:102A7000C0E4D0E0F80185919491BE010E94610C00
:102A80000E5F1F4F6E96C03381E0D80799F788EF2D
:102A900090E00E948310E091DC06F0E0EE0FFF1F53
:102AA000E15EFB4F8591949166E171E0DF91CF91FA
:102AB0001F910F910C94610CCF93C0911505C530F7
:102AC00020F48091DF0681111DC080E00E94940EE9
:102AD0008823C1F08EE18093CB028FE18093CC02FA
:102AE0004AE050E06DEC72E08C2F90E00E94672E7F
:102AF0006091B0057091B10571708BEC92E0CF914F
:102B00000C94550CCF9108950F931F93CF93DF939F
:102B100080912E05882309F465C0809136058111C6
:102B200004C010921D0510921C05C0912D066091E5
:102B30001C0570911D0580E090E0C11107C00E9446
:102B4000BC2B2CEB34E743E15DE306C00E94BC2BB9
:102B50002DED3FE347EB5CE30E94D72C0E94902BC6
:102B60008B018091EA049091EB049C012C5E3F4F15
:102B70002017310728F43093EB042093EA0407C0B0
:102B80008017910720F41093EB040093EA0483E08C
:102B90000E94940E882331F180915006882341F0E1
:102BA00090E08017910720F48091DF0681111AC010
:102BB000D0E0C85ADE4F88818093CB024AE050E0D3
:102BC0006CEC72E0C8010E94672E6091B6057091AE
:102BD000B70571708BEC92E0DF91CF911F910F914F
:102BE0000C94550CDF91CF911F910F910895AF92E6
:102BF000BF92CF92DF92EF92FF920F931F93CF93EA
:102C0000DF938AE00E94940E882309F44CC08091DF
:102C10003F06882309F447C0C091C405D091C5057B
:102C2000D170C152DD4FFE017E978FE7808388838C
:102C30008E8F80913705909138058937910534F44E
:102C400088382FEF920724F0682F03C068E701C08F
:102C500068E8772767FD7095872F972F1F921F923F
:102C60001F9221E12F93A12CB12C650118E8E12ED0
:102C7000FF24FA940FEF1FEF28E730E040E050E028
:102C80000E940D2A862F66E00E94BB2D81502EE106
:102C90008202C00DD11D11248FE8891B88830F90FB
:102CA0000F900F900F90DF91CF911F910F91FF9098
:102CB000EF90DF90CF90BF90AF90089580912E0558
:102CC000882309F184E00E94940E8823E1F080912A
:102CD0002A068823C1F020E043E06BEC72E080918B
:102CE0001605909117050E94360D8DEB8093CE024C
:102CF0001092CF026091B8057091B90571708BEC9C
:102D000092E00C94550C089580912E058823F1F1E2
:102D100081E00E94940E8823C9F180912F05909143
:102D20003005A0913105B09132050397A105B10599
:102D300020F48091DF06811129C02091B2053091E5
:102D4000B30531708091000590910105845E9D4F1F
:102D50004091160550911705841B950B880F991FFC
:102D6000880F991F8D966AE570E00E94DD2DCB01DA
:102D700060E170E00E94DD2D805A8093CB021092BA
:102D8000CC02B9018BEC92E00C94550C0895209183
:102D90004B012A3061F480914A01833009F48DC0DF
:102DA000813009F48DC0823009F48DC07AC02A3098
:102DB00008F077C030914901313079F483E0809395
:102DC0004A01283019F48AE080934B0180914B012D
:102DD000893009F063C087E05FC0323079F483E066
:102DE00080934A01273019F48AE080934B01809147
:102DF0004B01893009F052C086E04EC0333069F48F
:102E000030934A01293019F485E080934B01809179
:102E10004B01863009F042C03EC03430E9F429301D
:102E200049F48091D606883011F48AE001C088E028
:102E300080934B0120914B012093D60683E0809331
:102E40004A0130E02E5F3F4F4EE1429FC001439F59
:102E5000900D1124469627C0353069F483E08093A5
:102E60004A01293019F486E080934B0180914B018F
:102E70008730A1F410C080E090E03630A1F483E008
:102E800080934A01293019F487E080934B018091A7
:102E90004B01883019F48AE080934B0120914B015B
:102EA000D0CF80E090E02091E006222379F0FC0171
:102EB000E152FD4F23E0208308958AE791E0F3CFAC
:102EC0008AE691E0F0CF80E791E0EDCF08952F9270
:102ED0003F924F925F926F927F928F929F92AF92AA
:102EE000BF92CF92DF92EF92FF920F931F93CF93F7
:102EF000DF93CDB7DEB762970FB6F894DEBF0FBE93
:102F0000CDBF809134068230A1F040F4813009F0C9
:102F1000EEC101E010E01C830B8309C0833019F07F
:102F2000843039F0E4C122E030E03C832B831F82FF
:102F300006C082E090E09C838B8391E09F83809128
:102F40002E05882309F4D3C182E20E94940E8823BF
:102F500009F4CDC11E821D82198A1A8A9F81AD8112
:102F60009A0F9A83892F90E0EB81FC818E179F073F
:102F70000CF0BDC18091160590911705AA81A13072
:102F800069F42091330530913405821B930B845EE4
:102F90009D4F68E671E00E94C92D0CC088599E4F74
:102FA0002091000530910105821B930B68E671E0CA
:102FB0000E94DD2D9C016AE570E00E94DD2D6130EC
:102FC0007105C1F03CF4672B29F5BFEFB98BE1E047
:102FD000EA8B20C062307105B9F063307105D1F41D
:102FE00088E691E0821B930B9C019FEF998BAFEFDA
:102FF000AA8B10C0E4EBF0E0E21BF30B9F01F1E0C1
:10300000F98B01E00A8B06C0245B310911E0198BB2
:103010004FEF4A8BB901882777FD8095982F0E9442
:10302000BE2B2BED3FE049E450E40E94D72C20E07A
:1030300030E044E353E40E94232B1B012C016091F8
:103040002F057091300580913105909132050E94D5
:10305000BC2B4B015C01C201B1010E943A2D9B01C6
:10306000AC01C501B4010E94D72C0E94902B6B01CA
:103070007C01C201B1010E94202B9B01AC01C50162
:10308000B4010E94D72C0E94902B8B019C011B0144
:10309000412C512CB60180E090E0C016D10618F406
:1030A0004201310102C03B014C01F4E66F1671048C
:1030B0008104910490F004EF601601E07006810431
:1030C000910480F014EC611619E0710681049104FA
:1030D00070F0930144E249830EC0A1E2A98324E683
:1030E00030E009C0B2E2B98324EF31E004C0E3E28A
:1030F000E98324EC39E079010027F7FC0095102FD3
:10310000E886F9860A871B871F921F921F92B0E1FB
:10311000FB2EFF92A12CB12C6501E884F9840A856D
:103120001B8520E030E0A9010E940D2A6C877D8775
:103130008E879F871F921F921F920FE00F93E88444
:10314000F9840A851B8520E030E0A901C201B101A4
:103150000E940D2A0FB6F894DEBF0FBECDBF34E13A
:103160006316710481049104D8F0AA894A2F552767
:1031700047FD5095EC85FD854E9F90014F9F300D8A
:103180005E9F300D1124F9894F2F552747FD50952B
:10319000469FF001479FF00D569FF00D112404C08B
:1031A000E0E0F0E020E030E0C090F605D090F705D8
:1031B00001E0D022790189010F5F1F4F37FD7801AF
:1031C000F594E794EC0CFD1CCF0163E070E00E94E5
:1031D000DD2D4EE1469FC001479F900D1124E80E62
:1031E000F91E4A81413011F045E001C044E0C901B7
:1031F00037FF04C088279927821B930BA82FA1783B
:10320000A7FF03C0A150AE6FAF5F5A2FCF01F7FFEA
:1032100004C0882799278E1B9F0B63E00E94BB2D5B
:103220008989813019F482E0891B982FBA89BF3FC0
:1032300011F451E05A1B3296359718F491E0E98960
:103240009E1B0330110528F451E02F3F3F4F09F436
:1032500050E00A81002311F080ED01C086ED20913D
:103260003406243031F0152F110F150F190F180FD8
:1032700016C0809100059091010520913305309191
:103280003405821B930B8A519D4F68E671E00E94C2
:10329000C92D6DE270E00E94C92D12E7160F298139
:1032A0002093CB021092CC026091F4057091F50549
:1032B00071708BEC92E0488B0E94550C1093CB02FE
:1032C0001092CC02B7018BEC92E00E94550C488919
:1032D0004093CB021092CC02B6018BEC92E00E949C
:1032E000550C8D819E8101969E838D8337CE62968B
:1032F0000FB6F894DEBF0FBECDBFDF91CF911F9107
:103300000F91FF90EF90DF90CF90BF90AF909F9084
:103310008F907F906F905F904F903F902F90089587
:103320009C01E62FF0E0E05FF94FE081F0E0EE0F66
:10333000FF1FEB58FE4F85919491B9010C94610CDD
:103340000F931F93CF938EE00E94940E882309F46D
:10335000ADC080912006882309F4A8C0809136056D
:10336000811109C08091BF0482608093BF048EE107
:1033700080934C0116C090914C01992369F0809183
:10338000E006811193C08091BF0484608093BF04E4
:10339000915090934C0105C08091BF04816080934F
:1033A000BF048091ED0490E02091F0043091F1048D
:1033B0008217930728F08091BF0480648093BF0434
:1033C00080913E0583FF12C080911505853028F459
:1033D0008091BF0480628093BF048091EE068111CA
:1033E00005C08091BF0480618093BF048091BF04B9
:1033F000887F8093BF049091C004911102C0809394
:10340000C0048091C004C82FC195C8230E94A12682
:103410000091F7061091F8062091F9063091FA060E
:103420000C501E4F2F4F3F4F06171707280739071D
:1034300098F49091C004992329F08C2F80958923CA
:103440008093C0040E94A1266093F7067093F8064B
:103450008093F9069093FA0680E090E060E02C2FCC
:1034600030E0E82FA901082E02C0559547950A942F
:10347000E2F740FFE62F01968830910511F06E2F9C
:10348000F0CF8091BF04823088F0F0E0EE0FFF1F94
:10349000EA57FB4F859194916091CC057091CD05D1
:1034A0007170CF911F910F910C94610CCF911F916E
:1034B0000F910895CF92DF92EF92FF920F931F9397
:1034C000CF93DF936B017C01042F122FC42FD0E028
:1034D00080E1C81687E2D806E104F104DCF18091AE
:1034E0002D06882389F0C701B60120EA34E140E0C7
:1034F00050E00E94132E6C0D7D1D8E1D9F1D20E13E
:1035000032E040E050E006C0C701B60124E630E0FA
:1035100040E050E00E94132EDA01C901BE0165535C
:103520007D4F4AE050E00E94672E0E94890E282FAE
:1035300030E0D901A653BD4F9C91F901E553FD4FF1
:1035400090839EE29C938F5FE82FF0E0E553FD4F60
:10355000108208C0BE0165537D4F4AE050E0C601AD
:103560000E94672E013051F4E0912D06F0E0E05BFF
:10357000FE4FE10FF11D80818093CB02DF91CF914F
:103580001F910F91FF90EF90DF90CF900895CF9211
:10359000DF92EF92FF92CF9380912906882309F45E
:1035A00054C085E00E94940E882309F44EC0809197
:1035B0002D068823A9F06091220570912305809142
:1035C0002405909125050E94BE2B21EA38EF41E5A4
:1035D00050E40E94D72C0E948B2B6B017C0108C009
:1035E000C0902205D0902305E0902405F090250599
:1035F000C0914F06CC23A9F0C701B6012AE030E004
:1036000040E050E00E94132E8C2F90E0A0E0B0E04C
:10361000281739074A075B0724F08091DF068111DC
:1036200014C020E041E0C701B6010E945A1A60911F
:10363000BA057091BB0571708BEC92E0CF91FF9051
:10364000EF90DF90CF900C94550CCF91FF90EF90BE
:10365000DF90CF900895EF920F931F93CF93DF9356
:1036600080912E05882309F477C00E94C71A81E152
:103670000E94940E882309F46FC080913A059091BE
:103680003B05A0913C05B0913D05409163065091EA
:103690006406609165067091660601E010E020E026
:1036A00030E00097A105B10519F000E010E09801A5
:1036B0000423152326233723012B022B032B09F088
:1036C0004BC084239523A623B72320912706822B62
:1036D000892B8A2B8B2B09F43FC0C091D205D09146
:1036E000D305D1708AEC8093CB0260912A0570914A
:1036F0002B0580912C0590912D0523E5E22E0EE4FB
:1037000024E04CEC52E00E94840DBE018BEC92E070
:103710000E94550CC091D405D091D505D1708BEC89
:103720008093CB0260912605709127058091280532
:103730009091290537E5E32E05E424E04CEC52E0B6
:103740000E94840DBE018BEC92E0DF91CF911F911E
:103750000F91EF900C94550CDF91CF911F910F9129
:10376000EF900895CF93DF9380912D068823A1F0E9
:103770006091AC057091AD058091AE059091AF055B
:103780000E94BE2B2EEA31E646E05DE30E94D72C74
:103790000E948B2BEB010FC06091AC057091AD05C1
:1037A0008091AE059091AF0524E630E040E050E016
:1037B0000E94132EE90180913605882389F08091BB
:1037C000D7069091D806069758F08091E80490911A
:1037D000E9048C179D0724F4D093E904C093E8040E
:1037E00089E00E94940E882351F18091400688233D
:1037F00031F140914F06442371F0CE016AE070E050
:103800000E94DD2D842F90E06817790724F08091C5
:10381000DF06811114C0BE01882777FD8095982F9F
:1038200020E041E00E945A1A6091C2057091C305E0
:1038300071708BEC92E0DF91CF910C94550CDF917D
:10384000CF910895CF92DF92EF92FF92CF93809124
:103850002E05882309F473C080912D068823A9F0D2
:1038600060912F057091300580913105909132055E
:103870000E94BC2B21EA38EF41E550E40E94D72C8E
:103880000E94902B6B017C0108C0C0902F05D09046
:103890003005E0903105F09032058091E40490917C
:1038A000E504A091E604B091E7048C159D05AE05F2
:1038B000BF0598F48C599F4FAF4FBF4F8C159D0596
:1038C000AE05BF0510F46C017D01C092E404D092F6
:1038D000E504E092E604F092E70482E00E94940E90
:1038E000882369F1C0914E06CC23A9F0C701B60127
:1038F00024E630E040E050E00E94F12D8C2F90E073
:10390000A0E0B0E0281739074A075B0720F0809154
:10391000DF06811114C022E041E0C701B6010E9418
:103920005A1A6091B4057091B50571708BEC92E0F4
:10393000CF91FF90EF90DF90CF900C94550CCF91EA
:10394000FF90EF90DF90CF900895CF92DF92EF92AB
:10395000FF920F931F93CF93DF93CDB7DEB7E0971E
:103960000FB6F894DEBF0FBECDBFE0914901EE0F58
:10397000FF0BE758FE4F8591949163E270E00E943F
:10398000610C6BE671E083E194E00E94610C809130
:10399000350581110CC061E771E089E094E00E9477
:1039A000610C6BE771E082E094E00E94610C809111
:1039B000490181118BC08091DE049091DF04A091B8
:1039C000E004B091E1048D839E83AF83B88780913A
:1039D000E4049091E504A091E604B091E70489879E
:1039E0009A87AB87BC878091E8049091E904AA2765
:1039F00097FDA095BA2F8D879E87AF87B88B809152
:103A0000EA049091EB04A0E0B0E0898B9A8BAB8B39
:103A1000BC8B20E030E044EB53E46091F8047091FB
:103A2000F9048091FA049091FB040E94232B0E94D8
:103A3000902B6D8B7E8B8F8B988F8091E204909171
:103A4000E3046AE070E00E94C92DCB01A0E0B0E081
:103A5000898F9A8FAB8FBC8FF5EDEF2EF1E0FF2EA3
:103A6000CE0101966C010DE510E0F701859194916E
:103A7000B8010E94610CF60161917191819191915F
:103A80006F0122E040E00E945A1AB8016F5E7F4F3A
:103A90008BEC92E00E94550CF2E0EF0EF11C025EFE
:103AA0001F4F0F3281E0180701F76091DC0470911D
:103AB000DD0480E090E021E04BEC52E00E94F00D4C
:103AC0006DE670E08BEC92E00E94550C809149010C
:103AD000813009F096C00E948B0587E98093CB0264
:103AE00023E044E06CEC72E08091F0049091F104EA
:103AF0000E94360D19EA1093D0021092D10264E3AD
:103B000070E08BEC92E00E94550C8FEB8093CB021F
:103B100023E044E06CEC72E08091EE049091EF04BD
:103B20000E94360D1093D0021092D1026CE270E028
:103B30008BEC92E00E94550CE7ECEE2EE1E0FE2EBD
:103B40000DE510E0F70185919491B8010E94610C98
:103B500092E0E90EF11C025E1F4F0F32E1E01E07FA
:103B600089F7809121064AE050E06BEC72E090E02A
:103B70000E94672E6BEC70E00E94550C67E081E7B5
:103B800090E00E94901980911A064AE050E06BEC98
:103B900072E090E00E94672E6FE870E00E94550C82
:103BA000809118064AE050E06BEC72E090E00E94D1
:103BB000672E6DEA70E00E94550C61E18BEC90E09D
:103BC0000E949019809122064AE050E06BEC72E06E
:103BD00090E00E94672E69EE70E00E94550C809183
:103BE00019064AE050E06BEC72E090E00E94672E0C
:103BF00067E071E00E94550C6BE085E291E00E9465
:103C0000901980914901823009F072C04AE050E079
:103C10006BEC72E08091F4049091F5040E94672EA1
:103C20000E94890EA82FB0E0A553BD4F95E29C934A
:103C30008F5FE82FF0E0E553FD4F108265E370E001
:103C40008BEC92E00E94550C7BEBE72E71E0F72E97
:103C50000DE510E0F70185919491B8010E94610C87
:103C6000F2E0EF0EF11C025E1F4F013181E01807F8
:103C700089F764E081E790E00E9490198091E30663
:103C8000882351F04AE050E06BEC72E090E00E9433
:103C9000672E6FE870E004C06FE870E08EE491E09A
:103CA0000E94550C65E08DEA90E00E94901966E054
:103CB0008BEC90E00E9490194AE050E06BEC72E0CF
:103CC00080910A0690910B060E94672E69EE70E0C3
:103CD0000E94550C4AE050E06BEC72E080910806BF
:103CE000909109060E94672E67E071E00E94550CD2
:103CF00080914901833009F05CC06091FC047091AF
:103D0000FD048091FE049091FF040E948B2BDC0146
:103D1000CB0123E044E06BEC72E00E94360D8AE9AF
:103D20008093CF021092D00264E370E08BEC92E0BB
:103D30000E94550C61EBE62E61E0F62E0DE510E0D9
:103D4000F70185919491B8010E94610C92E0E90E0F
:103D5000F11C025E1F4F033F110591F76CE081E7F4
:103D600090E00E9490196EE08FE890E00E94901918
:103D70006FE08DEA90E00E9490194AE050E06BEC11
:103D800072E080910606909107060E94672E6BEC08
:103D900070E00E94550C4AE050E06BEC72E08091BC
:103DA0000406909105060E94672E69EE70E00E945D
:103DB000550C80914901843009F045C051EAE52E47
:103DC00051E0F52E0DE510E0F70185919491B801D1
:103DD0000E94610CE2E0EE0EF11C025E1F4F0D34FA
:103DE000F1E01F0789F760E281E790E00E949019F7
:103DF00061E28FE890E00E9490196DE28DEA90E018
:103E00000E9490196FE18BEC90E00E94901967E19D
:103E100089EE90E00E94901964E387E091E00E94AF
:103E200090196EE285E291E00E949019809134062B
:103E30004AE050E06BEC72E090E00E94672E63E491
:103E400071E00E94550C80914901853009F05AC0FB
:103E500045E9E42E41E0F42E0DE510E0F7018591EF
:103E60009491B8010E94610C82E0E80EF11C025EA0
:103E70001F4F013191E0190789F780912D0661E705
:103E800070E0811103C082E692E002C08EE592E00C
:103E90000E94610C809135066FE870E0882319F06C
:103EA00085E592E002C080E592E00E94610C6CE240
:103EB0008DEA90E00E9490198091E406882351F0E9
:103EC0004AE050E06BEC72E090E00E94672E6BECF1
:103ED00070E004C06BEC70E08EE491E00E94550C41
:103EE00080914A064AE050E06BEC72E090E00E945C
:103EF000672E69EE70E00E94550C63E187E091E067
:103F00000E94901980914901863009F04FC080913C
:103F10004E0690E09E8F8D8F80914F0690E098A383
:103F20008F8F8091500690E09AA389A380915106CB
:103F300090E09CA38BA38091240690E09EA38DA388
:103F40008091250690E098A78FA30DE510E0E12C65
:103F5000F12CD12CF701E957FE4F85919491B801CE
:103F60000E94610CE6E0DE1699F04AE050E06BEC4E
:103F700072E0EDE1F0E0EC0FFD1FEE0DFF1D808122
:103F800091810E94672EB8016C5E7F4F0E94550C94
:103F9000D394F2E0EF0EF11C025E1F4F87E0D812BF
:103FA000D9CF60E185E291E00E94901980914901AA
:103FB000873014F010924901E0960FB6F894DEBFF6
:103FC0000FBECDBFDF91CF911F910F91FF90EF906A
:103FD000DF90CF900C94C716E091760181E08E0FB0
:103FE00080937601F0E0E558FE4F80810895CF93ED
:103FF000DF930E94EC1FC82FD0E00E94EC1F9E01AF
:10400000382BC901DF91CF91089581E08093490158
:104010008AE080934B0183E080934A011092CF069F
:104020001092350580913306882301F11092DE0449
:104030001092DF041092E0041092E1041092E40464
:104040001092E5041092E6041092E7041092E9043D
:104050001092E8041092EB041092EA041092E30428
:104060001092E2041092DD041092DC040C94B1036F
:1040700084B714BE809160008861809360001092C4
:10408000600026E040E052EC61E070E084E097E000
:104090000E94CE288091C00082608093C000109260
:1040A000C50080E18093C40084E097E00E94472827
:1040B00084B18C6284B92498569A529860E084E165
:1040C0000E947C2760E081E10E947C2760E081E122
:1040D0000E947C2761E087E00E947C270E94DE0727
:1040E0000E941F050E94E50464EF71E080E090E00B
:1040F0000E94D02680913506882311F081E001C00E
:1041000083E00E9433270E94880C8AE08093F006A7
:1041100080913E0590913F058F6090933F0580937D
:104120003E050C94B103CF93DF93C6E0D1E064E683
:1041300070E080E090E00E94D02649915991699109
:10414000799126E084E097E00E94CE2884E097E011
:104150000E94472886EC90E00E94690881E0CA31FD
:10416000D80729F784E097E00E94472864E670E0CA
:1041700080E090E00E94D02626E040E052EC61E032
:1041800070E084E097E00E94CE28C9EED0E0FE0106
:10419000649184E097E00E94692865E070E080E027
:1041A00090E00E94D0262196F1E0C537DF0779F72D
:1041B000DF91CF910895CF93C82F682F84E097E0C7
:1041C0000E946928909175019C2790937501CF9169
:1041D0000895CF93DF931F92CDB7DEB799830E94E6
:1041E000DB209981892F0F90DF91CF910C94DB20F8
:1041F0006091750184E097E00C946928CF93DF9378
:10420000D82FC62F64E270E084E097E00E94680334
:104210006DE470E084E097E00E9468036CE370E076
:1042200084E097E00E946803109275018C2F0E9431
:10423000DB208D2F0E94DB20C11104C0DF91CF91C4
:104240000C94F820DF91CF9108951F93CF93DF93C3
:104250006FE18CED0E94FE2089E00E94DB201AE0D5
:10426000C0919306D0919406CE010E94660380937C
:104270009206CE010E94E920809192060E94DB20E6
:104280008091930690919406019690939406809362
:104290009306115029F7DF91CF911F910C94F820CC
:1042A00063E08CED0E94FE2089E00E94DB2080917B
:1042B0009306909194060E94E9200C94F8200F93A5
:1042C0001F93CF93DF938091F3069091F4060196AC
:1042D0009093F4068093F3061092760185E0809324
:1042E000ED06809178018C3D09F007C10E94EC1F1A
:1042F000893059F582E08093EF060E94EC1FC82FA9
:10430000D0E0D0939406C09393060E94EC1FC80F90
:10431000D11DD0939406C09393060E94EC1F809306
:10432000920681E0809391060E94A1266854744F02
:104330008F4F9F4F60938D0670938E0680938F06EC
:10434000909390060E942521D8C0883009F055C06E
:1043500082E08093EF061AE001E00E94EC1FC82F74
:10436000D0E0D0939406C09393060E94EC1F282FB0
:1043700030E0322F22272C0F3D1F309394062093DC
:1043800093060E94EC1F80939206009391060E9470
:10439000A1266854744F8F4F9F4F60938D06709382
:1043A0008E0680938F06909390066091920680917E
:1043B0009306909194060E9464036DE080E090E083
:1043C0000E9464038091930690919406893591052B
:1043D00019F08F34914011F40E94E504115009F056
:1043E000BCCF809193069091940601969093940689
:1043F000809393060E94502180C0873009F040C00E
:104400001092F0066BE08CED0E94FE2087E00E9487
:10441000DB20C0E5D5E08881998133E096958795CA
:104420003A95E1F70E94E920649685E0C43BD807FD
:1044300091F70E94F8206DE08CED0E94FE208AE04A
:104440000E94DB2081E190E00E94E92080E090E082
:104450000E94E9208EEA96E00E94E92082E090E046
:104460000E94E92080E090E00E94E92081E090E055
:104470000E94E920DF91CF911F910F910C94F820B9
:10448000833079F580917901853099F40E94F71F86
:1044900080329D4191F50E94EC1F809397060E9407
:1044A000EC1F80939606DF91CF911F910F910C9492
:1044B0009203883311F5C8E9D6E00E94EC1F899376
:1044C00086E0CE3CD807C9F70E94EC1FC82F0E9497
:1044D000E20CCF3F91F4DF91CF911F910F910C949B
:1044E000880C863029F40E9459080E941F0502C0DA
:1044F000853019F481E08093DB06DF91CF911F9125
:104500000F910895CF92DF92FF920F931F93CF9355
:10451000DF931F92CDB7DEB7F82E84E097E00E94BC
:10452000EB2721E0892B09F420E055E0C52ED12CA2
:1045300004E010E0213009F083C084E097E00E949D
:104540000428982F2091F5063091F6062F5F3F4FF3
:104550003093F6062093F50610924C0199830E9441
:104560009A0B9981882319F00E948D0999812091D5
:104570006A0130916B012115310529F421E030E009
:10458000943289F412C02130310529F49D3459F454
:1045900022E030E00AC02230310561F49E3319F484
:1045A00023E030E002C020E030E030936B01209344
:1045B0006A013EC02330310559F49B3F60F590936A
:1045C000790110936B0100936A019093770130C0D9
:1045D0002430310571F4D0926B01C0926A0190933E
:1045E00078018091770189278093770110927A0171
:1045F0001FC025303105E1F4809177018927809330
:104600007701E0917A0120917901E21309C08111CB
:1046100002C00E945F2110926B0110926A0108C0D3
:1046200081E08E0F80937A01F0E0E558FE4F908391
:1046300084E097E00E94EB27892B11F0F1107DCFE9
:104640000F90DF91CF911F910F91FF90DF90CF904E
:104650000895CF92DF92EF92FF920E94A1266B0104
:104660007C0188E2C80ED11CE11CF11C81E0809322
:10467000750280917502882371F00E94A126C616EA
:10468000D706E806F90618F410927502F2CF80E01A
:104690000E948222EECFFF90EF90DF90CF9008959E
:1046A000FF920F931F93CF93DF935E9860E085E0B6
:1046B0000E94790C60E086E00E94790C61E084E061
:1046C0000E94790C0E9429230FED12E0C0E0D0E097
:1046D00060E2F62E8091770290917802C817D90790
:1046E00078F4C03FD10511F40E942923F8016081BC
:1046F00087E00E94790CF801F1928F012196EACFB0
:104700006FEF87E00E94790C60E084E00E94790CF2
:104710005E9ADF91CF911F910F91FF900895CF92F4
:10472000DF92EF92FF921092BF048091F106909178
:10473000F20601969093F2068093F1068091DB06D3
:1047400081110E94A5038091770690917806A0912F
:104750007906B0917A0640913A0550913B056091F7
:104760003C0570913D0584239523A623B723892B0F
:104770008A2B8B2B21F081E08093D10602C010920E
:10478000D1069091D1068091D00698130E949D0485
:104790008091D1068093D0068091DD06863010F09E
:1047A00061E001C060E087E00E94B5270E94A12679
:1047B0006B017C018091BF029091C002A091C10267
:1047C000B091C202B701A601481B590B6A0B7B0BC3
:1047D0004436510561057105E8F18C599F4FAF4F83
:1047E000BF4F8093BF029093C002A093C102B093C9
:1047F000C2028091DD068F5F8093DD068091DE0628
:104800008F5F8093DE0681E09091E006911180E059
:104810008093E0060E94520480911E068823D1F006
:104820002091FC043091FD044091FE045091FF045E
:104830006091F8047091F9048091FA049091FB045E
:104840000E94562A6093F8047093F9048093FA0446
:104850009093FB048091BB029091BC02A091BD0299
:10486000B091BE02C81AD90AEA0AFB0A22E3C216AC
:10487000D104E104F10408F443C1C296A11DB11DA5
:104880008093BB029093BC02A093BD02B093BE0282
:104890008091C3029091C402A091C502B091C6025A
:1048A000892B8A2B8B2B81F48091C7029091C802AF
:1048B000A091C902B091CA028093C3029093C4022E
:1048C000A093C502B093C6024091C3025091C402A6
:1048D0006091C5027091C60288279927DC01841B6C
:1048E000950BA60BB70B84239523A623B72380959E
:1048F0009095A095B09584239523A623B723809304
:10490000C3029093C402A093C502B093C6028091E3
:10491000CE06811102C00E9450230E948B05809117
:10492000D7069091D806059760F40E9432158091C1
:10493000040590910505CC979093E2068093E106DB
:10494000DFC080913605882349F081E080933505EA
:104950008091CF06813011F40E94052080913505A9
:10496000882381F08091360581110CC01092490195
:104970008AE080934B0181E080934A018093CF06C7
:104980000E94B1038091CF06882319F00E94A51CD4
:10499000B7C00E94B10380913E0580FF0AC06091BC
:1049A000A6057091A7058091A4059091A5050E9488
:1049B00094108091170681110E9445128091210662
:1049C00081110E94D61280911406882379F080917B
:1049D000130690E02091F4043091F50482179307B8
:1049E0001CF08091DF0681110E94AB1480911C069F
:1049F000882321F120E030E040E251E46091FC04A2
:104A00007091FD048091FE049091FF040E94232B7D
:104A10006B017C016091250670E080E090E00E94CF
:104A2000BE2B9B01AC01C701B6010E941C2B87FD68
:104A300003C08091DF0681110E94F51380911E064C
:104A4000882349F00E946F03882309F42DC18091C7
:104A5000DF06811129C10E94A1130E9441140E9406
:104A6000A01980912F0681110E940A1380910405DC
:104A7000909105052091E1063091E206A901445C80
:104A80005F4F48175907A0F4205C3F4F281739079C
:104A900020F49093E2068093E10680913806882303
:104AA00039F08091FE059091FF0591700E9483106E
:104AB00080913E0582FF04C00E940D150E94D7140C
:104AC00080913E0581FF04C00E94B21B0E94F71531
:104AD00080913E0583FF12C080912606882371F0E5
:104AE0000E945C150E9484160E94221C0E945E1681
:104AF0000E9484150E942B1B0E9467170E94A40E1F
:104B00008091DE06853048F01092DE0681E09091BB
:104B1000DF06911180E08093DF060E94A126C090FD
:104B2000E906D090EA06E090EB06F090EC0628EE5D
:104B3000C20E23E0D21EE11CF11CC616D706E80601
:104B4000F90608F0AAC0C092E906D092EA06E092FF
:104B5000EB06F092EC061092DD068091F106909142
:104B6000F20690938C0680938B061092F2061092B8
:104B7000F1068091F3069091F40690938A06809353
:104B800089061092F4061092F3068091F506909132
:104B9000F60690938806809387061092F606109288
:104BA000F506809104059091050501969093050501
:104BB000809304058091CE06811102C00E94200DD1
:104BC0008091EE06811103C01092150503C081503B
:104BD0008093EE068091ED06882319F08150809332
:104BE000ED068091EF06882319F081508093EF063F
:104BF0008091F006813011F40E9493208091F0069C
:104C0000882319F081508093F00680913605811138
:104C100009C080910005909101059093340580931F
:104C2000330516C08091020590910305019690937B
:104C30000305809302058091DC049091DD040196C8
:104C40009093DD048093DC041092CF060E94B103A0
:104C50008091D7069091D80601969093D8068093BC
:104C6000D7068091E406813051F48091CF068823E5
:104C700031F060E08EEC0E94FE201092E4068091FC
:104C8000E406882319F081508093E4068091E306BE
:104C9000882319F081508093E30681E0FF90EF9024
:104CA000DF90CF900C9482220E948114D4CE1F9268
:104CB0000F920FB60F9211242F933F938F939F93D0
:104CC000AF93BF938091FC069091FD06A091FE06E4
:104CD000B091FF063091FB0623E0230F2D3720F41F
:104CE0000196A11DB11D05C026E8230F0296A11D46
:104CF000B11D2093FB068093FC069093FD06A093C4
:104D0000FE06B093FF068091000790910107A091E5
:104D10000207B09103070196A11DB11D8093000702
:104D200090930107A0930207B0930307BF91AF913F
:104D30009F918F913F912F910F900FBE0F901F90D9
:104D400018952FB7F8946091FC067091FD0680913C
:104D5000FE069091FF062FBF08953FB7F89480910B
:104D6000000790910107A0910207B091030726B5B3
:104D7000A89B05C02F3F19F00196A11DB11D3FBF93
:104D80006627782F892F9A2F620F711D811D911D23
:104D900042E0660F771F881F991F4A95D1F7089543
:104DA000CF92DF92EF92FF92CF93DF936B017C0162
:104DB0000E94AD26EB01C114D104E104F10489F095
:104DC0000E94542A0E94AD266C1B7D0B683E7340E6
:104DD00090F381E0C81AD108E108F108C851DC4F0E
:104DE000EACFDF91CF91FF90EF90DF90CF900895C1
:104DF000789484B5826084BD84B5816084BD85B5B6
:104E0000826085BD85B5816085BDEEE6F0E080817C
:104E100081608083E1E8F0E010828081826080839D
:104E2000808181608083E0E8F0E080818160808320
:104E3000E1EBF0E0808184608083E0EBF0E0808152
:104E400081608083EAE7F0E08081846080838081F4
:104E5000826080838081816080838081806880839C
:104E60001092C100089580934D0108958E3008F08E
:104E70008E50877020914D0190E4299F900111245C
:104E8000822B80937C0080917A00806480937A00EA
:104E900080917A0086FDFCCF809178002091790086
:104EA00090E0922B0895833081F028F4813099F0BE
:104EB0008230A1F008958730A9F08830B9F08430AD
:104EC000D1F4809180008F7D03C0809180008F7726
:104ED00080938000089584B58F7702C084B58F7D5C
:104EE00084BD08958091B0008F7703C08091B00099
:104EF0008F7D8093B0000895CF93DF9390E0FC0105
:104F0000EF5DF94F2491FC01EB5CF94F849188230C
:104F100049F190E0880F991FFC01ED5AF94FA591D6
:104F2000B491875B994FFC01C591D4919FB76111F2
:104F300008C0F8948C91209582238C9388818223D9
:104F40000AC0623051F4F8948C91322F309583234B
:104F50008C938881822B888304C0F8948C91822B57
:104F60008C939FBFDF91CF9108950F931F93CF93A1
:104F7000DF931F92CDB7DEB7282F30E0F901E35F52
:104F8000F94F8491F901EF5DF94F1491F901EB5C50
:104F9000F94F04910023C9F0882321F069830E940E
:104FA00053276981E02FF0E0EE0FFF1FE75BF94F19
:104FB000A591B4919FB7F8948C91611103C010959D
:104FC000812301C0812B8C939FBF0F90DF91CF91E4
:104FD0001F910F910895FC01818D228D90E0805CDE
:104FE0009F4F821B91098F7399270895FC01918D22
:104FF000828D981731F0828DE80FF11D858D90E03C
:1050000008958FEF9FEF0895FC01918D828D981781
:1050100061F0828DDF01A80FB11D5D968C91928D9C
:105020009F5F9F73928F90E008958FEF9FEF089599
:1050300088E899E2892B49F080E090E0892B29F0FB
:105040000E94882981110C9400000895FC01848D30
:10505000DF01A80FB11DA35ABF4F2C91848D90E0A2
:1050600001968F739927848FA689B7892C93A0897D
:10507000B1898C9180648C93938D848D981306C034
:105080000288F389E02D80818F7D80830895CF93FE
:10509000DF93EC01888D8823C9F0EA89FB89808140
:1050A00085FD05C0A889B9898C9186FD0FC00FB612
:1050B00007FCF5CF808185FFF2CFA889B9898C9153
:1050C00085FFEDCFCE010E942628E7CFDF91CF915B
:1050D0000895CF92DF92FF920F931F93CF93DF93A8
:1050E0001F92CDB7DEB76C0181E0D60158968C9344
:1050F00058975B969C915B975C968C915C97981304
:1051000007C05096ED91FC915197808185FD2EC08E
:10511000F601038D10E00F5F1F4F0F731127F02E64
:10512000F601848DF81211C00FB607FCF9CFD60135
:105130005096ED91FC915197808185FFF1CFC6018A
:1051400069830E9426286981EBCF838DE80FF11DCA
:10515000E35AFF4F6083D6015B960C935B975296A0
:10516000ED91FC915397808180620CC0D6015696D8
:10517000ED91FC91579760835096ED91FC9151977A
:1051800080818064808381E090E00F90DF91CF91F7
:105190001F910F91FF90DF90CF900895BF92CF9213
:1051A000DF92EF92FF92CF93DF93EC016A017B01D4
:1051B000B22EE889F98982E08083411581EE580793
:1051C00061057105A1F060E079E08DE390E0A70151
:1051D00096010E94F12D215031094109510956953E
:1051E000479537952795211580E1380798F0E8898C
:1051F000F989108260E874E88EE190E0A7019601D9
:105200000E94F12D215031094109510956954795C8
:1052100037952795EC85FD853083EE85FF852083C6
:10522000188EEC89FD89B082EA89FB8980818061D2
:105230008083EA89FB89808188608083EA89FB8991
:10524000808180688083EA89FB8980818F7D80836B
:10525000DF91CF91FF90EF90DF90CF90BF900895B6
:105260001F920F920FB60F9211242F938F939F933B
:10527000EF93FF93E0911407F09115078081E0917F
:105280001A07F0911B0782FD12C0908180911D07C3
:105290008F5F8F7320911E07821751F0E0911D07D9
:1052A000F0E0EC5FF84F958F80931D0701C080817F
:1052B000FF91EF919F918F912F910F900FBE0F90C3
:1052C0001F9018951F920F920FB60F9211242F93D3
:1052D0003F934F935F936F937F938F939F93AF937E
:1052E000BF93EF93FF9384E097E00E942628FF91FD
:1052F000EF91BF91AF919F918F917F916F915F914E
:105300004F913F912F910F900FBE0F901F901895C6
:1053100084E097E00E94EB2721E0892B09F420E04C
:10532000822F0895109207071092060788EE93E0E7
:10533000A0E0B0E08093080790930907A0930A07C4
:10534000B0930B078EE591E09093050780930407D7
:1053500085EC90E0909311078093100784EC90E027
:10536000909313078093120780EC90E090931507B9
:105370008093140781EC90E09093170780931607B1
:1053800082EC90E0909319078093180786EC90E0E8
:1053900090931B0780931A0710921D0710921E0707
:1053A00010921F0710922007089508950E94F82672
:1053B0000E94D5290E943820C8E1D8E20E948F239C
:1053C0002097E1F30E941828F9CFCF92DF92EF9255
:1053D000FF920F931F93CF93DF936C017A01EB0140
:1053E000E60EF71E00E010E0CE15DF0561F06991D2
:1053F000D601ED91FC910190F081E02DC601099557
:10540000080F191FF1CFC801DF91CF911F910F91A4
:10541000FF90EF90DF90CF9008954F925F926F9240
:105420007F92AF92BF92CF92DF92EF92FF920F9353
:105430001F93CF93DF93CDB7DEB729013A01621BEB
:10544000730B840B950B29893A894B895C892A193E
:105450003B094C095D09298B3A8B4B8B5C8B9B017B
:10546000AC0169897A898B899C890E94AB2DE418EB
:10547000F50806091709A80197010E94132E2A0DA5
:105480003B1D4C1D5D1DCA01B901DF91CF911F91DC
:105490000F91FF90EF90DF90CF90BF90AF907F90F3
:1054A0006F905F904F90089508955058BB27AA279A
:1054B0000ED027C2F0D130F0F5D120F031F49F3F6B
:1054C00011F41EF4C0C10EF4E095E7FBB6C1E92F5C
:1054D0003AD280F3BA17620773078407950718F06A
:1054E00071F49EF552C20EF4E0950B2EBA2FA02D4A
:1054F0000B01B90190010C01CA01A0011124FF2781
:10550000591B99F0593F50F4503E68F11A16F0407B
:10551000A22F232F342F4427585FF3CF469537957A
:105520002795A795F0405395C9F77EF41F16BA0B3F
:10553000620B730B840BBAF09150A1F0FF0FBB1FED
:10554000661F771F881FC2F70EC0BA0F621F731F36
:10555000841F48F4879577956795B795F7959E3F93
:1055600008F0B3CF9395880F08F09927EE0F979521
:105570008795089590D158F080E891E009F49EEF66
:1055800091D128F040E851E059F45EEF09C05BC1C9
:10559000FCC1E92FE078D7D168F3092E052AC1F3C1
:1055A000261737074807590738F00E2E07F8E02569
:1055B00069F0E025E0640AC0EF6307F8009407FA99
:1055C000DB01B9019D01DC01CA01AD01EF934AD0B5
:1055D00098D10AD05F91552331F02BED3FE049E49B
:1055E00050FD49EC63CF0895DF93DD27B92FBF77D6
:1055F00040E85FE31616170648075B0710F4D92F3B
:10560000CFD19F938F937F936F937CD2EAE7F0E0A3
:105610001DD177D12F913F914F915F91D4D1DD234F
:1056200049F09058A2EA2AED3FE049EC5FE3D078D8
:105630005D274DDFDF9165C1DCD008F481E008957E
:1056400039D1E3956FC10CD05CC12CD140F023D18E
:1056500030F021F45F3F19F0F0C0511197C1F3C051
:1056600072D198F39923C9F35523B1F3951B550BC8
:10567000BB27AA2762177307840738F09F5F5F4F25
:10568000220F331F441FAA1FA9F333D00E2E3AF066
:10569000E0E830D091505040E695001CCAF729D080
:1056A000FE2F27D0660F771F881FBB1F26173707CF
:1056B0004807AB07B0E809F0BB0B802DBF01FF27FF
:1056C00093585F4F2AF09E3F510568F0B6C05EC107
:1056D0005F3FECF3983EDCF3869577956795B79539
:1056E000F7959F5FC9F7880F911D9695879597F954
:1056F0000895E1E0660F771F881FBB1F62177307CD
:105700008407BA0720F0621B730B840BBA0BEE1FE1
:1057100088F7E095089504D06894B11137C10895D1
:105720001AD188F09F5790F0B92F9927B751A0F060
:10573000D1F0660F771F881F991F1AF0BA95C9F725
:1057400012C0B13081F021D1B1E008951EC1672FA0
:10575000782F8827B85F39F0B93FCCF386957795D5
:105760006795B395D9F73EF49095809570956195BE
:105770007F4F8F4F9F4F0895E89409C097FB3EF4E9
:1057800090958095709561957F4F8F4F9F4F99238E
:10579000A9F0F92F96E9BB279395F695879577950C
:1057A0006795B795F111F8CFFAF4BB0F11F460FFCC
:1057B0001BC06F5F7F4F8F4F9F4F16C0882311F024
:1057C00096E911C0772321F09EE8872F762F05C038
:1057D000662371F096E8862F70E060E02AF09A95D3
:1057E000660F771F881FDAF7880F9695879597F9C8
:1057F0000895990F0008550FAA0BE0E8FEEF161662
:105800001706E807F907C0F012161306E407F507B4
:1058100098F0621B730B840B950B39F40A2661F028
:10582000232B242B252B21F408950A2609F4A140CB
:10583000A6958FEF811D811D089597F99F6780E8D8
:1058400070E060E008959FEF80EC0895DF93CF93C0
:105850001F930F93FF92EF92DF927B018C0168946C
:1058600005C0DA2EEF01AFD0FE01E894A591259195
:10587000359145915591AEF3EF0129DEFE01970177
:10588000A801DA9479F7DF90EF90FF900F911F91C4
:10589000CF91DF91089500240A9416161706180672
:1058A0000906089500240A94121613061406050624
:1058B0000895C9CF50D0E8F3E894E0E0BB279F57A4
:1058C000F0F02AED3FE049EC06C0EE0FBB0F661F7B
:1058D000771F881F28F0B23A62077307840728F001
:1058E000B25A620B730B840BE3959A9572F780386A
:1058F00030F49A95BB0F661F771F881FD2F7904828
:1059000006C1092E0394000C11F4882352F0BB0F3A
:1059100040F4BF2B11F460FF04C06F5F7F4F8F4FC7
:105920009F4F0895EF93E0FF06C0A2EA2AED3FE003
:1059300049EC5FEBCCDDE5DF0F90039401FC905860
:10594000E7EAF0E0F7C057FD9058440F551F59F0B3
:105950005F3F71F04795880F97FB991F61F09F3F5C
:1059600079F087950895121613061406551FF2CF85
:105970004695F1DF08C0161617061806991FF1CFD5
:1059800086957105610508940895E894BB276627FC
:105990007727CB0197F908952CDF08F48FEF08954E
:1059A0009B01AC0160E070E080E89FE34CCE0BD03F
:1059B000A8CF71DF28F076DF18F0952309F03DCFEE
:1059C00042CF1124E3CFBFDFA0F3959FD1F3950F12
:1059D00050E0551F629FF001729FBB27F00DB11D73
:1059E000639FAA27F00DB11DAA1F649F6627B00D03
:1059F000A11D661F829F2227B00DA11D621F739FEC
:105A0000B00DA11D621F839FA00D611D221F749FF9
:105A10003327A00D611D231F849F600D211D822F40
:105A2000762F6A2F11249F5750408AF0E1F0882387
:105A30004AF0EE0FFF1FBB1F661F771F881F915094
:105A40005040A9F79E3F510570F0F7CE9FCF5F3FC2
:105A5000ECF3983EDCF3869577956795B795F795C7
:105A6000E7959F5FC1F7FE2B880F911D969587954F
:105A700097F908959F931EDF0F9007FCEE5F52CFBA
:105A800011F40EF4E0CE41C066DFD0F39923D9F3D0
:105A9000CEF39F57550B87FF46D00024A0E640EA7F
:105AA000900180585695979528F4805C660F771F73
:105AB000881F20F026173707480730F4621B730B46
:105AC000840B202931294A2BA69517940794202569
:105AD00031254A2758F7660F771F881F20F02617B1
