:100000000C9430030C946B0C0C9462030C946203FC
:100010000C94F0070C9462030C9462030C9462033A
:100020000C9462030C9462030C9462030C946203BC
:100030000C9462030C9462030C9462030C946203AC
:100040000C946D260C9462030C9446290C94782928
:100050000C9462030C9462030C9462030C9462038C
:100060000C9462030C946203AA0BA40BB30BBD0B9C
:10007000CF0BE40B100C360C400C084AD73B3BCEA0
:10008000016E84BCBFFDC12F3D6C74319ABD568397
:100090003DDA3D00C77F11BED9E4BB4C3E916BAA4F
:1000A000AABE000000803F05A84CCDB2D44EB9389E
:1000B00036A9020C50B9918688083CA6AAAA2ABE85
:1000C000000000803F0024505542582C34312C3120
:1000D0002C303030332C303030312C31313532301F
:1000E000302C302A31450D0A00B56206010300F0BC
:1000F0000500FF19B56206010300F00300FD15B508
:100100006206010300F00100FB11B5620601030065
:10011000F00000FA0FB56206010300F00200FC13C4
:10012000B56206010300F00400FE17B56206010384
:10013000000102010E47B562060103000103010F31
:1001400049B56206010300010601124FB5620601BE
:1001500003000112011E67B56206160800030703BB
:1001600000510800008A41B56206080600C8000177
:10017000000100DE6A18041C04F0039C034E030E09
:1001800003C2026C022402160209020302FD01F4FA
:1001900001EF01E301660258024A02420238022BD3
:1001A00002BA02B002A10298028D0285027E027597
:1001B000020103F502E202D602CA0241033803FB40
:1001C0000316032B031E0389037C036B0359037C73
:1001D000035303FB03E703DA03CD03C003B603AD08
:1001E00003A4035445585420414C41524D530041FF
:1001F0004D5053004D414820583130300054494D46
:10020000455200535045454400414C5449545544CF
:1002100045205831300044495354414E43452058FD
:1002200031303000414C41524D53005448524F54EC
:10023000544C452050574D004F53442054582043B0
:1002400048004D41472043414C004445425547003A
:10025000312E315600355600562052454600494D44
:1002600050004D455400554E4954530041445641A9
:100270004E434544004D4150204D4F4445004749B1
:100280004D42414C0053454E534F5253004750533B
:1002900020434F4F524453005448524F54544C45FE
:1002A000005343524F4C4C494E4720424152530059
:1002B00053494445204241525300484F52495A4FF6
:1002C0004E00444953504C41590041444A555354FF
:1002D000205A45524F0041444A55535420414D50F5
:1002E0005300555345205649525455414C205345CF
:1002F0004E534F5200444953504C4159204D4148B0
:1003000000444953504C415920414D5053004355EE
:100310005252454E54005553452050574D005345B9
:10032000542052535349204D494E005345542052B6
:10033000535349204D41580053455420525353497B
:1003400000444953504C4159205253534900525391
:1003500053490043454C4C5300444953504C415978
:100360002056494420564F4C5453004D41494E208D
:10037000564F4C545320414C41524D0041444A5534
:10038000535420564F4C545300444953504C4159F8
:10039000204D41494E20564F4C545300564F4C541B
:1003A000414745004D415820414D5053004D414873
:1003B0002055534544004D41582053504545440075
:1003C0004D415820414C544954554445004D4158E5
:1003D0002044495354414E434500544F542044490E
:1003E0005354414E434500464C592054494D450015
:1003F000535441544953544943530055534520469F
:1004000043003C504147453E00534156452B45581B
:1004100049540045584954004F4646004F4E00533A
:10042000044A04380427044E4F542044455445439D
:100430005445442D50414C004E4F542044455445A2
:10044000435445442D4E545343004155544F2D5071
:10045000414C004155544F2D4E5453430076046D8A
:10046000046D046D046D046D0472046E0400534940
:100470003A0049443A004D572D4F5344202D205205
:10048000312E372E3100F304D104CA04EB04E30407
:10049000DA04A4049E04F304C104B704AE04444582
:1004A000425547004C4F5720564F4C545300204D57
:1004B000495353494F4E004155544F20484F4C44E7
:1004C000004155544F20525448002041524D45445C
:1004D0000044495341524D4544004C4F572053412D
:1004E000545300204E4F20475053004E4F2044415C
:1004F000544100001D1A1D1C1D191D1C1D1B1D1C17
:100500001D181D1C1D1A1D1C1D191D1C1D1B1D2029
:10051000007BC12A002100900054002400720027B3
:10052000003500CB0060017EC17EC137C110011DC6
:100530000102000F004C01F2006BC12FC175017F59
:1005400001C200BB00BB00030007007A0055010692
:10055000015C003400C50064005701BA001801DCDA
:10056000C020C034C036C0B7C090C054C024C072D0
:10057000C028C0CBC0CAC060C17EC17EC137C11017
:10058000011D0102C00FC04DC1F3C06BC12FC1716D
:10059000C178C1C2C0BBC0BBC0030007007AC05550
:1005A000C106C15CC03400C30064C05301BA001866
:1005B000C1DCC000000000960000000004F40158F7
:1005C000020D00003C000000018A04C80000000089
:1005D000000100C8003264010101000000010000B8
:1005E0000001010000010000010000000000010105
:1005F00001010100010100040000000500010000EC
:1006000000001E4D574F53440020202020000000C2
:1006100008000201000003040700000000000000C1
:10062000000102040810204080010204081020018B
:100630000204081020040404040404040402020256
:100640000202020303030303030000000025002845
:10065000002B0000000000240027002A0000A82929
:10066000E3EAF7E085EA98E001C08193EF3FF907FC
:10067000E0F3D9F311241FBECFEFD8E0DEBFCDBF2A
:1006800011E0A0E0B1E0EAEAFDE502C005900D92BC
:10069000AC36B107D9F727E0ACE6B1E001C01D9256
:1006A000A33AB207E1F716E0C0E6D6E004C022970D
:1006B000FE010E944A2ECE35D107C9F70E94EC29CF
:1006C0000C94D32E0C9400000C94B52E0C94AD2EEB
:1006D000DC01ED91FC910190F081E02D0994609195
:1006E0001405709115056115710581F420E030E065
:1006F00044EB53E46091FA047091FB048091FC0494
:100700009091FD040E94392B0E94A12B2091260676
:1007100084E6289F9001112481E0261737070CF00A
:1007200080E008958091380581110EC08091D10636
:1007300081110AC08091D006811106C080E88093A3
:10074000970681E08093D006089584B7877F84BFA1
:100750008091600088658093600081E480936000F0
:10076000FFCF8091D006882329F080E090E1A0E0BF
:10077000B0E05AC08091D106882329F08FE996E035
:10078000A4E0B0E051C08AE090E0A0E0B0E0809347
:10079000C9029093CA02A093CB02B093CC022091DD
:1007A000400521FF0CC08AE190E0A0E0B0E080931A
:1007B000C9029093CA02A093CB02B093CC0280915D
:1007C000DB06813089F08091C9029091CA02A09124
:1007D000CB02B091CC0281608093C9029093CA028F
:1007E000A093CB02B093CC0223FF11C08091C90229
:1007F0009091CA02A091CB02B091CC02806A809302
:10080000C9029093CA02A093CB02B093CC0280910C
:100810005E06811111C08091C9029091CA02A09117
:10082000CB02B091CC0298608093C9029093CA0227
:10083000A093CB02B093CC0280911D06811104C01D
:1008400080911706882389F08091C9029091CA028D
:10085000A091CB02B091CC0291608093C902909399
:10086000CA02A093CB02B093CC028091C5029091B2
:10087000C602A091C702B091C8024091C90250912E
:10088000CA026091CB027091CC0284239523A623E7
:10089000B7238093C5029093C602A093C702B0937A
:1008A000C8020895809130058823A1F18091380510
:1008B000882381F160911E0570911F0561157105F6
:1008C00049F120912F0680E090E0222339F00E9428
:1008D000D22B21EB32E047E55BE306C00E94D22B2E
:1008E0002FE632E143E85AE30E94ED2C9B01AC0174
:1008F00060917301709174018091750190917601FE
:100900000E946C2A60937301709374018093750147
:1009100090937601609173017091740180917501DB
:10092000909176010E94A62B6093E0047093E104FD
:100930008093E2049093E3040895DF92EF92FF9294
:100940000F931F93CF93DF930091D30682E5089F07
:1009500080011124D0903006C2EBD5E0065A1F4F1B
:10096000C8010E946603E82EF12CF982E882C801D2
:1009700001960E946603282F30E0322F22272E0D89
:100980003F1D39832883DD2089F0C90191708739A3
:10099000910560F0A901425E5F4F59834883813F12
:1009A000910520F0245C3F4F398328830E5F1F4F51
:1009B000229686E0C430D80799F6DF91CF911F9137
:1009C0000F91FF90EF90DF900895EF92FF920F93B9
:1009D0001F93CF93DF9302E116E0C0E0D0E0CE0199
:1009E0000E946603F80181938F012196CC34D105D2
:1009F000B1F704E016E0CCE4D0E0CE010E94AD2EC9
:100A0000E82EF12CF801F182E082CE0101960E94DD
:100A1000AD2E282F30E0322F22272E0D3F1DF8015A
:100A2000219331938F012296CA35D10531F7DF9199
:100A3000CF911F910F91FF90EF900C949D04EF9236
:100A4000FF920F931F93CF93DF9380E090E00E947B
:100A500066038D3009F458C0C0E0D0E0FE01EF53CA
:100A6000FA4F6491CE010E9464032196CC34D105E3
:100A7000A9F7CCE4D0E0FE01E959FA4F05911491B1
:100A8000602FCE010E946403612FCE0101960E9467
:100A900064032296CA35D10571F7CAE5D0E0CE01CC
:100AA000895F9A4F7C01FC0105911491602FCE0162
:100AB0000E946403612FCE0101960E946403FE012F
:100AC000EB54FB4F05911491602FCE018E5A9F4F2E
:100AD0000E946403612FCE018D5A9F4F0E946403D0
:100AE000F70105911491602FCE018C559F4F0E9404
:100AF0006403612FCE018B559F4F0E9464032296A1
:100B0000CE3FD10509F0CBCFDF91CF911F910F914F
:100B1000FF90EF9008954F925F926F927F92AF9205
:100B2000BF92CF92DF92EF92FF920F931F93CF93DA
:100B3000DF934AE1E42E41E0F42E02E515E0C0E047
:100B4000D0E05AE0D52ED7018D917D010E944C272F
:100B500020917201C11108C030911D06332339F173
:100B600080913B0590E023C0C43009F53091180610
:100B70003323A9F08091F4049091F504959587951D
:100B8000009769F4DC9EF001DD9EF00D1124E20F68
:100B9000F11DEE0FFF1FEE5BFA4F808191813091C6
:100BA0001706332321F08091120590911305DC9EE6
:100BB000F001DD9EF00D1124E20FF11DEE0FFF1F7D
:100BC000EE5BFA4FD8012D913C91119740815181F4
:100BD000241B350B11963C932E9320813181280FD5
:100BE000391F36952795318320838D919C911197DC
:100BF000820F931F8D939C9321960C5E1F4FC530DF
:100C0000D10509F0A0CF80911D0660915205709129
:100C10005305C0913706811134C080E090E0D09137
:100C20001C06C11115C00E94D22B6B017C016D2FD7
:100C300070E080E090E00E94D42B9B01AC01C701E2
:100C4000B6010E94ED2C27E137EB41ED58E314C0CB
:100C50000E94D22B6B017C016D2F70E080E090E050
:100C60000E94D42B9B01AC01C701B6010E94ED2C60
:100C70002FE632E143E05AE30E94ED2C0E94A62BBE
:100C800005C0E3E075956795EA95E1F77093F30485
:100C90006093F204809114068093EE0460916605DF
:100CA0007091670580E090E0D0912406C11115C0D5
:100CB0000E94D22B6B017C016D2F70E080E090E0F0
:100CC0000E94D42B9B01AC01C701B6010E94ED2C00
:100CD00027E137EB41ED58E314C00E94D22B6B01A2
:100CE0007C016D2F70E080E090E00E94D42B9B018E
:100CF000AC01C701B6010E94ED2C2FE632E143E0C2
:100D00005AE30E94ED2C0E94A62B7093F10460938D
:100D1000F00480911F068111CBC080912106C09103
:100D20000606D09107060091080610910906811168
:100D30004EC040907A0550907B0543E0559447940F
:100D40004A95E1F7662457FC6094762CC301B20102
:100D50000E94D42B6093FE047093FF0480930005DF
:100D6000909301059E0140E050E0C8011F921F9240
:100D70009F930F93A12CB12C6501E12C14E0F12E6F
:100D800000E010E0C301B2010E94232A0E94D42B8C
:100D90006B017C010F900F900F900F9020E030E0DE
:100DA000A9010E94322B87FD09C0C092FE04D09297
:100DB000FF04E0920005F092010595C01092FE0438
:100DC0001092FF0410920005109201058CC08091D2
:100DD0002F019091300160912101709122018617BD
:100DE000970740F060911F017091200186179707C7
:100DF00008F4BC0180E090E0685E734081099109CD
:100E0000623FB3E07B078105910548F42AE030E0BA
:100E100040E050E00E94072E69017A0105C034E6E7
:100E2000C32ED12CE12CF12CC701B6010E94D22B8C
:100E30002B013C01A7019601C701B6010E94C12DFB
:100E40000E94D22B2AE037ED43EA5CE30E94ED2CAE
:100E50009B01AC01C301B2010E946C2A6B017C01B1
:100E6000B80180E090E00E94D22B9B01AC01C70149
:100E7000B6010E94ED2C2AE037ED43E25CE30E94CC
:100E8000ED2C6B017C0180913805BE01882359F05F
:100E900080E090E00E94D22B9B01AC01C701B6011B
:100EA0000E946C2A18C080E090E00E94D22B13C0F0
:100EB0008091F8049091F90497FF02C0C29701C095
:100EC000C29664E670E00E94F32D882777FD809536
:100ED000982F0E94D42B6093FE047093FF0480939C
:100EE00000059093010580911606882309F44DC0F2
:100EF0006091A2057091A30523E0759567952A95E9
:100F0000E1F77093F7046093F6048091D10688238B
:100F100089F08091E5068F3029F470930D06609377
:100F20000C0608C0813031F470930B0660930A06FA
:100F30001092E506E0900C06F0900D0600E010E03F
:100F400020910A0630910B0640E050E0882777FD9B
:100F50008095982F1F921F921F92E4E6EF93A12C89
:100F6000B12C65010E94232A0F900F900F900F90D3
:100F70006536710514F064E670E077FF02C060E04A
:100F800070E07093F7046093F604809172018F5FB4
:100F9000883018F48093720102C010927201DF91C0
:100FA000CF911F910F91FF90EF90DF90CF90BF9066
:100FB000AF907F906F905F904F9008953B98F8941A
:100FC00080916C0083FD0AC08091680082608093EC
:100FD000680080916C00886080936C00789408951C
:100FE0001F920F920FB60F9211242F933F934F939E
:100FF0005F936F937F938F939F93AF93BF93CF93A1
:10100000EF93FF93C6B178940E94C326209170019C
:1010100030917101AB01421B530B9A01293B3B40BC
:1010200018F021E020930501709371016093700125
:10103000C3FD27C020916E0130916F01621B730BBD
:10104000CB018F5E9240209105018B3D954088F445
:101050008091D606882321F0293058F4E22F02C06F
:10106000E0914C01F0E0EE0FFF1FE95DFE4F718350
:1010700060832F5F209305017093D5066093D4069B
:1010800004C070936F0160936E01FF91EF91CF9157
:10109000BF91AF919F918F917F916F915F914F9190
:1010A0003F912F910F900FBE0F901F901895CF93E7
:1010B000DF93C0E0D0E060E0CE010E94640321969F
:1010C000C11582E0D807B9F7DF91CF910895CF938A
:1010D000DF93EC01209799F0FE016491662379F08B
:1010E0002196772767FD709586E097E00E94680358
:1010F00065E070E080E090E00E94E626EBCFDF91B3
:10110000CF910895CF92DF92EF92FF920E94D42B5D
:101110006B017C0120E030E0A9010E94E22C18164E
:101120003CF420E836E948E15BE4C701B60107C0BA
:10113000C701B601905820E836E948E15BE40E9417
:10114000392B25E33AEF4EE85CE30E94ED2C0E9438
:10115000362B6093B9027093BA028093BB029093CE
:10116000BC02FF90EF90DF90CF9008950F931F93F4
:1011700080913005882389F180911705853068F1C9
:101180006091D2047091D3048091D4049091D504DD
:101190006093CA047093CB048093CC049093CD04E5
:1011A0000091D6041091D7042091D8043091D9042D
:1011B0000093CE041093CF042093D0043093D10435
:1011C00020912405309125053093C9042093C8044B
:1011D0000E94820881E08093C5041F910F910895B9
:1011E0004F925F926F927F928F929F92AF92BF9237
:1011F000CF92DF92EF92FF920F931F93CF93DF93E3
:10120000FC016B013901E701DA016D917D918D914E
:101210009C9180809180A280B380681979098A09A5
:101220009B090E94D42B4B015C01F3016081718109
:1012300082819381D601CD90DD90ED90FC906C1968
:101240007D098E099F090E94D42B2091B90230910B
:10125000BA024091BB025091BC020E94ED2C6B017E
:101260007C01A5019401C501B4010E94ED2C2B0164
:101270003C01A7019601C701B6010E94ED2C9B011C
:10128000AC01C301B2010E946C2A0E945A2D2CE2CB
:101290003DE74EE85FE30E94ED2C0E94A62BF8018B
:1012A0006083718382839383C501B4019058A70141
:1012B00096010E94DF2A20EA3CE043EB55E40E94BD
:1012C000ED2C20E030EA4CE056E40E946C2A0E94AB
:1012D000A12B97FD05C0688379838A839B830AC00D
:1012E000DC01CB0180569347AF4FBF4F8883998372
:1012F000AA83BB83DF91CF911F910F91FF90EF9055
:10130000DF90CF90BF90AF909F908F907F906F9025
:101310005F904F9008958F929F92AF92BF92CF921D
:10132000DF92EF92FF920F931F93CF93DF93CDB78E
:10133000DEB728970FB6F894DEBF0FBECDBF809101
:101340003005882309F40EC190911705953008F4F3
:1013500009C180910401882349F0953019F081502A
:101360008093040181E080931705FFC08091C5043C
:10137000811106C00E94B60881E08093C504F5C0C3
:10138000CE0101967C018E010B5F1F4F2EEC34E0E5
:101390004AEC54E066ED74E082ED94E00E94F008BF
:1013A0006D817E818F819885B4E68B2E912CA12C46
:1013B000B12CA50194010E94072E69017A012093A6
:1013C00031053093320540933305509334056981DC
:1013D0007A818B819C81A50194010E94292E3093F2
:1013E0001905209318058091C8049091C904AA2773
:1013F00097FDA095BA2F20912405309125054091A5
:10140000260550912705281B390B4A0B5B0B2093AF
:101410002405309325054093260550932705A4E61F
:10142000B0E00E945D2E6093AE057093AF0580938F
:10143000B0059093B1058091D2049091D304A0910E
:10144000D404B091D50480932C0590932D05A093DE
:101450002E05B0932F058091D6049091D704A091CA
:10146000D804B091D9048093280590932905A093BE
:101470002A05B0932B0580911C0590911D056AE00B
:1014800070E00E94F32D653B710514F068567140C1
:1014900070930305609302058091C604811104C016
:1014A000709336056093350595E1C916D104E104C2
:1014B000F10428F081E08093C60480933805809180
:1014C000C604813009F051C088E2C816D104E10495
:1014D000F104E8F580911E0590911F058B3491056C
:1014E000B0F5C090DA04D090DB04E090DC04F0901A
:1014F000DD0498E5C90E9BE1D91EE11CF11C0E9498
:10150000B7266C157D058E059F0578F1C090DA042D
:10151000D090DB04E090DC04F090DD0480EFC80E96
:1015200085E5D81EE11CF11C0E94B7266C157D05CF
:101530008E059F0528F4109249011092380515C0B8
:101540001092D1061092C604109237050EC00E9468
:10155000B7266093DA047093DB048093DC049093E5
:10156000DD0403C082E38093040128960FB6F8944B
:10157000DEBF0FBECDBFDF91CF911F910F91FF90C6
:10158000EF90DF90CF90BF90AF909F908F90089595
:101590000F931F930E94B7260091E7061091E8066B
:1015A0002091E9063091EA06061717072807390740
:1015B000A0F5D901C80188519C4FAF4FBF4F809310
:1015C000E7069093E806A093E906B093EA064091F7
:1015D00020055091210550932305409322058091C9
:1015E000240590912505A0912605B091270590939B
:1015F000210580932005662757FD6095762F841B73
:10160000950BA60BB70B44E1489F9001499F300D05
:10161000112430933A05209339051F910F910895B5
:101620008091F5069091F60601969093F6068093C8
:10163000F5068091B502863009F44BC0823109F479
:101640005BC0823009F072C08091AF028823C1F183
:1016500080917F0290918002A0918102B0918202DC
:101660008093D6049093D704A093D804B093D90460
:101670008091830290918402A0918502B0918602AC
:101680008093D2049093D304A093D404B093D50450
:1016900060918B0270918C0280918D0290918E02EC
:1016A00028EE33E040E050E00E94292E20932405EC
:1016B0003093250540932605509327050E94C80ABC
:1016C0008091AF028093300585E08093F00681E041
:1016D00008951092AF028091860280FF08C0809129
:1016E00085028250823018F481E08093AF028091AD
:1016F000AA02809317051AC080918F0290919002E0
:1017000090931F0580931E0560919302709194023F
:10171000809195029091960220E137E240E050E0FE
:101720000E94292E30931D0520931C0580E008950A
:101730004091B60250E04930510508F0ACC0FA01C2
:10174000EC5CFF4F0C94482E823611F482E008C006
:101750001092B602853B09F09EC08091B6028F5F61
:101760008093B60298C093E09093B6028093B00243
:101770008093B8028093B7028EC094E09093B60233
:101780002091B802280F2093B8029091B70230E060
:10179000290F311D2093B7028093B5027CC095E0DC
:1017A0009093B6022091B802280F2093B80290912E
:1017B000B70230E0290F311D2093B70290E09093DB
:1017C000B4028093B30267C096E09093B602209172
:1017D000B802280F2093B8029091B70230E0290F89
:1017E000311D2093B70290E0982F88272091B302F3
:1017F0003091B402820F931F813022E0920728F4C7
:101800009093B4028093B30206C01092B402109277
:10181000B3021092B6021092B2021092B1023BC013
:101820002091B802280F2093B8029091B70230E0BF
:10183000290F311D2093B7022091B1023091B202DD
:101840002433310520F4F901E558FD4F80832F5FE3
:101850003F4F3093B2022093B1028091B302909136
:10186000B40228173907B9F487E07ACF98E090934B
:10187000B6029091B802981771F01092B6020BC0A0
:101880001092B6029091B702981305C081E0809340
:10189000C7040C94100B80E008958EBD0DB407FEB4
:1018A000FDCF8EB508956F517D4FFC012191CF0181
:1018B000222321F0FB012193BF01F7CF08956F513F
:1018C0007D4FFC0124910196222321F0FB012193FD
:1018D000BF01F7CF08951F920F920FB60F921124F8
:1018E000109277020F900FBE0F901F901895CF9314
:1018F000DF931F92CDB7DEB769830E944D0C6981DB
:10190000862F0F90DF91CF910C944D0C5E9A2A9800
:1019100064E670E080E090E00E94E6262A9A80E586
:101920008CBD81E08DBD8DB58EB56AE070E080E044
:1019300090E00E94E6265E9864E670E080E090E029
:101940000E94E62680EA0E944D0C8FEF0E944D0C0B
:101950008370813029F4809330068093DE060CC0BA
:10196000823029F4109230061092DE0605C0909164
:1019700030069E5F9093DE06809378028091300659
:10198000882341F080EE91E090937A02809379026F
:101990006CE407C086E891E090937A028093790224
:1019A0006CE080E00E94770C5E9A9FB7F894E89A0A
:1019B000809169008260809369009FBF0C949D04B0
:1019C0001F93CF93DF93C82F5E98809130068823B2
:1019D00011F060E401C060E080E00E94770C6C2FA1
:1019E00089E00E94770CCAE9D6E010E0612F8AE016
:1019F0000E94770C69918BE00E94770C1F5F163371
:101A0000A9F760EA88E00E94770C80EA0E944D0CFA
:101A100085FDFBCF80913006882311F06CE401C076
:101A20006CE080E00E94770C5E9A64E170E080E0F8
:101A300090E0DF91CF911F910C94E6265E9880EAAA
:101A40000E944D0C8FEF0E944D0C83709091780294
:101A500098130C94860C80E80E944D0C8FEF0E9426
:101A60004D0C83FFF6CF0895EF92FF920F931F93D3
:101A7000CF93DF93FB0197FF06C091958195910964
:101A8000FF24F39401C0F12CDF01A40FB11D1C92BF
:101A90003EE2E32ECAE0D0E0421306C04150DF012F
:101AA000A40FB11DEC9220E03FEF340F8F01030F24
:101AB000111DBE010E94F32D805DD8018C93CB01D6
:101AC000332379F0222311F0432FE6CF0097E1F77B
:101AD000FF2039F03EEF340FDF01A30FB11D8DE27F
:101AE0008C9380E2332331F03150DF01A30FB11D1D
:101AF0008C93F8CFCF01DF91CF911F910F91FF9081
:101B0000EF9008958F929F92AF92BF92DF92EF92E3
:101B1000FF920F931F93CF93DF93EA01F22E97FF6B
:101B200008C090958095709561957F4F8F4F9F4F1E
:101B30000E2D24E630E040E050E00E94292ECA013C
:101B4000B90126E02F0DFE01E20FF11D1082E5E044
:101B5000EE2EEF0CFE01EE0DF11D0083FAE08F2E4C
:101B6000912CA12CB12CAEE2DA2E2FEF2E0DEF101E
:101B700006C0E22EFE01E20FF11DD082F6CFE22E6A
:101B80008E01020F111DA50194010E94292E605D96
:101B9000F8016083B901CA01E11002C080E209C006
:101BA000F2E0FE1510F36115710581059105E9F666
:101BB000F5CFEE2031F0EA94FE01EE0DF11D8083A9
:101BC000F8CFCE01DF91CF911F910F91FF90EF9051
:101BD000DF90BF90AF909F908F9008953F924F926B
:101BE0005F926F927F928F929F92AF92BF92CF92AD
:101BF000DF92EF92FF920F931F93CF93DF93EA014F
:101C0000522E211103C045E0642E02C038E0632E3D
:101C1000FE01E60DF11D1082762C452C1AE0812E76
:101C2000912CA12CB12C06E0C02ED12CE12CF12C52
:101C30002AE3322E2FEF270D8E01020F111D27FDF3
:101C40001A95A50194010E94072E605DF80160833A
:101C50008EEF870D8E01080F111D87FD1A95CA01A1
:101C6000B901A70196010E94072E605DF80160830B
:101C7000B901CA01FDEF7F0EFE01E70DF11D77FCF2
:101C8000FA9530824A942FEF4212D4CF252D220F9D
:101C9000250D621AEDEF6E0EBAE0CB2ED12CE12CA1
:101CA000F12C6A948E01060D111D67FC1A95A7018F
:101CB00096010E94072E605DF8016083B901CA0198
:101CC000611571058105910511F480E203C0611071
:101CD000E8CFFBCF662041F06A94FE01E60DF11DCE
:101CE00067FCFA958083F6CFCE01DF91CF911F91EB
:101CF0000F91FF90EF90DF90CF90BF90AF909F90AB
:101D00008F907F906F905F904F903F90089580E00C
:101D1000E82FF0E0E353FD4F9081992311F08F5F9E
:101D2000F7CF0895E82FF0E0EE0FFF1FEE54FA4FC3
:101D3000208131812227307C81E02115304C09F04F
:101D400080E00895CF93DF938091EF06882309F414
:101D5000D5C18091630690916406A0E0B0E0409107
:101D60003C0550913D0560913E0570913F058423EF
:101D70009523A623B723892B8A2B8B2BD1F0809117
:101D800040068823B1F01092CF0286E18093CD0205
:101D900087E18093CE028EE10E94920E882349F063
:101DA0006091EE057091EF0571708DEC92E00E94EC
:101DB000530C80914606882309F462C080913C054B
:101DC00090913D05A0913E05B0913F0540915F0681
:101DD00050E060E070E0482359236A237B23452BC1
:101DE000462B472B69F44091600650E060E070E0BC
:101DF000482359236A237B23452B462B472B29F065
:101E000020EA2093CD02E1E001C0E0E040916106CC
:101E100050E060E070E0482359236A237B23452B80
:101E2000462B472B39F0CE2FD0E0C353DD4F22EAAB
:101E30002883EF5F4091620650E060E070E0482345
:101E400059236A237B23452B462B472B39F0AE2F92
:101E5000B0E0A353BD4F81EA8C93EF5FF0E0E35312
:101E6000FD4F108286E00E94920E882349F0609117
:101E7000BE057091BF0571708DEC92E00E94530C0D
:101E800080913C0590913D05A0913E05B0913F05A4
:101E900040916D0650916E0660916F0670917006CC
:101EA000482359236A237B23452B462B472B39F0A4
:101EB0001092CF028AEA8093CD028BEA89C04091CA
:101EC0006506509166066091670670916806482322
:101ED00059236A237B23452B462B472B49F08DE959
:101EE0008093CD028EE98093CE021092CF0272C011
:101EF0004091690650916A0660916B0670916C067C
:101F0000482359236A237B23452B462B472B39F043
:101F10001092CF028DEC8093CD028EEC59C040918F
:101F20008106509182066091830670918406482351
:101F300059236A237B23452B462B472B81F0809125
:101F400016054AE050E06FEC72E090E00E947D2EB2
:101F50001092D10285EB8093CD0286EB39C040917F
:101F6000610650E060E070E0482359236A237B2338
:101F7000452B462B472B61F640915F0650E060E011
:101F800070E0482359236A237B23452B462B472B9C
:101F900039F01092CF028CEA8093CD028DEA18C0FE
:101FA0004091600650E060E070E0482359236A23C6
:101FB0007B231092CF02452B462B472B29F084EC34
:101FC0008093CD0285EC04C088E98093CD028FEA2E
:101FD0008093CE02809139068823C9F181E20E9464
:101FE000920E8823A1F16091F4057091F50571704E
:101FF0008DEC92E00E94530C8091710690917206D4
:10200000A0917306B091740640913C0550913D0536
:1020100060913E0570913F0584239523A623B72345
:10202000892B8A2B8B2B99F08AEE8093CD028BEE35
:102030008093CE021092CF026091F4057091F50565
:1020400071706E5F7F4F8DEC92E00E94530C809117
:10205000E106811153C084E20E94920E882309F4A4
:102060004DC040913C0550913D0560913E057091F9
:102070003F058091650690916606A0916706B09134
:10208000680684239523A623B723892B8A2B8B2BC1
:1020900011F58091690690916A06A0916B06B09146
:1020A0006C0684239523A623B723892B8A2B8B2B9D
:1020B000A1F48091810690918206A0918306B0914F
:1020C000840684239523A623B723892B8A2B8B2B65
:1020D000A9F0E3E003C0E1E001C0E2E0F0E0EE0FD0
:1020E000FF1FEA56FB4F859194916091FA0570911C
:1020F000FB057170DF91CF910C945F0CDF91CF9154
:102100000895E4E5F6E0ADECB2E021912D9326E0F0
:10211000EE35F207D1F71092D702BC018DEC92E0B8
:102120000C94530C8F929F92AF92BF92DF92EF92DA
:10213000FF920F931F93CF93DF9380913F068111FE
:1021400005C080914706882309F4C9C080913805ED
:10215000811104C010921F0510921E0580911E056A
:1021600090911F0520911A0530911B05AC01415F2C
:102170005F4F42175307F0F40E94B72660930C0597
:1021800070930D0580930E0590930F0582E0809368
:10219000110580911E0590911F0590931B0580935A
:1021A0001A0580912401815080932401803130F5FB
:1021B00085E122C0215F3F4F28173907F8F40E94BC
:1021C000B72660930C0570930D0580930E059093D0
:1021D0000F0581E08093110580911E0590911F05E8
:1021E00090931B0580931A05809124018F5F809343
:1021F0002401863118F080E1809324018091AE059E
:102200009091AF05A091B005B091B1054091AA059C
:102210005091AB056091AC057091AD058C019D01AD
:102220000C5E1F4F2F4F3F4F041715072607370728
:1022300034F50E94B72660930805709309058093D2
:102240000A0590930B0582E0809310058091AE05FE
:102250009091AF05A091B005B091B1058093AA050A
:102260009093AB05A093AC05B093AD05809123018D
:10227000815080932301803190F585E12EC04C5E22
:102280005F4F6F4F7F4F481759076A077B073CF531
:102290000E94B726609308057093090580930A058C
:1022A00090930B0581E0809310058091AE0590918D
:1022B000AF05A091B005B091B1058093AA059093A8
:1022C000AB05A093AC05B093AD05809123018F5F62
:1022D00080932301863118F080E18093230180915F
:1022E0003F06811105C083E180932401809323017F
:1022F0000091E4051091E5051170C091320689E165
:102300000E94920E8C2381F082E20E94920E811133
:102310000BC0F801EF51FD4FDF01119786E28C935E
:102320008CEB81838EE7808380913306882309F4C8
:102330009EC08AE10E94920E882309F498C0809181
:10234000EC058F709091EA059F70D92E492F419529
:102350006091240150912301E82EFF24E7FCF094C2
:1023600098012E193F09E701C00FD11F7EE14702F6
:10237000C00111248F519D4FFC01E20FF31F6083B8
:10238000FC01EC0FFD1F50834F5FD4167CF7F80162
:10239000EE19FF09EE51FD4F83E08083F801EE0D49
:1023A000FF1DE052FD4F82E0808380914706882325
:1023B00009F45DC08BE10E94920E882309F457C096
:1023C0000E94B72680900C0590900D05A0900E05F8
:1023D000B0900F0528EE820E23E0921EA11CB11CC6
:1023E000681579058A059B05D8F480911105F801D7
:1023F000823059F48EE1D89EE019F1091124EE19CA
:10240000FF09EF51FD4F89EC0AC02EE1D29EE00D8D
:10241000F11D1124EE19FF09EF51FD4F8FEC808360
:102420000E94B726009108051091090520910A0520
:1024300030910B0508511C4F2F4F3F4F601771070C
:1024400082079307A0F480911005CF51DD4F8230B1
:1024500039F47EE1D79EC019D109112489EC06C058
:102460008EE1D89EC00DD11D11248FEC8883DF91A1
:10247000CF911F910F91FF90EF90DF90BF90AF90A1
:102480009F908F900895AF92BF92CF92DF92EF927C
:10249000FF920F931F9380911A068093EF0480910F
:1024A0001B068093D706909134069923E1F1209181
:1024B0002601829F9001112440912501849FA00153
:1024C00011248091F2049091F3048217930710F481
:1024D000622F09C07A0162E0E61AF1088E159F05A5
:1024E00008F47C016E2D7A0181E0E81AF10800E021
:1024F00010E0442737FD4095542F70E080E090E0D5
:102500001F921F921F92E7E0EF93A12CB12C65015F
:102510000E94232A86E9861B8093CD020F900F909C
:102520000F900F9003C087E98093CD020091F204D1
:102530001091F304E090EF04F12C0E151F0520F428
:102540008091E106811127C085E10E94920E8111E0
:1025500003C0E016F106F8F023E044E06EEC72E010
:10256000C8010E94340D89EA8093D2021092D302EE
:102570006091DC057091DD057170615071098DEC21
:1025800092E01F910F91FF90EF90DF90CF90BF905E
:10259000AF900C94530C1F910F91FF90EF90DF9030
:1025A000CF90BF90AF900895CF93DF93C091F00488
:1025B000D091F1048091EE0490E0C817D90720F47F
:1025C0008091E106811121C086E10E94920E88234C
:1025D000E1F08FEB8093CD0223E044E06EEC72E0FB
:1025E000CE010E94340D89EA8093D2021092D30268
:1025F0006091DE057091DF057170615071098DEC9D
:1026000092E0DF91CF910C94530CDF91CF9108951C
:10261000AF92BF92CF92DF92EF92FF920F931F93F0
:102620008BE00E94920E882309F480C080E28093A0
:10263000CE0280912F019091300120911F013091A5
:1026400020012817390720F49093200180931F015F
:1026500020912101309122018217930720F4909359
:1026600022018093210120911F013091200123300C
:10267000384030F022E038E03093200120931F01F1
:102680002091210130912201263B334030F426EB8A
:1026900033E030932201209321012091250622234B
:1026A00039F020E044E06FEC72E00E94340D28C065
:1026B000E0901F01F090200100E010E02091210146
:1026C0003091220140E050E0BC0180E090E01F9298
:1026D0001F921F92E4E6EF93A12CB12C65010E949A
:1026E000232ADC01CB0120E043E06FEC72E00E9482
:1026F000340D85E28093D2020F900F900F900F90CF
:1027000088EC8093CD021092D3026091C80570913D
:10271000C90571708DEC92E01F910F91FF90EF90C1
:10272000DF90CF90BF90AF900C94530C1F910F91FE
:10273000FF90EF90DF90CF90BF90AF900895809181
:102740004506882309F44EC08091CC059091CD05B3
:102750008115924008F446C0809138058823F1F035
:102760002091040530910505C9016CE370E00E94D9
:10277000DF2D8091530690E06817790720F0809153
:10278000E10681112FC020318EE0380728F48CE952
:102790008093CD02B90116C081E709C0609106059A
:1027A0007091070560312EE0720720F48BE9809369
:1027B000CD0208C080E78093CD02CB016CE370E0CE
:1027C0000E94DF2D80E090E020E04EEC52E00E947D
:1027D000EE0D6091CC057091CD0571708DEC92E09D
:1027E0000C94530C0895CF92DF92EF92FF92C09019
:1027F000FE04D090FF04E0900005F0900105609188
:10280000E4047091E50480E090E00E94D22B9B01EB
:10281000AC01C701B6010E94E22C181644F4C701AE
:10282000B6010E94A62B7093E5046093E40487E14F
:102830000E94920E8823F1F0C701B6010E94A12BDD
:10284000DC01CB0124E045E06DEC72E00E94340D28
:102850008AE98093D2021092D3026091E0057091D0
:10286000E10571708DEC92E0FF90EF90DF90CF90DA
:102870000C94530CFF90EF90DF90CF900895CF937E
:10288000DF9385E20E94920E8823B1F1C091FC058E
:10289000D091FD05D1706091F2047091F30480E055
:1028A00090E00E94D22B2091FE043091FF044091D1
:1028B0000005509101050E94ED2C20E030E048EC2D
:1028C00052E40E94392B0E94A62BDC01CB0125E0AB
:1028D00045E06EEC72E00E94340D80E28093CD0200
:1028E00087E58093D2021092D302BE018DEC92E074
:1028F000DF91CF910C94530CDF91CF91089588E133
:102900000E94920E882321F184EA8093CD0220E078
:1029100030E044EB53E46091FA047091FB04809141
:10292000FC049091FD040E94392B0E94A12BDC0134
:10293000CB014AE050E06EEC72E00E947D2E609187
:10294000E2057091E30571708DEC92E00C94530CEC
:10295000089583E10E94920E882331F18AEB8093DF
:10296000CD024AE050E06EEC72E08091F604909166
:10297000F7040E947D2E0E94870EA82FB0E0A3537B
:10298000BD4F95E29C938F5FE82FF0E0E353FD4F3E
:1029900010826091D8057091D905717061507109EC
:1029A0008DEC92E00C94530C089587E00E94920EF7
:1029B000882381F180912D06882361F180910205A1
:1029C0009091030520912E06222381F097FF02C0EB
:1029D00088599E4F20E043E06DEC72E00E94340D78
:1029E0008DEB8093D0021092D1020BC020E044E026
:1029F0006DEC72E00E94340D8DEB8093D102109249
:102A0000D2026091C0057091C10571708DEC92E0A9
:102A10000C94530C089588E00E94920E8823F9F0DC
:102A2000809143068823D9F0809102059091030597
:102A3000880F991F880F991F83509D4F6AE570E09A
:102A40000E94F32D6B507B4F8091C2059091C3057E
:102A5000917049E050E08F519D4F0C94742E089571
:102A60000F931F93CF93DF930DE514E0C0E4D0E004
:102A7000F80185919491BE010E945F0C0E5F1F4F7B
:102A80006E96C03381E0D80799F788EF90E00E94F6
:102A90008110E091DE06F0E0EE0FFF1FE15EFB4FDC
:102AA0008591949166E171E0DF91CF911F910F9133
:102AB0000C945F0CCF93C0911705C53020F4809122
:102AC000E10681111DC080E00E94920E8823C1F0B2
:102AD0008EE18093CD028FE18093CE024AE050E0F8
:102AE0006FEC72E08C2F90E00E947D2E6091B20519
:102AF0007091B30571708DEC92E0CF910C94530CF2
:102B0000CF9108950F931F93CF93DF93809130055A
:102B1000882309F465C080913805811104C01092A2
:102B20001F0510921E05C0912F0660911E05709121
:102B30001F0580E090E0C11107C00E94D22B2CEB52
:102B400034E743E15DE306C00E94D22B2DED3FE365
:102B500047EB5CE30E94ED2C0E94A62B8B01809139
:102B6000EC049091ED049C012C5E3F4F201731073F
:102B700028F43093ED042093EC0407C080179107EC
:102B800020F41093ED040093EC0483E00E94920E75
:102B9000882331F180915206882341F090E080171C
:102BA000910720F48091E10681111AC0D0E0C75A44
:102BB000DE4F88818093CD024AE050E06EEC72E0F7
:102BC000C8010E947D2E6091B8057091B9057170A1
:102BD0008DEC92E0DF91CF911F910F910C94530CEB
:102BE000DF91CF911F910F910895AF92BF92CF9235
:102BF000DF92EF92FF920F931F93CF93DF938AE0C0
:102C00000E94920E882309F44CC0809141068823CB
:102C100009F447C0C091C605D091C705D170CF5106
:102C2000DD4FFE017E978FE7808388838E8F8091B2
:102C3000390590913A058937910534F488382FEF9A
:102C4000920724F0682F03C068E701C068E877277F
:102C500067FD7095872F972F1F921F921F9221E17A
:102C60002F93A12CB12C650118E8E12EFF24FA94D2
:102C70000FEF1FEF28E730E040E050E00E94232AEA
:102C8000862F66E00E94D12D81502EE18202C00D78
:102C9000D11D11248FE8891B88830F900F900F900E
:102CA0000F90DF91CF911F910F91FF90EF90DF90E8
:102CB000CF90BF90AF90089580913005882309F19F
:102CC00084E00E94920E8823E1F080912C068823F4
:102CD000C1F020E043E06DEC72E080911805909126
:102CE00019050E94340D8DEB8093D0021092D10211
:102CF0006091BA057091BB0571708DEC92E00C94F7
:102D0000530C0895809130058823F1F181E00E94F1
:102D1000920E8823C9F18091310590913205A091DE
:102D20003305B09134050397A105B10520F48091D6
:102D3000E106811129C02091B4053091B5053170AB
:102D40008091020590910305845E9D4F4091180586
:102D500050911905841B950B880F991F880F991F97
:102D60008D966AE570E00E94F32DCB0160E170E082
:102D70000E94F32D805A8093CD021092CE02B901A9
:102D80008DEC92E00C94530C089520914B012A3065
:102D900061F480914A01833009F48DC0813009F4D7
:102DA0008DC0823009F48DC07AC02A3008F077C017
:102DB00030914901313079F483E080934A01283021
:102DC00019F48AE080934B0180914B01893009F01E
:102DD00063C087E05FC0323079F483E080934A01BA
:102DE000273019F48AE080934B0180914B018930A0
:102DF00009F052C086E04EC0333069F430934A0186
:102E0000293019F485E080934B0180914B01863085
:102E100009F042C03EC03430E9F4293049F48091D1
:102E2000D806883011F48AE001C088E080934B0115
:102E300020914B012093D80683E080934A0130E033
:102E40002E5F3F4F4EE1429FC001439F900D1124E2
:102E5000469627C0353069F483E080934A012930D3
:102E600019F486E080934B0180914B018730A1F4E7
:102E700010C080E090E03630A1F483E080934A01F6
:102E8000293019F487E080934B0180914B01883001
:102E900019F48AE080934B0120914B01D0CF80E060
:102EA00090E02091E206222379F0FC01EF51FD4FE2
:102EB00023E0208308958AE791E0F3CF8AE691E04A
:102EC000F0CF80E791E0EDCF08952F923F924F929F
:102ED0005F926F927F928F929F92AF92BF92CF92AA
:102EE000DF92EF92FF920F931F93CF93DF93CDB7B3
:102EF000DEB762970FB6F894DEBF0FBECDBF8091EC
:102F000036068230A1F040F4813009F0EEC101E0D4
:102F100010E01C830B8309C0833019F0843039F032
:102F2000E4C122E030E03C832B831F8206C082E0B4
:102F300090E09C838B8391E09F8380913005882370
:102F400009F4D3C182E20E94920E882309F4CDC114
:102F50001E821D82198A1A8A9F81AD819A0F9A83D7
:102F6000892F90E0EB81FC818E179F070CF0BDC18B
:102F70008091180590911905AA81A13069F42091DA
:102F8000350530913605821B930B845E9D4F68E6B4
:102F900071E00E94DF2D0CC088599E4F20910205E0
:102FA00030910305821B930B68E671E00E94F32DBC
:102FB0009C016AE570E00E94F32D61307105C1F05B
:102FC0003CF4672B29F5BFEFB98BE1E0EA8B20C019
:102FD00062307105B9F063307105D1F488E691E093
:102FE000821B930B9C019FEF998BAFEFAA8B10C0B4
:102FF000E4EBF0E0E21BF30B9F01F1E0F98B01E061
:103000000A8B06C0245B310911E0198B4FEF4A8B04
:10301000B901882777FD8095982F0E94D42B2BED3E
:103020003FE049E450E40E94ED2C20E030E044E32E
:1030300053E40E94392B1B012C01609131057091E2
:10304000320580913305909134050E94D22B4B01BB
:103050005C01C201B1010E94502D9B01AC01C50170
:10306000B4010E94ED2C0E94A62B6B017C01C201D1
:10307000B1010E94362B9B01AC01C501B4010E9435
:10308000ED2C0E94A62B8B019C011B01412C512C85
:10309000B60180E090E0C016D10618F4420131017B
:1030A00002C03B014C01F4E66F16710481049104E7
:1030B00090F004EF601601E070068104910480F046
:1030C00014EC611619E071068104910470F093010B
:1030D00044E249830EC0A1E2A98324E630E009C09E
:1030E000B2E2B98324EF31E004C0E3E2E98324ECE7
:1030F00039E079010027F7FC0095102FE886F98662
:103100000A871B871F921F921F92B0E1FB2EFF922E
:10311000A12CB12C6501E884F9840A851B8520E087
:1031200030E0A9010E94232A6C877D878E879F87C4
:103130001F921F921F920FE00F93E884F9840A8573
:103140001B8520E030E0A901C201B1010E94232AC1
:103150000FB6F894DEBF0FBECDBF34E16316710425
:1031600081049104D8F0AA894A2F552747FD50952C
:10317000EC85FD854E9F90014F9F300D5E9F300D79
:103180001124F9894F2F552747FD5095469FF0018F
:10319000479FF00D569FF00D112404C0E0E0F0E0D1
:1031A00020E030E0C090F805D090F90501E0D02291
:1031B000790189010F5F1F4F37FD7801F594E7947E
:1031C000EC0CFD1CCF0163E070E00E94F32D4EE19A
:1031D000469FC001479F900D1124E80EF91E4A81B9
:1031E000413011F045E001C044E0C90137FF04C09F
:1031F00088279927821B930BA82FA178A7FF03C0CC
:10320000A150AE6FAF5F5A2FCF01F7FF04C08827E0
:1032100099278E1B9F0B63E00E94D12D89898130F5
:1032200019F482E0891B982FBA89BF3F11F451E04D
:103230005A1B3296359718F491E0E9899E1B0330AA
:10324000110528F451E02F3F3F4F09F450E00A8167
:10325000002311F080ED01C086ED20913606243068
:1032600031F0152F110F150F190F180F16C080917F
:103270000205909103052091350530913605821B9A
:10328000930B8A519D4F68E671E00E94DF2D6DE23D
:1032900070E00E94DF2D12E7160F29812093CD02E6
:1032A0001092CE026091F6057091F70571708DEC69
:1032B00092E0488B0E94530C1093CD021092CE02E4
:1032C000B7018DEC92E00E94530C48894093CD02E7
:1032D0001092CE02B6018DEC92E00E94530C8D81CB
:1032E0009E8101969E838D8337CE62960FB6F894A9
:1032F000DEBF0FBECDBFDF91CF911F910F91FF9029
:10330000EF90DF90CF90BF90AF909F908F907F9085
:103310006F905F904F903F902F9008959C01E62F03
:10332000F0E0EE5EF94FE081F0E0EE0FFF1FEB58AA
:10333000FE4F85919491B9010C945F0C0F931F93EC
:10334000CF938EE00E94920E882309F4ADC0809145
:103350002206882309F4A8C080913805811109C08C
:103360008091C10482608093C1048EE180934D01FD
:1033700016C090914D01992369F08091E206811168
:1033800093C08091C10484608093C1049150909354
:103390004D0105C08091C10481608093C10480917A
:1033A000EF0490E02091F2043091F3048217930728
:1033B00028F08091C10480648093C104809140050D
:1033C00083FF12C080911705853028F48091C104D5
:1033D00080628093C1048091F006811105C08091C4
:1033E000C10480618093C1048091C104887F80936F
:1033F000C1049091C204911102C08093C2048091D3
:10340000C204C82FC195C8230E94B7260091F906AF
:103410001091FA062091FB063091FC060C501E4FCD
:103420002F4F3F4F061717072807390798F4909139
:10343000C204992329F08C2F809589238093C2049C
:103440000E94B7266093F9067093FA068093FB06F4
:103450009093FC0680E090E060E02C2F30E0E82FB5
:10346000A901082E02C0559547950A94E2F740FF3E
:10347000E62F01968830910511F06E2FF0CF8091E4
:10348000C104823088F0F0E0EE0FFF1FEA57FB4FD7
:10349000859194916091CE057091CF057170CF9117
:1034A0001F910F910C945F0CCF911F910F91089574
:1034B000CF92DF92EF92FF920F931F93CF93DF9300
:1034C0006B017C01042F122FC42FD0E080E1C816BD
:1034D00087E2D806E104F104DCF180912F0688230D
:1034E00089F0C701B60120EA34E140E050E00E94D3
:1034F000292E6C0D7D1D8E1D9F1D20E132E040E0C8
:1035000050E006C0C701B60124E630E040E050E0DC
:103510000E94292EDA01C901BE0163537D4F4AE0A2
:1035200050E00E947D2E0E94870E282F30E0D901A6
:10353000A453BD4F9C91F901E353FD4F90839EE24C
:103540009C938F5FE82FF0E0E353FD4F108208C09B
:10355000BE0163537D4F4AE050E0C6010E947D2EBC
:10356000013051F4E0912F06F0E0EF5AFE4FE10FE9
:10357000F11D80818093CD02DF91CF911F910F913A
:10358000FF90EF90DF90CF900895CF92DF92EF926F
:10359000FF92CF9380912B06882309F454C085E0D5
:1035A0000E94920E882309F44EC080912F06882332
:1035B000A9F06091240570912505809126059091D0
:1035C00027050E94D42B21EA38EF41E550E40E9400
:1035D000ED2C0E94A12B6B017C0108C0C09024053A
:1035E000D0902505E0902605F0902705C091510662
:1035F000CC23A9F0C701B6012AE030E040E050E05A
:103600000E94292E8C2F90E0A0E0B0E02817390707
:103610004A075B0724F08091E106811114C020E085
:1036200041E0C701B6010E94581A6091BC05709133
:10363000BD0571708DEC92E0CF91FF90EF90DF901F
:10364000CF900C94530CCF91FF90EF90DF90CF90E0
:103650000895EF920F931F93CF93DF9380913005DE
:10366000882309F477C00E94C51A81E10E94920E56
:10367000882309F46FC080913C0590913D05A0918D
:103680003E05B0913F0540916506509166066091F8
:1036900067067091680601E010E020E030E00097D6
:1036A000A105B10519F000E010E0980104231523ED
:1036B00026233723012B022B032B09F04BC0842335
:1036C0009523A623B72320912906822B892B8A2BA9
:1036D0008B2B09F43FC0C091D405D091D505D17092
:1036E0008AEC8093CD0260912C0570912D0580911C
:1036F0002E0590912F0523E5E22E0EE424E04EECFA
:1037000052E00E94820DBE018DEC92E00E94530CAB
:10371000C091D605D091D705D1708BEC8093CD02A6
:10372000609128057091290580912A0590912B05BB
:1037300037E5E32E05E424E04EEC52E00E94820DD2
:10374000BE018DEC92E0DF91CF911F910F91EF9030
:103750000C94530CDF91CF911F910F91EF9008952E
:10376000CF93DF9380912F068823A1F06091AE055F
:103770007091AF058091B0059091B1050E94D42B56
:103780002EEA31E646E05DE30E94ED2C0E94A12B7B
:10379000EB010FC06091AE057091AF058091B0054F
:1037A0009091B10524E630E040E050E00E94292EDF
:1037B000E90180913805882389F08091D90690919C
:1037C000DA06069758F08091EA049091EB048C1782
:1037D0009D0724F4D093EB04C093EA0489E00E948F
:1037E000920E882351F180914206882331F1409155
:1037F0005106442371F0CE016AE070E00E94F32D7F
:10380000842F90E06817790724F08091E1068111F8
:1038100014C0BE01882777FD8095982F20E041E0F5
:103820000E94581A6091C4057091C50571708DECA5
:1038300092E0DF91CF910C94530CDF91CF910895DA
:10384000CF92DF92EF92FF92CF9380913005882341
:1038500009F473C080912F068823A9F06091310587
:103860007091320580913305909134050E94D22BDE
:1038700021EA38EF41E550E40E94ED2C0E94A62B8E
:103880006B017C0108C0C0903105D0903205E090FA
:103890003305F09034058091E6049091E704A091FF
:1038A000E804B091E9048C159D05AE05BF0598F4B8
:1038B0008C599F4FAF4FBF4F8C159D05AE05BF056F
:1038C00010F46C017D01C092E604D092E704E0920E
:1038D000E804F092E90482E00E94920E882369F1E4
:1038E000C0915006CC23A9F0C701B60124E630E010
:1038F00040E050E00E94072E8C2F90E0A0E0B0E066
:10390000281739074A075B0720F08091E1068111EB
:1039100014C022E041E0C701B6010E94581A60912C
:10392000B6057091B70571708DEC92E0CF91FF9064
:10393000EF90DF90CF900C94530CCF91FF90EF90CD
:10394000DF90CF900895CF92DF92EF92FF920F9386
:103950001F93CF93DF93CDB7DEB7E0970FB6F89400
:10396000DEBF0FBECDBFE0914901EE0FFF0BE75860
:10397000FE4F8591949163E270E00E945F0C6BE6CC
:1039800071E083E194E00E945F0C80913705811122
:103990000CC061E771E089E094E00E945F0C6BE786
:1039A00071E082E094E00E945F0C809149018111F6
:1039B0008BC08091E0049091E104A091E204B09169
:1039C000E3048D839E83AF83B8878091E604909152
:1039D000E704A091E804B091E90489879A87AB874E
:1039E000BC878091EA049091EB04AA2797FDA095EB
:1039F000BA2F8D879E87AF87B88B8091EC0490910A
:103A0000ED04A0E0B0E0898B9A8BAB8BBC8B20E0FF
:103A100030E044EB53E46091FA047091FB04809130
:103A2000FC049091FD040E94392B0E94A62B6D8B03
:103A30007E8B8F8B988F8091E4049091E5046AE0EF
:103A400070E00E94DF2DCB01A0E0B0E0898F9A8F5B
:103A5000AB8FBC8FF5EDEF2EF1E0FF2ECE0101967E
:103A60006C010DE510E0F70185919491B8010E9479
:103A70005F0CF60161917191819191916F0122E04A
:103A800040E00E94581AB8016F5E7F4F8DEC92E0C3
:103A90000E94530CF2E0EF0EF11C025E1F4F0F323A
:103AA00081E0180701F76091DE047091DF0480E087
:103AB00090E021E04DEC52E00E94EE0D6DE670E0EA
:103AC0008DEC92E00E94530C80914901813009F005
:103AD00096C00E948B0587E98093CD0223E044E0E5
:103AE0006EEC72E08091F2049091F3040E94340D28
:103AF00019EA1093D2021092D30264E370E08DECC5
:103B000092E00E94530C8FEB8093CD0223E044E0BF
:103B10006EEC72E08091F0049091F1040E94340DFB
:103B20001093D2021092D3026CE270E08DEC92E01E
:103B30000E94530CE7ECEE2EE1E0FE2E0DE510E0C6
:103B4000F70185919491B8010E945F0C92E0E90E13
:103B5000F11C025E1F4F0F32E1E01E0789F78091D2
:103B600023064AE050E06DEC72E090E00E947D2E6A
:103B70006BEC70E00E94530C67E081E790E00E94DC
:103B80008E1980911C064AE050E06DEC72E090E0E6
:103B90000E947D2E6FE870E00E94530C80911A06FF
:103BA0004AE050E06DEC72E090E00E947D2E6DEAFC
:103BB00070E00E94530C61E18BEC90E00E948E1942
:103BC000809124064AE050E06DEC72E090E00E94A3
:103BD0007D2E69EE70E00E94530C80911B064AE036
:103BE00050E06DEC72E090E00E947D2E67E071E0A5
:103BF0000E94530C6BE085E291E00E948E19809147
:103C00004901823009F072C04AE050E06DEC72E088
:103C10008091F6049091F7040E947D2E0E94870EF9
:103C2000A82FB0E0A353BD4F95E29C938F5FE82F80
:103C3000F0E0E353FD4F108265E370E08DEC92E01D
:103C40000E94530C7BEBE72E71E0F72E0DE510E0A0
:103C5000F70185919491B8010E945F0CF2E0EF0E9C
:103C6000F11C025E1F4F013181E0180789F764E003
:103C700081E790E00E948E198091E506882351F03B
:103C80004AE050E06DEC72E090E00E947D2E6FE81B
:103C900070E004C06FE870E08FE491E00E94530C84
:103CA00065E08DEA90E00E948E1966E08BEC90E072
:103CB0000E948E194AE050E06DEC72E080910C0693
:103CC00090910D060E947D2E69EE70E00E94530CCB
:103CD0004AE050E06DEC72E080910A0690910B068C
:103CE0000E947D2E67E071E00E94530C8091490193
:103CF000833009F05CC06091FE047091FF048091F4
:103D00000005909101050E94A12BDC01CB0123E06D
:103D100044E06DEC72E00E94340D8AE98093D10298
:103D20001092D20264E370E08DEC92E00E94530C9A
:103D300061EBE62E61E0F62E0DE510E0F7018591CE
:103D40009491B8010E945F0C92E0E90EF11C025EB2
:103D50001F4F033F110591F76CE081E790E00E944F
:103D60008E196EE08FE890E00E948E196FE08DEA68
:103D700090E00E948E194AE050E06DEC72E0809174
:103D80000806909109060E947D2E6BEC70E00E945F
:103D9000530C4AE050E06DEC72E080910606909181
:103DA00007060E947D2E69EE70E00E94530C809100
:103DB0004901843009F045C051EAE52E51E0F52E65
:103DC0000DE510E0F70185919491B8010E945F0C18
:103DD000E2E0EE0EF11C025E1F4F0D34F1E01F0712
:103DE00089F760E281E790E00E948E1961E28FE836
:103DF00090E00E948E196DE28DEA90E00E948E198B
:103E00006FE18BEC90E00E948E1967E189EE90E003
:103E10000E948E1964E387E091E00E948E196EE2A1
:103E200085E291E00E948E19809136064AE050E0CA
:103E30006DEC72E090E00E947D2E63E471E00E94E0
:103E4000530C80914901853009F05AC045E9E42EB0
:103E500041E0F42E0DE510E0F70185919491B80151
:103E60000E945F0C82E0E80EF11C025E1F4F0131E0
:103E700091E0190789F780912F0661E770E08111C1
:103E800003C082E692E002C08EE592E00E945F0CE1
:103E9000809137066FE870E0882319F085E592E09D
:103EA00002C080E592E00E945F0C6CE28DEA90E037
:103EB0000E948E198091E606882351F04AE050E076
:103EC0006DEC72E090E00E947D2E6BEC70E004C01F
:103ED0006BEC70E08FE491E00E94530C80914C06F3
:103EE0004AE050E06DEC72E090E00E947D2E69EEB9
:103EF00070E00E94530C63E187E091E00E948E190C
:103F000080914901863009F04FC08091500690E0C1
:103F10009E8F8D8F8091510690E098A38F8F809116
:103F2000520690E09AA389A38091530690E09CA347
:103F30008BA38091260690E09EA38DA380912706F7
:103F400090E098A78FA30DE510E0E12CF12CD12C87
:103F5000F701E957FE4F85919491B8010E945F0CDB
:103F6000E6E0DE1699F04AE050E06DEC72E0EDE13B
:103F7000F0E0EC0FFD1FEE0DFF1D808191810E948E
:103F80007D2EB8016C5E7F4F0E94530CD394F2E0FB
:103F9000EF0EF11C025E1F4F87E0D812D9CF60E10F
:103FA00085E291E00E948E1980914901873014F0DA
:103FB00010924901E0960FB6F894DEBF0FBECDBF58
:103FC000DF91CF911F910F91FF90EF90DF90CF90F5
:103FD0000C94C516E091780181E08E0F80937801F2
:103FE000F0E0E358FE4F80810895CF93DF930E9465
:103FF000EA1FC82FD0E00E94EA1F9E01382BC9019A
:10400000DF91CF91089581E0809349018AE0809308
:104010004B0183E080934A011092D106109237053C
:1040200080913506882301F11092E0041092E1049A
:104030001092E2041092E3041092E6041092E70456
:104040001092E8041092E9041092EB041092EA0432
:104050001092ED041092EC041092E5041092E40426
:104060001092DF041092DE040C94B10384B714BEE6
:10407000809160008861809360001092600026E06B
:1040800040E052EC61E070E086E097E00E94E428B6
:104090008091C00082608093C0001092C50080E1D2
:1040A0008093C40086E097E00E945D2884B18C6212
:1040B00084B92498569A529860E084E10E9492272D
:1040C00060E081E10E94922760E081E10E949227F6
:1040D00061E087E00E9492270E94DE070E941F0590
:1040E0000E94E50464EF71E080E090E00E94E62623
:1040F00080913706882311F081E001C083E00E949F
:1041000049270E94860C8AE08093F2068091400540
:10411000909141058F6090934105809340050C94E8
:10412000B103CF93DF93C6E0D1E064E670E080E0B6
:1041300090E00E94E626499159916991799126E093
:1041400086E097E00E94E42886E097E00E945D28E0
:1041500086EC90E00E94670881E0CA31D80729F711
:1041600086E097E00E945D2864E670E080E090E0E1
:104170000E94E62626E040E052EC61E070E086E036
:1041800097E00E94E428C9EED0E0FE01649186E049
:1041900097E00E947F2865E070E080E090E00E9458
:1041A000E6262196F1E0C537DF0779F7DF91CF9159
:1041B0000895CF93C82F682F86E097E00E947F284C
:1041C000909177019C2790937701CF910895CF9399
:1041D000DF931F92CDB7DEB799830E94D9209981D2
:1041E000892F0F90DF91CF910C94D92060917701A6
:1041F00086E097E00C947F28CF93DF93D82FC62FCB
:1042000064E270E086E097E00E9468036DE470E08D
:1042100086E097E00E9468036CE370E086E097E038
:104220000E946803109277018C2F0E94D9208D2F55
:104230000E94D920C11104C0DF91CF910C94F620C7
:10424000DF91CF9108951F93CF93DF936FE18CEDB2
:104250000E94FC2089E00E94D9201AE0C0919506B6
:10426000D0919606CE010E94660380939406CE01FB
:104270000E94E720809194060E94D92080919506A3
:10428000909196060196909396068093950611500C
:1042900029F7DF91CF911F910C94F62063E08CED0C
:1042A0000E94FC2089E00E94D9208091950690917F
:1042B00096060E94E7200C94F6200F931F93CF934D
:1042C000DF938091F5069091F60601969093F6069D
:1042D0008093F5061092780185E08093EF06809137
:1042E0007A018C3D09F007C10E94EA1F893059F517
:1042F00082E08093F1060E94EA1FC82FD0E0D0939D
:104300009606C09395060E94EA1FC80FD11DD09350
:104310009606C09395060E94EA1F8093940681E05A
:10432000809393060E94B7266854744F8F4F9F4F17
:1043300060938F06709390068093910690939206F7
:104340000E942321D8C0883009F055C082E08093B4
:10435000F1061AE001E00E94EA1FC82FD0E0D093D6
:104360009606C09395060E94EA1F282F30E0322F50
:1043700022272C0F3D1F30939606209395060E940E
:10438000EA1F80939406009393060E94B726685410
:10439000744F8F4F9F4F60938F067093900680935A
:1043A0009106909392066091940680919506909163
:1043B00096060E9464036DE080E090E00E94640332
:1043C00080919506909196068935910519F08F3464
:1043D000914011F40E94E504115009F0BCCF809186
:1043E0009506909196060196909396068093950671
:1043F0000E944E2180C0873009F040C01092F20622
:104400006BE08CED0E94FC2087E00E94D920C2E581
:10441000D5E08881998133E0969587953A95E1F7C3
:104420000E94E720649685E0C63BD80791F70E947A
:10443000F6206DE08CED0E94FC208AE00E94D920DD
:1044400081E190E00E94E72081E090E00E94E72077
:104450008EEA96E00E94E72082E090E00E94E7204A
:1044600080E090E00E94E72081E090E00E94E72059
:10447000DF91CF911F910F910C94F620833079F545
:1044800080917B01853099F40E94F51F80329D4117
:1044900091F50E94EA1F809399060E94EA1F80937B
:1044A0009806DF91CF911F910F910C94920388335E
:1044B00011F5CAE9D6E00E94EA1F899386E0C03D63
:1044C000D807C9F70E94EA1FC82F0E94E00CCF3F0F
:1044D00091F4DF91CF911F910F910C94860C86304F
:1044E00029F40E9457080E941F0502C0853019F464
:1044F00081E08093DD06DF91CF911F910F910895A8
:10450000CF92DF92FF920F931F93CF93DF931F926F
:10451000CDB7DEB7F82E86E097E00E94012821E0B3
:10452000892B09F420E055E0C52ED12C04E010E0E1
:10453000213009F083C086E097E00E941A28982F66
:104540002091F7063091F8062F5F3F4F3093F80621
:104550002093F70610924D0199830E94980B998140
:10456000882319F00E948B09998120916C01309168
:104570006D012115310529F421E030E0943289F4F0
:1045800012C02130310529F49D3459F422E030E085
:104590000AC02230310561F49E3319F423E030E083
:1045A00002C020E030E030936D0120936C013EC0EA
:1045B0002330310559F49B3F60F590937B011093B4
:1045C0006D0100936C019093790130C02430310566
:1045D00071F4D0926D01C0926C0190937A01809138
:1045E000790189278093790110927C011FC02530C1
:1045F0003105E1F480917901892780937901E09177
:104600007C0120917B01E21309C0811102C00E944C
:104610005D2110926D0110926C0108C081E08E0F37
:1046200080937C01F0E0E358FE4F908386E097E0B2
:104630000E940128892B11F0F1107DCF0F90DF919E
:10464000CF911F910F91FF90DF90CF900895CF925F
:10465000DF92EF92FF920E94B7266B017C0188E205
:10466000C80ED11CE11CF11C81E08093770280917F
:104670007702882371F00E94B726C616D706E8068F
:10468000F90618F410927702F2CF80E00E9480229F
:10469000EECFFF90EF90DF90CF900895FF920F93B1
:1046A0001F93CF93DF935E9860E085E00E94770CC4
:1046B00060E086E00E94770C61E084E00E94770C65
:1046C0000E94272301EE12E0C0E0D0E060E2F62E67
:1046D0008091790290917A02C817D90778F4C03F87
:1046E000D10511F40E942723F801608187E00E9420
:1046F000770CF801F1928F012196EACF6FEF87E0F6
:104700000E94770C60E084E00E94770C5E9ADF9153
:10471000CF911F910F91FF900895CF92DF92EF926A
:10472000FF921092C1048091F3069091F4060196D5
:104730009093F4068093F3068091DD0681110E9428
:10474000A503E0914C06E0934C011092D3068091B2
:104750004B068823A1F0F0E0EE0FFF1FE95DFE4F4E
:1047600080819181813426E0920710F081E004C0BD
:1047700089379540E0F082E08093D30618C080919D
:10478000790690917A06A0917B06B0917C064091C3
:104790003C0550913D0560913E0570913F05842395
:1047A0009523A623B723892B8A2B8B2BF9F690917F
:1047B000D3068091D20698130E949D048091D3065F
:1047C0008093D2068091DF06863010F061E001C050
:1047D00060E087E00E94CB270E94B7266B017C0136
:1047E0008091C1029091C202A091C302B091C40213
:1047F000B701A601481B590B6A0B7B0B44365105C8
:1048000061057105E8F18C599F4FAF4FBF4F809301
:10481000C1029093C202A093C302B093C4028091DC
:10482000DF068F5F8093DF068091E0068F5F8093C5
:10483000E00681E09091E206911180E08093E2062B
:104840000E945204809120068823D1F02091FE041A
:104850003091FF0440910005509101056091FA04E8
:104860007091FB048091FC049091FD040E946C2ADD
:104870006093FA047093FB048093FC049093FD040E
:104880008091BD029091BE02A091BF02B091C00282
:10489000C81AD90AEA0AFB0A22E3C216D104E104C3
:1048A000F10408F443C1C296A11DB11D8093BD025D
:1048B0009093BE02A093BF02B093C0028091C50244
:1048C0009091C602A091C702B091C802892B8A2B91
:1048D0008B2B81F48091C9029091CA02A091CB02E6
:1048E000B091CC028093C5029093C602A093C702F8
:1048F000B093C8024091C5025091C6026091C702B0
:104900007091C80288279927DC01841B950BA60BA0
:10491000B70B84239523A623B72380959095A09564
:10492000B09584239523A623B7238093C502909343
:10493000C602A093C702B093C8028091D00681112D
:1049400002C00E944E230E948B058091D90690914F
:10495000DA06059760F40E94301580910605909163
:104960000705CC979093E4068093E306DFC080911F
:104970003805882349F081E0809337058091D1067E
:10498000813011F40E94032080913705882381F043
:104990008091380581110CC0109249018AE0809302
:1049A0004B0181E080934A018093D1060E94B103BC
:1049B0008091D106882319F00E94A31CB7C00E94E1
:1049C000B1038091400580FF0AC06091A8057091F5
:1049D000A9058091A6059091A7050E94921080914B
:1049E000190681110E9443128091230681110E94B1
:1049F000D41280911606882379F08091150690E0F4
:104A00002091F6043091F704821793071CF08091EF
:104A1000E10681110E94A91480911E06882321F1CC
:104A200020E030E040E251E46091FE047091FF0428
:104A300080910005909101050E94392B6B017C014A
:104A40006091270670E080E090E00E94D42B9B01EB
:104A5000AC01C701B6010E94322B87FD03C08091D3
:104A6000E10681110E94F31380912006882349F00A
:104A70000E946F03882309F42DC18091E106811102
:104A800029C10E949F130E943F140E949E19809189
:104A9000310681110E940813809106059091070547
:104AA0002091E3063091E406A901445C5F4F48176A
:104AB0005907A0F4205C3F4F2817390720F4909342
:104AC000E4068093E30680913A06882339F08091CA
:104AD00000069091010691700E948110809140051E
:104AE00082FF04C00E940B150E94D51480914005DE
:104AF00081FF04C00E94B01B0E94F5158091400503
:104B000083FF12C080912806882371F00E945A15F5
:104B10000E9482160E94201C0E945C160E94821530
:104B20000E94291B0E9465170E94A20E8091E00638
:104B3000853048F01092E00681E09091E1069111F5
:104B400080E08093E1060E94B726C090EB06D090EB
:104B5000EC06E090ED06F090EE0628EEC20E23E0A3
:104B6000D21EE11CF11CC616D706E806F90608F0AD
:104B7000AAC0C092EB06D092EC06E092ED06F0924D
:104B8000EE061092DF068091F3069091F406909362
:104B90008E0680938D061092F4061092F306809193
:104BA000F5069091F60690938C0680938B061092F2
:104BB000F6061092F5068091F7069091F80690930C
:104BC0008A06809389061092F8061092F706809163
:104BD00006059091070501969093070580930605B9
:104BE0008091D006811102C00E941E0D8091F006B6
:104BF000811103C01092170503C081508093F00605
:104C00008091EF06882319F081508093EF06809100
:104C1000F106882319F081508093F1068091F20605
:104C2000813011F40E9491208091F206882319F0BE
:104C300081508093F20680913805811109C08091DE
:104C4000020590910305909336058093350516C0B3
:104C50008091040590910505019690930505809338
:104C600004058091DE049091DF0401969093DF04A7
:104C70008093DE041092D1060E94B1038091D90680
:104C80009091DA0601969093DA068093D906809186
:104C9000E606813051F48091D106882331F060E03E
:104CA0008EEC0E94FC201092E6068091E606882396
:104CB00019F081508093E6068091E506882319F06B
:104CC00081508093E50681E0FF90EF90DF90CF90D8
:104CD0000C9480220E947F14D4CE1F920F920FB6A4
:104CE0000F9211242F933F938F939F93AF93BF9372
:104CF0008091FE069091FF06A0910007B0910107F8
:104D00003091FD0623E0230F2D3720F40196A11DDD
:104D1000B11D05C026E8230F0296A11DB11D2093E9
:104D2000FD068093FE069093FF06A0930007B093C4
:104D300001078091020790910307A0910407B091A9
:104D400005070196A11DB11D8093020790930307EB
:104D5000A0930407B0930507BF91AF919F918F91E6
:104D60003F912F910F900FBE0F901F9018952FB766
:104D7000F8946091FE067091FF0680910007909173
:104D800001072FBF08953FB7F894809102079091D3
:104D90000307A0910407B091050726B5A89B05C09D
:104DA0002F3F19F00196A11DB11D3FBF6627782F37
:104DB000892F9A2F620F711D811D911D42E0660F90
:104DC000771F881F991F4A95D1F70895CF92DF92D8
:104DD000EF92FF92CF93DF936B017C010E94C32679
:104DE000EB01C114D104E104F10489F00E946A2AA4
:104DF0000E94C3266C1B7D0B683E734090F381E0DC
:104E0000C81AD108E108F108C851DC4FEACFDF9198
:104E1000CF91FF90EF90DF90CF900895789484B574
:104E2000826084BD84B5816084BD85B5826085BDA6
:104E300085B5816085BDEEE6F0E08081816080838C
:104E4000E1E8F0E01082808182608083808181606F
:104E50008083E0E8F0E0808181608083E1EBF0E036
:104E6000808184608083E0EBF0E0808181608083DA
:104E7000EAE7F0E0808184608083808182608083C3
:104E80008081816080838081806880831092C100EE
:104E9000089580934E0108958E3008F08E508770EB
:104EA00020914E0190E4299F90011124822B809340
:104EB0007C0080917A00806480937A0080917A00EF
:104EC00086FDFCCF809178002091790090E0922BB4
:104ED0000895833081F028F4813099F08230A1F078
:104EE00008958730A9F08830B9F08430D1F48091EA
:104EF00080008F7D03C0809180008F778093800039
:104F0000089584B58F7702C084B58F7D84BD0895E0
:104F10008091B0008F7703C08091B0008F7D809327
:104F2000B0000895CF93DF9390E0FC01EF5DF94F5F
:104F30002491FC01EB5CF94F8491882349F190E0C6
:104F4000880F991FFC01ED5AF94FA591B491875B29
:104F5000994FFC01C591D4919FB7611108C0F89495
:104F60008C91209582238C93888182230AC06230A1
:104F700051F4F8948C91322F309583238C9388814F
:104F8000822B888304C0F8948C91822B8C939FBFD2
:104F9000DF91CF9108950F931F93CF93DF931F92CB
:104FA000CDB7DEB7282F30E0F901E35FF94F8491E8
:104FB000F901EF5DF94F1491F901EB5CF94F0491A0
:104FC0000023C9F0882321F069830E946927698141
:104FD000E02FF0E0EE0FFF1FE75BF94FA591B491D2
:104FE0009FB7F8948C91611103C01095812301C083
:104FF000812B8C939FBF0F90DF91CF911F910F91C9
:105000000895FC01818D228D90E0805C9F4F821B72
:1050100091098F7399270895FC01918D828D9817BE
:1050200031F0828DE80FF11D858D90E008958FEFAE
:105030009FEF0895FC01918D828D981761F0828D0C
:10504000DF01A80FB11D5D968C91928D9F5F9F73BC
:10505000928F90E008958FEF9FEF08958EE999E287
:10506000892B49F080E090E0892B29F00E949E294D
:1050700081110C9400000895FC01848DDF01A80FBC
:10508000B11DA35ABF4F2C91848D90E001968F7370
:105090009927848FA689B7892C93A089B1898C918F
:1050A00080648C93938D848D981306C00288F38955
:1050B000E02D80818F7D80830895CF93DF93EC0175
:1050C000888D8823C9F0EA89FB89808185FD05C028
:1050D000A889B9898C9186FD0FC00FB607FCF5CF62
:1050E000808185FFF2CFA889B9898C9185FFEDCFAA
:1050F000CE010E943C28E7CFDF91CF910895CF9257
:10510000DF92FF920F931F93CF93DF931F92CDB740
:10511000DEB76C0181E0D60158968C9358975B9668
:105120009C915B975C968C915C97981307C0509606
:10513000ED91FC915197808185FD2EC0F601038D84
:1051400010E00F5F1F4F0F731127F02EF601848DB3
:10515000F81211C00FB607FCF9CFD6015096ED91A9
:10516000FC915197808185FFF1CFC60169830E9430
:105170003C286981EBCF838DE80FF11DE35AFF4F87
:105180006083D6015B960C935B975296ED91FC91F0
:105190005397808180620CC0D6015696ED91FC91A8
:1051A000579760835096ED91FC9151978081806470
:1051B000808381E090E00F90DF91CF911F910F915C
:1051C000FF90DF90CF900895BF92CF92DF92EF9241
:1051D000FF92CF93DF93EC016A017B01B22EE88945
:1051E000F98982E08083411581EE580761057105D8
:1051F000A1F060E079E08DE390E0A70196010E94C4
:10520000072E215031094109510956954795379587
:105210002795211580E1380798F0E889F9891082EF
:1052200060E874E88EE190E0A70196010E94072EE5
:1052300021503109410951095695479537952795D0
:10524000EC85FD853083EE85FF852083188EEC8903
:10525000FD89B082EA89FB89808180618083EA8947
:10526000FB89808188608083EA89FB8980818068EE
:105270008083EA89FB8980818F7D8083DF91CF9154
:10528000FF90EF90DF90CF90BF9008951F920F9204
:105290000FB60F9211242F938F939F93EF93FF9349
:1052A000E0911607F09117078081E0911C07F091BB
:1052B0001D0782FD12C0908180911F078F5F8F7341
:1052C00020912007821751F0E0911F07F0E0EA5F7C
:1052D000F84F958F80931F0701C08081FF91EF9158
:1052E0009F918F912F910F900FBE0F901F90189547
:1052F0001F920F920FB60F9211242F933F934F934B
:105300005F936F937F938F939F93AF93BF93EF932D
:10531000FF9386E097E00E943C28FF91EF91BF91B8
:10532000AF919F918F917F916F915F914F913F913D
:105330002F910F900FBE0F901F90189586E097E069
:105340000E94012821E0892B09F420E0822F089592
:10535000109209071092080788EE93E0A0E0B0E0F1
:1053600080930A0790930B07A0930C07B0930D0747
:105370008FE591E0909307078093060785EC90E016
:10538000909313078093120784EC90E09093150795
:105390008093140780EC90E0909317078093160792
:1053A00081EC90E0909319078093180782EC90E0CD
:1053B00090931B0780931A0786EC90E090931D074B
:1053C00080931C0710921F0710922007109221074C
:1053D00010922207089508950E940E270E94EB293B
:1053E0000E943620CEE2D8E20E948D232097E1F37E
:1053F0000E942E28F9CFCF92DF92EF92FF920F9367
:105400001F93CF93DF936C017A01EB01E60EF71E39
:1054100000E010E0CE15DF0561F06991D601ED9155
:10542000FC910190F081E02DC6010995080F191F2C
:10543000F1CFC801DF91CF911F910F91FF90EF90B5
:10544000DF90CF9008954F925F926F927F92AF92CC
:10545000BF92CF92DF92EF92FF920F931F93CF9361
:10546000DF93CDB7DEB729013A01621B730B840BC2
:10547000950B29893A894B895C892A193B094C0982
:105480005D09298B3A8B4B8B5C8B9B01AC01698945
:105490007A898B899C890E94C12DE418F508060938
:1054A0001709A80197010E94292E2A0D3B1D4C1DAA
:1054B0005D1DCA01B901DF91CF911F910F91FF903E
:1054C000EF90DF90CF90BF90AF907F906F905F9004
:1054D0004F90089508955058BB27AA270ED027C291
:1054E000F0D130F0F5D120F031F49F3F11F41EF4EB
:1054F000C0C10EF4E095E7FBB6C1E92F3AD280F3C4
:10550000BA17620773078407950718F071F49EF5C0
:1055100052C20EF4E0950B2EBA2FA02D0B01B9014B
:1055200090010C01CA01A0011124FF27591B99F019
:10553000593F50F4503E68F11A16F040A22F232F25
:10554000342F4427585FF3CF469537952795A79575
:10555000F0405395C9F77EF41F16BA0B620B730B1C
:10556000840BBAF09150A1F0FF0FBB1F661F771F8D
:10557000881FC2F70EC0BA0F621F731F841F48F442
:10558000879577956795B795F7959E3F08F0B3CFC8
:105590009395880F08F09927EE0F979587950895B2
:1055A00090D158F080E891E009F49EEF91D128F075
:1055B00040E851E059F45EEF09C05BC1FCC1E92F3E
:1055C000E078D7D168F3092E052AC1F326173707EB
:1055D0004807590738F00E2E07F8E02569F0E02556
:1055E000E0640AC0EF6307F8009407FADB01B90131
:1055F0009D01DC01CA01AD01EF934AD098D10AD0D8
:105600005F91552331F02BED3FE049E450FD49EC2B
:1056100063CF0895DF93DD27B92FBF7740E85FE3BD
:105620001616170648075B0710F4D92FCFD19F93A2
:105630008F937F936F937CD2EAE7F0E01DD177D10F
:105640002F913F914F915F91D4D1DD2349F0905834
:10565000A2EA2AED3FE049EC5FE3D0785D274DDF19
:10566000DF9165C1DCD008F481E0089539D1E3957C
:105670006FC10CD05CC12CD140F023D130F021F4AB
:105680005F3F19F0F0C0511197C1F3C072D198F388
:105690009923C9F35523B1F3951B550BBB27AA27B3
:1056A00062177307840738F09F5F5F4F220F331F25
:1056B000441FAA1FA9F333D00E2E3AF0E0E830D0F1
:1056C00091505040E695001CCAF729D0FE2F27D0F4
:1056D000660F771F881FBB1F261737074807AB07C2
:1056E000B0E809F0BB0B802DBF01FF2793585F4F37
:1056F0002AF09E3F510568F0B6C05EC15F3FECF3F3
:10570000983EDCF3869577956795B795F7959F5FFB
:10571000C9F7880F911D9695879597F90895E1E04F
:10572000660F771F881FBB1F621773078407BA07AE
:1057300020F0621B730B840BBA0BEE1F88F7E09509
:10574000089504D06894B11137C108951AD188F032
:105750009F5790F0B92F9927B751A0F0D1F0660F5D
:10576000771F881F991F1AF0BA95C9F712C0B13078
:1057700081F021D1B1E008951EC1672F782F8827CD
:10578000B85F39F0B93FCCF3869577956795B395B7
:10579000D9F73EF490958095709561957F4F8F4F26
:1057A0009F4F0895E89409C097FB3EF4909580952B
:1057B000709561957F4F8F4F9F4F9923A9F0F92FD7
:1057C00096E9BB279395F695879577956795B79555
:1057D000F111F8CFFAF4BB0F11F460FF1BC06F5F3B
:1057E0007F4F8F4F9F4F16C0882311F096E911C04D
:1057F000772321F09EE8872F762F05C0662371F06E
:1058000096E8862F70E060E02AF09A95660F771F81
:10581000881FDAF7880F9695879597F90895990F5D
:105820000008550FAA0BE0E8FEEF16161706E8076A
:10583000F907C0F012161306E407F50798F0621B8B
:10584000730B840B950B39F40A2661F0232B242B60
:10585000252B21F408950A2609F4A140A6958FEF7F
:10586000811D811D089597F99F6780E870E060E0D1
:1058700008959FEF80EC0895DF93CF931F930F93CC
:10588000FF92EF92DF927B018C01689405C0DA2EC3
:10589000EF01AFD0FE01E894A59125913591459196
:1058A0005591AEF3EF0129DEFE019701A801DA94CC
:1058B00079F7DF90EF90FF900F911F91CF91DF91DB
:1058C000089500240A941616170618060906089566
:1058D00000240A9412161306140605060895C9CF6B
:1058E00050D0E8F3E894E0E0BB279F57F0F02AEDB2
:1058F0003FE049EC06C0EE0FBB0F661F771F881F05
:1059000028F0B23A62077307840728F0B25A620B94
:10591000730B840BE3959A9572F7803830F49A955F
:10592000BB0F661F771F881FD2F7904806C1092E4C
:105930000394000C11F4882352F0BB0F40F4BF2BEA
:1059400011F460FF04C06F5F7F4F8F4F9F4F08952A
:10595000EF93E0FF06C0A2EA2AED3FE049EC5FEBDF
:10596000CCDDE5DF0F90039401FC9058E7EAF0E00E
:10597000F7C057FD9058440F551F59F05F3F71F025
:105980004795880F97FB991F61F09F3F79F08795A6
:105990000895121613061406551FF2CF4695F1DF2F
:1059A00008C0161617061806991FF1CF86957105BF
:1059B000610508940895E894BB2766277727CB01F3
:1059C00097F908952CDF08F48FEF08959B01AC013F
:1059D00060E070E080E89FE34CCE0BD0A8CF71DF91
:1059E00028F076DF18F0952309F03DCF42CF11243F
:1059F000E3CFBFDFA0F3959FD1F3950F50E0551F84
:105A0000629FF001729FBB27F00DB11D639FAA2713
:105A1000F00DB11DAA1F649F6627B00DA11D661F62
:105A2000829F2227B00DA11D621F739FB00DA11D83
:105A3000621F839FA00D611D221F749F3327A00D3D
:105A4000611D231F849F600D211D822F762F6A2FD9
:105A500011249F5750408AF0E1F088234AF0EE0F5E
:105A6000FF1FBB1F661F771F881F91505040A9F76B
:105A70009E3F510570F0F7CE9FCF5F3FECF3983E0D
:105A8000DCF3869577956795B795F795E7959F5FD2
:105A9000C1F7FE2B880F911D9695879597F908956C
:105AA0009F931EDF0F9007FCEE5F52CF11F40EF4B0
:105AB000E0CE41C066DFD0F39923D9F3CEF39F57F0
:105AC000550B87FF46D00024A0E640EA900180589D
:105AD0005695979528F4805C660F771F881F20F0F5
