:100000000C9435030C94C0080C9467030C9467039C
:100010000C9429080C9467030C9467030C946703F1
:100020000C9467030C9467030C9467030C946703A8
:100030000C9467030C9467030C9467030C94670398
:100040000C94252B0C9467030C94FE2D0C94302EED
:100050000C9467030C9467030C9467030C94670378
:100060000C9467030C9467032B1F331F3B1F431F24
:100070004B1F531F5B1F12201A2022202A203220E0
:100080003A2042204A20A720AF20B720BF20C72017
:10009000CF20D720084AD73B3BCE016E84BCBFFDA2
:1000A000C12F3D6C74319ABD56833DDA3D00C77F48
:1000B00011BED9E4BB4C3E916BAAAABE00000080E1
:1000C0003F05A84CCDB2D44EB93836A9020C50B970
:1000D000918688083CA6AAAA2ABE000000803F009C
:1000E0001D012C0145011801400113010E010901F8
:1000F00027014A013B01310136014A014A0122012F
:1001000004014A01494E49540043525549004642B0
:10011000574200464257410054524E47004D414E0F
:10012000550047554944004154554E0043495243F8
:10013000005245544C004C4F4954004155544F0017
:100140004143524F00535441420041504D2000F270
:1001500003F603CA0376032803E8029C024602FE64
:1001600001F001E301DD01D701CE01C901BD01406C
:1001700002320224021C021202050294028A027B4D
:1001800002720267025F0258024F02DB02CF02BC1A
:1001900002B002A4021B031203D503F0020503F808
:1001A00002630356034503330356032D03D503C1EE
:1001B00003B403A7039A03900387037E03544558AF
:1001C0005420414C41524D5300414D5053004D413C
:1001D0004820583130300054494D45520053504565
:1001E000454400414C544954554445205831300051
:1001F00044495354414E4345205831303000414C1E
:1002000041524D53005448524F54544C452050577E
:100210004D004F5344205458204348004D4147203F
:1002200043414C00444542554700312E315600357C
:100230005600562052454600494D50004D45540049
:10024000554E49545300414456414E434544004D98
:100250004150204D4F44450047494D42414C0053C9
:10026000454E534F52530047505320434F4F524433
:1002700053005448524F54544C45005343524F4C32
:100280004C494E4720424152530053494445204275
:1002900041525300484F52495A4F4E00444953501F
:1002A0004C41590041444A555354205A45524F003D
:1002B00041444A55535420414D5053005553452015
:1002C0005649525455414C2053454E534F520044C9
:1002D0004953504C4159204D414800444953504CDA
:1002E000415920414D50530043555252454E540000
:1002F0005553452050574D005345542052535349B0
:10030000204D494E005345542052535349204D41EE
:100310005800534554205253534900444953504CBC
:100320004159205253534900525353490043454CBD
:100330004C5300444953504C41592056494420568F
:100340004F4C5453004D41494E20564F4C5453206E
:10035000414C41524D0041444A55535420564F4C54
:10036000545300444953504C4159204D41494E206B
:10037000564F4C545300564F4C54414745004D4145
:100380005820414D5053004D41482055534544009D
:100390004D4158205350454544004D415820414C53
:1003A000544954554445004D415820444953544103
:1003B0004E434500544F542044495354414E434505
:1003C00000464C592054494D45005354415449531B
:1003D0005449435300555345204643003C50414740
:1003E000453E00534156452B455849540045584910
:1003F00054004F4646004F4E002D042404120401C1
:10040000044E4F542044455445435445442D5041D7
:100410004C004E4F542044455445435445442D4EC2
:10042000545343004155544F2D50414C00415554B5
:100430004F2D4E54534300800447046F0460045012
:100440000447044C0448040053493A0049443A0024
:10045000202020202B50495443482046554C4C0026
:10046000202020202B594157205249474854004D05
:10047000454E553A54485254204D4944444C450049
:100480004D572D4F5344202D2052312E372E310001
:10049000FD04DB04D404F504ED04E404AE04A80474
:1004A000FD04CB04C104B8044445425547004C4FF9
:1004B0005720564F4C545300204D495353494F4EEB
:1004C000004155544F20484F4C44004155544F2053
:1004D000525448002041524D454400444953415232
:1004E0004D4544004C4F57205341545300204E4F2C
:1004F00020475053004E4F204441544100001D1AE4
:100500001D1C1D191D1C1D1B1D1C1D181D1C1D1A2D
:100510001D1C1D191D1C1D1B1D20007BC12A002137
:1005200000900054002400720027003500CB0060CA
:10053000017EC17EC137C110011D0102000F004CB8
:1005400001F2006BC12FC175017F01C200BB00BB6E
:1005500000030007007A00550106015C003400C565
:100560000064005701BA001801DCC020C034C03656
:10057000C0B7C090C054C024C072C028C0CBC0CA8D
:10058000C060C17EC17EC137C110011D0102C00F14
:10059000C04DC1F3C06BC12FC171C178C1C2C0BB16
:1005A000C0BBC0030007007AC055C106C15CC0349F
:1005B00000C30064C05301BA0018C1DCC0000000D1
:1005C00000960000000004F40158020D00003C00F9
:1005D0000000018A04C800000000000100C80032C9
:1005E00064010101000000010000000101000001A0
:1005F00000000100000000000101010101000101F3
:100600000004000000050001000000001E4D574FCF
:1006100053440020202020000000080002010000B8
:10062000030407000000000000000001020408109D
:100630002040800102040810200102040810200458
:100640000404040404040402020202020203030379
:1006500003030300000000250028002B0000000019
:1006600000240027002A0000602EE4EFF6E085EA6F
:1006700098E001C08193EF3FF907E0F3D9F311242B
:100680001FBECFEFD8E0DEBFCDBF11E0A0E0B1E0EC
:10069000E8E2F7E602C005900D92A835B107D9F758
:1006A00026E0A8E5B1E001C01D92A43FB207E1F742
:1006B00016E0CAE6D6E004C02297FE010E9402338B
:1006C000C836D107C9F70E94A42E0C9492330C941B
:1006D00000000C9474330C946C33DC01ED91FC91AC
:1006E0000190F081E02D0994609168047091690493
:1006F0006115710581F420E030E044EB53E4609132
:100700004E0470914F0480915004909151040E94C6
:10071000F12F0E9459302091760584E6289F9001A0
:10072000112481E0261737070CF080E008958091AE
:10073000870481110EC08091210681110AC0809129
:100740002006811106C080E88093E70581E0809350
:100750002006089584B7877F84BF809160008865F4
:100760008093600081E480936000FFCF8091200639
:10077000882329F080E090E1A0E0B0E05AC08091A9
:100780002106882329F08FE996E0A4E0B0E051C06B
:100790008AE090E0A0E0B0E080931F0290932002F6
:1007A000A0932102B093220220918F0421FF0CC05C
:1007B0008AE190E0A0E0B0E080931F0290932002D5
:1007C000A0932102B093220280912C06813089F0FF
:1007D00080911F0290912002A0912102B0912202EB
:1007E000816080931F0290932002A0932102B09316
:1007F000220223FF11C080911F0290912002A0913C
:100800002102B0912202806A80931F0290932002FD
:10081000A0932102B09322028091AE05811111C0F4
:1008200080911F0290912002A0912102B09122029A
:10083000986080931F0290932002A0932102B093AE
:10084000220280916D05811104C080916705882383
:1008500089F080911F0290912002A0912102B09115
:100860002202916080931F0290932002A0932102A4
:10087000B093220280911B0290911C02A0911D0254
:10088000B0911E0240911F025091200260912102FE
:100890007091220284239523A623B72380931B0201
:1008A00090931C02A0931D02B0931E0208958091A4
:1008B0007F048823A1F180918704882381F16091CE
:1008C0007104709172046115710549F120917F05E1
:1008D00080E090E0222339F00E948A3021EB32E060
:1008E00047E55BE306C00E948A302FE632E143E829
:1008F0005AE30E94A5319B01AC0160916F01709198
:10090000700180917101909172010E94242F609377
:100910006F017093700180937101909372016091E7
:100920006F017091700180917101909172010E942C
:100930005E30609334047093350480933604909352
:1009400037040895EF92FF920F931F93CF93DF9395
:1009500002E615E0C0E0D0E0F80161918F01CE0120
:100960000E9469032196CC34D105B1F704E515E066
:10097000CCE4D0E0F8016081CE010E946903F80167
:1009800061810E5F1F4FCE0101960E94690322967E
:10099000CA35D10579F76DE080E090E0DF91CF9125
:1009A0001F910F91FF90EF900C946903DF92EF92EB
:1009B000FF920F931F93CF93DF930091230682E55D
:1009C000089F80011124D0908005C2E0D5E0065A2E
:1009D0001F4FC8010E946B03E82EF12CF982E882B8
:1009E000C80101960E946B03282F30E0322F222786
:1009F0002E0D3F1D39832883DD2089F0C9019170B8
:100A00008739910560F0A901425E5F4F59834883A1
:100A1000813F910520F0245C3F4F398328830E5F8E
:100A20001F4F229685E0C435D80799F6DF91CF9104
:100A30001F910F91FF90EF90DF900895EF92FF923A
:100A40000F931F93CF93DF9302E615E0C0E0D0E051
:100A5000CE010E946B03F80181938F012196CC3463
:100A6000D105B1F704E515E0CCE4D0E0CE010E9459
:100A70006C33E82EF12CF801F182E082CE01019670
:100A80000E946C33282F30E0322F22272E0D3F1D7D
:100A9000F801219331938F012296CA35D10531F7A0
:100AA000DF91CF911F910F91FF90EF900C94D6049E
:100AB000EF92FF920F931F93CF93DF9380E090E02C
:100AC0000E946B038D3009F458C0C0E0D0E0FE01F5
:100AD000E553FA4F6491CE010E9469032196CC340C
:100AE000D105A9F7CCE4D0E0FE01EF58FA4F05910B
:100AF0001491602FCE010E946903612FCE010196EF
:100B00000E9469032296CA35D10571F7CAE5D0E083
:100B1000CE018F5E9A4F7C01FC0105911491602FEC
:100B2000CE010E946903612FCE0101960E946903E4
:100B3000FE01E154FB4F05911491602FCE018E5AB6
:100B40009F4F0E946903612FCE018D5A9F4F0E94D3
:100B50006903F70105911491602FCE018C559F4FC9
:100B60000E946903612FCE018B559F4F0E9469033C
:100B70002296CE3FD10509F0CBCFDF91CF911F91C7
:100B80000F91FF90EF9008954F925F926F927F9236
:100B9000AF92BF92CF92DF92EF92FF920F931F938B
:100BA000CF93DF9345E0E42E41E0F42E01EA14E018
:100BB000C0E0D0E05AE0D52ED7018D917D010E9492
:100BC000042C20916E01C11108C030916D053323B2
:100BD00039F180918A0490E023C0C43009F5309146
:100BE00068053323A9F080914804909149049595B4
:100BF0008795009769F4DC9EF001DD9EF00D1124CD
:100C0000E20FF11DEE0FFF1FEF56FB4F8081918128
:100C100030916705332321F0809166049091670439
:100C2000DC9EF001DD9EF00D1124E20FF11DEE0FB0
:100C3000FF1FEF56FB4FD8012D913C91119740813A
:100C40005181241B350B11963C932E9320813181C9
:100C5000280F391F36952795318320838D919C91DC
:100C60001197820F931F8D939C9321960C5E1F4FBB
:100C7000C530D10509F0A0CF80916D056091A10428
:100C80007091A204C0918705811134C080E090E08A
:100C9000D0916C05C11115C00E948A306B017C0196
:100CA0006D2F70E080E090E00E948C309B01AC01E1
:100CB000C701B6010E94A53127E137EB41ED58E3AA
:100CC00014C00E948A306B017C016D2F70E080E0BF
:100CD00090E00E948C309B01AC01C701B6010E94DC
:100CE000A5312FE632E143E05AE30E94A5310E948C
:100CF0005E3005C0E3E075956795EA95E1F770937E
:100D00004704609346048091640580934204609197
:100D1000B5047091B60480E090E0D0917405C111E3
:100D200015C00E948A306B017C016D2F70E080E05D
:100D300090E00E948C309B01AC01C701B6010E947B
:100D4000A53127E137EB41ED58E314C00E948A300A
:100D50006B017C016D2F70E080E090E00E948C3090
:100D60009B01AC01C701B6010E94A5312FE632E11B
:100D700043E05AE30E94A5310E945E30709345041F
:100D80006093440480916F058111CBC080917105FF
:100D9000C0915605D09157050091580510915905FD
:100DA00081114EC04090C9045090CA0443E055944C
:100DB00047944A95E1F7662457FC6094762CC3016A
:100DC000B2010E948C30609352047093530480935C
:100DD0005404909355049E0140E050E0C8011F92D6
:100DE0001F929F930F93A12CB12C6501E12C14E06D
:100DF000F12E00E010E0C301B2010E94DB2E0E9440
:100E00008C306B017C010F900F900F900F9020E0C1
:100E100030E0A9010E94EA2F87FD09C0C092520468
:100E2000D0925304E0925404F092550495C010926D
:100E300052041092530410925404109255048CC022
:100E4000809118019091190160910C0170910D0130
:100E50008617970740F060910A0170910B01861781
:100E6000970708F4BC0180E090E0685E7340810958
:100E70009109623FB3E07B078105910548F42AE0C0
:100E800030E040E050E00E94BF3269017A0105C0C5
:100E900034E6C32ED12CE12CF12CC701B6010E94FF
:100EA0008A302B013C01A7019601C701B6010E94BF
:100EB00079320E948A302AE037ED43EA5CE30E94EF
:100EC000A5319B01AC01C301B2010E94242F6B012B
:100ED0007C01B80180E090E00E948A309B01AC0167
:100EE000C701B6010E94A5312AE037ED43E25CE379
:100EF0000E94A5316B017C0180918704BE0188238B
:100F000059F080E090E00E948A309B01AC01C7015B
:100F1000B6010E94242F18C080E090E00E948A3021
:100F200013C080914C0490914D0497FF02C0059727
:100F300001C005966AE070E00E94AB32882777FD19
:100F40008095982F0E948C306093520470935304C4
:100F5000809354049093550480916605882309F486
:100F60004DC06091F1047091F20423E0759567958E
:100F70002A95E1F770934B0460934A04809121060F
:100F8000882389F0809136068F3029F470935D05AF
:100F900060935C0508C0813031F470935B05609309
:100FA0005A0510923606E0905C05F0905D0500E071
:100FB00010E020915A0530915B0540E050E0882711
:100FC00077FD8095982F1F921F921F92E4E6EF9372
:100FD000A12CB12C65010E94DB2E0F900F900F9079
:100FE0000F906536710514F064E670E077FF02C07B
:100FF00060E070E070934B0460934A0480916E014E
:101000008F5F883018F480936E0102C010926E01D9
:10101000DF91CF911F910F91FF90EF90DF90CF90D4
:10102000BF90AF907F906F905F904F9008953B98E6
:10103000F89480916C0083FD0AC080916800826002
:101040008093680080916C00886080936C00789435
:1010500008951F920F920FB60F9211242F933F9372
:101060004F935F936F937F938F939F93AF93BF93B0
:10107000CF93EF93FF93C6B178940E947B2B20917E
:101080006C0130916D01AB01421B530B9A01293B5E
:101090003B4018F021E02093040170936D016093B0
:1010A0006C01C3FD29C020916A0130916B01621B64
:1010B000730BCB018F5E9240209104018B3D9540D4
:1010C00098F480912606882359F0293068F4E22F9D
:1010D000F0E0EE0FFF1FEE5EFE4F7183608304C0F1
:1010E00070934904609348042F5F20930401709328
:1010F00025066093240604C070936B0160936A0117
:10110000FF91EF91CF91BF91AF919F918F917F917F
:101110006F915F914F913F912F910F900FBE0F9064
:101120001F901895CF93DF93C0E0D0E060E0CE0130
:101130000E9469032196C11582E0D807B9F7DF91B3
:10114000CF9108958EBD0DB407FEFDCF8EB50895E5
:10115000695C7D4FFC012191CF01222321F0FB012D
:101160002193BF01F7CF0895695C7D4FFC01249165
:101170000196222321F0FB012193BF01F7CF0895AF
:101180001F920F920FB60F92112410920F020F9020
:101190000FBE0F901F901895CF93DF931F92CDB77E
:1011A000DEB769830E94A2086981862F0F90DF91C4
:1011B000CF910C94A2085E9A2A9864E670E080E0D1
:1011C00090E00E949E2B2A9A80E58CBD81E08DBD27
:1011D0008DB58EB56AE070E080E090E00E949E2BB5
:1011E0005E9864E670E080E090E00E949E2B80EACA
:1011F0000E94A2088FEF0E94A2088370813029F418
:101200008093800580932F060CC0823029F41092C1
:10121000800510922F0605C0909180059E5F9093E7
:101220002F068093100280918005882341F080EE84
:1012300091E090931202809311026CE407C086E85B
:1012400091E090931202809311026CE080E00E9482
:10125000CC085E9A9FB7F894E89A80916900826002
:10126000809369009FBF0C94D6041F93CF93DF93A4
:10127000C82F5E9880918005882311F060E401C03A
:1012800060E080E00E94CC086C2F89E00E94CC08CE
:10129000CAEED5E010E0612F8AE00E94CC08699187
:1012A0008BE00E94CC081F5F1633A9F760EA88E044
:1012B0000E94CC0880EA0E94A20885FDFBCF8091A5
:1012C0008005882311F06CE401C06CE080E00E948E
:1012D000CC085E9A64E170E080E090E0DF91CF910D
:1012E0001F910C949E2B5E9880EA0E94A2088FEFBB
:1012F0000E94A20883709091100298130C94DB084E
:1013000080E80E94A2088FEF0E94A20883FFF6CF18
:101310000895EF92FF920F931F93CF93DF93FB01FA
:1013200097FF06C0919581959109FF24F39401C020
:10133000F12CDF01A40FB11D1C92BEE2EB2ECAE01E
:10134000D0E0421306C04150DF01A40FB11DEC9262
:1013500020E03FEF340F8F01030F111DBE010E94EB
:10136000AB32805DD8018C93CB01332379F02223FB
:1013700011F0432FE6CF0097E1F7FF2039F03EEF61
:10138000340FDF01A30FB11D8DE28C9380E2332374
:1013900031F03150DF01A30FB11D8C93F8CFCF0195
:1013A000DF91CF911F910F91FF90EF9008958F9251
:1013B0009F92AF92BF92DF92EF92FF920F931F9393
:1013C000CF93DF93EA01F22E97FF08C090958095A6
:1013D000709561957F4F8F4F9F4F0E2D24E630E023
:1013E00040E050E00E94E132CA01B90126E02F0D31
:1013F000FE01E20FF11D108215E0E12EEF0CFE015F
:10140000EE0DF11D00830AE0802E912CA12CB12C51
:101410002EE2D22E2FEF2E0DEF1006C0E22EFE018F
:10142000E20FF11DD082F6CFE22E8E01020F111DC8
:10143000A50194010E94E132605DF8016083B90169
:10144000CA01E11002C080E209C0F2E0FE1510F30B
:101450006115710581059105E9F6F5CFEE2031F0B2
:10146000EA94FE01EE0DF11D8083F8CFCE01DF91ED
:10147000CF911F910F91FF90EF90DF90BF90AF90B1
:101480009F908F9008953F924F925F926F927F92BC
:101490008F929F92AF92BF92CF92DF92EF92FF9284
:1014A0000F931F93CF93DF93EA01522E211103C0B4
:1014B000A5E06A2E02C0F8E06F2EFE01E60DF11DD8
:1014C0001082762C452C4AE0842E912CA12CB12C34
:1014D00056E0C52ED12CE12CF12CEAE33E2E2FEF65
:1014E000270D8E01020F111D27FD1A95A5019401EC
:1014F0000E94BF32605DF80160838EEF870D8E0120
:10150000080F111D87FD1A95CA01B901A70196019F
:101510000E94BF32605DF8016083B901CA01FDEF2E
:101520007F0EFE01E70DF11D77FCFA9530824A949B
:101530002FEF4212D4CF252D220F250D621AEDEF89
:101540006E0E3AE0C32ED12CE12CF12C6A948E0160
:10155000060D111D67FC1A95A70196010E94BF3266
:10156000605DF8016083B901CA01611571058105EB
:10157000910511F480E203C06110E8CFFBCF662033
:1015800041F06A94FE01E60DF11D67FCFA95808337
:10159000F6CFCE01DF91CF911F910F91FF90EF9089
:1015A000DF90CF90BF90AF909F908F907F906F9083
:1015B0005F904F903F90089580E0E82FF0E0ED5D60
:1015C000FD4F9081992311F08F5FF7CF0895E82F99
:1015D000F0E0EE0FFF1FEE5FFA4F208131812227EE
:1015E000307C81E02115304C09F080E00895CF93E4
:1015F000DF9380914006882309F438C18091B305B8
:101600009091B405A0E0B0E040918B0450918C041F
:1016100060918D0470918E0484239523A623B723B3
:10162000892B8A2B8B2BD1F0809190058823B1F0E8
:101630001092250286E18093230287E180932402A1
:101640008EE10E94E70A882349F060913E0570917F
:101650003F05717083E292E00E94A8088091960590
:10166000882309F462C080918B0490918C04A0912E
:101670008D04B0918E044091AF0550E060E070E0C1
:10168000482359236A237B23452B462B472B69F498
:101690004091B00550E060E070E0482359236A2390
:1016A0007B23452B462B472B29F020EA209323024E
:1016B000E1E001C0E0E04091B10550E060E070E0A1
:1016C000482359236A237B23452B462B472B39F08C
:1016D000CE2FD0E0CD5DDD4F22EA2883EF5F409131
:1016E000B20550E060E070E0482359236A237B2371
:1016F000452B462B472B39F0AE2FB0E0AD5DBD4FEB
:1017000081EA8C93EF5FF0E0ED5DFD4F108286E0A3
:101710000E94E70A882349F060910E0570910F0539
:10172000717083E292E00E94A808E0912404F0E046
:10173000EE0FFF1FE052FF4F6591749183E292E03C
:101740000E943533809189058823C9F181E20E9486
:10175000E70A8823A1F160914405709145057170F5
:1017600083E292E00E94A8088091C1059091C20591
:10177000A091C305B091C40540918B0450918C0495
:1017800060918D0470918E0484239523A623B72342
:10179000892B8A2B8B2B99F08AEE809323028BEE78
:1017A00080932402109225026091440570914505B2
:1017B00071706E5F7F4F83E292E00E94A808809173
:1017C0003206811153C084E20E94E70A882309F49B
:1017D0004DC040918B0450918C0460918D047091A8
:1017E0008E048091B5059091B605A091B705B09192
:1017F000B80584239523A623B723892B8A2B8B2B0B
:1018000011F58091B9059091BA05A091BB05B091F1
:10181000BC0584239523A623B723892B8A2B8B2BE6
:10182000A1F48091D1059091D205A091D305B091FA
:10183000D40584239523A623B723892B8A2B8B2BAE
:10184000A9F0E3E003C0E1E001C0E2E0F0E0EE0F68
:10185000FF1FE056FB4F8591949160914A0570916E
:101860004B057170DF91CF910C94B408DF91CF914B
:101870000895E4EAF5E0A3E2B2E021912D9325E09A
:10188000EE3AF207D1F710922D02BC0183E292E00A
:101890000C94A8086F927F928F929F92AF92BF9202
:1018A000CF92DF92EF92FF920F931F93CF93DF932C
:1018B0008C017B0180E580932302CB016A307105A6
:1018C00034F06AE070E00E94AB32CB010CC066EFEE
:1018D0007FEF0E94AB32CB01F7FE05C02DE22093D3
:1018E000240222E001C021E0622F70E06D5D7D4F97
:1018F0004AE050E00E943C338FE00E94E70A8823D0
:1019000049F06091200570912105717083E292E0A9
:101910000E94A80882E580932302C8010A301105BD
:1019200034F06AE070E00E94AB32CB010CC066EF8D
:101930007FEF0E94AB32CB0117FF05C02DE2209351
:10194000240222E001C021E0622F70E06D5D7D4F36
:101950004AE050E00E943C3380E10E94E70A88237D
:1019600049F06091220570912305717083E292E045
:101970000E94A80880918F05811105C0809197056C
:10198000882309F4C9C080918704811104C0109292
:1019900072041092710480917104909172042091EC
:1019A0006D0430916E04AC01415F5F4F42175307E5
:1019B000F0F40E946F2B6093600470936104809335
:1019C00062049093630482E08093650480917104C3
:1019D0009091720490936E0480936D0480910F0136
:1019E000815080930F01803130F585E122C0215F65
:1019F0003F4F28173907F8F40E946F2B609360045B
:101A000070936104809362049093630481E08093F7
:101A10006504809171049091720490936E04809398
:101A20006D0480910F018F5F80930F01863118F054
:101A300080E180930F014091FD045091FE0460917C
:101A4000FF04709100058091F9049091FA04A0912F
:101A5000FB04B091FC044A015B0124E1820E911C5D
:101A6000A11CB11C88169906AA06BB0634F50E9473
:101A70006F2B60935C0470935D0480935E0490937D
:101A80005F0482E0809364048091FD049091FE04E1
:101A9000A091FF04B09100058093F9049093FA049B
:101AA000A093FB04B093FC0480910E0181508093BD
:101AB0000E01803188F585E12DC04496A11DB11D30
:101AC00084179507A607B7073CF50E946F2B609314
:101AD0005C0470935D0480935E0490935F0481E0E6
:101AE000809364048091FD049091FE04A091FF0412
:101AF000B09100058093F9049093FA04A093FB043D
:101B0000B093FC0480910E018F5F80930E018631AB
:101B100018F080E180930E0180918F05811105C03E
:101B200083E180930F0180930E01C0913405D09121
:101B30003505D17059ECE516F10454F468E3E61666
:101B40006FEFF60644F4A8E3EA2EFF24FA9403C0EC
:101B5000B8ECEB2EF12C013971E017073CF400379B
:101B60008EEF18072CF400E71EEF02C000E911E029
:101B7000D090820589E10E94E70A8D2109F48EC088
:101B800067019AE0C90ED11CD7FE04C06701A1E12C
:101B9000CA0ED11C63E0D594C7946A95E1F7D1943D
:101BA000C194D1086090940540E074E0A72EB12C58
:101BB000E9E0EE2EF12CFEE17F2E443009F445E001
:101BC000E42FF0E0C5018E1B9F0B089F9001099F39
:101BD000300D189F300D112437FF02C0215C3F4F9C
:101BE00056E0359527955A95E1F72C0D3D1D275D5B
:101BF0003F4F22353105F0F5EC0FFD1FC901B7014C
:101C00000E94AB32769ED001779EB00D1124EA0F70
:101C1000FB1FBF016C577109603EB1E07B0728F4E0
:101C2000DB01A95CBD4F80588C93662019F18EEFC3
:101C3000840F8530F8F4CF01865D9109803E51E034
:101C4000950758F4BC01695C7D4F4B01C901B70190
:101C50000E94AB328058D4018C93B297E03EB1E041
:101C6000FB0740F4E95CFD4FC901B7010E94AB32AC
:101C7000805880834F5F493008F49FCF82E20E94F2
:101C8000E70A81110BC0FE01E95CFD4FDF011197EE
:101C900086E28C938CEB81838EE780838091830531
:101CA000882309F4A0C08AE10E94E70A882309F486
:101CB0009AC080913C058F7090913A059F70D92E03
:101CC000492F419560910F0150910E01E82EFF249C
:101CD000E7FCF0949E012E193F0987010C0F1D1F90
:101CE0007EE14702C0011124895C9D4FFC01E20F97
:101CF000F31F6083FC01E00FF11F50834F5FD41688
:101D00007CF7FE01EE19FF09E85CFD4F83E080835C
:101D1000FE01EE0DFF1DEA5CFD4F82E080838091A5
:101D20009705882309F45FC08BE10E94E70A8823A6
:101D300009F459C00E946F2B809060049090610458
:101D4000A0906204B090630458EE850E53E0951E97
:101D5000A11CB11C681579058A059B05D0F48091FA
:101D60006504823059F48EE1D89EC019D10911243E
:101D7000CE19DF09C95CDD4F89EC0AC09EE1D99E0E
:101D8000C00DD11D1124CE19DF09C95CDD4F8FECC8
:101D900088830E946F2B80905C0490905D04A090DB
:101DA0005E04B0905F04A8EE8A0EA3E09A1EA11C08
:101DB000B11C681579058A059B05A8F48091640417
:101DC000095C1D4FF801823039F4BEE1DB9EE01959
:101DD000F109112489EC06C02EE1D29EE00DF11D1F
:101DE00011248FEC8083DF91CF911F910F91FF9091
:101DF000EF90DF90CF90BF90AF909F908F907F90AB
:101E00006F900895AF92BF92CF92DF92EF92FF92C0
:101E10000F931F9380916A058093430480916B0513
:101E200080932706909184059923E1F12091110177
:101E3000829F9001112440911001849FA0011124E0
:101E400080914604909147048217930710F4622F03
:101E500009C07A0162E0E61AF1088E159F0508F4C0
:101E60007C016E2D7A0181E0E81AF10800E010E0B3
:101E7000442737FD4095542F70E080E090E01F929A
:101E80001F921F92E7E0EF93A12CB12C65010E94F5
:101E9000DB2E86E9861B809323020F900F900F9014
:101EA0000F9003C087E980932302009146041091AC
:101EB0004704E0904304F12C0E151F0520F4809197
:101EC0003206811127C085E10E94E70A811103C013
:101ED000E016F106F8F023E044E064E272E0C801A5
:101EE0000E94890989EA8093280210922902609150
:101EF0002C0570912D0571706150710983E292E09B
:101F00001F910F91FF90EF90DF90CF90BF90AF9017
:101F10000C94A8081F910F91FF90EF90DF90CF9045
:101F2000BF90AF900895CF93DF93C0914404D091B8
:101F300045048091420490E0C817D90720F48091AD
:101F40003206811121C086E10E94E70A8823E1F070
:101F50008FEB8093230223E044E064E272E0CE0141
:101F60000E94890989EA80932802109229026091CF
:101F70002E0570912F0571706150710983E292E016
:101F8000DF91CF910C94A808DF91CF910895AF9283
:101F9000BF92CF92DF92EF92FF920F931F938BE04D
:101FA0000E94E70A882309F480C080E2809324021B
:101FB000809118019091190120910A0130910B0133
:101FC0002817390720F490930B0180930A01209180
:101FD0000C0130910D018217930720F490930D01AD
:101FE00080930C0120910A0130910B01233038407D
:101FF00030F022E038E030930B0120930A01209169
:102000000C0130910D01263B334030F426EB33E0D8
:1020100030930D0120930C0120917505222339F096
:1020200020E044E065E272E00E94890928C0E09067
:102030000A01F0900B0100E010E020910C013091BA
:102040000D0140E050E0BC0180E090E01F921F9243
:102050001F92E4E6EF93A12CB12C65010E94DB2EC8
:10206000DC01CB0120E043E065E272E00E948909D7
:1020700085E2809328020F900F900F900F9088ECCC
:10208000809323021092290260911805709119051E
:10209000717083E292E01F910F91FF90EF90DF90BB
:1020A000CF90BF90AF900C94A8081F910F91FF9014
:1020B000EF90DF90CF90BF90AF90089580919505FD
:1020C000882309F44EC080911C0590911D0581154F
:1020D000924008F446C0809187048823F1F0209153
:1020E000580430915904C9016CE370E00E949732A2
:1020F0008091A30590E06817790720F0809132065F
:1021000081112FC020318EE0380728F48CE98093AC
:102110002302B90116C081E709C060915A04709189
:102120005B0460312EE0720720F48BE98093230278
:1021300008C080E780932302CB016CE370E00E942B
:10214000973280E090E020E044E252E00E94430AAF
:1021500060911C0570911D05717083E292E00C94F2
:10216000A8080895CF92DF92EF92FF92C090520498
:10217000D0905304E0905404F090550460913804DA
:102180007091390480E090E00E948A309B01AC019C
:10219000C701B6010E949A31181644F4C701B6016E
:1021A0000E945E30709339046093380487E10E9486
:1021B000E70A8823F1F0C701B6010E945930DC011B
:1021C000CB0124E045E063E272E00E9489098AE9DC
:1021D0008093280210922902609130057091310598
:1021E000717083E292E0FF90EF90DF90CF900C94BB
:1021F000A808FF90EF90DF90CF900895CF93DF93E2
:1022000085E20E94E70A8823B1F1C0914C05D09184
:102210004D05D170609146047091470480E090E0D4
:102220000E948A302091520430915304409154040A
:10223000509155040E94A53120E030E048EC52E472
:102240000E94F12F0E945E30DC01CB0125E045E0C9
:1022500064E272E00E94890980E28093230287E5AC
:102260008093280210922902BE0183E292E0DF915E
:10227000CF910C94A808DF91CF91089588E10E9436
:10228000E70A882321F184EA8093230220E030E0EA
:1022900044EB53E460914E0470914F0480915004DC
:1022A000909151040E94F12F0E945930DC01CB0122
:1022B0004AE050E064E272E00E943C3360913205F3
:1022C00070913305717083E292E00C94A808089530
:1022D00083E10E94E70A882331F18AEB809323028D
:1022E0004AE050E064E272E080914A0490914B042D
:1022F0000E943C330E94DC0AA82FB0E0AD5DBD4FC8
:1023000095E29C938F5FE82FF0E0ED5DFD4F10822A
:10231000609128057091290571706150710983E2FF
:1023200092E00C94A808089587E00E94E70A8823A9
:1023300081F180917D05882361F18091560490910F
:10234000570420917E05222381F097FF02C088590F
:102350009E4F20E043E063E272E00E9489098DEB2A
:1023600080932602109227020BC020E044E063E233
:1023700072E00E9489098DEB809327021092280257
:102380006091100570911105717083E292E00C94D8
:10239000A808089588E00E94E70A8823F9F0809150
:1023A00093058823D9F08091560490915704880FA3
:1023B000991F880F991F83509D4F6AE570E00E9416
:1023C000AB3261507B4F8091120590911305917053
:1023D00049E050E0895C9D4F0C942C3308950F9395
:1023E0001F93CF93DF9307E314E0C0E4D0E0F8013C
:1023F00085919491BE010E94B4080E5F1F4F6E96A6
:10240000C03381E0D80799F788EF90E00E94390C3B
:10241000E0912F06F0E0EE0FFF1FE750FC4F859193
:10242000949166E171E0DF91CF911F910F910C942F
:10243000B408CF93C0916A04C53020F4809132066D
:1024400081111DC080E00E94E70A8823C1F08EE15F
:10245000809323028FE1809324024AE050E065E2FA
:1024600072E08C2F90E00E943C33609102057091E5
:102470000305717083E292E0CF910C94A808CF918C
:1024800008950F931F93CF93DF9380917F04882348
:1024900009F465C080918704811104C01092720410
:1024A00010927104C0917F05609171047091720463
:1024B00080E090E0C11107C00E948A302CEB34E725
:1024C00043E15DE306C00E948A302DED3FE347EB18
:1024D0005CE30E94A5310E945E308B018091400434
:1024E000909141049C012C5E3F4F2017310728F446
:1024F000309341042093400407C08017910720F4D3
:10250000109341040093400483E00E94E70A88236B
:1025100031F18091A205882341F090E08017910766
:1025200020F48091320681111AC0D0E0CB5BDE4FDF
:102530008881809323024AE050E064E272E0C8019F
:102540000E943C336091080570910905717083E227
:1025500092E0DF91CF911F910F910C94A808DF9129
:10256000CF911F910F910895AF92BF92CF92DF92BA
:10257000EF92FF920F931F93CF93DF938AE00E9415
:10258000E70A882309F44CC080919105882309F457
:1025900047C0C0911605D0911705D170C95CDD4FB9
:1025A000FE017E978FE7808388838E8F80918804D9
:1025B000909189048937910534F488382FEF920778
:1025C00024F0682F03C068E701C068E8772767FD3B
:1025D0007095872F972F1F921F921F9221E12F93A3
:1025E000A12CB12C650118E8E12EFF24FA940FEF1D
:1025F0001FEF28E730E040E050E00E94DB2E862FFE
:1026000066E00E94893281502EE18202C00DD11D08
:1026100011248FE8891B88830F900F900F900F90E3
:10262000DF91CF911F910F91FF90EF90DF90CF90AE
:10263000BF90AF90089580917F04882309F184E0D2
:102640000E94E70A8823E1F080917C058823C1F08D
:1026500020E043E063E272E080916B0490916C04AF
:102660000E9489098DEB80932602109227026091C7
:102670000A0570910B05717083E292E00C94A80832
:10268000089580917F048823F1F181E00E94E70A98
:102690008823C9F18091800490918104A0918204E3
:1026A000B09183040397A105B10520F4809132060F
:1026B000811129C020910405309105053170809168
:1026C000560490915704845E9D4F40916B04509145
:1026D0006C04841B950B880F991F880F991F8D968A
:1026E0006AE570E00E94AB32CB0160E170E00E94CD
:1026F000AB32805A8093230210922402B90183E204
:1027000092E00C94A8080895209137012A3061F4D2
:1027100080913601833009F48DC0813009F48DC079
:10272000823009F48DC07AC02A3008F077C0309129
:102730003501313079F483E080933601283019F483
:102740008AE08093370180913701893009F063C0B6
:1027500087E05FC0323079F483E080933601273020
:1027600019F48AE08093370180913701893009F0AC
:1027700052C086E04EC0333069F4309336012930C0
:1027800019F485E08093370180913701863009F094
:1027900042C03EC03430E9F4293049F48091280623
:1027A000883011F48AE001C088E0809337012091DD
:1027B00037012093280683E08093360130E02E5FB6
:1027C0003F4F4EE1429FC001439F900D112446961A
:1027D00027C0353069F483E080933601293019F43D
:1027E00086E080933701809137018730A1F410C0D3
:1027F00080E090E03630A1F483E080933601293008
:1028000019F487E08093370180913701883019F4FB
:102810008AE08093370120913701D0CF80E090E0AB
:1028200020913306222379F0FC01E95CFD4F23E07F
:10283000208308958AE791E0F3CF8AE691E0F0CF14
:1028400080E791E0EDCF08952F923F924F925F92F3
:102850006F927F928F929F92AF92BF92CF92DF92B0
:10286000EF92FF920F931F93CF93DF93CDB7DEB715
:1028700062970FB6F894DEBF0FBECDBF809186057C
:102880008230A1F040F4813009F0EEC101E010E0A7
:102890001C830B8309C0833019F0843039F0E4C104
:1028A00022E030E03C832B831F8206C082E090E070
:1028B0009C838B8391E09F8380917F04882309F41C
:1028C000D3C182E20E94E70A882309F4CDC11E82A7
:1028D0001D82198A1A8A9F81AD819A0F9A83892F46
:1028E00090E0EB81FC818E179F070CF0BDC18091B9
:1028F0006B0490916C04AA81A13069F42091840446
:1029000030918504821B930B845E9D4F68E671E0D5
:102910000E9497320CC088599E4F209156043091E6
:102920005704821B930B68E671E00E94AB329C0156
:102930006AE570E00E94AB3261307105C1F03CF491
:10294000672B29F5BFEFB98BE1E0EA8B20C062303D
:102950007105B9F063307105D1F488E691E0821B0E
:10296000930B9C019FEF998BAFEFAA8B10C0E4EB08
:10297000F0E0E21BF30B9F01F1E0F98B01E00A8B21
:1029800006C0245B310911E0198B4FEF4A8BB90166
:10299000882777FD8095982F0E948C302BED3FE0A3
:1029A00049E450E40E94A53120E030E044E353E4E0
:1029B0000E94F12F1B012C01609180047091810411
:1029C00080918204909183040E948A304B015C01C3
:1029D000C201B1010E9408329B01AC01C501B401E2
:1029E0000E94A5310E945E306B017C01C201B101E1
:1029F0000E94EE2F9B01AC01C501B4010E94A531DC
:102A00000E945E308B019C011B01412C512CB601B0
:102A100080E090E0C016D10618F44201310102C0F6
:102A20003B014C01F4E66F1671048104910490F0AF
:102A300004EF601601E070068104910480F014EC4C
:102A4000611619E071068104910470F0930144E26B
:102A500049830EC0A1E2A98324E630E009C0B2E2B6
:102A6000B98324EF31E004C0E3E2E98324EC39E0E8
:102A700079010027F7FC0095102FE886F9860A8770
:102A80001B871F921F921F9220E1F22EFF92A12C12
:102A9000B12C6501E884F9840A851B8520E030E0CB
:102AA000A9010E94DB2E6C877D878E879F871F92EE
:102AB0001F921F920FE00F93E884F9840A851B850B
:102AC00020E030E0A901C201B1010E94DB2E0FB667
:102AD000F894DEBF0FBECDBF34E1631671048104EC
:102AE0009104D8F0AA894A2F552747FD5095EC85C7
:102AF000FD854E9F90014F9F300D5E9F300D11243C
:102B0000F9894F2F552747FD5095469FF001479F64
:102B1000F00D569FF00D112404C0E0E0F0E020E03D
:102B200030E0C0904805D090490501E0D0227901FD
:102B300089010F5F1F4F37FD7801F594E794EC0C86
:102B4000FD1CCF0163E070E00E94AB324EE1469F76
:102B5000C001479F900D1124E80EF91E4A814130B3
:102B600011F045E001C044E0C90137FF04C08827E7
:102B70009927821B930BA82FA178A7FF03C0A15010
:102B8000AE6FAF5F5A2FCF01F7FF04C08827992798
:102B90008E1B9F0B63E00E9489328989813019F472
:102BA00082E0891B982FBA89BF3F11F451E05A1B6C
:102BB0003296359718F491E0E9899E1B0330110590
:102BC00028F451E02F3F3F4F09F450E00A810023E1
:102BD00011F080ED01C086ED20918605243031F0A2
:102BE000152F110F150F190F180F16C080915604CD
:102BF000909157042091840430918504821B930B9B
:102C00008A519D4F68E671E00E9497326DE270E054
:102C10000E94973212E7160F298120932302109207
:102C200024026091460570914705717083E292E03D
:102C3000488B0E94A8081093230210922402B70127
:102C400083E292E00E94A8084889409323021092F0
:102C50002402B60183E292E00E94A8088D819E8141
:102C600001969E838D8337CE62960FB6F894DEBFB1
:102C70000FBECDBFDF91CF911F910F91FF90EF90CD
:102C8000DF90CF90BF90AF909F908F907F906F908C
:102C90005F904F903F902F9008959C01E62FF0E0B9
:102CA000EE59FA4FE081F0E0EE0FFF1FE15BFE4FBF
:102CB00085919491B9010C94B4080F931F93CF930D
:102CC0008EE00E94E70A882309F4B4C0809172055F
:102CD000882309F4AFC080918704811109C08091D5
:102CE0002E04826080932E048EE18093390116C0F9
:102CF00090913901992369F08091330681119AC02E
:102D000080912E04846080932E0491509093390119
:102D100005C080912E04816080932E04809143042D
:102D200090E020914604309147048217930728F0E1
:102D300080912E04806480932E0480918F0483FF01
:102D40001CC080916A04853028F480912E04806232
:102D500080932E0480914106811105C080912E043C
:102D6000806180932E0480914006811106C080917D
:102D70002E048F7C886080932E0480912F04811113
:102D800004C080912E0480932F0480912F04C82FBB
:102D9000C195C8230E946F2B00914A0610914B06E3
:102DA00020914C0630914D060C501E4F2F4F3F4F37
:102DB000061717072807390798F490912F049923CD
:102DC00029F08C2F8095892380932F040E946F2BEC
:102DD00060934A0670934B0680934C0690934D0681
:102DE00080E090E060E02C2F30E0E82FA901082E71
:102DF00002C0559547950A94E2F740FFE62F0196E9
:102E00008830910511F06E2FF0CF80912E04823022
:102E100088F0F0E0EE0FFF1FE057FB4F8591949193
:102E200060911E0570911F057170CF911F910F91D8
:102E30000C94B408CF911F910F910895CF92DF9217
:102E4000EF92FF920F931F93CF93DF936B017C015F
:102E5000042F122FC42FD0E080E1C81687E2D806D5
:102E6000E104F104DCF180917F05882389F0C7013A
:102E7000B60120EA34E140E050E00E94E1326C0DFE
:102E80007D1D8E1D9F1D20E132E040E050E006C018
:102E9000C701B60124E630E040E050E00E94E13294
:102EA000DA01C901BE016D5D7D4F4AE050E00E942C
:102EB0003C330E94DC0A282F30E0D901AE5DBD4FC3
:102EC0009C91F901ED5DFD4F90839EE29C938F5F95
:102ED000E82FF0E0ED5DFD4F108208C0BE016D5D92
:102EE0007D4F4AE050E0C6010E943C33013051F46E
:102EF000E0917F05F0E0E35CFE4FE10FF11D808182
:102F000080932302DF91CF911F910F91FF90EF905B
:102F1000DF90CF900895CF92DF92EF92FF92CF9300
:102F200080917B05882309F454C085E00E94E70A5C
:102F3000882309F44EC080917F058823A9F0609111
:102F400073047091740480917504909176040E94CA
:102F50008C3021EA38EF41E550E40E94A5310E940F
:102F600059306B017C0108C0C0907304D090740488
:102F7000E0907504F0907604C091A105CC23A9F0EF
:102F8000C701B6012AE030E040E050E00E94E132A3
:102F90008C2F90E0A0E0B0E0281739074A075B07C4
:102FA00024F080913206811114C020E041E0C70175
:102FB000B6010E941E1760910C0570910D0571708D
:102FC00083E292E0CF91FF90EF90DF90CF900C944E
:102FD000A808CF91FF90EF90DF90CF900895EF92E7
:102FE0000F931F93CF93DF9380917F04882309F47D
:102FF00077C00E948B1781E10E94E70A882309F4B9
:103000006FC080918B0490918C04A0918D04B0913D
:103010008E044091B5055091B6056091B705709149
:10302000B80501E010E020E030E00097A105B1050F
:1030300019F000E010E0980104231523262337231C
:10304000012B022B032B09F04BC084239523A623CD
:10305000B72320917905822B892B8A2B8B2B09F49E
:103060003FC0C0912405D0912505D1708AEC809392
:10307000230260917B0470917C0480917D04909187
:103080007E04E3E5EE2E0EE424E044E252E00E94EA
:10309000D709BE0183E292E00E94A808C0912605EC
:1030A000D0912705D1708BEC809323026091770437
:1030B000709178048091790490917A04F7E5EF2E6D
:1030C00005E424E044E252E00E94D709BE0183E215
:1030D00092E0DF91CF911F910F91EF900C94A8088F
:1030E000DF91CF911F910F91EF900895CF93DF93D0
:1030F00080917F058823A1F06091FD047091FE040A
:103100008091FF04909100050E948C302EEA31E6F8
:1031100046E05DE30E94A5310E945930EB010FC0EB
:103120006091FD047091FE048091FF049091000570
:1031300024E630E040E050E00E94E132E901809175
:103140008704882389F08091290690912A060697A2
:1031500058F080913E0490913F048C179D0724F411
:10316000D0933F04C0933E0489E00E94E70A88237D
:1031700051F180919205882331F14091A1054423BA
:1031800071F0CE016AE070E00E94AB32842F90E0D3
:103190006817790724F080913206811114C0BE01AE
:1031A000882777FD8095982F20E041E00E941E1728
:1031B0006091140570911505717083E292E0DF91C2
:1031C000CF910C94A808DF91CF910895CF92DF9210
:1031D000EF92FF92CF9380917F04882309F473C00C
:1031E00080917F058823A9F060918004709181040B
:1031F00080918204909183040E948A3021EA38EF02
:1032000041E550E40E94A5310E945E306B017C01D3
:1032100008C0C0908004D0908104E0908204F090B7
:10322000830480913A0490913B04A0913C04B091B6
:103230003D048C159D05AE05BF0598F48C599F4F34
:10324000AF4FBF4F8C159D05AE05BF0510F46C0147
:103250007D01C0923A04D0923B04E0923C04F0928B
:103260003D0482E00E94E70A882369F1C091A0052D
:10327000CC23A9F0C701B60124E630E040E050E0DD
:103280000E94BF328C2F90E0A0E0B0E028173907F1
:103290004A075B0720F080913206811114C022E0BA
:1032A00041E0C701B6010E941E17609106057091AA
:1032B0000705717083E292E0CF91FF90EF90DF906D
:1032C000CF900C94A808CF91FF90EF90DF90CF9013
:1032D0000895CF92DF92EF92FF920F931F93CF93B7
:1032E000DF93CDB7DEB7E0970FB6F894DEBF0FBE21
:1032F000CDBFE0913501EE0FFF0BED5AFE4F8591EA
:10330000949163E270E00E94B4086BE671E08DEE88
:1033100093E00E94B4088091860481110CC061E79B
:1033200071E083EE93E00E94B4086BE771E08CEDEE
:1033300093E00E94B4088091350181118BC0809187
:10334000340490913504A0913604B09137048D83F4
:103350009E83AF83B88780913A0490913B04A091FB
:103360003C04B0913D0489879A87AB87BC878091E4
:103370003E0490913F04AA2797FDA095BA2F8D8710
:103380009E87AF87B88B8091400490914104A0E064
:10339000B0E0898B9A8BAB8BBC8B20E030E044EBA8
:1033A00053E460914E0470914F04809150049091C9
:1033B00051040E94F12F0E945E306D8B7E8B8F8BAB
:1033C000988F80913804909139046AE070E00E94EF
:1033D0009732CB01A0E0B0E0898F9A8FAB8FBC8F82
:1033E0009FEAE92E91E0F92ECE0101966C010DE5E0
:1033F00010E0F70185919491B8010E94B408F6019C
:1034000061917191819191916F0122E040E00E9460
:103410001E17B8016F5E7F4F83E292E00E94A808FA
:10342000F2E0EF0EF11C025E1F4F0F3281E0180731
:1034300001F7609132047091330480E090E021E064
:1034400043E252E00E94430A6DE670E083E292E0BC
:103450000E94A80880913501813009F096C00E9431
:10346000C40587E98093230223E044E064E272E02C
:1034700080914604909147040E94890919EA1093AB
:1034800028021092290264E370E083E292E00E9435
:10349000A8088FEB8093230223E044E064E272E00B
:1034A00080914404909145040E9489091093280258
:1034B000109229026CE270E083E292E00E94A80878
:1034C00081EAE82E81E0F82E0DE510E0F701859104
:1034D0009491B8010E94B40892E0E90EF11C025EDA
:1034E0001F4F0F32E1E01E0789F7809173054AE014
:1034F00050E063E272E090E00E943C336BEC70E0DD
:103500000E94A80867E081E790E00E944D16809134
:103510006C054AE050E063E272E090E00E943C33C8
:103520006FE870E00E94A80880916A054AE050E0C8
:1035300063E272E090E00E943C336DEA70E00E942A
:10354000A80861E18BEC90E00E944D168091740513
:103550004AE050E063E272E090E00E943C3369EEA2
:1035600070E00E94A80880916B054AE050E063E299
:1035700072E090E00E943C3367E071E00E94A8088E
:103580006BE085E291E00E944D168091350182301A
:1035900009F072C04AE050E063E272E080914A04B0
:1035A00090914B040E943C330E94DC0AA82FB0E0AB
:1035B000AD5DBD4F95E29C938F5FE82FF0E0ED5D30
:1035C000FD4F108265E370E083E292E00E94A8085C
:1035D00005E9E02E01E0F02E0DE510E0F701859100
:1035E0009491B8010E94B408F2E0EF0EF11C025E63
:1035F0001F4F013181E0180789F764E081E790E00F
:103600000E944D1680913606882351F04AE050E022
:1036100063E272E090E00E943C336FE870E004C027
:103620006FE870E08BE391E00E94A80865E08DEA06
:1036300090E00E944D1666E08BEC90E00E944D16E3
:103640004AE050E063E272E080915C0590915D0594
:103650000E943C3369EE70E00E94A8084AE050E006
:1036600063E272E080915A0590915B050E943C33C1
:1036700067E071E00E94A80880913501833009F06D
:103680005CC06091520470915304809154049091F5
:1036900055040E945930DC01CB0123E044E063E291
:1036A00072E00E9489098AE9809327021092280219
:1036B00064E370E083E292E00E94A8081BE8E12E38
:1036C00011E0F12E0DE510E0F70185919491B8011C
:1036D0000E94B40892E0E90EF11C025E1F4F033F06
:1036E000110591F76CE081E790E00E944D166EE0C5
:1036F0008FE890E00E944D166FE08DEA90E00E9406
:103700004D164AE050E063E272E0809158059091D6
:1037100059050E943C336BEC70E00E94A8084AE017
:1037200050E063E272E080915605909157050E9447
:103730003C3369EE70E00E94A80880913501843026
:1037400009F045C0BBE7EB2EB1E0FB2E0DE510E024
:10375000F70185919491B8010E94B408E2E0EE0E61
:10376000F11C025E1F4F0D34F1E01F0789F760E284
:1037700081E790E00E944D1661E28FE890E00E94A0
:103780004D166DE28DEA90E00E944D166FE18BECD4
:1037900090E00E944D1667E189EE90E00E944D1680
:1037A00064E387E091E00E944D166EE285E291E0CD
:1037B0000E944D16809186054AE050E063E272E077
:1037C00090E00E943C3363E471E00E94A80880917D
:1037D0003501853009F05AC0AFE6EA2EA1E0FA2E95
:1037E0000DE510E0F70185919491B8010E94B408AD
:1037F00082E0E80EF11C025E1F4F013191E01907D3
:1038000089F780917F0561E770E0811103C08CE347
:1038100092E002C088E392E00E94B408809187059C
:103820006FE870E0882319F08FE292E002C08AE22C
:1038300092E00E94B4086CE28DEA90E00E944D167E
:1038400080913706882351F04AE050E063E272E04D
:1038500090E00E943C336BEC70E004C06BEC70E0D5
:103860008BE391E00E94A80880919C054AE050E01B
:1038700063E272E090E00E943C3369EE70E00E94E7
:10388000A80863E187E091E00E944D168091350120
:10389000863009F04FC08091A00590E09E8F8D8FFB
:1038A0008091A10590E098A38F8F8091A20590E070
:1038B0009AA389A38091A30590E09CA38BA38091F8
:1038C000760590E09EA38DA38091770590E098A760
:1038D0008FA30DE510E0E12CF12CD12CF701EF596D
:1038E000FE4F85919491B8010E94B408E6E0DE167F
:1038F00099F04AE050E063E272E0EDE1F0E0EC0FB5
:10390000FD1FEE0DFF1D808191810E943C33B801A7
:103910006C5E7F4F0E94A808D394F2E0EF0EF11C7A
:10392000025E1F4F87E0D812D9CF60E185E291E0B7
:103930000E944D1680913501873014F010923501A8
:10394000E0960FB6F894DEBF0FBECDBFDF91CF91EA
:103950001F910F91FF90EF90DF90CF900C94841304
:10396000E091740181E08E0F80937401F0E0E758DC
:10397000FE4F80810895CF93DF930E94B01CC82F23
:10398000D0E00E94B01C9E01382BC901DF91CF917D
:10399000089581E0809335018AE08093370183E0C8
:1039A000809336011092210610928604809185053D
:1039B000882301F1109234041092350410923604D9
:1039C0001092370410923A0410923B0410923C0477
:1039D00010923D0410923F0410923E041092410454
:1039E000109240041092390410923804109233045B
:1039F000109232040C94B603E6E2F4E06081718127
:103A0000AB01552748279A01A4E0220F331FAA953E
:103A1000E1F7332724273527922F8827A901A3E030
:103A2000440F551FAA95E1F784279527672F77271D
:103A30008627972744E0369527954A95E1F7822710
:103A40009327918380830895CF93DF9300D000D094
:103A5000CDB7DEB7E82FF0E0E758FE4F80818983CD
:103A600081818A8382818B8383818C8369817A813E
:103A70008B819C810F900F900F900F90DF91CF91D1
:103A80000895CF93DF9300D000D0CDB7DEB7E82FF5
:103A9000F0E0E758FE4F8081898381818A838281AB
:103AA0008B8383818C8369817A818B819C810F9048
:103AB0000F900F900F90DF91CF9108954F925F92EA
:103AC0006F927F928F929F92AF92BF92CF92DF922E
:103AD000EF92FF920F931F93CF93DF93FC016B0143
:103AE0003901E701DA016D917D918D919C91808082
:103AF0009180A280B380681979098A099B090E9484
:103B00008C304B015C01F301608171818281938172
:103B1000D601CD90DD90ED90FC906C197D098E0959
:103B20009F090E948C3020912A0430912B044091EF
:103B30002C0450912D040E94A5316B017C01A5013C
:103B40009401C501B4010E94A5312B013C01A701DC
:103B50009601C701B6010E94A5319B01AC01C301CA
:103B6000B2010E94242F0E9412322CE23DE74EE85F
:103B70005FE30E94A5310E945E30F801608371838B
:103B800082839383C501B4019058A70196010E94D6
:103B9000972F20EA3CE043EB55E40E94A53120E05A
:103BA00030EA4CE056E40E94242F0E94593097FDE1
:103BB00005C0688379838A839B830AC0DC01CB01BB
:103BC00080569347AF4FBF4F88839983AA83BB83A7
:103BD000DF91CF911F910F91FF90EF90DF90CF90E9
:103BE000BF90AF909F908F907F906F905F904F901D
:103BF000089580917B0490917C04A0917D04B09104
:103C00007E0480931A0490931B04A0931C04B09329
:103C10001D048091770490917804A0917904B0916B
:103C20007A0480931E0490931F04A0932004B09301
:103C30002104089584B714BE809160008861809348
:103C400060001092600026E040E051EE60E070E01D
:103C500087E596E00E949C2D87E596E00E94152D51
:103C600084B18C6284B92498569A529860E084E1B9
:103C70000E944A2C60E081E10E944A2C60E081E1D0
:103C80000E944A2C61E087E00E944A2C0E9417089B
:103C90000E9458050E941E0564EF71E080E090E0EC
:103CA0000E949E2B80918705882311F081E001C03E
:103CB00083E00E94012C0E94DB0880918F04909188
:103CC00090048F609093900480938F040C94B603BB
:103CD000CF93C82F682F87E596E00E94372D9091EB
:103CE00073019C2790937301CF910895CF93DF9335
:103CF0001F92CDB7DEB799830E94681E9981892FE4
:103D00000F90DF91CF910C94681E6091730187E54D
:103D100096E00C94372DCF93DF93D82FC62F64E213
:103D200070E087E596E00E946D036DE470E087E542
:103D300096E00E946D036CE370E087E596E00E94D8
:103D40006D03109273018C2F0E94681E8D2F0E94AC
:103D5000681EC11104C0DF91CF910C94851EDF91C4
:103D6000CF910895CF93109201056EE18AEC0E94E5
:103D70008B1ECAE080E00E94681E80E00E94681EE0
:103D800080E00E94681EC150A9F70E94851E67E06E
:103D90008CEC0E948B1E80E00E94681E80E00E94D6
:103DA000681E80E00E94681E80E00E94681E80E01D
:103DB0000E94681E80E00E94681E80E00E94681ECB
:103DC0000E94851E0E94A20460E08AEF0E948B1E62
:103DD000CF910C94C91C209137012A30C9F48091ED
:103DE00036018330A9F480912B0682301CF081E0EB
:103DF00080932B0680912B068F3F1CF48FEF8093CE
:103E00002B068091350190912B06890F8093350107
:103E10008091350187FF03C086E080933501809152
:103E20003501873014F01092350130913501313071
:103E300009F049C080913601833009F0C0C1822F5A
:103E400090E0FC013197E730F10508F0B8C1EC5C77
:103E5000FF4F0C94003381E090916905911180E04F
:103E600080936905ACC180912B0690916C05890FF8
:103E700080936C05A4C180912B0690916A05890FEF
:103E800080936A059CC181E090917305911180E057
:103E90008093730594C180912B0690917405890FCE
:103EA000809374058CC180912B0690916B05890FCE
:103EB00080936B0584C181E090916D05911180E044
:103EC00080936D057CC1323009F04DC08091360180
:103ED000833009F074C1233039F148F42130E1F026
:103EE000223009F06CC18FE08093360608952530AA
:103EF00059F110F1263009F062C120912B06809112
:103F00005A0590915B05820F911D27FD9A9590931C
:103F10005B0580935A05089581E0909166059111A3
:103F200080E080936605089581E090916705911186
:103F300080E080936705089581E090916805911174
:103F400080E0809368053BC120912B0680915C0541
:103F500090915D05820F911D27FD9A9590935D05C7
:103F600080935C050895333009F048C08091360194
:103F7000833009F024C1233051F128F42130B9F005
:103F80002230E9F01CC1243051F1253009F017C16D
:103F900020912B068091560590915705820F911D17
:103FA00027FD9A959093570580935605089581E0D3
:103FB00090916E05911180E080936E05089581E0E7
:103FC00090917005911180E080937005089581E0D3
:103FD00090917105911180E0809371050895209171
:103FE0002B068091580590915905820F911D27FD50
:103FF0009A9590935905809358050895343009F0A7
:1040000051C080913601833009F0D9C0822F90E0F1
:10401000FC013197E830F10508F0D1C0E55CFF4FB5
:104020000C94003381E090918205911180E080939F
:104030008205C5C081E090918305911180E0809355
:104040008305BDC081E090918F05911180E0809340
:104050008F05B5C081E090918105911180E080933A
:104060008105ADC081E090917905911180E0809348
:104070007905A5C081E090919605911180E080932B
:1040800096059DC081E090919005911180E080930C
:10409000900595C080912B0690918605890F80939D
:1040A00086058DC0353009F03FC0809136018330E0
:1040B00009F085C02330E1F028F4213049F02230A6
:1040C00079F07DC0253001F1D8F0263029F177C094
:1040D00081E090917F05911180E080937F050895A4
:1040E00081E090918705911180E080938705089584
:1040F00081E090918E05911180E080938E05089566
:104100008AE0809337065BC080912B0690919C05D6
:10411000890F80939C05089581E090917505911118
:1041200080E0809375050895363009F048C080918D
:104130003601833009F043C0822F90E0FC013197B3
:10414000E730F105E0F5ED5BFF4F0C940033809113
:104150002B069091A005890F8093A005089580916A
:104160002B069091A105890F8093A1050895809158
:104170002B069091A205890F8093A2050895809146
:104180002B069091A305890F8093A3050895809134
:104190002B0690917605890F80937605089580917E
:1041A0002B0690917705890F80937705089581E01C
:1041B00090917205911180E08093720508952A30E4
:1041C00069F43093340180913601813019F08230E6
:1041D00019F008950C94C91C0C94B21E08950F9305
:1041E0001F93CF93809116019091170185519540AF
:1041F0008F389140C8F48091140190911501855138
:1042000095408F38914080F480911A0190911B0164
:10421000855195408F38914038F41092690188EEAD
:1042200093E0A0E0B0E025C080916901813049F5BC
:104230000E946F2B00916101109162012091630136
:1042400030916401601B710B820B930B009165012F
:1042500010916601209167013091680106171707D8
:104260002807390710F4109269018CE291E0A0E070
:10427000B0E08093650190936601A0936701B093CD
:104280006801809169018111DEC0009116011091D1
:104290001701209121060B3337E0130740F180917D
:1042A0001A0190911B018B33974008F180911801FE
:1042B000909119018F379440D0F02111B6C08091B0
:1042C000290690912A06069708F4AFC080918704CA
:1042D0008111ABC082E08093690181E08093210667
:1042E00080913401809335010E94B6039EC0222341
:1042F00009F49BC0C0912B0610922B068091860476
:10430000882361F0809118019091190185319540C1
:1043100028F082E0809369010E94C91C3091210637
:10432000332309F44DC080911401909115018B3312
:1043300027E0920778F081E080936901809136014F
:104340008F5F80933601843008F46FC083E08093E0
:1043500036016BC08E37944068F491E09093690108
:104360008091360181508093360181115EC0909317
:1043700036015BC00B3387E0180788F091E090931B
:10438000690180913701815019F08093370102C093
:104390009093370180913501811147C00DC00E37D0
:1043A000144070F481E080936901809137018F5F40
:1043B000809337018B30C8F18AE08093370135C094
:1043C00080918604811131C0332379F12C2FC630BE
:1043D0000CF025E02B3F0CF42BEF80911A0190910B
:1043E0001B018E3734E0930738F481E08093690134
:1043F000215020932B0617C08B339740B0F081E0FB
:10440000809369012F5F20932B06809135018630C0
:1044100051F480913601833031F480913701853039
:1044200011F4109237060E94EB1E809169018130D1
:1044300051F40E946F2B609361017093620180932D
:10444000630190936401CF911F910F910895CF92D2
:10445000DF92EF92FF920F931F93CF93DF93CDB72D
:10446000DEB728970FB6F894DEBF0FBECDBF8091A0
:10447000460690914706019690934706809346061C
:1044800083E08093400680912204883109F40EC1B4
:1044900030F48823C1F1813009F4AAC12FC28332DC
:1044A00009F47EC18A3409F490C08E3109F026C225
:1044B00084E00E94241D26EE3EE245E652E40E947E
:1044C000A53120E030E040E251E40E94A5310E9495
:1044D00059307093F6046093F50488E00E94241D1F
:1044E00026EE3EE245E652E40E94A53120E030E0AF
:1044F00040E251E40E94A5310E9459307093F804C3
:104500006093F704FBC181E08093AE0580E190E009
:10451000A0E0B0E08093B5059093B605A093B705F1
:10452000B093B80580E290E0A0E0B0E08093B905D8
:104530009093BA05A093BB05B093BC0580E490E0CE
:10454000A0E0B0E08093D1059093D205A093D3056D
:10455000B093D405C0908B04D0908C04E0908D046F
:10456000F0908E04E894C0F8C0928B04D0928C0432
:10457000E0928D04F0928E0480E00E94411D623131
:1045800018F46093240403C081E180932404809193
:104590007F0187FF0FC06894C0F8C0928B04D0924F
:1045A0008C04E0928D04F0928E0481E08093870465
:1045B00083E005C080915E01882321F081508093C3
:1045C0005E019CC11092870499C184E00E94241D61
:1045D0000E94593044E6469F9001479F300D1124B8
:1045E000309372042093710488E00E94241D0E947D
:1045F00059306B01EE24D7FCE094FE2C8091170417
:1046000090911804AA2797FDA095BA2FC81AD90A25
:10461000EA0AFB0AC0927304D0927404E092750413
:10462000F0927604A4E6B0E0A70196010E9406335A
:104630006093FD047093FE048093FF049093000543
:1046400080918A0190E0982F882720918901822B00
:10465000853B910514F088569140909357048093C0
:1046600056048CE00E94241D0E94593044E6469F67
:104670009001479F300D11243093890420938804C2
:104680008091190480FD3AC190916A04953008F434
:1046900035C190918704992309F430C181608093DA
:1046A0001904D0921804C092170428C185E08093A1
:1046B00041061091960110936A04009195010093B0
:1046C0007F048091940190E0982F88272091930196
:1046D000822B6AE070E00E94AB32709370046093AA
:1046E0006F0488E00E94411D60937B0470937C04FA
:1046F00080937D0490937E048CE00E94411D609322
:104700007704709378048093790490937A0403304B
:1047100098F1153088F1CE0101967C018E010B5F76
:104720001F4F2EE134E04AE154E067E774E08BE785
:1047300094E00E945E1D6D817E818F819885E4E604
:10474000CE2ED12CE12CF12CA70196010E94BF3274
:104750002093800430938104409382045093830417
:1047600069817A818B819C81A70196010E94E13247
:1047700030936C0420936B048091190481FDBEC0BA
:1047800090916A04953008F4B9C0909187049923F8
:1047900009F4B4C08260809319040E94F91DAEC070
:1047A00080918E01A7E68A9FC00111246AE070E023
:1047B0000E94AB327093670460936604EEE7F1E009
:1047C00044E151E0808190E0982F88279F0121509B
:1047D0003109D9012C91822BDA018D939D93AD0182
:1047E0003296B1E0EE38FB0769F70E94EF2086C0F1
:1047F00082E08093AF0584E08093B10588E08093E8
:10480000B205C0908B04D0908C04E0908D04F090A1
:104810008E0421EFC222C0928B04D0928C04E092CD
:104820008D04F0928E0484E00E94411D61FF0AC055
:104830006894C1F8C0928B04D0928C04E0928D04ED
:10484000F0928E0484E00E94411D63FF11C08091AC
:104850008B0490918C04A0918D04B0918E0484609F
:1048600080938B0490938C04A0938D04B0938E045A
:1048700084E00E94411D64FF11C080918B049091DF
:104880008C04A0918D04B0918E04846080938B047D
:1048900090938C04A0938D04B0938E0484E00E94C6
:1048A000411D62FF11C080918B0490918C04A091F6
:1048B0008D04B0918E04886080938B0490938C0457
:1048C000A0938D04B0938E048091880190E0982F7E
:1048D000882720918701822B64E670E00E94AB322A
:1048E00060938A0480918A0190E0982F8827209114
:1048F0008901822B90934D0480934C04809187040E
:1049000081111CC0109273041092740410927504EB
:10491000109276041092FD041092FE041092FF048F
:10492000109200051092800410928104109282046B
:104930001092830410926C0410926B0428960FB6A8
:10494000F894DEBF0FBECDBFDF91CF911F910F91C5
:10495000FF90EF90DF90CF9008950F931F93CF9328
:10496000DF93182FC0915C01D0915D01209709F46D
:10497000A0C0C730D10581F480915B0190912304E0
:10498000C12FD0E0891377C0D0935901C09358014B
:104990008F5F80935B019AC00E94FC1CC130D105DF
:1049A00029F41093230482E090E060C0C230D10566
:1049B00019F483E090E05AC0C330D10531F41130CE
:1049C00009F072C084E090E051C0C430D10531F4E8
:1049D000113009F069C085E090E048C0C530D105CC
:1049E00091F5109322041831F9F048F4112391F055
:1049F000113011F58CE780935A010FE11DC013327D
:104A0000B9F01A3461F01E31B9F487E280935A018B
:104A10000CE112C082E380935A0109E00DC084E1E9
:104A200080935A0104E108C010935A010EE104C0BA
:104A300084EF80935A0106E180912304801334C0EF
:104A400086E090E013C0269709F040C080915B019A
:104A5000E82FF0E0E758FE4F10838F5F80935B01F3
:104A600090912304891332C087E090E090935D0118
:104A700080935C012BC0DC2FCC2780915801909152
:104A80005901C80FD91FD0935901C0935801809183
:104A90005A010E94FC1C8091260490912704C8179B
:104AA000D90711F40E94272210925D0110925C0137
:104AB0000DC08E3FC9F78FEF9FEF9093270480932F
:104AC000260410925B0181E090E0D0CFDF91CF917E
:104AD0001F910F9108951F93CF93DF936FE18CED9A
:104AE0000E948B1E89E00E94681E1AE0C091E505B5
:104AF000D091E605CE010E946B038093E405CE01C0
:104B00000E94761E8091E4050E94681E8091E50552
:104B10009091E60501969093E6058093E505115086
:104B200029F7DF91CF911F910C94851E63E08CEDE6
:104B30000E948B1E89E00E94681E8091E50590917D
:104B4000E6050E94761E0C94851E0F931F93CF934B
:104B5000DF93809146069091470601969093470611
:104B6000809346061092740183E080934006809102
:104B700076018C3D09F007C10E94B01C893059F5BF
:104B800082E0809342060E94B01CC82FD0E0D093F0
:104B9000E605C093E5050E94B01CC80FD11DD09357
:104BA000E605C093E5050E94B01C8093E40581E012
:104BB0008093E3050E946F2B6854744F8F4F9F4F73
:104BC0006093DF057093E0058093E1059093E20523
:104BD0000E946B25D8C0883009F055C082E08093D0
:104BE00042061AE001E00E94B01CC82FD0E0D0932A
:104BF000E605C093E5050E94B01C282F30E0322F57
:104C000022272C0F3D1F3093E6052093E5050E94D7
:104C1000B01C8093E4050093E3050E946F2B685459
:104C2000744F8F4F9F4F6093DF057093E005809323
:104C3000E1059093E2056091E4058091E50590918E
:104C4000E6050E9469036DE080E090E00E94690340
:104C50008091E5059091E6058935910519F08F342D
:104C6000914011F40E941E05115009F0BCCF8091B3
:104C7000E5059091E60501969093E6058093E5059C
:104C80000E94962580C0873009F040C010924306EC
:104C90006BE08CED0E948B1E87E00E94681EC1EACB
:104CA000D4E08881998113E0969587951A95E1F76C
:104CB0000E94761E649685E0C530D80791F70E9461
:104CC000851E6DE08CED0E948B1E8AE00E94681E9E
:104CD0008EE090E00E94761E81E090E00E94761EB9
:104CE0008EEA96E00E94761E82E090E00E94761E98
:104CF00080E090E00E94761E81E090E00E94761EA7
:104D0000DF91CF911F910F910C94851E833079F51F
:104D100080917701853099F40E94BB1C80329D41BF
:104D200091F50E94B01C8093E9050E94B01C80930D
:104D3000E805DF91CF911F910F910C949703883371
:104D400011F5CAEED5E00E94B01C899386E0C0320E
:104D5000D807C9F70E94B01CC82F0E943509CF3F61
:104D600091F4DF91CF911F910F910C94DB08863065
:104D700029F40E9492080E94580502C0853019F457
:104D800081E080932E06DF91CF911F910F910895BE
:104D9000CF92DF92FF920F931F93CF93DF931F92D7
:104DA000CDB7DEB7F82E87E596E00E94B92C21E05A
:104DB000892B09F420E095E0C92ED12C04E010E005
:104DC000213009F07CC087E596E00E94D22C982F14
:104DD00020914806309149062F5F3F4F3093490696
:104DE0002093480699830E94AD2420915F01309161
:104DF000600199812115310529F421E030E09432D8
:104E000089F412C02130310529F49D3459F422E08F
:104E100030E00AC02230310561F49E3319F423E0FA
:104E200030E002C020E030E03093600120935F0169
:104E30003EC02330310559F4973960F590937701DE
:104E40001093600100935F019093750130C024308E
:104E5000310571F4D0926001C0925F0190937601A8
:104E600080917501892780937501109278011FC088
:104E700025303105E1F48091750189278093750112
:104E8000E091780120917701E21309C0811102C0FD
:104E90000E94A5251092600110925F0108C081E078
:104EA0008E0F80937801F0E0E758FE4F908387E5FE
:104EB00096E00E94B92C892B11F0F11084CF0F904D
:104EC000DF91CF911F910F91FF90DF90CF900895C8
:104ED000CF92DF92EF92FF920E946F2B6B017C01C9
:104EE00088E2C80ED11CE11CF11C81E080930F0206
:104EF00080910F02882371F00E946F2BC616D7068F
:104F0000E806F90618F410920F02F2CF80E00E9432
:104F1000C826EECFFF90EF90DF90CF900895FF92DC
:104F20000F931F93CF93DF935E9860E085E00E941C
:104F3000CC0860E086E00E94CC0861E084E00E943A
:104F4000CC080E94682707E312E0C0E0D0E020E22E
:104F5000F22E8091110290911202C817D90778F4AD
:104F6000C03FD10511F40E946827F801608187E0F5
:104F70000E94CC08F801F1928F012196EACF6FEFE1
:104F800087E00E94CC0860E084E00E94CC085E9A32
:104F9000DF91CF911F910F91FF900895CF92DF92F3
:104FA000EF92FF920F931F9310922E04809144066C
:104FB0009091450601969093450680934406809112
:104FC0002E0681110E94AA03E0919C05E09338010E
:104FD0001092230680919B058823A1F0F0E0EE0F4C
:104FE000FF1FEE5EFE4F80819181813426E09207A3
:104FF00010F081E004C089379540E0F082E08093B2
:10500000230618C08091C9059091CA05A091CB05CF
:10501000B091CC0540918B0450918C0460918D042B
:1050200070918E0484239523A623B723892B8A2B82
:105030008B2BF9F6909123068091220698130E94FB
:10504000D604809123068093220680913006863014
:1050500010F061E001C060E087E00E94832C0E94B4
:105060006F2B6B017C018091170290911802A09127
:105070001902B0911A02B701A601481B590B6A0B1D
:105080007B0B443651056105710508F449C08C5904
:105090009F4FAF4FBF4F8093170290931802A0937A
:1050A0001902B0931A02809130068F5F8093300608
:1050B000809131068F5F8093310681E090913306B5
:1050C000911180E0809333060E945704809170050F
:1050D0008823D1F02091520430915304409154041C
:1050E0005091550460914E0470914F04809150048A
:1050F000909151040E94242F60934E0470934F04AA
:10510000809350049093510480912006811108C02F
:1051100080914206811104C060E08CE60E948B1EE3
:105120008091130290911402A0911502B091160281
:10513000C81AD90AEA0AFB0A22E3C216D104E1041A
:10514000F10408F4B8C1C296A11DB11D80931302E9
:1051500090931402A0931502B093160280911B0243
:1051600090911C02A0911D02B0911E02892B8A2BE6
:105170008B2B81F480911F0290912002A09121023B
:10518000B091220280931B0290931C02A0931D02F7
:10519000B0931E0200911B0210911C0220911D026F
:1051A00030911E0288279927DC01801B910BA20BEE
:1051B000B30B80239123A223B323AC01BD014095FF
:1051C000509560957095402351236223732340933B
:1051D0001B0250931C0260931D0270931E028115E6
:1051E00021E09207A105B10509F458C028F58830DF
:1051F0009105A105B10509F44BC068F48130910512
:10520000A105B10509F442C00297A105B10509F055
:1052100051C085E650C080329105A105B105E1F18C
:1052200080389105A105B105A9F14097A105B10507
:1052300009F040C08DE63FC0811520E19207A1052D
:10524000B105A1F198F4811524E09207A105B105FB
:1052500049F1811528E09207A105B10529F18115D1
:105260009240A105B10531F58FE625C0009724E0F5
:10527000A207B105A9F0009720E8A207B105C1F087
:105280000097A140B105B1F482E715C084E613C0D0
:1052900089E611C08AE60FC08BE60DC08EE60BC012
:1052A0008BE309C080E707C087E705C08CED03C02A
:1052B00088E301C080E090912006911109C090918F
:1052C0004206911103C060E00E948B1E0E948F274E
:1052D0000E94C4058091290690912A06059760F4E2
:1052E0000E94EF1180915A0490915B04CC979093A7
:1052F000350680933406DFC080918704882349F007
:1053000081E08093860480912106813011F40E940F
:10531000C91C80918604882381F0809187048111C3
:105320000CC0109235018AE08093370181E08093B0
:105330003601809321060E94B603809121068823BE
:1053400019F00E946919B7C00E94B60380918F04BA
:1053500080FF0AC06091F7047091F8048091F50411
:105360009091F6040E944A0C8091690581110E9477
:10537000020F8091730581110E94930F8091660541
:10538000882379F08091650590E020914A0430915E
:105390004B04821793071CF08091320681110E9402
:1053A000681180916E05882321F120E030E040E211
:1053B00051E460915204709153048091540490918F
:1053C00055040E94F12F6B017C016091770570E01C
:1053D00080E090E00E948C309B01AC01C701B601D7
:1053E0000E94EA2F87FD03C08091320681110E943E
:1053F000B21080917005882349F00E9474038823BD
:1054000009F420C18091320681111CC10E945E10F6
:105410000E94FE100E945D168091810581110E94FC
:10542000C70F80915A0490915B042091340630910B
:105430003506A901445C5F4F48175907A0F4205C6A
:105440003F4F2817390720F4909335068093340690
:1054500080918A05882339F08091500590915105FB
:1054600091700E94390C80918F0482FF04C00E94C9
:10547000CA110E94941180918F0481FF04C00E9480
:1054800076180E94B41280918F0483FF12C080911D
:105490007805882371F00E9419120E9441130E941E
:1054A000E6180E941B130E9441120E94EF170E94EF
:1054B00024140E94F70A80913106853048F010923A
:1054C000310681E090913206911180E0809332069E
:1054D0000E946F2B00913C0610913D0620913E06E4
:1054E00030913F0608511C4F2F4F3F4F06171707AB
:1054F0002807390708F09DC000933C0610933D062D
:1055000020933E0630933F06109230068091440669
:10551000909145069093DE058093DD051092450637
:105520001092440680914606909147069093DC05C0
:105530008093DB051092470610924606809148063C
:10554000909149069093DA058093D9051092490607
:105550001092480680915A0490915B0401969093B2
:105560005B0480935A0480912006811102C00E943E
:10557000730980914106811103C010926A0403C02F
:1055800081508093410680914006882319F0815014
:105590008093400680914206882319F081508093C1
:1055A000420680918704811109C080915604909130
:1055B0005704909385048093840416C08091580406
:1055C00090915904019690935904809358048091C6
:1055D0003204909133040196909333048093320403
:1055E000109221060E94B6038091290690912A0606
:1055F000019690932A068093290680913706813080
:1056000051F480912106882331F060E08EEC0E94F5
:105610008B1E1092370680913706882319F081502F
:105620008093370680913606882319F08150809345
:10563000360681E01F910F91FF90EF90DF90CF90A1
:105640000C94C8260E943E11E1CE1F920F920FB615
:105650000F9211242F933F938F939F93AF93BF93F8
:1056600080914F0690915006A0915106B09152063C
:1056700030914E0623E0230F2D3720F40196A11D13
:10568000B11D05C026E8230F0296A11DB11D209370
:105690004E0680934F0690935006A0935106B09308
:1056A00052068091530690915406A0915506B091F0
:1056B00056060196A11DB11D809353069093540682
:1056C000A0935506B0935606BF91AF919F918F91CD
:1056D0003F912F910F900FBE0F901F9018952FB7ED
:1056E000F89460914F067091500680915106909108
:1056F00052062FBF08953FB7F894809153069091BA
:105700005406A0915506B091560626B5A89B05C033
:105710002F3F19F00196A11DB11D3FBF6627782FBD
:10572000892F9A2F620F711D811D911D42E0660F16
:10573000771F881F991F4A95D1F70895CF92DF925E
:10574000EF92FF92CF93DF936B017C010E947B2B42
:10575000EB01C114D104E104F10489F00E94222F6D
:105760000E947B2B6C1B7D0B683E734090F381E0A5
:10577000C81AD108E108F108C851DC4FEACFDF911F
:10578000CF91FF90EF90DF90CF900895789484B5FB
:10579000826084BD84B5816084BD85B5826085BD2D
:1057A00085B5816085BDEEE6F0E080818160808313
:1057B000E1E8F0E0108280818260808380818160F6
:1057C0008083E0E8F0E0808181608083E1EBF0E0BD
:1057D000808184608083E0EBF0E080818160808361
:1057E000EAE7F0E08081846080838081826080834A
:1057F0008081816080838081806880831092C10075
:10580000089580933A0108958E3008F08E50877085
:1058100020913A0190E4299F90011124822B8093DA
:105820007C0080917A00806480937A0080917A0075
:1058300086FDFCCF809178002091790090E0922B3A
:105840000895833081F028F4813099F08230A1F0FE
:1058500008958730A9F08830B9F08430D1F4809170
:1058600080008F7D03C0809180008F7780938000BF
:10587000089584B58F7702C084B58F7D84BD089567
:105880008091B0008F7703C08091B0008F7D8093AE
:10589000B0000895CF93DF9390E0FC01E55DF94FF0
:1058A0002491FC01E15CF94F8491882349F190E057
:1058B000880F991FFC01E35AF94FA591B4918D5AB5
:1058C000994FFC01C591D4919FB7611108C0F8941C
:1058D0008C91209582238C93888182230AC0623028
:1058E00051F4F8948C91322F309583238C938881D6
:1058F000822B888304C0F8948C91822B8C939FBF59
:10590000DF91CF9108950F931F93CF93DF931F9251
:10591000CDB7DEB7282F30E0F901E95EF94F849169
:10592000F901E55DF94F1491F901E15CF94F04913A
:105930000023C9F0882321F069830E94212C69810A
:10594000E02FF0E0EE0FFF1FED5AF94FA591B49153
:105950009FB7F8948C91611103C01095812301C009
:10596000812B8C939FBF0F90DF91CF911F910F914F
:105970000895FC01818D228D90E0805C9F4F821BF9
:1059800091098F7399270895FC01918D828D981745
:1059900031F0828DE80FF11D858D90E008958FEF35
:1059A0009FEF0895FC01918D828D981761F0828D93
:1059B000DF01A80FB11D5D968C91928D9F5F9F7343
:1059C000928F90E008958FEF9FEF089586E59EE215
:1059D000892B49F080E090E0892B29F00E94562E17
:1059E00081110C9400000895FC01848DDF01A80F43
:1059F000B11DA35ABF4F2C91848D90E001968F73F7
:105A00009927848FA689B7892C93A089B1898C9115
:105A100080648C93938D848D981306C00288F389DB
:105A2000E02D80818F7D80830895CF93DF93EC01FB
:105A3000888D8823C9F0EA89FB89808185FD05C0AE
:105A4000A889B9898C9186FD0FC00FB607FCF5CFE8
:105A5000808185FFF2CFA889B9898C9185FFEDCF30
:105A6000CE010E94F42CE7CFDF91CF910895CF9221
:105A7000DF92FF920F931F93CF93DF931F92CDB7C7
:105A8000DEB76C0181E0D60158968C9358975B96EF
:105A90009C915B975C968C915C97981307C050968D
:105AA000ED91FC915197808185FD2EC0F601038D0B
:105AB00010E00F5F1F4F0F731127F02EF601848D3A
:105AC000F81211C00FB607FCF9CFD6015096ED9130
:105AD000FC915197808185FFF1CFC60169830E94B7
