:020000023000CC
:10E000000D948BF10D94B4F10D94B4F10D94B4F121
:10E010000D94B4F10D94B4F10D94B4F10D94B4F1E8
:10E020000D94B4F10D94B4F10D94B4F10D94B4F1D8
:10E030000D94B4F10D94B4F10D94B4F10D94B4F1C8
:10E040000D94B4F10D94B4F10D94B4F10D94B4F1B8
:10E050000D94B4F10D94B4F10D94B4F10D94B4F1A8
:10E060000D94B4F10D94B4F10D94B4F10D94B4F198
:10E070000D94B4F10D94B4F10D94B4F10D94B4F188
:10E080000D94B4F10D94B4F10D94B4F10D94B4F178
:10E090000D94B4F10D94B4F10D94B4F10D94B4F168
:10E0A0000D94B4F10D94B4F10D94B4F10D94B4F158
:10E0B0000D94B4F10D94B4F10D94B4F10D94B4F148
:10E0C0000D94B4F10D94B4F10D94B4F10D94B4F138
:10E0D0000D94B4F10D94B4F10D94B4F10D94B4F128
:10E0E0000D94B4F12A00593D506F727420626C692E
:10E0F0006E6B00563D73686F7720696E746572723F
:10E1000075707420566563746F727300523D447568
:10E110006D702052414D00513D51756974004C3D68
:10E120004C69737420492F4F20506F7274730048EC
:10E130003D48656C7000463D44756D7020464C410D
:10E14000534800453D44756D7020454550524F4D34
:10E1500000423D426C696E6B204C454400403D4599
:10E160004550524F4D2074657374003F3D435055E8
:10E1700020737461747300303D5A65726F2061645E
:10E18000647200504F5254004545206572722063FE
:10E190006E743D0052656164696E672045450057A5
:10E1A00072697474696E672045450020004D75736F
:10E1B000742062652061206C657474657200506F14
:10E1C0007274206E6F7420737570706F72746564F2
:10E1D000005768617420706F72743A006A6D702025
:10E1E00000726A6D702020006E6F20766563746F18
:10E1F00072005623202020414444522020206F707A
:10E2000020636F64652020202020696E737472750E
:10E210006374696F6E2061646472202020496E749B
:10E2200065727275707400342E382E3100312E38BC
:10E230002E3073766E0041707220313620323031CC
:10E2400034004C6F636B20667573652020203D2081
:10E25000004578742066757365202020203D2000DD
:10E260004869676820667573652020203D20004C52
:10E270006F772066757365202020203D2000435075
:10E28000552049442020202020203D2000474343A2
:10E290002056657273696F6E203D200041565220F2
:10E2A0004C696243205665723D20005F5F415652C3
:10E2B0005F415243485F5F3D2000435055205479F1
:10E2C0007065202020203D2000436F6D70696C65D3
:10E2D00064206F6E203D20004875683F00426F6FDC
:10E2E000746C6F616465723E0041726475696E6F33
:10E2F000206578706C6F7265722073746B35303086
:10E300005632206279204D4C530041546D6567614F
:10E3100032353630000011241FBECFEFD1E2DEBF10
:10E32000CDBF01E00CBF12E0A0E0B2E0ECE2F8EFFC
:10E3300003E00BBF02C007900D92A430B107D9F7DC
:10E3400022E0A4E0B2E001C01D92A231B207E1F7E1
:10E350000F9410F30D9414FC01E20EBF0FEF0DBFEC
:10E3600011241FBE0D9410F30D9400F08093C6008D
:10E370008091C00086FFFCCF8091C00080648093B4
:10E38000C000089520E030E02817390749F0EFEC8D
:10E39000F7E03197F1F700C000002F5F3F4FF4CF57
:10E3A0000895CF93DF93EC01C60FD11DAE0160E05D
:10E3B00070E06BBFFA018791882321F021960F94BA
:10E3C000B6F1F4CFDF91CF9108958DE00F94B6F1BF
:10E3D0008AE00D94B6F10F94D1F10D94E5F1CF934D
:10E3E000DF93EC018991882319F00F94B6F1FACFED
:10E3F000DF91CF910895CF93C82F82958F7090E3CE
:10E40000980F9A3310F097E3980F892F0F94B6F175
:10E41000CF7080E38C0F8A3310F087E38C0FCF919D
:10E420000D94B6F10F931F93CF93DF93EC018B0103
:10E43000853691051CF4633071054CF0CE0164E61D
:10E4400070E00F94B4FB80E3860F0F94B6F1CB30ED
:10E45000D1051CF4023011056CF0CE0164E670E0C9
:10E460000F94B4FB6AE070E00F94B4FB80E3860F76
:10E470000F94B6F1CE016AE070E00F94B4FB805DBA
:10E48000DF91CF911F910F910D94B6F18091C00053
:10E4900087FFFCCF8091C6000895CF93C82F60E01E
:10E4A00083E891EE0F94D1F18C2F0F94B6F1CF91B8
:10E4B0000D94E5F14F925F926F927F92AF92BF926F
:10E4C000CF92DF92EF92FF920F931F93CF93DF9340
:10E4D000CDB7DEB766970FB6F894DEBF0FBECDBFDF
:10E4E000C82E80E1D82EA12C7E0181E1E80EF11C1E
:10E4F0009EE2B92E41305105E1E06E07710558F0FA
:10E50000862F4B8B5C8B6D8B7E8B0F94FBF17E8902
:10E510006D895C894B89852F4B8B5C8B6D8B7E8BDA
:10E520000F94FBF14B89842F0F94FBF180E20F9441
:10E53000B6F18DE20F94B6F180E20F94B6F1198234
:10E540008E010F5F1F4F4B895C896D897E892A017F
:10E550003B01F1E0CF1661F0CF1630F082E0C81237
:10E5600013C0F201A08010C06BBEF201A7900CC0D6
:10E57000C2014B8B5C8B6D8B7E8B0F94FEFBA82EA8
:10E580004B895C896D897E898A2D4B8B5C8B6D8B69
:10E590007E8B0F94FBF180E20F94B6F180EE8A0D32
:10E5A0004B895C896D897E89F8018F3510F4A082D2
:10E5B00001C0B082FFEF4F1A5F0A6F0A7F0A0F5F38
:10E5C0001F4F0E151F0509F0C4CF405F5F4F6F4FFF
:10E5D0007F4F198ACE0101964B8B5C8B6D8B7E8BA6
:10E5E0000F94EFF10F94E5F1DA944B895C896D8912
:10E5F0007E89D1107FCF66960FB6F894DEBF0FBE2E
:10E60000CDBFDF91CF911F910F91FF90EF90DF90E1
:10E61000CF90BF90AF907F906F905F904F90089594
:10E62000CF93DF93CDB7DEB7C453D1400FB6F89484
:10E63000DEBF0FBECDBF01E20EBF0FEF0DBF94B71F
:10E64000F894A89514BE8091600088618093600062
:10E6500010926000789493FF05C0E0910402F0915D
:10E6600005021995279A2F9A8091C00082608093A5
:10E67000C00080E18093C40088E18093C100000065
:10E68000C12CD12C760167EC862E6BE1962EA12C45
:10E69000B12C00E010E08091C00087FF06C00F5F42
:10E6A0001F4F01151105A9F326C001151105B9F772
:10E6B00025E02A95F1F700003FEFC31AD30AE30AD9
:10E6C000F30A91E080E041E2C4164EE4D406E1048E
:10E6D000F10408F490E0092F182FC701B601A50135
:10E6E00094010F94C8FB672B682B692BA1F685B1A9
:10E6F000805885B9D0CF0130110511F00D9497FBEA
:10E70000C45DDE4F19821882CC52D140A12CB12CAD
:10E71000C25DDE4F1882CE52D140C65DDE4F1882F8
:10E72000CA52D140812C212C312CCA5DDE4F188277
:10E7300019821A821B82C652D140C12CD12C76017B
:10E7400020E030E060E001301105F1F080E090E081
:10E75000DC014091C00047FD17C00196A11DB11D0D
:10E76000813052E195075AE7A507B10590F3412C96
:10E77000512C32016BBEF20187919691019631F3D3
:10E78000EE27FF270994E2CF8091C600C45DDE4FDB
:10E79000A881B981CC52D1401196C45DDE4FB983B6
:10E7A000A883CC52D140813209F058C51A9708F09D
:10E7B00055C5BFEFAB1ABB0AE3E0AE16B10409F0D2
:10E7C0004FC505E010E059E1A52EB12C81E20F9470
:10E7D000B6F1F1E0AF1AB108A114B104B9F70F9482
:10E7E000E5F1015011090115110569F710920E02AA
:10E7F00010920F02109210021092110210920A024F
:10E8000010920B0210920C0210920D02109206024E
:10E8100010920702109208021092090260E089EE3D
:10E8200092EE0F94EBF11FEF09E060E08DED92EEB8
:10E830000F94D1F10F9446F2982F803608F09F750F
:10E84000903280F0892FCD5CDE4F9883C353D14046
:10E850000F94B6F180E20F94B6F1CD5CDE4F988153
:10E86000C353D140963409F4D2C108F097C0903414
:10E8700009F408C108F08BC0903309F4EDC09F3350
:10E8800009F0E6C462E08BE691EE0F94EBF160E0F4
:10E8900089EE92EE0F94EBF160E089EC92EE0F942A
:10E8A000D1F160E086E392EE0F94EBF160E08AEB49
:10E8B00092EE0F94D1F160E08AE093EE0F94EBF1C9
:10E8C00060E08BEA92EE0F94D1F186E30F94B6F1FB
:10E8D0000F94E5F160E08DE892EE0F94D1F160E0E5
:10E8E00087E292EE0F94EBF160E08CE992EE0F94E8
:10E8F000D1F160E08DE292EE0F94EBF160E08EE7F3
:10E9000092EE0F94D1F18EE10F94FBF188E90F9410
:10E91000FBF181E00F94FBF10F94E5F160E08FE6ED
:10E9200092EE0F94D1F1E0E0F0E000935700849173
:10E930000F94FBF10F94E5F160E080E692EE0F9406
:10E94000D1F1E3E0F0E00093570084910F94FBF1E4
:10E950000F94E5F160E081E592EE0F94D1F1E2E0F1
:10E96000F0E00093570084910F94FBF10F94E5F1D0
:10E9700060E082E492EE0F94D1F1E1E0F0E00093E8
:10E98000570084910F94FBF10F94E5F14ECF923430
:10E9900009F4F9C0953409F410C15AC4913509F449
:10E9A0009AC168F5983409F456C19C3409F050C4F2
:10E9B00062E08EE191EE0F94EBF181E40F944DF261
:10E9C00082E40F944DF283E40F944DF284E40F94AB
:10E9D0004DF285E40F944DF286E40F944DF287E4F6
:10E9E0000F944DF288E40F944DF28AE40F944DF2A7
:10E9F0008BE40F944DF28CE40F944DF216CF9635C4
:10EA000009F473C1993509F41FC3923509F020C484
:10EA100062E08CE091EE0F94EBF140910E02509188
:10EA20000F02609110027091110282E00F945AF26D
:10EA300080910E0290910F02A0911002B0911102EC
:10EA40009F5FAF4FBF4F80930E0290930F02A09332
:10EA50001002B0931102E9CE62E087E791EE0F94C5
:10EA6000EBF110920A0210920B0210920C0210921B
:10EA70000D0210920E0210920F02109210021092CC
:10EA8000110275C062E08DE591EE0F94EBF160E04C
:10EA90008FE991EE0F94EBF10F94E5F1A12CB12CDD
:10EAA000C50187519D41A0E0B0E0ABBFFC0197904C
:10EAB0004AE2442E941010C00F94E5F10F94E5F152
:10EAC00060E084E991EE0F94EBF10F94E5F1A12C55
:10EAD000B12C812C912C2EC0A11422E0B20661F33E
:10EAE000692DC5010F9406FC911006C060E08BEA09
:10EAF00091EE0F94D1F103C0892D0F94B6F1FFEF81
:10EB0000AF1ABF0ACDCF811482E09806F1F0C4019C
:10EB10000F94FEFB682E811133C060E08BEA91EE0A
:10EB20000F94D1F1671419F03FEFA31AB30A4FEF16
:10EB3000841A940AC40187519D41A0E0B0E0ABBFA4
:10EB4000FC0177905AE27512DECF0F94E5F10F9435
:10EB5000E5F160E088E891EE0F94D1F161E070E0BA
:10EB6000C5010F9412F20F94E5F10F94E5F11092A4
:10EB7000060210920702109208021092090255CE66
:10EB80000F94B6F1CFCF62E081E591EE0F94EBF1F7
:10EB9000279A2F9A8091C00087FD0CC02F9884E699
:10EBA00090E00F94C2F12F9A84E690E00F94C2F1A6
:10EBB000F1CF12B80F9446F238CE62E083E491EEC2
:10EBC0000F94EBF140910602509107026091080208
:10EBD0007091090281E00F945AF28091060290919F
:10EBE0000702A0910802B09109029F5FAF4FBF4F8B
:10EBF0008093060290930702A0930802B093090243
:10EC000081159041A105B10508F40FCEB0CF62E0A7
:10EC100086E391EE0F94EBF140910A0250910B02C2
:10EC200060910C0270910D0280E00F945AF2809175
:10EC30000A0290910B02A0910C02B0910D029F5F0D
:10EC4000AF4FBF4F80930A0290930B02A0930C0228
:10EC5000B0930D02EACD62E08FE291EE0F94EBF1FA
:10EC600060E087E791EE0F94EBF160E08BE691EEC8
:10EC70000F94EBF160E08DE591EE0F94EBF160E025
:10EC800081E591EE0F94EBF160E083E491EE0F9457
:10EC9000EBF160E086E391EE0F94EBF160E08FE240
:10ECA00091EE0F94EBF160E08EE191EE0F94EBF1B9
:10ECB00060E087E191EE0F94EBF160E08CE091EE83
:10ECC0000F94EBF160E083EF90EE0F94EBF160E0D6
:10ECD00086EE90EEC0C262E087E191EE0F94EBF118
:10ECE000A12CB12C992493940FC362E083EF90EE92
:10ECF0000F94EBF160E08AE093EE0F94EBF160E0AB
:10ED000082EF91EE0F94EBF1CE5DDE4F1982188207
:10ED1000C252D140812C912C5401240135017694AA
:10ED2000679457944794C15DDE4F488259826A8246
:10ED30007B82CF52D140CE5DDE4F28813981C252D5
:10ED4000D1402F5F3F4FCE5DDE4F39832883C252C3
:10ED5000D14062E070E0C9010F9412F280E20F949A
:10ED6000B6F18DE20F94B6F180E20F94B6F180E037
:10ED70000F94FBF1C15DDE4F8881CF52D1400F94DB
:10ED8000FBF180E20F94B6F18DE30F94B6F180E2CF
:10ED90000F94B6F1ABBEF4012791B501A4014F5F0A
:10EDA0005F4F6F4F7F4F6BBFFA016791D501C40171
:10EDB0000296A11DB11DABBFFC013791C25EDE4FB3
:10EDC0003883CE51D140D501C4010396A11DB11D98
:10EDD000ABBFFC014791C55DDE4F4883CB52D140AC
:10EDE00054E0850E911CA11CB11C862F90E0A0E080
:10EDF000B0E04424582E692E7A2E420E511C611C1C
:10EE0000711C862FCD5CDE4F2883C353D140CC5C70
:10EE1000DE4F6883C453D1400F94FBF180E20F941E
:10EE2000B6F1CD5CDE4F2881C353D140822F0F94C1
:10EE3000FBF180E20F94B6F1C55DDE4F8881CB52C5
:10EE4000D1400F94FBF180E20F94B6F1C25EDE4F29
:10EE50008881CE51D1400F94FBF180E20F94B6F13E
:10EE6000CD5CDE4F2881C353D140CC5CDE4F68813E
:10EE7000C453D1408FEF481658066104710431F431
:10EE800060E088EE91EE0F94D1F1D1C0D301C201C0
:10EE90008827907CAA27BB278115904CA105B10536
:10EEA00009F040C0A30192013F7344275527C25E79
:10EEB000DE4F288339834A835B83CE51D1402901B9
:10EEC0003A01C15DDE4F288139814A815B81CF5291
:10EED000D140420E531E641E751E440C551C661C08
:10EEE000771C60E081EE91EE0F94D1F1C15EDE4FB0
:10EEF0008881CF51D1400F94FBF1C25EDE4F8881F3
:10EF0000CE51D1400F94FBF180E20F94B6F18EE325
:10EF10000F94B6F180E00F94FBF1852D0F94FBF177
:10EF2000842D83C0D301C2018E709E7FAA27BB2788
:10EF30008C309449A105B10509F079C0C55DDE4F5B
:10EF40004881CB52D140842F90E0A0E0B0E044242F
:10EF5000582E692E7A2EC25EDE4F5881CE51D14096
:10EF6000450E511C611C711C822F817090E0A0E045
:10EF7000B0E0DC0199278827480E591E6A1E7B1EC7
:10EF8000822F807F90E0A0E0B0E0E1E1880F991F40
:10EF9000AA1FBB1FEA95D1F7480E591E6A1E7B1E99
:10EFA0006170862F90E0A0E0B0E0F5E1880F991F36
:10EFB000AA1FBB1FFA95D1F7480E591E6A1E7B1E69
:10EFC000A3019201220F331F441F551FC25EDE4F63
:10EFD000288339834A835B83CE51D14060E08CED36
:10EFE00091EE0F94D1F1862D0F94FBF1852D0F94A6
:10EFF000FBF1842D0F94FBF180E20F94B6F18EE3C8
:10F000000F94B6F1C05EDE4F8881C052D1400F949C
:10F01000FBF1C15EDE4F8881CF51D1400F94FBF1EF
:10F02000C25EDE4F8881CE51D1400F94FBF10F9428
:10F03000E5F1CE5DDE4F48815981C252D14049335E
:10F04000510509F06ACEF1CB62E086EE90EE0F94A6
:10F05000EBF160E081ED91EE0F94D1F10F9446F267
:10F06000982F9F75892FCD5CDE4F9883C353D14075
:10F070000F94B6F10F94E5F1CD5CDE4F9881C35348
:10F08000D1408FEB890F8A3108F0DEC0963409F445
:10F0900071C098F4933409F441C038F4913419F1F3
:10F0A000923409F0CDC014B92BC0943409F445C092
:10F0B000953409F0C5C01DB94FC09A3409F489C010
:10F0C00048F4973409F465C0983409F0B9C0109336
:10F0D00001016EC09B3409F48FC09C3409F0B0C0AC
:10F0E00010930A019CC011B98091C00087FD61CDC9
:10F0F00082B1809582B988EC90E00F94C2F1F4CF90
:10F100008091C00087FD08C085B1809585B988ECE5
:10F1100090E00F94C2F1F4CF15B84CCD17B980919F
:10F12000C00087FD08C088B1809588B988EC90E060
:10F130000F94C2F1F4CF18B83DCD1AB98091C00038
:10F1400087FD08C08BB180958BB988EC90E00F9457
:10F15000C2F1F4CF1BB82ECD8091C00087FD08C04E
:10F160008EB180958EB988EC90E00F94C2F1F4CF07
:10F170001EB820CD10BB8091C00087FD08C081B3B0
:10F18000809581BB88EC90E00F94C2F1F4CF11BA66
:10F1900011CD13BB8091C00087FD08C084B380955A
:10F1A00084BB88EC90E00F94C2F1F4CF14BA02CD86
:10F1B0008091C00087FD0AC08091020180958093F4
:10F1C000020188EC90E00F94C2F1F2CF109202019C
:10F1D000F1CC109304018091C00087FD0AC080919A
:10F1E000050180958093050188EC90E00F94C2F1B1
:10F1F000F2CF10920501DECC109307018091C00080
:10F2000087FD0AC08091080180958093080188ECF1
:10F2100090E00F94C2F1F2CF10920801CBCC809114
:10F22000C00087FD0AC080910B01809580930B017F
:10F2300088EC90E00F94C2F1F2CF10920B01BACC9F
:10F2400060E08EEB91EE07C060E08DEA91EE03C0C6
:10F2500060E088ED92EE0F94EBF1E7CAA12CB12C9F
:10F26000633079F120F46130E9F040F023C065307B
:10F27000A1F158F1663009F441C043C08B3109F463
:10F280006AC2C25DDE4F5881CE52D1405F5FC25D1F
:10F29000DE4F5883CE52D1405B3008F048C200E0C8
:10F2A00010E051CA8826C65DDE4F8883CA52D1401D
:10F2B00062E0F5CF282F30E0322F2227882663E046
:10F2C000EECF282B882664E0EACF8E3009F047C2C3
:10F2D0008826212C312C65E0E2CFA1014F5F5F4FE2
:10F2E000E1E0F0E0EC0FFD1FE20DF31D80838826C6
:10F2F0004217530709F435C21A01D1CF88112FC222
:10F3000002C0673061F6912C2981233109F4DEC0F7
:10F3100060F5263009F4C7C0F8F4223009F4D4C0EF
:10F32000233009F464C0213009F0B8C11A8288E0A2
:10F330008B8381E48C8386E58D8382E58E8389E4EB
:10F340008F8383E5888780E589878FE58A8782E3D5
:10F350008B870BE010E0A6C1213109F455C008F0FD
:10F3600095C0203109F4B0C099C1283109F466C0B4
:10F3700048F4253109F4AAC008F444C1263109F43F
:10F3800041C18CC12A3109F44DC008F46EC02B3143
:10F3900009F43DC02D3109F081C19D81903339F4CC
:10F3A0008F818823B1F08130B1F488E917C0892FAB
:10F3B000807599F0903521F489E0E0E0F0E005C037
:10F3C000983559F489E0E3E0F0E0809357008491A8
:10F3D00005C08EE103C081E001C080E01A821B827B
:10F3E0009C831D828E831F8207E010E05BC1EA814F
:10F3F000E059E33028F4F0E0E050FE4F808101C096
:10F4000080E01A828B833FC0992493945DC08D81E4
:10F41000882321F0813021F488E924C08EE122C0C4
:10F4200081E020C01A82E1E0F0E089E0809357009B
:10F43000E491EB831C8204E010E034C18B818035C1
:10F4400059F48C81883021F4E2E0F0E089E007C0D3
:10F4500089E0E0E0F0E003C089E0E3E0F0E08093E1
:10F46000570084911A828B83E5CF8D81836C99E05C
:10F47000E1E0F0E0082E90935700E89507B600FC15
:10F48000FDCF1A821B8203E010E00CC180EC8A835E
:10F4900002E010E0CA5DDE4F188219821A821B82D8
:10F4A000C652D140FFC08A81CB80D12CE12CF12CF7
:10F4B0007601DD24CC24F82A8D81C82A8C81D82AB3
:10F4C000CC0CDD1CEE1CFF1C1A82EAC00A8110E085
:10F4D000102F00278B81082B233109F05DC0CA5DF6
:10F4E000DE4F488059806A807B80C652D1404114EB
:10F4F00020EC520623E062067104E8F483E0F20196
:10F5000060925B0080935700E89507B600FCFDCF42
:10F51000CA5DDE4F288139814A815B81C652D14064
:10F520003F5F4F4F5F4FCA5DDE4F288339834A8369
:10F530005B83C652D1402B8526013701CE010B9645
:10F5400041E0DC011296CD01FD013197508130E0A0
:10F55000352B0901F20160925B0040935700E8955A
:10F56000112432E0430E511C611C711C0250110920
:10F570000115110511F02C91E4CF85E0F601E09220
:10F580005B0080935700E89507B600FCFDCF81E152
:10F5900080935700E89532C026013701769467942E
:10F5A00057944794CE5DDE4F488259826A827B82AF
:10F5B000C252D1403E012BE0620E711C412C512CF5
:10F5C0004016510689F0D3016D913D01CE5DDE4FAD
:10F5D00088819981C252D140840D951D0F9406FCFB
:10F5E000BFEF4B1A5B0AECCF612C712C440C551CFD
:10F5F000661C771C4C0C5D1C6E1C7F1C1A827301F0
:10F6000062014EC08A8190E0982F88273B81832B2E
:10F610008C010D5F1F4F1A822431A1F4DE01139675
:10F62000EBBEF601279136912C931296FD0131978E
:10F630003083E2E0CE0ED11CE11CF11C0297009752
:10F6400079F72AC0FE0133969C01B701A60141BD9E
:10F65000452E562E672E772442BC4F5F5F4F6F4F6B
:10F660007F4FF89AA0B5A19321503109211531059A
:10F6700071F7AC014150510960E070E04F5F5F4F9E
:10F680006F4F7F4FC40ED51EE61EF71EA3E0B0E0FD
:10F69000AC0FBD1FA80FB91F1C9204C080EC8A8359
:10F6A00002E010E08BE10F94B6F1C65DDE4F888179
:10F6B000CA52D1400F94B6F1812F0F94B6F1802F2A
:10F6C0000F94B6F18EE00F94B6F155E1852EC65D2C
:10F6D000DE4F4880CA52D1408424802681269E0174
:10F6E0002F5F3F4F3901020F131F6016710641F063
:10F6F000D3015D903D01852D0F94B6F18524F5CFA2
:10F70000882D0F94B6F1C65DDE4F2881CA52D140D4
:10F710002F5FC65DDE4F2883CA52D14085B1805825
:10F7200085B9911004C000E010E00D94A0F3279873
:10F730002F9884E690E00F94C2F100008091C00001
:10F740008D7F8093C00081E180935700E895EE277C
:10F75000FF270994FFCF4BE1842E61E0A0CD60E04C
:10F760009ECD190166E09BCD97FB072E16F4009401
:10F7700007D077FD09D00F94EAFB07FC05D03EF4D3
:10F78000909581959F4F0895709561957F4F08954D
:10F79000A1E21A2EAA1BBB1BFD010DC0AA1FBB1F95
:10F7A000EE1FFF1FA217B307E407F50720F0A21B07
:10F7B000B30BE40BF50B661F771F881F991F1A9474
:10F7C00069F760957095809590959B01AC01BD019E
:10F7D000CF010895AA1BBB1B51E107C0AA1FBB1F85
:10F7E000A617B70710F0A61BB70B881F991F5A95CD
:10F7F000A9F780959095BC01CD010895F999FECFA8
:10F8000092BD81BDF89A992780B50895262FF99960
:10F81000FECF1FBA92BD81BD20BD0FB6F894FA9AF3
:0CF82000F99A0FBE01960895F894FFCFEE
:04F82C000F020A00BD
:040000033000E000E9
:00000001FF
