:100000000C941D030C94CD060C9445030C944503ED
:100010000C9474070C9424070C9445030C9445032A
:100020000C9445030C9445030C9445030C94450330
:100030000C9445030C9445030C9445030C94450320
:100040000C9471050C9445030C94BD040C94970416
:100050000C9445030C9445030C9445030C94450300
:100060000C9445030C944503BE0BB80BC70BD20B85
:10007000E60BFD0B2B0C530C5E0C084AD73B3BCE1A
:10008000016E84BCBFFDC12F3D6C74319ABD568397
:100090003DDA3D00C77F11BED9E4BB4C3E916BAA4F
:1000A000AABE000000803F05A84CCDB2D44EB9389E
:1000B00036A9020C50B9918688083CA6AAAA2ABE85
:1000C000000000803F004E4F5420444554454354A7
:1000D00045442D50414C004E4F5420444554454317
:1000E0005445442D4E545343004155544F2D5041D7
:1000F0004C004155544F2D4E5453430053493A0040
:1001000049443A00004D572D4F5344202D20523181
:100110002E37005445585420414C41524D53004114
:100120004D5053004D414820583130300054494D16
:10013000455200535045454400414C5449545544A0
:1001400045205831300044495354414E43452058CE
:10015000313030005448524F54544C452050574D84
:10016000004F5344205458204348004D41472043FA
:10017000414C0044454255470056205245460055E3
:100180004E495453004D4150204D4F44450047497E
:100190004D42414C0053454E534F5253004750532C
:1001A00020434F4F524453005448524F54544C45EF
:1001B000005343524F4C4C494E472042415253004A
:1001C00053494445204241525300484F52495A4FE7
:1001D0004E0041444A555354205A45524F00414421
:1001E0004A55535420414D505300555345205649CC
:1001F000525455414C2053454E534F52004449539D
:10020000504C4159204D414800444953504C4159AC
:1002100020414D5053005345542052535349204DD3
:10022000494E005345542052535349204D415800E4
:100230005553452050574D00534554205253534970
:1002400000444953504C415920525353490055538F
:10025000452046430043454C4C5300444953504CC1
:1002600041592056494420564F4C5453004D414962
:100270004E20564F4C545320414C41524D00414466
:100280004A55535420564F4C545300444953504CF4
:100290004159204D41494E20564F4C5453004D4139
:1002A0005820414D5053004D41482055534544007E
:1002B0004D4158205350454544004D415820414C34
:1002C000544954554445004D4158204449535441E4
:1002D0004E434500544F542044495354414E4345E6
:1002E00000464C592054494D4500414C41524D5314
:1002F00000414456414E43454400444953504C410B
:10030000590043555252454E5400525353490056DA
:100310004F4C544147450053544154495354494369
:1003200053004445425547004C4F5720564F4C54BC
:1003300053004C4F57205341545300204E4F2047F9
:100340005053004E4F2044415441002041524D45EE
:10035000440044495341524D45440000F200E90035
:10036000D700C600050104010401040104010401D1
:100370000001FC004601390133012D0124011F0158
:100380001301312E315600355600494D50004D4570
:1003900054007F01790173016B0161015401CA01AD
:1003A000C001B101A8019D0195018E0185010902DD
:1003B000FD01EA01DE01D201410238024E023002A3
:1003C000230216028B027E026D025B027E02550240
:1003D0004E02E102D402C702BA02B002A7029E0294
:1003E0003C504147453E00534156452B45584954E2
:1003F00000455849540017030F030A030203FA0289
:10040000F102EA025B0352034B0343033B03320353
:10041000280322031D1A1D1C1D191D1C1D1B1D1C3C
:100420001D181D1C1D1A1D1C1D191D1C1D1B1DB575
:100430006206010300F00500FF19B5620601030022
:10044000F00300FD15B56206010300F00100FB1189
:10045000B56206010300F00000FA0FB56206010361
:1004600000F00200FC13B56206010300F00400FE78
:1004700017B562060103000102010E47B5620601CD
:1004800003000103010F49B56206010300010601E3
:10049000124FB562060103000112011E67B5620624
:1004A00016080003070300510800008A41B56206E0
:1004B000080600C80001000100DE6A2450554258B9
:1004C0002C34312C312C303030332C303030312C36
:1004D0003131353230302C302A31450D0A004F4E43
:1004E000004F46460020007BC12A002100900054A6
:1004F000002400720027003500CB0060017EC17E21
:10050000C137C110011D0102000F004C01F2006B48
:10051000C12FC175017F01C200BB00BB00030007F2
:10052000007A00550106015C003400C500640057E4
:1005300001BA001801DCC020C034C036C0B7C0907A
:10054000C054C024C072C028C0CBC0CAC060C17E25
:10055000C17EC137C110011D0102C00FC04DC1F3E2
:10056000C06BC12FC171C178C1C2C0BBC0BBC003C9
:100570000007007AC055C106C15CC03400C30064E6
:10058000C05301BA0018C1DCC00000000096000092
:10059000000004F40158020D00003C000000018A34
:1005A00004C800000000000100C80032640101011D
:1005B0000000000100000001010000010000010036
:1005C0000000000001010101010001010004000020
:1005D00000050001000000001E4D574F534400204D
:1005E000202020E104DE0400000000240027002A6F
:1005F0000000000000250028002B0004040404046F
:1006000004040402020202020203030303030301BF
:100610000204081020408001020408102001020496
:100620000810200000000800020100000304070079
:100630000000000000000000A72411241FBECFEF1F
:10064000D8E0DEBFCDBF11E0A0E0B1E0E0E0F3E52F
:1006500002C005900D92A636B107D9F727E0A6E6AD
:10066000B1E001C01D92A239B207E1F713E0CDE17C
:10067000D3E004C02197FE010E946729CC31D10745
:10068000C9F70E94EA120C947E290C940000CF92C4
:10069000DF92EF92FF920F931F93CF93DF936C0142
:1006A0007A018B01C0E0D0E0CE15DF0589F0D801DA
:1006B0006D918D01D601ED91FC910190F081E02DBD
:1006C000C6010995892B11F47E0102C02196ECCF59
:1006D000C701DF91CF911F910F91FF90EF90DF90B5
:1006E000CF900895FC01918D828D981761F0828DD5
:1006F000DF01A80FB11D5D968C91928D9F5F9F7356
:10070000928F90E008958FEF9FEF0895FC01918DF7
:10071000828D981731F0828DE80FF11D858D90E064
:1007200008958FEF9FEF0895FC01918D228D892F01
:1007300090E0805C9F4F821B91098F7399270895E9
:1007400085EF96E00E94940321E0892B09F420E0D4
:10075000822F0895FC01848DDF01A80FB11DA35ADB
:10076000BF4F2C91848D90E001968F739927848FD1
:10077000A689B7892C93A089B1898C9180648C93C8
:10078000938D848D981306C00288F389E02D8081B3
:100790008F7D80830895EF92FF920F931F93CF93E5
:1007A000DF93EC0181E0888F9B8D8C8D981305C0C1
:1007B000E889F989808185FD24C0F62E0B8D10E033
:1007C0000F5F1F4F0F731127E02E8C8DE8120CC0A6
:1007D0000FB607FCFACFE889F989808185FFF5CF4C
:1007E000CE010E94AA03F1CF8B8DFE01E80FF11D0F
:1007F000E35AFF4FF0820B8FEA89FB898081806288
:1008000007C0EE89FF896083E889F9898081806467
:10081000808381E090E0DF91CF911F910F91FF9055
:10082000EF900895CF93DF93EC01888D8823C9F072
:10083000EA89FB89808185FD05C0A889B9898C91E9
:1008400086FD0FC00FB607FCF5CF808185FFF2CF84
:10085000A889B9898C9185FFEDCFCE010E94AA03AA
:10086000E7CFDF91CF91089580E090E0892B29F0C8
:100870000E94A00381110C94000008953FB7F894E2
:100880008091DD069091DE06A091DF06B091E00632
:1008900026B5A89B05C02F3F19F00196A11DB11DDB
:1008A0003FBFBA2FA92F982F8827820F911DA11D16
:1008B000B11DBC01CD0142E0660F771F881F991F53
:1008C0004A95D1F708956091D00485EF96E00C9495
:1008D000CB03CF93C82F682F85EF96E00E94CB0300
:1008E0008091D004C827C093D004CF910895CF93AE
:1008F000DF931F92CDB7DEB799830E946904998177
:10090000892F0F90DF91CF910C946904E091D70566
:1009100081E08E0F8093D705F0E0E852FA4F808196
:1009200008950E9479290C941A250C9412251F927F
:100930000F920FB60F9211242F933F934F935F9313
:100940006F937F938F939F93AF93BF93EF93FF9397
:1009500085EF96E00E94AA03FF91EF91BF91AF91BE
:100960009F918F917F916F915F914F913F912F91C7
:100970000F900FBE0F901F9018951F920F920FB6F9
:100980000F9211242F938F939F93EF93FF93E091F6
:100990000507F09106078081E0910B07F0910C07A5
:1009A00082FD12C0908180910E078F5F8F7320911E
:1009B0000F07821751F0E0910E07F0E0EB50F94F6E
:1009C000958F80930E0701C08081FF91EF919F91D9
:1009D0008F912F910F900FBE0F901F901895CF936E
:1009E000DF9390E0FC01E15FF94F2491FC01E550B9
:1009F000FA4F8491882361F190E0880F991FFC01E0
:100A0000E951FA4FC591D491FC01EF50FA4FA591ED
:100A1000B491611109C09FB7F89488812095822311
:100A20008883EC912E230BC0623061F49FB7F89459
:100A30003881822F809583238883EC912E2B2C93F1
:100A40009FBF06C08FB7F894E8812E2B28838FBFF5
:100A5000DF91CF9108958F929F92AF92BF92CF92E4
:100A6000DF92EF92FF926B017C010E943E044B01EA
:100A70005C01C114D104E104F104F1F00E943E04D0
:100A8000DC01CB0188199909AA09BB09883E93406A
:100A9000A105B10570F321E0C21AD108E108F108FF
:100AA00088EE880E83E0981EA11CB11CC114D104ED
:100AB000E104F10419F7DDCFFF90EF90DF90CF90C4
:100AC000BF90AF909F908F9008952FB7F89460914A
:100AD000D9067091DA068091DB069091DC062FBF73
:100AE00008951F920F920FB60F9211242F933F93E8
:100AF0008F939F93AF93BF938091D9069091DA061D
:100B0000A091DB06B091DC063091D80623E0230FDC
:100B10002D3720F40196A11DB11D05C026E8230F35
:100B20000296A11DB11D2093D8068093D9069093FB
:100B3000DA06A093DB06B093DC068091DD06909187
:100B4000DE06A091DF06B091E0060196A11DB11D61
:100B50008093DD069093DE06A093DF06B093E00657
:100B6000BF91AF919F918F913F912F910F900FBEA9
:100B70000F901F901895CF93DF93D82FC62F84E244
:100B800090E00E9446128DE490E00E9446128CE3B1
:100B900090E00E9446121092D0048C2F0E946904AB
:100BA0008D2F0E946904C11104C0DF91CF910C9474
:100BB0006304DF91CF910895E82FF0E0EE0FFF1F5F
:100BC000E458FC4F208131812227307C81E02115BF
:100BD000304C09F080E008953F924F925F926F92FF
:100BE0007F928F929F92AF92BF92CF92DF92EF92BD
:100BF000FF920F931F93CF93DF938A01D22F22236B
:100C000011F0C8E001C0C5E0F801EC0FF11D108241
:100C1000DC2ECD2E3AE0432E512C612C712C46E077
:100C2000842E912CA12CB12C5AE3352E2FEF2D0DB3
:100C30007801E20EF11C27FDFA94A30192010E94B3
:100C4000522580E3860FF70180838EEF8D0D7801AA
:100C5000E80EF11C87FDFA94CA01B901A5019401BF
:100C60000E945225605DF7016083B901CA01FDEF62
:100C7000DF0EF801ED0DF11DD7FCFA953082CA9414
:100C80002FEFC212D3CF2D2F220FD20FCD1BC35067
:100C90002AE0822E912CA12CB12CC1507801EC0EAF
:100CA000F11CC7FDFA94A50194010E945225605DD4
:100CB000F7016083B901CA016115710581059105CC
:100CC00011F0C111EACF80E2CC2341F0C150F8010C
:100CD000EC0FF11DC7FDFA958083F6CFC801DF91B7
:100CE000CF911F910F91FF90EF90DF90CF90BF9029
:100CF000AF909F908F907F906F905F904F903F90BC
:100D00000895EF92FF920F931F93CF93DF93FB0110
:100D100097FF05C0919581959109C1E001C0C0E0A0
:100D2000DF01A40FB11D1C92DEE20AE010E04213C5
:100D300006C04150DF01A40FB11DDC9320E03FEF5E
:100D4000340F7F01E30EF11CB8010E945329805D2E
:100D5000D7018C93CB01332379F0222311F0432F59
:100D6000E6CF0097E1F7CC2339F03EEF340FDF01F7
:100D7000A30FB11D8DE28C9380E2332331F031500B
:100D8000DF01A30FB11D8C93F8CFCF01DF91CF917D
:100D90001F910F91FF90EF9008951F920F920FB641
:100DA0000F9211241092CF040F900FBE0F901F903E
:100DB0001895DB01AF57BE4FFC0124910196222309
:100DC00011F02D93F9CF08959C01E62FF0E0EE513C
:100DD000FC4FE081F0E0EE0FFF1FED51FA4F8591DF
:100DE0009491B9010C94D906DC01FB01EF57FE4F39
:100DF0009D91992311F09193FBCF0895A4E2B4E063
:100E0000E1EEF6E02AE02E0F3D9131932E13FCCF58
:100E10001092EB06BC0181EE96E00C94F4068EBDB8
:100E20000DB407FEFDCF8EB50895CF93DF931F92CB
:100E3000CDB7DEB769830E940F076981862F0F90B7
:100E4000DF91CF910C940F071F920F920FB60F9264
:100E500011242F933F934F935F936F937F938F93BF
:100E60009F93AF93BF93CF93EF93FF93C9B17894C0
:100E70000E943E042091CD043091CE04AB01421B70
:100E8000530B9A01293B3B4018F021E020932E019F
:100E90007093CE046093CD04C5FD10C02091CB04A7
:100EA0003091CC04621B730B80912E018F5F809375
:100EB0002E017093CA046093C90404C07093CC04DB
:100EC0006093CB04FF91EF91CF91BF91AF919F9130
:100ED0008F917F916F915F914F913F912F910F90E3
:100EE0000FBE0F901F9018951F920F920FB60F9282
:100EF00011242F933F934F935F936F937F938F931F
:100F00009F93AF93BF93CF93EF93FF93C6B1789422
:100F10000E943E042091C7043091C804AB01421BDB
:100F2000530B9A01293B3B4018F021E020932D01FF
:100F30007093C8046093C704C3FD1AC02091C50410
:100F40003091C604621B730BCB018F5E92408B3DC8
:100F5000954020F47093C4046093C30480912D01E4
:100F60008F5F80932D017093C2046093C10404C00D
:100F70007093C6046093C504FF91EF91CF91BF9128
:100F8000AF919F918F917F916F915F914F913F9121
:100F90002F910F900FBE0F901F9018954F925F9258
:100FA0006F927F928F929F92AF92BF92FF920F9318
:100FB0001F93CF93DF93CEE4D1E0ABE6B5E040E002
:100FC00050E06AE089918E3008F08E508770209151
:100FD000000190E4299F90011124822B80937C00D2
:100FE00080917A00806480937A0080917A0086FDF7
:100FF000FCCF809178002091790090E0922BF090C6
:10100000C0044115510519F42091ED031DC0443071
:10101000F9F42091E8032223A9F08091C304909170
:10102000C40495958795009769F4649FF001659FC6
:10103000F00D1124EF0DF11DEE0FFF1FE559FA4FD2
:10104000808191812091E703222311F080E090E0DC
:10105000649FF001659FF00D1124EF0DF11DEE0F5F
:10106000FF1FE559FA4F50962D913C915197008101
:101070001181201B310B51963C932E935097208168
:101080003181820F931F9695879591838083509627
:101090002D913C915197820F931F51969C938E9363
:1010A00050974F5F5F4F54964530510509F08ACFF6
:1010B0008091ED0360917B0570917C05D0910704D0
:1010C000811134C080E090E0C091EC03D11115C0D3
:1010D0000E9414274B015C016C2F70E080E090E0CF
:1010E0000E9416279B01AC01C501B4010E9439285A
:1010F00027E137EB41ED58E314C00E9414274B0160
:101100005C016C2F70E080E090E00E9416279B014C
:10111000AC01C501B4010E9439282FE632E143E059
:101120005AE30E9439280E94E52605C053E07595D0
:1011300067955A95E1F770937A01609379018091F0
:10114000E4038093760160918F057091900580E0B3
:1011500090E0C091F403D11115C00E9414274B01F7
:101160005C016C2F70E080E090E00E9416279B01EC
:10117000AC01C501B4010E94392827E137EB41EDEC
:1011800058E314C00E9414274B015C016C2F70E0DF
:1011900080E090E00E9416279B01AC01C501B401DC
:1011A0000E9439282FE632E143E05AE30E943928B1
:1011B0000E94E52670937801609377018091EF0398
:1011C000811144C08091F103C0916A01D0916B01FB
:1011D00000916C0110916D01811141C04E01A12C53
:1011E000B12C2091A3053091A40543E035952795B6
:1011F0004A95E1F7C901330FAA0BBB0B9C01AD0166
:10120000281939094A095B09D8010E94472500E0DD
:1012100014E020E030E0A9019801281939094A09B1
:101220005B090E942825CA01B9010E941627609314
:10123000DE037093DF038093E0039093E10320E0EB
:1012400030E0A9010E94622687FF84C01092DE036D
:101250001092DF031092E0031092E1037BC08091B3
:1012600010019091110160910401709105018617A0
:10127000970740F060910601709107018617970764
:1012800008F4BC01CB01A0E0B0E0BC01CD01685E78
:10129000734081099109623F23E07207810591053E
:1012A00048F42AE030E040E050E00E945225490135
:1012B0005A0105C094E6892E912CA12CB12CC501B0
:1012C000B4010E9414272B013C01A5019401C50122
:1012D000B4010E9421290E9414272AE037ED43EA35
:1012E0005CE30E9439289B01AC01C301B2010E945A
:1012F00084254B015C01B80180E090E00E94142736
:101300009B01AC01C501B4010E9439282AE037EDE8
:1013100043E25CE30E9439284B015C018091D403D5
:10132000BE01882359F080E090E00E9414279B01C1
:10133000AC01C501B4010E94842504C080E090E0A6
:101340000E9414276093DE037093DF038093E00311
:101350009093E1038091E603882309F44EC0209125
:10136000CB053091CC0583E0359527958A95E1F73B
:101370008091D203882389F0809164048F3029F40E
:10138000309371012093700108C0813031F43093A3
:101390006F0120936E011092640480906E01909012
:1013A0006F01A12CB12CC901330FAA0BBB0B9C01FF
:1013B000AD01281939094A095B09A4E6B0E00E9489
:1013C00047252091700130917101890120E030E0C2
:1013D000A9019801281939094A095B090E942825A1
:1013E0002536310514F024E630E037FF02C020E056
:1013F00030E03093CF032093CE0381E08F0D88300F
:1014000018F48093C00402C01092C004DF91CF9101
:101410001F910F91FF90BF90AF909F908F907F9002
:101420006F905F904F900895CF92DF92EF92FF926E
:101430000F931F93CF93DF9380E090E00E94950479
:101440008D3009F457C0C0E0D0E0FE01E956FA4FF4
:101450006491CE010E9493042196CC34D105A9F762
:10146000FE01E35CFA4F05911491602FCE010E94BA
:101470009304612FCE0101960E9493042296CA35EF
:10148000D10571F78E010A551109C801895C9A4F7F
:101490007C01FC01C590D4906C2DCE010E94930478
:1014A0006D2DCE0101960E949304F801EB51FB4F84
:1014B00005911491602FCE018E5A9F4F0E94930484
:1014C000612FCE018D5A9F4F0E949304F701059121
:1014D0001491602FCE018C559F4F0E949304612F71
:1014E000CE018B559F4F0E9493042296CE3FD1058B
:1014F00009F0C8CFDF91CF911F910F91FF90EF902E
:10150000DF90CF900895BF92CF92DF92EF92FF923B
:101510000F931F93CF93DF93C0902E0422E5C29EBA
:10152000C0011124B09000040CE713E07C013CEAF8
:10153000E30EF11CFC01E65AFF4F6F01C6010E9449
:101540009504C82FD0E0F801D183C083C60101966D
:101550000E949504282F30E0322F22272C0F3D1FA8
:10156000F80131832083BB2081F0C9019170873954
:10157000910558F0813F910518F4225E3F4F03C05A
:10158000245C3F4FF80131832083F2E0CF0ED11C61
:101590000E5F1F4FCE14DF0489F6DF91CF911F91AC
:1015A0000F91FF90EF90DF90CF90BF9008955E9ADB
:1015B0002A9864E670E080E090E00E942B052A9A69
:1015C00080E58CBD81E08DBD8DB58EB56AE070E0A3
:1015D00080E090E00E942B055E9864E670E080E079
:1015E00090E00E942B0580EA0E940F078FEF0E9477
:1015F0000F078370813029F48093000480935D0489
:101600000CC0823029F41092000410925D0405C0D1
:10161000909100049E5F90935D0480937603809187
:101620000004882341F080EE91E09093670180935D
:1016300066016CE407C086E891E0909367018093AF
:1016400066016CE080E00E9415075E9A9FB7F894EF
:10165000E89A809169008260809369009FBF0C9432
:10166000830AEF92FF920F931F93CF93DF9302EEC3
:1016700013E0C0E0D0E0CE010E949504F801819310
:101680008F012196CC34D105B1F738E6E32E31E055
:10169000F32ECE010E949504082F10E0F70111836C
:1016A0000083CE0101960E94950490E0982F882730
:1016B000080F191FF701019311937F012296CA3574
:1016C000D10539F7DF91CF911F910F91FF90EF90E6
:1016D0000C94830A2F923F924F925F926F927F9267
:1016E0008F929F92AF92BF92CF92DF92EF92FF9232
:1016F0000F931F93CF93DF93CDB7DEB72B970FB622
:10170000F894DEBF0FBECDBF282E85EF96E00E9475
:10171000940321E0892B09F420E011E075E0372ED5
:1017200083E395E036E3380F3987213009F05BC554
:1017300085EF96E00E9472039B878A870A858091D5
:1017400076049091770401969093770480937604C1
:1017500010920301202FE09113058E2F90E0893025
:10176000910508F040C3FC01EC5CFF4F0C94672925
:10177000023611F482E008C010921305253B09F0EF
:1017800032C3809113058F5F809313052CC383E0D0
:10179000809313054A8540931205409311054093A9
:1017A000100521C384E080931305809111059A856B
:1017B000890F809311052091100590E0820F911DF3
:1017C00080931005AA85A0930F050DC330921305D1
:1017D00080911105BA858B0F80931105209110051A
:1017E00090E0820F911D809310058A859B85992733
:1017F00090930E0580930D05F6C286E08093130545
:1018000080911105EA858E0F8093110520911005B6
:1018100090E0820F911D809310054A855B85342FDF
:10182000222780910D0590910E05820F931F813024
:1018300052E0950728F490930E0580930D0506C09D
:1018400010920E0510920D051092130510920C05C2
:1018500010920B05C8C2809111059A85890F80935B
:1018600011052091100590E0820F911D80931005C5
:1018700080910B0590910C058433910528F4FC01AF
:10188000E952FB4FAA85A083019690930C058093A3
:101890000B0520910D0530910E058217930709F075
:1018A000A2C287E071CF88E0809313058091110573
:1018B000801709F498C21092130595C2109213056F
:1018C0008091100580138FC21093D6048091740408
:1018D000909175040196909375048093740480919F
:1018E0000F05863009F48BC0823109F49AC082302A
:1018F00009F079C2F090D504FF2009F479C08091F5
:10190000DB049091DC04A091DD04B091DE048093AF
:101910002D0590932E05A0932F05B093300580914F
:10192000DF049091E004A091E104B091E20480937F
:10193000290590932A05A0932B05B0932C0560915F
:10194000E7047091E8048091E9049091EA0428EE9C
:1019500033E040E050E00E94282520936303309359
:10196000640340936503509366030E94650580906D
:10197000660490906704A0906804B090690486168D
:101980009706A806B906A0F5D501C40188519C4F59
:10199000AF4FBF4F8093660490936704A093680491
:1019A000B09369048091D3049091D4049093D204AD
:1019B0008093D10440916303509164036091650367
:1019C000709166035093D4044093D304092E000C05
:1019D000AA0BBB0B481B590B6A0B7B0B24E1249F02
:1019E000C001259F900D11249093800180937F0169
:1019F000F092750330926F04F1102EC0F1C1109275
:101A0000D5048091E20480FF07C08091E1048250F8
:101A1000823010F41093D5048091060580937B03E7
:101A2000E2C18091EB049091EC0490936203809367
:101A300061036091EF047091F0048091F104909142
:101A4000F20420E137E240E050E00E942825309384
:101A50001E0520931D05C7C190917B03953008F4A6
:101A6000BFC180912F01882341F0953019F081503A
:101A700080932F0110937B03B6C1809131058111B2
:101A800056C06091290570912A0580912B0590918F
:101A90002C05609321057093220580932305909374
:101AA0002405C0902D05D0902E05E0902F05F090D4
:101AB0003005C0922505D0922605E0922705F092C8
:101AC000280520916303309164033093200520930F
:101AD0001F050E9416276B017C0120E030E0A90160
:101AE0000E942C2818163CF420E836E948E15BE413
:101AF000C701B60107C0C701B601905820E836E912
:101B000048E15BE40E946C2625E33AEF4EE85CE393
:101B10000E9439280E94672660931405709315056A
:101B20008093160590931705109331055CC12091A1
:101B3000290530912A0540912B0550912C052983C8
:101B40003A834B835C838091210590912205A0917B
:101B50002305B0912405BC01CD01621B730B840BDE
:101B6000950B0E9416276B017C0180912D059091A9
:101B70002E05A0912F05B09130058D839E83AF83F4
:101B8000B8878091250590912605A0912705B091F1
:101B90002805BC01CD012D813E814F815885621BF6
:101BA000730B840B950B0E9416272091140530911E
:101BB000150540911605509117050E9439284B01D3
:101BC0005C01A7019601C701B6010E9439282B01CB
:101BD0003C01A5019401C501B4010E9439289B0173
:101BE000AC01C301B2010E9484250E94B4282CE2FA
:101BF0003DE74EE85FE30E9439280E94E5262B016D
:101C00003C01C701B6019058A50194010E9403262A
:101C100020EA3CE043EB55E40E94392820E030EA1A
:101C20004CE056E40E9484250E94DE266B017C0174
:101C300097FF06C030EAC30E3CE8D31EE11CF11C3E
:101C4000C301B20124E630E040E050E00E9452259A
:101C500049015A0120936F0330937003409371033D
:101C600050937203C701B60124E630E040E050E033
:101C70000E942825309374032093730380911F05DD
:101C800090912005092E000CAA0BBB0B4091630319
:101C90005091640360916503709166039A01AB01F2
:101CA000281B390B4A0B5B0B2093630330936403AF
:101CB0004093650350936603A4E6B0E00E94472575
:101CC00060937B0170937C0180937D0190937E01F2
:101CD00089819A81AB81BC8180936B0390936C0363
:101CE000A0936D03B0936E032D813E814F81588583
:101CF00020936703309368034093690350936A030A
:101D000080911D0590911E056AE070E00E945329A4
:101D1000653B710514F06856714070937A036093C7
:101D2000790380911C05811104C07093780360933E
:101D3000770335E183169104A104B10420F01093D8
:101D40001C051093D40380911C05813009F04BC011
:101D500048E284169104A104B104B8F580916103AE
:101D6000909162038B34910580F5C0901805D09056
:101D70001905E0901A05F0901B050E9465054601C3
:101D8000570158E5850E5BE1951EA11CB11C681535
:101D900079058A059B0538F10E946505A0EFCA0EFA
:101DA000A5E5DA1EE11CF11C6C157D058E059F056D
:101DB00028F410922C011092D40315C01092D20373
:101DC00010921C051092D3030EC00E94650560930B
:101DD00018057093190580931A0590931B0503C08D
:101DE00082E380932F018091D6069091D7060097C9
:101DF00029F481E090E0043271F412C08130910541
:101E000029F40D3441F482E090E00AC0823091055B
:101E100061F40E3319F080E090E002C083E090E0BE
:101E20009093D7068093D606D6C18330910599F456
:101E30000B3F28F01092D7061092D606CCC1BA8577
:101E4000B093D506E4E0F0E0F093D706E093D60631
:101E5000B093D406C0C18430910589F425E030E008
:101E60003093D7062093D6063A853093D3068091D7
:101E7000D40683278093D4061092D206ACC105976E
:101E800009F0A9C18091D4065A8585278093D4068C
:101E90000091D2069091D506091393C18111CACF42
:101EA00080917404909175040196909375048093C9
:101EB00074041092D70530926E048091D3068C3D45
:101EC00009F0B8CF0E948604893009F04AC082E048
:101ED000809370040E948604082F0E948604202F9D
:101EE00030E0280F311D3093D6052093D5050E9490
:101EF00086048093D4051093D3050E946505DC0108
:101F0000CB018854944FAF4FBF4F8093CF05909330
:101F1000D005A093D105B093D2056FE18CED0E945E
:101F2000BB0589E00E9469040AE0C090D505D09005
:101F3000D605C6010E949504F82E8093D405C601EB
:101F40000E9477048F2D0E9469048091D50590919D
:101F5000D60501969093D6058093D505015029F7B3
:101F60009BC0883009F055C082E0809370040AE07D
:101F70000E948604F82E0E94860490E0982F8827FD
:101F80006C01CF0CD11CD092D605C092D5050E9411
:101F90008604F82E8093D4051093D3050E9465051E
:101FA000DC01CB018854944FAF4FBF4F8093CF05D6
:101FB0009093D005A093D105B093D2056F2DC601A3
:101FC0000E9493046DE080E090E00E949304E09012
:101FD000D505F090D60589E5E816F10429F09FE4CF
:101FE000E91691E0F90611F40E94310B015009F055
:101FF000BFCFAFEFEA1AFA0AF092D605E092D50504
:1020000063E08CED0E94BB0589E00E946904C70172
:1020100041C0873009F043C0109271046BE08CED31
:102020000E94BB0587E00E9469043BE6E32E35E091
:10203000F32EF7018089918923E0969587952A955B
:10204000E1F70E947704F4E1EF0EF11C2FECE216A9
:1020500025E0F20671F70E9463046DE08CED0E94AA
:10206000BB058AE00E94690481E190E00E94770448
:1020700083E090E00E94770485EA96E00E9477046E
:1020800080E090E00E94770480E090E00E94770476
:1020900081E090E00E9477040E946304CBCE8330FD
:1020A00009F077C0053039F50E948604E82EF12C3E
:1020B0000E948604F82A30E2E3163DE1F30609F0B7
:1020C000B9CE0E94860480936A050E94860480939C
:1020D00069058091D4038111ADCE8091D203811125
:1020E000A9CE8091D5038111A5CE80E880933205D9
:1020F0001093D5039FCE083309F09CCE83E3C82EFE
:1021000085E0D82E76010E948604D7018D937D014B
:10211000B985BE11F8CF0E948604082F5E986091A1
:102120000004611160E480E00E941507602F89E0DF
:102130000E941507F12C6F2D8AE00E941507F60109
:1021400061916F018BE00E941507F394F6E3FF1293
:10215000F2CF60EA88E00E94150780EA0E940F072C
:1021600085FDFBCF80910004811102C06CE001C0AD
:102170006CE480E00E9415075E9A64E170E080E004
:1021800090E00E942B050F3F09F054CE0E94D70A21
:1021900051CE863081F4E12CF12C60E0C7010E9421
:1021A00093042FEFE21AF20AE11432E0F306A9F7E2
:1021B0000E94140A03C0853009F03CCE10935C04E1
:1021C00039CE81E0800F8093D206E02FF0E0E85214
:1021D000FA4F4A85408385EF96E00E949403892B4D
:1021E00011F02110A5CA2B960FB6F894DEBF0FBED2
:1021F000CDBFDF91CF911F910F91FF90EF90DF90B6
:10220000CF90BF90AF909F908F907F906F905F9096
:102210004F903F902F900895CF92DF92EF92FF92D0
:102220000E9465056B017C0128E2C20ED11CE11CF5
:10223000F11C81E08093CF048091CF04882371F05A
:102240000E946505C616D706E806F90618F410922E
:10225000CF04F2CF80E00E946A0BEECFFF90EF90A8
:10226000DF90CF9008958091D503882329F080E0F6
:1022700090E1A0E0B0E05AC08091D203882329F019
:102280008FE996E0A4E0B0E051C08AE090E0A0E0E1
:10229000B0E08093D6039093D703A093D803B09374
:1022A000D9032091D00321FF0CC08AE190E0A0E087
:1022B000B0E08093D6039093D703A093D803B09354
:1022C000D90380915A04813089F08091D60390918E
:1022D000D703A091D803B091D90381608093D6032E
:1022E0009093D703A093D803B093D90323FF11C0D1
:1022F0008091D6039091D703A091D803B091D903D0
:10230000806A8093D6039093D703A093D803B093A9
:10231000D90380912F04811111C08091D60390912F
:10232000D703A091D803B091D90398608093D603C6
:102330009093D703A093D803B093D9038091ED0372
:10234000811104C08091E703882389F08091D6032E
:102350009091D703A091D803B091D9039160809355
:10236000D6039093D703A093D803B093D903409199
:10237000DA035091DB036091DC037091DD038091FF
:10238000D6039091D703A091D803B091D9038423A9
:102390009523A623B7238093DA039093DB03A093BE
:1023A000DC03B093DD030895CF92DF92EF92FF92AA
:1023B0006B017C01E0910507F091060782E08083C4
:1023C000C11481EED806E104F104B1F060E079E0D7
:1023D0008DE390E0A70196010E945225DA01C90120
:1023E0000197A109B109B695A795979587959C0185
:1023F000211580E13807B8F0E0910507F091060754
:10240000108260E874E88EE190E0A70196010E94D6
:102410005225DA01C9010197A109B109B695A7951D
:10242000979587959C01E0910107F0910207308311
:10243000E0910307F0910407208310920D07E091CB
:102440000907F0910A0786E08083E0910707F09181
:102450000807808180618083E0910707F091080779
:10246000808188608083E0910707F0910807808170
:1024700080688083E0910707F091080780818F7D55
:102480008083FF90EF90DF90CF900895682F85EFC5
:1024900096E00C94CB03CF92DF92EF92FF920F93D2
:1024A0001F93CF93DF93C42F97FF08C0909580951B
:1024B000709561957F4F8F4F9F4FC22F24E630E07C
:1024C00040E050E00E942825CA01B9011092EC06B4
:1024D000C093EB06C9E02AE0C22ED12CE12CF12CEE
:1024E000DEE2C43019F4D093E506C3E0C1500C2FEE
:1024F00010E00E51194FA70196010E942825605D3A
:10250000F8016083B901CA01CC2339F0C33048F720
:10251000611571058105910521F780E2CC2339F021
:10252000C150EC2FF0E0EE51F94F8083F7CF82EEEF
:1025300096E0DF91CF911F910F91FF90EF90DF9088
:10254000CF900895EAE2F6E02491E6E1F6E0949176
:10255000E2E0F6E0E491EE2309F43BC0222339F1F6
:10256000233091F038F42130A9F0223001F524B560
:102570002F7D12C0273091F02830A1F02430B9F41B
:10258000209180002F7D03C0209180002F77209321
:1025900080000DC024B52F7724BD09C02091B00064
:1025A0002F7703C02091B0002F7D2093B000F0E082
:1025B000EE0FFF1FEF50FA4FA591B4912FB7F8948B
:1025C000EC91811103C090959E2301C09E2B9C939A
:1025D0002FBF0895CF93DF93CDB7DEB7EA970FB63D
:1025E000F894DEBF0FBECDBF789484B5826084BD01
:1025F00084B5816084BD85B5826085BD85B5816007
:1026000085BD80916E00816080936E001092810084
:10261000809181008260809381008091810081603F
:102620008093810080918000816080938000809100
:10263000B10084608093B1008091B000816080938C
:10264000B00080917A00846080937A0080917A0053
:10265000826080937A0080917A00816080937A0012
:1026600080917A00806880937A001092C10084B7CC
:1026700014BE8091600088618093600010926000B9
:1026800060E072EC81E090E00E94D4118091C00083
:1026900082608093C0001092C50080E18093C400E6
:1026A00085EF96E00E94120484B18C6284B924986C
:1026B000569A529860E084E10E94EF0460E081E164
:1026C0000E94EF0460E084E10E94EF0461E087E093
:1026D0000E94EF043B985598F89480916C0083FD1C
:1026E0000AC08091680082608093680080916C00CD
:1026F000886080936C0080916D0085FD0AC0809198
:10270000680084608093680080916D00806280938F
:102710006D0078940E94140A0E94310B64EF71E0FE
:1027200080E090E00E942B0580910704882311F03F
:1027300081E001C083E0809300010E94D70A8AE013
:10274000809371048091D0039091D1038F60909316
:10275000D1038093D0030E94331128E6222E332424
:1027600033948FE294E02CE8280F29AF1092BC0438
:1027700080917204909173040196909373048093F6
:10278000720480915C04882361F084B7877F84BFE2
:102790008091600088658093600081E48093600090
:1027A000FFCF10922E048091BB0481110E94830AF6
:1027B0001092BB0410915E04163010F081E001C04D
:1027C00080E00E94A2120E9465056B017C0180914D
:1027D000B7049091B804A091B904B091BA04B701BC
:1027E000A601481B590B6A0B7B0B4436510561054A
:1027F000710508F483C08C599F4FAF4FBF4F809332
:10280000B7049093B804A093B904B093BA041F5FBF
:1028100010935E0480915F048F5F80935F0481E07A
:1028200090916104911180E080936104809175031F
:102830008823A1F18091D403882381F16091610301
:10284000709162036115710549F12091FF0380E0E9
:1028500090E0222339F00E94142721EB32E047E573
:102860005BE306C00E9414272FE632E143E85AE3F7
:102870000E9439289B01AC0160917C0470917D0419
:1028800080917E0490917F040E94842560937C0453
:1028900070937D0480937E0490937F0460917C0408
:1028A00070917D0480917E0490917F040E94E526C2
:1028B00060938104709382048093830490938404D2
:1028C0008091F0038823D1F02091DE033091DF0363
:1028D0004091E0035091E1036091B3047091B4041E
:1028E0008091B5049091B6040E9484256093B3044E
:1028F0007093B4048093B5049093B6048091AF04B0
:102900009091B004A091B104B091B204C81AD90A50
:10291000EA0AFB0A32E3C316D104E104F10410F41D
:102920000C945E22C296A11DB11D8093AF049093BA
:10293000B004A093B104B093B2048091DA039091F3
:10294000DB03A091DC03B091DD03892B8A2B8B2B59
:1029500081F48091D6039091D703A091D803B091D0
:10296000D9038093DA039093DB03A093DC03B09345
:10297000DD038091DA039091DB03A091DC03B09139
:10298000DD0344275527BA01481B590B6A0B7B0B03
:10299000482359236A237B23409550956095709571
:1029A00084239523A623B7238093DA039093DB0334
:1029B000A093DC03B093DD038091D503811137C070
:1029C0005E9860E085E00E94150760E086E00E9466
:1029D000150761E084E00E9415070E940C1101E8D0
:1029E00011E0E12CF12C90E2D92E809166019091BA
:1029F0006701E816F90690F440EFE416F10411F4CB
:102A00000E940C11F801608187E00E941507F8010F
:102A1000D1928F01FFEFEF1AFF0AE7CF6FEF87E048
:102A20000E94150760E084E00E9415075E9A0E94EC
:102A3000CE078091AD049091AE04059788F584E6A9
:102A4000E82E83E0F82E00E410E0F70185919491E0
:102A5000B8010E94D90622E0E20EF11C025E1F4F6F
:102A6000003331E0130789F788EF90E00E94FE06FB
:102A7000E0915D04F0E0EE0FFF1FE45AFC4F8591FA
:102A8000949166E171E00E94D9068091AB04909127
:102A9000AC04CC9790936304809362040C945E2200
:102AA000F090D403FF20C9F181E08093D30380919B
:102AB000D203813091F580932C018AE080932B0121
:102AC00083E080932A011092D2031092D303809165
:102AD0000504882301F1109281041092820410925F
:102AE00083041092840410929B0410929C04109210
:102AF0009D0410929E0410929A04109299041092D0
:102B0000A00410929F0410929704109296041092C1
:102B1000A2041092A1040E9433110091D303002358
:102B200071F0F1100CC010922C018AE080932B01FF
:102B300081E080932A018093D2030E943311809117
:102B4000D203882309F4B4C310912C01E12FEE0FB6
:102B5000FF0BEA50FC4F8591949163E270E00E9474
:102B6000D9066BE671E081EF93E00E94D90601116E
:102B70000CC061E771E087EE93E00E94D9066BE735
:102B800071E080EE93E00E94D90611118AC0809115
:102B9000810490918204A0918304B09184048D8378
:102BA0009E83AF83B88780919B0490919C04A091F1
:102BB0009D04B0919E0489879A87AB87BC878091DA
:102BC000990490919A04092E000CAA0BBB0B8D87D7
:102BD0009E87AF87B88B80919F049091A004A0E05E
:102BE000B0E0898B9A8BAB8BBC8B20E030E044EB60
:102BF00053E46091B3047091B4048091B504909152
:102C0000B6040E946C260E94E5266D8B7E8B8F8B0E
:102C1000988F80919604909197046AE070E00E94EA
:102C20003F29CB01A0E0B0E0898F9A8FAB8FBC8F9A
:102C300012EDC12E13E0D12ECE0101967C010DE5DF
:102C400010E0F60185919491B8010E94D906F70130
:102C500081919191A191B1917F014AE061EE76E07D
:102C60000E94DD24B8016F5E7F4F0E94F406F2E0FF
:102C7000CF0ED11C025E1F4F0F3221E0120709F761
:102C80006091A1047091A20480E090E021E041EE07
:102C900056E00E94EC056DE670E081EE96E00E9441
:102CA000F40680912C01813009F091C00E94CE077A
:102CB00087E98093E10623E044E062EE76E08091CC
:102CC000790190917A010E94810619EA1093E60633
:102CD0001092E70664E370E081EE96E00E94F4064D
:102CE0008FEB8093E10623E044E062EE76E0809192
:102CF0007701909178010E9481061093E606109268
:102D0000E7066CE270E081EE96E00E94F406B4EC17
:102D1000EB2EB3E0FB2E0DE510E0F70185919491C9
:102D2000B8010E94D90632E0E30EF11C025E1F4F8B
:102D30000F3241E0140789F78091F3034AE061EE16
:102D400076E090E00E94DD246BEC70E00E94F406D7
:102D500067E081E790E00E94E4068091EC034AE09E
:102D600061EE76E090E00E94DD246FE870E00E9462
:102D7000F4068091EA034AE061EE76E090E00E947A
:102D8000DD246DEA70E00E94F40661E18BEC90E0D6
:102D90000E94E4068091F4034AE061EE76E090E060
:102DA0000E94DD2469EE70E00E94F4068091EB033E
:102DB0004AE061EE76E090E00E94DD2467E071E099
:102DC0000E94F4066BE085E291E00E94E4068091A7
:102DD0002C01823009F06FC04AE061EE76E080910C
:102DE000CE039091CF030E94DD24E0E0AE2FB0E04F
:102DF000AF51B94F8C91EF5F8111F8CF85E28C9381
:102E0000F0E0EF51F94F108265E370E081EE96E05B
:102E10000E94F406A8EBEA2EA3E0FA2E0DE510E0DE
:102E2000F70185919491B8010E94D90672E0E70EEE
:102E3000F11C025E1F4F013181E0180789F764E041
:102E400081E790E00E94E40680916404882349F0C1
:102E50004AE061EE76E090E00E94DD246FE870E0E9
:102E600004C06FE870E083E691E00E94F40665E03C
:102E70008DEA90E00E94E40666E08BEC90E00E9410
:102E8000E4064AE061EE76E0809170019091710174
:102E90000E94DD2469EE70E00E94F4064AE061EED3
:102EA00076E080916E0190916F010E94DD2467E0D1
:102EB00071E00E94F40680912C01833009F05AC021
:102EC0006091DE037091DF038091E0039091E10354
:102ED0000E94DE26DC01CB0123E044E061EE76E0D7
:102EE0000E9481068AE98093E5061092E60664E373
:102EF00070E081EE96E00E94F406FEEAEF2EF3E029
:102F0000FF2E0DE510E0F70185919491B8010E9424
:102F1000D90692E0E90EF11C025E1F4F033F110536
:102F200091F76CE081E790E00E94E4066EE08FE8A4
:102F300090E00E94E4066FE08DEA90E00E94E406D3
:102F40004AE061EE76E080916C0190916D010E9403
:102F5000DD246BEC70E00E94F4064AE061EE76E05E
:102F600080916A0190916B010E94DD2469EE70E00E
:102F70000E94F40680912C01843009F044C0EEE9EF
:102F8000EE2EE3E0FE2E0DE510E0F7018591949121
:102F9000B8010E94D906E2E0EE0EF11C025E1F4F5E
:102FA0000D34F1E01F0789F760E281E790E00E94AD
:102FB000E40661E28FE890E00E94E4066DE28DEAAB
:102FC00090E00E94E4066FE18BEC90E00E94E40642
:102FD00067E189EE90E00E94E40664E387E091E017
:102FE0000E94E4066EE285E291E00E94E406809190
:102FF00006044AE061EE76E090E00E94DD2463E49E
:1030000071E00E94F40680912C01853009F058C0CF
:1030100072E9E72E73E0F72E0DE510E0F7018591D8
:103020009491B8010E94D90622E0E20EF11C025EE2
:103030001F4F013131E0130789F78091FF0361E7EA
:1030400070E0811103C08EE893E002C08AE893E04B
:103050000E94D906809107046FE870E0882319F078
:1030600087E893E002C082E893E00E94D9066CE210
:103070008DEA90E00E94E40680916504882349F07F
:103080004AE061EE76E090E00E94DD246BEC70E0B7
:1030900004C06BEC70E083E691E00E94F40680913E
:1030A0001C044AE061EE76E090E00E94DD2469EEC7
:1030B00070E00E94F40663E187E091E00E94E4067C
:1030C00080912C01863009F04EC08091200490E060
:1030D0009E8F8D8F8091210490E098A38F8F809197
:1030E000220490E09AA389A38091230490E09CA3FA
:1030F0008BA38091F60390E09EA38DA38091F703AC
:1031000090E098A78FA30DE510E0E12CF12CD12CD5
:10311000F701EC58FC4F85919491B8010E94D906B3
:1031200046E0D41691F04AE061EE76E0EDE1F0E0A1
:10313000EC0FFD1FEE0DFF1D808191810E94DD24AB
:10314000B8016C5E7F4F0E94F406D39472E0E70EE4
:10315000F11C025E1F4F87E0D812DACF60E185E2F2
:1031600091E00E94E40680912C01873014F01092C7
:103170002C0120912B012A3079F480912A0183308F
:1031800011F40C947123813009F480C0823009F06D
:1031900080C080E791E07FC02A3008F07AC030918B
:1031A0002C01313079F483E080932A01283019F41E
:1031B0008AE080932B0180912B01893009F063C054
:1031C00087E05FC0323079F483E080932A012730B2
:1031D00019F48AE080932B0180912B01893009F04A
:1031E00052C086E04EC0333069F430932A01293052
:1031F00019F485E080932B0180912B01863009F032
:1032000042C03EC03430E9F4293049F48091800452
:10321000883011F48AE001C088E080932B0120916E
:103220002B012093800483E080932A0130E02E5FFD
:103230003F4F4EE1429FC001439F900D112446969F
:103240002AC080E090E0353069F483E080932A0161
:10325000293019F486E080932B0180912B0187306F
:1032600091F40EC03630B9F483E080932A012930FE
:1032700019F487E080932B0180912B01883019F499
:103280008AE080932B0120912B01D0CF8AE691E038
:1032900002C080E090E020916104222311F40C949C
:1032A0005E22FC01EF57FE4F23E020830C945E2248
:1032B0000E9433118091D00380FF17C110910F0439
:1032C00011110AC080911704811106C083E1809317
:1032D000020180930101A8C0F11004C010926203A2
:1032E00010926103E0906103F09062038091930477
:1032F000909194049701215F3F4F28173907C0F43C
:103300000E94650560938F047093900480939104EC
:103310009093920482E080938E04F0929404E09261
:1033200093048091020181508031E8F485E11BC053
:103330000F968E159F05C8F40E94650560938F0453
:1033400070939004809391049093920481E0809311
:103350008E04F0929404E0929304809102018F5FB6
:10336000863108F080E180930201C0907B01D0900B
:103370007C01E0907D01F0907E0180918A04909123
:103380008B04A0918C04B0918D04B701A6014C5E12
:103390005F4F6F4F7F4F481759076A077B07E4F469
:1033A0000E94650560938604709387048093880467
:1033B0009093890482E080938504C0928A04D0921D
:1033C0008B04E0928C04F0928D0480910101815075
:1033D000803128F585E123C04496A11DB11D8C15CF
:1033E0009D05AE05BF05ECF40E946505609386045B
:1033F00070938704809388049093890481E080937C
:103400008504C0928A04D0928B04E0928C04F092DE
:103410008D04809101018F5F863108F080E18093F7
:103420000101112309F452CF0091AE031091AF03B3
:103430001170F090020489E10E94DC058F2181F077
:1034400082E20E94DC0581110BC0F801EF57FE4FAC
:10345000DF01119786E28C938CEB81838EE780836A
:1034600080910304882309F440C08AE10E94DC05AE
:103470008823D9F18091B603982F9F708091B4036F
:103480008F70B82E482F4195609102015091010133
:10349000C92E990FDD0898012C193D097601E00E1F
:1034A000F11EEEE14E02C00111248F579E4FFC0128
:1034B000E20FF31F6083FC01EE0DFF1D50834F5F91
:1034C000B4167CF7F801EC19FD09EE57FE4F83E0C6
:1034D0008083F801EC0DFD1DE058FE4F82E08083F3
:1034E0008091170481110C9475238091E90388233E
:1034F00009F45CC0B090EA03B0929804E091EB0349
:10350000E0939504809104040091790110917A016F
:103510008823A9F182E2E89F600111249AE2E99FE1
:10352000F00111240C151D0510F42C2D07C09F016E
:10353000225031090217130708F498010D2C000CD2
:10354000EE08FF08822F90E0A0E0B0E09C01AD0102
:103550002C193D094E095F09A7E0B0E00E944725FC
:1035600031972F01612C712CA30192012C193D0977
:103570004E095F090E94282586E9821B01C087E960
:103580008093E106EB2CF12C0E151F0520F48091A1
:10359000600481110BC085E10E94DC0581110C944F
:1035A000D923E016F10610F00C94D9238091F3038F
:1035B000882369F1009177011091780120917601BB
:1035C00030E00217130720F48091600481111FC0BE
:1035D00086E10E94DC058823D1F08FEB8093E10621
:1035E00023E044E062EE76E0C8010E94810689EAA9
:1035F0008093E6061092E7066091A8037091A903F4
:1036000071706150710981EE96E00E94F40680911C
:10361000E6038823B1F10091CE031091CF032091EE
:10362000E50330E02017310724F0809160048823FF
:1036300041F183E10E94DC05882319F18AEB809334
:10364000E1064AE062EE76E0C8010E94DD24E0E097
:10365000AE2FB0E0AF51B94F8C91EF5F8111F8CF31
:1036600085E28C93F0E0EF51F94F10826091A20354
:103670007091A30371706150710981EE96E00E9410
:10368000F4068091EE03882309F45CC0C090DE0349
:10369000D090DF03E090E003F090E10320E030E021
:1036A00040E251E4C701B6010E946C264B015C0167
:1036B0006091F70370E080E090E00E9416279B0184
:1036C000AC01C501B4010E94622687FD04C080914F
:1036D00060048823B9F1609196047091970480E0AA
:1036E00090E00E9414279B01AC01C701B6010E9423
:1036F0002C28181644F4C701B6010E94E5267093E1
:1037000097046093960487E10E94DC058823D1F03A
:10371000C701B6010E94DE26DC01CB0124E045E0B2
:1037200061EE76E00E9481068AE98093E6061092B7
:10373000E7066091AA037091AB03717081EE96E089
:103740000E94F4068091F0038823B1F120E030E07C
:1037500044EB53E46091B3047091B4048091B504D8
:103760009091B6040E946C260E94DE266B017C01BB
:103770002091F603E4E62E9F9001112426173707C7
:1037800024F4809160048823B9F088E10E94DC056C
:10379000882391F084EA8093E1064AE062EE76E0C5
:1037A000C6010E94DD246091AC037091AD0371707D
:1037B00081EE96E00E94F40680911504882309F4B6
:1037C0004CC000919603109197030115F2E01F077A
:1037D00008F443C08091D4038823F1F02091A3041E
:1037E0003091A404C9016CE370E00E943F298091EC
:1037F000230490E06817790720F08091600481111C
:103800002CC020314EE0340728F48CE98093E10687
:10381000B90116C081E709C06091AB047091AC0496
:1038200060318EE0780720F48BE98093E10608C0D0
:1038300080E78093E106CB016CE370E00E943F29B2
:1038400080E090E020E042EE56E00E94EC05B801F6
:10385000717081EE96E00E94F40685E20E94DC051C
:103860008823A1F10091C6031091C70311706091E4
:10387000790170917A0180E090E00E9414272091F4
:10388000DE033091DF034091E0035091E1030E9499
:10389000392820E030E048EC52E40E946C260E9477
:1038A000E526DC01CB0125E045E062EE76E00E94F2
:1038B000810680E28093E10687E58093E606109218
:1038C000E706B80181EE96E00E94F4068EE00E94C1
:1038D000DC05882309F4A4C08091F203882309F44D
:1038E0009FC08091D403811107C08091BC04826085
:1038F0008093BC048EE10EC080910301882369F09F
:103900009091610491118CC09091BC04946090934B
:10391000BC0481508093030105C08091BC04816088
:103920008093BC048091980490E0209179013091BB
:103930007A018217930728F08091BC0480648093F9
:10394000BC048091D00383FF12C080917B0385303B
:1039500028F48091BC0480628093BC0480916F0441
:10396000811105C08091BC0480618093BC040091EA
:10397000BC04087F0093BC048091BD04811102C087
:103980000093BD041091BD04212F2195F22EF12248
:103990000E9465058090780490907904A0907A0444
:1039A000B0907B04E4EF8E0EE1E09E1EA11CB11CE2
:1039B00086169706A806B90688F4112329F08F2DDC
:1039C000809518231093BD040E94650560937804C8
:1039D0007093790480937A0490937B0480E090E064
:1039E000E0E02F2D30E0A901082E02C05595479543
:1039F0000A94E2F740FDE82F01968830910599F787
:103A0000023070F0F0E0EE0FFF1FEC5FFB4F85918E
:103A10009491609198037091990371700E94D906F6
:103A200080910104882309F48FC08BE00E94DC059B
:103A3000882309F489C080E28093E2068091100116
:103A40009091110120910601309107012817390743
:103A500020F4909307018093060120910401309196
:103A600005018217930720F49093050180930401C8
:103A700020910601309107012330384030F022E0D8
:103A800038E0309307012093060120910401309122
:103A90000501263B334030F426EB33E0309305013B
:103AA000209304012091D403211109C080E2809366
:103AB000E3069DE29093E4069093E50635C02091DD
:103AC000F503222339F020E044E063EE76E00E9423
:103AD00081062CC0C0900401D0900501E12CF12C8E
:103AE000A0E0B0E09C01AD012C193D094E095F0931
:103AF000A4E6B0E00E94472520910601309107011D
:103B0000890120E030E0A90198012C193D094E09F6
:103B10005F090E942825DA01C90120E043E063EE35
:103B200076E00E94810685E28093E60688EC809329
:103B3000E1061092E7066091920370919303717011
:103B400081EE96E00E94F4062091AB043091AC0423
:103B50008091620490916304AC01445C5F4F421712
:103B60005307A0F4805C9F4F8217930720F4309393
:103B700063042093620480910A04882339F08091C1
:103B8000CA039091CB0391700E94FE068091D003EE
:103B900082FF59C088E00E94DC058823F9F08091FB
:103BA00013048823D9F08091790390917A03880FC8
:103BB000991F880F991F83509D4F6AE570E00E94FE
:103BC00053296B5E7B4F80918C0390918D03917094
:103BD00049E050E08F579E4F0E94D42487E00E9416
:103BE000DC05882381F18091FD03882361F18091B8
:103BF000790390917A032091FE03222381F097FFAD
:103C000002C088599E4F20E043E061EE76E00E94BA
:103C100081068DEB8093E4061092E5060BC020E050
:103C200044E061EE76E00E9481068DEB8093E5062C
:103C30001092E60660918A0370918B03717081EE99
:103C400096E00E94F4068091D00381FFB8C0809175
:103C5000FF038823A1F060917B0170917C0180912A
:103C60007D0190917E010E9416272EEA31E646E002
:103C70005DE30E9439280E94DE268B010FC060910F
:103C80007B0170917C0180917D0190917E0124E601
:103C900030E040E050E00E94282589018091D40363
:103CA000882389F08091AD049091AE04069758F076
:103CB0008091990490919A048017910724F41093AD
:103CC0009A040093990489E00E94DC05882369F135
:103CD00080911204882349F140912104442371F01A
:103CE000C8016AE070E00E945329842F90E06817B1
:103CF000790724F080916004811117C04AE062EED8
:103D000076E0C8010E94DD24E091FF03F0E0EE5C64
:103D1000FE4F80818093E10660918E0370918F0346
:103D2000717081EE96E00E94F4068AE00E94DC0544
:103D3000882309F444C080911104882309F43FC00A
:103D4000009190031091910311700F571E4FF801CD
:103D50007E978FE78083F8018083868F20917F0193
:103D6000309180012937310534F42838FFEF3F07BF
:103D70001CF428E801C028E7822F220F990BAA0B18
:103D8000BB0B9C01AD012857310941095109A1E143
:103D9000B0E00E94472520E13FEF4FEF5FEF0E9428
:103DA0002825822F66E00E9431298150F8012EE1FA
:103DB0008202E00DF11D11248FE8891B8083809120
:103DC000D00383FF49C38091F803882309F444C3D7
:103DD00010917B03153020F48091600481111BC089
:103DE00080E00E94DC058823B1F08EE18093E1063B
:103DF0008FE18093E2064AE063EE76E0812F90E067
:103E00000E94DD2460917C0370917D03717081EECE
:103E100096E00E94F40680917503882309F46AC035
:103E200081E00E94DC058823C9F180916F039091A5
:103E30007003A0917103B09172030397A105B105BE
:103E400020F480916004811129C020917E0330917B
:103E50007F0331708091790390917A03845E9D4F46
:103E60004091730350917403841B950B880F991F25
:103E7000880F991F8D966AE570E00E945329CB0147
:103E800060E170E00E945329805A8093E10610920D
:103E9000E206B90181EE96E00E94F4068091FF03EC
:103EA000882309F49FC460916F037091700380911F
:103EB0007103909172030E94142721EA38EF41E5C3
:103EC00050E40E9439280E94E5266B017C01809114
:103ED0009B0490919C04A0919D04B0919E048C152C
:103EE0009D05AE05BF0508F486C482E00E94DC058E
:103EF000811195C480917503882309F452C084E030
:103F00000E94DC058823E1F08091FC038823C1F046
:103F100020E043E061EE76E08091730390917403BA
:103F20000E9481068DEB8093E4061092E506609175
:103F3000840370918503717081EE96E00E94F4060F
:103F40008091D403811104C0109262031092610326
:103F5000F090FF03609161037091620380E090E054
:103F6000F1108EC40E9414272CEB34E743E15DE38B
:103F70000E9439280E94E5268B0180919F04909130
:103F8000A0049C012C5E3F4F2017310708F07FC42E
:103F90003093A00420939F0483E00E94DC058111EC
:103FA0007FC480917503882309F497C08091FB0337
:103FB000882309F457C085E00E94DC05882309F4B2
:103FC00051C08091FF038823A9F060916303709131
:103FD000640380916503909166030E94162721EA8D
:103FE00038EF41E550E40E9439280E94DE266B013B
:103FF0007C0108C0C0906303D0906403E090650327
:10400000F0906603109121041123A9F0C701B601B5
:104010002AE030E040E050E00E942825812F90E027
:10402000A0E0B0E0281739074A075B0724F0809129
:104030006004811117C04AE062EE76E0C6010E947A
:10404000DD24E091FF03F0E0EE5CFE4F8081809381
:10405000E1066091860370918703717081EE96E0AE
:104060000E94F40681E10E94DC058823B1F1809171
:10407000F903882391F100919E0310919F03117021
:104080008AEC8093E10660916B0370916C038091E0
:104090006D0390916E0323E54EE40E944B12B8012C
:1040A00081EE96E00E94F4060091A0031091A10316
:1040B00011708BEC8093E106609167037091680347
:1040C0008091690390916A0327E545E40E944B12B1
:1040D000B80181EE96E00E94F4063091060439ABF7
:1040E000323079F040F4313009F0B6C121E030E0EF
:1040F0003CAB2BAB10C049A9433049F0443009F028
:10410000ABC182E090E09CAB8BAB11E005C0E2E07C
:10411000F0E0FCABEBAB10E080917503882309F471
:104120009BC182E20E94DC05882309F495C1812E9F
:10413000B12C912CAA24A394882D90E0EBA9FCA982
:104140008E179F070CF088C18091730390917403C0
:1041500031E083120CC02091770330917803821BE9
:10416000930B845E9D4FB1010E943F290BC088597B
:104170009E4F2091790330917A03821B930BB101FA
:104180000E9453299C016AE570E00E945329613026
:10419000710599F02CF4672B01F5BB24BA9414C077
:1041A00062307105A1F063307105B9F4F101E21BD1
:1041B000F30B9F01BB24BA940EC084EB90E0821BEA
:1041C000930B9C01BB24B3949924939406C0245B65
:1041D0003109BB24B39499249A94B901330F880B05
:1041E000990B0E9416272BED3FE049E450E40E9412
:1041F000392820E030E044E353E40E946C262B0190
:104200003C0160916F0370917003809171039091F4
:1042100072030E9414276B017C01C301B2010E944A
:10422000A6289B01AC01C701B6010E9439280E9453
:10423000E5266DAB7EAB8FAB98AF0DA91EA9C30170
:10424000B2010E9467269B01AC01C701B6010E9422
:1042500039280E94E5262B013C010617170710F4A8
:10426000CB0103C02DA93EA9C901A0E0B0E084366E
:104270009105A105B10590F0843F31E09307A105B8
:10428000B10508F45AC3843C49E09407A105B1057F
:1042900008F458C39C0174E27AAB08C0E1E2EAABCF
:1042A00024E630E04497A105B105B0F16901330F70
:1042B000EE08FF082DA93EA9C901A0E0B0E0BC01AD
:1042C000CD0124E0660F771F881F991F2A95D1F72B
:1042D000A70196010E942825892D092C000C990B15
:1042E000829F8001839F100D929F100D11249201D7
:1042F000AFE0B0E00E947425A70196010E94282536
:104300008B2D0B2C000C990B829FF001839FF00DDD
:10431000929FF00D112404C0E0E0F0E000E010E016
:10432000C090C203D090C30331E0D3227801C8010A
:1043300001963C0117FD7C01F594E794EC0CFD1C03
:10434000CF0163E070E00E9453292EE1269FC00157
:10435000279F900D1124E80EF91E31E0831611F00D
:1043600025E001C024E0C80117FF04C08827992771
:10437000801B910B482F417847FF03C041504E6F7F
:104380004F5F342FCF01F7FF04C0882799278E1B7A
:104390009F0B63E00E94312971E0B71203C082E0F5
:1043A000891B982F8FEF981202C03A2D341B32963A
:1043B000359710F49A2D9B19E3E06E16710428F4DA
:1043C00031E00F3F1F4F09F430E0882011F010ED6D
:1043D00001C016ED49A9443031F0632F660F360F46
:1043E000390F130F15C08091790390917A03409192
:1043F000770350917803841B950B8A519D4FB1012F
:104400000E943F296DE270E00E943F2912E7160FDB
:104410007AA97093E1061092E2066091C003709150
:10442000C103717081EE96E02AAF0E94F4061093EA
:10443000E1061092E206B70181EE96E00E94F406D2
:104440002AAD2093E1061092E206B60181EE96E0D5
:104450000E94F406839470CE80916E04882371F1DB
:1044600080911604882381F01092E10686E00E9474
:10447000DC05882349F0609188037091890371708D
:1044800081EE96E00E94F4061092E3068EEA809395
:10449000E1068FEA8093E20680910904882371F097
:1044A00081E20E94DC05882349F06091BE0370918F
:1044B000BF03717081EE96E00E94F40680915F0464
:1044C000853048F010925F0481E090916004911172
:1044D00080E0809360040E94650500916A04109159
:1044E0006B0420916C0430916D0408511C4F2F4FC8
:1044F0003F4F061717072807390708F0EBC000934E
:104500006A0410936B0420936C0430936D04109232
:104510005E0480917204909173049093AA04809336
:10452000A904109273041092720480917404909103
:1045300075049093A8048093A704109275041092B8
:10454000740480917604909177049093A6048093EC
:10455000A50410927704109276048091AB04909198
:10456000AC0401969093AC048093AB048091D50386
:10457000811117C05E9880EA0E940F078FEF0E949A
:104580000F07837090917603981719F00E94D70A4D
:1045900008C080E80E940F078FEF0E940F0783FF7B
:1045A000F5CF80916F04811103C010927B0303C08B
:1045B000815080936F0480916E04882319F081509C
:1045C00080936E0480917004882319F08150809349
:1045D0007004D0907104F1E0DF122FC08AE3E82E5E
:1045E00081E0F82E64E670E080E090E00E942B0508
:1045F000F70161917191819191917F010E94D41194
:1046000085EF96E00E941204EBEBF4E0309709F49A
:104610006AC184918F010F5F1F4F882309F463C122
:10462000082E000C990B0E94461265E070E080E0B5
:1046300090E00E942B05F801E9CFDD2019F0DA9413
:10464000D09271048091D403811109C080917903C3
:1046500090917A03909378038093770316C08091AA
:10466000A3049091A40401969093A4048093A304BE
:104670008091A1049091A20401969093A20480934A
:10468000A1041092D2030E9433118091AD04909145
:10469000AE0401969093AE048093AD0480916504BE
:1046A000813051F48091D203882331F060E08EECA8
:1046B0000E94BB051092650480916504882319F05F
:1046C00081508093650480916404882319F081509F
:1046D0008093640481E00E946A0B0E9434040C946D
:1046E000B6138AE791E00C944B198BE10E94DC052C
:1046F000882311F40C94751A0E94650540908F046C
:1047000050909004609091047090920428EE420EB4
:1047100023E0521E611C711C641575058605970502
:10472000D8F480918E04F801823059F42EE1B29EC3
:10473000E019F1091124EC19FD09EF57FE4F89EC3E
:104740000AC03EE1B39EE00DF11D1124EC19FD09F4
:10475000EF57FE4F8FEC80830E9465050091860421
:1047600010918704209188043091890408511C4FCE
:104770002F4F3F4F601771078207930710F00C947B
:10478000751A8091850497012F573E4FF9018230A9
:1047900039F44EE1B49EE019F109112489EC06C008
:1047A0007EE1B79EE00DF11D11248FEC80830C9407
:1047B000751A23E044E062EE76E0C8010E948106AB
:1047C00089EA8093E6061092E7066091A60370914D
:1047D000A70371706150710981EE96E00E94F406A2
:1047E0000C94D61AC0906F03D0907003E0907103C0
:1047F000F09072036CCB8C599F4FAF4FBF4F8C150D
:104800009D05AE05BF0510F46C017D01C0929B04AF
:10481000D0929C04E0929D04F0929E0466CB10918D
:1048200020041123A9F0C701B60124E630E040E0DE
:1048300050E00E945225812F90E0A0E0B0E02817C0
:1048400039074A075B0720F080916004811152CB41
:104850004AE062EE76E0C6010E94DD24E091FF03AB
:10486000F0E0EE5CFE4F82818093E1066091800370
:1048700070918103717081EE96E00E94F4063ACB4C
:104880000E9414272DED3FE347EB5CE371CB8017CB
:10489000910708F081CB1093A00400939F047CCB78
:1048A00080912204882341F090E08017910720F442
:1048B00080916004811175CBEF2DF0E0E05DFE4F3B
:1048C00080818093E1064AE062EE76E0C8010E94B2
:1048D000DD246091820370918303717081EE96E014
:1048E0000E94F4065ECB3EE4E31631E0F30609F0E5
:1048F00079CE85EF96E00E94120464E670E080E0D5
:1049000090E00E942B0560E072EC81E090E00E9454
:10491000D4110FE214E0F801649185EF96E00E9453
:10492000CB0365E070E080E090E00E942B050F5F14
:104930001F4FF9ADF013EFCF82CE42E24AAB24EF26
:1049400031E0B4CC73E27AAB24EC39E0AFCCE5EFE4
:10495000F6E01382128288EE93E0A0E0B0E0848358
:104960009583A683B78387E591E09183808385EC67
:1049700090E09587848784EC90E09787868780EC29
:1049800090E0918B808B81EC90E0938B828B82EC1A
:1049900090E0958B848B86EC90E0978B868B118EC4
:1049A000128E138E148E0895FB01DC0102C0059057
:1049B0000D9241505040D8F70895BB274A3031F44A
:1049C000992322F4BDE2909581959F4F0C94E924A0
:1049D000BB27FB015527AA27880F991FAA1FA417D9
:1049E00010F0A41B83955051B9F7A05DAA3308F0CD
:1049F000A95DA193009779F7B111B1931192CB0101
:104A00000C940225DC01FC01672F71917723E1F7FB
:104A1000329704C07C916D9370836291AE17BF078B
:104A2000C8F30895F999FECF92BD81BDF89A9927F0
:104A300080B50895262FF999FECF1FBA92BD81BD8A
:104A400020BD0FB6F894FA9AF99A0FBE0196089510
:104A5000052E97FB1EF400940E943F2557FD07D0BA
:104A60000E94522507FC03D04EF40C943F2550952C
:104A70004095309521953F4F4F4F5F4F089590954A
:104A80008095709561957F4F8F4F9F4F08950E943D
:104A90007425A59F900DB49F900DA49F800D911D2E
:104AA00011240895A1E21A2EAA1BBB1BFD010DC003
:104AB000AA1FBB1FEE1FFF1FA217B307E407F507CE
:104AC00020F0A21BB30BE40BF50B661F771F881FAA
:104AD000991F1A9469F760957095809590959B0140
:104AE000AC01BD01CF010895A29FB001B39FC001E9
:104AF000A39F700D811D1124911DB29F700D811D0A
:104B00001124911D08955058BB27AA270E949B2568
:104B10000C94DE270E94A52738F00E94AC2720F0D5
:104B200039F49F3F19F426F40C947B270EF4E0959A
:104B3000E7FB0C947527E92F0E94032858F3BA1756
:104B4000620773078407950720F079F4A6F50C94A3
:104B500025280EF4E0950B2EBA2FA02D0B01B901DC
:104B600090010C01CA01A0011124FF27591B99F0E3
:104B7000593F50F4503E68F11A16F040A22F232FEF
:104B8000342F4427585FF3CF469537952795A7953F
:104B9000F0405395C9F77EF41F16BA0B620B730BE6
:104BA000840BBAF09150A1F0FF0FBB1F661F771F57
:104BB000881FC2F70EC0BA0F621F731F841F48F40C
:104BC000879577956795B795F7959E3F08F0B0CF95
:104BD0009395880F08F09927EE0F9795879508957C
:104BE0000E94A52760F080E891E009F49EEF0E9402
:104BF000AC2728F040E851E071F45EEF0CC00C9453
:104C00007B270C942528E92FE0780E94032840F3A5
:104C1000092E052AB1F3261737074807590738F038
:104C20000E2E07F8E02569F0E025E0640AC0EF6386
:104C300007F8009407FADB01B9019D01DC01CA0104
:104C4000AD01EF930E9483260E94DE270E94332647
:104C50005F91552339F02BED3FE049E450FD49ECDD
:104C60000C9484250895DF93DD27B92FBF7740E8A2
:104C70005FE31616170648075B0718F4D92F0E9442
:104C800031289F938F937F936F930E94F428EAE7D4
:104C9000F0E00E947E270E94DE272F913F914F91E6
:104CA0005F910E944C28DD2351F09058A2EA2AED32
:104CB0003FE049EC5FE3D0785D270E949B25DF91C0
:104CC0000C94DE270E94512708F481E008950E9489
:104CD000B527E3950C94EF270E9480260C94DE27DD
:104CE0000E94AC2758F00E94A52740F029F45F3FAE
:104CF00029F00C94752751110C9426280C947B27CD
:104D00000E94032868F39923B1F3552391F3951B6F
:104D1000550BBB27AA2762177307840738F09F5FDC
:104D20005F4F220F331F441FAA1FA9F335D00E2E49
:104D30003AF0E0E832D091505040E695001CCAF7B6
:104D40002BD0FE2F29D0660F771F881FBB1F261779
:104D500037074807AB07B0E809F0BB0B802DBF0150
:104D6000FF2793585F4F3AF09E3F510578F00C941F
:104D700075270C9426285F3FE4F3983ED4F386957C
:104D800077956795B795F7959F5FC9F7880F911D40
:104D90009695879597F90895E1E0660F771F881F2C
:104DA000BB1F621773078407BA0720F0621B730BDF
:104DB000840BBA0BEE1F88F7E09508950E94E52654
:104DC0006894B1110C94262808950E940B2888F04D
:104DD0009F5798F0B92F9927B751B0F0E1F0660FBF
:104DE000771F881F991F1AF0BA95C9F714C0B13000
:104DF00091F00E942528B1E008950C942528672F92
:104E0000782F8827B85F39F0B93FCCF3869577952E
:104E10006795B395D9F73EF4909580957095619517
:104E20007F4F8F4F9F4F0895E89409C097FB3EF442
:104E300090958095709561957F4F8F4F9F4F9923E7
:104E4000A9F0F92F96E9BB279395F6958795779565
:104E50006795B795F111F8CFFAF4BB0F11F460FF25
:104E60001BC06F5F7F4F8F4F9F4F16C0882311F07D
:104E700096E911C0772321F09EE8872F762F05C091
:104E8000662371F096E8862F70E060E02AF09A952C
:104E9000660F771F881FDAF7880F9695879597F921
:104EA0000895990F0008550FAA0BE0E8FEEF1616BB
:104EB0001706E807F907C0F012161306E407F5070E
:104EC00098F0621B730B840B950B39F40A2661F082
:104ED000232B242B252B21F408950A2609F4A14025
:104EE000A6958FEF811D811D089597F99F6780E832
:104EF00070E060E008959FEF80EC0895DF93CF931A
:104F00001F930F93FF92EF92DF927B018C016894C5
:104F100006C0DA2EEF010E944C28FE01E894A5910C
:104F20002591359145915591A6F3EF010E949B255E
:104F3000FE019701A801DA9469F7DF90EF90FF90E6
:104F40000F911F91CF91DF91089500240A941616B6
:104F5000170618060906089500240A941216130667
:104F60001406050608950C947B270E940B28D8F39D
:104F7000E894E0E0BB279F57F0F02AED3FE049ECD2
:104F800006C0EE0FBB0F661F771F881F28F0B23ACE
:104F900062077307840728F0B25A620B730B840B05
:104FA000E3959A9572F7803830F49A95BB0F661F97
:104FB000771F881FD2F790480C94FA28092E039483
:104FC000000C11F4882352F0BB0F40F4BF2B11F4F6
:104FD00060FF04C06F5F7F4F8F4F9F4F0895EF9327
:104FE000E0FF07C0A2EA2AED3FE049EC5FEB0E9438
:104FF0009B250E94DE270F90039401FC9058E7EA5E
:10500000F0E00C940D2957FD9058440F551F59F0AE
:105010005F3F71F04795880F97FB991F61F09F3FA5
:1050200079F087950895121613061406551FF2CFCE
:105030004695F1DF08C0161617061806991FF1CF1E
:1050400086957105610508940895E894BB27662745
:105050007727CB0197F908950E94512708F48FEF25
:1050600008959B01AC0160E070E080E89FE30C9440
:105070006C260E944C280C94DE270E94A52738F04D
:105080000E94AC2720F0952311F00C9475270C9406
:105090007B2711240C9426280E94032870F3959FE7
:1050A000C1F3950F50E0551F629FF001729FBB271F
:1050B000F00DB11D639FAA27F00DB11DAA1F649FBB
:1050C0006627B00DA11D661F829F2227B00DA11D6E
:1050D000621F739FB00DA11D621F839FA00D611DF4
:1050E000221F749F3327A00D611D231F849F600D15
:1050F000211D822F762F6A2F11249F5750409AF03E
:10510000F1F088234AF0EE0FFF1FBB1F661F771FC9
:10511000881F91505040A9F79E3F510580F00C9494
:1051200075270C9426285F3FE4F3983ED4F38695C8
:1051300077956795B795F795E7959F5FC1F7FE2B34
:10514000880F911D9695879597F908959F930E94D2
:10515000B5270F9007FCEE5F0C94EF2719F416F4B7
:105160000C947B270C94F8280E940B28B8F3992301
:10517000C9F3B6F39F57550B87FF0E9406290024F9
:10518000A0E640EA900180585695979528F4805CF7
:10519000660F771F881F20F026173707480730F45F
:1051A000621B730B840B202931294A2BA695179477
:1051B0000794202531254A2758F7660F771F881F47
:1051C00020F026173707480730F4620B730B840B67
:1051D000200D311D411DA09581F7B901842F9158F3
:1051E000880F9695879508959B01AC010C943928FA
:1051F0009F3F31F0915020F4879577956795B7954B
:10520000880F911D9695879597F908959150504074
:10521000660F771F881FD2F708959F938F937F9310
:105220006F93FF93EF939B01AC010E943928EF919C
:10523000FF910E947E272F913F914F915F910C9497
:105240003928DB018F939F930E944725BF91AF912F
:10525000A29F800D911DA39F900DB29F900D1124D0
:10526000089587FB082E062687FD819567FD6195C9
:105270000E946D290EF4919507FC81950895AA1B53
:10528000BB1B51E107C0AA1FBB1FA617B70710F031
:10529000A61BB70B881F991F5A95A9F78095909563
:1052A000BC01CD01089597FB072E16F4009407D09A
:1052B00077FD09D00E943F2907FC05D03EF4909568
:1052C00081959F4F0895709561957F4F0895EE0FDA
:1052D000FF1F0590F491E02D0994991B79E004C01B
:1052E000991F961708F0961B881F7A95C9F7809525
:1052F000089581E090E0F8940C947E29F894FFCF13
:105300000110101E4C046C07DC05DC05DC05DC0517
:10531000DC05DC05DC05DC05DC05DC05DC05DC0585
:10532000DC05DC05DC05DC050000030A01010132B7
:10533000A5A6A7A8BBB97AA7DFBB80250000004BB4
:1053400000000096000000E1000000C201000E1005
:105350000F141100000000CB03470394037203866F
:065360000312042D000001
:107800000C94343C0C94513C0C94513C0C94513CE1
:107810000C94513C0C94513C0C94513C0C94513CB4
:107820000C94513C0C94513C0C94513C0C94513CA4
:107830000C94513C0C94513C0C94513C0C94513C94
:107840000C94513C0C94513C0C94513C0C94513C84
:107850000C94513C0C94513C0C94513C0C94513C74
:107860000C94513C0C94513C11241FBECFEFD8E036
:10787000DEBFCDBF11E0A0E0B1E0ECE9FFE702C060
:1078800005900D92A230B107D9F712E0A2E0B1E065
:1078900001C01D92AD30B107E1F70E942D3D0C945F
:1078A000CC3F0C94003C982F959595959595959582
:1078B000905D8F708A307CF0282F295A8091C0000B
:1078C00085FFFCCF9093C6008091C00085FFFCCF60
:1078D0002093C6000895282F205DF0CF982F809127
:1078E000C00085FFFCCF9093C6000895EF92FF92F1
:1078F0000F931F93EE24FF2487018091C00087FD22
:1079000017C00894E11CF11C011D111D81E4E8164B
:1079100082E4F8068FE0080780E0180770F3E09132
:107920000401F091050109958091C00087FFE9CF1E
:107930008091C6001F910F91FF90EF9008950E94D3
:10794000763C982F8091C00085FFFCCF9093C600B5
:1079500091362CF490330CF09053892F089597555D
:10796000892F08951F930E949F3C182F0E949F3CCF
:107970001295107F810F1F9108951F93182F882350
:1079800021F00E94763C1150E1F71F9108951F935A
:10799000182F0E94763C803249F0809103018F5F5E
:1079A000809303018530C1F01F9108958091C0003C
:1079B00085FFFCCF84E18093C6008091C00085FFE5
:1079C000FCCF1093C6008091C00085FFFCCF80E102
:1079D0008093C6001F910895E0910401F091050184
:1079E00009951F9108950E94763C803241F0809164
:1079F00003018F5F80930301853081F008958091AA
:107A0000C00085FFFCCF84E18093C6008091C00058
:107A100085FFFCCF80E18093C6000895E0910401CA
:107A2000F09105010995089540E951E08823A1F0FE
:107A30002D9A28EE33E0FA013197F1F721503040CA
:107A4000D1F72D9828EE33E0FA013197F1F7215064
:107A50003040D1F7815061F708953F924F925F9285
:107A60006F927F928F929F92AF92BF92CF92DF924E
:107A7000EF92FF920F931F93CF93DF93000080E16B
:107A80008093C4001092C50088E18093C10086E015
:107A90008093C2005098589A259A81E00E94143D24
:107AA00024E1F22E9EE1E92E85E9D82E0FE0C02ECA
:107AB00010E1B12EAA24A394B1E49B2EA6E58A2E50
:107AC000F2E57F2EE0E26E2E79E4572E63E5462E36
:107AD00050E5352E0E94763C8033B1F18133B9F107
:107AE000803409F46FC0813409F476C0823409F41B
:107AF00085C0853409F488C0803531F1823521F1A3
:107B0000813511F1853509F485C0863509F48DC0BC
:107B1000843609F496C0843709F403C1853709F423
:107B200072C1863709F466C0809103018F5F80932C
:107B30000301853079F6E0910401F0910501099582
:107B40000E94763C803351F60E94F33CC3CF0E94E2
:107B5000763C803249F78091C00085FFFCCFF092DF
:107B6000C6008091C00085FFFCCF9092C600809136
:107B7000C00085FFFCCF8092C6008091C00085FFC9
:107B8000FCCF7092C6008091C00085FFFCCF609250
:107B9000C6008091C00085FFFCCF5092C600809146
:107BA000C00085FFFCCF4092C6008091C00085FFD9
:107BB000FCCF3092C6008091C00085FFFCCFB09210
:107BC000C60088CF0E94763C863808F4BDCF0E945C
:107BD000763C0E94F33C7ECF0E94763C803809F4CC
:107BE0009CC0813809F40BC1823809F43CC1883942
:107BF00009F48FC080E00E94C73C6CCF84E10E94F2
:107C0000BD3C0E94F33C66CF85E00E94BD3C0E94D3
:107C1000F33C60CF0E94763C809306010E94763C44
:107C2000809307010E94F33C55CF0E94763C80333D
:107C300009F41DC183E00E94BD3C80E00E94C73C66
:107C400049CF0E94763C809309020E94763C809343
:107C5000080280910C028E7F80930C020E94763C79
:107C6000853409F415C18091080290910902892B8D
:107C700089F000E010E00E94763CF801E85FFE4FDA
:107C800080830F5F1F4F80910802909109020817AF
:107C9000190788F30E94763C803209F045CF809125
:107CA0000C0280FF01C16091060170910701660F0F
:107CB000771F7093070160930601A0910802B091AD
:107CC00009021097C9F0E8E0F1E09B01AD014E0F09
:107CD0005F1FF999FECF32BD21BD819180BDFA9A17
:107CE000F99A2F5F3F4FE417F50799F76A0F7B1F4B
:107CF00070930701609306018091C00085FFFCCF5F
:107D0000F092C6008091C00085FFFCCFB092C60003
:107D1000E1CE83E00E94C73CDDCE82E00E94C73CFA
:107D2000D9CE0E94763C809309020E94763C8093D3
:107D300008028091060190910701880F991F909386
:107D40000701809306010E94763C853409F4A6C0A1
:107D500080910C028E7F80930C020E94763C8032D0
:107D600009F0B8CE8091C00085FFFCCFF092C6002C
:107D7000609108027091090261157105B9F140E046
:107D800050E080910C02A82FA170B82FB27011C0E2
:107D9000BB2309F45CC0E0910601F0910701319624
:107DA000F0930701E09306014F5F5F4F46175707B7
:107DB000E8F4AA2369F3F999FECF209106013091E6
:107DC000070132BD21BDF89A90B58091C00085FFB2
:107DD000FCCF9093C6002F5F3F4F30930701209355
:107DE00006014F5F5F4F4617570718F38091C00099
:107DF00085FDE5CE8091C00085FFF8CFE0CE81E023
:107E00000E94C73C67CE0E94763C803209F08CCE3F
:107E10008091C00085FFFCCFF092C6008091C00029
:107E200085FFFCCFE092C6008091C00085FFFCCFAB
:107E3000D092C6008091C00085FFFCCFC092C600E2
:107E40008091C00085FFFCCFB092C60043CEE09188
:107E50000601F091070194918091C00085FFFCCF4D
:107E60009093C6009CCF80E10E94C73C33CE0E9415
:107E7000763C0E94763C182F0E94763C112309F430
:107E800083C0113009F484C08FE00E94C73C22CE29
:107E900080910C02816080930C02E5CE80910C02EF
:107EA000816080930C0259CF809107018823880F4D
:107EB000880B8A2180930B02809106019091070123
:107EC000880F991F90930701809306018091080203
:107ED00080FF09C080910802909109020196909359
:107EE000090280930802F894F999FECF1127E091D6
:107EF0000601F0910701C8E0D1E08091080290915D
:107F00000902103091F40091570001700130D9F34B
:107F100003E000935700E89500915700017001308D
:107F2000D9F301E100935700E89509901990009169
:107F3000570001700130D9F301E000935700E89534
:107F40001395103498F011270091570001700130FB
:107F5000D9F305E000935700E895009157000170B0
:107F60000130D9F301E100935700E895329602976A
:107F700009F0C7CF103011F00296E5CF112480919F
