:100000000C9402030C9448070C942A030C942A03C2
:100010000C94AF070C942A030C942A030C942A0323
:100020000C942A030C942A030C942A030C942A039C
:100030000C942A030C942A030C942A030C942A038C
:100040000C9424150C942A030C94830D0C945D0DD0
:100050000C942A030C942A030C942A030C942A036C
:100060000C942A030C942A03BA03C203CA03D203D2
:10007000DA03E203EA03A104A904B104B904C10448
:10008000C904D104D90436053E0546054E0556057A
:100090005E056605D612DC12E212E812A613EE1215
:1000A000A613A613F412A613FF1214132913A613F2
:1000B000A613A6133E13A613A613531368137D139A
:1000C000A613A613A613A613A613A613921305A888
:1000D0004CCDB2D44EB93836A9020C50B9918688AD
:1000E000083CA6AAAA2ABE000000803F4E4F54201A
:1000F00044455445435445442D50414C004E4F54C3
:100100002044455445435445442D4E5453430041E7
:1001100055544F2D50414C004155544F2D4E545382
:10012000430053493A0049443A00202020202B50F4
:10013000495443482046554C4C00202020202B5940
:100140004157205249474854004D454E553A54486E
:100150005254204D4944444C4500004D572D4F53B7
:1001600044202D2052312E37005445585420414C04
:1001700041524D5300414D5053004D41482058319C
:1001800030300054494D45520053504545440041DC
:100190004C54495455444520583130004449535437
:1001A000414E43452058313030005448524F54544A
:1001B0004C452050574D004F53442054582043483D
:1001C000004D41472043414C0044454255470056AD
:1001D0002052454600554E495453004D4150204D44
:1001E0004F44450047494D42414C0053454E534F03
:1001F00052530047505320434F4F524453005448EA
:10020000524F54544C45005343524F4C4C494E4767
:100210002042415253005349444520424152530029
:10022000484F52495A4F4E0041444A555354205A60
:1002300045524F0041444A55535420414D505300BC
:10024000555345205649525455414C2053454E5321
:100250004F5200444953504C4159204D41480044AD
:100260004953504C415920414D505300534554205F
:1002700052535349204D494E005345542052535335
:1002800049204D4158005553452050574D00534586
:1002900054205253534900444953504C4159205221
:1002A000535349005553452046430043454C4C5356
:1002B00000444953504C41592056494420564F4C14
:1002C0005453004D41494E20564F4C545320414CFD
:1002D00041524D0041444A55535420564F4C5453BB
:1002E00000444953504C4159204D41494E20564FEE
:1002F0004C5453004D415820414D5053004D4148FE
:100300002055534544004D41582053504545440025
:100310004D415820414C544954554445004D415895
:100320002044495354414E434500544F54204449BE
:100330005354414E434500464C592054494D4500C5
:10034000414C41524D5300414456414E43454400B7
:10035000444953504C41590043555252454E540064
:100360005253534900564F4C544147450053544152
:1003700054495354494353004445425547004C4F58
:100380005720564F4C5453004C4F57205341545311
:1003900000204E4F20475053004E4F2044415441BF
:1003A000002041524D45440044495341524D45447B
:1003B00000204D495353494F4E004155544F20485A
:1003C0004F4C44004155544F2052544800001801EE
:1003D0000F01FD00EC005B015A0149013A012A01BD
:1003E0005A01260122019C018F01890183017A01B2
:1003F00075016901312E315600355600494D5000C6
:100400004D455400D501CF01C901C101B701AA0171
:10041000200216020702FE01F301EB01E401DB01F9
:100420005F02530240023402280297028E02A402A5
:10043000860279026C02E102D402C302B102D40244
:10044000AB02A40237032A031D0310030603FD02B7
:10045000F4023C504147453E00534156452B455818
:1004600049540045584954006D036503600358031F
:10047000500347034003CD03A803A103990391034D
:1004800088037E0378031D1A1D1C1D191D1C1D1BCE
:100490001D1C1D181D1C1D1A1D1C1D191D1C1D1B9E
:1004A0001DCD03C403BA03B1034F4E004F464600AF
:1004B00020007BC12A00210090005400240072001B
:1004C00027003500CB0060017EC17EC137C110011D
:1004D0001D0102000F004C01F2006BC12FC175011C
:1004E0007F01C200BB00BB00030007007A0055017A
:1004F00006015C003400C50064005701BA00180111
:10050000DCC020C034C036C0B7C090C054C024C0C6
:1005100072C028C0CBC0CAC060C17EC17EC137C115
:1005200010011D0102C00FC04DC1F3C06BC12FC12E
:1005300071C178C1C2C0BBC0BBC0030007007AC094
:1005400055C106C15CC03400C30064C05301BA0089
:1005500018C1DCC000000000960000000004F40197
:1005600058020D00003C000000018A04C800000091
:1005700000000100C8003264010101000000010018
:100580000000010100000100000100000000000166
:10059000010101010001010004000000050001004B
:1005A0000000001E4D574F53440020202020AC0473
:1005B000A90400000000240027002A000000000019
:1005C000250028002B00040404040404040402028F
:1005D00002020202030303030303010204081020C2
:1005E00040800102040810200102040810200000CD
:1005F00000080002010000030407000000000000E2
:100600000000282A11241FBECFEFD8E0DEBFCDBFE7
:1006100027E0A6E5B1E001C01D92A530B207E1F7E1
:1006200011E0A0E0B1E0ECE6FCE502C005900D921F
:10063000A635B107D9F713E0C2E0D3E004C0219793
:10064000FE010E949B2AC130D107C9F70E946E1596
:100650000C94342E0C9400006091620586E591E0C4
:100660000C94E80CCF93C82F682F86E591E00E9488
:10067000E80C80916205C827C0936205CF91089568
:10068000CF93DF931F92CDB7DEB799830E943203D9
:100690009981892F0F90DF91CF910C943203CF93E2
:1006A000DF93D82FC62F64E286E591E00E94E80C24
:1006B0006DE486E591E00E94E80C6CE386E591E04C
:1006C0000E94E80C109262058C2F0E9432038D2F3D
:1006D0000E943203C11104C0DF91CF910C942C030E
:1006E000DF91CF910895DF92EF92FF920F931F93C6
:1006F000CF93DF93809109018A30C9F4909108016A
:100700009330A9F49091630592301CF091E090939E
:100710006305909163059F3F1CF49FEF90936305E1
:1007200020910A0190916305920F90930A01909194
:100730000A0197FF03C096E090930A0190910A0185
:10074000973014F010920A0190910A01913009F04B
:1007500049C020910801233009F0C0C1482F50E062
:10076000FA013197E730F10508F0B8C1EC5CFF4FB2
:100770000C949B2A21E03091BD04311120E020939C
:10078000BD04ACC1309163052091C004230F2093B8
:10079000C004A4C1309163052091BE04230F2093AF
:1007A000BE049CC121E03091C704311120E02093A8
:1007B000C70494C1309163052091C804230F20938E
:1007C000C8048CC1309163052091BF04230F20938E
:1007D000BF0484C121E03091C104311120E0209395
:1007E000C1047CC1923009F04DC020910801233032
:1007F00009F074C1833039F148F48130E1F082307E
:1008000009F06CC18FE080930C05EEC1853059F181
:1008100010F1863009F062C1209163058091FB01DF
:100820009091FC01820F911D27FD9A959093FC01F8
:100830008093FB01D9C181E09091BA04911180E0CD
:100840008093BA04D1C181E09091BB04911180E002
:100850008093BB04C9C121E03091BC04311120E078
:100860002093BC043BC1209163058091FD019091D0
:10087000FE01820F911D27FD9A959093FE018093B2
:10088000FD01B2C1933009F048C020910801233026
:1008900009F024C1833051F128F48130B9F082305D
:1008A000E9F01CC1843051F1853009F017C1209165
:1008B00063058091F7019091F801820F911D27FD4A
:1008C0009A959093F8018093F7018EC181E0909101
:1008D000C204911180E08093C20486C181E09091AE
:1008E000C404911180E08093C4047EC181E09091A2
:1008F000C504911180E08093C50476C12091630501
:100900008091F9019091FA01820F911D27FD9A952E
:100910009093FA018093F90167C1943009F051C0B6
:1009200020910801233009F0D9C0482F50E0FA0186
:100930003197E830F10508F0D1C0E55CFF4F0C9429
:100940009B2A21E03091D604311120E02093D60477
:10095000C5C021E03091D704311120E02093D704A5
:10096000BDC021E03091E304311120E02093E30485
:10097000B5C021E03091D504311120E02093D50499
:10098000ADC021E03091CD04311120E02093CD04A1
:10099000A5C021E03091EA04311120E02093EA045F
:1009A0009DC021E03091E404311120E02093E40463
:1009B00095C0309163052091DA04230F2093DA0467
:1009C0008DC0953009F03FC020910801233009F017
:1009D00085C08330E1F028F4813049F0823079F02D
:1009E0007DC0853001F1D8F0863029F177C081E0F3
:1009F0009091D304911180E08093D304F5C081E0FD
:100A00009091DB04911180E08093DB04EDC081E0E4
:100A10009091E204911180E08093E204E5C02AE025
:100A200020930D055BC0909163058091F004890FC0
:100A30008093F004D9C081E09091C904911180E0C5
:100A40008093C904D1C0963009F048C020910801B4
:100A5000233009F043C0482F50E0FA013197E730C6
:100A6000F105E0F5ED5BFF4F0C949B2A9091630537
:100A70008091F404890F8093F404B6C090916305CB
:100A80008091F504890F8093F504AEC090916305C1
:100A90008091F604890F8093F604A6C090916305B7
:100AA0008091F704890F8093F7049EC090916305AD
:100AB0008091CA04890F8093CA0496C090916305FF
:100AC0008091CB04890F8093CB048EC081E09091FC
:100AD000C604911180E08093C60486C08A3009F074
:100AE00083C090932F0180910801813009F473C075
:100AF000823009F079C080918F0580938E056EE178
:100B00008AEC0E944F038EE6E82E85E0F82E04E67C
:100B100015E0C8E7D5E0DC2E8AE0D80E89910E9466
:100B20003203F70181917F010E943203F801819124
:100B30008F010E943203DC12F1CF0E942C0367E088
:100B40008CEC0E944F03809188050E9432038091B3
:100B500087050E943203809186050E9432038091AE
:100B600085050E943203809184050E9432038091A2
:100B700083050E943203809182050E9432030E9405
:100B80002C0306EB14E0C0E0D0E0F80161918F0186
:100B9000CE010E94B50D2196CC34D105B1F705EFF9
:100BA00011E0F8016081CE010E94B50DF80161816C
:100BB0000E5F1F4FCE0101960E94B50D2296CA35D9
:100BC000D10579F76DE080E090E00E94B50D60E01E
:100BD0008AEF0E944F03DF91CF911F910F91FF90F9
:100BE000EF90DF900C94B90DDF91CF911F910F9191
:100BF000FF90EF90DF900895E091F40581E08E0F73
:100C00008093F405F0E0EB50FA4F80810895CF9384
:100C1000DF930E94FC05C82FD0E00E94FC059E01D6
:100C2000382BC901DF91CF910895CF92DF92EF92D7
:100C3000FF920E9407066C01E12CF12C0E9407062E
:100C4000A0E0B0E0DC0199278827BC01CD016C2928
:100C50007D298E299F29FF90EF90DF90CF900895F6
:100C6000E82FF0E0EE0FFF1FE65EFB4F20813181A1
:100C70002227307C81E02115304C09F080E0089576
:100C80003F924F925F926F927F928F929F92AF921C
:100C9000BF92CF92DF92EF92FF920F931F93CF9369
:100CA000DF938A01D22F222311F0C8E001C0C5E0F2
:100CB000F801EC0FF11D1082DC2ECD2E3AE0432E10
:100CC000512C612C712C46E0842E912CA12CB12C3E
:100CD0005AE3352E2FEF2D0D7801E20EF11C27FD82
:100CE000FA94A30192010E94032E80E3860FF7017C
:100CF00080838EEF8D0D7801E80EF11C87FDFA944C
:100D0000CA01B901A50194010E94032E605DF7019B
:100D10006083B901CA01FDEFDF0EF801ED0DF11D91
:100D2000D7FCFA953082CA942FEFC212D3CF2D2F61
:100D3000220FD20FCD1BC3502AE0822E912CA12C62
:100D4000B12CC1507801EC0EF11CC7FDFA94A5013D
:100D500094010E94032E605DF7016083B901CA010E
:100D6000611571058105910511F0C111EACF80E28D
:100D7000CC2341F0C150F801EC0FF11DC7FDFA95ED
:100D80008083F6CFC801DF91CF911F910F91FF9023
:100D9000EF90DF90CF90BF90AF909F908F907F901B
:100DA0006F905F904F903F900895EF92FF920F9356
:100DB0001F93CF93DF93FB0197FF05C0919581951A
:100DC0009109C1E001C0C0E0DF01A40FB11D1C9278
:100DD000DEE20AE010E0421306C04150DF01A40F3A
:100DE000B11DDC9320E03FEF340F7F01E30EF11CD7
:100DF000B8010E94872A805DD7018C93CB013323F1
:100E000079F0222311F0432FE6CF0097E1F7CC23AE
:100E100039F03EEF340FDF01A30FB11D8DE28C934B
:100E200080E2332331F03150DF01A30FB11D8C93E9
:100E3000F8CFCF01DF91CF911F910F91FF90EF90ED
:100E40000895CF92DF92EF92FF920E9418156B01E6
:100E50007C0128E2C20ED11CE11CF11C81E08093D0
:100E6000610580916105882371F00E941815C616EE
:100E7000D706E806F90618F410926105F2CF80E073
:100E80000E94EC0DEECFFF90EF90DF90CF90089591
:100E90001F920F920FB60F921124109261050F90BE
:100EA0000FBE0F901F901895DB01A85EBD4FFC018F
:100EB00024910196222311F02D93F9CF08959C01DE
:100EC000E62FF0E0EA54FB4FE081F0E0EE0FFF1F69
:100ED000E255FA4F85919491B9010C945407DC01C5
:100EE000FB01E85EFD4F9D91992311F09193FBCF9B
:100EF0000895A8EFB4E0E8EEF6E02AE02E0F3D9169
:100F000031932E13FCCF1092F206BC0188EE96E0CE
:100F10000C946F078EBD0DB407FEFDCF8EB50895FE
:100F2000CF93DF931F92CDB7DEB769830E948A0704
:100F30006981862F0F90DF91CF910C948A07CF9310
:100F4000DF93C0E0D0E060E0CE010E94B50D2196B5
:100F5000C11582E0D807B9F7DF91CF9108951F92AC
:100F60000F920FB60F9211242F933F934F935F93DD
:100F70006F937F938F939F93AF93BF93CF93EF9391
:100F8000FF93C6B178940E94B91420915F05309107
:100F90006005AB01421B530B9A01293B3B4018F003
:100FA00021E020932E017093600560935F05C3FDDF
:100FB0001AC020915D0530915E05621B730BCB0159
:100FC0008F5E92408B3D954020F470935C0560935A
:100FD0005B0580912E018F5F80932E0170935A05DF
:100FE0006093590504C070935E0560935D05FF91A1
:100FF000EF91CF91BF91AF919F918F917F916F9121
:101000005F914F913F912F910F900FBE0F901F90C6
:1010100018954F925F926F927F928F929F92AF92AC
:10102000BF92FF920F931F93CF93DF93CEE3D1E054
:10103000A0E9B5E040E050E06AE089918E3008F028
:101040008E5087702091000190E4299F9001112417
:10105000822B80937C0080917A00806480937A0058
:1010600080917A0086FDFCCF8091780020917900F4
:1010700090E0922BF09058054115510541F42091D4
:10108000C104222339F180918D0590E023C04430C2
:1010900009F52091BC042223A9F080915B05909171
:1010A0005C0595958795009769F4649FF001659FAD
:1010B000F00D1124EF0DF11DEE0FFF1FE057FA4F59
:1010C000808191812091BB04222321F080918B05A6
:1010D00090918C05649FF001659FF00D1124EF0D38
:1010E000F11DEE0FFF1FE057FA4F50962D913C91E6
:1010F000519700811181201B310B51963C932E9307
:10110000509720813181820F931F96958795918307
:10111000808350962D913C915197820F931F519649
:101120009C938E9350974F5F5F4F54964530510577
:1011300009F083CF8091C1046091A0057091A10551
:10114000D091DB04811134C080E090E0C091C004F4
:10115000D11115C00E94CC2B4B015C016C2F70E0AB
:1011600080E090E00E94CE2B9B01AC01C501B40150
:101170000E94C22C27E137EB41ED58E314C00E94D6
:10118000CC2B4B015C016C2F70E080E090E00E9462
:10119000CE2B9B01AC01C501B4010E94C22C2FE6ED
:1011A00032E143E05AE30E94C22C0E949D2B05C00D
:1011B00053E0759567955A95E1F770930F02609328
:1011C0000E028091B804809307026091B40570917B
:1011D000B50580E090E0C091C804D11115C00E940F
:1011E000CC2B4B015C016C2F70E080E090E00E9402
:1011F000CE2B9B01AC01C501B4010E94C22C27E19A
:1012000037EB41ED58E314C00E94CC2B4B015C013D
:101210006C2F70E080E090E00E94CE2B9B01AC012F
:10122000C501B4010E94C22C2FE632E143E05AE32B
:101230000E94C22C0E949D2B7093090260930802A9
:101240008091C3048111C4C08091C504C091F7018D
:10125000D091F8010091F9011091FA01811144C077
:101260004E01A12CB12C2091C8053091C90543E055
:10127000359527954A95E1F7C901330FAA0BBB0BAA
:101280009C01AD01281939094A095B09D8010E945E
:10129000F82D00E014E020E030E0A90198012819C1
:1012A00039094A095B090E94D92DCA01B9010E9476
:1012B000CE2B4B015C0120E030E0A9010E941A2BEB
:1012C00087FD09C08092820490928304A0928404D6
:1012D000B092850498C010928204109283041092F8
:1012E0008404109285048FC08091130190911401A1
:1012F00060910401709105018617970740F0609195
:101300000601709107018617970708F4BC01CB010D
:10131000A0E0B0E0BC01CD01685E73408109910995
:10132000623F23E072078105910548F42AE030E02E
:1013300040E050E00E94032E49015A0105C094E6A6
:10134000892E912CA12CB12CC501B4010E94CC2B6B
:101350002B013C01A5019401C501B4010E94552A4D
:101360000E94CC2B2AE037ED43EA5CE30E94C22CBA
:101370009B01AC01C301B2010E94AE2A4B015C018A
:10138000B80180E090E00E94CC2B9B01AC01C5012C
:10139000B4010E94C22C2AE037ED43E25CE30E94D4
:1013A000C22C4B015C0180917604BE01882359F068
:1013B00080E090E00E94CC2B9B01AC01C501B40100
:1013C0000E94AE2A18C080E090E00E94CC2B13C08F
:1013D0008091890590918A0597FF02C0C29701C04C
:1013E000C29664E670E00E94872A072E000C880BE4
:1013F000990B0E94CE2B6093820470938304809398
:101400008404909385048091BA04882309F44EC023
:101410002091F0053091F10583E0359527958A9567
:10142000E1F780917404882389F080910C058F3056
:1014300029F43093FE012093FD0108C0813031F47E
:101440003093FC012093FB0110920C058090FB016E
:101450009090FC01A12CB12CC901330FAA0BBB0B3E
:101460009C01AD01281939094A095B09A4E6B0E0DD
:101470000E94F82D2091FD013091FE01890120E0AC
:1014800030E0A9019801281939094A095B090E942D
:10149000D92D2536310514F024E630E037FF02C09F
:1014A00020E030E030936D0420936C0481E08F0DD8
:1014B000883018F48093580502C010925805DF91C7
:1014C000CF911F910F91FF90BF90AF909F908F9001
:1014D0007F906F905F904F900895CF92DF92EF9240
:1014E000FF920F931F93CF93DF9380E090E00E94D1
:1014F000B70D8D3009F457C0C0E0D0E0FE01EE59C1
:10150000FA4F6491CE010E94B50D2196CC34D105DD
:10151000A9F7FE01E85FFA4F05911491602FCE0103
:101520000E94B50D612FCE0101960E94B50D229645
:10153000CA35D10571F78E010A551109C8018E5FB0
:101540009A4F7C01FC01C590D4906C2DCE010E9475
:10155000B50D6D2DCE0101960E94B50DF801E05537
:10156000FB4F05911491602FCE018E5A9F4F0E9420
:10157000B50D612FCE018D5A9F4F0E94B50DF70119
:1015800005911491602FCE018C559F4F0E94B50D8F
:10159000612FCE018B559F4F0E94B50D2296CE3FF5
:1015A000D10509F0C8CFDF91CF911F910F91FF9026
:1015B000EF90DF90CF900895BF92CF92DF92EF929D
:1015C000FF920F931F93CF93DF93C090B50422E552
:1015D000C29EC0011124B090D4040AE114E07C0141
:1015E0003CEAE30EF11CFC01E65AFF4F6F01C60115
:1015F0000E94B70DC82FD0E0F801D183C083C60187
:1016000001960E94B70D282F30E0322F22272C0F91
:101610003D1FF80131832083BB2081F0C901917007
:101620008739910558F0813F910518F4225E3F4FAC
:1016300003C0245C3F4FF80131832083F2E0CF0EDA
:10164000D11C0E5F1F4FCE14DF0489F6DF91CF91BE
:101650001F910F91FF90EF90DF90CF90BF90089572
:101660005E9A2A9864E670E080E090E00E94DE14C2
:101670002A9A80E58CBD81E08DBD8DB58EB56AE07E
:1016800070E080E090E00E94DE145E9864E670E016
:1016900080E090E00E94DE1480EA0E948A078FEFCB
:1016A0000E948A078370813029F48093D404809348
:1016B00005050CC0823029F41092D404109205055F
:1016C00005C09091D4049E5F909305058093140407
:1016D0008091D404882341F080EE91E09093F4014E
:1016E0008093F3016CE407C086E891E09093F401E5
:1016F0008093F3016CE080E00E9490075E9A9FB7B0
:10170000F894E89A809169008260809369009FBF95
:101710000C94DC0AEF92FF920F931F93CF93DF9309
:1017200006EB14E0C0E0D0E0CE010E94B70DF80156
:1017300081938F012196CC34D105B1F735EFE32E9B
:1017400031E0F32ECE010E94B70D082F10E0F70113
:1017500011830083CE0101960E94B70D90E0982F6F
:101760008827080F191FF701019311937F01229613
:10177000CA35D10539F7DF91CF911F910F91FF90B5
:10178000EF900C94DC0A80918104882329F080E09A
:1017900090E1A0E0B0E05AC080917404882329F061
:1017A0008FE996E0A4E0B0E051C08AE090E0A0E0CC
:1017B000B0E08093790490937A04A0937B04B09373
:1017C0007C042091720421FF0CC08AE190E0A0E02B
:1017D000B0E08093790490937A04A0937B04B09353
:1017E0007C0480910205813089F080917904909188
:1017F0007A04A0917B04B0917C0481608093790489
:1018000090937A04A0937B04B0937C0423FF11C0CF
:101810008091790490917A04A0917B04B0917C042A
:10182000806A8093790490937A04A0937B04B093A8
:101830007C0480918604811111C08091790490917B
:101840007A04A0917B04B0917C0498608093790421
:1018500090937A04A0937B04B0937C048091C1049C
:10186000811104C08091BB04882389F080917904A0
:1018700090917A04A0917B04B0917C049160809354
:10188000790490937A04A0937B04B0937C044091F4
:101890007D0450917E0460917F047091800480915A
:1018A000790490917A04A0917B04B0917C04842304
:1018B0009523A623B72380937D0490937E04A09361
:1018C0007F04B09380040895CF92DF92EF92FF924D
:1018D0000F931F93CF93DF936C017A018B01C0E0CC
:1018E000D0E0CE15DF0589F0D8016D918D01D601CC
:1018F000ED91FC910190F081E02DC6010995892BB5
:1019000011F47E0102C02196ECCFC701DF91CF9187
:101910001F910F91FF90EF90DF90CF900895FC0101
:10192000918D828D981761F0828DDF01A80FB11D16
:101930005D968C91928D9F5F9F73928F90E008953A
:101940008FEF9FEF0895FC01918D828D981731F0F4
:10195000828DE80FF11D858D90E008958FEF9FEF48
:101960000895FC01918D228D892F90E0805C9F4F1E
:10197000821B91098F739927089586E591E00E9453
:10198000B10C21E0892B09F420E0822F0895FC019D
:10199000848DDF01A80FB11DA35ABF4F2C91848DF8
:1019A00090E001968F739927848FA689B7892C932D
:1019B000A089B1898C9180648C93938D848D9813C8
:1019C00006C00288F389E02D80818F7D8083089591
:1019D000EF92FF920F931F93CF93DF93EC0181E07F
:1019E000888F9B8D8C8D981305C0E889F98980813B
:1019F00085FD24C0F62E0B8D10E00F5F1F4F0F7377
:101A00001127E02E8C8DE8120CC00FB607FCFACF20
:101A1000E889F989808185FFF5CFCE010E94C70C46
:101A2000F1CF8B8DFE01E80FF11DE35AFF4FF082DD
:101A30000B8FEA89FB898081806207C0EE89FF896C
:101A40006083E889F98980818064808381E090E007
:101A5000DF91CF911F910F91FF90EF900895CF9359
:101A6000DF93EC01888D8823C9F0EA89FB898081A6
:101A700085FD05C0A889B9898C9186FD0FC00FB678
:101A800007FCF5CF808185FFF2CFA889B9898C91B9
:101A900085FFEDCFCE010E94C70CE7CFDF91CF913C
:101AA000089580E090E0892B29F00E94BD0C8111FF
:101AB0000C94000008950E94802D1F920F920FB683
:101AC0000F9211242F933F934F935F936F937F93C4
:101AD0008F939F93AF93BF93EF93FF9386E591E02E
:101AE0000E94C70CFF91EF91BF91AF919F918F9191
:101AF0007F916F915F914F913F912F910F900FBE0A
:101B00000F901F9018951F920F920FB60F921124ED
:101B10002F938F939F93EF93FF93E0916601F09142
:101B200067018081E0916C01F0916D0182FD12C02E
:101B3000908180916F018F5F8F7320917001821768
:101B400051F0E0916F01F0E0EA5AFE4F958F8093DB
:101B50006F0101C08081FF91EF919F918F912F9133
:101B60000F900FBE0F901F9018950C94CB2D0C94D6
:101B7000C32D81E080930A018AE08093090183E00C
:101B80008093080110927404109275048091D90416
:101B9000882301F1109203021092040210920502B0
:101BA000109206021092F8031092F9031092FA03B1
:101BB0001092FB0310921102109210021092FD037A
:101BC0001092FC0310920B0210920A02109216045B
:101BD000109215040C94C30B2F923F924F925F9278
:101BE0006F927F928F929F92AF92BF92CF92DF922D
:101BF000EF92FF920F931F93CF93DF931F92CDB776
:101C0000DEB7382E86E591E00E94B10C21E0892BE9
:101C100009F420E088E795E03AE0380F39837CE268
:101C2000872E99249394A12CB12CE8EE4E2EE3E05C
:101C30005E2E612C712C82EA96E0F6E32F2E280EA0
:101C4000213009F0A7C586E591E00E948F0C209114
:101C50001E0530911F052F5F3F4F30931F052093C6
:101C60001E052091E6063091E7062115310559F44D
:101C700021E030E0843211F020E030E03093E706DC
:101C80002093E60672C52130310529F48D3441F4E4
:101C900082E090E00AC02230310561F48E3319F001
:101CA00080E090E002C083E090E09093E7068093AC
:101CB000E6065BC52330310591F4873928F0109290
:101CC000E7061092E60651C58093E50624E030E071
:101CD0003093E7062093E6068093E40646C5243059
:101CE000310581F425E030E03093E7062093E606E5
:101CF0008093E3069091E40689278093E40610928E
:101D0000E20633C52530310509F02FC59091E40670
:101D100098279093E4061091E2062091E5061213AD
:101D20001BC59111CCCF80911C0590911D0501968A
:101D300090931D0580931C051092F40583E0809319
:101D400016058091E3068C3D09F063C10E94FC05F5
:101D5000893009F04BC082E0809318050E94FC0591
:101D6000182F0E94FC05212F30E0280F311D3093E1
:101D7000E1062093E0060E94FC058093DF0681E0E7
:101D80008093DE060E941815DC01CB018854944F25
:101D9000AF4FBF4F8093DA069093DB06A093DC062B
:101DA000B093DD066FE18CED0E944F0389E00E9445
:101DB00032031AE0E090E006F090E106C7010E94CD
:101DC000B70D082F8093DF06C7010E944003802FC4
:101DD0000E9432038091E0069091E1060196909373
:101DE000E1068093E006115029F799C0883009F088
:101DF00056C082E0809318050AE011E00E94FC05BD
:101E0000F82E0E94FC0590E0982F88276C01CF0CDB
:101E1000D11CD092E106C092E0060E94FC05F82E8B
:101E20008093DF061093DE060E941815DC01CB01BB
:101E30008854944FAF4FBF4F8093DA069093DB06E0
:101E4000A093DC06B093DD066F2DC6010E94B50D90
:101E50006DE080E090E00E94B50DE090E006F0902B
:101E6000E10689E5E816F10429F09FE4E91691E01E
:101E7000F90611F40E948A0B015009F0BFCFEFEF71
:101E8000EE1AFE0AF092E106E092E00663E08CEDC5
:101E90000E944F0389E00E943203C7013EC0873091
:101EA00009F040C083E0809319056BE08CED0E943F
:101EB0004F0387E00E94320300E915E0F8018089B2
:101EC000918953E0969587955A95E1F70E944003D2
:101ED0000C5E1F4FF5E0043F1F0781F70E942C03A3
:101EE0006DE08CED0E944F038AE00E94320380E097
:101EF00090E00E94400380E090E00E94400385EA69
:101F000096E00E94400380E090E00E94400380E061
:101F100090E00E94400381E090E00E9440030E9414
:101F20002C0377C0833009F068C01530D9F40E94C3
:101F3000070680329D4109F06CC00E94FC05809329
:101F4000D9060E94FC058093D80680917604811101
:101F500060C08091740481115CC080918104811102
:101F600058C00CC4183309F054C042EAE42E46E0CD
:101F7000F42E87010E94FC05F80181938F012E1237
:101F8000F9CF0E94FC05082F5E986091D40461117E
:101F900060E480E00E949007602F89E00E94900733
:101FA00010E0612F8AE00E949007F70161917F01A4
:101FB0008BE00E9490071F5F163399F760EA88E074
:101FC0000E94900780EA0E948A0785FDFBCF8091DE
:101FD000D404811102C06CE001C06CE480E00E9476
:101FE00090075E9A64E170E080E090E00E94DE1469
:101FF0000F3F79F40E94300B0CC0863029F40E9408
:102000009F070E946D0A02C0853019F481E0809319
:1020100004058091E306843641F481E08093020553
:102020000E94FC058093A10684C18536E9F50E94D3
:1020300007069093A00680939F060E940706909340
:102040009E0680939D060E940706909373048093DA
:1020500072040E9415066093B1047093B2048093D9
:10206000B3049093B40420918604022F10E020E082
:1020700030E0DC01CB0180239123A223B32321E0B4
:10208000892B8A2B8B2B09F420E0209376040E9465
:10209000FC0580938F059091740491114AC180933F
:1020A0008E0580939C0645C1893609F042C10DE03A
:1020B00011E00E940706F801819391938F01F1E0EE
:1020C0000D311F07B1F780910F01909110018551DB
:1020D00095408F389140E8F480910D0190910E0168
:1020E000855195408F389140A0F4809111019091D5
:1020F0001201855195408F38914058F41092940602
:1021000040929006509291066092920670929306C9
:102110002BC080919406813039F50E9418150091EA
:102120008C0610918D0620918E0630918F06DC0171
:10213000CB01801B910BA20BB30B00919006109169
:1021400091062091920630919306081719072A07E5
:102150003B0710F41092940680929006909291069C
:10216000A0929206B0929306809194068111E1C0EC
:1021700020910F0130911001809174042B3337406E
:1021800040F120911101309112012B33374008F1B9
:1021900020911301309114012F373440D0F0811178
:1021A000BAC08091770490917804069708F4B3C080
:1021B000809176048111AFC082E08093940681E023
:1021C0008093740480912F0180930A010E94C30BB5
:1021D000A2C0882309F49FC0109163051092630583
:1021E00090917504992361F02091130130911401AD
:1021F0002531354028F092E0909394060E94B90D65
:1022000090917404992309F451C020910D013091EB
:102210000E012B3387E0380778F081E08093940635
:10222000809108018F5F80930801843008F473C0A7
:1022300083E0809308016FC02E37344068F491E04A
:102240009093940680910801815080930801811138
:1022500062C0909308015FC020910F01309110017E
:102260002B33F7E03F07A0F091E090939406809124
:102270000901815080930901811102C090930901E5
:1022800080910A01811147C08AE08093090143C00F
:102290002E37344058F481E08093940680910901F0
:1022A0008F5F809309018B3078F735C020917504DA
:1022B000211131C0992379F1812F16300CF085E07E
:1022C0008B3F0CF48BEF20911101309112012E37CE
:1022D00094E0390738F491E090939406815080930C
:1022E000630517C02B333740B0F091E0909394060C
:1022F0008F5F8093630580910A01863051F480914D
:102300000801833031F480910901853011F4109275
:102310000D050E94730380919406813051F40E9450
:10232000181560938C0670938D0680938E0690939B
:102330008F068091E3068A3609F056C085E08093C7
:1023400017050E94FC05882319F081E08093120490
:102350000E94FC05809319040E94150660930804EE
:102360007093090480930A0490930B040E9415064D
:10237000609304047093050480930604909307040B
:102380000E940706A0E0B0E02091760421110BC066
:102390008093980690939906A0939A06B0939B0613
:1023A00021E02093970640919806509199066091FC
:1023B0009A0670919B06841B950BA60BB70B809316
:1023C000000490930104A0930204B09303040E94BC
:1023D00007069093FF038093FE030E9407069093E5
:1023E0009606809395066BCC8B3699F40E9407066F
:1023F000A0E0B0E080930C0490930D04A0930E0431
:10240000B0930F040E940706909311048093100468
:1024100056CC893759F40E94FC050E94FC050E94A5
:10242000FC050E94FC058093130449CC8C36A9F46A
:102430000E94070690936F0480936E040E94070623
:1024400090937104809370040E940706843B910569
:102450000CF49BC18856914098C18D3689F40E9436
:1024600015066093120270931302809314029093E6
:1024700015020E94070690931702809316021FCC44
:102480008E36B9F40E94FC0580938D050E940706E4
:1024900090930D0280930C020E94070690938C0586
:1024A00080938B050E94070690938A058093890587
:1024B00006CC8F3631F50E94FC05809388050E947A
:1024C000FC05809387050E94FC05809386050E9489
:1024D000FC05809385050E94FC05809384050E947D
:1024E000FC05809383050E94FC0580938205809102
:1024F000790490917A04A0917B04B0917C049D7F33
:1025000027C0803771F52EE6E22E25E0F22E04E694
:1025100015E038E7C32E35E0D32E0E94FC05F60106
:1025200081936F010E94FC05F70181937F010E9456
:10253000FC05F80181938F0129812C11EECF809148
:10254000790490917A04A0917B04B0917C049B7FE4
:102550008093790490937A04A0937B04B0937C04D5
:10256000AECB873709F0ABCB81E0809303051091A8
:10257000E5068BE2E6E8F4E011928A95E9F7C12CD2
:10258000D12C7601C394112309F499CB0E94FC0548
:10259000082E000C990BAA0BBB0B8D31910508F08E
:1025A000D5C0FC01E65BFF4F0C949B2A809186040A
:1025B0008C2980938604CAC0809187048C298093DB
:1025C0008704C4C0809188048C2980938804BEC08D
:1025D000809189048C2980938904B8C080918A04F1
:1025E0008C2980938A04B2C080918B0490918C04D2
:1025F0008C299D2990938C0480938B04A7C0809193
:102600008D0490918E04A0918F04B09190048C2938
:102610009D29AE29BF2980938D0490938E04A093A9
:102620008F04B093900492C0809191049091920491
:10263000A0919304B09194048C299D29AE29BF29BF
:102640008093910490939204A0939304B093940484
:102650007DC08091950490919604A0919704B091CB
:1026600098048C299D29AE29BF29809395049093C5
:102670009604A0939704B093980468C08091A50431
:102680009091A604A091A704B091A8048C299D293B
:10269000AE29BF298093A5049093A604A093A70414
:1026A000B093A80453C08091A1049091A204A0917A
:1026B000A304B091A4048C299D29AE29BF2980933D
:1026C000A1049093A204A093A304B093A4043EC0D9
:1026D0008091A9049091AA04A091AB04B091AC049C
:1026E0008C299D29AE29BF298093A9049093AA041F
:1026F000A093AB04B093AC0429C08091AD04909139
:10270000AE04A091AF04B091B0048C299D29AE29EC
:10271000BF298093AD049093AE04A093AF04B0930F
:10272000B00414C08091990490919A04A0919B04E4
:10273000B0919C048C299D29AE29BF2980939904CE
:1027400090939A04A0939B04B0939C04CC0CDD1C42
:10275000EE1CFF1C115017CF91E0910F9093E206F1
:10276000E12FF0E0EB50FA4F808386E591E00E9484
:10277000B10C892B79F0311066CA0CC080E88093C7
:102780008B0681E08093810444CC9093180480935D
:10279000170495CA0F90DF91CF911F910F91FF9071
:1027A000EF90DF90CF90BF90AF909F908F907F90F1
:1027B0006F905F904F903F902F900895CF92DF924F
:1027C000EF92FF920F931F93CF93DF93C42F97FF46
:1027D00008C090958095709561957F4F8F4F9F4F62
:1027E000C22F24E630E040E050E00E94D92DCA011B
:1027F000B9011092F306C093F206C9E02AE0C22E96
:10280000D12CE12CF12CDEE2C43019F4D093EC068B
:10281000C3E0C1500C2F10E00751194FA7019601DA
:102820000E94D92D605DF8016083B901CA01CC23F3
:1028300039F0C33048F7611571058105910521F71D
:1028400080E2CC2339F0C150EC2FF0E0E751F94F92
:102850008083F7CF89EE96E0DF91CF911F910F91A2
:10286000FF90EF90DF90CF900895E5EFF5E0249191
:10287000E1EEF5E09491EDECF5E0E491EE2309F45E
:102880003BC0222339F1233091F038F42130A9F0F4
:10289000223001F524B52F7D12C0273091F0283069
:1028A000A1F02430B9F4209180002F7D03C0209145
:1028B00080002F77209380000DC024B52F7724BD92
:1028C00009C02091B0002F7703C02091B0002F7D68
:1028D0002093B000F0E0EE0FFF1FE454FA4FA591F3
:1028E000B4912FB7F894EC91811103C090959E2379
:1028F00001C09E2B9C932FBF0895CF93DF9390E050
:10290000FC01E652FA4F2491FC01EA53FA4F8491FC
:10291000882361F190E0880F991FFC01EE54FA4F73
:10292000C591D491FC01E454FA4FA591B491611181
:1029300009C09FB7F8948881209582238883EC9101
:102940002E230BC0623061F49FB7F8943881822F38
:10295000809583238883EC912E2B2C939FBF06C0F8
:102960008FB7F894E8812E2B28838FBFDF91CF910A
:1029700008953FB7F8948091010790910207A091C4
:102980000307B091040726B5A89B05C02F3F19F097
:102990000196A11DB11D3FBFBA2FA92F982F8827DF
:1029A000820F911DA11DB11DBC01CD0142E0660F3A
:1029B000771F881F991F4A95D1F708958F929F928C
:1029C000AF92BF92CF92DF92EF92FF926B017C01A8
:1029D0000E94B9144B015C01C114D104E104F1045B
:1029E000F1F00E94B914DC01CB0188199909AA09F8
:1029F000BB09883E9340A105B10570F321E0C21ADE
:102A0000D108E108F10888EE880E83E0981EA11C29
:102A1000B11CC114D104E104F10419F7DDCFFF901A
:102A2000EF90DF90CF90BF90AF909F908F900895E0
:102A30002FB7F8946091FD067091FE068091FF0615
:102A4000909100072FBF08951F920F920FB60F921B
:102A500011242F933F938F939F93AF93BF938091B4
:102A6000FD069091FE06A091FF06B09100073091FF
:102A7000FC0623E0230F2D3720F40196A11DB11D84
:102A800005C026E8230F0296A11DB11D2093FC0668
:102A90008093FD069093FE06A093FF06B093000777
:102AA0008091010790910207A0910307B09104075C
:102AB0000196A11DB11D8093010790930207A09379
:102AC0000307B0930407BF91AF919F918F913F91FE
:102AD0002F910F900FBE0F901F901895CF93DF93FB
:102AE000CDB7DEB7E7970FB6F894DEBF0FBECDBF08
:102AF000789484B5826084BD84B5816084BD85B5D9
:102B0000826085BD85B5816085BD80916E008160E4
:102B100080936E001092810080918100826080938A
:102B2000810080918100816080938100809180008C
:102B30008160809380008091B10084608093B100B7
:102B40008091B00081608093B00080917A008460B1
:102B500080937A0080917A00826080937A008091DD
:102B60007A00816080937A0080917A0080688093F7
:102B70007A001092C100E0916601F091670182E055
:102B80008083E0916201F09163011082E091640121
:102B9000F091650190E1908310926E01E0916A01DD
:102BA000F0916B0186E08083E0916801F09169010A
:102BB000808180618083E0916801F091690180816A
:102BC00088608083E0916801F0916901808180686C
:102BD0008083E0916801F091690180818F7D80831D
:102BE0008091C00082608093C0001092C5009093D5
:102BF000C40086E591E00E942F0D84B18C6284B9F7
:102C00002498569A529860E084E10E947D1460E016
:102C100081E10E947D1460E081E10E947D1461E009
:102C200087E00E947D143B98F89480916C0083FDAE
:102C30000AC08091680082608093680080916C0077
:102C4000886080936C0078940E949F070E946D0AB0
:102C50000E948A0B64EF71E080E090E00E94DE1435
:102C60008091DB04882311F081E001C083E0809330
:102C700000010E94300B0E94C30B58E6252E33241E
:102C800033941092540580911A0590911B0501967A
:102C900090931B0580931A0580910405882311F0F9
:102CA0000C940000E091F004E0932D011092B50423
:102CB0008091EF048823A1F0F0E0EE0FFF1FE55FA5
:102CC000FE4F80819181813426E0920710F081E0EF
:102CD00004C089379540E0F082E08093B50418C0C5
:102CE0004091A1045091A2046091A3047091A404A6
:102CF0008091B1049091B204A091B304B091B40456
:102D000084239523A623B723892B8A2B8B2BF9F6B3
:102D10001091B5048091530518130E94DC0A10939A
:102D2000530510910605163010F081E001C080E0D7
:102D30000E9435140E9418156B017C0180914F058B
:102D400090915005A0915105B0915205B701A6018F
:102D5000481B590B6A0B7B0B443651056105710505
:102D600008F48FC08C599F4FAF4FBF4F80934F05D2
:102D700090935005A0935105B09352051F5F109397
:102D80000605809107058F5F8093070581E090918C
:102D90000905911180E08093090580911204882330
:102DA000A1F180917604882381F16091FE037091F6
:102DB000FF036115710549F12091D30480E090E093
:102DC000222339F00E94CC2B21EB32E047E55BE374
:102DD00006C00E94CC2B2FE632E143E85AE30E9462
:102DE000C22C9B01AC016091240570912505809156
:102DF0002605909127050E94AE2A609324057093C2
:102E000025058093260590932705609124057091F0
:102E1000250580912605909127050E949D2B6093A2
:102E2000030270930402809305029093060280913E
:102E3000C4048823D1F0209182043091830440910E
:102E400084045091850460914B0570914C058091EC
:102E50004D0590914E050E94AE2A60934B057093EC
:102E60004C0580934D0590934E058091810481110E
:102E700008C080911805811104C060E08CE60E94B2
:102E80004F038091470590914805A0914905B09165
:102E90004A05C81AD90AEA0AFB0A42E3C416D10451
:102EA000E104F10410F40C944228C296A11DB11D56
:102EB0008093470590934805A0934905B0934A0530
:102EC00080917D0490917E04A0917F04B091800454
:102ED000892B8A2B8B2B81F48091790490917A0431
:102EE000A0917B04B0917C0480937D0490937E0438
:102EF000A0937F04B093800440917D0450917E04A0
:102F000060917F047091800488279927DC01841BDD
:102F1000950BA60BB70B84239523A623B7238C010F
:102F20009D010095109520953095402351236223F3
:102F3000732340937D0450937E0460937F047093C9
:102F40008004811551E09507A105B10509F451C030
:102F500018F588309105A105B10509F444C060F465
:102F600081309105A105B105E1F10297A105B105F7
:102F700009F049C085E648C080329105A105B10538
:102F8000B1F180389105A105B10579F14097A1050E
:102F9000B105C9F58DE638C0811578E09707A10520
:102FA000B10579F168F48115F2E09F07A105B1053B
:102FB00021F181159440A105B10529F580E724C0D0
:102FC000009731E0A307B105B1F0009744E0A407F2
:102FD000B105A9F081159041A105B105A1F48CEDD1
:102FE00013C084E611C089E60FC08AE60DC08BE6E7
:102FF0000BC08EE609C082E707C08FE605C08BE3F1
:1030000003C087E701C080E09091810491113EC028
:1030100090911805911103C060E00E944F035E98E3
:1030200060E085E00E94900760E086E00E949007E3
:1030300061E084E00E9490070E94210728E1E22ECF
:1030400022E0F22E00E010E030E2D32E8091F30176
:103050009091F4010817190780F4003F110511F44D
:103060000E942107D7016C9187E00E949007F70129
:10307000D1927F010F5F1F4FE9CF6FEF87E00E9472
:10308000900760E084E00E9490075E9A0E94090821
:103090008091770490917804059788F596EDE92E54
:1030A00093E0F92E00E410E0F70185919491B801C6
:1030B0000E945407F2E0EF0EF11C025E1F4F003336
:1030C00021E0120789F788EF90E00E947907E091EC
:1030D0000505F0E0EE0FFF1FE253FC4F8591949140
:1030E00066E171E00E945407809145059091460584
:1030F000CC9790930B0580930A050C94422810916D
:103100007604112349F081E0809375048091740462
:10311000813011F40E94B90D00917504002371F003
:1031200011110CC010920A018AE08093090181E01C
:1031300080930801809374040E94C30B80917404EF
:10314000882309F4B5C310910A01E12FEE0FFF0B9C
:10315000E859FB4F8591949163E270E00E94540717
:103160006BE671E083E694E00E94540701110CC005
:1031700061E771E089E594E00E9454076BE771E034
:1031800082E594E00E94540711118BC080910302E4
:1031900090910402A0910502B09106028D839E8356
:1031A000AF83B8878091F8039091F903A091FA0357
:1031B000B091FB0389879A87AB87BC878091100207
:1031C00090911102092E000CAA0BBB0B8D879E87D4
:1031D000AF87B88B8091FC039091FD03A0E0B0E035
:1031E000898B9A8BAB8BBC8B20E030E044EB53E4B3
:1031F00060914B0570914C0580914D0590914E0565
:103200000E94242B0E949D2B6D8B7E8B8F8B988F21
:1032100080910A0290910B026AE070E00E94732A8A
:10322000CB01A0E0B0E0898F9A8FAB8FBC8F04E414
:10323000E02E04E0F02EAE014F5F5F4F6A010DE516
:1032400010E0F70185919491B8010E945407F601AE
:1032500081919191A191B1916F014AE068EE76E080
:103260000E948E2DB8016F5E7F4F0E946F07F2E0C3
:10327000EF0EF11C025E1F4F0F3221E0120709F71B
:10328000609115047091160480E090E021E048EE12
:1032900056E00E9440066DE670E088EE96E00E94DF
:1032A0006F0780910A01813009F091C00E940908DE
:1032B00087E98093E80623E044E069EE76E08091B8
:1032C0000E0290910F020E94D50619EA1093ED06A6
:1032D0001092EE0664E370E088EE96E00E946F07BD
:1032E0008FEB8093E80623E044E069EE76E080917E
:1032F0000802909109020E94D5061093ED061092E3
:10330000EE066CE270E088EE96E00E946F0716E32E
:10331000E12E14E0F12E0DE510E0F7018591949176
:10332000B8010E94540732E0E30EF11C025E1F4F09
:103330000F3241E0140789F78091C7044AE068EE34
:1033400076E090E00E948E2D6BEC70E00E946F079B
:1033500067E081E790E00E945F078091C0044AE047
:1033600068EE76E090E00E948E2D6FE870E00E949B
:103370006F078091BE044AE068EE76E090E00E941C
:103380008E2D6DEA70E00E946F0761E18BEC90E09A
:103390000E945F078091C8044AE068EE76E090E002
:1033A0000E948E2D69EE70E00E946F078091BF042D
:1033B0004AE068EE76E090E00E948E2D67E071E0D2
:1033C0000E946F076BE085E291E00E945F078091A9
:1033D0000A01823009F06FC04AE068EE76E0809121
:1033E0006C0490916D040E948E2DE0E0AE2FB0E051
:1033F000A851B94F8C91EF5F8111F8CF85E28C9382
:10340000F0E0E851F94F108265E370E088EE96E055
:103410000E946F07BAE2EB2EB4E0FB2E0DE510E040
:10342000F70185919491B8010E94540752E0E50E8E
:10343000F11C025E1F4F013161E0160789F764E05D
:1034400081E790E00E945F0780910C05882349F096
:103450004AE068EE76E090E00E948E2D6FE870E022
:1034600004C06FE870E083E591E00E946F0765E0BB
:103470008DEA90E00E945F0766E08BEC90E00E948E
:103480005F074AE068EE76E08091FD019091FE01D1
:103490000E948E2D69EE70E00E946F074AE068EE90
:1034A00076E08091FB019091FC010E948E2D67E0F7
:1034B00071E00E946F0780910A01833009F05AC0C1
:1034C00060918204709183048091840490918504BA
:1034D0000E94962BDC01CB0123E044E068EE76E00D
:1034E0000E94D5068AE98093EC061092ED0664E30B
:1034F00070E088EE96E00E946F07A0E2EA2EA4E05A
:10350000FA2E0DE510E0F70185919491B8010E9423
:10351000540772E0E70EF11C025E1F4F033F1105D6
:1035200091F76CE081E790E00E945F076EE08FE822
:1035300090E00E945F076FE08DEA90E00E945F07D5
:103540004AE068EE76E08091F9019091FA010E94DC
:103550008E2D6BEC70E00E946F074AE068EE76E01B
:103560008091F7019091F8010E948E2D69EE70E034
:103570000E946F0780910A01843009F044C0F0E195
:10358000EF2EF4E0FF2E0DE510E0F7018591949108
:10359000B8010E94540782E0E80EF11C025E1F4F42
:1035A0000D3491E0190789F760E281E790E00E940D
:1035B0005F0761E28FE890E00E945F076DE28DEAAD
:1035C00090E00E945F076FE18BEC90E00E945F0744
:1035D00067E189EE90E00E945F0764E387E091E095
:1035E0000E945F076EE285E291E00E945F07809192
:1035F000DA044AE068EE76E090E00E948E2D63E403
:1036000071E00E946F0780910A01853009F058C06F
:10361000E4E0EE2EE4E0FE2E0DE510E0F7018591EA
:103620009491B8010E945407A2E0EA0EF11C025ED8
:103630001F4F0131B1E01B0789F78091D30461E787
:1036400070E0811103C080E094E002C08CEF93E051
:103650000E9454078091DB046FE870E0882319F022
:1036600089EF93E002C084EF93E00E9454076CE27C
:103670008DEA90E00E945F0780910D05882349F054
:103680004AE068EE76E090E00E948E2D6BEC70E0F0
:1036900004C06BEC70E083E591E00E946F078091BD
:1036A000F0044AE068EE76E090E00E948E2D69EE2C
:1036B00070E00E946F0763E187E091E00E945F077E
:1036C00080910A01863009F04EC08091F40490E0A8
:1036D0009E8F8D8F8091F50490E098A38F8F8091BD
:1036E000F60490E09AA389A38091F70490E09CA34C
:1036F0008BA38091CA0490E09EA38DA38091CB04FC
:1037000090E098A78FA30DE510E0E12CF12CD12CCF
:10371000F701EA51FC4F85919491B8010E9454073A
:10372000E6E0DE1691F04AE068EE76E0EDE1F0E0EA
:10373000EC0FFD1FEE0DFF1D808191810E948E2DEB
:10374000B8016C5E7F4F0E946F07D394F2E0EF0EDA
:10375000F11C025E1F4F27E0D212DACF60E185E252
:1037600091E00E945F0780910A01873014F0109267
:103770000A01209109012A3079F4809108018330EF
:1037800011F40C941C29813009F480C0823009F0B6
:1037900080C080E791E07FC02A3008F07AC0309185
:1037A0000A01313079F483E080930801283019F45C
:1037B0008AE08093090180910901893009F063C092
:1037C00087E05FC0323079F483E0809308012730CE
:1037D00019F48AE08093090180910901893009F088
:1037E00052C086E04EC0333069F43093080129306E
:1037F00019F485E08093090180910901863009F070
:1038000042C03EC03430E9F4293049F480912805A3
:10381000883011F48AE001C088E08093090120918A
:1038200009012093280583E08093080130E02E5F92
:103830003F4F4EE1429FC001439F900D1124469699
:103840002AC080E090E0353069F483E0809308017D
:10385000293019F486E080930901809109018730AD
:1038600091F40EC03630B9F483E08093080129301A
:1038700019F487E08093090180910901883019F4D7
:103880008AE08093090120910901D0CF8AE691E076
:1038900002C080E090E020910905222311F40C94ED
:1038A0004228FC01E85EFD4F23E020830C9442286F
:1038B0000E94C30B8091720480FF25C2C0907004E7
:1038C000D0907104E0906E04F0906F0480E58093D6
:1038D000E806C6013AE0C316D10434F06AE070E0AD
:1038E0000E94872ACB010CC066EF7FEF0E94872AD7
:1038F000CB01D7FE05C02DE22093E90622E001C0EE
:1039000021E030E0B9016851794F4AE00E948E2DE4
:103910008FE00E943006882349F06091380470914E
:103920003904717088EE96E00E946F0782E58093FB
:10393000E806C7014AE0E416F10434F06AE070E0FA
:103940000E94872ACB010CC066EF7FEF0E94872A76
:10395000CB01F7FE05C02DE22093E90622E001C06D
:1039600021E030E0B9016851794F4AE00E948E2D84
:1039700080E10E943006882349F060913A047091FA
:103980003B04717088EE96E00E946F07B090E304EC
:10399000B1100AC08091EB04811106C083E18093CD
:1039A000020180930101AAC080917604811104C0B4
:1039B0001092FF031092FE030091FE031091FF038B
:1039C00080913705909138059801215F3F4F281766
:1039D0003907C0F40E9418156093330570933405BD
:1039E000809335059093360582E0809332051093DD
:1039F0003805009337058091020181508031E8F449
:103A000085E11BC00F9680179107C8F40E94181516
:103A10006093330570933405809335059093360594
:103A200081E080933205109338050093370580912B
:103A300002018F5F863108F080E18093020140909F
:103A4000120250901302609014027090150280913F
:103A50002E0590912F05A0913005B0913105B3014D
:103A6000A2014C5E5F4F6F4F7F4F481759076A079F
:103A70007B07E4F40E94181560932A0570932B05C8
:103A800080932C0590932D0582E080932905409228
:103A90002E0550922F05609230057092310580916D
:103AA00001018150803128F585E123C04496A11D94
:103AB000B11D84159505A605B705ECF40E941815EF
:103AC00060932A0570932B0580932C0590932D0508
:103AD00081E08093290540922E0550922F05609237
:103AE000300570923105809101018F5F863108F0B9
:103AF00080E180930101BB2009F450CF00914C0478
:103B000010914D04117059ECC516D10454F468E3BA
:103B1000C6166FEFD60644F468E3C62EDD24DA94A9
:103B200003C078ECC72ED12C71E9E71671E0F706D7
:103B300054F480E7E8168EEFF8064CF440E7E42EE4
:103B40004EEFF42E04C050E9E52EFF24F394B0901C
:103B5000D60489E10E9430068B2109F48FC026012A
:103B60009AE0490E511C57FE04C02601A1E14A0EFD
:103B7000511C83E0559447948A95E1F75194419400
:103B800051089090E80440E094E0692E712C29E0FF
:103B9000C22ED12C3EE1832EE42FF0E0C3018E1B18
:103BA0009F0BE89E9001E99E300DF89E300D112488
:103BB00037FF02C0215C3F4FB6E035952795BA9597
:103BC000E1F7240D351D275D3F4F22353105F0F516
:103BD000E00FF11FC901B6010E94872A869ED0011D
:103BE000879EB00D1124EA0FFB1FBF016C577109AE
:103BF000603EB1E07B0728F4DB01A85EBD4F805832
:103C00008C93992019F18EEF840F8530F8F4CF0151
:103C1000865D9109803E51E0950758F4BC01685ECD
:103C20007D4F5B01C901B6010E94872A8058D501EA
:103C30008C93B297E03EB1E0FB0740F4E85EFD4FA5
:103C4000C901B6010E94872A805880834F5F49309E
:103C500028F4443009F0A0CF45E09ECF82E20E94D4
:103C6000300681110BC0F801E85EFD4FDF011197AE
:103C700086E28C938CEB81838EE780838091D704DE
:103C8000882309F440C08AE10E9430068823D9F1D4
:103C900080915404982F9F70809152048F70B82E99
:103CA000482F41956091020150910101C92E990F51
:103CB000DD0898012C193D097601E00EF11EEEE1B8
:103CC0004E02C0011124885E9D4FFC01E20FF31FDC
:103CD0006083FC01EE0DFF1D50834F5FB4167CF72F
:103CE000F801EC19FD09E75EFD4F83E08083F801E0
:103CF000EC0DFD1DE95EFD4F82E080838091EB04B9
:103D000081110C9420298091BD04882309F45CC0A2
:103D1000B090BE04B0923A05E091BF04E09339053B
:103D20008091D80400910E0210910F028823A9F10E
:103D300062E2E69F600111247AE2E79FF00111241C
:103D40000C151D0510F42C2D07C09F0122503109C0
:103D50000217130708F498010D2C000CEE08FF0859
:103D6000822F90E0A0E0B0E09C01AD012C193D094C
:103D70004E095F09A7E0B0E00E94F82D31972F01AE
:103D8000612C712CA30192012C193D094E095F0988
:103D90000E94D92D86E9821B01C087E98093E8063D
:103DA000EB2CF12C0E151F0520F4809108058111D4
:103DB0000BC085E10E94300681110C948429E01625
:103DC000F10610F00C9484298091C704882369F1CE
:103DD00000910802109109022091070230E00217B9
:103DE000130720F48091080581111FC086E10E940D
:103DF00030068823D1F08FEB8093E80623E044E07F
:103E000069EE76E0C8010E94D50689EA8093ED0646
:103E10001092EE06609146047091470471706150F3
:103E2000710988EE96E00E946F078091BA0488239A
:103E3000B1F100916C0410916D042091B90430E04F
:103E40002017310724F080910805882341F183E190
:103E50000E943006882319F18AEB8093E8064AE035
:103E600069EE76E0C8010E948E2DE0E0AE2FB0E052
:103E7000A851B94F8C91EF5F8111F8CF85E28C93F7
:103E8000F0E0E851F94F10826091400470914104D4
:103E900071706150710988EE96E00E946F07809101
:103EA000C204882309F45CC0C0908204D0908304CB
:103EB000E0908404F090850420E030E040E251E49A
:103EC000C701B6010E94242B4B015C016091CB0419
:103ED00070E080E090E00E94CE2B9B01AC01C50118
:103EE000B4010E941A2B87FD04C080910805882325
:103EF000B9F160910A0270910B0280E090E00E949B
:103F0000CC2B9B01AC01C701B6010E94BD2C181639
:103F100044F4C701B6010E949D2B70930B0260937D
:103F20000A0287E10E9430068823D1F0C701B6015A
:103F30000E94962BDC01CB0124E045E068EE76E0A0
:103F40000E94D5068AE98093ED061092EE066091F4
:103F5000480470914904717088EE96E00E946F07E2
:103F60008091C404882309F44CC060910C027091C4
:103F70000D026115710581F420E030E044EB53E45B
:103F800060914B0570914C0580914D0590914E05C7
:103F90000E94242B0E94962B8091CA04A4E68A9F3B
:103FA000C00111248617970724F4809108058823FF
:103FB00041F188E10E943006882319F184EA809358
:103FC000E80620E030E044EB53E460914B0570914B
:103FD0004C0580914D0590914E050E94242B0E9426
:103FE000962BDC01CB014AE069EE76E00E948E2D33
:103FF00060914A0470914B04717088EE96E00E94C3
:104000006F078091E904882309F44CC000913404BF
:10401000109135040115B2E01B0708F443C08091EC
:1040200076048823F1F020913B0530913C05C901CD
:104030006CE370E00E94732A8091F70490E06817A7
:10404000790720F08091080581112CC02031EEE025
:104050003E0728F48CE98093E806B90116C081E791
:1040600009C060914505709146056031FEE07F070B
:1040700020F48BE98093E80608C080E78093E80687
:10408000CB016CE370E00E94732A80E090E020E0B6
:1040900049EE56E00E944006B801717088EE96E045
:1040A0000E946F0785E20E9430068823A1F10091EB
:1040B000640410916504117060910E0270910F02FA
:1040C00080E090E00E94CC2B209182043091830408
:1040D00040918404509185040E94C22C20E030E07D
:1040E00048EC52E40E94242B0E949D2BDC01CB0162
:1040F00025E045E069EE76E00E94D50680E28093F7
:10410000E80687E58093ED061092EE06B80188EE8A
:1041100096E00E946F078EE00E943006882309F423
:10412000ADC08091C604882309F4A8C080917604AC
:10413000811107C0809154058260809354058EE1FF
:104140000EC080910301882369F0909109059111B7
:1041500095C090915405946090935405815080933C
:10416000030105C0809154058160809354058091BE
:104170003A0590E020910E0230910F0282179307CA
:1041800028F08091540580648093540580917204D6
:1041900083FF1CC080911904853028F48091540558
:1041A00080628093540580911705811105C080912C
:1041B000540580618093540580911605811106C0D5
:1041C000809154058F7C88608093540580915505BB
:1041D000811104C0809154058093550510915505B7
:1041E000212F2195022F01230E941815C090200530
:1041F000D0902105E0902205F090230524EFC20E17
:1042000021E0D21EE11CF11CC616D706E806F9060D
:1042100088F4112329F0802F8095182310935505D9
:104220000E94181560932005709321058093220544
:104230009093230580E090E0E0E0202F30E0A9019A
:10424000082E02C0559547950A94E2F740FDE82FE5
:1042500001968830910599F780915405823070F06D
:10426000F0E0EE0FFF1FEA58FB4F859194916091AB
:1042700036047091370471700E9454078091D50400
:10428000882309F48FC08BE00E943006882309F44C
:1042900089C080E28093E906809113019091140116
:1042A00020910601309107012817390720F49093D7
:1042B00007018093060120910401309105018217C6
:1042C000930720F490930501809304012091060147
:1042D000309107012330384030F022E038E030934D
:1042E0000701209306012091040130910501263B2E
:1042F000334030F426EB33E0309305012093040182
:1043000020917604211109C080E28093EA069DE2A3
:104310009093EB069093EC0635C02091C9042223BC
:1043200039F020E044E06AEE76E00E94D5062CC029
:10433000C0900401D0900501E12CF12CA0E0B0E088
:104340009C01AD012C193D094E095F09A4E6B0E0BE
:104350000E94F82D2091060130910701890120E08B
:1043600030E0A90198012C193D094E095F090E940E
:10437000D92DDA01C90120E043E06AEE76E00E941F
:10438000D50685E28093ED0688EC8093E8061092CE
:10439000EE066091300470913104717088EE96E001
:1043A0000E946F07209145053091460580910A05CE
:1043B00090910B05AC01445C5F4F42175307A0F48A
:1043C000805C9F4F8217930720F430930B05209356
:1043D0000A058091DE04882339F080916804909169
:1043E000690491700E9479078091720482FF59C01C
:1043F00088E00E9430068823F9F08091E704882342
:10440000D9F08091170490911804880F991F880F94
:10441000991F83509D4F6AE570E00E94872A695773
:104420007B4F80912A0490912B04917049E050E0D9
:10443000885E9D4F0E94852D87E00E94300688236C
:1044400081F18091D104882361F1809117049091CA
:1044500018042091D204222381F097FF02C08859CA
:104460009E4F20E043E068EE76E00E94D5068DEB9B
:104470008093EB061092EC060BC020E044E068EE5F
:1044800076E00E94D5068DEB8093EC061092ED0647
:104490006091280470912904717088EE96E00E9462
:1044A0006F078091720481FFB9C08091D304882383
:1044B000A1F0609112027091130280911402909108
:1044C00015020E94CE2B2EEA31E646E05DE30E9403
:1044D000C22C0E94962B8B010FC06091120270912A
:1044E0001302809114029091150224E630E040E01E
:1044F00050E00E94D92D890180917604882389F0AB
:104500008091770490917804069758F0809110027A
:10451000909111028017910724F4109311020093D7
:10452000100289E00E943006882369F18091E60438
:10453000882349F14091F504442371F0C8016AE0F1
:1045400070E00E94872A842F90E06817790724F092
:1045500080910805811117C04AE069EE76E0C80134
:104560000E948E2DE091D304F0E0EA5CFE4F808142
:104570008093E80660912C0470912D04717088EE90
:1045800096E00E946F078AE00E943006882309F4B3
:1045900045C08091E504882309F440C000912E04B1
:1045A00010912F041170085E1D4FF8017E978FE760
:1045B0008083D8018C935E968C9320911602309163
:1045C00017022937310534F42838BFEF3B071CF4B4
:1045D00028E801C028E7822F220F990BAA0BBB0BFA
:1045E0009C01AD012857310941095109A1E1B0E011
:1045F0000E94F82D20E13FEF4FEF5FEF0E94D92D91
:10460000822F66E00E94652A8150F8012EE1820225
:10461000E00DF11D11248FE8891B808380917204C5
:1046200083FF6CC38091CC04882309F467C3109185
:104630001904153020F48091080581111BC080E019
:104640000E9430068823B1F08EE18093E8068FE166
:104650008093E9064AE06AEE76E0812F90E00E94BE
:104660008E2D60911A0470911B04717088EE96E093
:104670000E946F0780911204882309F46AC081E0C8
:104680000E9430068823C9F180910C0490910D049A
:10469000A0910E04B0910F040397A105B10520F479
:1046A00080910805811129C020911C0430911D04BE
:1046B00031708091170490911804845E9D4F409151
:1046C000100450911104841B950B880F991F880FBB
:1046D000991F8D966AE570E00E94872ACB0160E100
:1046E00070E00E94872A805A8093E8061092E906BB
:1046F000B90188EE96E00E946F078091D304882369
:1047000009F41BC660910C0470910D0480910E0495
:1047100090910F040E94CC2B21EA38EF41E550E440
:104720000E94C22C0E949D2B6B017C018091F8039A
:104730009091F903A091FA03B091FB038C159D05AC
:10474000AE05BF0508F402C682E00E943006811162
:1047500011C680911204882309F452C084E00E949B
:1047600030068823E1F08091D0048823C1F020E056
:1047700043E068EE76E080911004909111040E946D
:10478000D5068DEB8093EB061092EC066091220427
:1047900070912304717088EE96E00E946F078091FB
:1047A0007604811104C01092FF031092FE03F09072
:1047B000D3046091FE037091FF0380E090E0F1105C
:1047C0000AC60E94CC2B2CEB34E743E15DE30E9448
:1047D000C22C0E949D2B8B018091FC039091FD03C4
:1047E0009C012C5E3F4F2017310708F0FBC530932A
:1047F000FD032093FC0383E00E9430068111FBC57A
:1048000080911204882309F4C2C08091CF048823C8
:1048100009F457C085E00E943006882309F451C08E
:104820008091D3048823A9F0609100047091010461
:1048300080910204909103040E94CE2B21EA38EF6C
:1048400041E550E40E94C22C0E94962B6B017C0132
:1048500008C0C0900004D0900104E0900204F090E1
:1048600003041091F5041123A9F0C701B6012AE051
:1048700030E040E050E00E94D92D812F90E0A0E090
:10488000B0E0281739074A075B0724F08091080534
:10489000811117C04AE069EE76E0C6010E948E2DB4
:1048A000E091D304F0E0EA5CFE4F80818093E8065B
:1048B0006091240470912504717088EE96E00E9446
:1048C0006F0781E10E943006882309F460C080915F
:1048D000B1049091B204A091B304B091B4040091DA
:1048E0008D0410918E0420918F043091900441E04A
:1048F00050E060E070E00097A105B10519F040E0DC
:1049000050E0BA014023512362237323452B462BE9
:10491000472BE9F580239123A223B3232091CD04D3
:10492000822B892B8A2B8B2B91F100913C041091C7
:104930003D0411708AEC8093E80660910804709140
:10494000090480910A0490910B0423E54EE40E942F
:10495000DE13B80188EE96E00E946F0700913E04D6
:1049600010913F0411708BEC8093E8066091040471
:1049700070910504809106049091070427E545E4B1
:104980000E94DE13B80188EE96E00E946F07309116
:10499000DA0439AB323079F040F4313009F0AEC18D
:1049A000A1E0B0E0BEABADAB10C049A9433049F0C7
:1049B000443009F0A3C162E070E07EAB6DAB11E062
:1049C00005C082E090E09EAB8DAB10E080911204B8
:1049D000882309F493C182E20E943006882309F4F7
:1049E0008DC11AAB10E000E02AA9822F90E04DA9FA
:1049F0005EA9841795070CF081C1809110049091F5
:104A00001104BAA9B13061F420913D0530913E0501
:104A1000821B930B845E9D4FB1010E94732A0BC0D1
:104A200088599E4F2091170430911804821B930BD4
:104A3000B1010E94872A9C016AE570E00E94872AE2
:104A40006130710589F024F4672BD1F41FEF12C097
:104A50006230710589F06330710591F4A101421B48
:104A6000530B9A011FEF0BC0E4EBF0E0E21BF30BDA
:104A70009F0111E001E004C0245B310911E00FEF58
:104A8000B901330F880B990B0E94CE2B2BED3FE021
:104A900049E450E40E94C22C20E030E044E353E4B7
:104AA0000E94242B4B015C0160910C0470910D0459
:104AB00080910E0490910F040E94CC2B2B013C019D
:104AC000C501B4010E942F2D9B01AC01C301B201AD
:104AD0000E94C22C0E949D2B6B017C017CAB6BABB6
:104AE000C501B4010E941F2B9B01AC01C301B2019F
:104AF0000E94C22C0E949D2B2B013C01C414D504A2
:104B000010F4A20101C0A60160E070E04436510536
:104B10006105710590F0443F81E05807610571051A
:104B200008F48CC4443C99E059076105710508F408
:104B30008AC4CA01A4E2ABAB09C0B1E2BBAB84E654
:104B400090E04431510561057105A0F14C01990FC8
:104B5000AA08BB08C601A0E0B0E0BC01CD0154E04A
:104B6000660F771F881F991F5A95D1F7A5019401E9
:104B70000E94D92D802F002E000C990B829F70016E
:104B8000839FF00C929FF00C11249201AFE0B0E0F3
:104B90000E94252EA50194010E94D92D812F012E5E
:104BA000000C990B829FF001839FF00D929FF00DF6
:104BB000112404C0E0E0F0E0E12CF12CC09060048E
:104BC000D090610421E0D2229701A7014F5F5F4F8F
:104BD0002A01F7FC9A01359527952C0D3D1DCF0133
:104BE00063E070E00E94872A5EE1569FC001579FF4
:104BF000900D11243901680E791E6AA9613011F0F7
:104C000025E001C024E0C701F7FE04C088279927EA
:104C10008E199F09482F417847FF03C041504E6FBE
:104C20004F5F342FCF01F7FF04C0882799278E1BD1
:104C30009F0B63E00E94652A113019F482E0891B02
:104C4000982F0F3F11F431E0341B3296359710F452
:104C500091E0911B73E04716510428F431E0EF20F6
:104C6000E09409F430E0AAA9AA2311F060ED01C094
:104C700066EDB9A9B43031F0F32EFF0C3F0D390FBA
:104C8000F32E15C0809117049091180440913D05B2
:104C900050913E05841B950B8A519D4FB1010E9496
:104CA000732A6DE270E00E94732A92E7F92EF60EE5
:104CB000EBA9E093E8061092E90660915E0470911A
:104CC0005F04717088EE96E02FAB0E946F07F09240
:104CD000E8061092E906B30188EE96E00E946F079D
:104CE0002FA92093E8061092E906B60188EE96E017
:104CF0000E946F07FAA9FF5FFAAB76CE8091160586
:104D0000882309F4BFC1C090B104D090B204E090F0
:104D1000B304F090B40480918B0490918C04A0E0D3
:104D2000B0E08C219D21AE21BF21892B8A2B8B2BBA
:104D3000D1F08091E4048823B1F01092EA0686E174
:104D40008093E80687E18093E9068EE10E943006B1
:104D5000882349F06091560470915704717088EE71
:104D600096E00E946F078091EA04882309F45AC0F4
:104D70008091870490E0A0E0B0E08C219D21AE21DD
:104D8000BF21892B8A2B8B2B69F48091880490E0BA
:104D9000A0E0B0E08C219D21AE21BF21892B8A2B80
:104DA0008B2B29F080EA8093E806E1E001C0E0E087
:104DB0008091890490E0A0E0B0E08C219D21AE219B
:104DC000BF21892B8A2B8B2B39F0AE2FB0E0A85155
:104DD000B94F82EA8C93EF5F80918A0490E0A0E063
:104DE000B0E08C219D21AE21BF21892B8A2B8B2BFA
:104DF00039F0AE2FB0E0A851B94F81EA8C93EF5F44
:104E0000F0E0E851F94F108286E00E9430068823D6
:104E100049F06091260470912704717088EE96E045
:104E20000E946F078091950490919604A091970439
:104E3000B09198048C219D21AE21BF21892B8A2B12
:104E40008B2B39F01092EA068AEA8093E8068BEA07
:104E500088C080918D0490918E04A0918F04B091B0
:104E600090048C219D21AE21BF21892B8A2B8B2B75
:104E700049F08DE98093E8068EE98093E906109267
:104E8000EA0671C08091910490919204A0919304DC
:104E9000B09194048C219D21AE21BF21892B8A2BB6
:104EA0008B2B39F01092EA068DEC8093E8068EEC9D
:104EB00058C08091A9049091AA04A091AB04B0912C
:104EC000AC048C219D21AE21BF21892B8A2B8B2BF9
:104ED00079F0809113044AE06AEE76E090E00E9457
:104EE0008E2D1092EC0685EB8093E80686EB39C098
:104EF0008091890490E0A0E0B0E08C219D21AE215A
:104F0000BF21892B8A2B8B2B69F68091870490E037
:104F1000A0E0B0E08C219D21AE21BF21892B8A2BFE
:104F20008B2B39F01092EA068CEA8093E8068DEA22
:104F300018C08091880490E0A0E0B0E0C822D92297
:104F4000EA22FB221092EA06CD28CE28CF2829F0AB
:104F500084EC8093E80685EC04C08EEA8093E80632
:104F60008FEA8093E9068091DD048823B1F181E224
:104F70000E943006882389F100915C0410915D0441
:104F80001170B80188EE96E00E946F074091990475
:104F900050919A0460919B0470919C048091B1049B
:104FA0009091B204A091B304B091B40484239523EA
:104FB000A623B723892B8A2B8B2B79F08AEE80933B
:104FC000E8068BEE8093E9061092EA06B8016E5F60
:104FD0007F4F88EE96E00E946F078091080581114F
:104FE00051C084E20E943006882309F44BC04091EE
:104FF000B1045091B2046091B3047091B4048091F3
:105000008D0490918E04A0918F04B091900484231C
:105010009523A623B723892B8A2B8B2B11F58091FF
:10502000910490919204A0919304B09194048423EC
:105030009523A623B723892B8A2B8B2BA1F4809150
:10504000A9049091AA04A091AB04B091AC0484236C
:105050009523A623B723892B8A2B8B2B99F0E3E08A
:1050600003C0E1E001C0E2E0F0E0EE0FFF1FEF550A
:10507000FB4F85919491609162047091630471700B
:105080000E94540780910705853048F0109207056B
:1050900081E090910805911180E0809308050E94BD
:1050A00018150091120510911305209114053091E7
:1050B000150508511C4F2F4F3F4F0617170728079C
:1050C000390708F0B2C0009312051093130520931E
:1050D0001405309315051092060580911A059091DC
:1050E0001B05909344058093430510921B05109275
:1050F0001A0580911C0590911D059093420580939F
:10510000410510921D0510921C0580911E0590917D
:105110001F059093400580933F0510921F05109244
:105120001E05809145059091460501969093460590
:105130008093450580918104811117C05E9880EAB3
:105140000E948A078FEF0E948A078370909114044F
:10515000981719F00E94300B08C080E80E948A0757
:105160008FEF0E948A0783FFF5CF80911705811189
:1051700003C01092190403C08150809317058091D9
:105180001605882319F08150809316058091180523
:10519000882319F08150809318058091760481113D
:1051A00009C0809117049091180490933E05809354
:1051B0003D0516C080913B0590913C05019690936A
:1051C0003C0580933B05809115049091160401964F
:1051D0009093160480931504109274040E94C30BDC
:1051E000809177049091780401969093780480934D
:1051F000770480910D05813051F4809174048823E7
:1052000031F060E08EEC0E944F0310920D0580910A
:105210000D05882319F0815080930D0580910C05B0
:10522000882319F0815080930C0581E00E94EC0DD9
:105230000E94510D0C9441168AE791E00C944B1C8E
:105240008BE10E943006882311F40C94831E0E9487
:1052500018154090330550903405609035057090D6
:10526000360558EE450E53E0551E611C711C641541
:10527000750586059705D8F480913205F8018230CE
:1052800059F42EE1B29EE019F1091124EC19FD093F
:10529000E85EFD4F89EC0AC03EE1B39EE00DF11DD2
:1052A0001124EC19FD09E85EFD4F8FEC80830E940C
:1052B000181500912A0510912B0520912C0530918D
:1052C0002D0508511C4F2F4F3F4F60177107820764
:1052D000930710F00C94831E809129059701285E96
:1052E0003D4FF901823039F44EE1B49EE019F109E5
:1052F000112489EC06C05EE1B59EE00DF11D11247C
:105300008FEC80830C94831E23E044E069EE76E00A
:10531000C8010E94D50689EA8093ED061092EE0638
:10532000609144047091450471706150710988EE78
:1053300096E00E946F070C94E41EC0900C04D0907D
:105340000D04E0900E04F0900F04F0C98C599F4FAB
:10535000AF4FBF4F8C159D05AE05BF0510F46C0116
:105360007D01C092F803D092F903E092FA03F09223
:10537000FB03EAC91091F4041123A9F0C701B60197
:1053800024E630E040E050E00E94032E812F90E0C0
:10539000A0E0B0E0281739074A075B0720F08091AA
:1053A00008058111D6C94AE069EE76E0C6010E947F
:1053B0008E2DE091D304F0E0EA5CFE4F8281809371
:1053C000E80660911E0470911F04717088EE96E0EB
:1053D0000E946F07BEC90E94CC2B2DED3FE347EB27
:1053E0005CE3F5C98017910708F005CA1093FD0327
:1053F0000093FC0300CA8091F604882341F090E0FA
:105400008017910720F4809108058111F9C9EF2DCB
:10541000F0E0EC5CFE4F80818093E8064AE069EEA4
:1054200076E0C8010E948E2D6091200470912104C5
:10543000717088EE96E00E946F07E2C962E26BAB82
:1054400084EF91E083CB73E27BAB84EC99E07ECB7D
:10545000E6E5F1E01382128288EE93E0A0E0B0E08E
:1054600084839583A683B78387E491E091838083C7
:1054700085EC90E09587848784EC90E09787868719
:1054800080EC90E0918B808B81EC90E0938B828B11
:1054900082EC90E0958B848B86EC90E0978B868BEA
:1054A000118E128E138E148E0895DB018F939F93AD
:1054B0000E94F82DBF91AF91A29F800D911DA39FD7
:1054C000900DB29F900D1124089587FB082E06269B
:1054D00087FD819567FD61950E94A12A0EF4919543
:1054E00007FC81950895AA1BBB1B51E107C0AA1FA9
:1054F000BB1FA617B70710F0A61BB70B881F991F75
:105500005A95A9F780959095BC01CD01089597FB18
:10551000072E16F4009407D077FD09D00E94732A55
:1055200007FC05D03EF4909581959F4F08957095A6
:1055300061957F4F0895EE0FFF1F0590F491E02DC8
:105540000994991B79E004C0991F961708F0961BDF
:10555000881F7A95C9F7809508955058BB27AA27C8
:105560000E94C52A0C946F2C0E94362C38F00E94A1
:105570003D2C20F039F49F3F19F426F40C94332C81
:105580000EF4E095E7FB0C942D2CE92F0E94942C4F
:1055900058F3BA17620773078407950720F079F468
:1055A000A6F50C94B62C0EF4E0950B2EBA2FA02D78
:1055B0000B01B90190010C01CA01A0011124FF27C0
:1055C000591B99F0593F50F4503E68F11A16F040BB
:1055D000A22F232F342F4427585FF3CF46953795BA
:1055E0002795A795F0405395C9F77EF41F16BA0B7F
:1055F000620B730B840BBAF09150A1F0FF0FBB1F2D
:10560000661F771F881FC2F70EC0BA0F621F731F75
:10561000841F48F4879577956795B795F7959E3FD2
:1056200008F0B0CF9395880F08F09927EE0F979563
:10563000879508950E94092C08F481E008950E943E
:10564000462CE3950C94802C0E94382B0C946F2CE4
:105650000E943D2C58F00E94362C40F029F45F3F08
:1056600029F00C942D2C51110C94B72C0C94332C44
:105670000E94942C68F39923B1F3552391F3951B61
:10568000550BBB27AA2762177307840738F09F5F63
:105690005F4F220F331F441FAA1FA9F335D00E2ED0
:1056A0003AF0E0E832D091505040E695001CCAF73D
:1056B0002BD0FE2F29D0660F771F881FBB1F261700
:1056C00037074807AB07B0E809F0BB0B802DBF01D7
:1056D000FF2793585F4F3AF09E3F510578F00C94A6
:1056E0002D2C0C94B72C5F3FE4F3983ED4F38695B1
:1056F00077956795B795F7959F5FC9F7880F911DC7
:105700009695879597F90895E1E0660F771F881FB2
:10571000BB1F621773078407BA0720F0621B730B65
:10572000840BBA0BEE1F88F7E09508950E949D2B1D
:105730006894B1110C94B72C08950E949C2C88F0A9
:105740009F5798F0B92F9927B751B0F0E1F0660F45
:10575000771F881F991F1AF0BA95C9F714C0B13086
:1057600091F00E94B62CB1E008950C94B62C672FEE
:10577000782F8827B85F39F0B93FCCF386957795B5
:105780006795B395D9F73EF490958095709561959E
:105790007F4F8F4F9F4F0895E89409C097FB3EF4C9
:1057A00090958095709561957F4F8F4F9F4F99236E
:1057B000A9F0F92F96E9BB279395F69587957795EC
:1057C0006795B795F111F8CFFAF4BB0F11F460FFAC
:1057D0001BC06F5F7F4F8F4F9F4F16C0882311F004
:1057E00096E911C0772321F09EE8872F762F05C018
:1057F000662371F096E8862F70E060E02AF09A95B3
:10580000660F771F881FDAF7880F9695879597F9A7
:105810000895990F0008550FAA0BE0E8FEEF161641
:105820001706E807F907C0F012161306E407F50794
:1058300098F0621B730B840B950B39F40A2661F008
:10584000232B242B252B21F408950A2609F4A140AB
:10585000A6958FEF811D811D089597F99F6780E8B8
:1058600070E060E008959FEF80EC089500240A94B2
:105870001616170618060906089500240A9412162B
:1058800013061406050608950C94332C0E949C2CD4
:10589000D8F3E894E0E0BB279F57F0F02AED3FE013
:1058A00049EC06C0EE0FBB0F661F771F881F28F05C
:1058B000B23A62077307840728F0B25A620B730B7F
:1058C000840BE3959A9572F7803830F49A95BB0F64
:1058D000661F771F881FD2F790480C94392D092E28
:1058E0000394000C11F4882352F0BB0F40F4BF2B3B
:1058F00011F460FF04C06F5F7F4F8F4F9F4F08957B
:10590000EF93E0FF07C0A2EA2AED3FE049EC5FEB2E
:105910000E94C52A0E946F2C0F90039401FC90589E
:10592000EEECF0E00C94452D57FD9058440F551FB8
:1059300059F05F3F71F04795880F97FB991F61F011
:105940009F3F79F087950895121613061406551F88
:10595000F2CF4695F1DF08C0161617061806991FF4
:10596000F1CF86957105610508940895E894BB27E9
:1059700066277727CB0197F908950E94092C08F430
:105980008FEF08950E94D52C0C946F2C0E94362C1A
:1059900038F00E943D2C20F0952311F00C942D2C12
:1059A0000C94332C11240C94B72C0E94942C70F37B
:1059B000959FC1F3950F50E0551F629FF001729FB4
:1059C000BB27F00DB11D639FAA27F00DB11DAA1FC3
:1059D000649F6627B00DA11D661F829F2227B00D10
:1059E000A11D621F739FB00DA11D621F839FA00D9B
:1059F000611D221F749F3327A00D611D231F849FEB
:105A0000600D211D822F762F6A2F11249F57504041
:105A10009AF0F1F088234AF0EE0FFF1FBB1F661FBC
:105A2000771F881F91505040A9F79E3F510580F085
:105A30000C942D2C0C94B72C5F3FE4F3983ED4F3D8
:105A4000869577956795B795F795E7959F5FC1F729
:105A5000FE2B880F911D9695879597F908959F9332
:105A60000E94462C0F9007FCEE5F0C94802C9F3F09
:105A700031F0915020F4879577956795B795880F09
:105A8000911D9695879597F908959F938F937F938E
:105A90006F93FF93EF939B01AC010E94C22CEF9197
:105AA000FF910E94592D2F913F914F915F910C943E
:105AB000C22CDF93CF931F930F93FF92EF92DF924D
:105AC0007B018C01689406C0DA2EEF010E94D52C70
:105AD000FE01E894A5912591359145915591A6F344
