:100000000C9439030C9451100C9461030C9461030B
:100010000C94A8100C9461030C9461030C9461037C
:100020000C9461030C9461030C9461030C946103C0
:100030000C9461030C9461030C9461030C946103B0
:100040000C94A3160C9461030C94E4040C94BE0469
:100050000C9461030C9461030C9461030C94610390
:100060000C9461030C946103060D0E0D160D1E0D0C
:10007000260D2E0D360DED0DF50DFD0D050E0D0E9B
:10008000150E1D0E250E820E8A0E920E9A0EA20ECF
:10009000AA0EB20E084AD73B3BCE016E84BCBFFD10
:1000A000C12F3D6C74319ABD56833DDA3D00C77F48
:1000B00011BED9E4BB4C3E916BAAAABE00000080E1
:1000C0003F05A84CCDB2D44EB93836A9020C50B970
:1000D000918688083CA6AAAA2ABE000000803F009C
:1000E0004E4F542044455445435445442D50414CB3
:1000F000004E4F542044455445435445442D4E54DE
:100100005343004155544F2D50414C004155544FDD
:100110002D4E5453430053493A0049443A0020209D
:1001200020202B50495443482046554C4C00202059
:1001300020202B594157205249474854004D454EE5
:10014000553A54485254204D4944444C4500004DC2
:10015000572D4F5344202D2052312E3700544558EF
:100160005420414C41524D5300414D5053004D419C
:100170004820583130300054494D455200535045C5
:10018000454400414C5449545544452058313000B1
:1001900044495354414E434520583130300054486F
:1001A000524F54544C452050574D004F5344205407
:1001B00058204348004D41472043414C00444542AC
:1001C000554700562052454600554E495453004D60
:1001D0004150204D4F44450047494D42414C00534A
:1001E000454E534F52530047505320434F4F5244B4
:1001F00053005448524F54544C45005343524F4CB3
:100200004C494E47204241525300534944452042F5
:1002100041525300484F52495A4F4E0041444A55AB
:100220005354205A45524F0041444A55535420419B
:100230004D505300555345205649525455414C207A
:1002400053454E534F5200444953504C4159204D51
:10025000414800444953504C415920414D505300AE
:100260005345542052535349204D494E0053455451
:100270002052535349204D41580055534520505763
:100280004D00534554205253534900444953504C58
:10029000415920525353490055534520464300438A
:1002A000454C4C5300444953504C41592056494405
:1002B00020564F4C5453004D41494E20564F4C54FC
:1002C0005320414C41524D0041444A55535420560D
:1002D0004F4C545300444953504C4159204D4149CF
:1002E0004E20564F4C5453004D415820414D5053D1
:1002F000004D41482055534544004D41582053502E
:10030000454544004D415820414C544954554445BD
:10031000004D41582044495354414E434500544FE9
:10032000542044495354414E434500464C592054AF
:10033000494D4500414C41524D5300414456414EB8
:1003400043454400444953504C415900435552528F
:10035000454E54005253534900564F4C5441474563
:100360000053544154495354494353004445425562
:1003700047004C4F5720564F4C5453004C4F57207A
:100380005341545300204E4F20475053004E4F20AE
:1003900044415441002041524D4544004449534199
:1003A000524D454400204D495353494F4E0041554D
:1003B000544F20484F4C44004155544F205254480C
:1003C000000048594252004154554E00464C495095
:1003D00000535052540041504D20004452494600B1
:1003E0004F464C4F004C414E4400504F5349004340
:1003F000495243005245544C004C4F495400475514
:100400004944004155544F00414C54480041435227
:100410004F0053544142000C010301F100E0004F32
:10042000014E013D012E011E014E011A01160190DF
:100430000183017D0177016E0169015D01312E317A
:100440005600355600494D50004D455400C901C372
:1004500001BD01B501AB019E0114020A02FB01F2CC
:1004600001E701DF01D801CF01530247023402281E
:10047000021C028B02820298027A026D026002D58F
:1004800002C802B702A502C8029F0298022B031EEF
:100490000311030403FA02F102E8023C504147450C
:1004A0003E00534156452B45584954004558495440
:1004B000006103590354034C0344033B033403C159
:1004C000039C0395038D0385037C0372036C031D5A
:1004D0001A1D1C1D191D1C1D1B1D1C1D181D1C1D5E
:1004E0001A1D1C1D191D1C1D1B1DC103B803AE03C5
:1004F000A50312040D0408040304FE03F903F40326
:10050000EF03EA03E503E003DB03D603D103CC03E7
:10051000C703C203D6034F4E004F46460020007B60
:10052000C12A0021009000540024007200270035E9
:1005300000CB0060017EC17EC137C110011D0102E8
:10054000000F004C01F2006BC12FC175017F01C289
:1005500000BB00BB00030007007A00550106015CE8
:10056000003400C50064005701BA001801DCC02047
:10057000C034C036C0B7C090C054C024C072C028B8
:10058000C0CBC0CAC060C17EC17EC137C110011DD1
:100590000102C00FC04DC1F3C06BC12FC171C17842
:1005A000C1C2C0BBC0BBC0030007007AC055C106B2
:1005B000C15CC03400C30064C05301BA0018C1DC80
:1005C000C000000000960000000004F40158020D75
:1005D00000003C000000018A04C800000000000187
:1005E00000C80032640101010000000100000001A8
:1005F00001000001000001000000000001010101F4
:1006000001000101000400000005000100000000DD
:100610001E4D574F53440020202020190516050079
:10062000000000240027002A000000000025002808
:10063000002B000404040404040404020202020265
:100640000203030303030301020408102040800196
:100650000204081020010204081020000000080015
:100660000201000003040700000000000000000079
:10067000FF2A11241FBECFEFD8E0DEBFCDBF26E09A
:10068000A6E5B1E001C01D92AF3EB207E1F711E06F
:10069000A0E0B1E0EEEBFFE502C005900D92A635BB
:1006A000B107D9F713E0C9E3D3E004C02197FE01F5
:1006B0000E94722BC833D107C9F70E94ED160C9423
:1006C000DD2F0C940000CF92DF92EF92FF920F93F8
:1006D0001F93CF93DF936C017A018B01C0E0D0E0D0
:1006E000CE15DF0589F0D8016D918D01D601ED9110
:1006F000FC910190F081E02DC6010995892B11F440
:100700007E0102C02196ECCFC701DF91CF911F91EE
:100710000F91FF90EF90DF90CF900895FC01918DA5
:10072000828D981761F0828DDF01A80FB11D5D9653
:100730008C91928D9F5F9F73928F90E008958FEFC1
:100740009FEF0895FC01918D828D981731F0828D75
:10075000E80FF11D858D90E008958FEF9FEF0895CC
:10076000FC01918D228D892F90E0805C9F4F821B30
:1007700091098F739927089586E591E00E94B0034F
:1007800021E0892B09F420E0822F0895FC01848D5B
:10079000DF01A80FB11DA35ABF4F2C91848D90E0AB
:1007A00001968F739927848FA689B7892C93A08986
:1007B000B1898C9180648C93938D848D981306C03D
:1007C0000288F389E02D80818F7D80830895EF92E8
:1007D000FF920F931F93CF93DF93EC0181E0888FFB
:1007E0009B8D8C8D981305C0E889F989808185FDE2
:1007F00024C0F62E0B8D10E00F5F1F4F0F731127D3
:10080000E02E8C8DE8120CC00FB607FCFACFE889F9
:10081000F989808185FFF5CFCE010E94C603F1CF13
:100820008B8DFE01E80FF11DE35AFF4FF0820B8F15
:10083000EA89FB898081806207C0EE89FF89608335
:10084000E889F98980818064808381E090E0DF918C
:10085000CF911F910F91FF90EF900895CF93DF9369
:10086000EC01888D8823C9F0EA89FB89808185FDA8
:1008700005C0A889B9898C9186FD0FC00FB607FC09
:10088000F5CF808185FFF2CFA889B9898C9185FF4A
:10089000EDCFCE010E94C603E7CFDF91CF9108953F
:1008A00080E090E0892B29F00E94BC0381110C9418
:1008B00000000895CF93DF9300D000D0CDB7DEB70E
:1008C000E82FF0E0E453FA4F8081898381818A83A5
:1008D00082818B8383818C8369817A818B819C81E6
:1008E0000F900F900F900F90DF91CF910895CF93BD
:1008F000DF9300D000D0CDB7DEB7E82FF0E0E453AF
:10090000FA4F8081898381818A8382818B8383816D
:100910008C8369817A818B819C810F900F900F90DD
:100920000F90DF91CF910895E1E1F4E0448155818A
:100930009A0133272827C90164E0880F991F6A9517
:10094000E1F7992782279327782F66279C01A3E058
:10095000220F331FAA95E1F726273727452F552762
:100960004227532724E0969587952A95E1F7842717
:1009700095279583848308950E94222F1F920F92BA
:100980000FB60F9211242F933F934F935F936F9362
:100990007F938F939F93AF93BF93EF93FF9386E5DE
:1009A00091E00E94C603FF91EF91BF91AF919F919B
:1009B0008F917F916F915F914F913F912F910F9008
:1009C0000FBE0F901F9018951F920F920FB60F92A7
:1009D00011242F938F939F93EF93FF93E0916601E0
:1009E000F09167018081E0916C01F0916D0182FDD1
:1009F00012C0908180916F018F5F8F732091700181
:100A0000821751F0E0916F01F0E0EA5AFE4F958FA6
:100A100080936F0101C08081FF91EF919F918F9131
:100A20002F910F900FBE0F901F9018950C94742F5C
:100A30000C946C2F81E080930A018AE08093090175
:100A400083E08093080110927D0410927E048091CF
:100A5000E204882301F11092030210920402109222
:100A60000502109206021092F6031092F7031092FC
:100A7000F8031092F90310920F0210920E021092D6
:100A8000FB031092FA0310920B0210920A021092CA
:100A90001F0410921E040C94BC142F923F924F928C
:100AA0005F926F927F928F929F92AF92BF92CF92FE
:100AB000DF92EF92FF920F931F93CF93DF9300D0BB
:100AC00000D0CDB7DEB7898386E591E00E94B00300
:100AD000DD24D394892B09F4D12C22242A94322C9E
:100AE00080E896E026E3280F2A8331E0D312EAC695
:100AF00086E591E00E948E038C018B83809127050F
:100B00009091280501969093280580932705E09001
:100B10007D06F0907E06E114F10409F4BEC487E07E
:100B2000E816F10481F480917C069091120478011A
:100B3000FF2489138FC0F0927A06E09279068F5FC6
:100B400080937C06BAC4802F0E94940491E0E91639
:100B5000F10429F40093120482E090E01FC0B2E097
:100B6000EB16F10419F483E090E018C0E3E0EE1610
:100B7000F10459F4FB81F13029F010927E061092B5
:100B80007D069BC484E090E009C024E0E216F104F5
:100B900051F43B81313089F785E090E090937E06F7
:100BA00080937D068AC485E0E816F104C9F50093B8
:100BB00011049B819831F9F048F4992399F0913010
:100BC00019F58CE780937B068FE11FC0AB81A332C0
:100BD000B1F0AA3461F0AE31B9F487E280937B06BC
:100BE0008CE113C082E380937B0689E00EC084E130
:100BF00080937B060AC000937B068EE106C084EFDB
:100C000080937B0686E101C080E0909112049813E6
:100C1000B4CFE6E0F0E0F0937E06E0937D064DC4AD
:100C2000F6E0EF16F10409F048C480917C06E82F45
:100C3000F0E0E453FA4F00838F5F80937C0690913D
:100C4000120489133AC427E030E030937E062093E3
:100C50007D0633C4FE2CEE248091790690917A06AD
:100C6000E80EF91EF0927A06E092790680917B06F2
:100C70000E9494048091150490911604E816F906D8
:100C800009F07BCF809125059091260501969093E0
:100C900026058093250583E080931F05809111042C
:100CA000883109F4F7C030F48823C1F1813009F4A8
:100CB00015C39AC3833209F4B4C18A3409F48FC0CE
:100CC0008E3109F091C384E00E94770426EE3EE263
:100CD00045E652E40E943A2E20E030E040E251E442
:100CE0000E943A2E0E94DF2C709378046093770460
:100CF00088E00E94770426EE3EE245E652E40E9438
:100D00003A2E20E030E040E251E40E943A2E0E9468
:100D1000DF2C70937A046093790466C3D0928F04B9
:100D200080E190E0A0E0B0E0809396049093970477
:100D3000A0939804B093990480E290E0A0E0B0E022
:100D400080939A0490939B04A0939C04B0939D0479
:100D500080E490E0A0E0B0E08093B2049093B3040C
:100D6000A093B404B093B504C090BA04D090BB046F
:100D7000E090BC04F090BD04E894C0F8C092BA04BE
:100D8000D092BB04E092BC04F092BD0480E00E94CB
:100D90005A04623118F46093130403C081E1809314
:100DA00013048091D20587FF0FC06894C0F8C092E9
:100DB000BA04D092BB04E092BC04F092BD0481E07E
:100DC00080937F0483E005C080917806882321F01A
:100DD00081508093780608C310927F0405C384E095
:100DE0000E9477040E94DF2C24E6269FA001279F03
:100DF000500D11245093FD034093FC0388E00E94A2
:100E000077040E94DF2CAB01770F660B770B809184
:100E1000760690917706092E000CAA0BBB0B9A015F
:100E2000AB01281B390B4A0B5B0B2093FE0330935D
:100E3000FF034093000450930104A4E6B0E00E9435
:100E4000A12F60931002709311028093120290936D
:100E500013028091DD0590E0982F88272091DC0512
:100E6000822B853B910514F0885691409093210484
:100E7000809320048CE00E9477040E94DF2C24E6FB
:100E8000269FA001279F500D1124509315024093D7
:100E90001402AAC285E0809320057090E905709243
:100EA00022046090E805609210048091E70590E0CC
:100EB000982F88272091E605822B6AE070E00E9437
:100EC0005E2B709375066093740688E00E945A0446
:100ED0006B017C01609306047093070480930804FF
:100EE000909309048CE00E945A044B015C016093CA
:100EF000020470930304809304049093050492E029
:100F0000961508F071C2A4E0A71508F06DC2809193
:100F10006C0690916D06A0916E06B0916F06BC01B3
:100F2000CD016C197D098E099F090E94172D6B0157
:100F30007C018091700690917106A0917206B0912B
:100F40007306BC01CD01681979098A099B090E94C1
:100F5000172D2091190430911A0440911B045091CF
:100F60001C040E943A2E4B015C01A7019601C701A7
:100F7000B6010E943A2E2B013C01A5019401C50146
:100F8000B4010E943A2E9B01AC01C301B2010E9440
:100F9000852B0E94B52E2CE23DE74EE85FE30E94D0
:100FA0003A2E0E94E62C2B013C01C701B601905855
:100FB000A50194010E94042C20EA3CE043EB55E497
:100FC0000E943A2E20E030EA4CE056E40E94852B45
:100FD0000E94DF2C6B017C0197FF06C0B0EACB0EAC
:100FE000BCE8DB1EE11CF11CC301B20124E630E0C9
:100FF00040E050E00E94AC2F20930A0430930B0491
:1010000040930C0450930D04C701B60124E630E070
:1010100040E050E00E94822F30930F0420930E0492
:10102000E3C18091E105E7E68E9FC00111246AE0EB
:1010300070E00E945E2B709366056093650520E06A
:1010400030E0F901E453FA4FD901A55FBE4F858125
:1010500090E0982F88274481842B13969C938E933D
:1010600012972E5F3F4F2031310559F780910F01C4
:1010700090911001855195408F389140C8F480912E
:101080000D0190910E01855195408F38914080F46B
:101090008091110190911201855195408F389140B6
:1010A00038F410926A0688EE93E0A0E0B0E027C022
:1010B00080916A06813059F50E949716C0906206A9
:1010C000D0906306E0906406F0906506DC01CB01E9
:1010D0008C199D09AE09BF09C0906606D0906706BD
:1010E000E0906806F0906906C816D906EA06FB0685
:1010F00010F410926A068CE291E0A0E0B0E08093D8
:10110000660690936706A0936806B093690680917F
:101110006A06811169C180910F019091100120919F
:101120007D048B33974040F1809111019091120121
:101130008B33974008F180911301909114018F3700
:101140009440D0F02111BAC0809180049091810424
:10115000069708F4B3C080917F048111AFC082E08C
:1011600080936A0681E080937D0480912E018093B4
:101170000A010E94BC14A2C0222309F49FC0F0906F
:1011800061051092610580917E04882361F0809151
:101190001301909114018531954028F082E08093ED
:1011A0006A060E941A0520917D04222309F451C089
:1011B00080910D0190910E018B3337E0930778F009
:1011C00081E080936A06809108018F5F8093080117
:1011D000843008F473C083E0809308016FC08E37B9
:1011E000944068F491E090936A06809108018150E0
:1011F00080930801811162C0909308015FC08091C3
:101200000F01909110018B33B7E09B07A0F091E0A4
:1012100090936A06809109018150809309018111A0
:1012200002C09093090180910A01811147C08AE0B0
:101230008093090143C08E37944058F481E0809335
:101240006A06809109018F5F809309018B3078F7DE
:1012500035C080917E04811131C0222379F12F2D78
:1012600026300CF025E02B3F0CF42BEF8091110180
:10127000909112018E37F4E09F0738F481E080935B
:101280006A0621502093610517C08B339740B0F058
:1012900081E080936A062F5F2093610580910A01A7
:1012A000863051F480910801833031F48091090136
:1012B000853011F4109216050E94C00C80916A06C8
:1012C000813009F091C00E94971660936206709376
:1012D0006306809364069093650686C082E08093DF
:1012E000900484E08093920488E080939304C090FB
:1012F000BA04D090BB04E090BC04F090BD0481EF30
:10130000C822C092BA04D092BB04E092BC04F0920E
:10131000BD0484E00E945A0461FF0AC06894C1F8C9
:10132000C092BA04D092BB04E092BC04F092BD0417
:1013300084E00E945A0463FF11C08091BA04909126
:10134000BB04A091BC04B091BD0484608093BA0436
:101350009093BB04A093BC04B093BD0484E00E94AE
:101360005A0464FF11C08091BA049091BB04A0910B
:10137000BC04B091BD0484608093BA049093BB0414
:10138000A093BC04B093BD0484E00E945A0462FFA1
:1013900011C08091BA049091BB04A091BC04B0919B
:1013A000BD0488608093BA049093BB04A093BC04EE
:1013B000B093BD048091DB0590E0982F88272091A1
:1013C000DA05822B64E670E00E945E2B6093640570
:1013D0008091DD0590E0982F88272091DC05822BF5
:1013E000909363058093620580916B06811128C0FC
:1013F0008091060490910704A0910804B09109041B
:1014000080936C0690936D06A0936E06B0936F0662
:101410008091020490910304A0910404B09105040A
:101420008093700690937106A0937206B093730632
:101430008091FE039091FF03909377068093760648
:1014400080911004833060F080912204853040F058
:1014500080917F04882321F081E080936B068DCBFF
:101460001092FE031092FF031092000410920104E8
:101470001092100210921102109212021092130296
:1014800010920A0410920B0410920C0410920D0496
:1014900010920F0410920E0470CB9B819E3F09F0B6
:1014A0006CCB309216042092150410927C06A1E0B9
:1014B000B0E0B0937E06A0937D068091C406909123
:1014C000C506009731F481E090E0AB81A43281F44D
:1014D00014C08130910531F4BB81BD3449F482E000
:1014E00090E00BC08230910569F4EB81EE3319F086
:1014F00080E090E002C083E090E09093C506809386
:10150000C406D5C18330910599F4FB81F73928F0E1
:101510001092C5061092C406CAC10093C30684E0A7
:1015200090E09093C5068093C4060093C206BFC1A5
:101530008430910581F485E090E09093C506809316
:10154000C4060093C1068091C20608270093C20614
:101550001092C006ACC1059709F0A9C18091C206DE
:1015600080278093C2062091C0069091C30629135C
:1015700095C18111CDCF80912505909126050196C9
:1015800090932605809325051092CB0583E08093E8
:101590001F058091C1068C3D09F0BACF2C830E94B3
:1015A0002E0F2C81893009F04DC082E080932105F7
:1015B0000E942E0F182F0E942E0F212F30E0280F8F
:1015C000311D3093BF062093BE060E942E0F8093DC
:1015D000BD0681E08093BC060E949716DC01CB011A
:1015E0008854944FAF4FBF4F8093B8069093B9067D
:1015F000A093BA06B093BB066FE18CED0E949C0CE1
:1016000089E00E947F0C5AE0E52E0091BE06109101
:10161000BF06C8010E941805F82E8093BD06C801B8
:101620000E948D0C8F2D0E947F0C8091BE069091A0
:10163000BF0601969093BF068093BE06EA94E11020
:10164000E4CF9AC0883009F055C082E0809321052C
:101650004AE0D42EFF24F3940E942E0FE82E0E941D
:101660002E0F082F10E0102F00270E0D111D1093C4
:10167000BF060093BE060E942E0FE82E8093BD0683
:10168000F092BC060E949716DC01CB018854944F5F
:10169000AF4FBF4F8093B8069093B906A093BA0698
:1016A000B093BB066E2DC8010E9416056DE080E068
:1016B00090E00E9416050091BE061091BF06093504
:1016C000110521F00F3421E0120711F40E94831458
:1016D000DA94D110C1CF0F5F1F4F1093BF06009354
:1016E000BE0663E08CED0E949C0C89E00E947F0C9A
:1016F000C80140C0873009F042C083E080932205D2
:101700006BE08CED0E949C0C87E00E947F0C07E64A
:1017100015E0D80150968D919C91519723E09695B4
:1017200087952A95E1F70E948D0C0C5E1F4FB5E05E
:101730000B3C1B0771F70E94790C6DE08CED0E9449
:101740009C0C8AE00E947F0C8FE090E00E948D0C40
:1017500081E090E00E948D0C85EA96E00E948D0C5D
:1017600080E090E00E948D0C80E090E00E948D0C63
:1017700081E090E00E948D0C0E94790CC9CE8330EC
:1017800009F074C0253031F50E942E0F082F10E0AB
:101790000E942E0F182B00321D4109F0B9CE0E9475
:1017A0002E0F8093B7060E942E0F8093B60680916D
:1017B0007F048111ADCE80917D048111A9CE8091ED
:1017C0008A048111A5CE80E880937F0681E0809312
:1017D0008A049ECE283309F09BCE00E816E07801FB
:1017E0000E942E0FD7018D937D01BA81BE11F8CFD3
:1017F0000E942E0FF82E5E986091DD04611160E466
:1018000080E00E9499106F2D89E00E949910E12CD0
:101810006E2D8AE00E949910F80161918F018BE092
:101820000E949910E394F6E3EF12F2CF60EA88E0A9
:101830000E94991080EA0E94931085FDFBCF809151
:10184000DD04811102C06CE001C06CE480E00E9404
:1018500099105E9A64E170E080E090E00E945D166D
:101860002FEFF21255CE0E94291452CE863079F411
:1018700000E010E060E0C8010E9416050F5F1F4FF6
:10188000011532E01307B1F70E94661303C08530DB
:1018900009F03ECE81E080930D053ACE81E0820FC3
:1018A0008093C006E22FF0E0E453FA4F008386E510
:1018B00091E00E94B003892B29F0DD24D394898123
:1018C000811116C90F900F900F900F90DF91CF915B
:1018D0001F910F91FF90EF90DF90CF90BF90AF904E
:1018E0009F908F907F906F905F904F903F902F9040
:1018F00008956091D00686E591E00C94E703CF93BC
:10190000C82F682F86E591E00E94E7038091D006FA
:10191000C827C093D006CF910895CF93DF931F922D
:10192000CDB7DEB799830E947F0C9981892F0F90E4
:10193000DF91CF910C947F0CCF93DF93D82FC62FDC
:1019400064E286E591E00E94E7036DE486E591E0BC
:101950000E94E7036CE386E591E00E94E7031092A2
:10196000D0068C2F0E947F0C8D2F0E947F0CC111FE
:1019700004C0DF91CF910C94790CDF91CF91089541
:10198000EF92FF920F931F93CF93DF93C0910901C2
:10199000CA30C9F4809108018330A9F480916105AF
:1019A00082301CF081E080936105809161058F3F5A
:1019B0001CF48FEF8093610590910A01809161057D
:1019C000890F80930A0180910A0187FF03C086E096
:1019D00080930A0180910A01873014F010920A0165
:1019E00080910A01813009F049C09091080193303B
:1019F00009F0C0C14C2F50E0FA013197E730F105F2
:101A000008F0B8C1EC5CFF4F0C94722B91E0209170
:101A1000C604211190E09093C604ACC120916105E9
:101A20009091C904920F9093C904A4C120916105BB
:101A30009091C704920F9093C7049CC191E02091AC
:101A4000D004211190E09093D00494C120916105BD
:101A50009091D104920F9093D1048CC12091610593
:101A60009091C804920F9093C80484C191E0209192
:101A7000CA04211190E09093CA047CC1823009F01D
:101A80004DC090910801933009F074C1C33039F111
:101A900048F4C130E1F0C23009F06CC18FE08093AE
:101AA0001505D5C1C53059F110F1C63009F062C134
:101AB000209161058091FB019091FC01820F911DA5
:101AC00027FD9A959093FC018093FB01C0C181E0B2
:101AD0009091C304911180E08093C304B8C181E068
:101AE0009091C404911180E08093C404B0C191E04E
:101AF0002091C504211190E09093C5043BC1209131
:101B000061058091FD019091FE01820F911D27FDDD
:101B10009A959093FE018093FD0199C1833009F05D
:101B200048C090910801933009F024C1C33051F1AD
:101B300028F4C130B9F0C230E9F01CC1C43051F111
:101B4000C53009F017C1209161058091F70190918E
:101B5000F801820F911D27FD9A959093F8018093CB
:101B6000F70175C181E09091CB04911180E08093E1
:101B7000CB046DC181E09091CD04911180E0809300
:101B8000CD0465C181E09091CE04911180E08093F5
:101B9000CE045DC1209161058091F9019091FA0117
:101BA000820F911D27FD9A959093FA018093F90178
:101BB0004EC1843009F051C090910801933009F072
:101BC000D9C04C2F50E0FA013197E830F10508F008
:101BD000D1C0E55CFF4F0C94722B91E02091DF04A3
:101BE000211190E09093DF04C5C091E02091E004C2
:101BF000211190E09093E004BDC091E02091EC04AD
:101C0000211190E09093EC04B5C091E02091DE04A6
:101C1000211190E09093DE04ADC091E02091D604B4
:101C2000211190E09093D604A5C091E02091F30497
:101C3000211190E09093F3049DC091E02091ED0478
:101C4000211190E09093ED0495C020916105909151
:101C5000E304920F9093E3048DC0853009F03FC0F8
:101C600090910801933009F085C0C330E1F028F469
:101C7000C13049F0C23079F07DC0C53001F1D8F0F3
:101C8000C63029F177C081E09091DC04911180E0A9
:101C90008093DC04DCC081E09091E404911180E049
:101CA0008093E404D4C081E09091EB04911180E032
:101CB0008093EB04CCC09AE0909316055BC09091A2
:101CC00061058091F904890F8093F904C0C081E017
:101CD0009091D204911180E08093D204B8C08630F4
:101CE00009F048C090910801933009F043C04C2F8F
:101CF00050E0FA013197E730F105E0F5ED5BFF4F79
:101D00000C94722B909161058091FD04890F809352
:101D1000FD049DC0909161058091FE04890F809320
:101D2000FE0495C0909161058091FF04890F809316
:101D3000FF048DC09091610580910005890F80930B
:101D4000000585C0909161058091D304890F80932F
:101D5000D3047DC0909161058091D404890F809354
:101D6000D40475C081E09091CF04911180E08093FC
:101D7000CF046DC0CA3009F06AC080932E018091F3
:101D80000801813009F45BC0823009F060C0109214
:101D9000D1066EE18AEC0E949C0C80E00E947F0CD0
:101DA00080E00E947F0C80E00E947F0CC150A9F768
:101DB0000E94790C67E08CEC0E949C0C80E00E94F1
:101DC0007F0C80E00E947F0C80E00E947F0C80E00E
:101DD0000E947F0C80E00E947F0C80E00E947F0CBC
:101DE00080E00E947F0C0E94790C0FEB14E0C0E0B1
:101DF000D0E0F80161918F01CE010E941605219675
:101E0000CC34D105B1F705EF11E0F8016081CE01C6
:101E10000E941605F80161810E5F1F4FCE010196E9
:101E20000E9416052296CA35D10579F76DE080E04B
:101E300090E00E94160560E08AEF0E949C0CDF9102
:101E4000CF911F910F91FF90EF900C941A05DF91A5
:101E5000CF911F910F91FF90EF900895E091CB05E6
:101E600081E08E0F8093CB05F0E0E453FA4F808140
:101E70000895E82FF0E0EE0FFF1FED5DFB4F20818E
:101E800031812227307C81E02115304C09F080E03F
:101E900008953F924F925F926F927F928F929F929E
:101EA000AF92BF92CF92DF92EF92FF920F931F9368
:101EB000CF93DF938A01D22F222311F0C8E001C013
:101EC000C5E0F801EC0FF11D1082DC2ECD2E3AE0BA
:101ED000432E512C612C712C46E0842E912CA12C88
:101EE000B12C5AE3352E2FEF2D0D7801E20EF11CA7
:101EF00027FDFA94A30192010E94AC2F80E3860F84
:101F0000F70180838EEF8D0D7801E80EF11C87FDBF
:101F1000FA94CA01B901A50194010E94AC2F605D39
:101F2000F7016083B901CA01FDEFDF0EF801ED0D85
:101F3000F11DD7FCFA953082CA942FEFC212D3CF8D
:101F40002D2F220FD20FCD1BC3502AE0822E912CB1
:101F5000A12CB12CC1507801EC0EF11CC7FDFA94F4
:101F6000A50194010E94AC2F605DF7016083B90167
:101F7000CA01611571058105910511F0C111EACF02
:101F800080E2CC2341F0C150F801EC0FF11DC7FDF8
:101F9000FA958083F6CFC801DF91CF911F910F9101
:101FA000FF90EF90DF90CF90BF90AF909F908F9079
:101FB0007F906F905F904F903F900895EF92FF92C7
:101FC0000F931F93CF93DF93FB0197FF05C091956C
:101FD00081959109C1E001C0C0E0DF01A40FB11DEE
:101FE0001C92DEE20AE010E0421306C04150DF011D
:101FF000A40FB11DDC9320E03FEF340F7F01E30E0F
:10200000F11CB8010E945E2B805DD7018C93CB013F
:10201000332379F0222311F0432FE6CF0097E1F725
:10202000CC2339F03EEF340FDF01A30FB11D8DE259
:102030008C9380E2332331F03150DF01A30FB11DC7
:102040008C93F8CFCF01DF91CF911F910F91FF902B
:10205000EF900895CF92DF92EF92FF920E94971631
:102060006B017C0128E2C20ED11CE11CF11C81E055
:102070008093CF068091CF06882371F00E94971637
:10208000C616D706E806F90618F41092CF06F2CF66
:1020900080E00E944D05EECFFF90EF90DF90CF9053
:1020A00008951F920F920FB60F9211241092CF062F
:1020B0000F900FBE0F901F901895DB01AA5EBD4FC9
:1020C000FC0124910196222311F02D93F9CF08955C
:1020D0009C01E62FF0E0E154FB4FE081F0E0EE0FD1
:1020E000FF1FE55EF94F85919491B9010C945D1045
:1020F000DC01FB01EA5EFD4F9D91992311F0919364
:10210000FBCF0895A1E0B5E0E2EDF6E02AE02E0F66
:102110003D9131932E13FCCF1092DC06BC0182ED71
:1021200096E00C9478108EBD0DB407FEFDCF8EB5F1
:102130000895CF93DF931F92CDB7DEB769830E94D6
:1021400093106981862F0F90DF91CF910C9493109B
:102150001F920F920FB60F9211242F933F934F931C
:102160005F936F937F938F939F93AF93BF93CF931F
:10217000EF93FF93C6B178940E9438162091CD0654
:102180003091CE06AB01421B530B9A01293B3B40D9
:1021900018F021E020932F017093CE066093CD06B6
:1021A000C3FD1AC02091CB063091CC06621B730B85
:1021B000CB018F5E92408B3D954020F47093CA0610
:1021C0006093C90680912F018F5F80932F017093D8
:1021D000C8066093C70604C07093CC066093CB0614
:1021E000FF91EF91CF91BF91AF919F918F917F918F
:1021F0006F915F914F913F912F910F900FBE0F9074
:102200001F9018954F925F926F927F928F929F923C
:10221000AF92BF92FF920F931F93CF93DF93CEE4C1
:10222000D1E0A7E6B5E040E050E06AE089918E3069
:1022300008F08E5087702091000190E4299F900152
:102240001124822B80937C0080917A00806480939B
:102250007A0080917A0086FDFCCF809178002091F1
:10226000790090E0922BF090C6064115510541F49B
:102270002091CA04222339F18091640590E023C0A3
:10228000443009F52091C5042223A9F08091C906A4
:102290009091CA0695958795009769F4649FF0011F
:1022A000659FF00D1124EF0DF11DEE0FFF1FE95991
:1022B000FA4F808191812091C404222321F08091E2
:1022C000650590916605649FF001659FF00D1124EE
:1022D000EF0DF11DEE0FFF1FE959FA4F50962D91AA
:1022E0003C91519700811181201B310B51963C93F9
:1022F0002E93509720813181820F931F9695879559
:102300009183808350962D913C915197820F931F1A
:1023100051969C938E9350974F5F5F4F54964530E4
:10232000510509F083CF8091CA04609177057091BF
:102330007805D091E404811134C080E090E0C09130
:10234000C904D11115C00E94152D4B015C016C2FE1
:1023500070E080E090E00E94172D9B01AC01C50168
:10236000B4010E943A2E27E137EB41ED58E314C047
:102370000E94152D4B015C016C2F70E080E090E015
:102380000E94172D9B01AC01C501B4010E943A2E99
:102390002FE632E143E05AE30E943A2E0E94E62CF7
:1023A00005C053E0759567955A95E1F770930D0256
:1023B00060930C028091C1048093070260918B05A9
:1023C00070918C0580E090E0C091D104D11115C0CE
:1023D0000E94152D4B015C016C2F70E080E090E0B5
:1023E0000E94172D9B01AC01C501B4010E943A2E39
:1023F00027E137EB41ED58E314C00E94152D4B0146
:102400005C016C2F70E080E090E00E94172D9B0132
:10241000AC01C501B4010E943A2E2FE632E143E03F
:102420005AE30E943A2E0E94E62C709309026093B0
:1024300008028091CC048111C4C08091CE04C09167
:10244000F701D091F8010091F9011091FA01811181
:1024500044C04E01A12CB12C20919F053091A005C4
:1024600043E0359527954A95E1F7C901330FAA0B4B
:10247000BB0B9C01AD01281939094A095B09D80138
:102480000E94A12F00E014E020E030E0A9019801B3
:10249000281939094A095B090E94822FCA01B9012A
:1024A0000E94172D4B015C0120E030E0A9010E9441
:1024B000632C87FD09C080928B0490928C04A092BB
:1024C0008D04B0928E0498C010928B0410928C04EC
:1024D00010928D0410928E048FC080911301909100
:1024E000140160910401709105018617970740F06F
:1024F00060910601709107018617970708F4BC01E7
:10250000CB01A0E0B0E0BC01CD01685E7340810961
:102510009109623F23E072078105910548F42AE0A2
:1025200030E040E050E00E94AC2F49015A0105C064
:1025300094E6892E912CA12CB12CC501B4010E94E6
:10254000152D2B013C01A5019401C501B4010E9488
:102550002C2B0E94152D2AE037ED43EA5CE30E9404
:102560003A2E9B01AC01C301B2010E94852B4B01A5
:102570005C01B80180E090E00E94152D9B01AC0148
:10258000C501B4010E943A2E2AE037ED43E25CE334
:102590000E943A2E4B015C0180917F04BE0188238A
:1025A00059F080E090E00E94152D9B01AC01C5011F
:1025B000B4010E94852B18C080E090E00E94152D88
:1025C00013C0809162059091630597FF02C0059743
:1025D00001C005966AE070E00E945E2B072E000C99
:1025E000880B990B0E94172D60938B0470938C04B9
:1025F00080938D0490938E048091C304882309F402
:102600004EC02091C7053091C80583E035952795C8
:102610008A95E1F780917D04882389F080911505E2
:102620008F3029F43093FE012093FD0108C08130E2
:1026300031F43093FC012093FB011092150580903A
:10264000FB019090FC01A12CB12CC901330FAA0B06
:10265000BB0B9C01AD01281939094A095B09A4E6A5
:10266000B0E00E94A12F2091FD013091FE0189016F
:1026700020E030E0A9019801281939094A095B09CD
:102680000E94822F2536310514F024E630E037FF12
:1026900002C020E030E0309376042093750481E09E
:1026A0008F0D883018F48093C60602C01092C606BB
:1026B000DF91CF911F910F91FF90BF90AF909F90AE
:1026C0008F907F906F905F904F900895CF92DF92A0
:1026D000EF92FF920F931F93CF93DF9380E090E0F0
:1026E0000E9418058D3009F457C0C0E0D0E0FE010B
:1026F000E153FA4F6491CE010E9416052196CC3425
:10270000D105A9F7FE01EB58FA4F05911491602FFE
:10271000CE010E941605612FCE0101960E9416057A
:102720002296CA35D10571F78E010A551109C801E3
:1027300081599A4F7C01FC01C590D4906C2DCE013B
:102740000E9416056D2DCE0101960E941605F80116
:10275000E35EFA4F05911491602FCE018E5A9F4F80
:102760000E941605612FCE018D5A9F4F0E941605BB
:10277000F70105911491602FCE018C559F4F0E9457
:102780001605612FCE018B559F4F0E94160522968C
:10279000CE3FD10509F0C8CFDF91CF911F910F91A6
:1027A000FF90EF90DF90CF900895BF92CF92DF928D
:1027B000EF92FF920F931F93CF93DF93C090BE04CD
:1027C00022E5C29EC0011124B090DD0403E214E0B2
:1027D0007C013CEAE30EF11CFC01E65AFF4F6F015D
:1027E000C6010E941805C82FD0E0F801D183C0832C
:1027F000C60101960E941805282F30E0322F2227AB
:102800002C0F3D1FF80131832083BB2081F0C901CB
:1028100091708739910558F0813F910518F4225E37
:102820003F4F03C0245C3F4FF80131832083F2E027
:10283000CF0ED11C0E5F1F4FCE14DF0489F6DF913F
:10284000CF911F910F91FF90EF90DF90CF90BF90AD
:1028500008955E9A2A9864E670E080E090E00E9415
:102860005D162A9A80E58CBD81E08DBD8DB58EB553
:102870006AE070E080E090E00E945D165E9864E699
:1028800070E080E090E00E945D1680EA0E94931064
:102890008FEF0E9493108370813029F48093DD04C0
:1028A00080930E050CC0823029F41092DD04109242
:1028B0000E0505C09091DD049E5F90930E058093F8
:1028C0001D048091DD04882341F080EE91E0909317
:1028D000F4018093F3016CE407C086E891E09093E3
:1028E000F4018093F3016CE080E00E9499105E9AFD
:1028F0009FB7F894E89A809169008260809369009C
:102900009FBF0C94D513EF92FF920F931F93CF9319
:10291000DF930FEB14E0C0E0D0E0CE010E94180579
:10292000F80181938F012196CC34D105B1F735EFB1
:10293000E32E31E0F32ECE010E941805082F10E09F
:10294000F70111830083CE0101960E94180590E0E3
:10295000982F8827080F191FF701019311937F0102
:102960002296CA35D10539F7DF91CF911F910F918A
:10297000FF90EF900C94D51380918A04882329F05E
:1029800080E090E1A0E0B0E05AC080917D0488230F
:1029900029F08FE996E0A4E0B0E051C08AE090E031
:1029A000A0E0B0E08093820490938304A093840419
:1029B000B093850420917B0421FF0CC08AE190E054
:1029C000A0E0B0E08093820490938304A0938404F9
:1029D000B093850480910B05813089F08091820449
:1029E00090918304A0918404B091850481608093C8
:1029F000820490938304A0938404B093850423FFFE
:102A000011C08091820490918304A0918404B091BC
:102A10008504806A8093820490938304A093840445
:102A2000B093850480918F04811111C0809182043C
:102A300090918304A0918404B09185049860809360
:102A4000820490938304A0938404B09385048091BE
:102A5000CA04811104C08091C404882389F0809144
:102A6000820490918304A0918404B09185049160C4
:102A70008093820490938304A0938404B09385048C
:102A80004091860450918704609188047091890474
:102A90008091820490918304A0918404B091850474
:102AA00084239523A623B7238093860490938704D9
:102AB000A0938804B09389040895CF92DF92EF9297
:102AC000FF920F931F93CF93DF93C42F97FF08C0FC
:102AD00090958095709561957F4F8F4F9F4FC22F36
:102AE00024E630E040E050E00E94822FCA01B901A4
:102AF0001092DD06C093DC06C9E02AE0C22ED12C7C
:102B0000E12CF12CDEE2C43019F4D093D606C3E0F8
:102B1000C1500C2F10E00D52194FA70196010E94D1
:102B2000822F605DF8016083B901CA01CC2339F0BE
:102B3000C33048F7611571058105910521F780E2E1
:102B4000CC2339F0C150EC2FF0E0ED52F94F8083E7
:102B5000F7CF83ED96E0DF91CF911F910F91FF901A
:102B6000EF90DF90CF900895E2E6F6E02491EEE456
:102B7000F6E09491EAE3F6E0E491EE2309F43BC039
:102B8000222339F1233091F038F42130A9F022309A
:102B900001F524B52F7D12C0273091F02830A1F027
:102BA0002430B9F4209180002F7D03C02091800053
:102BB0002F77209380000DC024B52F7724BD09C046
:102BC0002091B0002F7703C02091B0002F7D20937B
:102BD000B000F0E0EE0FFF1FE75DF94FA591B49153
:102BE0002FB7F894EC91811103C090959E2301C0FA
:102BF0009E2B9C932FBF0895CF93DF9390E0FC0111
:102C0000E95BF94F2491FC01ED5CF94F8491882335
:102C100061F190E0880F991FFC01E15EF94FC591C9
:102C2000D491FC01E75DF94FA591B491611109C000
:102C30009FB7F8948881209582238883EC912E2376
:102C40000BC0623061F49FB7F8943881822F809571
:102C500083238883EC912E2B2C939FBF06C08FB7C4
:102C6000F894E8812E2B28838FBFDF91CF910895B0
:102C70003FB7F8948091EB069091EC06A091ED0699
:102C8000B091EE0626B5A89B05C02F3F19F001961E
:102C9000A11DB11D3FBFBA2FA92F982F8827820FE2
:102CA000911DA11DB11DBC01CD0142E0660F771F32
:102CB000881F991F4A95D1F708958F929F92AF92DE
:102CC000BF92CF92DF92EF92FF926B017C010E9444
:102CD00038164B015C01C114D104E104F104F1F098
:102CE0000E943816DC01CB0188199909AA09BB0991
:102CF000883E9340A105B10570F321E0C21AD108C6
:102D0000E108F10888EE880E83E0981EA11CB11C32
:102D1000C114D104E104F10419F7DDCFFF90EF9065
:102D2000DF90CF90BF90AF909F908F9008952FB776
:102D3000F8946091E7067091E8068091E906909119
:102D4000EA062FBF08951F920F920FB60F9211241B
:102D50002F933F938F939F93AF93BF938091E706F9
:102D60009091E806A091E906B091EA063091E60656
:102D700023E0230F2D3720F40196A11DB11D05C0BE
:102D800026E8230F0296A11DB11D2093E60680932D
:102D9000E7069093E806A093E906B093EA068091CF
:102DA000EB069091EC06A091ED06B091EE0601962F
:102DB000A11DB11D8093EB069093EC06A093ED0648
:102DC000B093EE06BF91AF919F918F913F912F915C
:102DD0000F900FBE0F901F901895CF93DF93CDB734
:102DE000DEB7E7970FB6F894DEBF0FBECDBF78947D
:102DF00084B5826084BD84B5816084BD85B5826000
:102E000085BD85B5816085BD80916E0081608093B0
:102E10006E00109281008091810082608093810019
:102E20008091810081608093810080918000816029
:102E3000809380008091B10084608093B100809184
:102E4000B00081608093B00080917A0084608093AC
:102E50007A0080917A00826080937A0080917A0073
:102E6000816080937A0080917A00806880937A00F4
:102E70001092C100E0916601F091670182E08083C9
:102E8000E0916601F09167011082E0916201F0919A
:102E900063011082E0916401F091650180E180831B
:102EA00010926E01E0916A01F0916B0186E08083DF
:102EB000E0916801F0916901808180618083E091F7
:102EC0006801F0916901808188608083E0916801E8
:102ED000F0916901808180688083E0916801F091C0
:102EE000690180818F7D808386E591E00E942E04B8
:102EF00084B18C6284B92498569A529860E084E137
:102F00000E94FC1560E081E10E94FC1560E081E117
:102F10000E94FC1561E087E00E94FC153B98F89444
:102F200080916C0083FD0AC080916800826080936C
:102F3000680080916C00886080936C0078940E9497
:102F400066130E94831464EF71E080E090E00E94B9
:102F50005D168091E404882311F081E001C083E0D4
:102F6000809300010E94291480917B0490917C043D
:102F70008F6090937C0480937B040E94BC1458E67D
:102F8000252E3324339410925D0580912305909172
:102F900024050196909324058093230580910D05C7
:102FA000882311F00C940000E091F904E0932D01C6
:102FB0001092BE048091F8048823A1F0F0E0EE0F97
:102FC000FF1FE55FFE4F80819181813426E09207EB
:102FD00010F081E004C089379540E0F082E08093F2
:102FE000BE0418C04091AA045091AB046091AC0497
:102FF0007091AD048091BA049091BB04A091BC047F
:10300000B091BD0484239523A623B723892B8A2B53
:103010008B2BF9F61091BE0480915C0518130E9469
:10302000D51310935C0510910F05163010F081E058
:1030300001C080E00E94B4150E9497166B017C01CC
:103040008091580590915905A0915A05B0915B0562
:10305000B701A601481B590B6A0B7B0B443651057F
:103060006105710508F48FC08C599F4FAF4FBF4F5A
:103070008093580590935905A0935A05B0935B052A
:103080001F5F10930F05809110058F5F80931005CF
:1030900081E090911205911180E08093120580915A
:1030A00010048823A1F180917F04882381F160912D
:1030B000FC037091FD036115710549F12091DC0459
:1030C00080E090E0222339F00E94152D21EB32E0C0
:1030D00047E55BE306C00E94152D2FE632E143E889
:1030E0005AE30E943A2E9B01AC0160912D0570912C
:1030F0002E0580912F05909130050E94852B6093BD
:103100002D0570932E0580932F05909330056091C7
:103110002D0570912E0580912F05909130050E940C
:10312000E62C60930302709304028093050290934F
:1031300006028091CD048823D1F020918B04309138
:103140008C0440918D0450918E04609154057091CF
:10315000550580915605909157050E94852B6093E7
:1031600054057093550580935605909357058091AB
:103170008A04811108C080912105811104C060E09A
:103180008CE60E949C0C8091500590915105A09175
:103190005205B0915305C81AD90AEA0AFB0A42E35C
:1031A000C416D104E104F10410F40C941929C29658
:1031B000A11DB11D8093500590935105A093520518
:1031C000B09353058091860490918704A091880460
:1031D000B0918904892B8A2B8B2B81F480918204F6
:1031E00090918304A0918404B09185048093860417
:1031F00090938704A0938804B09389044091860437
:1032000050918704609188047091890488279927D8
:10321000DC01841B950BA60BB70B84239523A623F7
:10322000B7238C019D010095109520953095402382
:103230005123622373234093860450938704609341
:10324000880470938904811551E09507A105B105A3
:1032500009F451C018F588309105A105B10509F4AC
:1032600044C060F481309105A105B105E1F10297F8
:10327000A105B10509F049C085E648C08032910535
:10328000A105B105B1F180389105A105B10579F12C
:103290004097A105B105C9F58DE638C0811578E0E4
:1032A0009707A105B10579F168F48115F2E09F0750
:1032B000A105B10521F181159440A105B10529F5BC
:1032C00080E724C0009731E0A307B105B1F0009773
:1032D00044E0A407B105A9F081159041A105B1050D
:1032E000A1F48CED13C084E611C089E60FC08AE614
:1032F0000DC08BE60BC08EE609C082E707C08FE6E3
:1033000005C08BE303C087E701C080E090918A0489
:1033100091113EC090912105911103C060E00E947F
:103320009C0C5E9860E085E00E94991060E086E069
:103330000E94991061E084E00E9499100E942A1076
:1033400026E1E22E22E0F22E00E010E030E2D32E61
:103350008091F3019091F4010817190780F4003F60
:10336000110511F40E942A10D7016C9187E00E9488
:103370009910F701D1927F010F5F1F4FE9CF6FEFD7
:1033800087E00E94991060E084E00E9499105E9AA4
:103390000E9402118091800490918104059788F524
:1033A0009FE1E92E94E0F92E00E410E0F701859109
:1033B0009491B8010E945D10F2E0EF0EF11C025EE4
:1033C0001F4F003321E0120789F788EF90E00E9439
:1033D0008210E0910E05F0E0EE0FFF1FE95EFB4F5B
:1033E0008591949166E171E00E945D1080914E0597
:1033F00090914F05CC9790931405809313050C94EE
:10340000192910917F04112349F081E080937E04F3
:1034100080917D04813011F40E941A0500917E0490
:10342000002371F011110CC010920A018AE0809300
:10343000090181E08093080180937D040E94BC14FF
:1034400080917D04882309F4B5C310910A01E12F0E
:10345000EE0FFF0BEF54FB4F8591949163E270E008
:103460000E945D106BE671E08CEA94E00E945D10B2
:1034700001110CC061E771E082EA94E00E945D10E6
:103480006BE771E08BE994E00E945D1011118BC035
:103490008091030290910402A0910502B09106026E
:1034A0008D839E83AF83B8878091F6039091F70355
:1034B000A091F803B091F90389879A87AB87BC87FD
:1034C00080910E0290910F02092E000CAA0BBB0BEB
:1034D0008D879E87AF87B88B8091FA039091FB030D
:1034E000A0E0B0E0898B9A8BAB8BBC8B20E030E006
:1034F00044EB53E460915405709155058091560555
:10350000909157050E946D2C0E94E62C6D8B7E8B4E
:103510008F8B988F80910A0290910B026AE070E085
:103520000E944A2BCB01A0E0B0E0898F9A8FAB8F2D
:10353000BC8F0DE8E02E04E0F02EAE014F5F5F4F30
:103540006A010DE510E0F70185919491B8010E94A0
:103550005D10F60181919191A191B1916F014AE0C5
:1035600062ED76E00E94372FB8016F5E7F4F0E94B8
:103570007810F2E0EF0EF11C025E1F4F0F3221E0D7
:10358000120709F760911E0470911F0480E090E01B
:1035900021E042ED56E00E94490F6DE670E082EDB9
:1035A00096E00E94781080910A01813009F091C064
:1035B0000E94021187E98093D20623E044E063ED84
:1035C00076E080910C0290910D020E94DE0F19EAC4
:1035D0001093D7061092D80664E370E082ED96E06F
:1035E0000E9478108FEB8093D20623E044E063EDD5
:1035F00076E080910802909109020E94DE0F1093FC
:10360000D7061092D8066CE270E082ED96E00E9438
:1036100078101FE7E12E14E0F12E0DE510E0F70120
:1036200085919491B8010E945D1032E0E30EF11C87
:10363000025E1F4F0F3241E0140789F78091D004DA
:103640004AE062ED76E090E00E94372F6BEC70E08C
:103650000E94781067E081E790E00E9468108091F6
:10366000C9044AE062ED76E090E00E94372F6FE8EF
:1036700070E00E9478108091C7044AE062ED76E025
:1036800090E00E94372F6DEA70E00E94781061E1AF
:103690008BEC90E00E9468108091D1044AE062EDCA
:1036A00076E090E00E94372F69EE70E00E9478107B
:1036B0008091C8044AE062ED76E090E00E94372FE6
:1036C00067E071E00E9478106BE085E291E00E9473
:1036D000681080910A01823009F06FC04AE062ED03
:1036E00076E080917504909176040E94372FE0E097
:1036F000AE2FB0E0AE52B94F8C91EF5F8111F8CF91
:1037000085E28C93F0E0EE52F94F108265E370E0B1
:1037100082ED96E00E947810B3E7EB2EB4E0FB2E2A
:103720000DE510E0F70185919491B8010E945D10BC
:1037300052E0E50EF11C025E1F4F013161E01607F9
:1037400089F764E081E790E00E9468108091150598
:10375000882349F04AE062ED76E090E00E94372F3E
:103760006FE870E004C06FE870E083E591E00E94CC
:10377000781065E08DEA90E00E94681066E08BECBE
:1037800090E00E9468104AE062ED76E08091FD01D1
:103790009091FE010E94372F69EE70E00E94781030
:1037A0004AE062ED76E08091FB019091FC010E947D
:1037B000372F67E071E00E94781080910A01833012
:1037C00009F05AC060918B0470918C0480918D0433
:1037D00090918E040E94DF2CDC01CB0123E044E0B9
:1037E00062ED76E00E94DE0F8AE98093D6061092A1
:1037F000D70664E370E082ED96E00E947810A9E6B7
:10380000EA2EA4E0FA2E0DE510E0F70185919491DF
:10381000B8010E945D1072E0E70EF11C025E1F4FBE
:10382000033F110591F76CE081E790E00E9468107A
:103830006EE08FE890E00E9468106FE08DEA90E003
:103840000E9468104AE062ED76E08091F901909163
:10385000FA010E94372F6BEC70E00E9478104AE06A
:1038600062ED76E08091F7019091F8010E94372F88
:1038700069EE70E00E94781080910A01843009F0AE
:1038800044C0F9E5EF2EF4E0FF2E0DE510E0F7015E
:1038900085919491B8010E945D1082E0E80EF11CC0
:1038A000025E1F4F0D3491E0190789F760E281E74E
:1038B00090E00E94681061E28FE890E00E9468103A
:1038C0006DE28DEA90E00E9468106FE18BEC90E071
:1038D0000E94681067E189EE90E00E94681064E33E
:1038E00087E091E00E9468106EE285E291E00E941C
:1038F00068108091E3044AE062ED76E090E00E9477
:10390000372F63E471E00E94781080910A018530BE
:1039100009F058C0EDE4EE2EE4E0FE2E0DE510E0D7
:10392000F70185919491B8010E945D10A2E0EA0E22
:10393000F11C025E1F4F0131B1E01B0789F7809136
:10394000DC0461E770E0811103C089E494E002C007
:1039500085E494E00E945D108091E4046FE870E0DB
:10396000882319F082E494E002C08DE394E00E9481
:103970005D106CE28DEA90E00E946810809116055F
:10398000882349F04AE062ED76E090E00E94372F0C
:103990006BEC70E004C06BEC70E083E591E00E949A
:1039A00078108091F9044AE062ED76E090E00E94A0
:1039B000372F69EE70E00E94781063E187E091E0B4
:1039C0000E94681080910A01863009F04EC08091F3
:1039D000FD0490E09E8F8D8F8091FE0490E098A36F
:1039E0008F8F8091FF0490E09AA389A380910005B6
:1039F00090E09CA38BA38091D30490E09EA38DA321
:103A00008091D40490E098A78FA30DE510E0E12CFD
:103A1000F12CD12CF701E15DFB4F85919491B80118
:103A20000E945D10E6E0DE1691F04AE062ED76E07D
:103A3000EDE1F0E0EC0FFD1FEE0DFF1D80819181A7
:103A40000E94372FB8016C5E7F4F0E947810D3948C
:103A5000F2E0EF0EF11C025E1F4F27E0D212DACF28
:103A600060E185E291E00E94681080910A01873050
:103A700014F010920A01209109012A3079F4809102
:103A80000801833011F40C94F329813009F480C0CB
:103A9000823009F080C080E791E07FC02A3008F0D2
:103AA0007AC030910A01313079F483E080930801C3
:103AB000283019F48AE08093090180910901893046
:103AC00009F063C087E05FC0323079F483E080930F
:103AD0000801273019F48AE08093090180910901D7
:103AE000893009F052C086E04EC0333069F430931B
:103AF0000801293019F485E08093090180910901BA
:103B0000863009F042C03EC03430E9F4293049F42F
:103B100080913105883011F48AE001C088E08093FB
:103B20000901209109012093310583E08093080168
:103B300030E02E5F3F4F4EE1429FC001439F900D0A
:103B4000112446962AC080E090E0353069F483E085
:103B500080930801293019F486E08093090180914F
:103B60000901873091F40EC03630B9F483E08093B8
:103B70000801293019F487E0809309018091090137
:103B8000883019F48AE08093090120910901D0CF8F
:103B90008AE691E002C080E090E0209112052223A5
:103BA00011F40C941929FC01EA5EFD4F23E02083F7
:103BB0000C9419290E94BC1480917B0480FF25C2BB
:103BC000C0907904D0907A04E0907704F090780463
:103BD00080E58093D206C6013AE0C316D10434F0E2
:103BE0006AE070E00E945E2BCB010CC066EF7FEFB5
:103BF0000E945E2BCB01D7FE05C02DE22093D30699
:103C000022E001C021E030E0B9016E52794F4AE074
:103C10000E94372F8FE00E94390F882349F060916E
:103C2000410470914204717082ED96E00E94781018
:103C300082E58093D206C7014AE0E416F10434F02D
:103C40006AE070E00E945E2BCB010CC066EF7FEF54
:103C50000E945E2BCB01F7FE05C02DE22093D30618
:103C600022E001C021E030E0B9016E52794F4AE014
:103C70000E94372F80E10E94390F882349F060911C
:103C8000430470914404717082ED96E00E947810B4
:103C9000B090EC04B1100AC08091F404811106C008
:103CA00083E18093020180930101AAC080917F0487
:103CB000811104C01092FD031092FC030091FC03DB
:103CC0001091FD0380914005909141059801215F7D
:103CD0003F4F28173907C0F40E94971660933C05A0
:103CE00070933D0580933E0590933F0582E080935D
:103CF0003B051093410500934005809102018150DE
:103D00008031E8F485E11BC00F9680179107C8F455
:103D10000E94971660933C0570933D0580933E0585
:103D200090933F0581E080933B05109341050093FC
:103D30004005809102018F5F863108F080E1809319
:103D40000201409010025090110260901202709097
:103D500013028091370590913805A0913905B091F3
:103D60003A05B301A2014C5E5F4F6F4F7F4F48177A
:103D700059076A077B07E4F40E949716609333059E
:103D800070933405809335059093360582E08093D7
:103D9000320540923705509238056092390570928D
:103DA0003A05809101018150803128F585E123C0D9
:103DB0004496A11DB11D84159505A605B705ECF423
:103DC0000E949716609333057093340580933505F0
:103DD0009093360581E080933205409237055092EA
:103DE00038056092390570923A05809101018F5F24
:103DF000863108F080E180930101BB2009F450CFA7
:103E00000091550410915604117059ECC516D10457
:103E100054F468E3C6166FEFD60644F468E3C62E82
:103E2000DD24DA9403C078ECC72ED12C71E9E716B3
:103E300071E0F70654F480E7E8168EEFF8064CF4CC
:103E400040E7E42E4EEFF42E04C050E9E52EFF24A7
:103E5000F394B090DF0489E10E94390F8B2109F4BB
:103E60008FC026019AE0490E511C57FE04C026015E
:103E7000A1E14A0E511C83E0559447948A95E1F7DD
:103E80005194419451089090F10440E094E0692EDF
:103E9000712C29E0C22ED12C3EE1832EE42FF0E0DC
:103EA000C3018E1B9F0BE89E9001E99E300DF89E8A
:103EB000300D112437FF02C0215C3F4FB6E035952D
:103EC0002795BA95E1F7240D351D275D3F4F223523
:103ED0003105F0F5E00FF11FC901B6010E945E2B1C
:103EE000869ED001879EB00D1124EA0FFB1FBF01F3
:103EF0006C577109603EB1E07B0728F4DB01AA5ED4
:103F0000BD4F80588C93992019F18EEF840F853026
:103F1000F8F4CF01865D9109803E51E0950758F491
:103F2000BC016A5E7D4F5B01C901B6010E945E2B38
:103F30008058D5018C93B297E03EB1E0FB0740F486
:103F4000EA5EFD4FC901B6010E945E2B8058808356
:103F50004F5F493028F4443009F0A0CF45E09ECFB0
:103F600082E20E94390F81110BC0F801EA5EFD4F19
:103F7000DF01119786E28C938CEB81838EE780833F
:103F80008091E004882309F440C08AE10E94390F3F
:103F90008823D9F180915D04982F9F7080915B04F4
:103FA0008F70B82E482F4195609102015091010108
:103FB000C92E990FDD0898012C193D097601E00EF4
:103FC000F11EEEE14E02C00111248A5E9D4FFC01FC
:103FD000E20FF31F6083FC01EE0DFF1D50834F5F66
:103FE000B4167CF7F801EC19FD09E95EFD4F83E09A
:103FF0008083F801EC0DFD1DEB5EFD4F82E08083B8
:104000008091F40481110C94F7298091C6048823CF
:1040100009F45CC0B090C704B0924305E091C804B5
:10402000E09342058091E10400910C0210910D0291
:104030008823A9F162E2E69F600111247AE2E79FFA
:10404000F00111240C151D0510F42C2D07C09F0143
:10405000225031090217130708F498010D2C000CA7
:10406000EE08FF08822F90E0A0E0B0E09C01AD01D7
:104070002C193D094E095F09A7E0B0E00E94A12F6D
:1040800031972F01612C712CA30192012C193D094C
:104090004E095F090E94822F86E9821B01C087E9D1
:1040A0008093D206EB2CF12C0E151F0520F4809185
:1040B000110581110BC085E10E94390F81110C940B
:1040C0005B2AE016F10610F00C945B2A8091D00474
:1040D000882369F1009108021091090220910702DA
:1040E00030E00217130720F48091110581111FC0E1
:1040F00086E10E94390F8823D1F08FEB8093D2069E
:1041000023E044E063ED76E0C8010E94DE0F89EA17
:104110008093D7061092D80660914F047091500496
:1041200071706150710982ED96E00E947810809163
:10413000C3048823B1F10091750410917604209195
:10414000C20430E02017310724F080911105882344
:1041500041F183E10E94390F882319F18AEB8093A2
:10416000D2064AE063ED76E0C8010E94372FE0E016
:10417000AE2FB0E0AE52B94F8C91EF5F8111F8CF06
:1041800085E28C93F0E0EE52F94F10826091490481
:1041900070914A0471706150710982ED96E00E943D
:1041A00078108091CB04882309F45CC0C0908B0404
:1041B000D0908C04E0908D04F0908E0420E030E0EC
:1041C00040E251E4C701B6010E946D2C4B015C0135
:1041D0006091D40470E080E090E00E94172D9B0174
:1041E000AC01C501B4010E94632C87FD04C080911D
:1041F00011058823B9F160910A0270910B0280E0E9
:1042000090E00E94152D9B01AC01C701B6010E94F0
:104210002D2E181644F4C701B6010E94E62C7093A7
:104220000B0260930A0287E10E94390F8823D1F0C4
:10423000C701B6010E94DF2CDC01CB0124E045E080
:1042400062ED76E00E94DE0F8AE98093D706109235
:10425000D8066091510470915204717082ED96E01D
:104260000E9478108091CD048823B1F120E030E0E5
:1042700044EB53E4609154057091550580915605C7
:10428000909157050E946D2C0E94DF2C6B017C01E0
:104290002091D30484E6289F900111242C153D051C
:1042A00024F4809111058823B9F088E10E94390F28
:1042B000882391F084EA8093D2064AE063ED76E0A9
:1042C000C6010E94372F609153047091540471709D
:1042D00082ED96E00E9478108091F204882309F420
:1042E0004CC000913D0410913E04011592E0190765
:1042F00008F443C080917F048823F1F020914405A5
:1043000030914505C9016CE370E00E944A2B809111
:10431000000590E06817790720F080911105811160
:104320002CC02031AEE03A0728F48CE98093D20605
:10433000B90116C081E709C060914E0570914F0523
:104340006031BEE07B0720F48BE98093D20608C081
:1043500080E78093D206CB016CE370E00E944A2B89
:1043600080E090E020E043ED56E00E94490FB80164
:10437000717082ED96E00E94781085E20E94390FFC
:104380008823A1F100916D0410916E041170609169
:104390000C0270910D0280E090E00E94152D20919A
:1043A0008B0430918C0440918D0450918E040E94B6
:1043B0003A2E20E030E048EC52E40E946D2C0E943E
:1043C000E62CDC01CB0125E045E063ED76E00E94C0
:1043D000DE0F80E28093D20687E58093D7061092A5
:1043E000D806B80182ED96E00E9478108EE00E9417
:1043F000390F882309F4ADC08091CF04882309F4D4
:10440000A8C080917F04811107C080915D05826002
:1044100080935D058EE10EC080910301882369F0D1
:1044200090911205911195C090915D0594609093C3
:104430005D0581508093030105C080915D05816019
:1044400080935D058091430590E020910C023091AE
:104450000D028217930728F080915D058064809398
:104460005D0580917B0483FF1CC080912204853010
:1044700028F480915D05806280935D058091200520
:10448000811105C080915D05806180935D058091FB
:104490001F05811106C080915D058F7C8860809327
:1044A0005D0580915E05811104C080915D0580935A
:1044B0005E0510915E05212F2195022F01230E9498
:1044C0009716C0902905D0902A05E0902B05F09012
:1044D0002C05E4EFCE0EE1E0DE1EE11CF11CC61659
:1044E000D706E806F90688F4112329F0802F809575
:1044F000182310935E050E94971660932905709308
:104500002A0580932B0590932C0580E090E0E0E055
:10451000202F30E0A901082E02C0559547950A9436
:10452000E2F740FDE82F01968830910599F78091D8
:104530005D05823070F0F0E0EE0FFF1FE154FB4F9D
:104540008591949160913F047091400471700E9434
:104550005D108091DE04882309F48FC08BE00E94F7
:10456000390F882309F489C080E28093D3068091B3
:104570001301909114012091060130910701281731
:10458000390720F4909307018093060120910401DC
:10459000309105018217930720F4909305018093D1
:1045A000040120910601309107012330384030F09A
:1045B00022E038E0309307012093060120910401A6
:1045C00030910501263B334030F426EB33E0309345
:1045D00005012093040120917F04211109C080E28C
:1045E0008093D4069DE29093D5069093D60635C06D
:1045F0002091D204222339F020E044E064ED76E0FB
:104600000E94DE0F2CC0C0900401D0900501E12C67
:10461000F12CA0E0B0E09C01AD012C193D094E0940
:104620005F09A4E6B0E00E94A12F2091060130911D
:104630000701890120E030E0A90198012C193D090A
:104640004E095F090E94822FDA01C90120E043E090
:1046500064ED76E00E94DE0F85E28093D70688EC59
:104660008093D2061092D8066091390470913A0472
:10467000717082ED96E00E94781020914E05309185
:104680004F058091130590911405AC01445C5F4F78
:1046900042175307A0F4805C9F4F8217930720F4C2
:1046A00030931405209313058091E704882339F093
:1046B000809171049091720491700E948210809197
:1046C0007B0482FF59C088E00E94390F8823F9F0EB
:1046D0008091F0048823D9F08091200490912104E6
:1046E000880F991F880F991F83509D4F6AE570E0CE
:1046F0000E945E2B60537B4F809133049091340471
:10470000917049E050E08A5E9D4F0E94272F87E01C
:104710000E94390F882381F18091DA04882361F1A6
:1047200080912004909121042091DB04222381F0C8
:1047300097FF02C088599E4F20E043E062ED76E08B
:104740000E94DE0F8DEB8093D5061092D6060BC02B
:1047500020E044E062ED76E00E94DE0F8DEB809376
:10476000D6061092D70660913104709132047170B0
:1047700082ED96E00E94781080917B0481FFB9C0A1
:104780008091DC048823A1F06091100270911102E5
:1047900080911202909113020E94172D2EEA31E6A9
:1047A00046E05DE30E943A2E0E94DF2C8B010FC091
:1047B0006091100270911102809112029091130287
:1047C00024E630E040E050E00E94822F8901809191
:1047D0007F04882389F0809180049091810406975A
:1047E00058F080910E0290910F028017910724F4E7
:1047F00010930F0200930E0289E00E94390F882364
:1048000069F18091EF04882349F14091FE0444232B
:1048100071F0C8016AE070E00E945E2B842F90E086
:104820006817790724F080911105811117C04AE0BB
:1048300063ED76E0C8010E94372FE091DC04F0E0E0
:10484000EA5CFE4F80818093D206609135047091BE
:104850003604717082ED96E00E9478108AE00E9422
:10486000390F882309F445C08091EE04882309F4A8
:1048700040C0009137041091380411700A5E1D4F3A
:10488000F8017E978FE78083D8018C935E968C9396
:1048900020911402309115022937310534F428385B
:1048A000BFEF3B071CF428E801C028E7822F220F46
:1048B000990BAA0BBB0B9C01AD012857310941098B
:1048C0005109A1E1B0E00E94A12F20E13FEF4FEF9D
:1048D0005FEF0E94822F822F66E00E943C2B815066
:1048E000F8012EE18202E00DF11D11248FE8891BF1
:1048F000808380917B0483FF6CC38091D5048823DF
:1049000009F467C310912204153020F48091110539
:1049100081111BC080E00E94390F8823B1F08EE125
:104920008093D2068FE18093D3064AE064ED76E06F
:10493000812F90E00E94372F60912304709124040E
:10494000717082ED96E00E947810809110048823A7
:1049500009F46AC081E00E94390F8823C9F180916F
:104960000A0490910B04A0910C04B0910D040397DC
:10497000A105B10520F480911105811129C0209174
:1049800025043091260431708091200490912104F7
:10499000845E9D4F40910E0450910F04841B950B33
:1049A000880F991F880F991F8D966AE570E00E9405
:1049B0005E2BCB0160E170E00E945E2B805A8093F9
:1049C000D2061092D306B90182ED96E00E947810CB
:1049D0008091DC04882309F487C560910A047091F2
:1049E0000B0480910C0490910D040E94152D21EA76
:1049F00038EF41E550E40E943A2E0E94E62C6B010C
:104A00007C018091F6039091F703A091F803B09197
:104A1000F9038C159D05AE05BF0508F46EC582E04F
:104A20000E94390F81117DC580911004882309F4FB
:104A300052C084E00E94390F8823E1F08091D904AC
:104A40008823C1F020E043E062ED76E080910E041F
:104A500090910F040E94DE0F8DEB8093D50610928B
:104A6000D60660912B0470912C04717082ED96E053
:104A70000E94781080917F04811104C01092FD0380
:104A80001092FC03F090DC046091FC037091FD0334
:104A900080E090E0F11076C50E94152D2CEB34E7F4
:104AA00043E15DE30E943A2E0E94E62C8B01809147
:104AB000FA039091FB039C012C5E3F4F20173107B6
:104AC00008F067C53093FB032093FA0383E00E944C
:104AD000390F811167C580911004882309F4C2C081
:104AE0008091D804882309F457C085E00E94390FCB
:104AF000882309F451C08091DC048823A9F06091D7
:104B0000FE037091FF0380910004909101040E94C4
:104B1000172D21EA38EF41E550E40E943A2E0E9419
:104B2000DF2C6B017C0108C0C090FE03D090FF0316
:104B3000E0900004F09001041091FE041123A9F00C
:104B4000C701B6012AE030E040E050E00E94822F29
:104B5000812F90E0A0E0B0E0281739074A075B07F3
:104B600024F080911105811117C04AE063ED76E0D1
:104B7000C6010E94372FE091DC04F0E0EA5CFE4FB2
:104B800080818093D20660912D0470912E04717003
:104B900082ED96E00E94781081E10E94390F88230F
:104BA00009F460C08091BA049091BB04A091BC0448
:104BB000B091BD040091960410919704209198043F
:104BC0003091990441E050E060E070E00097A10569
:104BD000B10519F040E050E0BA01402351236223AF
:104BE0007323452B462B472BE9F580239123A223E2
:104BF000B3232091D604822B892B8A2B8B2B91F106
:104C0000009145041091460411708AEC8093D206FD
:104C10006091060470910704809108049091090442
:104C200023E54EE40E945D15B80182ED96E00E94F6
:104C30007810009147041091480411708BEC809318
:104C4000D206609102047091030480910404909153
:104C5000050427E545E40E945D15B80182ED96E064
:104C60000E9478103091E30439AB323079F040F48F
:104C7000313009F0AEC1A1E0B0E0BEABADAB10C0C9
:104C800049A9433049F0443009F0A3C162E070E023
:104C90007EAB6DAB11E005C082E090E09EAB8DABCA
:104CA00010E080911004882309F493C182E20E94ED
:104CB000390F882309F48DC11AAB10E000E02AA94E
:104CC000822F90E04DA95EA9841795070CF081C151
:104CD00080910E0490910F04BAA9B13061F4209133
:104CE000460530914705821B930B845E9D4FB101B1
:104CF0000E944A2B0BC088599E4F2091200430916E
:104D00002104821B930BB1010E945E2B9C016AE57A
:104D100070E00E945E2B6130710589F024F4672BEE
:104D2000D1F41FEF12C06230710589F06330710554
:104D300091F4A101421B530B9A011FEF0BC0E4EB4E
:104D4000F0E0E21BF30B9F0111E001E004C0245BE3
:104D5000310911E00FEFB901330F880B990B0E9455
:104D6000172D2BED3FE049E450E40E943A2E20E05D
:104D700030E044E353E40E946D2C4B015C016091F0
:104D80000A0470910B0480910C0490910D040E9410
:104D9000152D2B013C01C501B4010E94A72E9B01DA
:104DA000AC01C301B2010E943A2E0E94E62C6B01B5
:104DB0007C017CAB6BABC501B4010E94682C9B01EC
:104DC000AC01C301B2010E943A2E0E94E62C2B01D5
:104DD0003C01C414D50410F4A20101C0A60160E096
:104DE00070E0443651056105710590F0443F81E063
:104DF00058076105710508F4F8C3443C99E0590768
:104E00006105710508F4F6C3CA01A4E2ABAB09C0A1
:104E1000B1E2BBAB84E690E0443151056105710518
:104E2000A0F14C01990FAA08BB08C601A0E0B0E0B0
:104E3000BC01CD0154E0660F771F881F991F5A955A
:104E4000D1F7A50194010E94822F802F002E000C23
:104E5000990B829F7001839FF00C929FF00C11249C
:104E60009201AFE0B0E00E94CE2FA50194010E9414
:104E7000822F812F012E000C990B829FF001839FBE
:104E8000F00D929FF00D112404C0E0E0F0E0E12C61
:104E9000F12CC0906904D0906A0421E0D2229701DD
:104EA000A7014F5F5F4F2A01F7FC9A0135952795BF
:104EB0002C0D3D1DCF0163E070E00E945E2B5EE192
:104EC000569FC001579F900D11243901680E791E1D
:104ED0006AA9613011F025E001C024E0C701F7FEA6
:104EE00004C0882799278E199F09482F417847FFCA
:104EF00003C041504E6F4F5F342FCF01F7FF04C006
:104F0000882799278E1B9F0B63E00E943C2B113052
:104F100019F482E0891B982F0F3F11F431E0341B04
:104F20003296359710F491E0911B73E047165104C7
:104F300028F431E0EF20E09409F430E0AAA9AA2394
:104F400011F060ED01C066EDB9A9B43031F0F32E77
:104F5000FF0C3F0D390FF32E15C080912004909166
:104F600021044091460550914705841B950B8A51B9
:104F70009D4FB1010E944A2B6DE270E00E944A2BC6
:104F800032E7F32EF60EEBA9E093D2061092D30689
:104F90006091670470916804717082ED96E02FABA8
:104FA0000E947810F092D2061092D306B30182EDDF
:104FB00096E00E9478102FA92093D2061092D30673
:104FC000B60182ED96E00E947810FAA9FF5FFAAB75
:104FD00076CE80911F05882309F42BC1C090BA04B6
:104FE000D090BB04E090BC04F090BD048091940488
:104FF00090919504A0E0B0E08C219D21AE21BF21CD
:10500000892B8A2B8B2BD1F08091ED048823B1F072
:105010001092D40686E18093D20687E18093D3066E
:105020008EE10E94390F882349F060915F047091EE
:105030006004717082ED96E00E9478108091F30414
:10504000882309F45AC08091900490E0A0E0B0E079
:105050008C219D21AE21BF21892B8A2B8B2B69F4BA
:105060008091910490E0A0E0B0E08C219D21AE21E0
:10507000BF21892B8A2B8B2B29F080EA8093D206C3
:10508000E1E001C0E0E08091920490E0A0E0B0E0B7
:105090008C219D21AE21BF21892B8A2B8B2B39F0AE
:1050A000AE2FB0E0AE52B94F82EA8C93EF5F8091A1
:1050B000930490E0A0E0B0E0C822D922EA22FB22CB
:1050C000CD28CE28CF2839F0AE2FB0E0AE52B94F60
:1050D00081EA8C93EF5FF0E0EE52F94F108286E0A8
:1050E0000E94390F882349F060912F047091300499
:1050F000717082ED96E00E947810E0911304F0E068
:10510000EE0FFF1FEE50FB4F6591749182ED96E01C
:105110000E94302F8091E6048823B1F181E20E9441
:10512000390F882389F1009165041091660411708C
:10513000B80182ED96E00E9478104091A20450914F
:10514000A3046091A4047091A5048091BA04909185
:10515000BB04A091BC04B091BD0484239523A62375
:10516000B723892B8A2B8B2B79F08AEE8093D2067A
:105170008BEE8093D3061092D406B8016E5F7F4FFA
:1051800082ED96E00E94781080911105811151C046
:1051900084E20E94390F882309F44BC04091BA047D
:1051A0005091BB046091BC047091BD048091960441
:1051B00090919704A0919804B09199048423952329
:1051C000A623B723892B8A2B8B2B11F580919A0468
:1051D00090919B04A0919C04B0919D0484239523FD
:1051E000A623B723892B8A2B8B2BA1F48091B204A1
:1051F0009091B304A091B404B091B5048423952395
:10520000A623B723892B8A2B8B2B99F0E3E003C0CD
:10521000E1E001C0E2E0F0E0EE0FFF1FE651FB4FDE
:105220008591949160916B0470916C0471700E94EF
:105230005D1080911005853048F01092100581E0D6
:1052400090911105911180E0809311050E949716AD
:1052500000911B0510911C0520911D0530911E0524
:1052600008511C4F2F4F3F4F0617170728073907C4
:1052700008F0B2C000931B0510931C0520931D0578
:1052800030931E0510920F058091230590912405FF
:1052900090934D0580934C051092240510922305A0
:1052A000809125059091260590934B0580934A05A2
:1052B00010922605109225058091270590912805CA
:1052C0009093490580934805109228051092270570
:1052D00080914E0590914F05019690934F058093D4
:1052E0004E0580918A04811117C05E9880EA0E9461
:1052F00093108FEF0E949310837090911D04981764
:1053000019F00E94291408C080E80E9493108FEFC2
:105310000E94931083FFF5CF80912005811103C077
:105320001092220403C081508093200580911F05B4
:10533000882319F0815080931F05809121058823CF
:1053400019F081508093210580917F04811109C05B
:105350008091200490912104909347058093460505
:1053600016C080914405909145050196909345059E
:105370008093440580911E0490911F0401969093A0
:105380001F0480931E0410927D040E94BC1480911F
:10539000800490918104019690938104809380040D
:1053A00080911605813051F480917D04882331F07D
:1053B00060E08EEC0E949C0C109216058091160500
:1053C000882319F081508093160580911505882354
:1053D00019F081508093150581E00E944D050E94CF
:1053E00050040C94C3178AE791E00C94CD1D8BE117
:1053F0000E94390F882311F40C9405200E949716FF
:1054000040903C0550903D0560903E0570903F05F2
:1054100058EE450E53E0551E611C711C6415750550
:1054200086059705D8F480913B05F801823059F440
:105430002EE1B29EE019F1091124EC19FD09EA5E92
:10544000FD4F89EC0AC03EE1B39EE00DF11D112431
:10545000EC19FD09EA5EFD4F8FEC80830E949716E0
:1054600000913305109134052091350530913605B2
:1054700008511C4F2F4F3F4F60177107820793074A
:1054800010F00C9405208091320597012A5E3D4F63
:10549000F901823039F44EE1B49EE019F10911248A
:1054A00089EC06C05EE1B59EE00DF11D11248FEC84
:1054B00080830C94052023E044E063ED76E0C8018E
:1054C0000E94DE0F89EA8093D7061092D806609179
:1054D0004D0470914E0471706150710982ED96E037
:1054E0000E9478100C946620C0900A04D0900B049F
:1054F000E0900C04F0900D0484CA8C599F4FAF4F7C
:10550000BF4F8C159D05AE05BF0510F46C017D01E4
:10551000C092F603D092F703E092F803F092F903F9
:105520007ECA1091FD041123A9F0C701B60124E63B
:1055300030E040E050E00E94AC2F812F90E0A0E0EE
:10554000B0E0281739074A075B0720F08091110562
:1055500081116ACA4AE063ED76E0C6010E94372FE6
:10556000E091DC04F0E0EA5CFE4F82818093D20699
:105570006091270470912804717082ED96E00E947A
:10558000781052CA0E94152D2DED3FE347EB5CE3E6
:1055900089CA8017910708F099CA1093FB030093FA
:1055A000FA0394CA8091FF04882341F090E08017A9
:1055B000910720F48091110581118DCAEF2DF0E043
:1055C000EC5CFE4F80818093D2064AE063ED76E08A
:1055D000C8010E94372F6091290470912A047170CC
:1055E00082ED96E00E94781076CA62E26BAB84EF9F
:1055F00091E017CC73E27BAB84EC99E012CCE6E54A
:10560000F1E01382128288EE93E0A0E0B0E08483A0
:105610009583A683B78382E491E09183808385ECB0
:1056200090E09587848784EC90E09787868780EC6C
:1056300090E0918B808B81EC90E0938B828B82EC5D
:1056400090E0958B848B86EC90E0978B868B118E07
:10565000128E138E148E0895DB018F939F930E94F8
:10566000A12FBF91AF91A29F800D911DA39F900D7F
:10567000B29F900D1124089587FB082E062687FD02
:10568000819567FD61950E94782B0EF4919507FC3A
:1056900081950895AA1BBB1B51E107C0AA1FBB1F20
:1056A000A617B70710F0A61BB70B881F991F5A95AE
:1056B000A9F780959095BC01CD01089597FB072E21
:1056C00016F4009407D077FD09D00E944A2B07FCFE
:1056D00005D03EF4909581959F4F08957095619502
:1056E0007F4F0895EE0FFF1F0590F491E02D099470
:1056F000991B79E004C0991F961708F0961B881F24
:105700007A95C9F7809508955058BB27AA270E941B
:105710009C2B0C94DF2D0E94A62D38F00E94AD2DFD
:1057200020F039F49F3F19F426F40C947C2D0EF4EC
:10573000E095E7FB0C94762DE92F0E94042E58F398
:10574000BA17620773078407950720F079F4A6F566
:105750000C94262E0EF4E0950B2EBA2FA02D0B01E3
:10576000B90190010C01CA01A0011124FF27591BA6
:1057700099F0593F50F4503E68F11A16F040A22FAC
:10578000232F342F4427585FF3CF4695379527951D
:10579000A795F0405395C9F77EF41F16BA0B620B1C
:1057A000730B840BBAF09150A1F0FF0FBB1F661F63
:1057B000771F881FC2F70EC0BA0F621F731F841FA6
:1057C00048F4879577956795B795F7959E3F08F0CC
:1057D000B0CF9395880F08F09927EE0F979587958E
:1057E00008950E94A62D60F080E891E009F49EEFF4
:1057F0000E94AD2D28F040E851E071F45EEF0CC03E
:105800000C947C2D0C94262EE92FE0780E94042E17
:1058100040F3092E052AB1F3261737074807590721
:1058200038F00E2E07F8E02569F0E025E0640AC0A4
:10583000EF6307F8009407FADB01B9019D01DC0171
:10584000CA01AD01EF930E94842C0E94DF2D0E94BB
:10585000342C5F91552339F02BED3FE049E450FDA6
:1058600049EC0C94852B0895DF93DD27B92FBF7782
:1058700040E85FE31616170648075B0718F4D92FB0
:105880000E94322E9F938F937F936F930E94F52EE9
:10589000E4E9F0E00E947F2D0E94DF2D2F913F91DF
:1058A0004F915F910E944D2EDD2351F09058A2EA56
:1058B0002AED3FE049EC5FE3D0785D270E949C2B06
:1058C000DF910C94DF2D0E94522D08F481E00895A1
:1058D0000E94B62DE3950C94F02D0E94812C0C941F
:1058E000DF2D0E94AD2D58F00E94A62D40F029F426
:1058F0005F3F29F00C94762D51110C94272E0C94B7
:105900007C2D0E94042E68F39923B1F3552391F363
:10591000951B550BBB27AA2762177307840738F01E
:105920009F5F5F4F220F331F441FAA1FA9F335D07B
:105930000E2E3AF0E0E832D091505040E695001C2F
:10594000CAF72BD0FE2F29D0660F771F881FBB1FE9
:10595000261737074807AB07B0E809F0BB0B802DC7
:10596000BF01FF2793585F4F3AF09E3F510578F0F3
:105970000C94762D0C94272E5F3FE4F3983ED4F3DD
:10598000869577956795B795F7959F5FC9F7880FC7
:10599000911D9695879597F90895E1E0660F771F19
:1059A000881FBB1F621773078407BA0720F0621BAA
:1059B000730B840BBA0BEE1F88F7E09508950E94D5
:1059C000E62C6894B1110C94272E08950E940C2E99
:1059D00088F09F5798F0B92F9927B751B0F0E1F0B0
:1059E000660F771F881F991F1AF0BA95C9F714C060
:1059F000B13091F00E94262EB1E008950C94262E2D
:105A0000672F782F8827B85F39F0B93FCCF3869598
:105A100077956795B395D9F73EF4909580957095F5
:105A200061957F4F8F4F9F4F0895E89409C097FB72
:105A30003EF490958095709561957F4F8F4F9F4F65
:105A40009923A9F0F92F96E9BB279395F6958795A9
:105A500077956795B795F111F8CFFAF4BB0F11F46C
:105A600060FF1BC06F5F7F4F8F4F9F4F16C0882313
:105A700011F096E911C0772321F09EE8872F762F49
:105A800005C0662371F096E8862F70E060E02AF08A
:105A90009A95660F771F881FDAF7880F9695879576
:105AA00097F90895990F0008550FAA0BE0E8FEEF4B
:105AB00016161706E807F907C0F012161306E407D2
:105AC000F50798F0621B730B840B950B39F40A26CB
:105AD00061F0232B242B252B21F408950A2609F4A9
