:100000000C946F030C9451080C9497030C94970371
:100010000C94A8080C9497030C9497030C949703E2
:100020000C9497030C9497030C9497030C949703E8
:100030000C9497030C9497030C9497030C949703D8
:100040000C9447160C9497030C949C0E0C94760E0B
:100050000C9497030C9497030C9497030C949703B8
:100060000C9497030C9497034D04530459045F04B4
:1000700065046B0471048B0493049B04A304AB0418
:10008000B304BB0472057A0582058A0592059A05B8
:10009000A205AA053F0647064F0657065F066706F4
:1000A0006F06F913FF1305140B14C9141114C914A6
:1000B000C9141714C914221437144C14C914C914C0
:1000C000C9146114C914C91476148B14A014C9146A
:1000D000C914C914C914C914C914B51405A84CCD40
:1000E000B2D44EB93836A9020C50B9918688083C72
:1000F000A6AAAA2ABE000000803F4E4F54204445C5
:100100005445435445442D50414C004E4F542044D7
:10011000455445435445442D4E5453430041555492
:100120004F2D50414C004155544F2D4E54534300D8
:1001300053493A0049443A00202020202B5049548A
:1001400043482046554C4C00202020202B59415735
:10015000205249474854004D454E553A5448525450
:10016000204D4944444C4500004D572D4F534420E9
:100170002D2052312E37005445585420414C4152C5
:100180004D5300414D5053004D41482058313030BF
:100190000054494D455200535045454400414C548C
:1001A0004954554445205831300044495354414E38
:1001B0004345205831303000545A2041444A555369
:1001C0005400545A20464F52574152440044495318
:1001D000504C4159005448524F54544C45205057AC
:1001E0004D004F5344205458204348004D41472070
:1001F00043414C0044454255470056205245460075
:10020000554E495453004D4150204D4F44450047F1
:10021000494D42414C0053454E534F5253004750B5
:100220005320434F4F524453005448524F54544C60
:1002300045005343524F4C4C494E47204241525384
:100240000053494445204241525300484F52495AB5
:100250004F4E0041444A555354205A45524F004195
:10026000444A55535420414D505300555345205650
:1002700049525455414C2053454E534F5200444926
:1002800053504C4159204D414800444953504C4132
:100290005920414D50530053455420525353492047
:1002A0004D494E005345542052535349204D415817
:1002B000005553452050574D005345542052535339
:1002C0004900444953504C41592052535349005519
:1002D00053452046430043454C4C5300444953503A
:1002E0004C41592056494420564F4C5453004D41DF
:1002F000494E20564F4C545320414C41524D0041E1
:10030000444A55535420564F4C545300444953507B
:100310004C4159204D41494E20564F4C54530054A6
:1003200048524F54544C45204558504F0054485261
:100330004F54544C45204D494400545041005941BC
:1003400057205241544500524F4C4C205049544381
:10035000482052415445005243204558504F0052C6
:10036000432052415445004D4147004C4556454CB1
:100370000047505300414C540059415700504954D4
:10038000434800524F4C4C004D415820414D505372
:10039000004D41482055534544004D41582053508D
:1003A000454544004D415820414C5449545544451D
:1003B000004D41582044495354414E434500544F49
:1003C000542044495354414E434500464C5920540F
:1003D000494D4500414C41524D5300475053205424
:1003E000494D4500414456414E434544004449531C
:1003F000504C41590043555252454E5400525353AC
:100400004900564F4C544147450052432054554EE5
:10041000494E470050494420434F4E4649470053F8
:1004200054415449535449435300444542554700AD
:100430004C4F5720564F4C5453004C4F572053416C
:10044000545300204E4F20475053004E4F204441FC
:100450005441002041524D45440044495341524DBE
:10046000454400204D495353494F4E004155544F88
:1004700020484F4C44004155544F205254480000EE
:1004800026011D010B01FA006901680157014801AD
:100490003801680134013001AA019D0197019101E1
:1004A000880183017701CD01C201B801312E315697
:1004B00000355600494D50004D4554000002FA01E8
:1004C000F401EC01E201D5014B02410232022902A2
:1004D0001E0216020F0206028A027E026B025F02F1
:1004E0005302C202B902CF02B102A40297020C0366
:1004F000FF02EE02DC02FF02D602CF025F035703C7
:1005000047033E033A032D031F0383037D0379034F
:10051000750371036B036703CB03BE03B103A4032D
:100520009A03910388033C504147453E005341568E
:10053000452B455849540045584954001F0414049C
:100540000A040204FD03F503ED03E403DB03D40313
:100550007F045A0453044B0443043A0430042A042D
:100560001D1A1D1C1D191D1C1D1B1D1C1D181D1CCD
:100570001D1A1D1C1D191D1C1D1B1D7F0476046CDE
:100580000463044F4E004F46460020007BC12A0002
:100590002100900054002400720027003500CB0099
:1005A00060017EC17EC137C110011D0102000F0034
:1005B0004C01F2006BC12FC175017F01C200BB006D
:1005C000BB00030007007A00550106015C003400FF
:1005D000C50064005701BA001801DCC020C034C057
:1005E00036C0B7C090C054C024C072C028C0CBC0B1
:1005F000CAC060C17EC17EC137C110011D0102C0E9
:100600000FC04DC1F3C06BC12FC171C178C1C2C051
:10061000BBC0BBC0030007007AC055C106C15CC0A7
:100620003400C30064C05301BA0018C1DCC000002C
:100630000000960000000004F40158020D00003C88
:10064000000000018A04C800000000000100C8008A
:1006500032640101010000000100000001010000FE
:100660000100000100000000000101010101000182
:10067000010004000000050001000000001E4D57AD
:100680004F534400202020208605830500000000F1
:10069000240027002A0000000000250028002B006D
:1006A0000404040404040404020202020202030318
:1006B0000303030301020408102040800102040820
:1006C00010200102040810200000000800020100B0
:1006D000000304070000000000000000AD2C1124FE
:1006E0001FBECFEFD8E0DEBFCDBF27E0ACE5B1E065
:1006F00001C01D92AB30B207E1F711E0A0E0B1E01C
:10070000E6E7F1E602C005900D92AC35B107D9F7E6
:1007100013E0CFE6D3E004C02197FE010E94202D14
:10072000CE36D107C9F70E9491160C94B9300C94BB
:10073000000060918D058CE591E00C94010ECF9343
:10074000C82F682F8CE591E00E94010E80918D05E5
:10075000C827C0938D05CF910895CF93DF931F9243
:10076000CDB7DEB799830E949F039981892F0F909F
:10077000DF91CF910C949F03CF93DF93D82FC62F97
:1007800064E28CE591E00E94010E6DE48CE591E05D
:100790000E94010E6CE38CE591E00E94010E109224
:1007A0008D058C2F0E949F038D2F0E949F03C111E6
:1007B00004C0DF91CF910C949903DF91CF910895FC
:1007C000DF92EF92FF920F931F93CF93DF9380916D
:1007D00009018A30C9F4909108019330A9F49091ED
:1007E0008E0592301CF091E090938E0590918E05CD
:1007F0009F3F1CF49FEF90938E0520910A019091EA
:100800008E05920F90930A0190910A0197FF03C001
:1008100099E090930A0190910A019A3014F0109295
:100820000A0120910A01213019F5EFEFE80FE730B6
:1008300008F05DC2863010F0E1E0E80F9091080109
:10084000923049F0933059F0913009F050C2F0E005
:10085000EC5DFD4F07C0F0E0E65EFD4F03C0F0E049
:10086000E05FFD4F308190918E05930F90833FC2E2
:100870002230E9F590910801933009F038C2482FF1
:1008800050E0FA013197E730F10508F030C2EC5C36
:10089000FF4F90918E050C94202D30910F02930FF5
:1008A00090930F0224C230910E02930F90930E0288
:1008B0001EC230910D02930F90930D0218C2309119
:1008C0000C02930F90930C0212C230910B02930F03
:1008D00090930B020CC230910A02930F90930A027C
:1008E00006C230910902930F9093090200C223308F
:1008F00009F049C090910801933009F0F8C1482FE0
:1009000050E0FA013197E730F10508F0F0C1E55CFD
:10091000FF4F0C94202D91E03091E804311190E0CC
:100920009093E804E4C130918E059091EB04930F0D
:100930009093EB04DCC130918E059091E904930F04
:100940009093E904D4C191E03091F204311190E028
:100950009093F204CCC130918E059091F304930FE3
:100960009093F304C4C130918E059091EA04930FE3
:100970009093EA04BCC191E03091EC04311190E015
:100980009093EC04B4C1243009F04DC0909108015B
:10099000933009F0ACC1833039F148F48130E1F093
:1009A000823009F0A4C18FE08093370526C28530DC
:1009B00059F110F1863009F09AC120918E0580918D
:1009C000010290910202820F911D27FD9A9590934A
:1009D00002028093010211C281E09091E50491111D
:1009E00080E08093E50409C281E09091E6049111D2
:1009F00080E08093E60401C291E03091E704311178
:100A000090E09093E70473C120918E0580910302DA
:100A100090910402820F911D27FD9A9590930402F4
:100A200080930302EAC1253009F048C09091080183
:100A3000933009F05CC1833051F128F48130B9F072
:100A40008230E9F054C1843051F1853009F04FC152
:100A500020918E058091FD019091FE01820F911DE4
:100A600027FD9A959093FE018093FD01C6C181E018
:100A70009091ED04911180E08093ED04BEC181E07E
:100A80009091EF04911180E08093EF04B6C181E072
:100A90009091F004911180E08093F004AEC1209118
:100AA0008E058091FF0190910002820F911D27FD1C
:100AB0009A95909300028093FF019FC1263009F020
:100AC00051C090910801933009F011C1482F50E0B6
:100AD000FA013197E830F10508F009C1EE5BFF4FEC
:100AE0000C94202D91E030910105311190E090930C
:100AF0000105FDC091E030910205311190E0909325
:100B00000205F5C091E030910E05311190E090930F
:100B10000E05EDC091E030910005311190E0909309
:100B20000005E5C091E03091F804311190E0909318
:100B3000F804DDC091E030911505311190E09093FB
:100B40001505D5C091E030910F05311190E09093DB
:100B50000F05CDC030918E0590910505930F9093B0
:100B60000505C5C0273009F03FC0909108019330BA
:100B700009F0BDC08330E1F028F4813049F08230C3
:100B800079F0B5C0853001F1D8F0863029F1AFC0D9
:100B900081E09091FE04911180E08093FE042DC1CC
:100BA00081E090910605911180E08093060525C1B2
:100BB00081E090910D05911180E080930D051DC19C
:100BC0009AE09093380593C090918E0580911B0513
:100BD000890F80931B0511C181E09091F40491115C
:100BE00080E08093F40409C12830B1F590910801A8
:100BF000933009F07CC0823061F0833091F0813015
:100C000009F075C090910A05911180E080930A0562
:100C1000F4C081E090910B05911180E080930B0569
:100C2000ECC080918E05813029F490910C059238AA
:100C300048F0E3C08F3F09F0E0C090910C05992384
:100C400009F4DBC0982F990F990F890F90910C052B
:100C5000890F80930C05D1C0293009F048C09091CC
:100C60000801933009F043C0482F50E0FA01319752
:100C7000E730F105E0F5E65BFF4F0C94202D9091F5
:100C80008E0580911F05890F80931F05B6C0909136
:100C90008E0580912005890F80932005AEC090912C
:100CA0008E0580912105890F80932105A6C0909122
:100CB0008E0580912205890F809322059EC0909118
:100CC0008E058091F504890F8093F50496C090916C
:100CD0008E058091F604890F8093F6048EC081E022
:100CE0009091F104911180E08093F10486C08A30E4
:100CF00009F083C020932F0180910801813009F40D
:100D000073C0823009F079C0809195058093940575
:100D10006EE18AEC0E94BC038AE1E82E82E0F82EA4
:100D200000E112E0C4E2D2E0DC2E8AE0D80E899124
:100D30000E949F03F70181917F010E949F03F801A8
:100D400081918F010E949F03DC12F1CF0E949903D1
:100D500067E08CEC0E94BC0380910F020E949F030D
:100D600080910E020E949F0380910D020E949F03BA
:100D700080910C020E949F0380910B020E949F03AE
:100D800080910A020E949F03809109020E949F03A2
:100D90000E94990301EE14E0C0E0D0E0F8016191F7
:100DA0008F01CE010E94CE0E2196CC34D105B1F731
:100DB0000BEF11E0F8016081CE010E94CE0EF80128
:100DC00061810E5F1F4FCE0101960E94CE0E2296CA
:100DD000CA35D10579F76DE080E090E00E94CE0E33
:100DE00060E08AEF0E94BC03DF91CF911F910F91C9
:100DF000FF90EF90DF900C94D20EDF91CF911F9176
:100E00000F91FF90EF90DF900895E091FA0581E057
:100E10008E0F8093FA05F0E0E550FA4F8081089537
:100E2000CF93DF930E940507C82FD0E00E940507EB
:100E30009E01382BC901DF91CF910895CF92DF92A7
:100E4000EF92FF920E9410076C01E12CF12C0E949E
:100E50001007A0E0B0E0DC0199278827BC01CD0194
:100E60006C297D298E299F29FF90EF90DF90CF90EC
:100E70000895E82FF0E0EE0FFF1FEB5BFB4F2081A2
:100E800031812227307C81E02115304C09F080E04F
:100E900008953F924F925F926F927F928F929F92AE
:100EA000AF92BF92CF92DF92EF92FF920F931F9378
:100EB000CF93DF938A01D22F222311F0C8E001C023
:100EC000C5E0F801EC0FF11D1082DC2ECD2E3AE0CA
:100ED000432E512C612C712C46E0842E912CA12C98
:100EE000B12C5AE3352E2FEF2D0D7801E20EF11CB7
:100EF00027FDFA94A30192010E94883080E3860FB7
:100F0000F70180838EEF8D0D7801E80EF11C87FDCF
:100F1000FA94CA01B901A50194010E948830605D6C
:100F2000F7016083B901CA01FDEFDF0EF801ED0D95
:100F3000F11DD7FCFA953082CA942FEFC212D3CF9D
:100F40002D2F220FD20FCD1BC3502AE0822E912CC1
:100F5000A12CB12CC1507801EC0EF11CC7FDFA9404
:100F6000A50194010E948830605DF7016083B9019A
:100F7000CA01611571058105910511F0C111EACF12
:100F800080E2CC2341F0C150F801EC0FF11DC7FD08
:100F9000FA958083F6CFC801DF91CF911F910F9111
:100FA000FF90EF90DF90CF90BF90AF909F908F9089
:100FB0007F906F905F904F903F900895EF92FF92D7
:100FC0000F931F93CF93DF93FB0197FF05C091957C
:100FD00081959109C1E001C0C0E0DF01A40FB11DFE
:100FE0001C92DEE20AE010E0421306C04150DF012D
:100FF000A40FB11DDC9320E03FEF340F7F01E30E1F
:10100000F11CB8010E940C2D805DD7018C93CB019F
:10101000332379F0222311F0432FE6CF0097E1F735
:10102000CC2339F03EEF340FDF01A30FB11D8DE269
:101030008C9380E2332331F03150DF01A30FB11DD7
:101040008C93F8CFCF01DF91CF911F910F91FF903B
:10105000EF900895CF92DF92EF92FF920E943B169D
:101060006B017C0128E2C20ED11CE11CF11C81E065
:1010700080938C0580918C05882371F00E943B162B
:10108000C616D706E806F90618F410928C05F2CFBA
:1010900080E00E94050FEECFFF90EF90DF90CF90A1
:1010A00008951F920F920FB60F92112410928C0583
:1010B0000F900FBE0F901F901895DB01AD5BBD4FD9
:1010C000FC0124910196222311F02D93F9CF08956C
:1010D0009C01E62FF0E0EF51FB4FE081F0E0EE0FD6
:1010E000FF1FE857F94F85919491B9010C945D0861
:1010F000DC01FB01ED5BFD4F9D91992311F0919374
:10110000FBCF0895A3E2B5E0EEEEF6E02AE02E0F65
:101110003D9131932E13FCCF1092F806BC018EEE58
:1011200096E00C9478088EBD0DB407FEFDCF8EB509
:101130000895CF93DF931F92CDB7DEB769830E94E6
:1011400093086981862F0F90DF91CF910C949308BB
:101150001F920F920FB60F9211242F933F934F932C
:101160005F936F937F938F939F93AF93BF93CF932F
:10117000EF93FF93C6B178940E94DC1520918A0505
:1011800030918B05AB01421B530B9A01293B3B402D
:1011900018F021E020932E0170938B0560938A054F
:1011A000C3FD1AC02091880530918905621B730B1D
:1011B000CB018F5E92408B3D954020F47093870564
:1011C0006093860580912E018F5F80932E0170932E
:1011D00085056093840504C0709389056093880534
:1011E000FF91EF91CF91BF91AF919F918F917F919F
:1011F0006F915F914F913F912F910F900FBE0F9084
:101200001F9018954F925F926F927F928F929F924C
:10121000AF92BF92FF920F931F93CF93DF93CEE3D2
:10122000D1E0A6E9B5E040E050E06AE089918E3077
:1012300008F08E5087702091000190E4299F900162
:101240001124822B80937C0080917A0080648093AB
:101250007A0080917A0086FDFCCF80917800209101
:10126000790090E0922BF09083054115510541F4EF
:101270002091EC04222339F18091930590E023C062
:10128000443009F52091E7042223A9F080918605D6
:101290009091870595958795009769F4649FF00173
:1012A000659FF00D1124EF0DF11DEE0FFF1FEA56A3
:1012B000FA4F808191812091E604222321F08091D0
:1012C000910590919205649FF001659FF00D1124A6
:1012D000EF0DF11DEE0FFF1FEA56FA4F50962D91BC
:1012E0003C91519700811181201B310B51963C9309
:1012F0002E93509720813181820F931F9695879569
:101300009183808350962D913C915197820F931F2A
:1013100051969C938E9350974F5F5F4F54964530F4
:10132000510509F083CF8091EC046091A60570917E
:10133000A705D0910605811134C080E090E0C091EE
:10134000EB04D11115C00E94512E4B015C016C2F92
:1013500070E080E090E00E94532E9B01AC01C5013B
:10136000B4010E94472F27E137EB41ED58E314C049
:101370000E94512E4B015C016C2F70E080E090E0E8
:101380000E94532E9B01AC01C501B4010E94472F5E
:101390002FE632E143E05AE30E94472F0E94222EBB
:1013A00005C053E0759567955A95E1F770933A0239
:1013B000609339028091E304809332026091BA0510
:1013C0007091BB0580E090E0C091F304D11115C08D
:1013D0000E94512E4B015C016C2F70E080E090E088
:1013E0000E94532E9B01AC01C501B4010E94472FFE
:1013F00027E137EB41ED58E314C00E94512E4B0119
:101400005C016C2F70E080E090E00E94532E9B0105
:10141000AC01C501B4010E94472F2FE632E143E041
:101420005AE30E94472F0E94222E70933402609349
:1014300033028091EE048111C4C08091F004C09108
:10144000FD01D091FE010091FF0110910002811178
:1014500044C04E01A12CB12C2091CE053091CF0576
:1014600043E0359527954A95E1F7C901330FAA0B5B
:10147000BB0B9C01AD01281939094A095B09D80148
:101480000E947D3000E014E020E030E0A9019801E6
:10149000281939094A095B090E945E30CA01B9015D
:1014A0000E94532E4B015C0120E030E0A9010E9414
:1014B0009F2D87FD09C08092AD049092AE04A0924A
:1014C000AF04B092B0048FC01092AD041092AE047D
:1014D0001092AF041092B00486C0809113019091D5
:1014E000140160910401709105018617970740F07F
:1014F00060910601709107018617970708F4BC01F7
:10150000CB01A0E0B0E0BC01CD01685E7340810971
:101510009109623F23E072078105910548F42AE0B2
:1015200030E040E050E00E94883049015A0105C097
:1015300094E6892E912CA12CB12CC501B4010E94F6
:10154000512E2B013C01A5019401C501B4010E945B
:10155000DA2C0E94512E2AE037ED43EA5CE30E9428
:10156000472F9B01AC01C301B2010E94332D4B01F7
:101570005C01B80180E090E00E94512E9B01AC011B
:10158000C501B4010E94472F2AE037ED43E25CE336
:101590000E94472F4B015C018091A104BE0188236A
:1015A00059F080E090E00E94512E9B01AC01C501F2
:1015B000B4010E94332D0FC080E090E00E94512EB4
:1015C0000AC060918F0570919005072E000C880B62
:1015D000990B0E94532E6093AD047093AE048093D8
:1015E000AF049093B0048091E504882309F44EC0C1
:1015F0002091F6053091F70583E0359527958A957A
:10160000E1F780919F04882389F0809137058F301E
:1016100029F4309304022093030208C0813031F48E
:10162000309302022093010210923705809001024C
:1016300090900202A12CB12CC901330FAA0BBB0B55
:101640009C01AD01281939094A095B09A4E6B0E0FB
:101650000E947D302091030230910402890120E034
:1016600030E0A9019801281939094A095B090E944B
:101670005E302536310514F024E630E037FF02C035
:1016800020E030E0309398042093970481E08F0DA0
:10169000883018F48093830502C010928305DF918F
:1016A000CF911F910F91FF90BF90AF909F908F901F
:1016B0007F906F905F904F900895CF92DF92EF925E
:1016C000FF920F931F93CF93DF9380E090E00E94EF
:1016D000D00E8D3009F457C0C0E0D0E0FE01E45CCC
:1016E000F94F6491CE010E94CE0E2196CC34D105E3
:1016F000A9F7FE01EE51FA4F05911491602FCE012A
:101700000E94CE0E612FCE0101960E94CE0E22962F
:10171000CA35D10571F78E010A551109C8018452E5
:101720009A4F7C01FC01C590D4906C2DCE010E9493
:10173000CE0E6D2DCE0101960E94CE0EF801E65719
:10174000FA4F05911491602FCE018E5A9F4F0E943F
:10175000CE0E612FCE018D5A9F4F0E94CE0EF70103
:1017600005911491602FCE018C559F4F0E94CE0E93
:10177000612FCE018B559F4F0E94CE0E2296CE3FF9
:10178000D10509F0C8CFDF91CF911F910F91FF9044
:10179000EF90DF90CF900895BF92CF92DF92EF92BB
:1017A000FF920F931F93CF93DF93C090E00422E545
:1017B000C29EC0011124B090FF0405E414E07C0136
:1017C0003CEAE30EF11CFC01E65AFF4F6F01C60133
:1017D0000E94D00EC82FD0E0F801D183C083C6018B
:1017E00001960E94D00E282F30E0322F22272C0F96
:1017F0003D1FF80131832083BB2081F0C901917026
:101800008739910558F0813F910518F4225E3F4FCA
:1018100003C0245C3F4FF80131832083F2E0CF0EF8
:10182000D11C0E5F1F4FCE14DF0489F6DF91CF91DC
:101830001F910F91FF90EF90DF90CF90BF90089590
:101840005E9A2A9864E670E080E090E00E940116BB
:101850002A9A80E58CBD81E08DBD8DB58EB56AE09C
:1018600070E080E090E00E9401165E9864E670E00F
:1018700080E090E00E94011680EA0E9493088FEFBA
:101880000E9493088370813029F48093FF04809331
:1018900030050CC0823029F41092FF0410923005FC
:1018A00005C09091FF049E5F9093300580933F04A4
:1018B0008091FF04882341F080EE91E09093FA013B
:1018C0008093F9016CE407C086E891E09093FA01F7
:1018D0008093F9016CE080E00E9499085E9A9FB7BE
:1018E000F894E89A809169008260809369009FBFB4
:1018F0000C94CC0BEF92FF920F931F93CF93DF9337
:1019000001EE14E0C0E0D0E0CE010E94D00EF8015C
:1019100081938F012196CC34D105B1F73BEFE32EB3
:1019200031E0F32ECE010E94D00E082F10E0F70117
:1019300011830083CE0101960E94D00E90E0982F73
:101940008827080F191FF701019311937F01229631
:10195000CA35D10539F7DF91CF911F910F91FF90D3
:10196000EF900C94CC0B8091AC04882329F080E09C
:1019700090E1A0E0B0E083C080919F04882329F02B
:101980008FE996E0A4E0B0E07AC08AE090E0A0E0C1
:10199000B0E08093A4049093A504A093A604B09310
:1019A000A70420919D0421FF0CC08AE190E0A0E0F3
:1019B000B0E08093A4049093A504A093A604B093F0
:1019C000A70480912D05813089F08091A404909125
:1019D000A504A091A604B091A70481608093A404FB
:1019E0009093A504A093A604B093A70423FF11C06D
:1019F0008091A4049091A504A091A604B091A7049D
:101A0000806A8093A4049093A504A093A604B09345
:101A1000A7048091B104811111C08091A404909118
:101A2000A504A091A604B091A70498608093A40493
:101A30009093A504A093A604B093A7044091D40466
:101A40005091D5046091D6047091D7048091DC0444
:101A50009091DD04A091DE04B091DF0484239523EE
:101A6000A623B723892B8A2B8B2B89F08091A40482
:101A70009091A504A091A604B091A70490688093CA
:101A8000A4049093A504A093A604B093A704809106
:101A9000EC04811104C08091E604882389F08091D0
:101AA000A4049091A504A091A604B091A70491600C
:101AB0008093A4049093A504A093A604B093A704D4
:101AC0004091A8045091A9046091AA047091AB04BC
:101AD0008091A4049091A504A091A604B091A704BC
:101AE00084239523A623B7238093A8049093A90465
:101AF000A093AA04B093AB040895CF92DF92EF9223
:101B0000FF920F931F93CF93DF936C017A018B01A8
:101B1000C0E0D0E0CE15DF0589F0D8016D918D01D0
:101B2000D601ED91FC910190F081E02DC60109955F
:101B3000892B11F47E0102C02196ECCFC701DF9101
:101B4000CF911F910F91FF90EF90DF90CF9008956C
:101B5000FC01918D828D981761F0828DDF01A80FB5
:101B6000B11D5D968C91928D9F5F9F73928F90E0D7
:101B700008958FEF9FEF0895FC01918D828D981746
:101B800031F0828DE80FF11D858D90E008958FEF83
:101B90009FEF0895FC01918D228D892F90E0805C4C
:101BA0009F4F821B91098F73992708958CE591E0CF
:101BB0000E94CA0D21E0892B09F420E0822F0895AC
:101BC000FC01848DDF01A80FB11DA35ABF4F2C91DA
:101BD000848D90E001968F739927848FA689B789A9
:101BE0002C93A089B1898C9180648C93938D848D82
:101BF000981306C00288F389E02D80818F7D808351
:101C00000895EF92FF920F931F93CF93DF93EC0110
:101C100081E0888F9B8D8C8D981305C0E889F989A8
:101C2000808185FD24C0F62E0B8D10E00F5F1F4FC5
:101C30000F731127E02E8C8DE8120CC00FB607FC35
:101C4000FACFE889F989808185FFF5CFCE010E941E
:101C5000E00DF1CF8B8DFE01E80FF11DE35AFF4F30
:101C6000F0820B8FEA89FB898081806207C0EE8950
:101C7000FF896083E889F98980818064808381E0BD
:101C800090E0DF91CF911F910F91FF90EF90089519
:101C9000CF93DF93EC01888D8823C9F0EA89FB8913
:101CA000808185FD05C0A889B9898C9186FD0FC00A
:101CB0000FB607FCF5CF808185FFF2CFA889B989DF
:101CC0008C9185FFEDCFCE010E94E00DE7CFDF9133
:101CD000CF91089580E090E0892B29F00E94D60DE5
:101CE00081110C94000008950E9405301F920F92FC
:101CF0000FB60F9211242F933F934F935F936F93DF
:101D00007F938F939F93AF93BF93EF93FF938CE554
:101D100091E00E94E00DFF91EF91BF91AF919F91F3
:101D20008F917F916F915F914F913F912F910F9084
:101D30000FBE0F901F9018951F920F920FB60F9223
:101D400011242F938F939F93EF93FF93E0916C0156
:101D5000F0916D018081E0917201F091730182FD3B
:101D600012C09081809175018F5F8F7320917601F1
:101D7000821751F0E0917501F0E0E45AFE4F958F23
:101D80008093750101C08081FF91EF919F918F91A8
:101D90002F910F900FBE0F901F9018950C945030FC
:101DA0000C94483081E080930A018AE08093090115
:101DB00083E08093080110929F041092A004809108
:101DC0000405882301F110922E0210922F02109226
:101DD00030021092310210922304109224041092C7
:101DE00025041092260410923C0210923B0210929D
:101DF0002804109227041092360210923502109295
:101E00004104109240040C94B30C2F923F924F92D5
:101E10005F926F927F928F929F92AF92BF92CF927A
:101E2000DF92EF92FF920F931F93CF93DF931F9256
:101E3000CDB7DEB7382E8CE591E00E94CA0D21E0C7
:101E4000892B09F420E084E292E03AE0380F3983EC
:101E50007CE2872E99249394A12CB12CE8EE4E2E8F
:101E6000E3E05E2E612C712C88EA96E0F6E32F2EDB
:101E7000280E213009F0B1C58CE591E00E94A80D33
:101E80002091490530914A052F5F3F4F30934A0515
:101E9000209349052091EC063091ED06211531057E
:101EA00059F421E030E0843211F020E030E030934A
:101EB000ED062093EC067CC52130310529F48D34E4
:101EC00041F482E090E00AC02230310561F48E33A3
:101ED00019F080E090E002C083E090E09093ED067E
:101EE0008093EC0665C52330310591F4873928F0DD
:101EF0001092ED061092EC065BC58093EB0624E091
:101F000030E03093ED062093EC068093EA0650C54E
:101F10002430310581F425E030E03093ED06209344
:101F2000EC068093E9069091EA0689278093EA06F9
:101F30001092E8063DC52530310509F039C590916C
:101F4000EA0698279093EA061091E8062091EB069E
:101F5000121325C59111CCCF80914705909148056A
:101F6000019690934805809347051092FA0583E007
:101F7000809341058091E9068C3D09F06DC10E9476
:101F80000507893009F04BC082E0809343050E9429
:101F90000507182F0E940507212F30E0280F311D5B
:101FA0003093E7062093E6060E9405078093E50636
:101FB00081E08093E4060E943B16DC01CB0188544B
:101FC000944FAF4FBF4F8093E0069093E106A093EC
:101FD000E206B093E3066FE18CED0E94BC0389E05A
:101FE0000E949F031AE0E090E606F090E706C70122
:101FF0000E94D00E082F8093E506C7010E94AD0312
:10200000802F0E949F038091E6069091E70601963B
:102010009093E7068093E606115029F799C088301F
:1020200009F056C082E0809343050AE011E00E9467
:102030000507F82E0E94050790E0982F88276C016D
:10204000CF0CD11CD092E706C092E6060E9405078D
:10205000F82E8093E5061093E4060E943B16DC01FF
:10206000CB018854944FAF4FBF4F8093E0069093BD
:10207000E106A093E206B093E3066F2DC6010E942D
:10208000CE0E6DE080E090E00E94CE0EE090E6067D
:10209000F090E70689E5E816F10429F09FE4E916D7
:1020A00091E0F90611F40E947A0C015009F0BFCFBB
:1020B000EFEFEE1AFE0AF092E706E092E60663E022
:1020C0008CED0E94BC0389E00E949F03C7013EC0C3
:1020D000873009F040C083E0809344056BE08CEDCD
:1020E0000E94BC0387E00E949F0306E915E0F80107
:1020F0008089918953E0969587955A95E1F70E94DA
:10210000AD030C5E1F4FF5E00A3F1F0781F70E94E9
:1021100099036DE08CED0E94BC038AE00E949F034E
:1021200081E090E00E94AD0381E090E00E94AD0369
:1021300085EA96E00E94AD0380E090E00E94AD0346
:1021400080E090E00E94AD0381E090E00E94AD034A
:102150000E94990381C0833009F068C01530D9F41A
:102160000E94100780329D4109F076C00E94050749
:102170008093DF060E9405078093DE068091A1040C
:1021800081116AC080919F04811166C08091AC0466
:10219000811162C016C4183309F05EC048EAE42E0B
:1021A00046E0F42E87010E940507F80181938F0114
:1021B0002E12F9CF0E940507082F5E986091FF0448
:1021C000611160E480E00E949908602F89E00E941C
:1021D000990810E0612F8AE00E949908F701619147
:1021E0007F018BE00E9499081F5F163399F760EA20
:1021F00088E00E94990880EA0E94930885FDFBCF41
:102200008091FF04811102C06CE001C06CE480E0A9
:102210000E9499085E9A64E170E080E090E00E947C
:1022200001160F3FC9F40E94200C16C0863079F4C5
:1022300000E010E060E0C8010E94CE0E0F5F1F4F6B
:102240000115F2E01F07B1F70E945D0B02C0853057
:1022500019F481E080932F058091E906843641F4DA
:1022600081E080932D050E9405078093A70684C115
:102270008536E9F50E9410079093A6068093A5067F
:102280000E9410079093A4068093A3060E94100753
:1022900090939E0480939D040E941E076093DC042B
:1022A0007093DD048093DE049093DF042091B104E9
:1022B000022F10E020E030E0DC01CB0180239123ED
:1022C000A223B32321E0892B8A2B8B2B09F420E056
:1022D0002093A1040E9405078093950590919F0487
:1022E00091114AC1809394058093A20645C1893615
:1022F00009F042C10DE011E00E941007F80181933E
:1023000091938F01F1E00D311F07B1F780910F011B
:1023100090911001855195408F389140E8F480915B
:102320000D0190910E01855195408F389140A0F498
:102330008091110190911201855195408F38914003
:1023400058F410929A064092960650929706609220
:102350009806709299062BC080919A06813039F5C3
:102360000E943B16009192061091930620919406CC
:1023700030919506DC01CB01801B910BA20BB30BB6
:102380000091960610919706209198063091990633
:10239000081719072A073B0710F410929A06809233
:1023A000960690929706A0929806B0929906809110
:1023B0009A068111E1C020910F01309110018091A6
:1023C0009F042B33374040F12091110130911201CD
:1023D0002B33374008F120911301309114012F372E
:1023E0003440D0F08111BAC08091A2049091A3042E
:1023F000069708F4B3C08091A1048111AFC082E0B8
:1024000080939A0681E080939F0480912F018093AE
:102410000A010E94B30CA2C0882309F49FC0109146
:102420008E0510928E059091A004992361F0209161
:102430001301309114012531354028F092E090933A
:102440009A060E94D20E90919F04992309F451C0DC
:1024500020910D0130910E012B3387E0380778F081
:1024600081E080939A06809108018F5F8093080134
:10247000843008F473C083E0809308016FC02E3766
:10248000344068F491E090939A068091080181505D
:1024900080930801811162C0909308015FC0209170
:1024A0000F01309110012B33F7E03F07A0F091E0CE
:1024B00090939A06809109018150809309018111BE
:1024C00002C09093090180910A01811147C08AE0FE
:1024D0008093090143C02E37344058F481E0809343
:1024E0009A06809109018F5F809309018B3078F7FC
:1024F00035C02091A004211131C0992379F1812F99
:1025000016300CF085E08B3F0CF48BEF209111011D
:10251000309112012E3794E0390738F491E090930E
:102520009A06815080938E0517C02B333740B0F048
:1025300091E090939A068F5F80938E0580910A01B7
:10254000893051F480910801833031F48091090180
:10255000853011F4109238050E94E00380919A06AC
:10256000813051F40E943B1660939206709393065B
:1025700080939406909395068091E9068A3609F037
:1025800056C085E0809342050E940507882319F014
:1025900081E080933D040E940507809344040E94DB
:1025A0001E07609333047093340480933504909332
:1025B00036040E941E0760932F04709330048093AA
:1025C0003104909332040E941007A0E0B0E0209103
:1025D000A10421110BC080939E0690939F06A093A7
:1025E000A006B093A10621E020939D0640919E068F
:1025F00050919F066091A0067091A106841B950BD7
:10260000A60BB70B80932B0490932C04A0932D045E
:10261000B0932E040E94100790932A0480932904FB
:102620000E94100790939C0680939B0661CC8B368A
:1026300099F40E941007A0E0B0E0809337049093D3
:102640003804A0933904B0933A040E941007909381
:102650003C0480933B044CCC893759F40E94050715
:102660000E9405070E9405070E94050780933E040B
:102670003FCC8C36A9F40E94100790939A04809363
:1026800099040E94100790939C0480939B040E94DD
:102690001007843B91050CF49BC18856914098C16A
:1026A0008D3689F40E941E0760933D0270933E02AE
:1026B00080933F02909340020E9410079093420241
:1026C0008093410215CC8E36B9F40E9405078093A1
:1026D00093050E94100790933802809337020E945E
:1026E000100790939205809391050E941007909394
:1026F000900580938F05FCCB8F3631F50E9405073E
:1027000080930F020E94050780930E020E94050726
:1027100080930D020E94050780930C020E9405071A
:1027200080930B020E94050780930A020E9405070E
:10273000809309028091A4049091A504A091A6041D
:10274000B091A7049D7F27C0803771F52AE1E22E62
:1027500022E0F22E00E112E034E2C32E32E0D32E6A
:102760000E940507F60181936F010E940507F7019A
:1027700081937F010E940507F80181938F012981D0
:102780002C11EECF8091A4049091A504A091A604F1
:10279000B091A7049B7F8093A4049093A504A09379
:1027A000A604B093A704A4CB873709F0A1CB81E09E
:1027B00080932E051091EB068BE2E1EBF4E0119291
:1027C0008A95E9F7C12CD12C7601C394112309F421
:1027D0008FCB0E940507082E000C990BAA0BBB0B90
:1027E0008D31910508F0D5C0FC01EF5AFF4F0C94D4
:1027F000202D8091B1048C298093B104CAC08091AE
:10280000B2048C298093B204C4C08091B3048C2993
:102810008093B304BEC08091B4048C298093B40427
:10282000B8C08091B5048C298093B504B2C0809162
:10283000B6049091B7048C299D299093B704809396
:10284000B604A7C08091B8049091B904A091BA04CD
:10285000B091BB048C299D29AE29BF298093B8046F
:102860009093B904A093BA04B093BB0492C0809132
:10287000BC049091BD04A091BE04B091BF048C290A
:102880009D29AE29BF298093BC049093BD04A093D9
:10289000BE04B093BF047DC08091C0049091C10478
:1028A000A091C204B091C3048C299D29AE29BF29EF
:1028B0008093C0049093C104A093C204B093C30456
:1028C00068C08091D0049091D104A091D204B091BD
:1028D000D3048C299D29AE29BF298093D0049093DD
:1028E000D104A093D204B093D30453C08091CC04FC
:1028F0009091CD04A091CE04B091CF048C299D2954
:10290000AE29BF298093CC049093CD04A093CE042C
:10291000B093CF043EC08091D4049091D504A0918F
:10292000D604B091D7048C299D29AE29BF29809364
:10293000D4049093D504A093D604B093D70429C0AF
:102940008091D8049091D904A091DA04B091DB046D
:102950008C299D29AE29BF298093D8049093D9044E
:10296000A093DA04B093DB0414C08091C404909166
:10297000C504A091C604B091C7048C299D29AE2935
:10298000BF298093C4049093C504A093C604B09358
:10299000C704CC0CDD1CEE1CFF1C115017CF91E0BE
:1029A000910F9093E806E12FF0E0E550FA4F808315
:1029B0008CE591E00E94CA0D892B79F031105CCA38
:1029C0000CC080E88093910681E08093AC0444CCF5
:1029D00090934304809342048BCA0F90DF91CF9170
:1029E0001F910F91FF90EF90DF90CF90BF90AF902D
:1029F0009F908F907F906F905F904F903F902F901F
:102A00000895CF92DF92EF92FF920F931F93CF938F
:102A1000DF93C42F97FF08C09095809570956195BE
:102A20007F4F8F4F9F4FC22F24E630E040E050E0B1
:102A30000E945E30CA01B9011092F906C093F806EF
:102A4000C9E02AE0C22ED12CE12CF12CDEE2C43008
:102A500019F4D093F206C3E0C1500C2F10E00151DD
:102A6000194FA70196010E945E30605DF8016083F6
:102A7000B901CA01CC2339F0C33048F7611571059B
:102A80008105910521F780E2CC2339F0C150EC2F6C
:102A9000F0E0E151F94F8083F7CF8FEE96E0DF91C0
:102AA000CF911F910F91FF90EF90DF90CF900895FD
:102AB000EFECF6E02491EBEBF6E09491E7EAF6E038
:102AC000E491EE2309F43BC0222339F1233091F045
:102AD00038F42130A9F0223001F524B52F7D12C041
:102AE000273091F02830A1F02430B9F420918000F3
:102AF0002F7D03C0209180002F77209380000DC090
:102B000024B52F7724BD09C02091B0002F7703C0D2
:102B10002091B0002F7D2093B000F0E0EE0FFF1F5A
:102B2000EA56F94FA591B4912FB7F894EC91811121
:102B300003C090959E2301C09E2B9C932FBF0895A8
:102B4000CF93DF9390E0FC01EC54F94F2491FC010A
:102B5000E056F94F8491882361F190E0880F991F26
:102B6000FC01E457F94FC591D491FC01EA56F94FA5
:102B7000A591B491611109C09FB7F89488812095FF
:102B800082238883EC912E230BC0623061F49FB7BF
:102B9000F8943881822F809583238883EC912E2BA3
:102BA0002C939FBF06C08FB7F894E8812E2B288303
:102BB0008FBFDF91CF9108953FB7F89480910707B9
:102BC00090910807A0910907B0910A0726B5A89B24
:102BD00005C02F3F19F00196A11DB11D3FBFBA2FAF
:102BE000A92F982F8827820F911DA11DB11DBC010F
:102BF000CD0142E0660F771F881F991F4A95D1F7D4
:102C000008958F929F92AF92BF92CF92DF92EF92F0
:102C1000FF926B017C010E94DC154B015C01C11429
:102C2000D104E104F104F1F00E94DC15DC01CB01D8
:102C300088199909AA09BB09883E9340A105B105E5
:102C400070F321E0C21AD108E108F10888EE880E7D
:102C500083E0981EA11CB11CC114D104E104F1044D
:102C600019F7DDCFFF90EF90DF90CF90BF90AF903E
:102C70009F908F9008952FB7F894609103077091FB
:102C8000040780910507909106072FBF08951F92B2
:102C90000F920FB60F9211242F933F938F939F9310
:102CA000AF93BF938091030790910407A09105070C
:102CB000B09106073091020723E0230F2D3720F44F
:102CC0000196A11DB11D05C026E8230F0296A11D86
:102CD000B11D209302078093030790930407A093EC
:102CE0000507B09306078091070790910807A09108
:102CF0000907B0910A070196A11DB11D809307072E
:102D000090930807A0930907B0930A07BF91AF916A
:102D10009F918F913F912F910F900FBE0F901F9019
:102D20001895CF93DF93CDB7DEB7E7970FB6F8943A
:102D3000DEBF0FBECDBF789484B5826084BD84B5FC
:102D4000816084BD85B5826085BD85B5816085BDA6
:102D500080916E00816080936E001092810080915E
:102D600081008260809381008091810081608093E6
:102D70008100809180008160809380008091B1000B
:102D800084608093B1008091B00081608093B00036
:102D900080917A00846080937A0080917A008260CA
:102DA00080937A0080917A00816080937A0080918C
:102DB0007A00806880937A001092C100E0916C01E3
:102DC000F0916D0182E08083E0916801F0916901EA
:102DD0001082E0916A01F0916B0190E19083109272
:102DE0007401E0917001F091710186E08083E091BF
:102DF0006E01F0916F01808180618083E0916E01AE
:102E0000F0916F01808188608083E0916E01F09184
:102E10006F01808180688083E0916E01F0916F0185
:102E200080818F7D80838091C00082608093C0000C
:102E30001092C5009093C4008CE591E00E94480E6A
:102E400084B18C6284B92498569A529860E084E1E7
:102E50000E94A01560E081E10E94A01560E081E180
:102E60000E94A01561E087E00E94A0153B98F894AD
:102E700080916C0083FD0AC080916800826080931D
:102E8000680080916C00886080936C0078940E9448
:102E90005D0B0E947A0C64EF71E080E090E00E948C
:102EA000011680910605882311F081E001C083E0BE
:102EB000809300010E94200C0E94B30CE8E62E2EA5
:102EC0003324339410927F058091450590914605F7
:102ED0000196909346058093450580912F058823A0
:102EE00011F00C940000E0911B05E0932D0110926D
:102EF000E00480911A058823A1F0F0E0EE0FFF1F97
:102F0000E55FFE4F80819181813426E0920710F0C9
:102F100081E004C089379540E0F082E08093E004CE
:102F200018C04091CC045091CD046091CE047091B2
:102F3000CF048091DC049091DD04A091DE04B09177
:102F4000DF0484239523A623B723892B8A2B8B2B7D
:102F5000F9F61091E00480917E0518130E94CC0BC5
:102F600010937E0510913105163010F081E001C0FC
:102F700080E00E9458150E943B166B017C018091F5
:102F80007A0590917B05A0917C05B0917D05B701F4
:102F9000A601481B590B6A0B7B0B44365105610592
:102FA000710508F48FC08C599F4FAF4FBF4F80936E
:102FB0007A0590937B05A0937C05B0937D051F5FF8
:102FC00010933105809132058F5F8093320581E047
:102FD00090913405911180E08093340580913D04F7
:102FE0008823A1F18091A104882381F160912904B3
:102FF00070912A046115710549F12091FE0480E069
:1030000090E0222339F00E94512E21EB32E047E577
:103010005BE306C00E94512E2FE632E143E85AE3FB
:103020000E94472F9B01AC0160914F0570915005A4
:1030300080915105909152050E94332D60934F0568
:1030400070935005809351059093520560914F0500
:103050007091500580915105909152050E94222E49
:1030600060932E0270932F0280933002909331026E
:103070008091EF048823D1F02091AD043091AE040B
:103080004091AF045091B00460917605709177053E
:1030900080917805909179050E94332D6093760593
:1030A0007093770580937805909379058091AC04AF
:1030B000811108C080914305811104C060E08CE655
:1030C0000E94BC038091720590917305A0917405D4
:1030D000B0917505C81AD90AEA0AFB0A42E3C41678
:1030E000D104E104F10410F40C94C72AC296A11D86
:1030F000B11D8093720590937305A0937405B093EE
:1031000075058091A8049091A904A091AA04B0919A
:10311000AB04892B8A2B8B2B81F48091A404909192
:10312000A504A091A604B091A7048093A80490934D
:10313000A904A093AA04B093AB044091A8045091B1
:10314000A9046091AA047091AB0488279927DC0137
:10315000841B950BA60BB70B84239523A623B723BB
:103160008C019D01009510952095309540235123A9
:10317000622373234093A8045093A9046093AA0484
:103180007093AB04811551E09507A105B10509F4D1
:1031900059C028F588309105A105B10509F44CC046
:1031A00068F481309105A105B10509F443C0029787
:1031B000A105B10509F06CC085E66BC080329105B0
:1031C000A105B105E9F180389105A105B105B1F17D
:1031D0004097A105B10509F05BC08DE65AC0811585
:1031E00070E19707A105B105B9F1A0F48115F4E0EC
:1031F0009F07A105B10561F1811528E09207A1059E
:10320000B10541F181159240A105B10509F040C019
:103210008FE63FC0009741E0A407B105A9F00097F1
:1032200054E0A507B10591F081159048A105B105BD
:1032300079F514C084E62DC089E62BC08AE629C042
:103240008BE627C08EE625C082E723C08BE321C032
:1032500080E71FC087E71DC08CED1BC04091D404E0
:103260005091D5046091D6047091D7048091DC040C
:103270009091DD04A091DE04B091DF0484239523B6
:10328000A623B723892B8A2B8B2B11F089E701C04A
:1032900080E09091AC0491113EC090914305911152
:1032A00003C060E00E94BC035E9860E085E00E947D
:1032B000990860E086E00E94990861E084E00E943D
:1032C00099080E942A0853E4E52E52E0F52E00E00A
:1032D00010E060E2D62E8091F9019091FA01081772
:1032E000190780F4003F110511F40E942A08D70144
:1032F0006C9187E00E949908F701D1927F010F5FDE
:103300001F4FE9CF6FEF87E00E94990860E084E0EB
:103310000E9499085E9A0E9402098091A2049091ED
:10332000A304059788F548E8E42E44E0F42E00E471
:1033300010E0F70185919491B8010E945D08F2E0D8
:10334000EF0EF11C025E1F4F003321E0120789F7D8
:1033500088EF90E00E948208E0913005F0E0EE0FE7
:10336000FF1FE058FB4F8591949166E171E00E9448
:103370005D088091700590917105CC97909336050A
:10338000809335050C94C72A1091A104112349F0AC
:1033900081E08093A00480919F04813011F40E9409
:1033A000D20E0091A004002371F011110CC01092F4
:1033B0000A018AE08093090181E0809308018093EB
:1033C0009F040E94B30C80919F04882309F4DDC4FC
:1033D00010910A01E12FEE0FFF0BE45CFA4F85918B
:1033E000949163E270E00E945D086BE671E087E310
:1033F00095E00E945D0801110CC061E771E08DE26B
:1034000095E00E945D086BE771E086E295E00E941E
:103410005D0811118BC080912E0290912F02A09116
:103420003002B09131028D839E83AF83B887809143
:10343000230490912404A0912504B0912604898747
:103440009A87AB87BC8780913B0290913C02092E02
:10345000000CAA0BBB0B8D879E87AF87B88B809122
:10346000270490912804A0E0B0E0898B9A8BAB8B65
:10347000BC8B20E030E044EB53E460917605709122
:10348000770580917805909179050E94A92D0E9479
:10349000222E6D8B7E8B8F8B988F80913502909131
:1034A00036026AE070E00E94F82CCB01A0E0B0E0A8
:1034B000898F9A8FAB8FBC8F28E1E22E25E0F22E08
:1034C000AE014F5F5F4F6A010DE510E0F701859196
:1034D0009491B8010E945D08F60181919191A191AA
:1034E000B1916F014AE06EEE76E00E941330B801B0
:1034F0006F5E7F4F0E947808F2E0EF0EF11C025ED3
:103500001F4F0F3221E0120709F7609140047091BC
:10351000410480E090E021E04EEE56E00E94490731
:103520006DE670E08EEE96E00E94780880910A01C8
:10353000813009F06AC09AE0E92E95E0F92E0DE598
:1035400010E0F70185919491B8010E945D0832E086
:10355000E30EF11C025E1F4F0F3241E0140789F7A2
:1035600000E0053019F0073028F001C007E0D02E48
:10357000025001C0D02E5EE1059F80011124ED2C88
:10358000F12CF701EC5DFD4F80814AE06EEE76E0B4
:1035900090E00E941330B8016B597F4F0E94780869
:1035A000F701E65EFD4F80814AE06EEE76E090E046
:1035B0000E941330B80165597F4F0E947808F701C7
:1035C000E05FFD4F80814AE06EEE76E090E00E9481
:1035D0001330B8016F587F4F0E94780801E00D0D3D
:1035E000093008F4BECF67E470E083E591E00E9403
:1035F00078086DE470E085E591E00E94780863E565
:1036000070E087E591E00E94780880910A0182309D
:10361000E9F180910A01833009F0DDC00E940209BE
:1036200087E98093EE0623E044E06FEE76E0809138
:10363000390290913A020E94DE0719EA1093F306CC
:103640001092F40664E370E08EEE96E00E94780833
:103650008FEB8093EE0623E044E06FEE76E08091FE
:103660003302909134020E94DE071093F306109209
:10367000F4066CE270E08EEE96E00E9478080EEEA2
:10368000E02E04E0F02E0DE510E04BC080910F021B
:1036900090E09E8F8D8F80910E0290E098A38F8F87
:1036A00080910D0290E09AA389A380910C0290E092
:1036B0009CA38BA380910B0290E09EA38DA380918D
:1036C0000A0290E098A78FA38091090290E09AA740
:1036D00089A78CEFE82E84E0F82EBE01635E7F4F51
:1036E0006B010DE510E0F70185919491B8010E94FE
:1036F0005D084AE06EEE76E0D6018D919D916D01F8
:103700000E941330B8016C5E7F4F0E947808B2E0CF
:10371000EB0EF11C025E1F4F0F32E1E01E0719F79E
:1037200078CFF70185919491B8010E945D08F2E08D
:10373000EF0EF11C025E1F4F0F3221E0120789F7D6
:103740008091F2044AE06EEE76E090E00E94133041
:103750006BEC70E00E94780867E081E790E00E94DF
:1037600068088091EB044AE06EEE76E090E00E94FB
:1037700013306FE870E00E9478088091E9044AE015
:103780006EEE76E090E00E9413306DEA70E00E94E9
:10379000780861E18BEC90E00E9468088091F30466
:1037A0004AE06EEE76E090E00E94133069EE70E041
:1037B0000E9478088091EA044AE06EEE76E090E09C
:1037C0000E94133067E071E00E9478086BE085E2A8
:1037D00091E00E94680880910A01843009F06FC06E
:1037E0004AE06EEE76E080919704909198040E94F2
:1037F0001330E0E0AE2FB0E0A251B94F8C91EF5FF3
:103800008111F8CF85E28C93F0E0E251F94F1082FC
:1038100065E370E08EEE96E00E94780812EEE12EED
:1038200014E0F12E0DE510E0F70185919491B801B7
:103830000E945D0832E0E30EF11C025E1F4F013171
:1038400041E0140789F764E081E790E00E9468088E
:1038500080913705882349F04AE06EEE76E090E0EB
:103860000E9413306FE870E004C06FE870E089E5F3
:1038700091E00E94780865E08DEA90E00E94680877
:1038800066E08BEC90E00E9468084AE06EEE76E01D
:1038900080910302909104020E94133069EE70E05F
:1038A0000E9478084AE06EEE76E0809101029091E5
:1038B00002020E94133067E071E00E947808809154
:1038C0000A01853009F05AC06091AD047091AE04D0
:1038D0008091AF049091B0040E941B2EDC01CB01BB
:1038E00023E044E06EEE76E00E94DE078AE98093F2
:1038F000F2061092F30664E370E08EEE96E00E940A
:103900007808B8EDEB2EB4E0FB2E0DE510E0F701E2
:1039100085919491B8010E945D0852E0E50EF11C7A
:10392000025E1F4F033F110591F76CE081E790E0C5
:103930000E9468086EE08FE890E00E9468086FE0DF
:103940008DEA90E00E9468084AE06EEE76E0809191
:10395000FF01909100020E9413306BEC70E00E9416
:1039600078084AE06EEE76E08091FD019091FE01CC
:103970000E94133069EE70E00E94780880910A017D
:10398000863009F044C0A8ECEA2EA4E0FA2E0DE53A
:1039900010E0F70185919491B8010E945D0862E002
:1039A000E60EF11C025E1F4F0D3471E0170789F718
:1039B00060E281E790E00E94680861E28FE890E0B1
:1039C0000E9468086DE28DEA90E00E9468086FE14D
:1039D0008BEC90E00E94680867E189EE90E00E941D
:1039E000680864E387E091E00E9468086EE285E27F
:1039F00091E00E946808809105054AE06EEE76E04D
:103A000090E00E94133063E471E00E947808809196
:103A10000A01873009F058C0FCEBEF2EF4E0FF2ECE
:103A20000DE510E0F70185919491B8010E945D08C1
:103A300082E0E80EF11C025E1F4F013191E0190790
:103A400089F78091FE0461E770E0811103C088EB83
:103A500094E002C084EB94E00E945D08809106052A
:103A60006FE870E0882319F081EB94E002C08CEAE3
:103A700094E00E945D086CE28DEA90E00E94680884
:103A800080913805882349F04AE06EEE76E090E0B8
:103A90000E9413306BEC70E004C06BEC70E089E5C1
:103AA00091E00E94780880911B054AE06EEE76E076
:103AB00090E00E94133069EE70E00E94780863E1A4
:103AC00087E091E00E94680880910A01883051F5F2
:103AD000E6EAEE2EE4E0FE2E0DE510E0F70185911A
:103AE0009491B8010E945D08A2E0EA0EF11C025E0A
:103AF0001F4F073B110591F769E281E790E00E94B3
:103B000068086AE28FE890E00E94680880910C05DE
:103B10004AE06EEE76E090E00E9413306DEA70E0CD
:103B20000E94780880910A01893009F04EC0809186
:103B30001F0590E09E8F8D8F8091200590E098A3C7
:103B40008F8F8091210590E09AA389A3809122050F
:103B500090E09CA38BA38091F50490E09EA38DA39D
:103B60008091F60490E098A78FA30DE510E0E12C7A
:103B7000F12CD12CF701E856FB4F85919491B801B7
:103B80000E945D08B6E0DB1691F04AE06EEE76E04A
:103B9000EDE1F0E0EC0FFD1FEE0DFF1D8081918146
:103BA0000E941330B8016C5E7F4F0E947808D39456
:103BB000E2E0EE0EF11C025E1F4FF7E0DF12DACFFB
:103BC00060E185E291E00E94680880910A018A30F4
:103BD00014F010920A01209109012A3079F48091A1
:103BE0000801833011F40C94A12B813009F4BBC07F
:103BF000823009F0BBC080E791E0BAC02A3008F0FB
:103C0000B5C030910A01313031F5283019F48AE01D
:103C10008093090180910901893019F487E080932C
:103C200009012091090130E02E5F3F4F4EE1429F94
:103C3000C001439F900D11240A964091080150E065
:103C40004150510966E0649F9001659F300D112439
:103C5000820F931F8DC0323021F483E080930801DE
:103C600004C0333071F430930801283019F48AE02D
:103C70008093090180910901893009F067C087E0CC
:103C800063C0343079F483E080930801273019F45D
:103C90008AE08093090180910901893009F056C0BA
:103CA00086E052C080E090E0353069F483E0809394
:103CB0000801293011F430930901809109018630FF
:103CC00009F044C040C0363099F4293049F480915D
:103CD0005305883011F48AE001C088E0809309011F
:103CE000209109012093530583E08093080130C09F
:103CF000373069F483E080930801293019F486E0B5
:103D00008093090180910901873001F51CC038308A
:103D100061F483E080930801293011F48093090154
:103D200080910901843091F40EC0393009F583E0A7
:103D300080930801293019F487E08093090180916C
:103D40000901883019F48AE0809309012091090162
:103D500030E02E5F3F4F4EE1429FC001439F900DE8
:103D60001124469605C08AE691E002C080E090E00A
:103D700020913405222311F40C94C72AFC01ED5B39
:103D8000FD4F23E020830C94C72A0E94B30C80913E
:103D90009D0480FF25C2C0909B04D0909C04E090BD
:103DA0009904F0909A0480E58093EE06C6012AE01B
:103DB000C216D10434F06AE070E00E940C2DCB01F1
:103DC0000CC066EF7FEF0E940C2DCB01D7FE05C023
:103DD0002DE22093EF0622E001C021E030E0B9019E
:103DE0006251794F4AE00E9413308FE00E943907F8
:103DF000882349F0609163047091640471708EEEC1
:103E000096E00E94780882E58093EE06C7013AE0CA
:103E1000E316F10434F06AE070E00E940C2DCB014F
:103E20000CC066EF7FEF0E940C2DCB01F7FE05C0A2
:103E30002DE22093EF0622E001C021E030E0B9013D
:103E40006251794F4AE00E94133080E10E943907A5
:103E5000882349F0609165047091660471708EEE5C
:103E600096E00E947808B0900E05B1100AC08091CB
:103E70001605811106C083E1809302018093010140
:103E8000AAC08091A104811104C010922A0410924A
:103E900029040091290410912A04809162059091CF
:103EA00063059801215F3F4F28173907C0F40E942E
:103EB0003B1660935E0570935F0580936005909359
:103EC000610582E080935D051093630500936205B0
:103ED0008091020181508031E8F485E11BC00F968A
:103EE00080179107C8F40E943B1660935E0570939B
:103EF0005F05809360059093610581E080935D0587
:103F00001093630500936205809102018F5F8631F3
:103F100008F080E18093020140903D0250903E0203
:103F200060903F02709040028091590590915A052F
:103F3000A0915B05B0915C05B301A2014C5E5F4F9F
:103F40006F4F7F4F481759076A077B07E4F40E94B9
:103F50003B166093550570935605809357059093D3
:103F6000580582E0809354054092590550925A05B5
:103F700060925B0570925C058091010181508031F7
:103F800028F585E123C04496A11DB11D8415950532
:103F9000A605B705ECF40E943B1660935505709397
:103FA0005605809357059093580581E080935405FA
:103FB0004092590550925A0560925B0570925C05DB
:103FC000809101018F5F863108F080E180930101CB
:103FD000BB2009F450CF0091770410917804117040
:103FE00049ECC416D10454F458E3C5165FEFD50666
:103FF00044F468E3C62EDD24DA9403C078ECC72EBF
:10400000D12C61E9E61661E0F60654F470E7E71694
:104010007EEFF7064CF440E7E42E4EEFF42E04C09A
:1040200050E9E52EFF24F394B090010589E10E9448
:1040300039078B2109F48FC026018AE0480E511CF4
:1040400057FE04C0260191E1490E511C83E05594AE
:1040500047948A95E1F75194419451089090130543
:1040600040E094E0692E712C29E0C22ED12C3EE173
:10407000832EE42FF0E0C3018E1B9F0BE89E90017E
:10408000E99E300DF89E300D112437FF02C0215CEF
:104090003F4FB6E035952795BA95E1F7240D351DCC
:1040A000275D3F4F22353105F0F5E00FF11FC901C3
:1040B000B6010E940C2D869ED001879EB00D112462
:1040C000EA0FFB1FBF016C577109603EA1E07A0740
:1040D00028F4DB01AD5BBD4F80588C93992019F11A
:1040E0008EEF840F8530F8F4CF01865D9109803E14
:1040F000B1E09B0758F4BC016D5B7D4F5B01C901CA
:10410000B6010E940C2D8058D5018C93B297E03EE9
:10411000B1E0FB0740F4ED5BFD4FC901B6010E9421
:104120000C2D805880834F5F493028F4443009F0CB
:10413000A0CF45E09ECF82E20E94390781110BC0DB
:10414000F801ED5BFD4FDF01119786E28C938CEB5C
:1041500081838EE7808380910205882309F440C023
:104160008AE10E9439078823D9F180917F04982F32
:104170009F7080917D048F70B82E482F419560917B
:10418000020150910101C92E990FDD0898012C19E7
:104190003D097601E00EF11EEEE14E02C001112450
:1041A0008D5B9D4FFC01E20FF31F6083FC01EE0D60
:1041B000FF1D50834F5FB4167CF7F801EC19FD0921
:1041C000EC5BFD4F83E08083F801EC0DFD1DEE5BA1
:1041D000FD4F82E080838091160581110C94A52B00
:1041E0008091E804882309F45CC0B090E904B0929F
:1041F0006505E091EA04E093640580910305009170
:10420000390210913A028823A9F162E2E69F600127
:1042100011247AE2E79FF00111240C151D0510F41A
:104220002C2D07C09F01225031090217130708F4F3
:1042300098010D2C000CEE08FF08822F90E0A0E002
:10424000B0E09C01AD012C193D094E095F09A7E0C2
:10425000B0E00E947D3031972F01612C712CA301B9
:1042600092012C193D094E095F090E945E3086E9D2
:10427000821B01C087E98093EE06EB2CF12C0E1512
:104280001F0520F48091330581110BC085E10E9448
:10429000390781110C94092CE016F10610F00C94EA
:1042A000092C8091F204882369F100913302109166
:1042B00034022091320230E00217130720F480917B
:1042C000330581111FC086E10E9439078823D1F090
:1042D0008FEB8093EE0623E044E06FEE76E0C801BA
:1042E0000E94DE0789EA8093F3061092F40660913B
:1042F0007104709172047170615071098EEE96E0D4
:104300000E9478088091E5048823B1F10091970418
:10431000109198042091E40430E02017310724F034
:1043200080913305882341F183E10E943907882376
:1043300019F18AEB8093EE064AE06FEE76E0C80151
:104340000E941330E0E0AE2FB0E0A251B94F8C9143
:10435000EF5F8111F8CF85E28C93F0E0E251F94FE5
:10436000108260916B0470916C04717061507109DE
:104370008EEE96E00E9478088091ED04882309F47F
:104380005CC0C090AD04D090AE04E090AF04F0905B
:10439000B00420E030E040E251E4C701B6010E94E1
:1043A000A92D4B015C016091F60470E080E090E083
:1043B0000E94532E9B01AC01C501B4010E949F2DA8
:1043C00087FD04C0809133058823B9F160913502DF
:1043D0007091360280E090E00E94512E9B01AC016A
:1043E000C701B6010E94422F181644F4C701B60156
:1043F0000E94222E709336026093350287E10E945C
:1044000039078823D1F0C701B6010E941B2EDC01B9
:10441000CB0124E045E06EEE76E00E94DE078AE9FB
:104420008093F3061092F406609173047091740403
:1044300071708EEE96E00E9478088091EF048823D8
:1044400009F44CC060913702709138026115710512
:1044500081F420E030E044EB53E460917605709104
:10446000770580917805909179050E94A92D0E9489
:104470001B2E8091F504A4E68A9FC00111248617A3
:10448000970724F480913305882341F188E10E9445
:104490003907882319F184EA8093EE0620E030E0A2
:1044A00044EB53E46091760570917705809178052F
:1044B000909179050E94A92D0E941B2EDC01CB0151
:1044C0004AE06FEE76E00E941330609175047091BF
:1044D000760471708EEE96E00E9478088091140543
:1044E000882309F44CC000915F0410916004011509
:1044F000B2E01B0708F443C08091A1048823F1F0C7
:104500002091660530916705C9016CE370E00E9457
:10451000F82C8091220590E06817790720F08091AF
:10452000330581112CC02031EEE03E0728F48CE9E0
:104530008093EE06B90116C081E709C0609170054D
:10454000709171056031FEE07F0720F48BE9809364
:10455000EE0608C080E78093EE06CB016CE370E0C6
:104560000E94F82C80E090E020E04FEE56E00E94A0
:104570004907B80171708EEE96E00E94780885E2D6
:104580000E9439078823A1F100918F0410919004B3
:1045900011706091390270913A0280E090E00E94BF
:1045A000512E2091AD043091AE044091AF04509152
:1045B000B0040E94472F20E030E048EC52E40E9413
:1045C000A92D0E94222EDC01CB0125E045E06FEEF3
:1045D00076E00E94DE0780E28093EE0687E5809316
:1045E000F3061092F406B8018EEE96E00E94780869
:1045F0008EE00E943907882309F4ADC08091F10450
:10460000882309F4A8C08091A104811107C080917A
:104610007F05826080937F058EE10EC0809103014B
:10462000882369F090913405911195C090917F0590
:10463000946090937F0581508093030105C0809121
:104640007F05816080937F058091650590E02091D2
:10465000390230913A028217930728F080917F0542
:10466000806480937F0580919D0483FF1CC08091AE
:104670004404853028F480917F05806280937F0513
:1046800080914205811105C080917F0580618093F2
:104690007F0580914105811106C080917F058F7C47
:1046A000886080937F0580918005811104C080918E
:1046B0007F058093800510918005212F2195022F81
:1046C00001230E943B16C0904B05D0904C05E09012
:1046D0004D05F0904E0524EFC20E21E0D21EE11CE4
:1046E000F11CC616D706E806F90688F4112329F04E
:1046F000802F80951823109380050E943B166093AD
:104700004B0570934C0580934D0590934E0580E0CA
:1047100090E0E0E0202F30E0A901082E02C055957E
:1047200047950A94E2F740FDE82F019688309105FD
:1047300099F780917F05823070F0F0E0EE0FFF1F57
:10474000E05BFA4F859194916091610470916204ED
:1047500071700E945D0880910005882309F48FC064
:104760008BE00E943907882309F489C080E2809396
:10477000EF06809113019091140120910601309170
:1047800007012817390720F4909307018093060149
:1047900020910401309105018217930720F4909332
:1047A0000501809304012091060130910701233017
:1047B000384030F022E038E03093070120930601C2
:1047C0002091040130910501263B334030F426EB63
:1047D00033E030930501209304012091A1042111BD
:1047E00009C080E28093F0069DE29093F1069093D9
:1047F000F20635C02091F404222339F020E044E091
:1048000060EF76E00E94DE072CC0C0900401D090DB
:104810000501E12CF12CA0E0B0E09C01AD012C19C8
:104820003D094E095F09A4E6B0E00E947D30209169
:10483000060130910701890120E030E0A9019801CB
:104840002C193D094E095F090E945E30DA01C90149
:1048500020E043E060EF76E00E94DE0785E280938F
:10486000F30688EC8093EE061092F40660915B04E8
:1048700070915C0471708EEE96E00E947808209131
:104880007005309171058091350590913605AC0128
:10489000445C5F4F42175307A0F4805C9F4F821720
:1048A000930720F430933605209335058091090550
:1048B000882339F0809193049091940491700E9420
:1048C000820880919D0482FF59C088E00E943907C8
:1048D0008823F9F0809112058823D9F08091420451
:1048E00090914304880F991F880F991F83509D4F03
:1048F0006AE570E00E940C2D6F597A4F8091550443
:1049000090915604917049E050E08D5B9D4F0E945C
:104910000A3087E00E943907882381F18091FC04E6
:10492000882361F180914204909143042091FD0419
:10493000222381F097FF02C088599E4F20E043E078
:104940006EEE76E00E94DE078DEB8093F10610920A
:10495000F2060BC020E044E06EEE76E00E94DE0737
:104960008DEB8093F2061092F306609153047091E0
:10497000540471708EEE96E00E94780880919D0438
:1049800081FFB9C08091FE048823A1F060913D02AF
:1049900070913E0280913F02909140020E94532EFE
:1049A0002EEA31E646E05DE30E94472F0E941B2E6F
:1049B0008B010FC060913D0270913E0280913F02D9
:1049C0009091400224E630E040E050E00E945E30EA
:1049D00089018091A104882389F08091A20490919B
:1049E000A304069758F080913B0290913C028017F7
:1049F000910724F410933C0200933B0289E00E944B
:104A00003907882369F180911105882349F1409184
:104A10002005442371F0C8016AE070E00E940C2D6B
:104A2000842F90E06817790724F080913305811175
:104A300017C04AE06FEE76E0C8010E941330E091A3
:104A4000FE04F0E0EA5CFE4F80818093EE06609108
:104A500057047091580471708EEE96E00E947808A9
:104A60008AE00E943907882309F445C08091100527
:104A7000882309F440C00091590410915A04117020
:104A80000D5B1D4FF8017E978FE78083D8018C93D3
:104A90005E968C9320914102309142022937310574
:104AA00034F42838BFEF3B071CF428E801C028E79E
:104AB000822F220F990BAA0BBB0B9C01AD0128572B
:104AC000310941095109A1E1B0E00E947D3020E1A6
:104AD0003FEF4FEF5FEF0E945E30822F66E00E9453
:104AE000EA2C8150F8012EE18202E00DF11D112423
:104AF0008FE8891B808380919D0483FF6CC3809124
:104B0000F704882309F467C310914404153020F496
:104B10008091330581111BC080E00E9439078823F2
:104B2000B1F08EE18093EE068FE18093EF064AE0CC
:104B300060EF76E0812F90E00E9413306091450491
:104B40007091460471708EEE96E00E947808809114
:104B50003D04882309F46AC081E00E943907882354
:104B6000C9F18091370490913804A0913904B09133
:104B70003A040397A105B10520F480913305811112
:104B800029C020914704309148043170809142043B
:104B900090914304845E9D4F40913B0450913C04AE
:104BA000841B950B880F991F880F991F8D966AE5B6
:104BB00070E00E940C2DCB0160E170E00E940C2D92
:104BC000805A8093EE061092EF06B9018EEE96E0C1
:104BD0000E9478088091FE04882309F433C660910E
:104BE0003704709138048091390490913A040E94FE
:104BF000512E21EA38EF41E550E40E94472F0E94F0
:104C0000222E6B017C018091230490912404A091B9
:104C10002504B09126048C159D05AE05BF0508F44A
:104C20001AC682E00E943907811129C680913D048D
:104C3000882309F452C084E00E9439078823E1F0F8
:104C40008091FB048823C1F020E043E06EEE76E023
:104C500080913B0490913C040E94DE078DEB809391
:104C6000F1061092F20660914D0470914E0471703D
:104C70008EEE96E00E9478088091A104811104C014
:104C800010922A0410922904F090FE0460912904E5
:104C900070912A0480E090E0F11022C60E94512E0B
:104CA0002CEB34E743E15DE30E94472F0E94222E64
:104CB0008B0180912704909128049C012C5E3F4F2A
:104CC0002017310708F013C63093280420932704D7
:104CD00083E00E943907811113C680913D04882327
:104CE00009F4C2C08091FA04882309F457C085E012
:104CF0000E943907882309F451C08091FE0488235B
:104D0000A9F060912B0470912C0480912D04909156
:104D10002E040E94532E21EA38EF41E550E40E9410
:104D2000472F0E941B2E6B017C0108C0C0902B04F2
:104D3000D0902C04E0902D04F0902E0410912005CA
:104D40001123A9F0C701B6012AE030E040E050E0AD
:104D50000E945E30812F90E0A0E0B0E02817390774
:104D60004A075B0724F080913305811117C04AE0A0
:104D70006FEE76E0C6010E941330E091FE04F0E091
:104D8000EA5CFE4F80818093EE0660914F04709143
:104D9000500471708EEE96E00E94780881E10E94C6
:104DA0003907882309F460C08091DC049091DD0408
:104DB000A091DE04B091DF040091B8041091B90411
:104DC0002091BA043091BB0441E050E060E070E013
:104DD0000097A105B10519F040E050E0BA01402369
:104DE000512362237323452B462B472BE9F5802360
:104DF0009123A223B3232091F804822B892B8A2BA1
:104E00008B2B91F1009167041091680411708AEC6A
:104E10008093EE06609133047091340480913504E0
:104E20009091360423E54EE40E940115B8018EEE00
:104E300096E00E9478080091690410916A0411704C
:104E40008BEC8093EE0660912F047091300480917A
:104E500031049091320427E545E40E940115B80120
:104E60008EEE96E00E9478083091050539AB32301D
:104E700079F040F4313009F0AEC1A1E0B0E0BEAB52
:104E8000ADAB10C049A9433049F0443009F0A3C18B
:104E900062E070E07EAB6DAB11E005C082E090E0B7
:104EA0009EAB8DAB10E080913D04882309F493C143
:104EB00082E20E943907882309F48DC11AAB10E001
:104EC00000E02AA9822F90E04DA95EA984179507DA
:104ED0000CF081C180913B0490913C04BAA9B1309F
:104EE00061F42091680530916905821B930B845E03
:104EF0009D4FB1010E94F82C0BC088599E4F209104
:104F0000420430914304821B930BB1010E940C2D8B
:104F10009C016AE570E00E940C2D6130710589F0FA
:104F200024F4672BD1F41FEF12C06230710589F0B1
:104F30006330710591F4A101421B530B9A011FEFDD
:104F40000BC0E4EBF0E0E21BF30B9F0111E001E08A
:104F500004C0245B310911E00FEFB901330F880B56
:104F6000990B0E94532E2BED3FE049E450E40E9440
:104F7000472F20E030E044E353E40E94A92D4B0189
:104F80005C016091370470913804809139049091EC
:104F90003A040E94512E2B013C01C501B4010E942C
:104FA000B42F9B01AC01C301B2010E94472F0E94A4
:104FB000222E6B017C017CAB6BABC501B4010E945E
:104FC000A42D9B01AC01C301B2010E94472F0E9496
:104FD000222E2B013C01C414D50410F4A20101C0FF
:104FE000A60160E070E0443651056105710590F05E
:104FF000443F81E058076105710508F4A4C4443CAE
:1050000099E059076105710508F4A2C4CA01A4E238
:10501000ABAB09C0B1E2BBAB84E690E044315105D3
:1050200061057105A0F14C01990FAA08BB08C601E2
:10503000A0E0B0E0BC01CD0154E0660F771F881FEF
:10504000991F5A95D1F7A50194010E945E30802FD7
:10505000002E000C990B829F7001839FF00C929F91
:10506000F00C11249201AFE0B0E00E94AA30A5013B
:1050700094010E945E30812F012E000C990B829FBB
:10508000F001839FF00D929FF00D112404C0E0E029
:10509000F0E0E12CF12CC0908B04D0908C0421E046
:1050A000D2229701A7014F5F5F4F2A01F7FC9A01B7
:1050B000359527952C0D3D1DCF0163E070E00E94D2
:1050C0000C2D5EE1569FC001579F900D11243901B0
:1050D000680E791E6AA9613011F025E001C024E054
:1050E000C701F7FE04C0882799278E199F09482F0A
:1050F000417847FF03C041504E6F4F5F342FCF01BF
:10510000F7FF04C0882799278E1B9F0B63E00E943E
:10511000EA2C113019F482E0891B982F0F3F11F40B
:1051200031E0341B3296359710F491E0911B73E017
:105130004716510428F431E0EF20E09409F430E000
:10514000AAA9AA2311F060ED01C066EDB9A9B43097
:1051500031F0F32EFF0C3F0D390FF32E15C0809167
:105160004204909143044091680550916905841B65
:10517000950B8A519D4FB1010E94F82C6DE270E0B1
:105180000E94F82C92E7F92EF60EEBA9E093EE06BA
:105190001092EF066091890470918A0471708EEE0E
:1051A00096E02FAB0E947808F092EE061092EF0680
:1051B000B3018EEE96E00E9478082FA92093EE06A8
:1051C0001092EF06B6018EEE96E00E947808FAA9DA
:1051D000FF5FFAAB76CE80914105882309F4D7C1F1
:1051E000C090DC04D090DD04E090DE04F090DF0499
:1051F0008091B6049091B704A0E0B0E08C219D218D
:10520000AE21BF21892B8A2B8B2BD1F080910F05EA
:105210008823B1F01092F00686E18093EE0687E1D4
:105220008093EF068EE10E943907882349F0609150
:1052300081047091820471708EEE96E00E9478086D
:1052400080911505882309F45AC08091B20490E03A
:10525000A0E0B0E08C219D21AE21BF21892B8A2BBB
:105260008B2B69F48091B30490E0A0E0B0E08C2136
:105270009D21AE21BF21892B8A2B8B2B29F080EA1F
:105280008093EE06E1E001C0E0E08091B40490E09C
:10529000A0E0B0E08C219D21AE21BF21892B8A2B7B
:1052A0008B2B39F0AE2FB0E0A251B94F82EA8C932C
:1052B000EF5F8091B50490E0A0E0B0E08C219D21EB
:1052C000AE21BF21892B8A2B8B2B39F0AE2FB0E07A
:1052D000A251B94F81EA8C93EF5FF0E0E251F94FB0
:1052E000108286E00E943907882349F060915104BA
:1052F0007091520471708EEE96E00E947808809151
:10530000C0049091C104A091C204B091C3048C2147
:105310009D21AE21BF21892B8A2B8B2B39F0109236
:10532000F0068AEA8093EE068BEAA0C08091B8046A
:105330009091B904A091BA04B091BB048C219D2135
:10534000AE21BF21892B8A2B8B2B49F08DE98093CD
:10535000EE068EE98093EF061092F00689C08091E8
:10536000BC049091BD04A091BE04B091BF048C21F7
:105370009D21AE21BF21892B8A2B8B2B39F01092D6
:10538000F0068DEC8093EE068EEC70C08091D40414
:105390009091D504A091D604B091D7048C219D2181
:1053A000AE21BF21892B8A2B8B2B79F080913E0473
:1053B0004AE060EF76E090E00E9413301092F2062F
:1053C00085EB8093EE0686EB51C08091D8049091D6
:1053D000D904A091DA04B091DB048C219D21AE2187
:1053E000BF21892B8A2B8B2B39F01092F00687EB8B
:1053F0008093EE0688EB3AC08091B40490E0A0E080
:10540000B0E08C219D21AE21BF21892B8A2B8B2BD3
:1054100009F0B5CF8091B20490E0A0E0B0E08C211B
:105420009D21AE21BF21892B8A2B8B2B39F0109225
:10543000F0068CEA8093EE068DEA18C08091B304E2
:1054400090E0A0E0B0E0C822D922EA22FB2210922C
:10545000F006CD28CE28CF2829F084EC8093EE06E4
:1054600085EC04C08EEA8093EE068FEA8093EF0607
:10547000809108058823B1F181E20E9439078823D1
:1054800089F100918704109188041170B8018EEEA3
:1054900096E00E9478084091C4045091C504609140
:1054A000C6047091C7048091DC049091DD04A09142
:1054B000DE04B091DF0484239523A623B723892B30
:1054C0008A2B8B2B79F08AEE8093EE068BEE8093FD
:1054D000EF061092F006B8016E5F7F4F8EEE96E0F9
:1054E0000E94780880913305811151C084E20E94A6
:1054F0003907882309F44BC04091DC045091DD0446
:105500006091DE047091DF048091B8049091B90439
:10551000A091BA04B091BB0484239523A623B7239A
:10552000892B8A2B8B2B11F58091BC049091BD04A3
:10553000A091BE04B091BF0484239523A623B72372
:10554000892B8A2B8B2BA1F48091D4049091D504C4
:10555000A091D604B091D70484239523A623B72322
:10556000892B8A2B8B2B99F0E3E003C0E1E001C08B
:10557000E2E0F0E0EE0FFF1FE558FA4F85919491BD
:1055800060918D0470918E0471700E945D0880910D
:105590003205853048F01092320581E09091330554
:1055A000911180E0809333050E943B1600913D05E8
:1055B00010913E0520913F053091400508511C4F48
:1055C0002F4F3F4F061717072807390708F0B2C0BB
:1055D00000933D0510933E0520933F053093400511
:1055E00010923105809145059091460590936F0585
:1055F00080936E05109246051092450580914705EF
:105600009091480590936D0580936C051092480524
:10561000109247058091490590914A0590936B053A
:1056200080936A0510924A05109249058091700591
:10563000909171050196909371058093700580910A
:10564000AC04811117C05E9880EA0E9493088FEF26
:105650000E949308837090913F04981719F00E945C
:10566000200C08C080E80E9493088FEF0E949308E6
:1056700083FFF5CF80914205811103C0109244044D
:1056800003C081508093420580914105882319F021
:1056900081508093410580914305882319F0815002
:1056A000809343058091A104811109C08091420437
:1056B00090914304909369058093680516C080918A
:1056C000660590916705019690936705809366053E
:1056D00080914004909141040196909341048093FD
:1056E000400410929F040E94B30C8091A2049091F8
:1056F000A30401969093A3048093A204809138059B
:10570000813051F480919F04882331F060E08EEC69
:105710000E94BC031092380580913805882319F047
:1057200081508093380580913705882319F0815086
:105730008093370581E00E94050F0E946A0E0C9449
:1057400062178AE791E00C94B81E8BE10E9439073A
:10575000882311F40C94F0200E943B1640905E05C3
:1057600050905F05609060057090610558EE450EA1
:1057700053E0551E611C711C64157505860597055F
:10578000D8F480915D05F801823059F42EE1B29E83
:10579000E019F1091124EC19FD09ED5BFD4F89ECCD
:1057A0000AC03EE1B39EE00DF11D1124EC19FD0984
:1057B000ED5BFD4F8FEC80830E943B1600915505F9
:1057C00010915605209157053091580508511C4FEE
:1057D0002F4F3F4F601771078207930710F00C940B
:1057E000F0208091540597012D5B3D4FF9018230E7
:1057F00039F44EE1B49EE019F109112489EC06C098
:105800005EE1B59EE00DF11D11248FEC80830C94B8
:10581000F02023E044E06FEE76E0C8010E94DE074E
:1058200089EA8093F3061092F40660916F047091F8
:1058300070047170615071098EEE96E00E947808D4
:105840000C945121C0903704D0903804E090390472
:10585000F0903A04D8C98C599F4FAF4FBF4F8C1569
:105860009D05AE05BF0510F46C017D01C0922304B7
:10587000D0922404E0922504F0922604D2C910911B
:105880001F051123A9F0C701B60124E630E040E06E
:1058900050E00E948830812F90E0A0E0B0E028170F
:1058A00039074A075B0720F0809133058111BEC993
:1058B0004AE06FEE76E0C6010E941330E091FE04EC
:1058C000F0E0EA5CFE4F82818093EE06609149042D
:1058D00070914A0471708EEE96E00E947808A6C915
:1058E0000E94512E2DED3FE347EB5CE3DDC98017AD
:1058F000910708F0EDC91093280400932704E8C924
:1059000080912105882341F090E08017910720F4D1
:10591000809133058111E1C9EF2DF0E0EC5CFE4F81
:1059200080818093EE064AE06FEE76E0C8010E9427
:10593000133060914B0470914C0471708EEE96E0C0
:105940000E947808CAC962E26BAB84EF91E06BCB2E
:1059500073E27BAB84EC99E066CBECE5F1E013827B
:10596000128288EE93E0A0E0B0E084839583A68362
:10597000B78387E491E09183808385EC90E09587FD
:10598000848784EC90E09787868780EC90E0918B09
:10599000808B81EC90E0938B828B82EC90E0958BF6
:1059A000848B86EC90E0978B868B118E128E138EF3
:1059B000148E0895DB018F939F930E947D30BF91D9
:1059C000AF91A29F800D911DA39F900DB29F900D4E
:1059D0001124089587FB082E062687FD819567FD13
:1059E00061950E94262D0EF4919507FC81950895EE
:1059F000AA1BBB1B51E107C0AA1FBB1FA617B707F5
:105A000010F0A61BB70B881F991F5A95A9F7809510
:105A10009095BC01CD01089597FB072E16F40094D4
:105A200007D077FD09D00E94F82C07FC05D03EF482
:105A3000909581959F4F0895709561957F4F08953A
:105A4000EE0FFF1F0590F491E02D0994991B79E06A
:105A500004C0991F961708F0961B881F7A95C9F7FE
:105A6000809508955058BB27AA270E944A2D0C9470
:105A7000F42E0E94BB2E38F00E94C22E20F039F482
:105A80009F3F19F426F40C94B82E0EF4E095E7FB32
:105A90000C94B22EE92F0E94192F58F3BA176207FF
:105AA00073078407950720F079F4A6F50C943B2F33
:105AB0000EF4E0950B2EBA2FA02D0B01B901900129
:105AC0000C01CA01A0011124FF27591B99F0593F6D
:105AD00050F4503E68F11A16F040A22F232F342FB5
