:100000000C9420030C948B070C9448030C94480325
:100010000C94E2070C9448030C9448030C94480396
:100020000C9448030C9448030C9448030C94480324
:100030000C9448030C9448030C9448030C94480314
:100040000C9461150C9448030C94B60D0C94900D0F
:100050000C9448030C9448030C9448030C944803F4
:100060000C9448030C944803FD0305040D04150487
:100070001D0425042D04E404EC04F404FC0404052C
:100080000C0514051C05790581058905910599055F
:10009000A105A905131319131F132513E3132B131C
:1000A000E313E3133113E3133C1351136613E31308
:1000B000E313E3137B13E313E3139013A513BA13B2
:1000C000E313E313E313E313E313E313CF1305A8DD
:1000D0004CCDB2D44EB93836A9020C50B9918688AD
:1000E000083CA6AAAA2ABE000000803F4E4F54201A
:1000F00044455445435445442D50414C004E4F54C3
:100100002044455445435445442D4E5453430041E7
:1001100055544F2D50414C004155544F2D4E545382
:10012000430053493A0049443A00202020202B50F4
:10013000495443482046554C4C00202020202B5940
:100140004157205249474854004D454E553A54486E
:100150005254204D4944444C4500004D572D4F53B7
:1001600044202D2052312E37005445585420414C04
:1001700041524D5300414D5053004D41482058319C
:1001800030300054494D45520053504545440041DC
:100190004C54495455444520583130004449535437
:1001A000414E43452058313030005448524F54544A
:1001B0004C452050574D004F53442054582043483D
:1001C000004D41472043414C0044454255470056AD
:1001D0002052454600554E495453004D4150204D44
:1001E0004F44450047494D42414C0053454E534F03
:1001F00052530047505320434F4F524453005448EA
:10020000524F54544C45005343524F4C4C494E4767
:100210002042415253005349444520424152530029
:10022000484F52495A4F4E0041444A555354205A60
:1002300045524F0041444A55535420414D505300BC
:10024000555345205649525455414C2053454E5321
:100250004F5200444953504C4159204D41480044AD
:100260004953504C415920414D505300534554205F
:1002700052535349204D494E005345542052535335
:1002800049204D4158005553452050574D00534586
:1002900054205253534900444953504C4159205221
:1002A000535349005553452046430043454C4C5356
:1002B00000444953504C41592056494420564F4C14
:1002C0005453004D41494E20564F4C545320414CFD
:1002D00041524D0041444A55535420564F4C5453BB
:1002E00000444953504C4159204D41494E20564FEE
:1002F0004C5453004D4147004C4556454C00475027
:100300005300414C54005941570050495443480050
:10031000524F4C4C004D415820414D5053004D41DF
:10032000482055534544004D4158205350454544BD
:10033000004D415820414C544954554445004D41CD
:10034000582044495354414E434500544F5420448F
:10035000495354414E434500464C592054494D455C
:1003600000414C41524D5300414456414E43454497
:1003700000444953504C41590043555252454E5444
:10038000005253534900564F4C5441474500504981
:100390004420434F4E464947005354415449535417
:1003A000494353004445425547004C4F5720564F50
:1003B0004C5453004C4F57205341545300204E4F40
:1003C00020475053004E4F20444154410020415299
:1003D0004D45440044495341524D454400204D4948
:1003E0005353494F4E004155544F20484F4C440001
:1003F0004155544F20525448000018010F01FD0090
:10040000EC005B015A0149013A012A015A01260117
:1004100022019C018F01890183017A017501690123
:10042000312E315600355600494D50004D4554008F
:10043000D501CF01C901C101B701AA0120021602ED
:100440000702FE01F301EB01E401DB015F0253024D
:1004500040023402280297028E02A4028602790228
:100460006C02E102D402C302B102D402AB02A402C4
:1004700010030A0306030203FE02F802F402580303
:100480004B033E03310327031E0315033C50414732
:10049000453E00534156452B45584954004558495F
:1004A000540099038E038603810379037103680363
:1004B0006103F903D403CD03C503BD03B403AA0349
:1004C000A4031D1A1D1C1D191D1C1D1B1D1C1D1800
:1004D0001D1C1D1A1D1C1D191D1C1D1B1DF903F0C3
:1004E00003E603DD034F4E004F46460020007BC16C
:1004F0002A002100900054002400720027003500DB
:10050000CB0060017EC17EC137C110011D01020018
:100510000F004C01F2006BC12FC175017F01C200B9
:10052000BB00BB00030007007A00550106015C0018
:100530003400C50064005701BA001801DCC020C0B7
:1005400034C036C0B7C090C054C024C072C028C0E8
:10055000CBC0CAC060C17EC17EC137C110011D01C0
:1005600002C00FC04DC1F3C06BC12FC171C178C1B2
:10057000C2C0BBC0BBC0030007007AC055C106C1E2
:100580005CC03400C30064C05301BA0018C1DCC0B1
:1005900000000000960000000004F40158020D0065
:1005A000003C000000018A04C800000000000100B7
:1005B000C8003264010101000000010000000101D7
:1005C0000000010000010000000000010101010124
:1005D0000001010004000000050001000000001EF1
:1005E0004D574F53440020202020E804E50400002C
:1005F0000000240027002A00000000002500280039
:100600002B00040404040404040402020202020293
:1006100003030303030301020408102040800102C6
:100620000408102001020408102000000008000245
:100630000100000304070000000000000000F82A89
:1006400011241FBECFEFD8E0DEBFCDBF27E0ACE561
:10065000B1E001C01D92AB30B207E1F711E0A0E0BC
:10066000B1E0ECE0FEE502C005900D92AC35B107BB
:10067000D9F713E0C0E2D3E004C02197FE010E9445
:100680006B2BCF31D107C9F70E94AB150C94042F07
:100690000C940000609186058CE591E00C941B0D94
:1006A000CF93C82F682F8CE591E00E941B0D80919D
:1006B0008605C827C0938605CF910895CF93DF9311
:1006C0001F92CDB7DEB799830E9450039981892F7D
:1006D0000F90DF91CF910C945003CF93DF93D82FDD
:1006E000C62F64E28CE591E00E941B0D6DE48CE561
:1006F00091E00E941B0D6CE38CE591E00E941B0DC4
:10070000109286058C2F0E9450038D2F0E9450035B
:10071000C11104C0DF91CF910C944A03DF91CF91B6
:100720000895DF92EF92FF920F931F93CF93DF9381
:10073000809109018A30C9F4909108019330A9F49D
:100740009091870592301CF091E0909387059091ED
:1007500087059F3F1CF49FEF9093870520910A0126
:1007600090918705920F90930A0190910A0197FF4B
:1007700003C097E090930A0190910A01983014F019
:1007800010920A0190910A01913019F5EFEFE80FEC
:10079000E73008F0E6C1863010F0E1E0E80F209184
:1007A0000801223049F0233059F0213009F0D9C135
:1007B000F0E0E35EFD4F07C0F0E0ED5EFD4F03C0EB
:1007C000F0E0E75FFD4F308120918705230F208304
:1007D000C8C1923009F049C020910801233009F0C6
:1007E000C0C1482F50E0FA013197E730F10508F019
:1007F000B8C1EC5CFF4F0C946B2B21E03091E1040D
:10080000311120E02093E104ACC1309187052091A3
:10081000E404230F2093E404A4C1309187052091C0
:10082000E204230F2093E2049CC121E03091EB0409
:10083000311120E02093EB0494C130918705209181
:10084000EC04230F2093EC048CC130918705209198
:10085000E304230F2093E30484C121E03091E504F5
:10086000311120E02093E5047CC1933009F04DC0A4
:1008700020910801233009F074C1833039F148F424
:100880008130E1F0823009F06CC18FE08093300557
:10089000EEC1853059F110F1863009F062C1209126
:1008A00087058091010290910202820F911D27FD20
:1008B0009A959093020280930102D9C181E09091B0
:1008C000DE04911180E08093DE04D1C181E090913B
:1008D000DF04911180E08093DF04C9C121E03091F1
:1008E000E004311120E02093E0043BC12091870512
:1008F0008091030290910402820F911D27FD9A9529
:100900009093040280930302B2C1943009F048C06E
:1009100020910801233009F024C1833051F128F4DB
:100920008130B9F08230E9F01CC1843051F185305A
:1009300009F017C1209187058091FD019091FE017A
:10094000820F911D27FD9A959093FE018093FD01E2
:100950008EC181E09091E604911180E08093E604DD
:1009600086C181E09091E804911180E08093E804D1
:100970007EC181E09091E904911180E08093E904C7
:1009800076C1209187058091FF0190910002820F2E
:10099000911D27FD9A95909300028093FF0167C1F6
:1009A000953009F051C020910801233009F0D9C0D9
:1009B000482F50E0FA013197E830F10508F0D1C036
:1009C000E55CFF4F0C946B2B21E03091FA04311160
:1009D00020E02093FA04C5C021E03091FB043111DE
:1009E00020E02093FB04BDC021E0309107053111C8
:1009F00020E020930705B5C021E03091F9043111C2
:100A000020E02093F904ADC021E03091F1043111D0
:100A100020E02093F104A5C021E030910E053111B2
:100A200020E020930E059DC021E030910805311192
:100A300020E02093080595C0309187052091FE04A1
:100A4000230F2093FE048DC0963009F03FC0209103
:100A50000801233009F085C08330E1F028F48130AB
:100A600049F0823079F07DC0853001F1D8F08630D0
:100A700029F177C081E09091F704911180E0809393
:100A8000F704F5C081E09091FF04911180E080931C
:100A9000FF04EDC081E090910605911180E0809304
:100AA0000605E5C02AE0209331055BC090918705DB
:100AB00080911405890F80931405D9C081E090912D
:100AC000ED04911180E08093ED04D1C0973009F0DE
:100AD00048C020910801233009F043C0482F50E05E
:100AE000FA013197E730F105E0F5ED5BFF4F0C942B
:100AF0006B2B9091870580911805890F80931805BD
:100B0000B6C09091870580911905890F80931905CA
:100B1000AEC09091870580911A05890F80931A05C0
:100B2000A6C09091870580911B05890F80931B05B6
:100B30009EC0909187058091EE04890F8093EE040A
:100B400096C0909187058091EF04890F8093EF0400
:100B50008EC081E09091EA04911180E08093EA04D4
:100B600086C08A3009F083C090932F0180910801DC
:100B7000813009F473C0823009F079C08091950505
:100B8000809394056EE18AEC0E946D0383E1E82E68
:100B900082E0F82E09E012E0CDE1D2E0DC2E8AE01E
:100BA000D80E89910E945003F70181917F010E9424
:100BB0005003F80181918F010E945003DC12F1CFA4
:100BC0000E944A0367E08CEC0E946D0380918E05C1
:100BD0000E94500380918D050E94500380918C05E6
:100BE0000E94500380918B050E94500380918A05DA
:100BF0000E945003809189050E94500380918805CE
:100C00000E9450030E944A030AED14E0C0E0D0E0C5
:100C1000F80161918F01CE010E94E80D2196CC343C
:100C2000D105B1F70BEF11E0F8016081CE010E9410
:100C3000E80DF80161810E5F1F4FCE0101960E9401
:100C4000E80D2296CA35D10579F76DE080E090E095
:100C50000E94E80D60E08AEF0E946D03DF91CF9162
:100C60001F910F91FF90EF90DF900C94EC0DDF91AE
:100C7000CF911F910F91FF90EF90DF900895E09139
:100C8000FA0581E08E0F8093FA05F0E0E550FA4F07
:100C900080810895CF93DF930E943F06C82FD0E054
:100CA0000E943F069E01382BC901DF91CF91089524
:100CB000CF92DF92EF92FF920E944A066C01E12CE4
:100CC000F12C0E944A06A0E0B0E0DC0199278827B9
:100CD000BC01CD016C297D298E299F29FF90EF90C1
:100CE000DF90CF900895E82FF0E0EE0FFF1FE25C59
:100CF000FB4F208131812227307C81E02115304C4F
:100D000009F080E008953F924F925F926F927F9238
:100D10008F929F92AF92BF92CF92DF92EF92FF920B
:100D20000F931F93CF93DF938A01D22F222311F0C9
:100D3000C8E001C0C5E0F801EC0FF11D1082DC2E07
:100D4000CD2E3AE0432E512C612C712C46E0842E9E
:100D5000912CA12CB12C5AE3352E2FEF2D0D7801BB
:100D6000E20EF11C27FDFA94A30192010E94D32EFA
:100D700080E3860FF70180838EEF8D0D7801E80EFA
:100D8000F11C87FDFA94CA01B901A50194010E94E2
:100D9000D32E605DF7016083B901CA01FDEFDF0E5C
:100DA000F801ED0DF11DD7FCFA953082CA942FEFB2
:100DB000C212D3CF2D2F220FD20FCD1BC3502AE04A
:100DC000822E912CA12CB12CC1507801EC0EF11C7B
:100DD000C7FDFA94A50194010E94D32E605DF7012E
:100DE0006083B901CA01611571058105910511F092
:100DF000C111EACF80E2CC2341F0C150F801EC0FE1
:100E0000F11DC7FDFA958083F6CFC801DF91CF9120
:100E10001F910F91FF90EF90DF90CF90BF90AF9018
:100E20009F908F907F906F905F904F903F9008952C
:100E3000EF92FF920F931F93CF93DF93FB0197FFE6
:100E400005C0919581959109C1E001C0C0E0DF0125
:100E5000A40FB11D1C92DEE20AE010E0421306C0AE
:100E60004150DF01A40FB11DDC9320E03FEF340FB0
:100E70007F01E30EF11CB8010E94572B805DD70162
:100E80008C93CB01332379F0222311F0432FE6CF4B
:100E90000097E1F7CC2339F03EEF340FDF01A30FC9
:100EA000B11D8DE28C9380E2332331F03150DF01AC
:100EB000A30FB11D8C93F8CFCF01DF91CF911F917C
:100EC0000F91FF90EF900895CF92DF92EF92FF92F3
:100ED0000E9455156B017C0128E2C20ED11CE11C59
:100EE000F11C81E08093850580918505882371F050
:100EF0000E945515C616D706E806F90618F4109292
:100F00008505F2CF80E00E941F0EEECFFF90EF909C
:100F1000DF90CF9008951F920F920FB60F92112479
:100F2000109285050F900FBE0F901F901895DB0152
:100F3000A45CBD4FFC0124910196222311F02D9356
:100F4000F9CF08959C01E62FF0E0E652FB4FE081D7
:100F5000F0E0EE0FFF1FE651FA4F85919491B90131
:100F60000C949707DC01FB01E45CFD4F9D919923F4
:100F700011F09193FBCF0895ACE1B5E0EEEEF6E011
:100F80002AE02E0F3D9131932E13FCCF1092F806DC
:100F9000BC018EEE96E00C94B2078EBD0DB407FE38
:100FA000FDCF8EB50895CF93DF931F92CDB7DEB7F7
:100FB00069830E94CD076981862F0F90DF91CF91C1
:100FC0000C94CD071F920F920FB60F9211242F93FE
:100FD0003F934F935F936F937F938F939F93AF93C1
:100FE000BF93CF93EF93FF93C6B178940E94F6140A
:100FF0002091830530918405AB01421B530B9A016C
:10100000293B3B4018F021E020932E01709384058A
:1010100060938305C3FD1AC020918105309182053C
:10102000621B730BCB018F5E92408B3D954020F489
:101030007093800560937F0580912E018F5F809370
:101040002E0170937E0560937D0504C07093820528
:1010500060938105FF91EF91CF91BF91AF919F91E7
:101060008F917F916F915F914F913F912F910F9051
:101070000FBE0F901F9018954F925F926F927F92C4
:101080008F929F92AF92BF92FF920F931F93CF9335
:10109000DF93CEE3D1E0A6E9B5E040E050E06AE0BE
:1010A00089918E3008F08E5087702091000190E475
:1010B000299F90011124822B80937C0080917A00DB
:1010C000806480937A0080917A0086FDFCCF8091C5
:1010D00078002091790090E0922BF0907C054115EA
:1010E000510541F42091E504222339F180919305C3
:1010F00090E023C0443009F52091E0042223A9F0B8
:1011000080917F059091800595958795009769F46A
:10111000649FF001659FF00D1124EF0DF11DEE0F9E
:10112000FF1FEA56FA4F808191812091DF0422232C
:1011300021F08091910590919205649FF001659F47
:10114000F00D1124EF0DF11DEE0FFF1FEA56FA4FBF
:1011500050962D913C91519700811181201B310BAC
:1011600051963C932E93509720813181820F931F8B
:10117000969587959183808350962D913C915197B8
:10118000820F931F51969C938E9350974F5F5F4FA2
:1011900054964530510509F083CF8091E504609164
:1011A000A6057091A705D091FF04811134C080E09D
:1011B00090E0C091E404D11115C00E949C2C4B0119
:1011C0005C016C2F70E080E090E00E949E2C9B01FF
:1011D000AC01C501B4010E94922D27E137EB41ED2E
:1011E00058E314C00E949C2C4B015C016C2F70E0F2
:1011F00080E090E00E949E2C9B01AC01C501B401EF
:101200000E94922D2FE632E143E05AE30E94922D94
:101210000E946D2C05C053E0759567955A95E1F7CE
:1012200070933302609332028091DC0480932B022E
:101230006091BA057091BB0580E090E0C091EC042C
:10124000D11115C00E949C2C4B015C016C2F70E0E9
:1012500080E090E00E949E2C9B01AC01C501B4018E
:101260000E94922D27E137EB41ED58E314C00E9414
:101270009C2C4B015C016C2F70E080E090E00E94A0
:101280009E2C9B01AC01C501B4010E94922D2FE65A
:1012900032E143E05AE30E94922D0E946D2C70933C
:1012A0002D0260932C028091E7048111C4C08091CB
:1012B000E904C091FD01D091FE010091FF01109160
:1012C0000002811144C04E01A12CB12C2091CE0509
:1012D0003091CF0543E0359527954A95E1F7C9014F
:1012E000330FAA0BBB0B9C01AD01281939094A0920
:1012F0005B09D8010E94C82E00E014E020E030E035
:10130000A9019801281939094A095B090E94A92EE7
:10131000CA01B9010E949E2C4B015C0120E030E023
:10132000A9010E94EA2B87FD09C08092A604909231
:10133000A704A092A804B092A90498C01092A60491
:101340001092A7041092A8041092A9048FC0809153
:1013500013019091140160910401709105018617A9
:10136000970740F060910601709107018617970773
:1013700008F4BC01CB01A0E0B0E0BC01CD01685E87
:10138000734081099109623F23E07207810591054D
:1013900048F42AE030E040E050E00E94D32E4901BA
:1013A0005A0105C094E6892E912CA12CB12CC501BF
:1013B000B4010E949C2C2B013C01A5019401C501A4
:1013C000B4010E94252B0E949C2C2AE037ED43EAB1
:1013D0005CE30E94922D9B01AC01C301B2010E940B
:1013E0007E2B4B015C01B80180E090E00E949C2CB8
:1013F0009B01AC01C501B4010E94922D2AE037ED9A
:1014000043E25CE30E94922D4B015C0180919A04BF
:10141000BE01882359F080E090E00E949C2C9B0143
:10142000AC01C501B4010E947E2B18C080E090E0A1
:101430000E949C2C13C080918F059091900597FF7E
:1014400002C0059701C005966AE070E00E94572B24
:10145000072E000C880B990B0E949E2C6093A6040B
:101460007093A7048093A8049093A9048091DE044C
:10147000882309F44EC02091F6053091F70583E0EA
:10148000359527958A95E1F780919804882389F00E
:10149000809130058F3029F43093040220930302A9
:1014A00008C0813031F4309302022093010210927F
:1014B00030058090010290900202A12CB12CC9014C
:1014C000330FAA0BBB0B9C01AD01281939094A093E
:1014D0005B09A4E6B0E00E94C82E2091030230917F
:1014E0000402890120E030E0A90198012819390996
:1014F0004A095B090E94A92E2536310514F024E61D
:1015000030E037FF02C020E030E0309391042093B8
:10151000900481E08F0D883018F480937C0502C020
:1015200010927C05DF91CF911F910F91FF90BF909A
:10153000AF909F908F907F906F905F904F900895A5
:10154000CF92DF92EF92FF920F931F93CF93DF938F
:1015500080E090E00E94EA0D8D3009F457C0C0E0B1
:10156000D0E0FE01E256FA4F6491CE010E94E80DF0
:101570002196CC34D105A9F7FE01EC5BFA4F059119
:101580001491602FCE010E94E80D612FCE010196CB
:101590000E94E80D2296CA35D10571F78E010A55D1
:1015A0001109C801825C9A4F7C01FC01C590D4905E
:1015B0006C2DCE010E94E80D6D2DCE0101960E948A
:1015C000E80DF801E451FB4F05911491602FCE0115
:1015D0008E5A9F4F0E94E80D612FCE018D5A9F4F6A
:1015E0000E94E80DF70105911491602FCE018C55F2
:1015F0009F4F0E94E80D612FCE018B559F4F0E9497
:10160000E80D2296CE3FD10509F0C8CFDF91CF91EA
:101610001F910F91FF90EF90DF90CF900895BF92B0
:10162000CF92DF92EF92FF920F931F93CF93DF93AE
:10163000C090D90422E5C29EC0011124B090F804E4
:101640000EE314E07C013CEAE30EF11CFC01E65AD7
:10165000FF4F6F01C6010E94EA0DC82FD0E0F801CC
:10166000D183C083C60101960E94EA0D282F30E085
:10167000322F22272C0F3D1FF80131832083BB20FE
:1016800081F0C90191708739910558F0813F91052A
:1016900018F4225E3F4F03C0245C3F4FF8013183B2
:1016A0002083F2E0CF0ED11C0E5F1F4FCE14DF045B
:1016B00089F6DF91CF911F910F91FF90EF90DF900E
:1016C000CF90BF9008955E9A2A9864E670E080E01B
:1016D00090E00E941B152A9A80E58CBD81E08DBDAB
:1016E0008DB58EB56AE070E080E090E00E941B1539
:1016F0005E9864E670E080E090E00E941B1580EA4E
:101700000E94CD078FEF0E94CD078370813029F4AE
:101710008093F804809329050CC0823029F410923C
:10172000F8041092290505C09091F8049E5F9093EB
:101730002905809338048091F804882341F080EED5
:1017400091E09093FA018093F9016CE407C086E878
:1017500091E09093FA018093F9016CE080E00E949F
:10176000D3075E9A9FB7F894E89A809169008260E7
:10177000809369009FBF0C940F0BEF92FF920F9321
:101780001F93CF93DF930AED14E0C0E0D0E0CE01C9
:101790000E94EA0DF80181938F012196CC34D10586
:1017A000B1F73BEFE32E31E0F32ECE010E94EA0DBC
:1017B000082F10E0F70111830083CE0101960E94EB
:1017C000EA0D90E0982F8827080F191FF701019361
:1017D00011937F012296CA35D10539F7DF91CF9158
:1017E0001F910F91FF90EF900C940F0B8091A50427
:1017F000882329F080E090E1A0E0B0E05AC0809119
:101800009804882329F08FE996E0A4E0B0E051C065
:101810008AE090E0A0E0B0E080939D0490939E0465
:10182000A0939F04B093A0042091960421FF0CC0C4
:101830008AE190E0A0E0B0E080939D0490939E0444
:10184000A0939F04B093A00480912605813089F075
:1018500080919D0490919E04A0919F04B091A0045A
:10186000816080939D0490939E04A0939F04B09305
:10187000A00423FF11C080919D0490919E04A0912B
:101880009F04B091A004806A80939D0490939E046D
:10189000A0939F04B093A0048091AA04811111C069
:1018A00080919D0490919E04A0919F04B091A0040A
:1018B000986080939D0490939E04A0939F04B0939E
:1018C000A0048091E504811104C08091DF04882385
:1018D00089F080919D0490919E04A0919F04B09105
:1018E000A004916080939D0490939E04A0939F0414
:1018F000B093A0044091A1045091A2046091A3046C
:101900007091A40480919D0490919E04A0919F04E5
:10191000B091A00484239523A623B7238093A10428
:101920009093A204A093A304B093A4040895CF922B
:10193000DF92EF92FF920F931F93CF93DF936C018F
:101940007A018B01C0E0D0E0CE15DF0589F0D80127
:101950006D918D01D601ED91FC910190F081E02D0A
:10196000C6010995892B11F47E0102C02196ECCFA6
:10197000C701DF91CF911F910F91FF90EF90DF9002
:10198000CF900895FC01918D828D981761F0828D22
:10199000DF01A80FB11D5D968C91928D9F5F9F73A3
:1019A000928F90E008958FEF9FEF0895FC01918D45
:1019B000828D981731F0828DE80FF11D858D90E0B2
:1019C00008958FEF9FEF0895FC01918D228D892F4F
:1019D00090E0805C9F4F821B91098F739927089537
:1019E0008CE591E00E94E40C21E0892B09F420E0D1
:1019F000822F0895FC01848DDF01A80FB11DA35A29
:101A0000BF4F2C91848D90E001968F739927848F1E
:101A1000A689B7892C93A089B1898C9180648C9315
:101A2000938D848D981306C00288F389E02D808100
:101A30008F7D80830895EF92FF920F931F93CF9332
:101A4000DF93EC0181E0888F9B8D8C8D981305C00E
:101A5000E889F989808185FD24C0F62E0B8D10E080
:101A60000F5F1F4F0F731127E02E8C8DE8120CC0F3
:101A70000FB607FCFACFE889F989808185FFF5CF99
:101A8000CE010E94FA0CF1CF8B8DFE01E80FF11D03
:101A9000E35AFF4FF0820B8FEA89FB8980818062D5
:101AA00007C0EE89FF896083E889F98980818064B5
:101AB000808381E090E0DF91CF911F910F91FF90A3
:101AC000EF900895CF93DF93EC01888D8823C9F0C0
:101AD000EA89FB89808185FD05C0A889B9898C9137
:101AE00086FD0FC00FB607FCF5CF808185FFF2CFD2
:101AF000A889B9898C9185FFEDCFCE010E94FA0C9F
:101B0000E7CFDF91CF91089580E090E0892B29F015
:101B10000E94F00C81110C94000008950E94502E38
:101B20001F920F920FB60F9211242F933F934F9352
:101B30005F936F937F938F939F93AF93BF93EF9335
:101B4000FF938CE591E00E94FA0CFF91EF91BF9119
:101B5000AF919F918F917F916F915F914F913F9145
:101B60002F910F900FBE0F901F9018951F920F92FC
:101B70000FB60F9211242F938F939F93EF93FF93A0
:101B8000E0916C01F0916D018081E0917201F09122
:101B9000730182FD12C09081809175018F5F8F73F8
:101BA00020917601821751F0E0917501F0E0E45A3E
:101BB000FE4F958F8093750101C08081FF91EF9159
:101BC0009F918F912F910F900FBE0F901F9018959E
:101BD0000C949B2E0C94932E81E080930A018AE052
:101BE0008093090183E08093080110929804109279
:101BF00099048091FD04882301F11092270210922C
:101C000028021092290210922A0210921C041092AB
:101C10001D0410921E0410921F041092350210929F
:101C20003402109221041092200410922F0210927C
:101C30002E0210923A04109239040C94F60B2F9253
:101C40003F924F925F926F927F928F929F92AF924C
:101C5000BF92CF92DF92EF92FF920F931F93CF9399
:101C6000DF931F92CDB7DEB7382E8CE591E00E944E
:101C7000E40C21E0892B09F420E08DE192E03AE0C8
:101C8000380F39837CE2872E99249394A12CB12CB0
:101C9000E8EE4E2EE3E05E2E612C712C88EA96E091
:101CA000F6E32F2E280E213009F0B1C58CE591E026
:101CB0000E94C20C20914205309143052F5F3F4F97
:101CC00030934305209342052091EC063091ED06B8
:101CD0002115310559F421E030E0843211F020E083
:101CE00030E03093ED062093EC067CC521303105C1
:101CF00029F48D3441F482E090E00AC022303105AD
:101D000061F48E3319F080E090E002C083E090E04F
:101D10009093ED068093EC0665C52330310591F470
:101D2000873928F01092ED061092EC065BC580937F
:101D3000EB0624E030E03093ED062093EC06809330
:101D4000EA0650C52430310581F425E030E03093B7
:101D5000ED062093EC068093E9069091EA06892728
:101D60008093EA061092E8063DC52530310509F05A
:101D700039C59091EA0698279093EA061091E806F3
:101D80002091EB06121325C59111CCCF809140050F
:101D900090914105019690934105809340051092E2
:101DA000FA0583E080933A058091E9068C3D09F0BD
:101DB0006DC10E943F06893009F04BC082E08093DC
:101DC0003C050E943F06182F0E943F06212F30E05D
:101DD000280F311D3093E7062093E6060E943F0648
:101DE0008093E50681E08093E4060E945515DC01AE
:101DF000CB018854944FAF4FBF4F8093E006909330
:101E0000E106A093E206B093E3066FE18CED0E9439
:101E10006D0389E00E9450031AE0E090E606F0901E
:101E2000E706C7010E94EA0D082F8093E506C70167
:101E30000E945E03802F0E9450038091E6069091DD
:101E4000E70601969093E7068093E606115029F77E
:101E500099C0883009F056C082E080933C050AE0C2
:101E600011E00E943F06F82E0E943F0690E0982F56
:101E700088276C01CF0CD11CD092E706C092E606F1
:101E80000E943F06F82E8093E5061093E4060E9418
:101E90005515DC01CB018854944FAF4FBF4F809351
:101EA000E0069093E106A093E206B093E3066F2D5F
:101EB000C6010E94E80D6DE080E090E00E94E80D10
:101EC000E090E606F090E70689E5E816F10429F0CF
:101ED0009FE4E91691E0F90611F40E94BD0B015050
:101EE00009F0BFCFEFEFEE1AFE0AF092E706E0929C
:101EF000E60663E08CED0E946D0389E00E945003CA
:101F0000C7013EC0873009F040C083E080933D05A3
:101F10006BE08CED0E946D0387E00E94500306E9A0
:101F200015E0F8018089918953E0969587955A9537
:101F3000E1F70E945E030C5E1F4FF5E00A3F1F07AA
:101F400081F70E944A036DE08CED0E946D038AE0E8
:101F50000E94500385E190E00E945E0381E090E0E2
:101F60000E945E0385EA96E00E945E0380E090E0B6
:101F70000E945E0380E090E00E945E0381E090E0BA
:101F80000E945E030E944A0381C0833009F068C04A
:101F90001530D9F40E944A0680329D4109F076C07E
:101FA0000E943F068093DF060E943F068093DE0674
:101FB00080919A0481116AC080919804811166C051
:101FC0008091A504811162C016C4183309F05EC067
:101FD00048EAE42E46E0F42E87010E943F06F8010D
:101FE00081938F012E12F9CF0E943F06082F5E9831
:101FF0006091F804611160E480E00E94D307602FD3
:1020000089E00E94D30710E0612F8AE00E94D30785
:10201000F70161917F018BE00E94D3071F5F1633A8
:1020200099F760EA88E00E94D30780EA0E94CD0712
:1020300085FDFBCF8091F804811102C06CE001C0E6
:102040006CE480E00E94D3075E9A64E170E080E077
:1020500090E00E941B150F3FC9F40E94630B16C04D
:10206000863079F400E010E060E0C8010E94E80DDD
:102070000F5F1F4F0115F2E01F07B1F70E94A00A82
:1020800002C0853019F481E0809328058091E9062B
:10209000843641F481E0809326050E943F068093B8
:1020A000A70684C18536E9F50E944A069093A606E4
:1020B0008093A5060E944A069093A4068093A306E7
:1020C0000E944A0690939704809396040E945806B3
:1020D0006093D5047093D6048093D7049093D8046A
:1020E0002091AA04022F10E020E030E0DC01CB01B7
:1020F00080239123A223B32321E0892B8A2B8B2BCE
:1021000009F420E020939A040E943F0680939505ED
:102110009091980491114AC1809394058093A206EE
:1021200045C1893609F042C10DE011E00E944A061E
:10213000F801819391938F01F1E00D311F07B1F701
:1021400080910F0190911001855195408F389140F9
:10215000E8F480910D0190910E01855195408F38E2
:102160009140A0F480911101909112018551954008
:102170008F38914058F410929A06409296065092E9
:10218000970660929806709299062BC080919A06E5
:10219000813039F50E9455150091920610919306F1
:1021A0002091940630919506DC01CB01801B910BA8
:1021B000A20BB30B009196061091970620919806FA
:1021C00030919906081719072A073B0710F4109257
:1021D0009A068092960690929706A0929806B092E0
:1021E000990680919A068111E1C020910F013091EA
:1021F0001001809198042B33374040F12091110158
:10220000309112012B33374008F1209113013091A6
:1022100014012F373440D0F08111BAC080919B0453
:1022200090919C04069708F4B3C080919A048111A0
:10223000AFC082E080939A0681E0809398048091F9
:102240002F0180930A010E94F60BA2C0882309F493
:102250009FC010918705109287059091990499234A
:1022600061F020911301309114012531354028F09F
:1022700092E090939A060E94EC0D90919804992315
:1022800009F451C020910D0130910E012B3387E0EC
:10229000380778F081E080939A06809108018F5F7B
:1022A00080930801843008F473C083E080930801B0
:1022B0006FC02E37344068F491E090939A06809175
:1022C0000801815080930801811162C09093080138
:1022D0005FC020910F01309110012B33F7E03F07D1
:1022E000A0F091E090939A0680910901815080932B
:1022F0000901811102C09093090180910A018111A5
:1023000047C08AE08093090143C02E37344058F417
:1023100081E080939A06809109018F5F8093090183
:102320008B3078F735C020919904211131C0992361
:1023300079F1812F16300CF085E08B3F0CF48BEF98
:1023400020911101309112012E3794E0390738F4B1
:1023500091E090939A0681508093870517C02B33A4
:102360003740B0F091E090939A068F5F8093870595
:1023700080910A01873051F480910801833031F453
:1023800080910901853011F4109231050E9491036A
:1023900080919A06813051F40E94551560939206FF
:1023A0007093930680939406909395068091E90626
:1023B0008A3609F056C085E080933B050E943F06AF
:1023C000882319F081E0809336040E943F068093B1
:1023D0003D040E94580660932C0470932D04809352
:1023E0002E0490932F040E94580660932804709343
:1023F000290480932A0490932B040E944A06A0E0AB
:10240000B0E020919A0421110BC080939E06909316
:102410009F06A093A006B093A10621E020939D06FD
:1024200040919E0650919F066091A0067091A10672
:10243000841B950BA60BB70B809324049093250463
:10244000A0932604B09327040E944A069093230485
:10245000809322040E944A0690939C0680939B06D8
:1024600061CC8B3699F40E944A06A0E0B0E08093DC
:10247000300490933104A0933204B09333040E944B
:102480004A0690933504809334044CCC893759F430
:102490000E943F060E943F060E943F060E943F06A0
:1024A000809337043FCC8C36A9F40E944A0690935F
:1024B0009304809392040E944A069093950480931B
:1024C00094040E944A06843B91050CF49BC18856F3
:1024D000914098C18D3689F40E9458066093360267
:1024E0007093370280933802909339020E944A0613
:1024F00090933B0280933A0215CC8E36B9F40E9439
:102500003F06809393050E944A0690933102809380
:1025100030020E944A0690939205809391050E9492
:102520004A069093900580938F05FCCB8F3631F54A
:102530000E943F0680938E050E943F0680938D0582
:102540000E943F0680938C050E943F0680938B0576
:102550000E943F0680938A050E943F06809389056A
:102560000E943F068093880580919D0490919E046F
:10257000A0919F04B091A0049D7F27C0803771F582
:1025800023E1E22E22E0F22E09E012E03DE1C32E2B
:1025900032E0D32E0E943F06F60181936F010E9424
:1025A0003F06F70181937F010E943F06F801819366
:1025B0008F0129812C11EECF80919D0490919E0472
:1025C000A0919F04B091A0049B7F80939D04909361
:1025D0009E04A0939F04B093A004A4CB873709F076
:1025E000A1CB81E0809327051091EB068BE2EAEA0C
:1025F000F4E011928A95E9F7C12CD12C7601C394AD
:10260000112309F48FCB0E943F06082E000C990B72
:10261000AA0BBB0B8D31910508F0D5C0FC01E65B20
:10262000FF4F0C946B2B8091AA048C298093AA04F1
:10263000CAC08091AB048C298093AB04C4C0809144
:10264000AC048C298093AC04BEC08091AD048C296D
:102650008093AD04B8C08091AE048C298093AE0401
:10266000B2C08091AF049091B0048C299D299093C1
:10267000B0048093AF04A7C08091B1049091B204DC
:10268000A091B304B091B4048C299D29AE29BF292F
:102690008093B1049093B204A093B304B093B404B4
:1026A00092C08091B5049091B604A091B704B09106
:1026B000B8048C299D29AE29BF298093B504909335
:1026C000B604A093B704B093B8047DC08091B90458
:1026D0009091BA04A091BB04B091BC048C299D29AF
:1026E000AE29BF298093B9049093BA04A093BB0488
:1026F000B093BC0468C08091C9049091CA04A091B1
:10270000CB04B091CC048C299D29AE29BF2980939C
:10271000C9049093CA04A093CB04B093CC0453C0D3
:102720008091C5049091C604A091C704B091C804DB
:102730008C299D29AE29BF298093C5049093C60496
:10274000A093C704B093C8043EC08091CD0490917B
:10275000CE04A091CF04B091D0048C299D29AE293C
:10276000BF298093CD049093CE04A093CF04B0935F
:10277000D00429C08091D1049091D204A091D304B7
:10278000B091D4048C299D29AE29BF298093D1040E
:102790009093D204A093D304B093D40414C0809136
:1027A000BD049091BE04A091BF04B091C0048C29D7
:1027B0009D29AE29BF298093BD049093BE04A093A8
:1027C000BF04B093C004CC0CDD1CEE1CFF1C1150E8
:1027D00017CF91E0910F9093E806E12FF0E0E550DC
:1027E000FA4F80838CE591E00E94E40C892B79F00C
:1027F00031105CCA0CC080E88093910681E0809320
:10280000A50444CC90933C0480933B048BCA0F9066
:10281000DF91CF911F910F91FF90EF90DF90CF90BC
:10282000BF90AF909F908F907F906F905F904F90F0
:102830003F902F900895CF92DF92EF92FF920F93E7
:102840001F93CF93DF93C42F97FF08C09095809577
:10285000709561957F4F8F4F9F4FC22F24E630E0D8
:1028600040E050E00E94A92ECA01B9011092F90679
:10287000C093F806C9E02AE0C22ED12CE12CF12C3D
:10288000DEE2C43019F4D093F206C3E0C1500C2F3D
:1028900010E00151194FA70196010E94A92E605D19
:1028A000F8016083B901CA01CC2339F0C33048F77D
:1028B000611571058105910521F780E2CC2339F07E
:1028C000C150EC2FF0E0E151F94F8083F7CF8FEE4C
:1028D00096E0DF91CF911F910F91FF90EF90DF90E5
:1028E000CF900895E1E3F6E02491EDE1F6E09491D4
:1028F000E9E0F6E0E491EE2309F43BC0222339F14C
:10290000233091F038F42130A9F0223001F524B5BC
:102910002F7D12C0273091F02830A1F02430B9F477
:10292000209180002F7D03C0209180002F7720937D
:1029300080000DC024B52F7724BD09C02091B000C0
:102940002F7703C02091B0002F7D2093B000F0E0DE
:10295000EE0FFF1FE850FA4FA591B4912FB7F894EE
:10296000EC91811103C090959E2301C09E2B9C93F6
:102970002FBF0895CF93DF9390E0FC01EA5EF94FFB
:102980002491FC01EE5FF94F8491882361F190E07E
:10299000880F991FFC01E251FA4FC591D491FC01B7
:1029A000E850FA4FA591B491611109C09FB7F8940E
:1029B0008881209582238883EC912E230BC062307E
:1029C00061F49FB7F8943881822F809583238883A0
:1029D000EC912E2B2C939FBF06C08FB7F894E88103
:1029E0002E2B28838FBFDF91CF9108953FB7F894A6
:1029F0008091070790910807A0910907B0910A07F5
:102A000026B5A89B05C02F3F19F00196A11DB11D49
:102A10003FBFBA2FA92F982F8827820F911DA11D84
:102A2000B11DBC01CD0142E0660F771F881F991FC1
:102A30004A95D1F708958F929F92AF92BF92CF920D
:102A4000DF92EF92FF926B017C010E94F6144B0122
:102A50005C01C114D104E104F104F1F00E94F61408
:102A6000DC01CB0188199909AA09BB09883E93406A
:102A7000A105B10570F321E0C21AD108E108F108FF
:102A800088EE880E83E0981EA11CB11CC114D104ED
:102A9000E104F10419F7DDCFFF90EF90DF90CF90C4
:102AA000BF90AF909F908F9008952FB7F89460914A
:102AB00003077091040780910507909106072FBFC7
:102AC00008951F920F920FB60F9211242F933F93E8
:102AD0008F939F93AF93BF938091030790910407C7
:102AE000A0910507B09106073091020723E0230F5C
:102AF0002D3720F40196A11DB11D05C026E8230F36
:102B00000296A11DB11D20930207809303079093A5
:102B10000407A0930507B0930607809107079091DB
:102B20000807A0910907B0910A070196A11DB11DE0
:102B30008093070790930807A0930907B0930A07AB
:102B4000BF91AF919F918F913F912F910F900FBEA9
:102B50000F901F901895CF93DF93CDB7DEB7E7970F
:102B60000FB6F894DEBF0FBECDBF789484B58260F7
:102B700084BD84B5816084BD85B5826085BD85B521
:102B8000816085BD80916E00816080936E0010929F
:102B9000810080918100826080938100809181001A
:102BA00081608093810080918000816080938000AB
:102BB0008091B10084608093B1008091B000816009
:102BC0008093B00080917A00846080937A00809135
:102BD0007A00826080937A0080917A00816080938D
:102BE0007A0080917A00806880937A001092C10008
:102BF000E0916C01F0916D0182E08083E0916801C9
:102C0000F09169011082E0916A01F0916B0190E10D
:102C1000908310927401E0917001F091710186E04F
:102C20008083E0916E01F0916F01808180618083EB
:102C3000E0916E01F0916F01808188608083E09166
:102C40006E01F0916F01808180688083E0916E0158
:102C5000F0916F0180818F7D80838091C0008260C0
:102C60008093C0001092C5009093C4008CE591E061
:102C70000E94620D84B18C6284B92498569A52984D
:102C800060E084E10E94BA1460E081E10E94BA141D
:102C900060E081E10E94BA1461E087E00E94BA140A
:102CA0003B98F89480916C0083FD0AC08091680085
:102CB00082608093680080916C00886080936C00D3
:102CC00078940E94A00A0E94BD0B64EF71E080E03E
:102CD00090E00E941B158091FF04882311F081E091
:102CE00001C083E0809300010E94630B0E94F60BF9
:102CF00068E6262E332433941092780580913E05A1
:102D000090913F05019690933F0580933E058091F9
:102D10002805882311F00C940000E0911405E0933D
:102D20002D011092D904809113058823A1F0F0E0C1
:102D3000EE0FFF1FE55FFE4F80819181813426E019
:102D4000920710F081E004C089379540E0F082E0FE
:102D50008093D90418C04091C5045091C604609175
:102D6000C7047091C8048091D5049091D604A091B5
:102D7000D704B091D80484239523A623B723892BA5
:102D80008A2B8B2BF9F61091D904809177051813B3
:102D90000E940F0B1093770510912A05163010F042
:102DA00081E001C080E00E9472140E9455156B0101
:102DB0007C018091730590917405A0917505B09187
:102DC0007605B701A601481B590B6A0B7B0B4436ED
:102DD00051056105710508F48FC08C599F4FAF4FA5
:102DE000BF4F8093730590937405A0937505B093BE
:102DF00076051F5F10932A0580912B058F5F8093C6
:102E00002B0581E090912D05911180E080932D0597
:102E1000809136048823A1F180919A04882381F15E
:102E200060912204709123046115710549F120918C
:102E3000F70480E090E0222339F00E949C2C21EBE3
:102E400032E047E55BE306C00E949C2C2FE632E1AE
:102E500043E85AE30E94922D9B01AC016091480522
:102E60007091490580914A0590914B050E947E2BF7
:102E7000609348057093490580934A0590934B05EC
:102E8000609148057091490580914A0590914B05E4
:102E90000E946D2C60932702709328028093290270
:102EA00090932A028091E8048823D1F02091A6040F
:102EB0003091A7044091A8045091A90460916F0536
:102EC0007091700580917105909172050E947E2B22
:102ED00060936F05709370058093710590937205F0
:102EE0008091A504811108C080913C05811104C026
:102EF00060E08CE60E946D0380916B0590916C05FB
:102F0000A0916D05B0916E05C81AD90AEA0AFB0AAC
:102F100042E3C416D104E104F10410F40C94122924
:102F2000C296A11DB11D80936B0590936C05A09373
:102F30006D05B0936E058091A1049091A204A091BB
:102F4000A304B091A404892B8A2B8B2B81F480914C
:102F50009D0490919E04A0919F04B091A004809341
:102F6000A1049093A204A093A304B093A40440915D
:102F7000A1045091A2046091A3047091A404882735
:102F80009927DC01841B950BA60BB70B8423952393
:102F9000A623B7238C019D010095109520953095AF
:102FA00040235123622373234093A1045093A2042E
:102FB0006093A3047093A404811551E09507A105C3
:102FC000B10509F451C018F588309105A105B10586
:102FD00009F444C060F481309105A105B105E1F127
:102FE0000297A105B10509F049C085E648C08032C5
:102FF0009105A105B105B1F180389105A105B10593
:1030000079F14097A105B105C9F58DE638C0811564
:1030100078E09707A105B10579F168F48115F2E030
:103020009F07A105B10521F181159440A105B105C6
:1030300029F580E724C0009731E0A307B105B1F07E
:10304000009744E0A407B105A9F081159041A105BE
:10305000B105A1F48CED13C084E611C089E60FC060
:103060008AE60DC08BE60BC08EE609C082E707C07A
:103070008FE605C08BE303C087E701C080E0909135
:10308000A50491113EC090913C05911103C060E0F0
:103090000E946D035E9860E085E00E94D30760E0C7
:1030A00086E00E94D30761E084E00E94D3070E947B
:1030B00064073CE3E32E32E0F32E00E010E040E250
:1030C000D42E8091F9019091FA010817190780F424
:1030D000003F110511F40E946407D7016C9187E04D
:1030E0000E94D307F701D1927F010F5F1F4FE9CFF5
:1030F0006FEF87E00E94D30760E084E00E94D3076F
:103100005E9A0E943C0880919B0490919C040597D4
:1031100088F522E0E22E24E0F22E00E410E0F70130
:1031200085919491B8010E949707F2E0EF0EF11C8F
:10313000025E1F4F003321E0120789F788EF90E00D
:103140000E94BC07E0912905F0E0EE0FFF1FE6505A
:10315000FC4F8591949166E171E00E949707809100
:10316000690590916A05CC9790932F0580932E0561
:103170000C94122910919A04112349F081E0809354
:10318000990480919804813011F40E94EC0D009113
:103190009904002371F011110CC010920A018AE009
:1031A0008093090181E080930801809398040E9434
:1031B000F60B80919804882309F44AC410910A01FF
:1031C000E12FEE0FFF0BEE55FB4F8591949163E2DB
:1031D00070E00E9497076BE671E08DE994E00E9431
:1031E000970701110CC061E771E083E994E00E9448
:1031F00097076BE771E08CE894E00E949707111144
:103200008BC08091270290912802A0912902B09151
:103210002A028D839E83AF83B88780911C0490918E
:103220001D04A0911E04B0911F0489879A87AB8763
:10323000BC878091340290913502092E000CAA0BB4
:10324000BB0B8D879E87AF87B88B809120049091B0
:103250002104A0E0B0E0898B9A8BAB8BBC8B20E083
:1032600030E044EB53E460916F05709170058091FC
:103270007105909172050E94F42B0E946D2C6D8B4C
:103280007E8B8F8B988F80912E0290912F026AE017
:1032900070E00E94432BCB01A0E0B0E0898F9A8FB1
:1032A000AB8FBC8F8EE7E82E84E0F82EAE014F5F27
:1032B0005F4F6A010DE510E0F70185919491B80127
:1032C0000E949707F60181919191A191B1916F01AF
:1032D0004AE06EEE76E00E945E2EB8016F5E7F4F90
:1032E0000E94B207F2E0EF0EF11C025E1F4F0F3298
:1032F00021E0120709F76091390470913A0480E0E7
:1033000090E021E04EEE56E00E9483066DE670E00C
:103310008EEE96E00E94B20780910A01813009F09A
:103320006AC000E7E02E04E0F02E0DE510E0F701A2
:1033300085919491B8010E94970732E0E30EF11C49
:10334000025E1F4F0F3241E0140789F700E005309D
:1033500019F0073028F001C007E0D02E025001C05C
:10336000D02E5EE1059F80011124ED2CF12CF70198
:10337000E35EFD4F80814AE06EEE76E090E00E94D1
:103380005E2EB8016B597F4F0E94B207F701ED5EC8
:10339000FD4F80814AE06EEE76E090E00E945E2E66
:1033A000B80165597F4F0E94B207F701E75FFD4FF3
:1033B00080814AE06EEE76E090E00E945E2EB801D9
:1033C0006F587F4F0E94B20701E00D0D093008F4DD
:1033D000BECF67E470E083E591E00E94B2076DE440
:1033E00070E085E591E00E94B20763E570E087E553
:1033F00091E00E94B20780910A01823009F091C0E9
:103400000E943C0887E98093EE0623E044E06FEEDB
:1034100076E080913202909133020E94180719EAF7
:103420001093F3061092F40664E370E08EEE96E0DB
:103430000E94B2078FEB8093EE0623E044E06FEE2C
:1034400076E080912C0290912D020E941807109333
:10345000F3061092F4066CE270E08EEE96E00E94A5
:10346000B20712E6E12E14E0F12E0DE510E0F701AF
:1034700085919491B8010E94970762E0E60EF11CD5
:10348000025E1F4F0F3271E0170789F78091EB043E
:103490004AE06EEE76E090E00E945E2E6BEC70E00B
:1034A0000E94B20767E081E790E00E94A207809146
:1034B000E4044AE06EEE76E090E00E945E2E6FE853
:1034C00070E00E94B2078091E2044AE06EEE76E07E
:1034D00090E00E945E2E6DEA70E00E94B20761E10A
:1034E0008BEC90E00E94A2078091EC044AE06EEE23
:1034F00076E090E00E945E2E69EE70E00E94B207D6
:103500008091E3044AE06EEE76E090E00E945E2E49
:1035100067E071E00E94B2076BE085E291E00E94F3
:10352000A20780910A01833009F06FC04AE06EEE75
:1035300076E080919004909191040E945E2EE0E0EC
:10354000AE2FB0E0A251B94F8C91EF5F8111F8CF4F
:1035500085E28C93F0E0E251F94F108265E370E070
:103560008EEE96E00E94B207B6E5EB2EB4E0FB2E9D
:103570000DE510E0F70185919491B8010E9497073D
:1035800082E0E80EF11C025E1F4F013191E0190745
:1035900089F764E081E790E00E94A20780913005FE
:1035A000882349F04AE06EEE76E090E00E945E2EBD
:1035B0006FE870E004C06FE870E089E591E00E9478
:1035C000B20765E08DEA90E00E94A20766E08BEC0E
:1035D00090E00E94A2074AE06EEE76E0809103023E
:1035E000909104020E945E2E69EE70E00E94B20784
:1035F0004AE06EEE76E080910102909102020E9414
:103600005E2E67E071E00E94B20780910A0184306B
:1036100009F05AC06091A6047091A7048091A80493
:103620009091A9040E94662CDC01CB0123E044E0C8
:103630006EEE76E00E9418078AE98093F2061092F7
:10364000F30664E370E08EEE96E00E94B207ACE40D
:10365000EA2EA4E0FA2E0DE510E0F7018591949191
:10366000B8010E949707A2E0EA0EF11C025E1F4F0C
:10367000033F110591F76CE081E790E00E94A207FB
:103680006EE08FE890E00E94A2076FE08DEA90E084
:103690000E94A2074AE06EEE76E08091FF019091D1
:1036A00000020E945E2E6BEC70E00E94B2074AE0BE
:1036B0006EEE76E08091FD019091FE010E945E2EFB
:1036C00069EE70E00E94B20780910A01853009F02E
:1036D00044C0FCE3EF2EF4E0FF2E0DE510E0F7010F
:1036E00085919491B8010E949707B2E0EB0EF11C0E
:1036F000025E1F4F0D34E1E01E0789F760E281E7AB
:1037000090E00E94A20761E28FE890E00E94A20789
:103710006DE28DEA90E00E94A2076FE18BEC90E0F1
:103720000E94A20767E189EE90E00E94A20764E38D
:1037300087E091E00E94A2076EE285E291E00E949C
:10374000A2078091FE044AE06EEE76E090E00E94CF
:103750005E2E63E471E00E94B20780910A01863018
:1037600009F058C0E0E3EE2EE4E0FE2E0DE510E097
:10377000F70185919491B8010E949707F2E0EF0E4E
:10378000F11C025E1F4F013121E0120789F7809181
:10379000F70461E770E0811103C08CE294E002C09D
:1037A00088E294E00E9497078091FF046FE870E040
:1037B000882319F085E294E002C080E294E00E9440
:1037C00097076CE28DEA90E00E94A2078091310594
:1037D000882349F04AE06EEE76E090E00E945E2E8B
:1037E0006BEC70E004C06BEC70E089E591E00E9446
:1037F000B207809114054AE06EEE76E090E00E94F8
:103800005E2E69EE70E00E94B20763E187E091E00E
:103810000E94A20780910A01873009F04EC0809172
:10382000180590E09E8F8D8F8091190590E098A3E8
:103830008F8F80911A0590E09AA389A380911B0530
:1038400090E09CA38BA38091EE0490E09EA38DA3B7
:103850008091EF0490E098A78FA30DE510E0E12C94
:10386000F12CD12CF701EE5EFB4F85919491B801BC
:103870000E94970736E0D31691F04AE06EEE76E0AC
:10388000EDE1F0E0EC0FFD1FEE0DFF1D8081918159
:103890000E945E2EB8016C5E7F4F0E94B207D394E7
:1038A00042E0E40EF11C025E1F4F57E0D512DACF62
:1038B00060E185E291E00E94A20780910A018830D0
:1038C00014F010920A01309109013A3079F4809194
:1038D0000801833011F40C94EC29813009F4A6C05E
:1038E000823009F0A6C080E791E0A5C03A3008F028
:1038F000A0C020910A01213031F5383019F48AE056
:103900008093090180910901893019F487E080933F
:1039100009012091090130E02E5F3F4F4EE1429FA7
:10392000C001439F900D11240A964091080150E078
:103930004150510966E0649F9001659F300D11244C
:10394000820F931F78C0223079F483E080930801BE
:10395000383019F48AE08093090180910901893097
:1039600009F061C087E05DC0233071F42093080145
:10397000373019F48AE08093090180910901893078
:1039800009F051C086E04DC0243071F483E080938B
:103990000801393019F485E080930901809109010B
:1039A000863009F040C03CC080E090E02530E9F46A
:1039B000393049F480914C05883011F48AE001C017
:1039C00088E0809309012091090120934C0583E050
:1039D0008093080130E02E5F3F4F4EE1429FC001CF
:1039E000439F900D1124469626C0263061F483E053
:1039F00080930801393011F4209309018091090165
:103A0000873089F40DC02730B1F483E0809308013A
:103A1000393011F42093090180910901883019F49B
:103A20008AE08093090120910901D4CF8AE691E0D0
:103A300002C080E090E020912D05222311F40C9427
:103A40001229FC01E45CFD4F23E020830C94122931
:103A50000E94F60B8091960480FF25C2C0909404CA
:103A6000D0909504E0909204F090930480E58093C8
:103A7000EE06C6016AE0C616D10434F06AE070E0D2
:103A80000E94572BCB010CC066EF7FEF0E94572B93
:103A9000CB01D7FE05C02DE22093EF0622E001C046
:103AA00021E030E0B9016251794F4AE00E945E2E78
:103AB0008FE00E947306882349F060915C04709146
:103AC0005D0471708EEE96E00E94B20782E58093ED
:103AD000EE06C7017AE0E716F10434F06AE070E020
:103AE0000E94572BCB010CC066EF7FEF0E94572B33
:103AF000CB01F7FE05C02DE22093EF0622E001C0C6
:103B000021E030E0B9016251794F4AE00E945E2E17
:103B100080E10E947306882349F060915E047091F1
:103B20005F0471708EEE96E00E94B207B0900705B8
:103B3000B1100AC080910F05811106C083E1809306
:103B4000020180930101AAC080919A04811104C0EE
:103B50001092230410922204009122041091230455
:103B600080915B0590915C059801215F3F4F28177C
:103B70003907C0F40E945515609357057093580596
:103B80008093590590935A0582E0809356051093CF
:103B90005C0500935B058091020181508031E8F45F
:103BA00085E11BC00F9680179107C8F40E94551538
:103BB00060935705709358058093590590935A0563
:103BC00081E08093560510935C0500935B0580911E
:103BD00002018F5F863108F080E1809302014090FE
:103BE000360250903702609038027090390280910E
:103BF000520590915305A0915405B0915505B3011C
:103C0000A2014C5E5F4F6F4F7F4F481759076A07FD
:103C10007B07E4F40E94551560934E0570934F05A1
:103C2000809350059093510582E080934D0540921A
:103C3000520550925305609254057092550580913B
:103C400001018150803128F585E123C04496A11DF2
:103C5000B11D84159505A605B705ECF40E94551510
:103C600060934E0570934F058093500590935105D6
:103C700081E080934D054092520550925305609229
:103C8000540570925505809101018F5F863108F0CF
:103C900080E180930101BB2009F450CF00917004B2
:103CA00010917104117089ECC816D10454F498E392
:103CB000C9169FEFD90644F468E3C62EDD24DA94D2
:103CC00003C078ECC72ED12CA1E9EA16A1E0FA06D0
:103CD00054F4B0E7EB16BEEFFB064CF440E7E42EDD
:103CE0004EEFF42E04C050E9E52EFF24F394B0907B
:103CF000FA0489E10E9473068B2109F48FC0260122
:103D0000EAE04E0E511C57FE04C02601F1E14F0EB1
:103D1000511C83E0559447948A95E1F7519441945E
:103D2000510890900C0540E094E0692E712C29E038
:103D3000C22ED12C3EE1832EE42FF0E0C3018E1B76
:103D40009F0BE89E9001E99E300DF89E300D1124E6
:103D500037FF02C0215C3F4FB6E035952795BA95F5
:103D6000E1F7240D351D275D3F4F22353105F0F574
:103D7000E00FF11FC901B6010E94572B869ED001AA
:103D8000879EB00D1124EA0FFB1FBF016C5771090C
:103D9000603E51E0750728F4DB01A45CBD4F8058FC
:103DA0008C93992019F18EEF840F8530F8F4CF01B0
:103DB000865D9109803E61E0960758F4DC01A45CC1
:103DC000BD4F5D01C901B6010E94572B8058D50136
:103DD0008C93B297E03EB1E0FB0740F4E45CFD4F0A
:103DE000C901B6010E94572B805880834F5F49302C
:103DF00028F4443009F0A0CF45E09ECF82E20E9433
:103E0000730681110BC0F801E45CFD4FDF011197CF
:103E100086E28C938CEB81838EE780838091FB0418
:103E2000882309F440C08AE10E9473068823D9F1EF
:103E300080917804982F9F70809176048F70B82EAF
:103E4000482F41956091020150910101C92E990FAF
:103E5000DD0898012C193D097601E00EF11EEEE116
:103E60004E02C0011124845C9D4FFC01E20FF31F40
:103E70006083FC01EE0DFF1D50834F5FB4167CF78D
:103E8000F801EC19FD09E35CFD4F83E08083F80144
:103E9000EC0DFD1DE55CFD4F82E0808380910F05F8
:103EA00081110C94F0298091E104882309F45CC00D
:103EB000B090E204B0925E05E091E304E0935D050A
:103EC0008091FC0400913202109133028823A9F101
:103ED00062E2E69F600111247AE2E79FF00111247B
:103EE0000C151D0510F42C2D07C09F01225031091F
:103EF0000217130708F498010D2C000CEE08FF08B8
:103F0000822F90E0A0E0B0E09C01AD012C193D09AA
:103F10004E095F09A7E0B0E00E94C82E31972F013B
:103F2000612C712CA30192012C193D094E095F09E6
:103F30000E94A92E86E9821B01C087E98093EE06C4
:103F4000EB2CF12C0E151F0520F480912C0581110E
:103F50000BC085E10E94730681110C94542AE0166F
:103F6000F10610F00C94542A8091EB04882369F137
:103F700000912C0210912D0220912B0230E00217AB
:103F8000130720F480912C0581111FC086E10E9447
:103F900073068823D1F08FEB8093EE0623E044E094
:103FA0006FEE76E0C8010E94180789EA8093F30655
:103FB0001092F40660916A0470916B047170615004
:103FC00071098EEE96E00E94B2078091DE0488238C
:103FD000B1F100919004109191042091DD0430E042
:103FE0002017310724F080912C05882341F183E1CB
:103FF0000E947306882319F18AEB8093EE064AE04B
:104000006FEE76E0C8010E945E2EE0E0AE2FB0E0D9
:10401000A251B94F8C91EF5F8111F8CF85E28C935B
:10402000F0E0E251F94F10826091640470916504F0
:104030007170615071098EEE96E00E94B207809116
:10404000E604882309F45CC0C090A604D090A704BD
:10405000E090A804F090A90420E030E040E251E4B0
:10406000C701B6010E94F42B4B015C016091EF0483
:1040700070E080E090E00E949E2C9B01AC01C501A5
:10408000B4010E94EA2B87FD04C080912C0588238F
:10409000B9F160912E0270912F0280E090E00E94B1
:1040A0009C2C9B01AC01C701B6010E948D2D1816F6
:1040B00044F4C701B6010E946D2C70932F026093E7
:1040C0002E0287E10E9473068823D1F0C701B60152
:1040D0000E94662CDC01CB0124E045E06EEE76E028
:1040E0000E9418078AE98093F3061092F406609103
:1040F0006C0470916D0471708EEE96E00E94B207B0
:104100008091E804882309F44CC0609130027091DA
:1041100031026115710581F420E030E044EB53E495
:1041200060916F0570917005809171059091720595
:104130000E94F42B0E94662C8091EE04A4E68A9FD4
:10414000C00111248617970724F480912C05882339
:1041500041F188E10E947306882319F184EA809373
:10416000EE0620E030E044EB53E460916F0570917F
:10417000700580917105909172050E94F42B0E9448
:10418000662CDC01CB014AE06FEE76E00E945E2EE9
:1041900060916E0470916F0471708EEE96E00E94D3
:1041A000B20780910D05882309F44CC00091580492
:1041B000109159040115B2E01B0708F443C0809127
:1041C0009A048823F1F020915F0530916005C901C0
:1041D0006CE370E00E94432B80911B0590E0681710
:1041E000790720F080912C0581112CC02031EEE060
:1041F0003E0728F48CE98093EE06B90116C081E7EA
:1042000009C06091690570916A056031FEE07F0721
:1042100020F48BE98093EE0608C080E78093EE06D9
:10422000CB016CE370E00E94432B80E090E020E043
:104230004FEE56E00E948306B80171708EEE96E054
:104240000E94B20785E20E9473068823A1F10091C3
:1042500088041091890411706091320270913302C8
:1042600080E090E00E949C2C2091A6043091A7044D
:104270004091A8045091A9040E94922D20E030E0C2
:1042800048EC52E40E94F42B0E946D2CDC01CB011F
:1042900025E045E06FEE76E00E94180780E280930B
:1042A000EE0687E58093F3061092F406B8018EEED1
:1042B00096E00E94B2078EE00E947306882309F4FC
:1042C000ADC08091EA04882309F4A8C080919A04C3
:1042D000811107C0809178058260809378058EE116
:1042E0000EC080910301882369F090912D059111F2
:1042F00095C0909178059460909378058150809353
:10430000030105C0809178058160809378058091D4
:104310005E0590E0209132023091330282179307BC
:1043200028F08091780580648093780580919604C8
:1043300083FF1CC080913D04853028F4809178056E
:1043400080628093780580913B05811105C0809142
:10435000780580618093780580913A05811106C0C7
:10436000809178058F7C88608093780580917905AD
:10437000811104C0809178058093790510917905A9
:10438000212F2195022F01230E945515C09044052D
:10439000D0904505E0904605F090470524EFC20E09
:1043A00021E0D21EE11CF11CC616D706E806F9066C
:1043B00088F4112329F0802F809518231093790514
:1043C0000E945515609344057093450580934605FA
:1043D0009093470580E090E0E0E0202F30E0A901D5
:1043E000082E02C0559547950A94E2F740FDE82F44
:1043F00001968830910599F780917805823070F0A8
:10440000F0E0EE0FFF1FEE54FB4F85919491609109
:104410005A0470915B0471700E9497078091F904AF
:10442000882309F48FC08BE00E947306882309F467
:1044300089C080E28093EF0680911301909114016E
:1044400020910601309107012817390720F4909335
:104450000701809306012091040130910501821724
:10446000930720F4909305018093040120910601A5
:10447000309107012330384030F022E038E03093AB
:104480000701209306012091040130910501263B8C
:10449000334030F426EB33E03093050120930401E0
:1044A00020919A04211109C080E28093F0069DE2D8
:1044B0009093F1069093F20635C02091ED042223EB
:1044C00039F020E044E060EF76E00E9418072CC04D
:1044D000C0900401D0900501E12CF12CA0E0B0E0E7
:1044E0009C01AD012C193D094E095F09A4E6B0E01D
:1044F0000E94C82E2091060130910701890120E019
:1045000030E0A90198012C193D094E095F090E946C
:10451000A92EDA01C90120E043E060EF76E00E94B5
:10452000180785E28093F30688EC8093EE061092DC
:10453000F406609154047091550471708EEE96E00B
:104540000E94B2072091690530916A0580912E057D
:1045500090912F05AC01445C5F4F42175307A0F4C4
:10456000805C9F4F8217930720F430932F05209390
:104570002E0580910205882339F080918C0490915A
:104580008D0491700E94BC078091960482FF59C0EF
:1045900088E00E9473068823F9F080910B05882338
:1045A000D9F080913B0490913C04880F991F880FAB
:1045B000991F83509D4F6AE570E00E94572B6D5301
:1045C0007B4F80914E0490914F04917049E050E0F0
:1045D000845C9D4F0E94552E87E00E9473068823BD
:1045E00081F18091F504882361F180913B049091E1
:1045F0003C042091F604222381F097FF02C08859E1
:104600009E4F20E043E06EEE76E00E9418078DEBAF
:104610008093F1061092F2060BC020E044E06EEEAB
:1046200076E00E9418078DEB8093F2061092F30655
:1046300060914C0470914D0471708EEE96E00E9472
:10464000B2078091960481FFB9C08091F704882356
:10465000A1F06091360270913702809138029091FA
:1046600039020E949E2C2EEA31E646E05DE30E946C
:10467000922D0E94662C8B010FC0609136027091C2
:104680003702809138029091390224E630E040E010
:1046900050E00E94A92E890180919A04882389F014
:1046A00080919B0490919C04069758F0809134026D
:1046B000909135028017910724F4109335020093EE
:1046C000340289E00E947306882369F180910A050B
:1046D000882349F140911905442371F0C8016AE02B
:1046E00070E00E94572B842F90E06817790724F020
:1046F00080912C05811117C04AE06FEE76E0C80169
:104700000E945E2EE091F704F0E0EA5CFE4F8081AB
:104710008093EE06609150047091510471708EEE9A
:1047200096E00E94B2078AE00E947306882309F48B
:1047300045C080910905882309F440C000915204C6
:10474000109153041170045C1D4FF8017E978FE7A0
:104750008083D8018C935E968C9320913A0230919D
:104760003B022937310534F42838BFEF3B071CF4EE
:1047700028E801C028E7822F220F990BAA0BBB0B58
:104780009C01AD012857310941095109A1E1B0E06F
:104790000E94C82E20E13FEF4FEF5FEF0E94A92E4D
:1047A000822F66E00E94352B8150F8012EE18202B3
:1047B000E00DF11D11248FE8891B80838091960400
:1047C00083FF6CC38091F004882309F467C31091C0
:1047D0003D04153020F480912C0581111BC080E030
:1047E0000E9473068823B1F08EE18093EE068FE17C
:1047F0008093EF064AE060EF76E0812F90E00E9420
:104800005E2E60913E0470913F0471708EEE96E0D2
:104810000E94B20780913604882309F46AC081E0BF
:104820000E9473068823C9F180913004909131046D
:10483000A0913204B09133040397A105B10520F48F
:1048400080912C05811129C02091400430914104B0
:10485000317080913B0490913C04845E9D4F409167
:10486000340450913504841B950B880F991F880FD1
:10487000991F8D966AE570E00E94572BCB0160E18D
:1048800070E00E94572B805A8093EE061092EF063C
:10489000B9018EEE96E00E94B2078091F70488235A
:1048A00009F41BC660913004709131048091320488
:1048B000909133040E949C2C21EA38EF41E550E4AA
:1048C0000E94922D0E946D2C6B017C0180911C0432
:1048D00090911D04A0911E04B0911F048C159D059C
:1048E000AE05BF0508F402C682E00E94730681117E
:1048F00011C680913604882309F452C084E00E94D6
:1049000073068823E1F08091F4048823C1F020E04D
:1049100043E06EEE76E080913404909135040E947D
:1049200018078DEB8093F1061092F2066091460411
:104930007091470471708EEE96E00E94B2078091EC
:104940009A04811104C01092230410922204F09062
:10495000F704609122047091230480E090E0F1104C
:104960000AC60E949C2C2CEB34E743E15DE30E94D5
:10497000922D0E946D2C8B01809120049091210436
:104980009C012C5E3F4F2017310708F0FBC5309388
:1049900021042093200483E00E9473068111FBC54B
:1049A00080913604882309F4C2C08091F3048823DF
:1049B00009F457C085E00E947306882309F451C0AA
:1049C0008091F7048823A9F0609124047091250454
:1049D00080912604909127040E949E2C21EA38EFB2
:1049E00041E550E40E94922D0E94662C6B017C01EF
:1049F00008C0C0902404D0902504E0902604F090D4
:104A00002704109119051123A9F0C701B6012AE066
:104A100030E040E050E00E94A92E812F90E0A0E01D
:104A2000B0E0281739074A075B0724F080912C056E
:104A3000811117C04AE06FEE76E0C6010E945E2E3B
:104A4000E091F704F0E0EA5CFE4F80818093EE068F
:104A5000609148047091490471708EEE96E00E9456
:104A6000B20781E10E947306882309F460C0809137
:104A7000D5049091D604A091D704B091D8040091A8
:104A8000B1041091B2042091B3043091B40441E018
:104A900050E060E070E00097A105B10519F040E03A
:104AA00050E0BA014023512362237323452B462B48
:104AB000472BE9F580239123A223B3232091F1040E
:104AC000822B892B8A2B8B2B91F100916004109102
:104AD000610411708AEC8093EE0660912C04709151
:104AE0002D0480912E0490912F0423E54EE40E9422
:104AF0001B14B8018EEE96E00E94B207009162048A
:104B00001091630411708BEC8093EE066091280481
:104B10007091290480912A0490912B0427E545E4A3
:104B20000E941B14B8018EEE96E00E94B2073091ED
:104B3000FE0439AB323079F040F4313009F0AEC1C7
:104B4000A1E0B0E0BEABADAB10C049A9433049F025
:104B5000443009F0A3C162E070E07EAB6DAB11E0C0
:104B600005C082E090E09EAB8DAB10E080913604F2
:104B7000882309F493C182E20E947306882309F412
:104B80008DC11AAB10E000E02AA9822F90E04DA958
:104B90005EA9841795070CF081C18091340490912F
:104BA0003504BAA9B13061F42091610530916205F4
:104BB000821B930B845E9D4FB1010E94432B0BC05F
:104BC00088599E4F20913B0430913C04821B930BEB
:104BD000B1010E94572B9C016AE570E00E94572B9F
:104BE0006130710589F024F4672BD1F41FEF12C0F6
:104BF0006230710589F06330710591F4A101421BA7
:104C0000530B9A011FEF0BC0E4EBF0E0E21BF30B38
:104C10009F0111E001E004C0245B310911E00FEFB6
:104C2000B901330F880B990B0E949E2C2BED3FE0AE
:104C300049E450E40E94922D20E030E044E353E444
:104C40000E94F42B4B015C0160913004709131049F
:104C500080913204909133040E949C2C2B013C01E2
:104C6000C501B4010E94FF2D9B01AC01C301B2013B
:104C70000E94922D0E946D2C6B017C017CAB6BAB72
:104C8000C501B4010E94EF2B9B01AC01C301B2012D
:104C90000E94922D0E946D2C2B013C01C414D5045E
:104CA00010F4A20101C0A60160E070E04436510595
:104CB0006105710590F0443F81E058076105710579
:104CC00008F48CC4443C99E059076105710508F467
:104CD0008AC4CA01A4E2ABAB09C0B1E2BBAB84E6B3
:104CE00090E04431510561057105A0F14C01990F27
:104CF000AA08BB08C601A0E0B0E0BC01CD0154E0A9
:104D0000660F771F881F991F5A95D1F7A501940147
:104D10000E94A92E802F002E000C990B829F7001FB
:104D2000839FF00C929FF00C11249201AFE0B0E051
:104D30000E94F52EA50194010E94A92E812F012E1B
:104D4000000C990B829FF001839FF00D929FF00D54
:104D5000112404C0E0E0F0E0E12CF12CC0908404C8
:104D6000D090850421E0D2229701A7014F5F5F4FC9
:104D70002A01F7FC9A01359527952C0D3D1DCF0191
:104D800063E070E00E94572B5EE1569FC001579F81
:104D9000900D11243901680E791E6AA9613011F055
:104DA00025E001C024E0C701F7FE04C08827992749
:104DB0008E199F09482F417847FF03C041504E6F1D
:104DC0004F5F342FCF01F7FF04C0882799278E1B30
:104DD0009F0B63E00E94352B113019F482E0891B90
:104DE000982F0F3F11F431E0341B3296359710F4B1
:104DF00091E0911B73E04716510428F431E0EF2055
:104E0000E09409F430E0AAA9AA2311F060ED01C0F2
:104E100066EDB9A9B43031F0F32EFF0C3F0D390F18
:104E2000F32E15C080913B0490913C0440916105A4
:104E300050916205841B950B8A519D4FB1010E94D0
:104E4000432B6DE270E00E94432B92E7F92EF60EA1
:104E5000EBA9E093EE061092EF0660918204709148
:104E6000830471708EEE96E02FAB0E94B207F09231
:104E7000EE061092EF06B3018EEE96E00E94B207A6
:104E80002FA92093EE061092EF06B6018EEE96E063
:104E90000E94B207FAA9FF5FFAAB76CE80913A057D
:104EA000882309F4BFC1C090D504D090D604E09007
:104EB000D704F090D8048091AF049091B004A0E0A2
:104EC000B0E08C219D21AE21BF21892B8A2B8B2B19
:104ED000D1F0809108058823B1F01092F00686E1A8
:104EE0008093EE0687E18093EF068EE10E947306C1
:104EF000882349F060917A0470917B0471708EEE82
:104F000096E00E94B20780910E05882309F45AC0EA
:104F10008091AB0490E0A0E0B0E08C219D21AE2117
:104F2000BF21892B8A2B8B2B69F48091AC0490E0F4
:104F3000A0E0B0E08C219D21AE21BF21892B8A2BDE
:104F40008B2B29F080EA8093EE06E1E001C0E0E0DF
:104F50008091AD0490E0A0E0B0E08C219D21AE21D5
:104F6000BF21892B8A2B8B2B39F0AE2FB0E0A251B9
:104F7000B94F82EA8C93EF5F8091AE0490E0A0E09D
:104F8000B0E08C219D21AE21BF21892B8A2B8B2B58
:104F900039F0AE2FB0E0A251B94F81EA8C93EF5FA8
:104FA000F0E0E251F94F108286E00E9473068823F8
:104FB00049F060914A0470914B0471708EEE96E056
:104FC0000E94B2078091B9049091BA04A091BB04E9
:104FD000B091BC048C219D21AE21BF21892B8A2B4D
:104FE0008B2B39F01092F0068AEA8093EE068BEA5A
:104FF00088C08091B1049091B204A091B304B091A3
:10500000B4048C219D21AE21BF21892B8A2B8B2BAF
:1050100049F08DE98093EE068EE98093EF061092B9
:10502000F00671C08091B5049091B604A091B704C8
:10503000B091B8048C219D21AE21BF21892B8A2BF0
:105040008B2B39F01092F0068DEC8093EE068EECEF
:1050500058C08091CD049091CE04A091CF04B0911E
:10506000D0048C219D21AE21BF21892B8A2B8B2B33
:1050700079F0809137044AE060EF76E090E00E949A
:105080005E2E1092F20685EB8093EE0686EB39C019
:105090008091AD0490E0A0E0B0E08C219D21AE2194
:1050A000BF21892B8A2B8B2B69F68091AB0490E072
:1050B000A0E0B0E08C219D21AE21BF21892B8A2B5D
:1050C0008B2B39F01092F0068CEA8093EE068DEA75
:1050D00018C08091AC0490E0A0E0B0E0C822D922D2
:1050E000EA22FB221092F006CD28CE28CF2829F004
:1050F00084EC8093EE0685EC04C08EEA8093EE0685
:105100008FEA8093EF06809101058823B1F181E257
:105110000E947306882389F1009180041091810414
:105120001170B8018EEE96E00E94B2074091BD0466
:105130005091BE046091BF047091C0048091D50469
:105140009091D604A091D704B091D80484239523DC
:10515000A623B723892B8A2B8B2B79F08AEE809399
:10516000EE068BEE8093EF061092F006B8016E5FAC
:105170007F4F8EEE96E00E94B20780912C05811140
:1051800051C084E20E947306882309F44BC0409109
:10519000D5045091D6046091D7047091D8048091C1
:1051A000B1049091B204A091B304B091B4048423EB
:1051B0009523A623B723892B8A2B8B2B11F580915E
:1051C000B5049091B604A091B704B091B8048423BB
:1051D0009523A623B723892B8A2B8B2BA1F48091AF
:1051E000CD049091CE04A091CF04B091D00484233B
:1051F0009523A623B723892B8A2B8B2B99F0E3E0E9
:1052000003C0E1E001C0E2E0F0E0EE0FFF1FE35277
:10521000FB4F859194916091860470918704717021
:105220000E94970780912B05853048F010922B053E
:1052300081E090912C05911180E080932C050E94D3
:10524000551500913605109137052091380530919C
:10525000390508511C4F2F4F3F4F061717072807D6
:10526000390708F0B2C00093360510933705209334
:1052700038053093390510922A0580913E059091AA
:105280003F05909368058093670510923F05109243
:105290003E0580914005909141059093660580936D
:1052A000650510924105109240058091420590914C
:1052B0004305909364058093630510924305109213
:1052C00042058091690590916A05019690936A055F
:1052D000809369058091A504811117C05E9880EACA
:1052E0000E94CD078FEF0E94CD0783709091380404
:1052F000981719F00E94630B08C080E80E94CD0740
:105300008FEF0E94CD0783FFF5CF80913B05811180
:1053100003C010923D0403C0815080933B058091EF
:105320003A05882319F0815080933A0580913C0515
:10533000882319F0815080933C0580919A04811153
:1053400009C080913B0490913C0490936205809346
:10535000610516C080915F0590916005019690935C
:10536000600580935F058091390490913A0401961D
:1053700090933A0480933904109298040E94F60B9B
:1053800080919B0490919C04019690939C0480933F
:105390009B0480913105813051F4809198048823D9
:1053A00031F060E08EEC0E946D0310923105809127
:1053B0003105882319F081508093310580913005A3
:1053C000882319F081508093300581E00E941F0EE0
:1053D0000E94840D0C947C168AE791E00C941B1DAE
:1053E0008BE10E947306882311F40C94531F0E94D2
:1053F000551540905705509058056090590570908C
:105400005A0558EE450E53E0551E611C711C64157B
:10541000750586059705D8F480915605F801823008
:1054200059F42EE1B29EE019F1091124EC19FD099D
:10543000E45CFD4F89EC0AC03EE1B39EE00DF11D36
:105440001124EC19FD09E45CFD4F8FEC80830E9470
:10545000551500914E0510914F0520915005309142
:10546000510508511C4F2F4F3F4F6017710782079E
:10547000930710F00C94531F80914D059701245C05
:105480003D4FF901823039F44EE1B49EE019F10943
:10549000112489EC06C05EE1B59EE00DF11D1124DA
:1054A0008FEC80830C94531F23E044E06FEE76E092
:1054B000C8010E94180789EA8093F3061092F40647
:1054C00060916804709169047170615071098EEE89
:1054D00096E00E94B2070C94B41FC0903004D090A4
:1054E0003104E0903204F0903304F0C98C599F4F9E
:1054F000AF4FBF4F8C159D05AE05BF0510F46C0175
:105500007D01C0921C04D0921D04E0921E04F09212
:105510001F04EAC9109118051123A9F0C701B601AB
:1055200024E630E040E050E00E94D32E812F90E04E
:10553000A0E0B0E0281739074A075B0720F0809108
:105540002C058111D6C94AE06FEE76E0C6010E94B3
:105550005E2EE091F704F0E0EA5CFE4F82818093DA
:10556000EE06609142047091430471708EEE96E0F5
:105570000E94B207BEC90E949C2C2DED3FE347EB71
:105580005CE3F5C98017910708F005CA1093210460
:105590000093200400CA80911A05882341F090E00E
:1055A0008017910720F480912C058111F9C9EF2D06
:1055B000F0E0EC5CFE4F80818093EE064AE06FEEF7
:1055C00076E0C8010E945E2E60914404709145040B
:1055D00071708EEE96E00E94B207E2C962E26BAB98
:1055E00084EF91E083CB73E27BAB84EC99E07ECBDC
:1055F000ECE5F1E01382128288EE93E0A0E0B0E0E7
:1056000084839583A683B78387E491E09183808325
:1056100085EC90E09587848784EC90E09787868777
:1056200080EC90E0918B808B81EC90E0938B828B6F
:1056300082EC90E0958B848B86EC90E0978B868B48
:10564000118E128E138E148E0895DB018F939F930B
:105650000E94C82EBF91AF91A29F800D911DA39F64
:10566000900DB29F900D1124089587FB082E0626F9
:1056700087FD819567FD61950E94712B0EF49195D0
:1056800007FC81950895AA1BBB1B51E107C0AA1F07
:10569000BB1FA617B70710F0A61BB70B881F991FD3
:1056A0005A95A9F780959095BC01CD01089597FB77
:1056B000072E16F4009407D077FD09D00E94432BE3
:1056C00007FC05D03EF4909581959F4F0895709505
:1056D00061957F4F0895EE0FFF1F0590F491E02D27
:1056E0000994991B79E004C0991F961708F0961B3E
:1056F000881F7A95C9F7809508955058BB27AA2727
:105700000E94952B0C943F2D0E94062D38F00E948C
:105710000D2D20F039F49F3F19F426F40C94032D3D
:105720000EF4E095E7FB0C94FD2CE92F0E94642D0C
:1057300058F3BA17620773078407950720F079F4C6
:10574000A6F50C94862D0EF4E0950B2EBA2FA02D05
:105750000B01B90190010C01CA01A0011124FF271E
:10576000591B99F0593F50F4503E68F11A16F04019
:10577000A22F232F342F4427585FF3CF4695379518
:105780002795A795F0405395C9F77EF41F16BA0BDD
:10579000620B730B840BBAF09150A1F0FF0FBB1F8B
:1057A000661F771F881FC2F70EC0BA0F621F731FD4
:1057B000841F48F4879577956795B795F7959E3F31
:1057C00008F0B0CF9395880F08F09927EE0F9795C2
:1057D000879508950E94D92C08F481E008950E94CD
:1057E000162DE3950C94502D0E94082C0C943F2DFF
:1057F0000E940D2D58F00E94062D40F029F45F3FC5
:1058000029F00C94FD2C51110C94872D0C94032D30
:105810000E94642D68F39923B1F3552391F3951BEE
:10582000550BBB27AA2762177307840738F09F5FC1
:105830005F4F220F331F441FAA1FA9F335D00E2E2E
:105840003AF0E0E832D091505040E695001CCAF79B
:105850002BD0FE2F29D0660F771F881FBB1F26175E
:1058600037074807AB07B0E809F0BB0B802DBF0135
:10587000FF2793585F4F3AF09E3F510578F00C9404
:10588000FD2C0C94872D5F3FE4F3983ED4F386956E
:1058900077956795B795F7959F5FC9F7880F911D25
:1058A0009695879597F90895E1E0660F771F881F11
:1058B000BB1F621773078407BA0720F0621B730BC4
:1058C000840BBA0BEE1F88F7E09508950E946D2CAB
:1058D0006894B1110C94872D08950E946C2D88F066
:1058E0009F5798F0B92F9927B751B0F0E1F0660FA4
:1058F000771F881F991F1AF0BA95C9F714C0B130E5
:1059000091F00E94862DB1E008950C94862D672FAA
:10591000782F8827B85F39F0B93FCCF38695779513
:105920006795B395D9F73EF49095809570956195FC
:105930007F4F8F4F9F4F0895E89409C097FB3EF427
:1059400090958095709561957F4F8F4F9F4F9923CC
:10595000A9F0F92F96E9BB279395F695879577954A
:105960006795B795F111F8CFFAF4BB0F11F460FF0A
:105970001BC06F5F7F4F8F4F9F4F16C0882311F062
:1059800096E911C0772321F09EE8872F762F05C076
:10599000662371F096E8862F70E060E02AF09A9511
:1059A000660F771F881FDAF7880F9695879597F906
:1059B0000895990F0008550FAA0BE0E8FEEF1616A0
:1059C0001706E807F907C0F012161306E407F507F3
:1059D00098F0621B730B840B950B39F40A2661F067
:1059E000232B242B252B21F408950A2609F4A1400A
:1059F000A6958FEF811D811D089597F99F6780E817
:105A000070E060E008959FEF80EC089500240A9410
:105A10001616170618060906089500240A94121689
:105A200013061406050608950C94032D0E946C2D90
:105A3000D8F3E894E0E0BB279F57F0F02AED3FE071
:105A400049EC06C0EE0FBB0F661F771F881F28F0BA
:105A5000B23A62077307840728F0B25A620B730BDD
:105A6000840BE3959A9572F7803830F49A95BB0FC2
:105A7000661F771F881FD2F790480C94092E092EB5
:105A80000394000C11F4882352F0BB0F40F4BF2B99
:105A900011F460FF04C06F5F7F4F8F4F9F4F0895D9
:105AA000EF93E0FF07C0A2EA2AED3FE049EC5FEB8D
:105AB0000E94952B0E943F2D0F90039401FC90585B
:105AC000EEECF0E00C94152E57FD9058440F551F46
:105AD00059F05F3F71F04795880F97FB991F61F070
