:100000000C9490030C9472080C94B8030C94B803ED
:100010000C94C9080C94B8030C94B8030C94B8035E
:100020000C94B8030C94B8030C94B8030C94B80364
:100030000C94B8030C94B8030C94B8030C94B80354
:100040000C9496160C94B8030C949D0E0C94770E99
:100050000C94B8030C94B8030C94B8030C94B80334
:100060000C94B8030C94B803920498049E04A4045E
:10007000AA04B004B604BC04D604DE04E604EE040C
:10008000F604FE040605BD05C505CD05D505DD054F
:10009000E505ED05F50552065A0662066A06720682
:1000A0007A06820648144E1454145A141815601413
:1000B0001815181566141815711486149B14181544
:1000C00018151815B01418151815C5141815EF14AF
:1000D000181518151815181518151815DA1404150B
:1000E00005A84CCDB2D44EB93836A9020C50B991FE
:1000F0008688083CA6AAAA2ABE000000803F4E4F70
:10010000542044455445435445442D50414C004EE1
:100110004F542044455445435445442D4E54534375
:10012000004155544F2D50414C004155544F2D4ED8
:100130005453430053493A0049443A0020202020B8
:100140002B50495443482046554C4C002020202039
:100150002B594157205249474854004D454E553A76
:1001600054485254204D4944444C4500004D572DAD
:100170004F5344202D2052312E37004C4F4F5054B6
:10018000494D450050494420434F4E54524F4C4C2A
:1001900045520050524F46494C4500544558542052
:1001A000414C41524D5300414D5053004D41482068
:1001B000583130300054494D455200535045454464
:1001C00000414C544954554445205831300044496D
:1001D0005354414E43452058313030005448524F1B
:1001E00054544C452050574D004F534420545820F0
:1001F0004348004D41472043414C00444542554748
:1002000000562052454600554E495453004D41502A
:10021000204D4F44450047494D42414C0053454E07
:10022000534F52530047505320434F4F52445300B3
:100230005448524F54544C45005343524F4C4C4930
:100240004E472042415253005349444520424152B7
:100250005300484F52495A4F4E0041444A55535457
:10026000205A45524F0041444A55535420414D5065
:100270005300555345205649525455414C2053453F
:100280004E534F5200444953504C4159204D414820
:1002900000444953504C415920414D50530053455F
:1002A000542052535349204D494E00534554205237
:1002B000535349204D4158005553452050574D0048
:1002C000534554205253534900444953504C4159CB
:1002D0002052535349005553452046430043454C53
:1002E0004C5300444953504C4159205649442056E0
:1002F0004F4C5453004D41494E20564F4C545320BF
:10030000414C41524D0041444A55535420564F4CA4
:10031000545300444953504C4159204D41494E20BB
:10032000564F4C5453005448524F54544C4520455A
:1003300058504F005448524F54544C45204D494456
:1003400000545041005941572052415445005049F2
:10035000544348205241544500524F4C4C20524186
:100360005445005243204558504F005243205241BB
:10037000544500594157205243204558504F00548E
:10038000504120425245414B504F494E54004D413F
:1003900047004C4556454C0047505300414C5400D3
:1003A00059415700504954434800524F4C4C004D5E
:1003B000415820414D5053004D414820555345442C
:1003C000004D4158205350454544004D415820416F
:1003D0004C544954554445004D41582044495354C8
:1003E000414E434500544F542044495354414E43D9
:1003F0004500464C592054494D4500414456414E14
:1004000043452054554E494E4700414C41524D53AF
:1004100000414456414E43454400444953504C41E9
:10042000590043555252454E5400525353490056B9
:100430004F4C544147450052432054554E494E4776
:1004400020320052432054554E494E4700504944F3
:1004500020434F4E46494700535441544953544951
:100460004353004445425547004C4F5720564F4C8C
:100470005453004C4F57205341545300204E4F20AB
:10048000475053004E4F2044415441002041524DAB
:1004900045440044495341524D454400204D495381
:1004A00053494F4E004155544F20484F4C44004152
:1004B00055544F2052544800002A0121010F01FEDB
:1004C000006D016C015B014C013C016C0138013491
:1004D00001930184017B01CE01C101BB01B501ACD7
:1004E00001A7019B01312E315600355600494D5070
:1004F000004D45540007020102FB01F301E901DC54
:1005000001520248023902300225021D0216020D74
:100510000291028502720266025A02C902C002D624
:1005200002B802AB029E0213030603F502E30206C1
:1005300003DD02D6026B03630359034E03450341F7
:1005400003340326037F037303AA03A403A0039CBD
:1005500003980392038E03F203E503D803CB03C190
:1005600003B803AF033C504147453E005341564555
:100570002B4558495400455849540058044D0443EC
:100580000437042F042A0422041A0411040A04FB69
:1005900003B80493048C0484047C04730469046326
:1005A000041D1A1D1C1D191D1C1D1B1D1C1D181DA5
:1005B0001C1D1A1D1C1D191D1C1D1B1DB804AF047C
:1005C000A5049C044F4E004F46460020007BC12AE4
:1005D000002100900054002400720027003500CB59
:1005E0000060017EC17EC137C110011D0102000FF4
:1005F000004C01F2006BC12FC175017F01C200BB2D
:1006000000BB00030007007A00550106015C0034BE
:1006100000C50064005701BA001801DCC020C034D6
:10062000C036C0B7C090C054C024C072C028C0CB70
:10063000C0CAC060C17EC17EC137C110011D0102A8
:10064000C00FC04DC1F3C06BC12FC171C178C1C211
:10065000C0BBC0BBC0030007007AC055C106C15C67
:10066000C03400C30064C05301BA0018C1DCC0002C
:10067000000000960000000004F40158020D000084
:100680003C000000018A04C800000000000100C80E
:1006900000326401010100000001000000010100BE
:1006A0000001000001000000000001010101010043
:1006B00001010004000000050001000000001E4DC3
:1006C000574F53440020202020C705C405000000D8
:1006D00000240027002A0000000000250028002B2D
:1006E00000040404040404040402020202020203DB
:1006F00003030303030102040810204080010204E5
:100700000810200102040810200000000800020167
:1007100000000304070000000000000000001F2D7F
:1007200011241FBECFEFD8E0DEBFCDBF27E0ACE580
:10073000B1E001C01D92A231B207E1F711E0A0E0E3
:10074000B1E0EAE5F2E602C005900D92AC35B107E2
:10075000D9F713E0C0E9D3E004C02197FE010E945D
:10076000922DCF38D107C9F70E94E0160C942B3197
:100770000C940000609195058CE591E00C94020EBC
:10078000CF93C82F682F8CE591E00E94020E8091D4
:100790009505C827C0939505CF910895CF93DF9312
:1007A0001F92CDB7DEB799830E94C0039981892F2C
:1007B0000F90DF91CF910C94C003CF93DF93D82F8C
:1007C000C62F64E28CE591E00E94020E6DE48CE598
:1007D00091E00E94020E6CE38CE591E00E94020E13
:1007E000109295058C2F0E94C0038D2F0E94C0038C
:1007F000C11104C0DF91CF910C94BA03DF91CF9166
:100800000895DF92EF92FF920F931F93CF93DF93A0
:10081000809109018A30C9F4909108019330A9F4BC
:100820009091960592301CF091E0909396059091EE
:1008300096059F3F1CF49FEF9093960520910A0127
:1008400090919605920F90930A0190910A0197FF5B
:1008500003C09AE090930A0190910A019B3014F032
:1008600010920A0120910A01213019F5EFEFE80FEB
:10087000E73008F04FC2863010F0E1E0E80F9091C9
:100880000801923049F0933059F0913009F042C29A
:10089000F0E0E45DFD4F07C0F0E0EE5DFD4F03C00A
:1008A000F0E0E85EFD4F308190919605930F9083C4
:1008B00031C2233009F590910801933009F02AC222
:1008C000813059F0823009F025C290911502809153
:1008D0009605890F80931502B1C2209196058091EB
:1008E000160290911702820F911D27FD9A95909301
:1008F000170280931602A2C2223009F043C09091E1
:100900000801933009F006C2482F50E0FA013197F0
:10091000E830F10508F0FEC1EC5CFF4F90919605C0
:100920000C94922D30911402930F90931402F2C103
:1009300030911302930F90931302ECC13091120285
:10094000930F90931202E6C130911102930F90938E
:100950001102E0C130911002930F90931002DAC19E
:1009600030910F02930F90930F02D4C130910E0279
:10097000930F90930E02CEC130910D02930F90937E
:100980000D02C8C1243009F049C09091080193308C
:1009900009F0C0C1482F50E0FA013197E730F10566
:1009A00008F0B8C1E45CFF4F0C94922D91E03091B7
:1009B000F004311190E09093F004ACC130919605B1
:1009C0009091F304930F9093F304A4C13091960592
:1009D0009091F104930F9093F1049CC191E03091B8
:1009E000FA04311190E09093FA0494C13091960585
:1009F0009091FB04930F9093FB048CC1309196056A
:100A00009091F204930F9093F20484C191E030919D
:100A1000F404311190E09093F4047CC1253009F086
:100A20004DC090910801933009F074C1833039F1C1
:100A300048F48130E1F0823009F06CC18FE080939E
:100A40003F05FCC1853059F110F1863009F062C1D3
:100A5000209196058091050290910602820F911DCA
:100A600027FD9A959093060280930502E7C181E0E5
:100A70009091ED04911180E08093ED04DFC181E05D
:100A80009091EE04911180E08093EE04D7C191E043
:100A90003091EF04311190E09093EF043BC120912D
:100AA00096058091070290910802820F911D27FD03
:100AB0009A959093080280930702C0C1263009F0EE
:100AC00048C090910801933009F024C1833051F15E
:100AD00028F48130B9F08230E9F01CC1843051F142
:100AE000853009F017C120919605809101029091FF
:100AF0000202820F911D27FD9A9590930202809326
:100B000001029CC181E09091F504911180E08093F5
:100B1000F50494C181E09091F704911180E08093F5
:100B2000F7048CC181E09091F804911180E08093EA
:100B3000F80484C1209196058091030290910402EB
:100B4000820F911D27FD9A959093040280930302D2
:100B500075C1273009F051C090910801933009F018
:100B6000D9C0482F50E0FA013197E830F10508F07C
:100B7000D1C0ED5BFF4F0C94922D91E030910905AF
:100B8000311190E090930905C5C091E030910A05BC
:100B9000311190E090930A05BDC091E030911605A7
:100BA000311190E090931605B5C091E030910805A1
:100BB000311190E090930805ADC091E030910005AF
:100BC000311190E090930005A5C091E030911D0592
:100BD000311190E090931D059DC091E03091170573
:100BE000311190E09093170595C030919605909142
:100BF0000D05930F90930D058DC0283009F03FC06F
:100C000090910801933009F085C08330E1F028F419
:100C1000813049F0823079F07DC0853001F1D8F023
:100C2000863029F177C081E090910605911180E02E
:100C30008093060503C181E090910E05911180E03B
:100C400080930E05FBC081E090911505911180E025
:100C500080931505F3C09AE0909340055BC0909196
:100C6000960580912305890F80932305E7C081E0D5
:100C70009091FC04911180E08093FC04DFC0293046
:100C800009F048C090910801933009F043C0482F03
:100C900050E0FA013197E730F105E0F5E55BFF4FF1
:100CA0000C94922D9091960580912705890F809341
:100CB0002705C4C09091960580912805890F8093DF
:100CC0002805BCC09091960580912905890F8093D5
:100CD0002905B4C09091960580912A05890F8093CB
:100CE0002A05ACC0909196058091FD04890F8093F0
:100CF000FD04A4C0909196058091FE04890F809315
:100D0000FE049CC081E09091F904911180E08093F1
:100D1000F90494C08A3009F091C020932F0180918A
:100D20000801813009F481C0823009F087C08091C8
:100D3000FE01809397066EE18AEC0E94DD0382E259
:100D4000E82E82E0F82E08E112E0CCE2D2E0DC2EC0
:100D50008AE0D80E89910E94C003F70181917F013A
:100D60000E94C003F80181918F010E94C003DC1230
:100D7000F1CF0E94BA036BE08CEC0E94DD038091FE
:100D800014020E94C003809113020E94C00380914C
:100D900012020E94C003809111020E94C003809140
:100DA00010020E94C00380910F020E94C003809134
:100DB0000E020E94C00380910D020E94C003809128
:100DC0001602909117020E94CE03809115020E9494
:100DD000C0030E94BA0309EE14E0C0E0D0E0F801BD
:100DE00061918F01CE010E94CF0E2196CC34D105A6
:100DF000B1F70FEF11E0F8016081CE010E94CF0E34
:100E0000F80161810E5F1F4FCE0101960E94CF0E47
:100E10002296CA35D10579F76DE080E090E00E9416
:100E2000CF0E60E08AEF0E94DD03DF91CF911F912A
:100E30000F91FF90EF90DF900C94D30EDF91CF9144
:100E40001F910F91FF90EF90DF900895E0910006C1
:100E500081E08E0F80930006F0E0EF5FF94F808114
:100E60000895CF93DF930E942607C82FD0E00E94F9
:100E700026079E01382BC901DF91CF910895CF92AB
:100E8000DF92EF92FF920E9431076C01E12CF12C6E
:100E90000E943107A0E0B0E0DC0199278827BC015F
:100EA000CD016C297D298E299F29FF90EF90DF903D
:100EB000CF900895E82FF0E0EE0FFF1FE35BFB4FAC
:100EC000208131812227307C81E02115304C09F0CE
:100ED00080E008953F924F925F926F927F928F923F
:100EE0009F92AF92BF92CF92DF92EF92FF920F93B9
:100EF0001F93CF93DF938A01D22F222311F0C8E0F2
:100F000001C0C5E0F801EC0FF11D1082DC2ECD2EE2
:100F10003AE0432E512C612C712C46E0842E912C0A
:100F2000A12CB12C5AE3352E2FEF2D0D7801E20EB6
:100F3000F11C27FDFA94A30192010E94FA3080E38C
:100F4000860FF70180838EEF8D0D7801E80EF11C7E
:100F500087FDFA94CA01B901A50194010E94FA30F3
:100F6000605DF7016083B901CA01FDEFDF0EF80192
:100F7000ED0DF11DD7FCFA953082CA942FEFC21205
:100F8000D3CF2D2F220FD20FCD1BC3502AE0822E9C
:100F9000912CA12CB12CC1507801EC0EF11CC7FD95
:100FA000FA94A50194010E94FA30605DF701608314
:100FB000B901CA01611571058105910511F0C111D1
:100FC000EACF80E2CC2341F0C150F801EC0FF11DD3
:100FD000C7FDFA958083F6CFC801DF91CF911F91AD
:100FE0000F91FF90EF90DF90CF90BF90AF909F90C8
:100FF0008F907F906F905F904F903F900895EF9209
:10100000FF920F931F93CF93DF93FB0197FF05C0D0
:10101000919581959109C1E001C0C0E0DF01A40F65
:10102000B11D1C92DEE20AE010E0421306C04150FE
:10103000DF01A40FB11DDC9320E03FEF340F7F01EF
:10104000E30EF11CB8010E947E2D805DD7018C93C8
:10105000CB01332379F0222311F0432FE6CF009701
:10106000E1F7CC2339F03EEF340FDF01A30FB11DC0
:101070008DE28C9380E2332331F03150DF01A30FF6
:10108000B11D8C93F8CFCF01DF91CF911F910F91BC
:10109000FF90EF900895CF92DF92EF92FF920E941F
:1010A0008A166B017C0128E2C20ED11CE11CF11CE6
:1010B00081E08093940580919405882371F00E94CB
:1010C0008A16C616D706E806F90618F41092940593
:1010D000F2CF80E00E94240FEECFFF90EF90DF90E0
:1010E000CF9008951F920F920FB60F921124109275
:1010F00094050F900FBE0F901F901895DB01A55B14
:10110000BD4FFC0124910196222311F02D93F9CFBC
:1011100008959C01E62FF0E0E751FB4FE081F0E0FD
:10112000EE0FFF1FE753F94F85919491B9010C948D
:101130007E08DC01FB01E55BFD4F9D91992311F0D9
:101140009193FBCF0895ABE2B5E0E5EFF6E02AE03E
:101150002E0F3D9131932E13FCCF1092FF06BC0150
:1011600085EF96E00C9499088EBD0DB407FEFDCF77
:101170008EB50895CF93DF931F92CDB7DEB7698305
:101180000E94B4086981862F0F90DF91CF910C9453
:10119000B4081F920F920FB60F9211242F933F9312
:1011A0004F935F936F937F938F939F93AF93BF936F
:1011B000CF93EF93FF93C6B178940E942B162091A2
:1011C000920530919305AB01421B530B9A01293BC9
:1011D0003B4018F021E020932E017093930560931B
:1011E0009205C3FD1AC02091900530919105621BB4
:1011F000730BCB018F5E92408B3D954020F4709332
:101200008F0560938E0580912E018F5F80932E0154
:1012100070938D0560938C0504C070939105609365
:101220009005FF91EF91CF91BF91AF919F918F91D9
:101230007F916F915F914F913F912F910F900FBED2
:101240000F901F9018954F925F926F927F928F929E
:101250009F92AF92BF92FF920F931F93CF93DF9312
:10126000CEE3D1E0ACE9B5E040E050E06AE089913E
:101270008E3008F08E5087702091000190E4299FF5
:1012800090011124822B80937C0080917A008064ED
:1012900080937A0080917A0086FDFCCF809178005F
:1012A0002091790090E0922BF0908B05411551052B
:1012B00041F42091F404222339F180919B0590E0C0
:1012C00023C0443009F52091EF042223A9F0809136
:1012D0008E0590918F0595958795009769F4649F89
:1012E000F001659FF00D1124EF0DF11DEE0FFF1FB2
:1012F000E456FA4F808191812091EE04222321F05F
:101300008091990590919A05649FF001659FF00D79
:101310001124EF0DF11DEE0FFF1FE456FA4F50960A
:101320002D913C91519700811181201B310B5196D9
:101330003C932E93509720813181820F931F969575
:1013400087959183808350962D913C915197820F80
:10135000931F51969C938E9350974F5F5F4F549677
:101360004530510509F083CF8091F4046091AC05BC
:101370007091AD05D0910E05811134C080E090E0F0
:10138000C091F304D11115C00E94C32E4B015C0122
:101390006C2F70E080E090E00E94C52E9B01AC01B4
:1013A000C501B4010E94B92F27E137EB41ED58E3A5
:1013B00014C00E94C32E4B015C016C2F70E080E0D2
:1013C00090E00E94C52E9B01AC01C501B4010E94B2
:1013D000B92F2FE632E143E05AE30E94B92F0E9471
:1013E000942E05C053E0759567955A95E1F7709373
:1013F0004202609341028091EB0480933A02609133
:10140000C0057091C10580E090E0C091FB04D1114E
:1014100015C00E94C32E4B015C016C2F70E080E070
:1014200090E00E94C52E9B01AC01C501B4010E9451
:10143000B92F27E137EB41ED58E314C00E94C32ECA
:101440004B015C016C2F70E080E090E00E94C52EA3
:101450009B01AC01C501B4010E94B92F2FE632E116
:1014600043E05AE30E94B92F0E94942E70933C02ED
:1014700060933B028091F6048111C4C08091F8040E
:10148000C0910102D0910202009103021091040266
:10149000811144C04E01A12CB12C2091D405309172
:1014A000D50543E0359527954A95E1F7C901330FF6
:1014B000AA0BBB0B9C01AD01281939094A095B092C
:1014C000D8010E94EF3000E014E020E030E0A901F4
:1014D0009801281939094A095B090E94D030CA01CC
:1014E000B9010E94C52E4B015C0120E030E0A9014A
:1014F0000E94112E87FD09C08092B5049092B60417
:10150000A092B704B092B80498C01092B50410929B
:10151000B6041092B7041092B8048FC080911301E2
:10152000909114016091040170910501861797074D
:1015300040F060910601709107018617970708F443
:10154000BC01CB01A0E0B0E0BC01CD01685E7340FE
:1015500081099109623F23E072078105910548F4F2
:101560002AE030E040E050E00E94FA3049015A01A0
:1015700005C094E6892E912CA12CB12CC501B40193
:101580000E94C32E2B013C01A5019401C501B401A9
:101590000E944C2D0E94C32E2AE037ED43EA5CE303
:1015A0000E94B92F9B01AC01C301B2010E94A52D7D
:1015B0004B015C01B80180E090E00E94C32E9B01CA
:1015C000AC01C501B4010E94B92F2AE037ED43E216
:1015D0005CE30E94B92F4B015C018091A904BE011C
:1015E000882359F080E090E00E94C32E9B01AC015B
:1015F000C501B4010E94A52D18C080E090E00E94B2
:10160000C32E13C0809197059091980597FF02C053
:10161000059701C005966AE070E00E947E2D072EB6
:10162000000C880B990B0E94C52E6093B504709333
:10163000B6048093B7049093B8048091ED04882396
:1016400009F44EC02091FC053091FD0583E03595ED
:1016500027958A95E1F78091A704882389F08091E6
:101660003F058F3029F4309308022093070208C009
:10167000813031F4309306022093050210923F0529
:101680008090050290900602A12CB12CC901330F65
:10169000AA0BBB0B9C01AD01281939094A095B094A
:1016A000A4E6B0E00E94EF302091070230910802DA
:1016B000890120E030E0A9019801281939094A0977
:1016C0005B090E94D0302536310514F024E630E065
:1016D00037FF02C020E030E03093A00420939F0445
:1016E00081E08F0D883018F480938B0502C0109232
:1016F0008B05DF91CF911F910F91FF90BF90AF901D
:101700009F908F907F906F905F904F900895CF92B1
:10171000DF92EF92FF920F931F93CF93DF9380E0BE
:1017200090E00E94D10E8D3009F457C0C0E0D0E0A7
:10173000FE01E358F94F6491CE010E94CF0E21962D
:10174000CC34D105A9F7FE01ED5DF94F0591149157
:10175000602FCE010E94CF0E612FCE0101960E9414
:10176000CF0E2296CA35D10571F78E010A5511099F
:10177000C801835E994F7C01FC01C590D4906C2D0B
:10178000CE010E94CF0E6D2DCE0101960E94CF0E8C
:10179000F801E553FA4F05911491602FCE018E5A4E
:1017A0009F4F0E94CF0E612FCE018D5A9F4F0E94F6
:1017B000CF0EF70105911491602FCE018C559F4FEC
:1017C0000E94CF0E612FCE018B559F4F0E94CF0EEE
:1017D0002296CE3FD10509F0C8CFDF91CF911F915E
:1017E0000F91FF90EF90DF90CF900895BF92CF922E
:1017F000DF92EF92FF920F931F93CF93DF93C090EE
:10180000E80422E5C29EC0011124B09007050DE452
:1018100014E07C013CEAE30EF11CFC01E65AFF4FA8
:101820006F01C6010E94D10EC82FD0E0F801D1830C
:10183000C083C60101960E94D10E282F30E0322FBE
:1018400022272C0F3D1FF80131832083BB2081F01C
:10185000C90191708739910558F0813F910518F4BD
:10186000225E3F4F03C0245C3F4FF8013183208349
:10187000F2E0CF0ED11C0E5F1F4FCE14DF0489F6AD
:10188000DF91CF911F910F91FF90EF90DF90CF905C
:10189000BF9008955E9A2A9864E670E080E090E038
:1018A0000E9450162A9A80E58CBD81E08DBD8DB5D1
:1018B0008EB56AE070E080E090E00E9450165E987D
:1018C00064E670E080E090E00E94501680EA0E949A
:1018D000B4088FEF0E94B4088370813029F480939C
:1018E0000705809338050CC0823029F41092070553
:1018F0001092380505C0909107059E5F90933805BA
:101900008093470480910705882341F080EE91E0A1
:101910009093FA018093F9016CE407C086E891E0A6
:101920009093FA018093F9016CE080E00E94BA087C
:101930005E9A9FB7F894E89A8091690082608093DC
:1019400069009FBF0C94F60BEF92FF920F931F93C9
:10195000CF93DF9309EE14E0C0E0D0E0CE010E9407
:10196000D10EF80181938F012196CC34D105B1F7C6
:101970003FEFE32E31E0F32ECE010E94D10E082F6F
:1019800010E0F70111830083CE0101960E94D10E71
:1019900090E0982F8827080F191FF70101931193E2
:1019A0007F012296CA35D10539F7DF91CF911F917A
:1019B0000F91FF90EF900C94F60B8091B404882364
:1019C00029F080E090E1A0E0B0E05AC08091A70447
:1019D000882329F08FE996E0ACE0B0E051C08AE0BE
:1019E00090E0A0E0B0E08093AC049093AD04A093AD
:1019F000AE04B093AF042091A50421FF0CC08AE18E
:101A000090E0A0E0B0E08093AC049093AD04A0938C
:101A1000AE04B093AF0480913505813089F0809198
:101A2000AC049091AD04A091AE04B091AF0481607C
:101A30008093AC049093AD04A093AE04B093AF0434
:101A400023FF11C08091AC049091AD04A091AE042D
:101A5000B091AF04806A8093AC049093AD04A093DE
:101A6000AE04B093AF048091B904811111C080918C
:101A7000AC049091AD04A091AE04B091AF04986015
:101A80008093AC049093AD04A093AE04B093AF04E4
:101A90008091F404811104C08091EE04882389F0C0
:101AA0008091AC049091AD04A091AE04B091AF04CC
:101AB00091608093AC049093AD04A093AE04B09376
:101AC000AF044091B0045091B1046091B2047091A0
:101AD000B3048091AC049091AD04A091AE04B09198
:101AE000AF0484239523A623B7238093B004909357
:101AF000B104A093B204B093B3040895CF92DF92DF
:101B0000EF92FF920F931F93CF93DF936C017A01B3
:101B10008B01C0E0D0E0CE15DF0589F0D8016D91D2
:101B20008D01D601ED91FC910190F081E02DC6016F
:101B30000995892B11F47E0102C02196ECCFC701D3
:101B4000DF91CF911F910F91FF90EF90DF90CF9099
:101B50000895FC01918D828D981761F0828DDF01CF
:101B6000A80FB11D5D968C91928D9F5F9F73928F90
:101B700090E008958FEF9FEF0895FC01918D828D85
:101B8000981731F0828DE80FF11D858D90E0089552
:101B90008FEF9FEF0895FC01918D228D892F90E0AA
:101BA000805C9F4F821B91098F73992708958CE564
:101BB00091E00E94CB0D21E0892B09F420E0822FD7
:101BC0000895FC01848DDF01A80FB11DA35ABF4FFA
:101BD0002C91848D90E001968F739927848FA6892C
:101BE000B7892C93A089B1898C9180648C93938D53
:101BF000848D981306C00288F389E02D80818F7D43
:101C000080830895EF92FF920F931F93CF93DF93FA
:101C1000EC0181E0888F9B8D8C8D981305C0E8893D
:101C2000F989808185FD24C0F62E0B8D10E00F5FB1
:101C30001F4F0F731127E02E8C8DE8120CC00FB6CA
:101C400007FCFACFE889F989808185FFF5CFCE01BD
:101C50000E94E10DF1CF8B8DFE01E80FF11DE35ADB
:101C6000FF4FF0820B8FEA89FB898081806207C079
:101C7000EE89FF896083E889F989808180648083A7
:101C800081E090E0DF91CF911F910F91FF90EF9055
:101C90000895CF93DF93EC01888D8823C9F0EA89FA
:101CA000FB89808185FD05C0A889B9898C9186FD55
:101CB0000FC00FB607FCF5CF808185FFF2CFA88952
:101CC000B9898C9185FFEDCFCE010E94E10DE7CF60
:101CD000DF91CF91089580E090E0892B29F00E9458
:101CE000D70D81110C94000008950E9477301F9247
:101CF0000F920FB60F9211242F933F934F935F9340
:101D00006F937F938F939F93AF93BF93EF93FF93C3
:101D10008CE591E00E94E10DFF91EF91BF91AF91B1
:101D20009F918F917F916F915F914F913F912F91F3
:101D30000F900FBE0F901F9018951F920F920FB625
:101D40000F9211242F938F939F93EF93FF93E09122
:101D50006C01F0916D018081E0917201F09173014D
:101D600082FD12C09081809175018F5F8F732091E9
:101D70007601821751F0E0917501F0E0E45AFE4FD0
:101D8000958F8093750101C08081FF91EF919F91A4
:101D90008F912F910F900FBE0F901F9018950C945C
:101DA000C2300C94BA3081E080930A018AE08093BB
:101DB000090183E0809308011092A7041092A804FF
:101DC00080910C05882301F110923602109237029F
:101DD000109238021092390210922B0410922C04A7
:101DE00010922D0410922E0410924402109243027D
:101DF0001092300410922F0410923E0210923D0275
:101E00001092490410924804809197069091FE0127
:101E10009817C1F08093FE0161E082ED0E94DD031E
:101E20008091FE010E94C0030E94BA0360E08AEF25
:101E30000E94DD030E94DD0C64E670E080E090E02B
:101E40000E9450160C94DD0C2F923F924F925F929D
:101E50006F927F928F929F92AF92BF92CF92DF92BA
:101E6000EF92FF920F931F93CF93DF931F92CDB703
:101E7000DEB7382E8CE591E00E94CB0D21E0892B56
:101E800009F420E08CE292E03AE0380F39837CE2FA
:101E9000872E99249394A12CB12CE8EE4E2EE3E0EA
:101EA0005E2E612C712C8FEA96E0F6E32F2E280E21
:101EB000213009F0E1C58CE591E00E94A90D209147
:101EC0005105309152052F5F3F4F309352052093BB
:101ED00051052091F3063091F4062115310559F48E
:101EE00021E030E0843211F020E030E03093F4065D
:101EF0002093F306ACC52130310529F48D3441F42B
:101F000082E090E00AC02230310561F48E3319F08E
:101F100080E090E002C083E090E09093F40680932C
:101F2000F30695C52330310591F4873928F01092D6
:101F3000F4061092F3068BC58093F20624E030E09D
:101F40003093F4062093F3068093F10680C5243085
:101F5000310581F425E030E03093F4062093F30658
:101F60008093F0069091F10689278093F1061092F4
:101F7000EF066DC52530310509F069C59091F10670
:101F800098279093F1061091EF062091F206121314
:101F900055C59111CCCF80914F0590915005019678
:101FA0009093500580934F051092000683E0809334
:101FB00049058091F0068C3D09F06DC10E9426070D
:101FC000893009F04BC082E080934B050E942607C0
:101FD000182F0E942607212F30E0280F311D309343
:101FE000EE062093ED060E9426078093EC0681E022
:101FF0008093EB060E948A16DC01CB018854944F33
:10200000AF4FBF4F8093E7069093E806A093E90691
:10201000B093EA066FE18CED0E94DD0389E00E9437
:10202000C0031AE0E090ED06F090EE06C7010E94B2
:10203000D10E082F8093EC06C7010E94CE03802F9B
:102040000E94C0038091ED069091EE060196909358
:10205000EE068093ED06115029F799C0883009F0FB
:1020600056C082E080934B050AE011E00E942607EB
:10207000F82E0E94260790E0982F88276C01CF0C3D
:10208000D11CD092EE06C092ED060E942607F82ED3
:102090008093EC061093EB060E948A16DC01CB01BC
:1020A0008854944FAF4FBF4F8093E7069093E80654
:1020B000A093E906B093EA066F2DC6010E94CF0EE9
:1020C0006DE080E090E00E94CF0EE090ED06F09091
:1020D000EE0689E5E816F10429F09FE4E91691E09F
:1020E000F90611F40E94A40C015009F0BFCFEFEFE4
:1020F000EE1AFE0AF092EE06E092ED0663E08CED39
:102100000E94DD0389E00E94C003C7013EC0873002
:1021100009F040C083E080934C056BE08CED0E9499
:10212000DD0387E00E94C0030CE915E0F801808917
:10213000918953E0969587955A95E1F70E94CE03D1
:102140000C5E1F4FF6E000301F0781F70E94BA03B4
:102150006DE08CED0E94DD038AE00E94C0038CE0FC
:1021600090E00E94CE0381E090E00E94CE0385EAD9
:1021700096E00E94CE0380E090E00E94CE0380E0D3
:1021800090E00E94CE0381E090E00E94CE030E9486
:10219000BA0381C0833009F068C01530D9F40E94B9
:1021A000310780329D4109F076C00E942607809356
:1021B000E6060E9426078093E5068091A904811116
:1021C0006AC08091A704811166C08091B404811116
:1021D00062C046C4183309F05EC04FEAE42E46E000
:1021E000F42E87010E942607F80181938F012E1299
:1021F000F9CF0E942607082F5E98609107056111AC
:1022000060E480E00E94BA08602F89E00E94BA086A
:1022100010E0612F8AE00E94BA08F70161917F0106
:102220008BE00E94BA081F5F163399F760EA88E0D6
:102230000E94BA0880EA0E94B40885FDFBCF809115
:102240000705811102C06CE001C06CE480E00E94CF
:10225000BA085E9A64E170E080E090E00E94501657
:102260000F3FC9F40E944A0C16C0863079F400E092
:1022700010E060E0C8010E94CF0E0F5F1F4F0115F4
:10228000F2E01F07B1F70E94870B02C0853019F4F6
:1022900081E0809337058091F006843641F481E037
:1022A000809335050E9426078093AE0684C185364B
:1022B000E9F50E9431079093AD068093AC060E9429
:1022C00031079093AB068093AA060E943107909342
:1022D000A6048093A5040E943F076093E4047093D2
:1022E000E5048093E6049093E7042091B904022F5B
:1022F00010E020E030E0DC01CB0180239123A22319
:10230000B32321E0892B8A2B8B2B09F420E0209327
:10231000A9040E9426078093FE019091A7049111C1
:102320004AC1809397068093A90645C1893609F072
:1023300042C10DE011E00E943107F80181939193B1
:102340008F01F1E00D311F07B1F780910F019091DE
:102350001001855195408F389140E8F480910D012E
:1023600090910E01855195408F389140A0F4809155
:10237000110190911201855195408F38914058F488
:102380001092A10640929D0650929E0660929F0672
:102390007092A0062BC08091A106813039F50E9471
:1023A0008A160091990610919A0620919B06309109
:1023B0009C06DC01CB01801B910BA20BB30B00919F
:1023C0009D0610919E0620919F063091A006081749
:1023D00019072A073B0710F41092A10680929D0668
:1023E00090929E06A0929F06B092A0068091A106B0
:1023F0008111E1C020910F01309110018091A7045B
:102400002B33374040F120911101309112012B33D1
:10241000374008F120911301309114012F373440D7
:10242000D0F08111BAC08091AA049091AB040697B4
:1024300008F4B3C08091A9048111AFC082E08093F9
:10244000A10681E08093A70480912F0180930A0167
:102450000E94DD0CA2C0882309F49FC0109196054C
:10246000109296059091A804992361F02091130190
:10247000309114012531354028F092E09093A10667
:102480000E94D30E9091A704992309F451C0209182
:102490000D0130910E012B3387E0380778F081E091
:1024A0008093A106809108018F5F8093080184309A
:1024B00008F473C083E0809308016FC02E37344066
:1024C00068F491E09093A106809108018150809377
:1024D0000801811162C0909308015FC020910F0133
:1024E000309110012B33F7E03F07A0F091E090937B
:1024F000A10680910901815080930901811102C0D8
:102500009093090180910A01811147C08AE080936C
:10251000090143C02E37344058F481E08093A1066E
:10252000809109018F5F809309018B3078F735C066
:102530002091A804211131C0992379F1812F1630FF
:102540000CF085E08B3F0CF48BEF20911101309162
:1025500012012E3794E0390738F491E09093A106E8
:1025600081508093960517C02B333740B0F091E02F
:102570009093A1068F5F8093960580910A01893020
:1025800051F480910801833031F480910901853044
:1025900011F4109240050E9401048091A10681303F
:1025A00051F40E948A166093990670939A0680935C
:1025B0009B0690939C068091F0068A3609F056C0DF
:1025C00085E080934A050E942607882319F081E060
:1025D000809345040E94260780934C040E943F0785
:1025E00060933B0470933C0480933D0490933E04BD
:1025F0000E943F0760933704709338048093390436
:1026000090933A040E943107A0E0B0E02091A90421
:1026100021110BC08093A5069093A606A093A70650
:10262000B093A80621E02093A4064091A5065091FE
:10263000A6066091A7067091A806841B950BA60BB1
:10264000B70B8093330490933404A0933504B09374
:1026500036040E94310790933204809331040E9423
:1026600031079093A3068093A20661CC8B3699F430
:102670000E943107A0E0B0E080933F0490934004B3
:10268000A0934104B09342040E9431079093440404
:10269000809343044CCC893759F40E9426070E944A
:1026A00026070E9426070E942607809346043FCCF7
:1026B0008C36A9F40E9431079093A2048093A10460
:1026C0000E9431079093A4048093A3040E943107D1
:1026D000843B91050CF4CBC188569140C8C18D361E
:1026E00089F40E943F0760934502709346028093ED
:1026F0004702909348020E94310790934A028093C8
:10270000490215CC8E36B9F40E94260780939B05AA
:102710000E9431079093400280933F020E9431074C
:1027200090939A05809399050E943107909398059C
:1027300080939705FCCB8F36A1F50E9426078093E6
:1027400014020E942607809313020E94260780939A
:1027500012020E942607809311020E94260780938E
:1027600010020E94260780930F020E942607809382
:102770000E020E94260780930D020E94310790935B
:102780001702809316020E942607809315028091FB
:10279000AC049091AD04A091AE04B091AF049D7FC4
:1027A00037C0803731F522E2E22E22E0F22E08E136
:1027B00012E03CE2C32E32E0D32E0E942607F6013F
:1027C00081936F010E942607F70181937F010E9488
:1027D0002607F80181938F0129812C11EECF80917A
:1027E000AC049091AD04A091AE04B091AF049B7F76
:1027F0000FC08B33B1F40E9426078093FD018091B6
:10280000AC049091AD04A091AE04B091AF04AB7F45
:102810008093AC049093AD04A093AE04B093AF0446
:1028200086CB893481F40E9431079093FC01809318
:10283000FB018091AC049091AD04A091AE04B091E5
:10284000AF04A77FE5CF873709F071CB81E0809394
:1028500036051091F2068BE2E9EBF4E011928A95CD
:10286000E9F7C12CD12C7601C394112309F45FCB75
:102870000E942607082E000C990BAA0BBB0B8E3169
:10288000910508F0D5C0FC01EE5AFF4F0C94922D33
:102890008091B9048C298093B904CAC08091BA048C
:1028A0008C298093BA04C4C08091BB048C29809386
:1028B000BB04BEC08091BC048C298093BC04B8C00A
:1028C0008091BD048C298093BD04B2C08091BE0468
:1028D0009091BF048C299D299093BF048093BE04DE
:1028E000A7C08091C0049091C104A091C204B0918E
:1028F000C3048C299D29AE29BF298093C0049093DD
:10290000C104A093C204B093C30492C08091C404D4
:102910009091C504A091C604B091C7048C299D294B
:10292000AE29BF298093C4049093C504A093C60424
:10293000B093C7047DC08091C8049091C904A09150
:10294000CA04B091CB048C299D29AE29BF2980935C
:10295000C8049093C904A093CA04B093CB0468C080
:102960008091D8049091D904A091DA04B091DB044D
:102970008C299D29AE29BF298093D8049093D9042E
:10298000A093DA04B093DB0453C08091D4049091F7
:10299000D504A091D604B091D7048C299D29AE29E5
:1029A000BF298093D4049093D504A093D604B09308
:1029B000D7043EC08091DC049091DD04A091DE0438
:1029C000B091DF048C299D29AE29BF298093DC04B6
:1029D0009093DD04A093DE04B093DF0429C08091BE
:1029E000E0049091E104A091E204B091E3048C2909
:1029F0009D29AE29BF298093E0049093E104A09320
:102A0000E204B093E30414C08091CC049091CD040F
:102A1000A091CE04B091CF048C299D29AE29BF2965
:102A20008093CC049093CD04A093CE04B093CF04B4
:102A3000CC0CDD1CEE1CFF1C115017CF91E0910F48
:102A40009093EF06E12FF0E0EF5FF94F80838CE584
:102A500091E00E94CB0D892B79F031102CCA0CC06B
:102A600080E88093980681E08093B40414CC90931E
:102A70004B0480934A045BCA0F90DF91CF911F9162
:102A80000F91FF90EF90DF90CF90BF90AF909F900D
:102A90008F907F906F905F904F903F902F90089510
:102AA000CF92DF92EF92FF920F931F93CF93DF931A
:102AB000C42F97FF08C090958095709561957F4FC2
:102AC0008F4F9F4FC22F24E630E040E050E00E943D
:102AD000D030CA01B90110920007C093FF06C9E0C7
:102AE0002AE0C22ED12CE12CF12CDEE2C43019F404
:102AF000D093F906C3E0C1500C2F10E00A50194FD3
:102B0000A70196010E94D030605DF8016083B90191
:102B1000CA01CC2339F0C33048F76115710581052E
:102B2000910521F780E2CC2339F0C150EC2FF0E081
:102B3000EA50F94F8083F7CF86EF96E0DF91CF918F
:102B40001F910F91FF90EF90DF90CF900895E0E1FB
:102B5000F7E02491ECEFF6E09491E8EEF6E0E491F2
:102B6000EE2309F43BC0222339F1233091F038F4ED
:102B70002130A9F0223001F524B52F7D12C0273075
:102B800091F02830A1F02430B9F4209180002F7DFD
:102B900003C0209180002F77209380000DC024B5C2
:102BA0002F7724BD09C02091B0002F7703C020915A
:102BB000B0002F7D2093B000F0E0EE0FFF1FE95230
:102BC000F94FA591B4912FB7F894EC91811103C0FE
:102BD00090959E2301C09E2B9C932FBF0895CF9369
:102BE000DF9390E0FC01EB50F94F2491FC01EF5191
:102BF000F94F8491882361F190E0880F991FFC01BF
:102C0000E353F94FC591D491FC01E952F94FA591D5
:102C1000B491611109C09FB7F894888120958223EF
:102C20008883EC912E230BC0623061F49FB7F89437
:102C30003881822F809583238883EC912E2B2C93CF
:102C40009FBF06C08FB7F894E8812E2B28838FBFD3
:102C5000DF91CF9108953FB7F89480910E0790913E
:102C60000F07A0911007B091110726B5A89B05C0CA
:102C70002F3F19F00196A11DB11D3FBFBA2FA92FFB
:102C8000982F8827820F911DA11DB11DBC01CD0178
:102C900042E0660F771F881F991F4A95D1F7089564
:102CA0008F929F92AF92BF92CF92DF92EF92FF925C
:102CB0006B017C010E942B164B015C01C114D104F5
:102CC000E104F104F1F00E942B16DC01CB0188191C
:102CD0009909AA09BB09883E9340A105B10570F383
:102CE00021E0C21AD108E108F10888EE880E83E0DD
:102CF000981EA11CB11CC114D104E104F10419F700
:102D0000DDCFFF90EF90DF90CF90BF90AF909F907E
:102D10008F9008952FB7F89460910A0770910B0770
:102D200080910C0790910D072FBF08951F920F926D
:102D30000FB60F9211242F933F938F939F93AF93CE
:102D4000BF9380910A0790910B07A0910C07B09157
:102D50000D073091090723E0230F2D3720F401964A
:102D6000A11DB11D05C026E8230F0296A11DB11DAE
:102D70002093090780930A0790930B07A0930C07F1
:102D8000B0930D0780910E0790910F07A091100747
:102D9000B09111070196A11DB11D80930E0790936C
:102DA0000F07A0931007B0931107BF91AF919F91A8
:102DB0008F913F912F910F900FBE0F901F901895FC
:102DC000CF93DF93CDB7DEB7E7970FB6F894DEBFAA
:102DD0000FBECDBF789484B5826084BD84B5816018
:102DE00084BD85B5826085BD85B5816085BD8091D6
:102DF0006E00816080936E0010928100809181004E
:102E00008260809381008091810081608093810045
:102E1000809180008160809380008091B100846007
:102E20008093B1008091B00081608093B000809168
:102E30007A00846080937A0080917A008260809327
:102E40007A0080917A00816080937A0080917A0084
:102E5000806880937A001092C100E0916C01F0913B
:102E60006D0182E08083E0916801F0916901108238
:102E7000E0916A01F0916B0190E1908310927401EE
:102E8000E0917001F091710186E08083E0916E0124
:102E9000F0916F01808180618083E0916E01F091FB
:102EA0006F01808188608083E0916E01F0916F01F5
:102EB000808180688083E0916E01F0916F01808154
:102EC0008F7D80838091C00082608093C0001092CB
:102ED000C5009093C4008CE591E00E94490E84B136
:102EE0008C6284B92498569A529860E084E10E94DA
:102EF000EF1560E081E10E94EF1560E081E10E9442
:102F0000EF1561E087E00E94EF153B98F8948091FF
:102F10006C0083FD0AC08091680082608093680025
:102F200080916C00886080936C0078940E94870B7D
:102F30000E94A40C64EF71E080E090E00E945016C3
:102F400080910E05882311F081E001C083E0809319
:102F500000010E944A0C0E94DD0CE8E62E2E33246C
:102F600033941092870580914D0590914E050196FE
:102F700090934E0580934D0580913705882311F07D
:102F80000C940000E0912305E0932D011092E804D9
:102F9000809122058823A1F0F0E0EE0FFF1FE55F8E
:102FA000FE4F80819181813426E0920710F081E00C
:102FB00004C089379540E0F082E08093E80418C0AF
:102FC0004091D4045091D5046091D6047091D704F7
:102FD0008091E4049091E504A091E604B091E704A7
:102FE00084239523A623B723892B8A2B8B2BF9F6D1
:102FF0001091E8048091860518130E94F60B109337
:10300000860510913905163010F081E001C080E08E
:103010000E94A7150E948A166B017C01809182058F
:1030200090918305A0918405B0918505B701A60113
:10303000481B590B6A0B7B0B443651056105710522
:1030400008F48FC08C599F4FAF4FBF4F80938205BC
:1030500090938305A0938405B09385051F5F10931B
:10306000390580913A058F5F80933A0581E0909110
:103070003C05911180E080933C05809145048823B4
:10308000A1F18091A904882381F1609131047091AC
:1030900032046115710549F12091060580E090E048
:1030A000222339F00E94C32E21EB32E047E55BE397
:1030B00006C00E94C32E2FE632E143E85AE30E9485
:1030C000B92F9B01AC016091570570915805809113
:1030D000590590915A050E94A52D6093570570934C
:1030E00058058093590590935A0560915705709142
:1030F00058058091590590915A050E94942E60932D
:10310000360270933702809338029093390280918F
:10311000F7048823D1F02091B5043091B604409192
:10312000B7045091B80460917E0570917F0580913D
:103130008005909181050E94A52D60937E05709376
:103140007F0580938005909381058091B40481115F
:1031500008C080914B05811104C060E08CE60E949C
:10316000DD0380917A0590917B05A0917C05B0915B
:103170007D05C81AD90AEA0AFB0A42E3C416D1043B
:10318000E104F10410F40C94392BC296A11DB11D79
:1031900080937A0590937B05A0937C05B0937D0581
:1031A0008091B0049091B104A091B204B091B304A5
:1031B000892B8A2B8B2B81F48091AC049091AD04E8
:1031C000A091AE04B091AF048093B0049093B10489
:1031D000A093B204B093B3044091B0045091B104F1
:1031E0006091B2047091B30488279927DC01841B95
:1031F000950BA60BB70B84239523A623B7238C012D
:103200009D01009510952095309540235123622310
:1032100073234093B0045093B1046093B20470934D
:10322000B304811551E09507A105B10509F458C013
:1032300028F588309105A105B10509F44BC068F463
:1032400081309105A105B10509F442C00297A1059D
:10325000B10509F051C085E650C080329105A10545
:10326000B105E1F180389105A105B105A9F14097BB
:10327000A105B10509F040C08DE63FC0811570E1A0
:103280009707A105B105B1F198F48115F4E09F0706
:10329000A105B10549F1811528E09207A105B10505
:1032A00039F181159240A105B10531F58FE625C0B0
:1032B000009744E0A407B105A9F0009758E0A507DE
:1032C000B105A1F00097A140B105B1F482E715C0A6
:1032D00084E613C089E611C08AE60FC08BE60DC0F4
:1032E0008EE60BC08BE309C080E707C089E405C008
:1032F00087E703C08CED01C080E09091B404911188
:103300003EC090914B05911103C060E00E94DD0327
:103310005E9860E085E00E94BA0860E086E00E9466
:10332000BA0861E084E00E94BA080E944B085BE49E
:10333000E52E52E0F52E00E010E060E2D62E8091FE
:10334000F9019091FA010817190780F4003F11055F
:1033500011F40E944B08D7016C9187E00E94BA08D3
:10336000F701D1927F010F5F1F4FE9CF6FEF87E029
:103370000E94BA0860E084E00E94BA085E9A0E9447
:1033800023098091AA049091AB04059788F541EC3C
:10339000E42E44E0F42E00E410E0F70185919491CE
:1033A000B8010E947E08F2E0EF0EF11C025E1F4F92
:1033B000003321E0120789F788EF90E00E94A3080C
:1033C000E0913805F0E0EE0FFF1FE754FB4F8591C9
:1033D000949166E171E00E947E0880917805909159
:1033E0007905CC9790933E0580933D050C94392B3D
:1033F0001091A904112349F081E08093A8048091E1
:10340000A704813011F40E94D30E0091A804002378
:1034100071F011110CC010920A018AE08093090129
:1034200081E0809308018093A7040E94DD0C8091C5
:10343000A704882309F433C510910A01E12FEE0F88
:10344000FF0BE558FA4F8591949163E270E00E947A
:103450007E086BE671E086E795E00E947E08011128
:103460000CC061E771E08CE695E00E947E086BE796
:1034700071E085E695E00E947E0811118BC0809175
:10348000360290913702A0913802B09139028D83B3
:103490009E83AF83B88780912B0490912C04A091D8
:1034A0002D04B0912E0489879A87AB87BC878091C1
:1034B000430290914402092E000CAA0BBB0B8D878E
:1034C0009E87AF87B88B80912F0490913004A0E045
:1034D000B0E0898B9A8BAB8BBC8B20E030E044EB67
:1034E00053E460917E0570917F05809180059091F5
:1034F00081050E941B2E0E94942E6D8B7E8B8F8BDC
:10350000988F80913D0290913E026AE070E00E94A7
:103510006A2DCB01A0E0B0E0898F9A8FAB8FBC8F72
:1035200027E5E22E25E0F22EAE014F5F5F4F6A01E4
:103530000DE510E0F70185919491B8010E947E0895
:10354000F60181919191A191B1916F014AE065EFEE
:1035500076E00E948530B8016F5E7F4F0E94990827
:10356000F2E0EF0EF11C025E1F4F0F3221E0120756
:1035700009F7609148047091490480E090E021E0EF
:1035800045EF56E00E946A076DE670E085EF96E031
:103590000E94990880910A01813009F06AC099E47B
:1035A000E92E95E0F92E0DE510E0F7018591949153
:1035B000B8010E947E0832E0E30EF11C025E1F4F4C
:1035C0000F3241E0140789F700E0053019F00730A9
:1035D00028F001C007E0D02E025001C0D02E5EE1DD
:1035E000059F80011124ED2CF12CF701E45DFD4FC6
:1035F00080814AE065EF76E090E00E948530B80176
:103600006B597F4F0E949908F701EE5DFD4F808155
:103610004AE065EF76E090E00E948530B801655998
:103620007F4F0E949908F701E85EFD4F80814AE0D4
:1036300065EF76E090E00E948530B8016F587F4FCB
:103640000E94990801E00D0D093008F4BECF67E42F
:1036500070E083E591E00E9499086DE470E085E5F3
:1036600091E00E94990863E570E087E591E00E948F
:10367000990880910A01833079F5E0901602F09064
:103680001702FE8EED8E0091150210E018A30F8F29
:10369000E5E4F5E0859194916DE570E00E947E0887
:1036A0004AE065EF76E0C7010E94853061E770E08F
:1036B0000E949908E7E4F5E0859194916BE770E04A
:1036C0000E947E084AE065EF76E0C8010E948530DE
:1036D0006FE870E00E94990880910A018230E9F158
:1036E00080910A01843009F0E2C00E94230987E931
:1036F0008093F50623E044E066EF76E08091410296
:10370000909142020E94FF0719EA1093FA06109264
:10371000FB0664E370E085EF96E00E9499088FEB6A
:103720008093F50623E044E066EF76E080913B026B
:1037300090913C020E94FF071093FA061092FB063C
:103740006CE270E085EF96E00E94990807E2E02EB7
:1037500005E0F02E0DE510E050C08091140290E0DD
:103760009E8F8D8F8091130290E098A38F8F809110
:10377000120290E09AA389A38091110290E09CA389
:103780008BA38091100290E09EA38DA380910F02E5
:1037900090E098A78FA380910E0290E09AA789A746
:1037A00080910D0290E09CA78BA785E3E82E85E031
:1037B000F82EBE01635E7F4F6B010DE510E0F7014F
:1037C00085919491B8010E947E084AE065EF76E009
:1037D000D6018D919D916D010E948530B8016C5E7E
:1037E0007F4F0E949908B2E0EB0EF11C025E1F4F62
:1037F0000D34E1E01E0719F773CFF701859194911D
:10380000B8010E947E08F2E0EF0EF11C025E1F4F2D
:103810000F3221E0120789F78091FA044AE065EF40
:1038200076E090E00E9485306BEC70E00E94990891
:1038300067E081E790E00E9489088091F3044AE004
:1038400065EF76E090E00E9485306FE870E00E94BE
:1038500099088091F1044AE065EF76E090E00E94DB
:1038600085306DEA70E00E94990861E18BEC90E090
:103870000E9489088091FB044AE065EF76E090E0C1
:103880000E94853069EE70E00E9499088091F204F0
:103890004AE065EF76E090E00E94853067E071E0F5
:1038A0000E9499086BE085E291E00E94890880916E
:1038B0000A01853009F06FC04AE065EF76E080913B
:1038C0009F049091A0040E948530E0E0AE2FB0E00C
:1038D000AB50B94F8C91EF5F8111F8CF85E28C939B
:1038E000F0E0EB50F94F108265E370E085EF96E071
:1038F0000E9499081BE1E12E15E0F12E0DE510E084
:10390000F70185919491B8010E947E0832E0E30EA0
:10391000F11C025E1F4F013141E0140789F764E09A
:1039200081E790E00E94890880913F05882349F053
:103930004AE065EF76E090E00E9485306FE870E045
:1039400004C06FE870E089E591E00E94990865E0A5
:103950008DEA90E00E94890866E08BEC90E00E947E
:1039600089084AE065EF76E08091070290910802AD
:103970000E94853069EE70E00E9499084AE065EF88
:1039800076E080910502909106020E94853067E002
:1039900071E00E94990880910A01863009F05AC0AE
:1039A0006091B5047091B6048091B7049091B80409
:1039B0000E948D2EDC01CB0123E044E065EF76E030
:1039C0000E94FF078AE98093F9061092FA0664E3E1
:1039D00070E085EF96E00E949908B1E1EB2EB5E02A
:1039E000FB2E0DE510E0F70185919491B8010E943E
:1039F0007E0852E0E50EF11C025E1F4F033F1105E9
:103A000091F76CE081E790E00E9489086EE08FE812
:103A100090E00E9489086FE08DEA90E00E9489089A
:103A20004AE065EF76E080910302909104020E94E3
:103A300085306BEC70E00E9499084AE065EF76E013
:103A400080910102909102020E94853069EE70E03F
:103A50000E94990880910A01873009F044C0A1E0D2
:103A6000EA2EA5E0FA2E0DE510E0F701859194917C
:103A7000B8010E947E0862E0E60EF11C025E1F4F54
:103A80000D3471E0170789F760E281E790E00E944A
:103A9000890861E28FE890E00E9489086DE28DEA72
:103AA00090E00E9489086FE18BEC90E00E94890809
:103AB00067E189EE90E00E94890864E387E091E085
:103AC0000E9489086EE285E291E00E948908809157
:103AD0000D054AE065EF76E090E00E94853063E4F2
:103AE00071E00E94990880910A01883009F058C05D
:103AF000F5EFEF2EF4E0FF2E0DE510E0F7018591D4
:103B00009491B8010E947E0882E0E80EF11C025EEA
:103B10001F4F013191E0190789F78091060561E790
:103B200070E0811103C081EF94E002C08DEE94E05B
:103B30000E947E0880910E056FE870E0882319F0DE
:103B40008AEE94E002C085EE94E00E947E086CE26A
:103B50008DEA90E00E94890880914005882349F011
:103B60004AE065EF76E090E00E9485306BEC70E013
:103B700004C06BEC70E089E591E00E9499088091A7
:103B800023054AE065EF76E090E00E94853069EE1B
:103B900070E00E94990863E187E091E00E94890843
:103BA00080910A01893009F04EC08091270590E08C
:103BB0009E8F8D8F8091280590E098A38F8F8091A4
:103BC000290590E09AA389A380912A0590E09CA3FF
:103BD0008BA38091FD0490E09EA38DA38091FE04B1
:103BE00090E098A78FA30DE510E0E12CF12CD12CEB
:103BF000F701E952FB4F85919491B8010E947E082C
:103C0000A6E0DA1691F04AE065EF76E0EDE1F0E04B
:103C1000EC0FFD1FEE0DFF1D808191810E9485300C
:103C2000B8016C5E7F4F0E949908D394B2E0EB0E0E
:103C3000F11C025E1F4FE7E0DE12DACF60E185E2A1
:103C400091E00E94890880910A018A3039F08091C0
:103C50000A018B30D4F110920A0137C08091FE0125
:103C600090E09E8F8D8F8091FD0190E098A38F8FC3
:103C70008091FB019091FC019AA389A3E1EDEE2EC6
:103C8000E4E0FE2E9E01235E3F4F69010DE510E04A
:103C9000F70185919491B8010E947E084AE065EF92
:103CA00076E0D6018D919D916D010E948530B8011D
:103CB0006C5E7F4F0E949908B2E0EB0EF11C025E31
:103CC0001F4F073B110521F7C2CF209109012A3070
:103CD00079F480910801833011F40C94132C813015
:103CE00009F4CBC0823009F0CBC080E791E0CAC0B4
:103CF0002A3008F0C5C030910A01313031F5283042
:103D000019F48AE08093090180910901893019F43E
:103D100087E0809309012091090130E02E5F3F4F39
:103D20004EE1429FC001439F900D11240A9640919D
:103D3000080150E04150510966E0649F9001659F81
:103D4000300D1124820F931F9DC0333061F4233056
:103D500019F48AE08093090180910901893009F002
:103D600089C082E036C03230C9F1343079F483E062
:103D700080930801283019F48AE08093090180912A
:103D80000901893009F076C087E023C080E090E027
:103D9000353079F483E080930801273019F48AE004
:103DA0008093090180910901893009F063C086E0A0
:103DB00010C0363089F483E080930801293019F46B
:103DC00085E08093090180910901863009F052C095
:103DD0008AE0809309014EC03730E9F4293049F474
:103DE00080915B05883011F48AE001C088E08093FF
:103DF00009012091090120935B0583E0809308016C
:103E000030E02E5F3F4F4EE1429FC001439F900D37
:103E10001124469637C0383069F483E08093080156
:103E2000293019F486E080930901809109018730D7
:103E300009F5CECF393069F483E080930801293049
:103E400019F487E08093090180910901883091F489
:103E5000BFCF3A30B9F4293019F483E080930901D7
:103E600080910901843019F48AE08093090183E08C
:103E70008093080120910901C3CF8AE691E002C036
:103E800080E090E020913C05222311F40C94392B22
:103E9000FC01E55BFD4F23E020830C94392B0E944D
:103EA000DD0C8091A50480FF25C2C090A304D090B2
:103EB000A404E090A104F090A20480E58093F506AC
:103EC000C601EAE0CE16D10434F06AE070E00E9448
:103ED0007E2DCB010CC066EF7FEF0E947E2DCB01C3
:103EE000D7FE05C02DE22093F60622E001C021E0B6
:103EF00030E0B9016B50794F4AE00E9485308FE085
:103F00000E945A07882349F060916B0470916C04F9
:103F1000717085EF96E00E94990882E58093F5061E
:103F2000C701FAE0EF16F10434F06AE070E00E9495
:103F30007E2DCB010CC066EF7FEF0E947E2DCB0162
:103F4000F7FE05C02DE22093F60622E001C021E035
:103F500030E0B9016B50794F4AE00E94853080E132
:103F60000E945A07882349F060916D0470916E0495
:103F7000717085EF96E00E949908B0901605B11017
:103F80000AC080911E05811106C083E18093020161
:103F900080930101AAC08091A904811104C01092EC
:103FA0003204109231040091310410913204809156
:103FB0006A0590916B059801215F3F4F28173907DB
:103FC000C0F40E948A16609366057093670580931B
:103FD00068059093690582E08093650510936B05F1
:103FE00000936A058091020181508031E8F485E1F7
:103FF0001BC00F9680179107C8F40E948A16609321
:10400000660570936705809368059093690581E064
:104010008093650510936B0500936A0580910201FA
:104020008F5F863108F080E1809302014090450265
:10403000509046026090470270904802809161055E
:1040400090916205A0916305B0916405B301A2014E
:104050004C5E5F4F6F4F7F4F481759076A077B07CA
:10406000E4F40E948A1660935D0570935E05809368
:104070005F059093600582E080935C054092610546
:10408000509262056092630570926405809101010F
:104090008150803128F585E123C04496A11DB11DD2
:1040A00084159505A605B705ECF40E948A16609361
:1040B0005D0570935E0580935F059093600581E0D8
:1040C00080935C05409261055092620560926305A1
:1040D00070926405809101018F5F863108F080E164
:1040E00080930101BB2009F450CF00917F0410910F
:1040F0008004117029ECC216D10454F438E3C316BD
:104100003FEFD30644F468E3C62EDD24DA9403C0FF
:1041100078ECC72ED12C41E9E41641E0F40654F4C2
:1041200050E7E5165EEFF5064CF440E7E42E4EEF5F
:10413000F42E04C050E9E52EFF24F394B090090555
:1041400089E10E945A078B2109F48FC026016AE099
:10415000460E511C57FE04C0260171E1470E511C4A
:1041600083E0559447948A95E1F75194419451081E
:1041700090901B0540E094E0692E712C29E0C22E3E
:10418000D12C3EE1832EE42FF0E0C3018E1B9F0B68
:10419000E89E9001E99E300DF89E300D112437FF06
:1041A00002C0215C3F4FB6E035952795BA95E1F7FF
:1041B000240D351D275D3F4F22353105F0F5E00F09
:1041C000F11FC901B6010E947E2D869ED001879EF7
:1041D000B00D1124EA0FFB1FBF016C577109603E3F
:1041E00091E0790728F4DB01A55BBD4F80588C93E3
:1041F000992019F18EEF840F8530F8F4CF01865D98
:104200009109803EA1E09A0758F4BC01655B7D4F9F
:104210005B01C901B6010E947E2D8058D5018C93A7
:10422000B297E03EB1E0FB0740F4E55BFD4FC9010A
:10423000B6010E947E2D805880834F5F493028F45C
:10424000443009F0A0CF45E09ECF82E20E945A0799
:1042500081110BC0F801E55BFD4FDF01119786E28C
:104260008C938CEB81838EE7808380910A05882371
:1042700009F440C08AE10E945A078823D9F180914D
:104280008704982F9F70809185048F70B82E482FD7
:1042900041956091020150910101C92E990FDD08ED
:1042A00098012C193D097601E00EF11EEEE14E0257
:1042B000C0011124855B9D4FFC01E20FF31F608359
:1042C000FC01EE0DFF1D50834F5FB4167CF7F80123
:1042D000EC19FD09E45BFD4F83E08083F801EC0DF0
:1042E000FD1DE65BFD4F82E0808380911E058111FC
:1042F0000C94172C8091F004882309F45CC0B090D2
:10430000F104B0926D05E091F204E0936C058091A8
:104310000B0500914102109142028823A9F162E24B
:10432000E69F600111247AE2E79FF00111240C1549
:104330001D0510F42C2D07C09F01225031090217D2
:10434000130708F498010D2C000CEE08FF08822FCB
:1043500090E0A0E0B0E09C01AD012C193D094E09B0
:104360005F09A7E0B0E00E94EF3031972F01612C88
:10437000712CA30192012C193D094E095F090E947D
:10438000D03086E9821B01C087E98093F506EB2CCB
:10439000F12C0E151F0520F480913B0581110BC0F7
:1043A00085E10E945A0781110C947B2CE016F106DE
:1043B00010F00C947B2C8091FA04882369F1009111
:1043C0003B0210913C0220913A0230E002171307A1
:1043D00020F480913B0581111FC086E10E945A079D
:1043E0008823D1F08FEB8093F50623E044E066EF5D
:1043F00076E0C8010E94FF0789EA8093FA061092CE
:10440000FB066091790470917A04717061507109B2
:1044100085EF96E00E9499088091ED048823B1F120
:1044200000919F041091A0042091EC0430E020172B
:10443000310724F080913B05882341F183E10E94FC
:104440005A07882319F18AEB8093F5064AE066EF54
:1044500076E0C8010E948530E0E0AE2FB0E0AB50BE
:10446000B94F8C91EF5F8111F8CF85E28C93F0E02A
:10447000EB50F94F10826091730470917404717065
:104480006150710985EF96E00E9499088091F504CA
:10449000882309F45CC0C090B504D090B604E090C5
:1044A000B704F090B80420E030E040E251E4C701E6
:1044B000B6010E941B2E4B015C016091FE0470E06E
:1044C00080E090E00E94C52E9B01AC01C501B401C3
:1044D0000E94112E87FD04C080913B058823B9F10D
:1044E00060913D0270913E0280E090E00E94C32EF8
:1044F0009B01AC01C701B6010E94B42F181644F409
:10450000C701B6010E94942E70933E0260933D0253
:1045100087E10E945A078823D1F0C701B6010E94A3
:104520008D2EDC01CB0124E045E065EF76E00E94B2
:10453000FF078AE98093FA061092FB0660917B04DC
:1045400070917C04717085EF96E00E9499088091CB
:10455000F704882309F44CC060913F027091400237
:104560006115710581F420E030E044EB53E4609183
:104570007E0570917F0580918005909181050E9454
:104580001B2E0E948D2E8091FD04A4E68A9FC001FF
:1045900011248617970724F480913B05882341F165
:1045A00088E10E945A07882319F184EA8093F5066E
:1045B00020E030E044EB53E460917E0570917F058C
:1045C00080918005909181050E941B2E0E948D2E66
:1045D000DC01CB014AE066EF76E00E948530609115
:1045E0007D0470917E04717085EF96E00E949908B9
:1045F00080911C05882309F44CC000916704109138
:1046000068040115B2E01B0708F443C08091A904B7
:104610008823F1F020916E0530916F05C9016CE39C
:1046200070E00E946A2D80912A0590E06817790752
:1046300020F080913B0581112CC02031EEE03E0737
:1046400028F48CE98093F506B90116C081E709C00A
:1046500060917805709179056031FEE07F0720F464
:104660008BE98093F50608C080E78093F506CB01BF
:104670006CE370E00E946A2D80E090E020E046EF5D
:1046800056E00E946A07B801717085EF96E00E94BB
:10469000990885E20E945A078823A1F100919704A6
:1046A000109198041170609141027091420280E073
:1046B00090E00E94C32E2091B5043091B604409141
:1046C000B7045091B8040E94B92F20E030E048ECC4
:1046D00052E40E941B2E0E94942EDC01CB0125E0A7
:1046E00045E066EF76E00E94FF0780E28093F506E2
:1046F00087E58093FA061092FB06B80185EF96E0F5
:104700000E9499088EE00E945A07882309F4ADC0E0
:104710008091F904882309F4A8C08091A90481112B
:1047200007C0809187058260809387058EE10EC067
:1047300080910301882369F090913C05911195C007
:104740009091870594609093870581508093030131
:1047500005C08091870581608093870580916D05F4
:1047600090E020914102309142028217930728F095
:10477000809187058064809387058091A50483FFDD
:104780001CC080914C04853028F48091870580629C
:104790008093870580914A05811105C08091870526
:1047A00080618093870580914905811106C08091C1
:1047B00087058F7C886080938705809188058111AB
:1047C00004C0809187058093880510918805212F6A
:1047D0002195022F01230E948A16C0905305D09084
:1047E0005405E0905505F090560524EFC20E21E0E7
:1047F000D21EE11CF11CC616D706E806F90688F49D
:10480000112329F0802F80951823109388050E948A
:104810008A166093530570935405809355059093C1
:10482000560580E090E0E0E0202F30E0A901082E5E
:1048300002C0559547950A94E2F740FDE82F01968E
:104840008830910599F780918705823070F0F0E00B
:10485000EE0FFF1FEF56FA4F859194916091690416
:1048600070916A0471700E947E0880910805882307
:1048700009F48FC08BE00E945A07882309F489C08D
:1048800080E28093F60680911301909114012091AB
:104890000601309107012817390720F4909307018A
:1048A000809306012091040130910501821793073E
:1048B00020F490930501809304012091060130912A
:1048C00007012330384030F022E038E03093070110
:1048D000209306012091040130910501263B3340CD
:1048E00030F426EB33E0309305012093040120914E
:1048F000A904211109C080E28093F7069DE29093FC
:10490000F8069093F90635C02091FC04222339F073
:1049100020E044E067EF76E00E94FF072CC0C090E3
:104920000401D0900501E12CF12CA0E0B0E09C0145
:10493000AD012C193D094E095F09A4E6B0E00E94C3
:10494000EF302091060130910701890120E030E02D
:10495000A90198012C193D094E095F090E94D03028
:10496000DA01C90120E043E067EF76E00E94FF072B
:1049700085E28093FA0688EC8093F5061092FB0698
:104980006091630470916404717085EF96E00E94F9
:104990009908209178053091790580913D05909195
:1049A0003E05AC01445C5F4F42175307A0F4805CA6
:1049B0009F4F8217930720F430933E0520933D05C7
:1049C00080911105882339F080919B0490919C047B
:1049D00091700E94A3088091A50482FF59C088E0CD
:1049E0000E945A078823F9F080911A058823D9F08C
:1049F00080914A0490914B04880F991F880F991F4A
:104A000083509D4F6AE570E00E947E2D6E557A4F6F
:104A100080915D0490915E04917049E050E0855B67
:104A20009D4F0E947C3087E00E945A07882381F1C5
:104A300080910405882361F180914A0490914B0490
:104A400020910505222381F097FF02C088599E4FCF
:104A500020E043E065EF76E00E94FF078DEB809356
:104A6000F8061092F9060BC020E044E065EF76E00E
:104A70000E94FF078DEB8093F9061092FA06609171
:104A80005B0470915C04717085EF96E00E94990858
:104A90008091A50481FFB9C0809106058823A1F00B
:104AA00060914502709146028091470290914802C0
:104AB0000E94C52E2EEA31E646E05DE30E94B92F42
:104AC0000E948D2E8B010FC06091450270914602AD
:104AD000809147029091480224E630E040E050E0A7
:104AE0000E94D03089018091A904882389F08091A7
:104AF000AA049091AB04069758F0809143029091DC
:104B000044028017910724F4109344020093430257
:104B100089E00E945A07882369F18091190588234A
:104B200049F140912805442371F0C8016AE070E022
:104B30000E947E2D842F90E06817790724F08091E1
:104B40003B05811117C04AE066EF76E0C8010E947C
:104B50008530E0910605F0E0EA5CFE4F80818093AD
:104B6000F50660915F0470916004717085EF96E0C6
:104B70000E9499088AE00E945A07882309F445C0D8
:104B800080911805882309F440C0009161041091B8
:104B900062041170055B1D4FF8017E978FE78083DB
:104BA000D8018C935E968C932091490230914A02F1
:104BB0002937310534F42838BFEF3B071CF428E8C7
:104BC00001C028E7822F220F990BAA0BBB0B9C0177
:104BD000AD012857310941095109A1E1B0E00E9416
:104BE000EF3020E13FEF4FEF5FEF0E94D030822F98
:104BF00066E00E945C2D8150F8012EE18202E00DFA
:104C0000F11D11248FE8891B80838091A50483FF07
:104C10006CC38091FF04882309F467C310914C048E
:104C2000153020F480913B0581111BC080E00E946B
:104C30005A078823B1F08EE18093F5068FE18093C7
:104C4000F6064AE067EF76E0812F90E00E9485301B
:104C500060914D0470914E04717085EF96E00E9452
:104C6000990880914504882309F46AC081E00E9474
:104C70005A078823C9F180913F0490914004A09184
:104C80004104B09142040397A105B10520F480913D
:104C90003B05811129C020914F043091500431709F
:104CA00080914A0490914B04845E9D4F409143044F
:104CB00050914404841B950B880F991F880F991FEE
:104CC0008D966AE570E00E947E2DCB0160E170E078
:104CD0000E947E2D805A8093F5061092F606B90147
:104CE00085EF96E00E94990880910605882309F4D3
:104CF0001BC660913F0470914004809141049091E3
:104D000042040E94C32E21EA38EF41E550E40E949C
:104D1000B92F0E94942E6B017C0180912B049091FD
:104D20002C04A0912D04B0912E048C159D05AE0588
:104D3000BF0508F402C682E00E945A07811111C61D
:104D400080914504882309F452C084E00E945A07E8
:104D50008823E1F0809103058823C1F020E043E03F
:104D600065EF76E080914304909144040E94FF0730
:104D70008DEB8093F8061092F906609155047091BE
:104D80005604717085EF96E00E9499088091A904FD
:104D9000811104C01092320410923104F090060583
:104DA000609131047091320480E090E0F1100AC605
:104DB0000E94C32E2CEB34E743E15DE30E94B92F40
:104DC0000E94942E8B0180912F04909130049C01BD
:104DD0002C5E3F4F2017310708F0FBC5309330049D
:104DE00020932F0483E00E945A078111FBC5809114
:104DF0004504882309F4C2C080910205882309F480
:104E000057C085E00E945A07882309F451C0809159
:104E100006058823A9F060913304709134048091D1
:104E20003504909136040E94C52E21EA38EF41E501
:104E300050E40E94B92F0E948D2E6B017C0108C0A6
:104E4000C0903304D0903404E0903504F0903604E0
:104E5000109128051123A9F0C701B6012AE030E01E
:104E600040E050E00E94D030812F90E0A0E0B0E020
:104E7000281739074A075B0724F080913B05811109
:104E800017C04AE066EF76E0C6010E948530E091E7
:104E90000605F0E0EA5CFE4F80818093F5066091A4
:104EA000570470915804717085EF96E00E9499083C
:104EB00081E10E945A07882309F460C08091E404CC
:104EC0009091E504A091E604B091E7040091C0043C
:104ED0001091C1042091C2043091C30441E050E01C
:104EE00060E070E00097A105B10519F040E050E0E6
:104EF000BA014023512362237323452B462B472BB2
:104F0000E9F580239123A223B32320910005822B6E
:104F1000892B8A2B8B2B91F100916F0410917004D7
:104F200011708AEC8093F50660913B0470913C040B
:104F300080913D0490913E0423E54EE40E9450157B
:104F4000B80185EF96E00E949908009171041091D4
:104F5000720411708BEC8093F506609137047091A8
:104F600038048091390490913A0427E545E40E9481
:104F70005015B80185EF96E00E94990830910D0513
:104F800039AB323079F040F4313009F0AEC1A1E0F4
:104F9000B0E0BEABADAB10C049A9433049F04430DE
:104FA00009F0A3C162E070E07EAB6DAB11E005C01B
:104FB00082E090E09EAB8DAB10E0809145048823A9
:104FC00009F493C182E20E945A07882309F48DC133
:104FD0001AAB10E000E02AA9822F90E04DA95EA94B
:104FE000841795070CF081C180914304909144048B
:104FF000BAA9B13061F42091700530917105821B1E
:10500000930B845E9D4FB1010E946A2D0BC088599D
:105010009E4F20914A0430914B04821B930BB101A7
:105020000E947E2D9C016AE570E00E947E2D613019
:10503000710589F024F4672BD1F41FEF12C06230A0
:10504000710589F06330710591F4A101421B530B86
:105050009A011FEF0BC0E4EBF0E0E21BF30B9F01A2
:1050600011E001E004C0245B310911E00FEFB90148
:10507000330F880B990B0E94C52E2BED3FE049E4BE
:1050800050E40E94B92F20E030E044E353E40E9452
:105090001B2E4B015C0160913F0470914004809194
:1050A0004104909142040E94C32E2B013C01C50192
:1050B000B4010E9426309B01AC01C301B2010E94E1
:1050C000B92F0E94942E6B017C017CAB6BABC501A8
:1050D000B4010E94162E9B01AC01C301B2010E94D3
:1050E000B92F0E94942E2B013C01C414D50410F456
:1050F000A20101C0A60160E070E0443651056105DF
:10510000710590F0443F81E058076105710508F48E
:105110008CC4443C99E059076105710508F48AC4C0
:10512000CA01A4E2ABAB09C0B1E2BBAB84E690E03C
:105130004431510561057105A0F14C01990FAA0890
:10514000BB08C601A0E0B0E0BC01CD0154E0660F91
:10515000771F881F991F5A95D1F7A50194010E94C6
:10516000D030802F002E000C990B829F7001839FFE
:10517000F00C929FF00C11249201AFE0B0E00E947D
:105180001C31A50194010E94D030812F012E000C0A
:10519000990B829FF001839FF00D929FF00D1124D7
:1051A00004C0E0E0F0E0E12CF12CC0909304D0903A
:1051B000940421E0D2229701A7014F5F5F4F2A019B
:1051C000F7FC9A01359527952C0D3D1DCF0163E025
:1051D00070E00E947E2D5EE1569FC001579F900DAA
:1051E00011243901680E791E6AA9613011F025E099
:1051F00001C024E0C701F7FE04C0882799278E1953
:105200009F09482F417847FF03C041504E6F4F5FC1
:10521000342FCF01F7FF04C0882799278E1B9F0BDF
:1052200063E00E945C2D113019F482E0891B982FF5
:105230000F3F11F431E0341B3296359710F491E0B2
:10524000911B73E04716510428F431E0EF20E094FD
:1052500009F430E0AAA9AA2311F060ED01C066EDBF
:10526000B9A9B43031F0F32EFF0C3F0D390FF32EF6
:1052700015C080914A0490914B0440917005509163
:105280007105841B950B8A519D4FB1010E946A2DB7
:105290006DE270E00E946A2D92E7F92EF60EEBA9FE
:1052A000E093F5061092F6066091910470919204D5
:1052B000717085EF96E02FAB0E949908F092F50689
:1052C0001092F606B30185EF96E00E9499082FA987
:1052D0002093F5061092F606B60185EF96E00E943F
:1052E0009908FAA9FF5FFAAB76CE80914905882329
:1052F00009F4BFC1C090E404D090E504E090E60456
:10530000F090E7048091BE049091BF04A0E0B0E06B
:105310008C219D21AE21BF21892B8A2B8B2BD1F093
:10532000809117058823B1F01092F70686E18093EB
:10533000F50687E18093F6068EE10E945A078823DE
:1053400049F06091890470918A04717085EF96E04C
:105350000E94990880911D05882309F45AC0809104
:10536000BA0490E0A0E0B0E08C219D21AE21BF21E5
:10537000892B8A2B8B2B69F48091BB0490E0A0E0F1
:10538000B0E08C219D21AE21BF21892B8A2B8B2B54
:1053900029F080EA8093F506E1E001C0E0E0809129
:1053A000BC0490E0A0E0B0E08C219D21AE21BF21A3
:1053B000892B8A2B8B2B39F0AE2FB0E0AB50B94F35
:1053C00082EA8C93EF5F8091BD0490E0A0E0B0E0B2
:1053D0008C219D21AE21BF21892B8A2B8B2B39F06B
:1053E000AE2FB0E0AB50B94F81EA8C93EF5FF0E0A5
:1053F000EB50F94F108286E00E945A07882349F04B
:105400006091590470915A04717085EF96E00E9482
:1054100099088091C8049091C904A091CA04B091E0
:10542000CB048C219D21AE21BF21892B8A2B8B2B74
:1054300039F01092F7068AEA8093F5068BEA88C065
:105440008091C0049091C104A091C204B091C304A2
:105450008C219D21AE21BF21892B8A2B8B2B49F0DA
:105460008DE98093F5068EE98093F6061092F70693
:1054700071C08091C4049091C504A091C604B091FC
:10548000C7048C219D21AE21BF21892B8A2B8B2B18
:1054900039F01092F7068DEC8093F5068EEC58C02B
:1054A0008091DC049091DD04A091DE04B091DF04D2
:1054B0008C219D21AE21BF21892B8A2B8B2B79F04A
:1054C000809146044AE067EF76E090E00E948530E4
:1054D0001092F90685EB8093F50686EB39C0809132
:1054E000BC0490E0A0E0B0E08C219D21AE21BF2162
:1054F000892B8A2B8B2B69F68091BA0490E0A0E06F
:10550000B0E08C219D21AE21BF21892B8A2B8B2BD2
:1055100039F01092F7068CEA8093F5068DEA18C0F0
:105520008091BB0490E0A0E0B0E0C822D922EA223A
:10553000FB221092F706CD28CE28CF2829F084EC44
:105540008093F50685EC04C08EEA8093F5068FEA19
:105550008093F606809110058823B1F181E20E94C4
:105560005A07882389F100918F04109190041170DB
:10557000B80185EF96E00E9499084091CC045091C3
:10558000CD046091CE047091CF048091E404909199
:10559000E504A091E604B091E70484239523A623B3
:1055A000B723892B8A2B8B2B79F08AEE8093F50613
:1055B0008BEE8093F6061092F706B8016E5F7F4F70
:1055C00085EF96E00E94990880913B05811151C0BA
:1055D00084E20E945A07882309F44BC04091E404F6
:1055E0005091E5046091E6047091E7048091C00455
:1055F0009091C104A091C204B091C3048423952367
:10560000A623B723892B8A2B8B2B11F58091C404F9
:105610009091C504A091C604B091C704842395233A
:10562000A623B723892B8A2B8B2BA1F48091DC0432
:105630009091DD04A091DE04B091DF0484239523D2
:10564000A623B723892B8A2B8B2B99F0E3E003C089
:10565000E1E001C0E2E0F0E0EE0FFF1FE454FA4F9A
:1056600085919491609195047091960471700E9457
:105670007E0880913A05853048F010923A0581E025
:1056800090913B05911180E080933B050E948A1622
:105690000091450510914605209147053091480538
:1056A00008511C4F2F4F3F4F061717072807390780
:1056B00008F0B2C0009345051093460520934705B6
:1056C000309348051092390580914D0590914E0513
:1056D000909377058093760510924E0510924D05B4
:1056E00080914F05909150059093750580937405B6
:1056F0001092500510924F058091510590915205DE
:105700009093730580937205109252051092510583
:105710008091780590917905019690937905809311
:1057200078058091B404811117C05E9880EA0E94C8
:10573000B4088FEF0E94B4088370909147049817C3
:1057400019F00E944A0C08C080E80E94B4088FEF4C
:105750000E94B40883FFF5CF80914A05811103C0F0
:1057600010924C0403C0815080934A0580914905F2
:10577000882319F081508093490580914B05882337
:1057800019F0815080934B058091A904811109C0C3
:1057900080914A0490914B04909371058093700519
:1057A00016C080916E0590916F05019690936F05DC
:1057B00080936E05809148049091490401969093DE
:1057C0004904809348041092A7040E94DD0C809144
:1057D000AA049091AB0401969093AB048093AA0421
:1057E00080914005813051F48091A704882331F0E5
:1057F00060E08EEC0E94DD03109240058091400530
:10580000882319F081508093400580913F058823BB
:1058100019F0815080933F0581E00E94240F0E947F
:105820006B0E0C94B1178AE791E00C94421F8BE148
:105830000E945A07882311F40C947A210E948A1638
:105840004090660550906705609068057090690506
:1058500058EE450E53E0551E611C711C641575050C
:1058600086059705D8F480916505F801823059F4D2
:105870002EE1B29EE019F1091124EC19FD09E55B56
:10588000FD4F89EC0AC03EE1B39EE00DF11D1124ED
:10589000EC19FD09E55BFD4F8FEC80830E948A16B1
:1058A00000915D0510915E0520915F0530916005C6
:1058B00008511C4F2F4F3F4F601771078207930706
:1058C00010F00C947A2180915C059701255B3D4F87
:1058D000F901823039F44EE1B49EE019F109112446
:1058E00089EC06C05EE1B59EE00DF11D11248FEC40
:1058F00080830C947A2123E044E066EF76E0C801CF
:105900000E94FF0789EA8093FA061092FB066091D5
:1059100077047091780471706150710985EF96E099
:105920000E9499080C94DB21C0903F04D090400461
:10593000E0904104F0904204F0C98C599F4FAF4F62
:10594000BF4F8C159D05AE05BF0510F46C017D01A0
:10595000C0922B04D0922C04E0922D04F0922E04DD
:10596000EAC9109127051123A9F0C701B60124E661
:1059700030E040E050E00E94FA30812F90E0A0E05B
:10598000B0E0281739074A075B0720F080913B05F4
:105990008111D6C94AE066EF76E0C6010E948530E3
:1059A000E0910605F0E0EA5CFE4F82818093F50607
:1059B0006091510470915204717085EF96E00E94DD
:1059C0009908BEC90E94C32E2DED3FE347EB5CE36F
:1059D000F5C98017910708F005CA109330040093A9
:1059E0002F0400CA80912905882341F090E0801798
:1059F000910720F480913B058111F9C9EF2DF0E06A
:105A0000EC5CFE4F80818093F5064AE066EF76E01D
:105A1000C8010E94853060915304709154047170E4
:105A200085EF96E00E949908E2C962E26BAB84EFD1
:105A300091E083CB73E27BAB84EC99E07ECBECE529
:105A4000F1E01382128288EE93E0A0E0B0E084835C
:105A50009583A683B78387E491E09183808385EC67
:105A600090E09587848784EC90E09787868780EC28
:105A700090E0918B808B81EC90E0938B828B82EC19
:105A800090E0958B848B86EC90E0978B868B118EC3
:105A9000128E138E148E0895DB018F939F930E94B4
:105AA000EF30BF91AF91A29F800D911DA39F900DEC
:105AB000B29F900D1124089587FB082E062687FDBE
:105AC000819567FD61950E94982D0EF4919507FCD4
:105AD00081950895AA1BBB1B51E107C0AA1FBB1FDC
