:100000000C94CC020C94CB060C94F4020C94F402E5
:100010000C9422070C94F4020C94F4020C94F40255
:100020000C94F4020C94F4020C94F4020C94F40278
:100030000C94F4020C94F4020C94F4020C94F40268
:100040000C9469130C94F4020C94F40C0C94CE0CE4
:100050000C94F4020C94F4020C94F4020C94F40248
:100060000C94F4020C94F402800388039003980328
:10007000A003A803B00367046F0477047F04870418
:100080008F0497049F04FC0404050C0514051C054B
:1000900024052C054E4F54204445544543544544B3
:1000A0002D50414C004E4F54204445544543544537
:1000B000442D4E545343004155544F2D50414C0054
:1000C0004155544F2D4E5453430053493A0049442F
:1000D0003A00202020202B50495443482046554CBC
:1000E0004C00202020202B5941572052494748548A
:1000F000004D454E553A54485254204D4944444CC5
:100100004500004D572D4F5344202D2052312E379E
:10011000005445585420414C41524D5300414D50DC
:1001200053004D414820583130300054494D45521C
:1001300000535045454400414C54495455444520D2
:100140005831300044495354414E434520583130D2
:1001500030005448524F54544C452050574D004F96
:100160005344205458204348004D41472043414CBC
:1001700000444542554700562052454600554E49D9
:100180005453004D4150204D4F44450047494D4286
:10019000414C0053454E534F525300475053204358
:1001A0004F4F524453005448524F54544C450053FF
:1001B00043524F4C4C494E47204241525300534901
:1001C0004445204241525300484F52495A4F4E0035
:1001D00041444A555354205A45524F0041444A55D0
:1001E000535420414D5053005553452056495254C5
:1001F00055414C2053454E534F5200444953504CA7
:100200004159204D414800444953504C41592041E7
:100210004D5053005345542052535349204D494E9D
:10022000005345542052535349204D4158005553D3
:10023000452050574D0053455420525353490044D4
:100240004953504C4159205253534900555345206E
:1002500046430043454C4C5300444953504C41598C
:100260002056494420564F4C5453004D41494E208E
:10027000564F4C545320414C41524D0041444A5535
:10028000535420564F4C545300444953504C4159F9
:10029000204D41494E20564F4C5453004D4158205B
:1002A000414D5053004D41482055534544004D4168
:1002B00058205350454544004D415820414C544925
:1002C00054554445004D41582044495354414E43F0
:1002D0004500544F542044495354414E4345004631
:1002E0004C592054494D4500414C41524D53004119
:1002F0004456414E43454400444953504C415900F3
:1003000043555252454E54005253534900564F4C98
:1003100054414745005354415449535449435300B1
:100320004445425547004C4F5720564F4C545300BC
:100330004C4F57205341545300204E4F20475053A9
:10034000004E4F2044415441002041524D4544004D
:1003500044495341524D45440000334400535441F5
:10036000420000C000B700A500940003010201F1A3
:1003700000E200D2000201CE00CA00440137013180
:10038000012B0122011D011101312E31560035567C
:1003900000494D50004D4554007D017701710169C0
:1003A000015F015201C801BE01AF01A6019B01938B
:1003B000018C0183010702FB01E801DC01D0013F50
:1003C0000236024C022E022102140289027C026BC8
:1003D0000259027C0253024C02DF02D202C502B86B
:1003E00002AE02A5029C023C504147453E005341EB
:1003F00056452B4558495400455849540015030D9E
:100400000308030003F802EF02E80259035003490E
:1004100003410339033003260320031D1A1D1C1D4D
:10042000191D1C1D1B1D1C1D181D1C1D1A1D1C1D0E
:10043000191D1C1D1B1D62035D035A034F4E004F07
:1004400046460020007BC12A002100900054002471
:1004500000720027003500CB0060017EC17EC137ED
:10046000C110011D0102000F004C01F2006BC12FF1
:10047000C175017F01C200BB00BB00030007007A09
:1004800000550106015C003400C50064005701BA44
:10049000001801DCC020C034C036C0B7C090C054C2
:1004A000C024C072C028C0CBC0CAC060C17EC17E9B
:1004B000C137C110011D0102C00FC04DC1F3C06B97
:1004C000C12FC171C178C1C2C0BBC0BBC00300078E
:1004D000007AC055C106C15CC03400C30064C0537B
:1004E00001BA0018C1DCC000000000960000000046
:1004F00004F40158020D00003C000000018A04C809
:1005000000000000000100C8003264010101000089
:1005100000010000000101000001000001000000D6
:1005200000000101010101000101000400000005BB
:100530000001000000001E4D574F534400202020B2
:10054000203F043C0400000000240027002A000093
:10055000000000250028002B000404040404040407
:100560000402020202020203030303030301020462
:100570000810204080010204081020010204081025
:100580002000000008000201000003040700000032
:10059000000000000000832111241FBECFEFD8E02F
:1005A000DEBFCDBF27E0A2E5B1E001C01D92A037BC
:1005B000B207E1F711E0A0E0B1E0E2EDF9E402C03A
:1005C00005900D92A235B107D9F712E0CCECD2E03C
:1005D00004C02197FE010E94E821CB3CD107C9F756
:1005E0000E94B3130C94E7240C9400006091A604BD
:1005F0008AEC96E00C94590CCF93C82F682F8AECA4
:1006000096E00E94590C8091A604C827C093A604C6
:10061000CF910895CF93DF931F92CDB7DEB7998323
:100620000E94FC029981892F0F90DF91CF910C9449
:10063000FC02CF93DF93D82FC62F84E290E00E9474
:100640001E128DE490E00E941E128CE390E00E9446
:100650001E121092A6048C2F0E94FC028D2F0E9465
:10066000FC02C11104C0DF91CF910C94F602DF911E
:10067000CF910895EF92FF920F931F93CF93DF9343
:10068000C0912B01CA30C9F480912A018330A9F4AA
:100690008091A80482301CF081E08093A8048091AE
:1006A000A8048F3F1CF48FEF8093A80490912C0135
:1006B0008091A804890F80932C0180912C0187FFE1
:1006C00003C086E080932C0180912C01873014F0C8
:1006D00010922C0180912C01813009F049C0909139
:1006E0002A01933009F0C0C14C2F50E0FA01319734
:1006F000E730F10508F0B8C1EC5CFF4F0C94E8213D
:1007000091E02091FA03211190E09093FA03ACC19B
:100710002091A8049091FD03920F9093FD03A4C132
:100720002091A8049091FB03920F9093FB039CC12E
:1007300091E020910404211190E09093040494C16D
:100740002091A80490910504920F909305048CC108
:100750002091A8049091FC03920F9093FC0384C114
:1007600091E02091FE03211190E09093FE037CC163
:10077000823009F04DC090912A01933009F074C184
:10078000C33039F148F4C130E1F0C23009F06CC136
:100790008FE080935104D5C1C53059F110F1C630B6
:1007A00009F062C12091A80480915A0190915B01E7
:1007B000820F911D27FD9A9590935B0180935A01BA
:1007C000C0C181E09091F703911180E08093F7031D
:1007D000B8C181E09091F803911180E08093F80313
:1007E000B0C191E02091F903211190E09093F903B9
:1007F0003BC12091A80480915C0190915D01820F22
:10080000911D27FD9A9590935D0180935C0199C19C
:10081000833009F048C090912A01933009F024C137
:10082000C33051F128F4C130B9F0C230E9F01CC135
:10083000C43051F1C53009F017C12091A80480914E
:10084000560190915701820F911D27FD9A95909323
:1008500057018093560175C181E09091FF0391117A
:1008600080E08093FF036DC181E0909101049111BC
:1008700080E08093010465C181E0909102049111B0
:1008800080E0809302045DC12091A804809158010A
:1008900090915901820F911D27FD9A9590935901CE
:1008A000809358014EC1843009F051C090912A01C3
:1008B000933009F0D9C04C2F50E0FA013197E8305D
:1008C000F10508F0D1C0E55CFF4F0C94E82191E000
:1008D00020911304211190E090931304C5C091E07E
:1008E00020911404211190E090931404BDC091E074
:1008F00020912004211190E090932004B5C091E054
:1009000020911204211190E090931204ADC091E067
:1009100020910A04211190E090930A04A5C091E06F
:1009200020912704211190E0909327049DC091E02D
:1009300020912104211190E09093210495C02091F1
:10094000A80490911704920F909317048DC08530DE
:1009500009F03FC090912A01933009F085C0C3305F
:10096000E1F028F4C13049F0C23079F07DC0C530E3
:1009700001F1D8F0C63029F177C081E090911004E0
:10098000911180E080931004DCC081E09091180404
:10099000911180E080931804D4C081E090911F04ED
:1009A000911180E080931F04CCC09AE09093520490
:1009B0005BC09091A80480912D04890F80932D0431
:1009C000C0C081E090910604911180E080930604FC
:1009D000B8C0863009F048C090912A01933009F0E0
:1009E00043C04C2F50E0FA013197E730F105E0F5B4
:1009F000ED5BFF4F0C94E8219091A80480913104A5
:100A0000890F809331049DC09091A8048091320495
:100A1000890F8093320495C09091A804809133048B
:100A2000890F809333048DC09091A8048091340481
:100A3000890F8093340485C09091A80480910704A5
:100A4000890F809307047DC09091A80480910804C9
:100A5000890F8093080475C081E09091030491117F
:100A600080E0809303046DC0CA3009F06AC08093AF
:100A70002E0180912A01813009F45BC0823009F097
:100A800060C01092A7046EE18AEC0E94190380E016
:100A90000E94FC0280E00E94FC0280E00E94FC02B6
:100AA000C150A9F70E94F60267E08CEC0E9419037E
:100AB00080E00E94FC0280E00E94FC0280E00E9434
:100AC000FC0280E00E94FC0280E00E94FC0280E0C8
:100AD0000E94FC0280E00E94FC020E94F60203EFEA
:100AE00013E0C0E0D0E0F80161918F01CE010E94D7
:100AF000260D2196CC34D105B1F704E511E0F801BB
:100B00006081CE010E94260DF80161810E5F1F4FAA
:100B1000CE0101960E94260D2296CA35D10579F79D
:100B20006DE080E090E00E94260D60E08AEF0E9478
:100B30001903DF91CF911F910F91FF90EF900C94CB
:100B40002A0DDF91CF911F910F91FF90EF900895A3
:100B5000E091100581E08E0F80931005F0E0EF5ECC
:100B6000FA4F80810895E82FF0E0EE0FFF1FED5758
:100B7000FC4F208131812227307C81E02115304CCF
:100B800009F080E008953F924F925F926F927F92BA
:100B90008F929F92AF92BF92CF92DF92EF92FF928D
:100BA0000F931F93CF93DF938A01D22F222311F04B
:100BB000C8E001C0C5E0F801EC0FF11D1082DC2E89
:100BC000CD2E3AE0432E512C612C712C46E0842E20
:100BD000912CA12CB12C5AE3352E2FEF2D0D78013D
:100BE000E20EF11C27FDFA94A30192010E94B624A3
:100BF00080E3860FF70180838EEF8D0D7801E80E7C
:100C0000F11C87FDFA94CA01B901A50194010E9463
:100C1000B624605DF7016083B901CA01FDEFDF0E04
:100C2000F801ED0DF11DD7FCFA953082CA942FEF33
:100C3000C212D3CF2D2F220FD20FCD1BC3502AE0CB
:100C4000822E912CA12CB12CC1507801EC0EF11CFC
:100C5000C7FDFA94A50194010E94B624605DF701D6
:100C60006083B901CA01611571058105910511F013
:100C7000C111EACF80E2CC2341F0C150F801EC0F62
:100C8000F11DC7FDFA958083F6CFC801DF91CF91A2
:100C90001F910F91FF90EF90DF90CF90BF90AF909A
:100CA0009F908F907F906F905F904F903F900895AE
:100CB000EF92FF920F931F93CF93DF93FB0197FF68
:100CC00005C0919581959109C1E001C0C0E0DF01A7
:100CD000A40FB11D1C92DEE20AE010E0421306C030
:100CE0004150DF01A40FB11DDC9320E03FEF340F32
:100CF0007F01E30EF11CB8010E94D421805DD70171
:100D00008C93CB01332379F0222311F0432FE6CFCC
:100D10000097E1F7CC2339F03EEF340FDF01A30F4A
:100D2000B11D8DE28C9380E2332331F03150DF012D
:100D3000A30FB11D8C93F8CFCF01DF91CF911F91FD
:100D40000F91FF90EF900895CF92DF92EF92FF9274
:100D50000E945D136B017C0128E2C20ED11CE11CD4
:100D6000F11C81E08093A5048091A504882371F093
:100D70000E945D13C616D706E806F90618F410920D
:100D8000A504F2CF80E00E945D0DEECFFF90EF90C2
:100D9000DF90CF9008951F920F920FB60F921124FB
:100DA0001092A5040F900FBE0F901F901895DB01B5
:100DB000A159BE4FFC0124910196222311F02D93DD
:100DC000F9CF08959C01E62FF0E0ED50FC4FE08153
:100DD000F0E0EE0FFF1FEF5BFA4F85919491B901A0
:100DE0000C94D706DC01FB01E159FE4F9D9199233C
:100DF00011F09193FBCF0895A5E3B4E0E6EBF6E0A4
:100E00002AE02E0F3D9131932E13FCCF1092C00695
:100E1000BC0186EB96E00C94F2068EBD0DB407FE85
:100E2000FDCF8EB50895CF93DF931F92CDB7DEB778
:100E300069830E940D076981862F0F90DF91CF9102
:100E40000C940D071F920F920FB60F9211242F933F
:100E50003F934F935F936F937F938F939F93AF9342
:100E6000BF93CF93EF93FF93C6B178940E94FE1285
:100E70002091A3043091A404AB01421B530B9A01AF
:100E8000293B3B4018F021E020932D017093A404EE
:100E90006093A304C3FD1AC02091A1043091A20461
:100EA000621B730BCB018F5E92408B3D954020F40B
:100EB0007093A00460939F0480912D018F5F8093B5
:100EC0002D0170939E0460939D0404C07093A2044E
:100ED0006093A104FF91EF91CF91BF91AF919F914A
:100EE0008F917F916F915F914F913F912F910F90D3
:100EF0000FBE0F901F9018954F925F926F927F9246
:100F00008F929F92AF92BF92FF920F931F93CF93B6
:100F1000DF93CBE3D1E0ACEAB4E040E050E06AE03C
:100F200089918E3008F08E5087702091000190E4F6
:100F3000299F90011124822B80937C0080917A005C
:100F4000806480937A0080917A0086FDFCCF809146
:100F500078002091790090E0922BF0909C0441154C
:100F6000510541F42091FE03222329F18091AB0425
:100F700090E021C04430F9F42091F9032223A9F034
:100F800080919F049091A00495958795009769F4AE
:100F9000649FF001659FF00D1124EF0DF11DEE0F20
:100FA000FF1FE455FB4F808191812091F80322239C
:100FB00011F080E090E0649FF001659FF00D112436
:100FC000EF0DF11DEE0FFF1FE455FB4F50962D91D5
:100FD0003C91519700811181201B310B51963C931C
:100FE0002E93509720813181820F931F969587957C
:100FF0009183808350962D913C915197820F931F3E
:1010000051969C938E9350974F5F5F4F5496453007
:10101000510509F085CF8091FE036091BC04709169
:10102000BD04D0911804811134C080E090E0C091DB
:10103000FD03D11115C00E9408234B015C016C2FE8
:1010400070E080E090E00E940A239B01AC01C501A2
:10105000B4010E94BF2327E137EB41ED58E314C0F0
:101060000E9408234B015C016C2F70E080E090E04F
:101070000E940A239B01AC01C501B4010E94BF2359
:101080002FE632E143E05AE30E94BF230E94D922B7
:1010900005C053E0759567955A95E1F770936C011B
:1010A00060936B018091F503809366016091D00499
:1010B0007091D10480E090E0C0910504D11115C079
:1010C0000E9408234B015C016C2F70E080E090E0EF
:1010D0000E940A239B01AC01C501B4010E94BF23F9
:1010E00027E137EB41ED58E314C00E9408234B0180
:1010F0005C016C2F70E080E090E00E940A239B016D
:10110000AC01C501B4010E94BF232FE632E143E0E8
:101110005AE30E94BF230E94D92270936801609312
:101120006701809100048111C4C080910204C091C4
:101130005601D09157010091580110915901811128
:1011400044C04E01A12CB12C2091E4043091E5045F
:1011500043E0359527954A95E1F7C901330FAA0B6E
:10116000BB0B9C01AD01281939094A095B09D8015B
:101170000E94AB2400E014E020E030E0A9019801D7
:10118000281939094A095B090E948C24CA01B9014E
:101190000E940A234B015C0120E030E0A9010E947B
:1011A0005B2287FD09C08092EB039092EC03A09232
:1011B000ED03B092EE0398C01092EB031092EC0393
:1011C0001092ED031092EE038FC080910A0190916E
:1011D0000B0160910401709105018617970740F09B
:1011E00060910601709107018617970708F4BC010A
:1011F000CB01A0E0B0E0BC01CD01685E7340810985
:101200009109623F23E072078105910548F42AE0C5
:1012100030E040E050E00E94B62449015A0105C088
:1012200094E6892E912CA12CB12CC501B4010E9409
:1012300008232B013C01A5019401C501B4010E94C2
:10124000B0210E9408232AE037ED43EA5CE30E94C4
:10125000BF239B01AC01C301B2010E94EF214B01EE
:101260005C01B80180E090E00E9408239B01AC0182
:10127000C501B4010E94BF232AE037ED43E25CE3DD
:101280000E94BF234B015C018091DF03BE018823D4
:1012900059F080E090E00E9408239B01AC01C50159
:1012A000B4010E94EF2118C080E090E00E94082362
:1012B00013C08091A9049091AA0497FF02C00597DA
:1012C00001C005966AE070E00E94D421072E000C50
:1012D000880B990B0E940A236093EB037093EC0335
:1012E0008093ED039093EE038091F703882309F434
:1012F0004EC020910C0530910D0583E03595279562
:101300008A95E1F78091DD03882389F0809151046B
:101310008F3029F430935D0120935C0108C0813047
:1013200031F430935B0120935A0110925104809064
:101330005A0190905B01A12CB12CC901330FAA0B6B
:10134000BB0B9C01AD01281939094A095B09A4E6C8
:10135000B0E00E94AB2420915C0130915D018901D5
:1013600020E030E0A9019801281939094A095B09F0
:101370000E948C242536310514F024E630E037FF36
:1013800002C020E030E03093D6032093D50381E003
:101390008F0D883018F480939C0402C010929C0436
:1013A000DF91CF911F910F91FF90BF90AF909F90D1
:1013B0008F907F906F905F904F900895CF92DF92C3
:1013C000EF92FF920F931F93CF93DF9380E090E013
:1013D0000E94280D8D3009F457C0C0E0D0E0FE0116
:1013E000EB50FB4F6491CE010E94260D2196CC3428
:1013F000D105A9F7FE01E556FB4F05911491602F29
:10140000CE010E94260D612FCE0101960E94260D6D
:101410002296CA35D10571F78E010A551109C80106
:101420008B569B4F7C01FC01C590D4906C2DCE0156
:101430000E94260D6D2DCE0101960E94260DF80109
:10144000ED5BFB4F05911491602FCE018E5A9F4F9B
:101450000E94260D612FCE018D5A9F4F0E94260DAE
:10146000F70105911491602FCE018C559F4F0E947A
:10147000260D612FCE018B559F4F0E94260D22967F
:10148000CE3FD10509F0C8CFDF91CF911F910F91C9
:10149000FF90EF90DF90CF900895BF92CF92DF92B0
:1014A000EF92FF920F931F93CF93DF93C0903F046F
:1014B00022E5C29EC0011124B090110403E813E09C
:1014C0007C013CEAE30EF11CFC01E65AFF4F6F0180
:1014D000C6010E94280DC82FD0E0F801D183C08337
:1014E000C60101960E94280D282F30E0322F2227B6
:1014F0002C0F3D1FF80131832083BB2081F0C901EF
:1015000091708739910558F0813F910518F4225E5A
:101510003F4F03C0245C3F4FF80131832083F2E04A
:10152000CF0ED11C0E5F1F4FCE14DF0489F6DF9162
:10153000CF911F910F91FF90EF90DF90CF90BF90D0
:1015400008955E9A2A9864E670E080E090E00E9438
:1015500023132A9A80E58CBD81E08DBD8DB58EB5B3
:101560006AE070E080E090E00E9423135E9864E6F9
:1015700070E080E090E00E94231380EA0E940D0753
:101580008FEF0E940D078370813029F4809311043E
:1015900080934A040CC0823029F4109211041092F6
:1015A0004A0405C0909111049E5F90934A04809371
:1015B000800380911104882341F080EE91E09093A4
:1015C0005301809352016CE407C086E891E0909348
:1015D0005301809352016CE080E00E9413075E9AF1
:1015E0009FB7F894E89A80916900826080936900BF
:1015F0009FBF0C944D0AEF92FF920F931F93CF93CE
:10160000DF9303EF13E0C0E0D0E0CE010E94280D8D
:10161000F80181938F012196CC34D105B1F734E5DF
:10162000E32E31E0F32ECE010E94280D082F10E0AA
:10163000F70111830083CE0101960E94280D90E0EE
:10164000982F8827080F191FF701019311937F0125
:101650002296CA35D10539F7DF91CF911F910F91AD
:10166000FF90EF900C944D0A8091E203882329F0BB
:1016700080E090E1A0E0B0E05AC08091DD038823D3
:1016800029F08FE996E0A4E0B0E051C08AE090E054
:10169000A0E0B0E08093E3039093E403A093E5031C
:1016A000B093E6032091DB0321FF0CC08AE190E0B8
:1016B000A0E0B0E08093E3039093E403A093E503FC
:1016C000B093E60380914704813089F08091E30371
:1016D0009091E403A091E503B091E60381608093CB
:1016E000E3039093E403A093E503B093E60323FFA1
:1016F00011C08091E3039091E403A091E503B091C0
:10170000E603806A8093E3039093E403A093E503E8
:10171000B093E60380915503811111C08091E303DA
:101720009091E403A091E503B091E6039860809363
:10173000E3039093E403A093E503B093E603809161
:10174000FE03811104C08091F803882389F0809101
:10175000E3039091E403A091E503B091E603916067
:101760008093E3039093E403A093E503B093E6032F
:101770004091E7035091E8036091E9037091EA0317
:101780008091E3039091E403A091E503B091E60317
:1017900084239523A623B7238093E7039093E8033C
:1017A000A093E903B093EA030895CF92DF92EF92FA
:1017B000FF920F931F93CF93DF936C017A018B01FC
:1017C000C0E0D0E0CE15DF0589F0D8016D918D0124
:1017D000D601ED91FC910190F081E02DC6010995B3
:1017E000892B11F47E0102C02196ECCFC701DF9155
:1017F000CF911F910F91FF90EF90DF90CF900895C0
:10180000FC01918D828D981761F0828DDF01A80F08
:10181000B11D5D968C91928D9F5F9F73928F90E02A
:1018200008958FEF9FEF0895FC01918D828D981799
:1018300031F0828DE80FF11D858D90E008958FEFD6
:101840009FEF0895FC01918D228D892F90E0805C9F
:101850009F4F821B91098F73992708958AEC96E018
:101860000E94220C21E0892B09F420E0822F0895A8
:10187000FC01848DDF01A80FB11DA35ABF4F2C912D
:10188000848D90E001968F739927848FA689B789FC
:101890002C93A089B1898C9180648C93938D848DD5
:1018A000981306C00288F389E02D80818F7D8083A4
:1018B0000895EF92FF920F931F93CF93DF93EC0164
:1018C00081E0888F9B8D8C8D981305C0E889F989FC
:1018D000808185FD24C0F62E0B8D10E00F5F1F4F19
:1018E0000F731127E02E8C8DE8120CC00FB607FC89
:1018F000FACFE889F989808185FFF5CFCE010E9472
:10190000380CF1CF8B8DFE01E80FF11DE35AFF4F2C
:10191000F0820B8FEA89FB898081806207C0EE89A3
:10192000FF896083E889F98980818064808381E010
:1019300090E0DF91CF911F910F91FF90EF9008956C
:10194000CF93DF93EC01888D8823C9F0EA89FB8966
:10195000808185FD05C0A889B9898C9186FD0FC05D
:101960000FB607FCF5CF808185FFF2CFA889B98932
:101970008C9185FFEDCFCE010E94380CE7CFDF912F
:10198000CF91089580E090E0892B29F00E942E0CE1
:1019900081110C94000008950E942C241F920F9234
:1019A0000FB60F9211242F933F934F935F936F9332
:1019B0007F938F939F93AF93BF93EF93FF938AECA3
:1019C00096E00E94380CFF91EF91BF91AF919F91EB
:1019D0008F917F916F915F914F913F912F910F90D8
:1019E0000FBE0F901F9018951F920F920FB60F9277
:1019F00011242F938F939F93EF93FF93E091DA0637
:101A0000F091DB068081E091E006F091E10682FD35
:101A100012C090818091E3068F5F8F732091E4065E
:101A2000821751F0E091E306F0E0E653F94F958F0D
:101A30008093E30601C08081FF91EF919F918F9188
:101A40002F910F900FBE0F901F9018950C947E242D
:101A50000C94762481E080932C018AE080932B0102
:101A600083E080932A011092DD031092DE038091BF
:101A70001604882301F11092620110926301109202
:101A800064011092650110924F031092500310925E
:101A900051031092520310926E0110926D01109238
:101AA00054031092530310926A011092690110922C
:101AB0008203109281030C94340B2F923F924F9229
:101AC0005F926F927F928F929F92AF92BF92CF92CE
:101AD000DF92EF92FF920F931F93CF93DF9300D08B
:101AE00000D01F92CDB7DEB78A838AEC96E00E94C1
:101AF000220C21E0892B09F420E03AE0232E312C3E
:101B000048EE842E43E0942EA12CB12C80E796E081
:101B100036E3380F3B83213009F078C48AEC96E035
:101B20000E94000C9D838C838C8189838091630447
:101B3000909164040196909364048093630480916F
:101B40006D0690916E06009791F4109241041092E8
:101B500046041092450481E090E0A981A53011F07F
:101B600080E090E090936E0680936D0649C28130CC
:101B7000910531F4BC81B0934404E2E0F0E01EC072
:101B80008230910501F520914104E22FF0E0E85305
:101B9000FA4F3C8130838091450490914604830F35
:101BA000911D90934604809345042F5F2093410438
:101BB00080914404281324C2E3E0F0E0F0936E0621
:101BC000E0936D061DC2039709F016C260914404AC
:101BD00070E080914504909146040E94C0218C8160
:101BE0009D8199276817790709F006C280916104E1
:101BF000909162040196909362048093610483E063
:101C000080935B048091D8058093DF038091D90590
:101C100090E0982F88272091DA05822BB1010E944D
:101C2000C0216093AB048091E70590E0982F88274E
:101C30002091E805822BB1010E94D4217093D80332
:101C40006093D7038091E90590E0982F8827209131
:101C5000EA05822BB1010E94D4217093DA036093CC
:101C6000D90380910906833008F080E08093400416
:101C70008091C80590E0982F88272091C905822B74
:101C800088519C4F90930B0180930A0120E030E033
:101C9000F901E853FA4F828190E0982F8827D90103
:101CA000A85FBE4F4381842B84529A4F15969C9314
:101CB0008E9314972E5F3F4F2E30310549F7809158
:101CC0000E0190910F01855195408F389140E8F4B5
:101CD00080910C0190910D01855195408F38914074
:101CE000A0F48091100190911101855195408F3899
:101CF000914058F41092AF058092AB059092AC05DC
:101D0000A092AD05B092AE052FC08091AF05813095
:101D100059F50E945D130091A7051091A805209127
:101D2000A9053091AA05DC01CB01801B910BA20B08
:101D3000B30B0091AB051091AC052091AD0530912E
:101D4000AE05081719072A073B0710F41092AF05D4
:101D50008CE291E0A0E0B0E08093AB059093AC05FD
:101D6000A093AD05B093AE058091AF058111DBC0A6
:101D700080910E0190910F012091DD038B339740EC
:101D800040F180911001909111018B33974008F13F
:101D900080910A0190910B018F379440D0F021116E
:101DA000B4C08091E0039091E103069708F4ADC0C0
:101DB0008091DF038111A9C082E08093AF0581E0AB
:101DC0008093DD0380912E0180932C010E94340BBF
:101DD0009CC0222309F499C01091A8041092A80471
:101DE0008091DE03882361F080910A0190910B01BC
:101DF0008531954028F082E08093AF050E942A0D3E
:101E00002091DD03222309F44CC080910C019091B4
:101E10000D018B3337E0930750F081E08093AF05DD
:101E200080912A018F5F843060F083E00AC08E3792
:101E3000944068F491E09093AF0580912A0181501D
:101E400019F080932A0161C090932A015EC08091AD
:101E50000E0190910F018B33B7E09B07A0F091E04A
:101E60009093AF0580912B01815019F080932B0145
:101E700002C090932B0180912C01811146C08AE011
:101E800080932B0142C08E37944058F481E08093B8
:101E9000AF0580912B018F5F80932B018B3078F7FA
:101EA00034C08091DE03811130C0222371F11630DD
:101EB0000CF015E01B3F0CF41BEF8091100190918A
:101EC00011018E37F4E09F0738F481E08093AF056D
:101ED00011501093A80417C08B339740B0F081E0E5
:101EE0008093AF051F5F1093A80480912C0186306A
:101EF00051F480912A01833031F480912B01853097
:101F000011F4109252040E943A038091AF0581307F
:101F100051F40E945D136093A7057093A805809308
:101F2000A9059093AA0580910004882309F464C050
:101F3000E0EBCE2EE5E0DE2E00E010E0E12CF12C0F
:101F4000C80188539A4FFC01E95AFF4F4080512C39
:101F5000542C442431968081482A052C000C6608B4
:101F6000770864E0440C551C661C771C6A95D1F711
:101F7000D6012D913D914D915C91AAE0B0E00E9477
:101F8000AB24640D751D861D971D2BE030E040E0ED
:101F900050E00E94B624F60121933193419351936E
:101FA0006F01DA01C90174E0B695A79597958795F9
:101FB0007A95D1F7E80EF91E065F1F4F0C33110515
:101FC00009F0BECFF092AA04E092A90420915C0629
:101FD00030E0322F222780915D06282BA8E6B1E061
:101FE0000E94D8240E9408236093EF037093F003AB
:101FF0008093F1039093F20310926E0610926D0697
:102000008091B4069091B506009731F481E090E09C
:10201000F981F43281F414C08130910531F42981C1
:102020002D3449F482E090E00BC08230910569F4D0
:1020300039813E3319F080E090E002C083E090E007
:102040009093B5068093B406D8C183309105A9F466
:102050008981873928F01092B5061092B406CDC157
:102060009C819093B30684E090E09093B5068093B2
:10207000B406AC81A093B206C0C18430910589F446
:1020800085E090E09093B5068093B406BC81B09350
:10209000B1068091B2068B278093B2061092B006EB
:1020A000ACC1059709F0A9C18091B206FC818F27C8
:1020B0008093B2061091B0069091B306191393C1A4
:1020C0008111C9CF8091610490916204019690932F
:1020D0006204809361041092100583E080935B0496
:1020E0008091B1068C3D09F0B6CF0E94A8058930D9
:1020F00009F04BC082E080935D040E94A805182F70
:102100000E94A805212F30E0280F311D3093AF0623
:102110002093AE060E94A8058093AD0681E08093CF
:10212000AC060E945D13DC01CB018854944FAF4F85
:10213000BF4F8093A8069093A906A093AA06B093D8
:10214000AB066FE18CED0E94190389E00E94FC024E
:102150001AE0E090AE06F090AF06C7010E94280D8D
:10216000082F8093AD06C7010E940A03802F0E94AA
:10217000FC028091AE069091AF0601969093AF0657
:102180008093AE06115029F79BC0883009F056C0E5
:1021900082E080935D040AE011E00E94A805F82E19
:1021A0000E94A80590E0982F88276C01CF0CD11CC5
:1021B000D092AF06C092AE060E94A805F82E80937A
:1021C000AD061093AC060E945D13DC01CB01885470
:1021D000944FAF4FBF4F8093A8069093A906A0934A
:1021E000AA06B093AB066F2DC6010E94260D6DE0C6
:1021F00080E090E00E94260DE090AE06F090AF06E1
:1022000029E5E216F10429F03FE4E31631E0F30694
:1022100011F40E94FB0A015009F0BFCF8FEFE81ABA
:10222000F80AF092AF06E092AE0663E08CED0E94F1
:10223000190389E00E94FC02C70140C0873009F001
:1022400042C083E080935E046BE08CED0E94190332
:1022500087E00E94FC020CEA14E0D80150968D91B0
:102260009C91519723E0969587952A95E1F70E94D6
:102270000A030C5E1F4FB5E000311B0771F70E9487
:10228000F6026DE08CED0E9419038AE00E94FC02C8
:102290008DE090E00E940A0381E090E00E940A0332
:1022A00085EA96E00E940A0380E090E00E940A031B
:1022B00080E090E00E940A0381E090E00E940A031F
:1022C0000E94F602C8CE833009F075C0153031F592
:1022D0000E94A805082F10E00E94A805182B0032C4
:1022E0001D4109F0B8CE0E94A8058093A7060E9460
:1022F000A8058093A6068091DF038111ACCE809162
:10230000DD038111A8CE8091E2038111A4CE80E883
:1023100080936F0681E08093E2039DCE183309F02D
:102320009ACE80E7E82E86E0F82E87010E94A80565
:10233000D8018D938D01BB81B013F8CF0E94A80501
:10234000182F5E9860911104611160E480E00E9492
:102350001307612F89E00E94130700E0602F8AE0D5
:102360000E941307F70161917F018BE00E94130720
:102370000F5F063399F760EA88E00E94130780EA4E
:102380000E940D0785FDFBCF80911104811102C0D1
:102390006CE001C06CE480E00E9413075E9A64E187
:1023A00070E080E090E00E9423131F3F09F053CEBD
:1023B0000E94A10A50CE863079F400E010E060E07F
:1023C000C8010E94260D0F5F1F4F0115F2E01F0785
:1023D000B1F70E94DE0903C0853009F03CCE81E0F0
:1023E0008093490438CE81E0810F8093B006E12FBD
:1023F000F0E0EF5EFA4F2C8120838AEC96E00E9499
:10240000220C892B19F03A81311188CB0F900F9053
:102410000F900F900F90DF91CF911F910F91FF9030
:10242000EF90DF90CF90BF90AF909F908F907F9074
:102430006F905F904F903F902F900895682F8AEC97
:1024400096E00C94590CCF92DF92EF92FF920F938B
:102450001F93CF93DF93C42F97FF08C0909580956B
:10246000709561957F4F8F4F9F4FC22F24E630E0CC
:1024700040E050E00E948C24CA01B9011092C106CC
:10248000C093C006C9E02AE0C22ED12CE12CF12C69
:10249000DEE2C43019F4D093BA06C3E0C1500C2F69
:1024A00010E00954194FA70196010E948C24605D29
:1024B000F8016083B901CA01CC2339F0C33048F771
:1024C000611571058105910521F780E2CC2339F072
:1024D000C150EC2FF0E0E954F94F8083F7CF87EB40
:1024E00096E0DF91CF911F910F91FF90EF90DF90D9
:1024F000CF900895E8E8F5E02491E4E7F5E09491C1
:10250000E0E6F5E0E491EE2309F43BC0222339F143
:10251000233091F038F42130A9F0223001F524B5B0
:102520002F7D12C0273091F02830A1F02430B9F46B
:10253000209180002F7D03C0209180002F77209371
:1025400080000DC024B52F7724BD09C02091B000B4
:102550002F7703C02091B0002F7D2093B000F0E0D2
:10256000EE0FFF1FE15BFA4FA591B4912FB7F894DE
:10257000EC91811103C090959E2301C09E2B9C93EA
:102580002FBF0895CF93DF9390E0FC01E359FA4FFA
:102590002491FC01E75AFA4F8491882361F190E07D
:1025A000880F991FFC01EB5BFA4FC591D491FC0198
:1025B000E15BFA4FA591B491611109C09FB7F894FE
:1025C0008881209582238883EC912E230BC0623072
:1025D00061F49FB7F8943881822F80958323888394
:1025E000EC912E2B2C939FBF06C08FB7F894E881F7
:1025F0002E2B28838FBFDF91CF9108953FB7F8949A
:1026000080916C0790916D07A0916E07B0916F0754
:1026100026B5A89B05C02F3F19F00196A11DB11D3D
:102620003FBFBA2FA92F982F8827820F911DA11D78
:10263000B11DBC01CD0142E0660F771F881F991FB5
:102640004A95D1F708958F929F92AF92BF92CF9201
:10265000DF92EF92FF926B017C010E94FE124B0110
:102660005C01C114D104E104F104F1F00E94FE12F6
:10267000DC01CB0188199909AA09BB09883E93405E
:10268000A105B10570F321E0C21AD108E108F108F3
:1026900088EE880E83E0981EA11CB11CC114D104E1
:1026A000E104F10419F7DDCFFF90EF90DF90CF90B8
:1026B000BF90AF909F908F9008952FB7F89460913E
:1026C00068077091690780916A0790916B072FBF27
:1026D00008951F920F920FB60F9211242F933F93DC
:1026E0008F939F93AF93BF938091680790916907F1
:1026F000A0916A07B0916B073091670723E0230F21
:102700002D3720F40196A11DB11D05C026E8230F29
:102710000296A11DB11D20936707809368079093CF
:102720006907A0936A07B0936B0780916C0790913B
:102730006D07A0916E07B0916F070196A11DB11DA5
:1027400080936C0790936D07A0936E07B0936F070B
:10275000BF91AF919F918F913F912F910F900FBE9D
:102760000F901F901895CF93DF93CDB7DEB7E0970A
:102770000FB6F894DEBF0FBECDBF789484B58260EB
:1027800084BD84B5816084BD85B5826085BD85B515
:10279000816085BD80916E00816080936E00109293
:1027A000810080918100826080938100809181000E
:1027B000816080938100809180008160809380009F
:1027C0008091B10084608093B1008091B0008160FD
:1027D0008093B00080917A00846080937A00809129
:1027E0007A00826080937A0080917A008160809381
:1027F0007A0080917A00806880937A001092C100FC
:10280000E091DA06F091DB0682E08083E091D60663
:10281000F091D7061082E091D806F091D90690E1A8
:1028200090831092E206E091DE06F091DF0686E0EA
:102830008083E091DC06F091DD06808180618083F9
:10284000E091DC06F091DD06808188608083E09174
:10285000DC06F091DD06808180688083E091DC06F3
:10286000F091DD0680818F7D80838091C000826041
:102870008093C0001092C5009093C4008AEC96E04B
:102880000E94A00C84B18C6284B92498569A529804
:1028900060E084E10E94C21260E081E10E94C21205
:1028A00060E081E10E94C21261E087E00E94C212F2
:1028B0003B98F89480916C0083FD0AC08091680079
:1028C00082608093680080916C00886080936C00C7
:1028D00078940E94DE090E94FB0A64EF71E080E0B8
:1028E00090E00E94231380911804882311F081E066
:1028F00001C083E0809300010E94A10A8091DB0364
:102900009091DC0381609093DC038093DB030E9451
:10291000340BE9E0CE2ED12C1092980480915F0404
:102920009091600401969093600480935F0480917D
:102930004904882311F00C940000809140048130F8
:1029400019F480933F0402C010923F0410913F0499
:102950008091970418130E944D0A109397041091C8
:102960004B04163010F081E001C080E00E947A1222
:102970000E945D132B013C0180919304909194047B
:10298000A0919504B0919604B301A201481B590B84
:102990006A0B7B0B443651056105710508F44FC085
:1029A0008C599F4FAF4FBF4F8093930490939404E3
:1029B000A0939504B09396041F5F10934B048091ED
:1029C0004C048F5F80934C0481E090914E049111F0
:1029D00080E080934E046091690470916A04809154
:1029E0006B0490916C040E94D922609362017093F1
:1029F00063018093640190936501809101048823B1
:102A0000F1F08091000481111AC02091EB03309104
:102A1000EC034091ED035091EE036091EF03709150
:102A2000F0038091F1039091F2030E94EF216093F3
:102A3000EF037093F0038093F1039093F20380917E
:102A40008F0490919004A0919104B0919204481A3F
:102A5000590A6A0A7B0A22E342165104610471048E
:102A600010F40C943320C296A11DB11D80938F04E5
:102A700090939004A0939104B09392048091E70303
:102A80009091E803A091E903B091EA03892B8A2B86
:102A90008B2B81F48091E3039091E403A091E503F3
:102AA000B091E6038093E7039093E803A093E903D2
:102AB000B093EA038091E7039091E803A091E903C2
:102AC000B091EA0344275527BA01481B590B6A0BFA
:102AD0007B0B482359236A237B23409550956095AF
:102AE000709584239523A623B7238093E7039093BF
:102AF000E803A093E903B093EA038091E203811114
:102B00003BC080E290E00E941E125E9860E085E08B
:102B10000E94130760E086E00E94130761E084E0F2
:102B20000E9413070E94A4066FE6E62E61E0F62ECF
:102B300000E010E070E2972E8091520190915301D5
:102B40000817190780F4003F110511F40E94A4062C
:102B5000D7016C9187E00E941307F70191927F01E2
:102B60000F5F1F4FE9CF6FEF87E00E94130760E010
:102B700084E00E9413075E9A0E947C078091E00324
:102B80009091E103059788F55BE6E52E53E0F52E7D
:102B900000E410E0F70185919491B8010E94D706F6
:102BA000F2E0EF0EF11C025E1F4F003321E012072E
:102BB00089F788EF90E00E94FC06E0914A04F0E07B
:102BC000EE0FFF1FED59FC4F8591949166E171E086
:102BD0000E94D70680918D0490918E04CC9790939B
:102BE000500480934F040C9433201091DF03112381
:102BF00049F081E08093DE038091DD03813011F4A0
:102C00000E942A0D0091DE03002371F011110CC007
:102C100010922C018AE080932B0181E080932A019D
:102C20008093DD030E94340B8091DD03882309F437
:102C3000B2C310912C01E12FEE0FFF0BE350FC4FBC
:102C40008591949163E270E00E94D7066BE671E093
:102C500088EF93E00E94D70601110CC061E771E094
:102C60008EEE93E00E94D7066BE771E087EE93E06B
:102C70000E94D70611118BC080916201909163016F
:102C8000A0916401B09165018D839E83AF83B88765
:102C900080914F0390915003A0915103B091520342
:102CA00089879A87AB87BC8780916D0190916E016F
:102CB000092E000CAA0BBB0B8D879E87AF87B88BA4
:102CC0008091530390915403A0E0B0E0898B9A8BDC
:102CD000AB8BBC8B20E030E044EB53E46091EF031E
:102CE0007091F0038091F1039091F2030E946022B1
:102CF0000E94D9226D8B7E8B8F8B988F809169017A
:102D000090916A016AE070E00E94C021CB01A0E0CE
:102D1000B0E0898F9A8FAB8FBC8F39EDE32E33E013
:102D2000F32EAE014F5F5F4F4A010DE510E0F70152
:102D300085919491B8010E94D706F40181919191F7
:102D4000A191B1914F014AE066EB76E00E944124E7
:102D5000B8016F5E7F4F0E94F206F2E0EF0EF11CA9
:102D6000025E1F4F0F3221E0120709F760918103C5
:102D70007091820380E090E021E046EB56E00E94F3
:102D8000C3056DE670E086EB96E00E94F206809146
:102D90002C01813009F091C00E947C0787E9809363
:102DA000B60623E044E067EB76E080916B019091FA
:102DB0006C010E94580619EA1093BB061092BC06DB
:102DC00064E370E086EB96E00E94F2068FEB80935E
:102DD000B60623E044E067EB76E0809167019091CE
:102DE00068010E9458061093BB061092BC066CE264
:102DF00070E086EB96E00E94F2062BECE22E23E0D8
:102E0000F22E0DE510E0F70185919491B8010E9432
:102E1000D70632E0E30EF11C025E1F4F0F3241E095
:102E2000140789F7809104044AE066EB76E090E0AD
:102E30000E9441246BEC70E00E94F20667E081E79B
:102E400090E00E94E2068091FD034AE066EB76E0A6
:102E500090E00E9441246FE870E00E94F2068091A9
:102E6000FB034AE066EB76E090E00E9441246DEAC5
:102E700070E00E94F20661E18BEC90E00E94E206B5
:102E8000809105044AE066EB76E090E00E944124E0
:102E900069EE70E00E94F2068091FC034AE066EB66
:102EA00076E090E00E94412467E071E00E94F20623
:102EB0006BE085E291E00E94E20680912C01823075
:102EC00009F06FC04AE066EB76E08091D5039091FF
:102ED000D6030E944124E0E0AE2FB0E0AA54B94FDF
:102EE0008C91EF5F8111F8CF85E28C93F0E0EA548A
:102EF000F94F108265E370E086EB96E00E94F206DF
:102F00009FEBE92E93E0F92E0DE510E0F701859196
:102F10009491B8010E94D70652E0E50EF11C025EC2
:102F20001F4F013171E0170789F764E081E790E0F6
:102F30000E94E20680915104882349F04AE066EB42
:102F400076E090E00E9441246FE870E004C06FE8F2
:102F500070E080E591E00E94F20665E08DEA90E085
:102F60000E94E20666E08BEC90E00E94E2064AE0F6
:102F700066EB76E080915C0190915D010E944124B6
:102F800069EE70E00E94F2064AE066EB76E080911E
:102F90005A0190915B010E94412467E071E00E9418
:102FA000F20680912C01833009F05AC06091EB0346
:102FB0007091EC038091ED039091EE030E94D22278
:102FC000DC01CB0123E044E066EB76E00E9458068A
:102FD0008AE98093BA061092BB0664E370E086EB40
:102FE00096E00E94F20685EBE82E83E0F82E0DE5D0
:102FF00010E0F70185919491B8010E94D70682E014
:10300000E80EF11C025E1F4F033F110591F76CE0C3
:1030100081E790E00E94E2066EE08FE890E00E9477
:10302000E2066FE08DEA90E00E94E2064AE066EB7D
:1030300076E080915801909159010E9441246BECF7
:1030400070E00E94F2064AE066EB76E0809156015D
:10305000909157010E94412469EE70E00E94F206AF
:1030600080912C01843009F044C005EAE02E03E091
:10307000F02E0DE510E0F70185919491B8010E94C2
:10308000D70692E0E90EF11C025E1F4F0D34A1E05D
:103090001A0789F760E281E790E00E94E20661E2A8
:1030A0008FE890E00E94E2066DE28DEA90E00E94D7
:1030B000E2066FE18BEC90E00E94E20667E189EEA8
:1030C00090E00E94E20664E387E091E00E94E2065D
:1030D0006EE285E291E00E94E206809117044AE0E8
:1030E00066EB76E090E00E94412463E471E00E9488
:1030F000F20680912C01853009F058C019E9E12EC3
:1031000013E0F12E0DE510E0F70185919491B801DF
:103110000E94D706B2E0EB0EF11C025E1F4F013198
:10312000E1E01E0789F78091100461E770E08111EA
:1031300003C085E993E002C081E993E00E94D706CD
:10314000809118046FE870E0882319F08EE893E00E
:1031500002C089E893E00E94D7066CE28DEA90E015
:103160000E94E20680915204882349F04AE066EB0F
:1031700076E090E00E9441246BEC70E004C06BECC0
:1031800070E080E591E00E94F20680912D044AE013
:1031900066EB76E090E00E94412469EE70E00E94C8
:1031A000F20663E187E091E00E94E20680912C0143
:1031B000863009F04EC08091310490E09E8F8D8F53
:1031C0008091320490E098A38F8F8091330490E037
:1031D0009AA389A38091340490E09CA38BA380914F
:1031E000070490E09EA38DA38091080490E098A727
:1031F0008FA30DE510E0E12CF12C912CF701E5589F
:10320000FC4F85919491B8010E94D706F6E09F1675
:1032100091F04AE066EB76E0EDE1F0E0EC0FFD1FA7
:10322000EE0DFF1D808191810E944124B8016C5EEA
:103230007F4F0E94F206939422E0E20EF11C025EA0
:103240001F4F37E09312DACF60E185E291E00E94F0
:10325000E20680912C01873014F010922C0120910D
:103260002B012A3071F480912A01833009F4D1C7EF
:10327000813009F480C0823009F080C080E791E09D
:103280007FC02A3008F07AC030912C01313079F4B7
:1032900083E080932A01283019F48AE080932B017F
:1032A00080912B01893009F063C087E05FC0323024
:1032B00079F483E080932A01273019F48AE080931F
:1032C0002B0180912B01893009F052C086E04EC05D
:1032D000333069F430932A01293019F485E0809362
:1032E0002B0180912B01863009F042C03EC0343062
:1032F000E9F4293049F480916D04883011F48AE0B2
:1033000001C088E080932B0120912B0120936D0454
:1033100083E080932A0130E02E5F3F4F4EE1429FD1
:10332000C001439F900D112446962AC080E090E092
:10333000353069F483E080932A01293019F486E05E
:1033400080932B0180912B01873091F40EC0363091
:10335000B9F483E080932A01293019F487E080933F
:103360002B0180912B01883019F48AE080932B0186
:1033700020912B01D0CF8AE691E002C080E090E05E
:1033800020914E04222309F46EC6FC01E159FE4F40
:1033900023E0208368C60E94340B8091DB0380FF0A
:1033A0000EC28090D9039090DA03E090D703F0909A
:1033B000D80380E58093B606C4014AE084169104E0
:1033C00034F06AE070E00E94D421CB010CC066EFBB
:1033D0007FEF0E94D421CB0197FE05C02DE2209300
:1033E000B70662E001C061E070E06A54794F4AE0DC
:1033F0000E9441248FE00E94B305882349F0609128
:10340000A1037091A203717086EB96E00E94F20610
:1034100082E58093B606C7015AE0E516F10434F060
:103420006AE070E00E94D421CB010CC066EF7FEF10
:103430000E94D421CB01F7FE05C02DE22093B706F0
:1034400062E001C061E070E06A54794F4AE00E9496
:10345000412480E10E94B305882349F06091A303D1
:103460007091A403717086EB96E00E94F206709052
:10347000200471100AC080912804811106C083E1E4
:10348000809302018093010199C08091DF03811133
:1034900004C0109281041092800400918004109165
:1034A000810480917C0490917D049801215F3F4FBD
:1034B00028173907C0F40E945D1360937804709355
:1034C000790480937A0490937B0482E0809377045C
:1034D00010937D0400937C0480910201815080311F
:1034E000E8F485E11BC00F9680179107C8F40E948D
:1034F0005D13609378047093790480937A049093B9
:103500007B0481E08093770410937D0400937C0416
:10351000809102018F5F863108F080E18093020183
:103520008091730490917404A0917504B091760415
:1035300085319105A105B105E4F00E945D1360930A
:103540006F0470937004809371049093720482E00E
:1035500080936E0410927304109274041092750498
:1035600010927604809101018150803110F585E13F
:1035700020C08C3E9F4FAF4FBF4FECF40E945D13B5
:1035800060936F047093700480937104909372043D
:1035900081E080936E041092730410927404109270
:1035A000750410927604809101018F5F863108F0D6
:1035B00080E180930101772009F461CF0091B50388
:1035C0001091B603117089EC8816910454F498E3B5
:1035D00089169FEF990644F4A8E38A2E99249A94B9
:1035E00003C0B8EC8B2E912CA1E9EA16A1E0FA06F3
:1035F00054F4B0E7EB16BEEFFB064CF4E0E7EE2E1A
:10360000EEEFFE2E04C0F0E9EF2EFF24F39470904D
:10361000130489E10E94B305872109F48CC01401C9
:10362000EAE02E0E311C37FE04C01401F1E12F0E2A
:10363000311C63E0359427946A95E1F73194219425
:10364000310870902504912C7EE1872EE92DF0E061
:1036500084E090E08E1B9F0BE89E9001E99E300D68
:10366000F89E300D112437FF02C0215C3F4F46E029
:10367000359527954A95E1F7220D331D275D3F4F7C
:1036800022353105F0F5E00FF11FC901B6010E94A6
:10369000D421869EA001879E500D1124E40FF51FB2
:1036A000AF014C575109403E71E0570728F4DA0149
:1036B000A159BE4F80588C93772019F18EEF890D58
:1036C0008530F8F4CF01865D9109803EA1E09A072C
:1036D00058F4AC0141595E4F2A01C901B6010E945C
:1036E000D4218058D2018C93B297E03EB1E0FB0721
:1036F00040F4E159FE4FC901B6010E94D42180581F
:1037000080839394E8E0E91530F024E092129ECF94
:1037100055E0952E9BCF82E20E94B30581110BC02C
:10372000F801E159FE4FDF01119786E28C938CEB93
:1037300081838EE7808380911404882309F43FC03D
:103740008AE10E94B3058823D1F18091BD03982FAF
:103750009F708091BB038F70782E482F41956091A8
:10376000020150910101892E990F99089801281999
:1037700039097401E00EF11EFEE14F02C00111246F
:1037800081599E4FFC01E20FF31F6083FC01EE0D97
:10379000FF1D50834F5F74167CF7F801E819F90993
:1037A000E059FE4F83E08083F801E80DF91DE259EE
:1037B000FE4F82E080838091280481112DC5809185
:1037C000FA03882309F45AC0F090FB03F0927F04B7
:1037D000E091FC03E0937E048091150400916B015D
:1037E00010916C018823A9F172E2E79F2001112456
:1037F0008AE2E89FF00111240415150510F4242D28
:1038000007C09F01225031090217130708F49801DD
:10381000052C000C66087708822F90E0A0E0B0E04D
:103820009C01AD012419350946095709A7E0B0E00C
:103830000E94AB2431974F01A12CB12CA50194011A
:1038400024193509460957090E948C2486E9821BF0
:1038500001C087E98093B606EF2CF12C0E151F05E9
:1038600020F480914D04811109C085E10E94B305C7
:10387000811131C5E016F10608F02DC580910404D0
:10388000882369F1009167011091680180916601B8
:1038900090E00817190720F480914D0481111FC092
:1038A00086E10E94B3058823D1F08FEB8093B606A2
:1038B00023E044E067EB76E0C8010E94580689EAFD
:1038C0008093BB061092BC066091AF037091B00369
:1038D00071706150710986EB96E00E94F20680914A
:1038E000F7038823B1F10091D5031091D6032091FD
:1038F000F60330E02017310724F080914D0488232F
:1039000041F183E10E94B305882319F18AEB80938A
:10391000B6064AE067EB76E0C8010E944124E0E089
:10392000AE2FB0E0AA54B94F8C91EF5F8111F8CF60
:1039300085E28C93F0E0EA54F94F10826091A9037C
:103940007091AA0371706150710986EB96E00E9434
:10395000F2068091FF03882309F45CC04090EB03DA
:103960005090EC036090ED037090EE0320E030E0A7
:1039700040E251E4C301B2010E9460224B015C01AC
:103980006091080470E080E090E00E940A239B01AF
:10399000AC01C501B4010E945B2287FD04C0809187
:1039A0004D048823B9F16091690170916A0180E04A
:1039B00090E00E9408239B01AC01C301B2010E9468
:1039C000BA23181644F4C301B2010E94D92270939D
:1039D0006A016093690187E10E94B3058823D1F0F1
:1039E000C301B2010E94D222DC01CB0124E045E0F8
:1039F00066EB76E00E9458068AE98093BB06109237
:103A0000BC066091B1037091B203717086EB96E0D1
:103A10000E94F206809101048823B1F120E030E099
:103A200044EB53E46091EF037091F0038091F10354
:103A30009091F2030E9460220E94D2222B013C014D
:103A40002091070494E6299F90011124241535053F
:103A500024F480914D048823B9F088E10E94B305D5
:103A6000882391F084EA8093B6064AE067EB76E01B
:103A7000C2010E9441246091B3037091B40371703C
:103A800086EB96E00E94F20680912604882309F4D2
:103A90004CC000919D0310919E030115A2E01A07EE
:103AA00008F443C08091DF038823F1F02091820461
:103AB00030918304C9016CE370E00E94C0218091C1
:103AC000340490E06817790720F080914D0481114B
:103AD0002CC02031BEE03B0728F48CE98093B60669
:103AE000B90116C081E709C060918D0470918E0400
:103AF0006031EEE07E0720F48BE98093B60608C0C3
:103B000080E78093B606CB016CE370E00E94C02191
:103B100080E090E020E047EB56E00E94C305B8014A
:103B2000717086EB96E00E94F20685E20E94B30572
:103B30008823A1F10091CD031091CE031170609103
:103B40006B0170916C0180E090E00E94082320914D
:103B5000EB033091EC034091ED035091EE030E9492
:103B6000BF2320E030E048EC52E40E9460220E9433
:103B7000D922DC01CB0125E045E067EB76E00E942D
:103B8000580680E28093B60687E58093BB061092C4
:103B9000BC06B80186EB96E00E94F2068EE00E9419
:103BA000B305882309F4ADC080910304882309F488
:103BB000A8C08091DF03811107C0809198048260C2
:103BC000809398048EE10EC080910301882369F0F0
:103BD00090914E04911195C09091980494609093A7
:103BE000980481508093030105C0809198048160FE
:103BF0008093980480917F0490E020916B01309134
:103C00006C018217930728F0809198048064809358
:103C100098048091DB0383FF1CC08091860485306B
:103C200028F48091980480628093980480915C04C9
:103C3000811105C0809198048061809398048091DF
:103C40005B04811106C0809198048F7C886080930A
:103C5000980480919904811104C080919804809304
:103C6000990410919904212F2195022F01230E947C
:103C70005D138090650490906604A0906704B090F6
:103C80006804F4EF8F0EF1E09F1EA11CB11C861694
:103C90009706A806B90688F4112329F0802F80958D
:103CA0001823109399040E945D1360936504709328
:103CB0006604809367049093680480E090E0E0E0FD
:103CC000202F30E0A901082E02C0559547950A948F
:103CD000E2F740FDE82F01968830910599F7809131
:103CE0009804823070F0F0E0EE0FFF1FE55FFB4FAD
:103CF0008591949160919F037091A00371700E94CF
:103D0000D70680911204882309F48FC08BE00E94AB
:103D1000B305882309F489C080E28093B7068091B7
:103D20000A0190910B01209106013091070128179B
:103D3000390720F490930701809306012091040134
:103D4000309105018217930720F490930501809329
:103D5000040120910601309107012330384030F0F2
:103D6000A2E0B8E0B0930701A093060120910401FE
:103D700030910501263B334030F4E6EBF3E0F0935D
:103D80000501E09304012091DF03211109C080E2C5
:103D90008093B8069DE29093B9069093BA0635C019
:103DA00020910604222339F020E044E068EB76E01D
:103DB0000E9458062CC04090040150900501612CCF
:103DC000712CA0E0B0E09C01AD0124193509460931
:103DD0005709A4E6B0E00E94AB242091060130917F
:103DE0000701890120E030E0A90198012419350973
:103DF000460957090E948C24DA01C90120E043E0FA
:103E000068EB76E00E94580685E28093BB0688EC5A
:103E10008093B6061092BC066091990370919A0344
:103E2000717086EB96E00E94F20620918D0430912D
:103E30008E0480914F0490915004AC01445C5F4F1C
:103E400042175307A0F4805C9F4F8217930720F41A
:103E50003093500420934F0480911B04882339F041
:103E60008091D1039091D20391700E94FC068091C1
:103E7000DB0382FF46C088E00E94B305882389F0F7
:103E800080912404882369F0809193039091940396
:103E9000917049E050E064E274E081599E4F0E94C5
:103EA000312487E00E94B305882359F180910E04E4
:103EB000882339F180910F0420E0882369F043E0E2
:103EC00066EB76E080E090E00E9458068DEB8093F0
:103ED000B9061092BA060CC044E066EB76E080E0CA
:103EE00090E00E9458068DEB8093BA061092BB06B4
:103EF0006091910370919203717086EB96E00E943D
:103F0000F2068091DB0381FF4CC08091DF038823A0
:103F100081F08091E0039091E103069750F0809149
:103F20006D0190916E0197FF04C010926E01109286
:103F30006D0189E00E94B3058823E1F0809123049C
:103F40008823C1F04AE067EB76E080E090E00E94D1
:103F50004124E0911004F0E0ED5CFE4F80818093FD
:103F6000B6066091950370919603717086EB96E0AA
:103F70000E94F2068AE00E94B305882391F08091A6
:103F80002204882371F0E0919703F0919803F17077
:103F9000E159FE4FDF015E978FE78C93868F8DE8A6
:103FA00080838091DB0383FF27C0809109048823ED
:103FB00019F110918604153020F480914D0481117F
:103FC0001BC080E00E94B3058823B1F08EE180938E
:103FD000B6068FE18093B7064AE068EB76E0812F62
:103FE00090E00E944124609183037091840371707A
:103FF00086EB96E00E94F20680915B04882399F19B
:1040000080912704882381F01092B60686E00E94F2
:10401000B305882349F060918F037091900371700C
:1040200086EB96E00E94F206E0914004F0E0EE0F8D
:10403000FF1FEA5CFB4F6591749186EB96E00E944E
:104040003A2480911A04882371F081E20E94B3051A
:10405000882349F06091C5037091C603717086EBA7
:1040600096E00E94F20680914C04853048F0109250
:104070004C0481E090914D04911180E080934D04B7
:104080000E945D1300915704109158042091590427
:1040900030915A0408511C4F2F4F3F4F06171707F6
:1040A0002807390708F0AEC000935704109358044E
:1040B0002093590430935A0410924B0480915F046A
:1040C0009091600490938C0480938B041092600410
:1040D00010925F04809161049091620490938A042D
:1040E00080938904109262041092610480916304A9
:1040F00090916404909388048093870410926404E0
:104100001092630480918D0490918E040196909397
:104110008E0480938D048091E203811117C05E9814
:1041200080EA0E940D078FEF0E940D078370909127
:104130008003981719F00E94A10A08C080E80E9425
:104140000D078FEF0E940D0783FFF5CF80915C0470
:10415000811103C01092860403C0815080935C04D7
:1041600080915B04882319F0815080935B048091D7
:104170005D04882319F0815080935D048091DF03F2
:10418000811105C0109285041092840416C080919C
:104190008204909183040196909383048093820417
:1041A0008091810390918203019690938203809382
:1041B00081031092DD030E94340B8091E003909103
:1041C000E10301969093E1038093E0038091520410
:1041D000813051F48091DD03882331F060E08EEC72
:1041E0000E9419031092520480915204882319F0FE
:1041F00081508093520480915104882319F081509A
:104200008093510481E00E945D0D0E94C20C0C94C9
:104210008C148AE791E0B4C88BE10E94B30588232F
:1042200009F4CDCA0E945D1320917804309179047D
:1042300040917A0450917B0428513C4F4F4F5F4F7F
:104240006217730784079507D8F480917704F80103
:10425000823059F42EE1729EE019F1091124E81917
:10426000F909E159FE4F89EC0AC03EE1739EE00D69
:10427000F11D1124E819F909E159FE4F8FEC8083F3
:104280000E945D1300916F041091700420917104DD
:104290003091720408511C4F2F4F3F4F6017710728
:1042A0008207930708F08BCA80916E049701215909
:1042B0003E4FF901823039F44EE1749EE019F10964
:1042C000112489EC06C05EE1759EE00DF11D1124FC
:1042D0008FEC808374CA23E044E067EB76E0C8018A
:1042E0000E94580689EA8093BB061092BC06609132
:1042F000AD037091AE0371706150710986EB96E069
:104300000E94F206BBCAEAECF6E01382128288EE43
:1043100093E0A0E0B0E084839583A683B78384E430
:1043200091E09183808385EC90E09587848784EC8D
:1043300090E09787868780EC90E0918B808B81EC72
:1043400090E0938B828B82EC90E0958B848B86EC53
:1043500090E0978B868B118E128E138E148E08959B
:10436000DB018F939F930E94AB24BF91AF91A29FDB
:10437000800D911DA39F900DB29F900D1124089563
:10438000AA1BBB1B51E107C0AA1FBB1FA617B7077B
:1043900010F0A61BB70B881F991F5A95A9F7809597
:1043A0009095BC01CD01089597FB072E16F400945B
:1043B00007D077FD09D00E94C02107FC05D03EF44C
:1043C000909581959F4F0895709561957F4F0895C1
:1043D000EE0FFF1F0590F491E02D09945058BB2774
:1043E000AA270E9406220C9480230E94722338F090
:1043F0000E94792320F039F49F3F19F426F40C949D
:104400006F230EF4E095E7FB0C946923E92F0E94DB
:10441000912358F3BA17620773078407950720F0B2
:1044200079F4A6F50C94B3230EF4E0950B2EBA2F75
:10443000A02D0B01B90190010C01CA01A0011124AA
:10444000FF27591B99F0593F50F4503E68F11A1656
:10445000F040A22F232F342F4427585FF3CF4695E7
:1044600037952795A795F0405395C9F77EF41F1609
:10447000BA0B620B730B840BBAF09150A1F0FF0FD3
:10448000BB1F661F771F881FC2F70EC0BA0F621FBF
:10449000731F841F48F4879577956795B795F795AF
:1044A0009E3F08F0B0CF9395880F08F09927EE0F44
:1044B0009795879508950E94452308F481E0089513
:1044C0000E9474220C9480230E94792358F00E9449
:1044D000722340F029F45F3F29F00C9469235111B5
:1044E0000C94B4230C946F230E94912368F39923B6
:1044F000B1F3552391F3951B550BBB27AA276217E0
:104500007307840738F09F5F5F4F220F331F441FEC
:10451000AA1FA9F335D00E2E3AF0E0E832D0915020
:104520005040E695001CCAF72BD0FE2F29D0660F0D
:10453000771F881FBB1F261737074807AB07B0E850
:1045400009F0BB0B802DBF01FF2793585F4F3AF056
:104550009E3F510578F00C9469230C94B4235F3F7F
:10456000E4F3983ED4F3869577956795B795F795DC
:104570009F5FC9F7880F911D9695879597F90895C4
:10458000E1E0660F771F881FBB1F62177307840760
:10459000BA0720F0621B730B840BBA0BEE1F88F76F
:1045A000E09508950E94D9226894B1110C94B42327
:1045B00008950E94992388F09F5798F0B92F992762
:1045C000B751B0F0E1F0660F771F881F991F1AF0FE
:1045D000BA95C9F714C0B13091F00E94B323B1E08D
:1045E00008950C94B323672F782F8827B85F39F08C
:1045F000B93FCCF3869577956795B395D9F73EF497
:1046000090958095709561957F4F8F4F9F4F08953E
:10461000E89409C097FB3EF490958095709561955C
:104620007F4F8F4F9F4F9923A9F0F92F96E9BB2712
:104630009395F695879577956795B795F111F8CF8E
:10464000FAF4BB0F11F460FF1BC06F5F7F4F8F4FF9
:104650009F4F16C0882311F096E911C0772321F0EF
:104660009EE8872F762F05C0662371F096E8862F87
:1046700070E060E02AF09A95660F771F881FDAF7DE
:10468000880F9695879597F90895990F0008550F0B
:10469000AA0BE0E8FEEF16161706E807F907C0F0C8
:1046A00012161306E407F50798F0621B730B840BD0
:1046B000950B39F40A2661F0232B242B252B21F4AA
:1046C00008950A2609F4A140A6958FEF811D811D4A
:1046D000089597F99F6780E870E060E008959FEF84
:1046E00080EC089500240A94161617061806090689
:1046F000089500240A941216130614060506089558
:10470000092E0394000C11F4882352F0BB0F40F4DF
:10471000BF2B11F460FF04C06F5F7F4F8F4F9F4F1F
:10472000089557FD9058440F551F59F05F3F71F0A1
:104730004795880F97FB991F61F09F3F79F0879508
:104740000895121613061406551FF2CF4695F1DF91
:1047500008C0161617061806991FF1CF8695710521
:10476000610508940895E894BB2766277727CB0155
:1047700097F908950E94452308F48FEF08950E9449
:10478000D2230C9480230E94722338F00E94792354
:1047900020F0952311F00C9469230C946F231124BD
:1047A0000C94B4230E94912370F3959FC1F3950F4D
:1047B00050E0551F629FF001729FBB27F00DB11DA5
:1047C000639FAA27F00DB11DAA1F649F6627B00D35
:1047D000A11D661F829F2227B00DA11D621F739F1E
:1047E000B00DA11D621F839FA00D611D221F749F2C
:1047F0003327A00D611D231F849F600D211D822F73
:10480000762F6A2F11249F5750409AF0F1F0882399
:104810004AF0EE0FFF1FBB1F661F771F881F9150C6
:104820005040A9F79E3F510580F00C9469230C94E9
:10483000B4235F3FE4F3983ED4F38695779567956C
:10484000B795F795E7959F5FC1F7FE2B880F911DF0
:104850009695879597F9089581E090E0F8940C94E7
:10486000E724FB01DC0102C005900D92415050404D
:10487000D8F70895FB01DC0105900D920020E1F7C7
:104880000895BB274A3031F4992322F4BDE2909574
:1048900081959F4F0C944D24BB27FB015527AA27D8
:1048A000880F991FAA1FA41710F0A41B83955051BD
:1048B000B9F7A05DAA3308F0A95DA193009779F735
:1048C000B111B1931192CB010C946624DC01FC016F
:1048D000672F71917723E1F7329704C07C916D9334
:1048E00070836291AE17BF07C8F30895F999FECFA0
:1048F00092BD81BDF89A992780B50895262FF99920
:10490000FECF1FBA92BD81BD20BD0FB6F894FA9AB2
:10491000F99A0FBE01960895052E97FB1EF4009498
:104920000E94A32457FD07D00E94B62407FC03D0A1
:104930004EF40C94A32450954095309521953F4F0B
:104940004F4F5F4F089590958095709561957F4F7B
:104950008F4F9F4F08950E94D824A59F900DB49F1C
:10496000900DA49F800D911D11240895A1E21A2E8F
:10497000AA1BBB1BFD010DC0AA1FBB1FEE1FFF1F03
:10498000A217B307E407F50720F0A21BB30BE40B53
:10499000F50B661F771F881F991F1A9469F760959A
:1049A0007095809590959B01AC01BD01CF01089554
:1049B000A29FB001B39FC001A39F700D811D112460
:1049C000911DB29F700D811D1124911D0895F894C1
:0249D000FFCF17
:1049D2000110101E4C046C07DC05DC05DC05DC054F
:1049E200DC05DC05DC05DC05DC05DC05DC05DC05BD
:1049F200DC05DC05DC05DC050000030A0101010120
:104A0200000000A7A8BBB97AA7DFBB0E100F1111D7
:104A120000000000590CD50B220C000C140CA00C49
:024A22002D0065
:00000001FF
